:100000000C9420010C94B3090C948C090C944801B5
:100010000C9448010C9448010C9448010C9448013C
:100020000C9448010C9448010C9448010C9448012C
:100030000C9448010C9448010C9448010C9448011C
:100040000C9442090C9448010C94000A0C94DA09AF
:100050000C9448010C9448010C9448010C944801FC
:100060000C94320A0C9448014E414E494E49545961
:10007000494E46CDCCCC3D0AD7233C17B7D1387773
:10008000CC2B329595E6241FB14F0A000020410089
:1000900000C84200401C4620BCBE4CCA1B0E5AAED3
:1000A000C59D7400407A10F35A00A0724E180900E2
:1000B00010A5D4E80000E87648170000E40B5402CD
:1000C0000000CA9A3B000000E1F505000080969808
:1000D00000000040420F000000A086010000001058
:1000E0002700000000E8030000000064000000009A
:1000F000000A00000000000100000000002C76D87B
:1001000088DC674F0823DFC1DFAE59E1B1B796E560
:10011000E3E453C63AE651997696E8E6C28426EBC4
:10012000898C9B62ED407C6FFCEFBC9C9F40F2BAD7
:10013000A56FA5F490055A2AF75C936B6CF9676D6F
:10014000C11BFCE0E40D47FEF520E6B500D0ED90C4
:100150002E0300943577050080841E080000204E91
:100160000A000000C80C333333330F986E1283112A
:1001700041EF8D2114893BE65516CFFEE6DB18D101
:10018000844B381BF77C1D901DA4BBE424203284D3
:10019000725E228100C9F124ECA1E53D2741726421
:1001A00075696E6F204F4E4C494E45004172647523
:1001B000696E6F20426F6F74696E672E2E2E00433A
:1001C0006F6D6D616E642072656365697665643A12
:1001D0002000454D455247454E435953544F5050CA
:1001E00045440000000000240027002A0000000011
:1001F00000250028002B0000000000230026002915
:1002000000040404040404040402020202020203BF
:1002100003030303030102040810204080010204C9
:10022000081020010204081020000000080002014C
:1002300000000304070000000000000000004D0B58
:1002400011241FBECFEFD8E0DEBFCDBF23E0A0EA70
:10025000B1E001C01D92A33DB207E1F711E0A0E0BB
:10026000B1E0E0E0FBE302C005900D92A03AB107D7
:10027000D9F711E0C0E2D1E004C02197FE010E944D
:100280009B1ACF31D107C9F70E94830C0C947E1DB5
:100290000C9400008230C8F4E82FF0E0EE0FFF1F4E
:1002A000E85EFE4F71836083813041F08091690088
:1002B0008C7F826080936900E89A0895809169003C
:1002C000837F886080936900E99A0895833081F084
:1002D00028F4813099F08230A9F008958730A9F090
:1002E0008830C9F08430B1F4809180008F7D03C0E4
:1002F000809180008F7780938000089584B58F77F8
:1003000084BD089584B58F7DFBCF8091B0008F7739
:100310008093B00008958091B0008F7DF9CFCF9386
:10032000DF93282F30E0F901E75DFD4F8491F9015B
:10033000EB5EFD4FD491F901EF5FFD4FC491CC23EB
:10034000A1F081110E946601EC2FF0E0EE0FFF1F7B
:10035000E950FE4FA591B491EC91ED2381E090E03E
:1003600009F480E0DF91CF91089580E090E0FACF2A
:100370001F93CF93DF93282F30E0F901E75DFD4F06
:100380008491F901EB5EFD4FD491F901EF5FFD4FD0
:10039000C491CC23A9F0162F81110E946601EC2F85
:1003A000F0E0EE0FFF1FE351FE4FA591B4918FB720
:1003B000F894EC91111108C0D095DE23DC938FBF27
:1003C000DF91CF911F910895DE2BF8CFCF93DF936C
:1003D00090E0FC01EB5EFD4F24918F5F9D4FFC018F
:1003E00084918823C9F090E0880F991FFC01ED519A
:1003F000FE4FA591B491FC01E351FE4FC591D491FC
:1004000061110DC09FB7F8948C91209582238C9335
:100410008881282328839FBFDF91CF910895623080
:1004200051F49FB7F8943C91822F809583238C934D
:10043000E8812E2BEFCF8FB7F894EC912E2B2C93D5
:100440008FBFEACF1F93CF93DF93182FEB0161E0AB
:100450000E94E601209739F460E0812FDF91CF916F
:100460001F910C94B801CF3FD10511F461E0F5CF95
:10047000E12FF0E0E75DFD4FE491E33031F140F42E
:10048000E130B1F0E230E1F0C038D1057CF7E4CFE3
:10049000E73029F1E83059F1E430B1F7809180007C
:1004A000806280938000D0938B00C0938A0004C048
:1004B00084B5806884BDC7BDDF91CF911F91089539
:1004C00084B5806284BDC8BDF7CF8091800080680C
:1004D00080938000D0938900C0938800EDCF8091F5
:1004E000B00080688093B000C093B300E5CF8091E6
:1004F000B00080628093B000C093B400DDCF3FB7FE
:10050000F89480918C0290918D02A0918E02B0910E
:100510008F0226B5A89B05C02F3F19F00196A11D9B
:10052000B11D3FBFBA2FA92F982F8827BC01CD013D
:10053000620F711D811D911D42E0660F771F881F9C
:10054000991F4A95D1F708952FB7F89460918802C2
:100550007091890280918A0290918B022FBF089539
:100560000895AF92BF92CF92DF92EF92FF920F93D6
:100570001F93CF93DF936C017B018B01040F151F39
:10058000EB015E01AE18BF08C017D10759F06991A1
:10059000D601ED91FC910190F081E02DC601099505
:1005A000892B79F7C501DF91CF911F910F91FF90B2
:1005B000EF90DF90CF90BF90AF900895FC01538DE6
:1005C000448D252F30E0842F90E0821B930B54172D
:1005D00010F0CF96089501970895FC01918D828DBA
:1005E000981761F0A28DAE0FBF2FB11D5D968C9153
:1005F000928D9F5F9F73928F90E008958FEF9FEF92
:100600000895FC01918D828D981731F0828DE80F4D
:10061000F11D858D90E008958FEF9FEF0895FC0107
:10062000918D228D892F90E0805C9F4F821B9109D4
:100630008F739927089580E992E00E940F0321E0CB
:10064000892B09F420E0822F089580E090E0892B27
:1006500029F00E941B0381110C9400000895FC01F5
:10066000A48DA80FB92FB11DA35ABF4F2C91848D13
:1006700090E001968F739927848FA689B7892C9370
:10068000A089B1898C91837080648C93938D848DC3
:10069000981306C00288F389E02D80818F7D8083C6
:1006A0000895EF92FF920F931F93CF93DF93EC0186
:1006B00081E0888F9B8D8C8D98131AC0E889F98909
:1006C000808185FF15C09FB7F894EE89FF8960830C
:1006D000E889F98980818370806480839FBF81E08D
:1006E00090E0DF91CF911F910F91FF90EF900895CF
:1006F000F62E0B8D10E00F5F1F4F0F731127E02EAA
:100700008C8D8E110CC00FB607FCFACFE889F989E1
:10071000808185FFF5CFCE010E942F03F1CFEB8DB5
:10072000EC0FFD2FF11DE35AFF4FF0829FB7F894B5
:100730000B8FEA89FB8980818062CFCF0F931F9353
:10074000CF93DF938C01D0E0C0E0F801EC0FFD1FE8
:100750006491662341F080E992E00E945103892B65
:1007600011F02196F2CFCE01DF91CF911F910F9121
:100770000895CF93DF93EC01888D8823B9F0AA897F
:10078000BB89E889F9898C9185FD03C0808186FD4C
:100790000DC00FB607FCF7CF8C9185FFF2CF80819B
:1007A00085FFEDCFCE010E942F03E9CFDF91CF91DE
:1007B00008952091C701260F3327331F21323105B9
:1007C000ECF42091EB01FC0190E080E0243069F032
:1007D00082E00895A091C7012191AC0149555E4F77
:1007E000A40FB52FB11D2C930196861798F3809115
:1007F000C701680F6093C70180E0089581E0089504
:1008000008958FEF9FEF08958FEF9FEF08958091E8
:10081000A00190E09195819591090895CF93DF9380
:10082000CB01EA01642F0E94D903CE01DF91CF9161
:100830000895CF93DF931F92CDB7DEB7698361E050
:10084000CE0101960E94D90381E090E00F90DF91E4
:10085000CF91089590E080E008954F925F926F925B
:100860007F928F929F92AF92BF92CF92DF92EF9240
:10087000FF920F931F93CF93DF9300D000D000D04F
:10088000CDB7DEB74115510561057105C9F0FC0111
:1008900025A5211115C06A017B019E838D83478C9C
:1008A00050A061A072A020E030E0A901C301B20114
:1008B0000E94DA1781111BC0ED81FE8112A611A6DC
:1008C00026960FB6F894DEBF0FBECDBFDF91CF9155
:1008D0001F910F91FF90EF90DF90CF90BF90AF905E
:1008E0009F908F907F906F905F904F900895C70179
:1008F000B6010E94DF172FE632E143E85AE30E9477
:1009000040184B015C01ED81FE81C388D488E588E5
:10091000F688A7019601C301B2010E9481192B013B
:100920003C010D811E810E5B1F4FF801208131813A
:10093000428153810E948119ED81FE8126A937A948
:1009400040AD51AD0E94401869837A838B839C83AC
:10095000ED81FE81E65BFF4F608171818281938131
:100960009B01AC010E9482199B01AC01C701B60139
:100970000E948119ED81FE81E25BFF4F2081318170
:10098000428153810E948219ED81FE8122AD33ADF7
:1009900044AD55AD50580E944018A50194010E94E5
:1009A000EE196B017C0120E030E040E450EC0E9445
:1009B000DA1787FD93C020E030E040E450E4C7013F
:1009C000B6010E94961A18160CF48FC0ED81FE81B4
:1009D000FE962081318142815381C301B2010E9480
:1009E0004018A50194010E9440184B015C0120E0D1
:1009F00030E040E252EC0E94DA1787FD7CC020E034
:100A000030E040E252E4C501B4010E94961A181683
:100A10000CF478C029813A814B815C81C501B40115
:100A20000E948219A70196010E9482194B015C0164
:100A300020E030E040E752EC0E94DA1787FD69C001
:100A400020E030E040E752E4C501B4010E94961A6C
:100A500018160CF465C0ED80FE80F6E4EF0EF11C74
:100A6000F7012081318142815381C501B4010E9487
:100A700082194B015C0120E030E0A9010E94DA17E5
:100A800087FD55C020E030E04FE753E4C501B401D5
:100A90000E94961A18160CF44EC0F70180829182BB
:100AA000A282B382C501B4010E94601AED81FE8169
:100AB00072A761A76F3F710519F014F06FEF70E036
:100AC00077FF02C070E060E0ED81FE8172A761A750
:100AD000F8014082518262827382F2CEC12CD12C05
:100AE00060E4E62E60ECF62E71CFC12CD12C50E4E0
:100AF000E52EFE2C6BCF812C912C40E2A42E42ECF3
:100B0000B42E88CF812C912C30E2A32E32E4B32E68
:100B100081CF812C912C20E7A22E22ECB22E9BCFEC
:100B2000812C912C90E7A92E92E4B92E94CF812CA0
:100B3000912C5401B2CF812C912C8FE7A82E83E405
:100B4000B82EABCF0F931F93CF93DF938C01EB01A4
:100B5000FC0180811C161D0694F070E060E0209777
:100B600071F00E942202662777276C1B7D0BF8012B
:100B70008181DF91CF911F910F910C9422020E94ED
:100B8000220270E060E0F3CFCF92DF92EF92FF920B
:100B90000F931F93CF93DF93EC018DA58823C1F1B1
:100BA0000E94A4020AA91BA92CA93DA9601B710BD4
:100BB000820B930B6639710581059105B8F488ECB9
:100BC00090E098A78FA38BA19CA128EC289FB0014F
:100BD000299F700D1124CE01DF91CF911F910F91AC
:100BE000FF90EF90DF90CF900C94A2051DA688E7B0
:100BF00090E098A78FA39AA789A780E090E0A0EF44
:100C0000B2E4FE01EA5BFF4F80839183A283B3834A
:100C10000BA11CA1CDA0DEA0EFA0F8A40C151D0512
:100C200059F589A59AA58E199F09181619069CF4DD
:100C30008031910514F08FE090E08E0D9F1D98A7F4
:100C40008FA38FA198A5089FB001099F700D189FD1
:100C5000700D1124C0CF0097A1F3853B2FEF9207B1
:100C600044F0919581959109E81AF90AF8A6EFA246
:100C7000E8CF8BE490E0F8CF20E030E040EA50E4A9
:100C80006B897C898D899E890E94DA1787FF0CC049
:100C90008AE0E816F1045CF40E9DB0010F9D700D22
:100CA0001E9D700D112497CF1E141F045CF4C70104
:100CB0002CE4E216F10414F08BE490E0E81AF90A4F
:100CC000F8A6EFA28FA198A597FF02C018A61FA2B1
:100CD0008FA198A5C89EB001C99E700DD89E700DB9
:100CE000112479CFCF92DF92EF92FF92CF93DF93CF
:100CF000EC016A017B0120E030E0A9016F8D78A151
:100D000089A19AA10E94DA17811109C020E030E080
:100D1000A901C701B6010E94961A181674F120E0C5
:100D200030E0A901C701B6010E94961A18163CF4DA
:100D3000CF8ED8A2E9A2FAA281E090E013C020E011
:100D400030E0A901C701B6010E94DA1787FF0DC084
:100D5000F7FAF094F7F8F094CF8ED8A2E9A2FAA2AD
:100D60008FEF9FEF9CA38BA32CC01F8E18A219A2FC
:100D70001AA21CA21BA21DA624C0CF8ED8A2E9A233
:100D8000FAA281E090E09CA38BA38BA58823C9F0F5
:100D900081E08DA70E94A4026AAB7BAB8CAB9DABBC
:100DA0001BA61CA6FE01EA5BFF4F10821182128275
:100DB00013821AA619A6CE5BDF4F188219821A82F7
:100DC0001B82DF91CF91FF90EF90DF90CF9008953D
:100DD000CF93DF93EC0140E050E0BA010E9472062D
:100DE00070E060E0CE010E94A20518A61FA2FE01DD
:100DF000EA5BFF4F10821182128213821AA619A693
:100E0000CE5BDF4F188219821A821B82DF91CF914D
:100E10000895CF92DF92EF92FF920F931F93CF939B
:100E2000DF93EC01F8946B857C858D859E850F8121
:100E3000188529853A857894611571058105910594
:100E400011F10115110521053105E9F0CF84D8888C
:100E5000E988FA880C151D052E053F05A1F00F87BE
:100E6000188B298B3A8B613422E472072FE08207BA
:100E7000910508F45DC080E090E0A0E8BFEB8B8FA7
:100E80009C8FAD8FBE8FDE01A65BBF4F4D915D91F4
:100E90006D917C911397FE01E25BFF4F408351837C
:100EA000628373834B895C896D897E894D935D93E1
:100EB0006D937C931397F894CF80D884E984FA8457
:100EC000789420E030E0A9016B8D7C8D8D8D9E8D16
:100ED0000E94DA1787FF41C08F89988DA98DBA8D3E
:100EE0008B8B9C8BAD8BBE8B8DA5811118C020E0A8
:100EF00030E040E85FE36B897C898D899E890E94A0
:100F0000DA1718160CF44CC08CA5811137C081E09B
:100F10008CA70E94A4026EA77FA788AB99ABDF9134
:100F2000CF911F910F91FF90EF90DF90CF90089598
:100F30000E94DF1720E030E040EA51E40E944018B0
:100F40009B01AC0160EC71EE84E69CE40E94EE191A
:100F50006B8F7C8F8D8F9E8F96CF0E947F026C1936
:100F60007D098E099F09613472448F40910508F014
:100F7000B3CF8B8D9C8DAD8DBE8DB2CF0E94A40260
:100F80000EA51FA528A939A9601B710B820B930B15
:100F9000683C71058105910510F281E08BA7BFCFF8
:100FA0001CA61BA6BCCFCF92DF92EF92FF920F93AD
:100FB0001F93CF93DF93EC010E947F020F8118856E
:100FC00029853A85012B022B032BB1F00F8118855F
:100FD00029853A856B017C01C01AD10AE20AF30A1D
:100FE00097018601003147E214072105310598F089
:100FF0000B871C872D873E876F83788789879A8721
:101000008B819C81AD81BE810196A11DB11D8B8319
:101010009C83AD83BE83DF91CF911F910F91FF9091
:10102000EF90DF90CF9008958FE793E00C94D30773
:101030008DE293E00C94D307CF93DF93EC0161E052
:1010400088810E94E60161E089810E94E60162E0F8
:101050008A81DF91CF910C94E601FC010190002080
:10106000E9F73197AF01481B590BBC0180E992E0C9
:101070000C94B102CF93DF930E949E03EC018EE2A9
:1010800091E00E942D088C0F9D1FDF91CF91089554
:101090008F929F92AF92BF92CF92DF92EF92FF9288
:1010A0000F931F93CF93DF93CDB7DEB7A1970FB602
:1010B000F894DEBF0FBECDBF6C01990FEE08FF089C
:1010C000F7FE47C06DE280E992E00E9451038C0177
:1010D00022273327A9012C193D094E095F0919A2BE
:1010E000CE0181967C019AE0892E912CA12CB12C05
:1010F000CA01B901A50194010E940E19605DF701B2
:1011000062937F01211531054105510589F790E072
:1011100080E0309719F0CF010E942D08080F191FA9
:101120008EE291E00E942D08800F911FA1960FB6CC
:10113000F894DEBF0FBECDBFDF91CF911F910F910D
:10114000FF90EF90DF90CF90BF90AF909F908F90E7
:101150000895A701960119A28E010F5D1F4F8AE025
:10116000C82ED12CE12CF12CCA01B901A70196019E
:101170000E940E19605DF80162938F0121153105FF
:101180004105510589F7309729F0CF010E942D08BC
:101190008C01C6CF10E000E0C3CF1F93CF93DF9345
:1011A00085ED8093BC008091A3019091A401A09152
:1011B000A501B091A6010796A11DB11D23E0B6952A
:1011C000A795979587952A95D1F72091BC0024FD86
:1011D00003C01092EB0152C04091A3015091A401B1
:1011E0006091A5017091A601452B462B472B69F311
:1011F0000097A105B10541F02AE22A95F1F700C058
:101200000197A109B109E1CF8091A201C1E0C0938A
:10121000A101882399F1D091B8001091BA00809172
:10122000BC008A7B8093BC0060E082E10E94B80130
:1012300060E083E10E94B8011092EB01C093ED01E0
:101240001092EC0161E082E10E94B80161E083E16B
:101250000E94B8018091B9008E7F8093B90080917F
:10126000B9008D7F8093B90088E48093B80085E44D
:101270008093BC001093BA00D093B800DF91CF9157
:101280001F9108951F920F920FB60F9211242F9362
:101290003F938F939F93AF93BF93809188029091D8
:1012A0008902A0918A02B0918B023091870223E0DB
:1012B000230F2D3758F50196A11DB11D20938702EC
:1012C0008093880290938902A0938A02B0938B0244
:1012D00080918C0290918D02A0918E02B0918F022C
:1012E0000196A11DB11D80938C0290938D02A09355
:1012F0008E02B0938F02BF91AF919F918F913F91DA
:101300002F910F900FBE0F901F90189526E8230F76
:101310000296A11DB11DD2CF1F920F920FB60F9250
:1013200011242F933F934F935F936F937F938F93EA
:101330009F93AF93BF93EF93FF93E0911A01F091C6
:101340001B010995FF91EF91BF91AF919F918F91F3
:101350007F916F915F914F913F912F910F900FBEB1
:101360000F901F9018951F920F920FB60F92112495
:101370002F933F934F935F936F937F938F939F939D
:10138000AF93BF93EF93FF93E0911801F091190190
:101390000995FF91EF91BF91AF919F918F917F91AF
:1013A0006F915F914F913F912F910F900FBE0F90D2
:1013B0001F9018951F920F920FB60F9211242F9322
:1013C0003F934F935F936F937F938F939F93AF93CD
:1013D000BF93EF93FF9380E992E00E942F03FF9168
:1013E000EF91BF91AF919F918F917F916F915F919D
:1013F0004F913F912F910F900FBE0F901F90189516
:101400001F920F920FB60F9211242F938F939F93D9
:10141000EF93FF93E091A002F091A1028081E0910F
:10142000A602F091A70282FD1BC090818091A902C3
:101430008F5F8F732091AA02821741F0E091A90279
:10144000F0E0E057FD4F958F8093A902FF91EF9157
:101450009F918F912F910F900FBE0F901F90189515
:101460008081F4CF1F920F920FB60F9211242F9309
:101470003F934F935F936F937F938F939F93AF931C
:10148000BF93EF93FF938091B900887F803609F472
:101490004AC0F0F5883209F4A5C018F5803109F486
:1014A00099C0B8F4882309F4F5C0883009F492C0D3
:1014B000FF91EF91BF91AF919F918F917F916F912C
:1014C0005F914F913F912F910F900FBE0F901F9002
:1014D0001895883109F486C0803251F78093EA016B
:1014E00014C0803409F49BC040F48033B9F38833CE
:1014F000F9F68093EA0185ECAEC0803509F483C02B
:10150000883509F494C0883499F60E94CD08D0CF6C
:10151000883909F48AC038F5883729F050F48836BC
:1015200011F0803729F683E08093EB011092E901F6
:1015300055C0883809F479C0803919F0803809F02D
:10154000B7CF8091E901803208F06FC0E091E901E6
:1015500081E08E0F8093E9018091BB00F0E0E753BA
:10156000FE4F80833BC0803B39F0D0F4803A09F4D1
:1015700077C0883A09F09CCF84E08093EB01109209
:10158000C8011092C701F0E0E0E009958091C70121
:1015900081110FC081E08093C7011092A70109C09B
:1015A000803C09F4A8CF883C09F4A5CF883B09F01A
:1015B0007FCFE091C80181E08E0F8093C801F0E0F9
:1015C000E955FE4F80818093BB009091C8018091C6
:1015D000C70129C0809110028093BB0085EC8093E5
:1015E000BC0066CF90910F0280910E02981758F5BB
:1015F000E0910F0281E08E0F80930F02F0E0E25144
:10160000FE4F8081E9CFE0910F0281E08E0F809341
:101610000F028091BB00F0E0E251FE4F8083909179
:101620000F0280910E029817C8F285E8D8CFE0919A
:101630000F0281E08E0F80930F028091BB00F0E0DB
:10164000E251FE4F80838091ED0181115ECF81E0F8
:101650008093EC0184EA8093BC001092EB0128CFC8
:1016600085EC8093BC001092EB018091E9018032FF
:1016700030F4E091E901F0E0E753FE4F1082609111
:10168000E90170E089EC91E0F0E0E0E0099510926A
:10169000E9010ECF1092EA0138CF4F925F926F921C
:1016A0007F928F929F92AF92BF92CF92DF92EF92F2
:1016B000FF92E0E9F2E01382128288EE93E0A0E06C
:1016C000B0E084839583A683B78380E291E0918321
:1016D000808385EC90E09587848784EC90E0978701
:1016E000868780EC90E0918B808B81EC90E0938BEF
:1016F000828B82EC90E0958B848B86EC90E0978BCC
:10170000868B118E128E138E148EEFE7F3E08DEC24
:10171000482E8CEC582E8CE0682E8FE3782E46AA4B
:1017200057AA60AE71AE9DEC892E9CEC992EA92C27
:101730009DE3B92E82AE93AEA4AEB5AEC12CD12C32
:1017400020E4E22EFE2CC092BD03D092BE03E092B4
:10175000BF03F092C00386E0808385E0818382E04E
:1017600082831382148215821682178E10A211A210
:1017700012A2138A148A158A168A178A108E118E5D
:10178000128E40E050E060E87FEB438F548F658F0E
:10179000768F10A617A212A611A614A213A221E0FA
:1017A00030E036A325A31092C9031092CA03109209
:1017B000CB031092CC031092CD031092CE03109263
:1017C000CF031092D0031092C1031092C203109263
:1017D000C3031092C4031092C5031092C603109263
:1017E000C7031092C80317821086118612861386CB
:1017F0001486158616861786108A118A128A81E049
:1018000083A714A615A616A617A610AA11AA12AA8F
:1018100013AA14AA15AAEDE2F3E046AA57AA60AEED
:1018200071AE82AE93AEA4AEB5AEC0926B03D09251
:101830006C03E0926D03F0926E039AE090839BE05C
:10184000918393E092831382148215821682178EFD
:1018500010A211A212A2138A148A158A168A178A54
:10186000108E118E128E438F548F658F768F10A637
:1018700017A212A611A614A213A236A325A3109292
:101880007703109278031092790310927A031092E2
:101890007B0310927C0310927D0310927E031092C2
:1018A0006F031092700310927103109272031092E2
:1018B00073031092740310927503109276031782CB
:1018C000108611861286138614861586168617864C
:1018D000108A118A128A83A714A615A616A617A61F
:1018E00010AA11AA12AA13AA14AA15AAFF90EF907F
:1018F000DF90CF90BF90AF909F908F907F906F9030
:101900005F904F900895CF93DF93CDB7DEB7E79701
:101910000FB6F894DEBF0FBECDBF789484B5826059
:1019200084BD84B5816084BD85B5826085BD85B583
:10193000816085BD80916E00816080936E00109201
:10194000810080918100826080938100809181007C
:10195000816080938100809180008160809380000D
:101960008091B10084608093B1008091B00081606B
:101970008093B00080917A00846080937A00809197
:101980007A00826080937A0080917A0081608093EF
:101990007A0080917A00806880937A001092C1006A
:1019A000E091A002F091A10282E08083E0919C028C
:1019B000F0919D021082E0919E02F0919F0280E1E1
:1019C00080831092A802E091A402F091A50286E023
:1019D0008083E091A202F091A302808180618083E4
:1019E000E091A202F091A302808188608083E0915F
:1019F000A202F091A302808180688083E091A2021C
:101A0000F091A30280818F7D80838CEA91E00E9417
:101A10003A088FE793E00E941C088DE293E00E9451
:101A20001C0880918103823009F4C2C0833009F020
:101A3000C1C081E064E178E00E944A0180912F03F7
:101A4000823009F4B9C0833009F0B8C081E068E1A0
:101A500078E00E944A0184E690E0A0E0B0E0809344
:101A6000000190930101A0930201B093030185E06E
:101A700090E0A0E0B0E08093040190930501A09372
:101A80000601B093070184E190E0A0E0B0E080930C
:101A9000080190930901A0930A01B0930B018AE019
:101AA00090E0A0E0B0E080930C0190930D01A09332
:101AB0000E01B0930F0188EE93E0A0E0B0E08093B8
:101AC000120190931301A0931401B093150161E0EA
:101AD0008DE00E94E60160E08CE00E94E60160E09B
:101AE0008DE00E94B8010E947F0260938102709392
:101AF0008202809383029093840260E087E00E94D8
:101B0000E60160E084E00E94E60160E088E00E9477
:101B1000E60181E090E090936702809366028DE990
:101B200091E00E943A088E010F5F1F4F18019E013D
:101B3000255F3F4F3BAB2AABAE01455D5F4F5DABD1
:101B40004CABCE0184969FAB8EAB40ED442E47E06C
:101B5000542E612C712C8AE0F10111928A95E9F7DB
:101B600080E992E00E940F031816190674F580E9C7
:101B700092E00E94ED02182FF1E0F09357020E94CC
:101B8000A402609353027093540280935502909381
:101B90005602112329F3E0915202EF3388F481E0D9
:101BA0008E0F80935202F0E0EE5EFD4F1083D8CF8F
:101BB00080E040CF8FEF3ECF80E049CF8FEF47CF1F
:101BC000EE24E394E0921102CBCF80915702882358
:101BD00031F10E94A402009153021091540220910D
:101BE000550230915602601B710B820B930B0091D2
:101BF00094021091950220919602309197026017FD
:101C000071078207930758F01092570280911102D2
:101C1000882309F458C210925202109211020E94B5
:101C2000A40260937502709376028093770290937A
:101C30007802009158021091590220915A02309175
:101C40005B024B015C01801A910AA20AB30A8091DF
:101C5000000190910101A0910201B0910301881649
:101C60009906AA06BB0608F492C081149104A10447
:101C7000B104A1F1F8946091820370918303809183
:101C80008403909185031092820310928303109233
:101C900084031092850378940E94DF1720E030E0DF
:101CA00040EA51E40E94EE1920E030E64AE657E4AB
:101CB0000E9440186B017C01C501B4010E94DF172E
:101CC0009B01AC01C701B6010E94EE196093960317
:101CD0007093970380939803909399038090750273
:101CE00090907602A0907702B0907802809158028E
:101CF00090915902A0915A02B0915B02881A990AF8
:101D0000AA0ABB0AA1F1F8946091300370913103E3
:101D1000809132039091330310923003109231037B
:101D2000109232031092330378940E94DF1720E060
:101D300030E040EA51E40E94EE1920E030E64AE645
:101D400057E40E9440186B017C01C501B4010E9458
:101D5000DF179B01AC01C701B6010E94EE19609329
:101D60004403709345038093460390934703809107
:101D7000750290917602A0917702B09178028093DB
:101D8000580290935902A0935A02B0935B0280903C
:101D9000750290907602A0907702B09078028091C0
:101DA000600290916102A0916202B0916302B5015C
:101DB000A401481B590B6A0B7B0B80910401909185
:101DC0000501A0910601B0910701481759076A075C
:101DD0007B0708F452C080918502882399F0809196
:101DE00016019091170190931101809310011092A8
:101DF000850297FD07C021E0883791050CF020E0AF
:101E00002093650287E00E948F018C0188E00E9488
:101E10008F0141E050E00130110511F050E040E049
:101E2000440F551F440F551F21E030E0019711F07A
:101E300030E020E0220F331F142F122B84E00E9489
:101E40008F0121E0019709F020E0822F812B9091F2
:101E500070028913AEC281FD08C080916402833094
:101E600009F473C2843009F48AC2809260029092AD
:101E70006102A0926202B092630280916802909126
:101E80006902A0916A02B0916B0275016401C81ADF
:101E9000D90AEA0AFB0A8091080190910901A091F0
:101EA0000A01B0910B01C816D906EA06FB0630F10B
:101EB0008091660290916702009709F4A6C201978B
:101EC00009F4B2C28FE793E00E9409078DE293E024
:101ED0000E940907B701A6018FE793E00E942D0435
:101EE000B701A6018DE293E00E942D048092680262
:101EF00090926902A0926A02B0926B0280916C0289
:101F000090916D02A0916E02B0916F02B501A40193
:101F1000481B590B6A0B7B0B80910C0190910D01B2
:101F2000A0910E01B0910F01481759076A077B076E
:101F300080F08FE793E00E94C4058DE293E00E9459
:101F4000C40580926C0290926D02A0926E02B092D3
:101F50006F028091710290917202A0917302B09110
:101F60007402881A990AAA0ABB0A809112019091F8
:101F70001301A0911401B091150188169906AA06C3
:101F8000BB0608F485C020E030E0A90160919E0303
:101F900070919F038091A0039091A1030E94DA1792
:101FA000FF24F394811110C020E030E0A90160917A
:101FB0004C0370914D0380914E0390914F030E940A
:101FC000DA17811101C0F12C609192037091930393
:101FD00080919403909195038E01055D1F4F22E03F
:101FE00041E00E94F612609140037091410380919C
:101FF0004203909143030750110922E041E00E94FF
:10200000F61220917002822F4FA94F935EA95F9321
:10201000EDA9EF93FCA9FF9321701F922F9381FBF1
:10202000992790F91F929F9382FB882780F91F922E
:102030008F93809111018F93809110018F931F9244
:10204000FF9281E891E09F938F931F9283E28F9399
:102050003F922F920E94C71AC1010E942D088EE262
:1020600091E00E942D088091750290917602A091D6
:102070007702B09178028093710290937202A093DC
:102080007302B09374020FB6F894DEBF0FBECDBFDB
:102090000E947F024B015C0180918602813009F42D
:1020A00047C208F403C2823009F473C280E090E0B2
:1020B000892B09F450CD0E941B03882309F44BCDD2
:1020C0000E94000048CD0091520210E0F801EE5E3F
:1020D000FD4F108232E1E32E32E0F32EF7018191C1
:1020E0005F01882331F090E00E942F14892B09F0C2
:1020F000A8C00E5E1D4FE016F10648F4F80182916B
:102100005F0190E00E942F14892B09F09CC0F80118
:102110001082F2E1EF16F2E0FF0651F0A8014E192D
:102120005F094F5F5F4FB70182E192E00E94A11A01
:102130001092520280911202882309F470CD8FEB25
:1021400091E00E949E0382E192E00E942D088EE2BF
:1021500091E00E942D08810182E192E0F8018193D3
:1021600091938F016AE370E00E94B31A009741F0E7
:10217000FC011192CF01EAA8FBA8E016F10671F765
:10218000E980FA8066E971E0C7010E94BE1A8C01FD
:10219000892B09F45AC062E671E0C7010E94BE1A99
:1021A000892B09F09DC08B819C81812C912C54013D
:1021B000009721F00E942B144B015C018D819E81C0
:1021C000C12CD12C7601009721F00E942B146B01B9
:1021D0007C018F819885009709F47EC00E942B14A2
:1021E0008092B5039092B603A092B703B092B80361
:1021F000C092BD03D092BE03E092BF03F092C00331
:102200006093B9037093BA038093BB039093BC03AC
:102210008092630390926403A0926503B092660378
:10222000C0926B03D0926C03E0926D03F0926E0348
:1022300060936703709368038093690390936A03C4
:10224000EECC75014BCF850156CF8B819C81F12C53
:10225000E12C009739F04AE050E070E060E00E9425
:1022600014137B018D819E81009739F04AE050E084
:1022700070E060E00E9414138B0122E030E03093A4
:10228000670220936602B7010F2C000C880B990B94
:102290000E94E117AB01BC018FE793E00E94720638
:1022A000B801012E000C880B990B0E94E117AB01BD
:1022B000BC018DE293E00E94720681E391E00E94EE
:1022C0002D08C7010E94480889E491E00E942D086A
:1022D000C8010E944808A3CC60E070E0CB0180CF29
:1022E00069E671E0C7010E94BE1A892B99F44FEF8D
:1022F0005FEF50936702409366028FE793E00E947E
:10230000E8068DE293E00E94E80682ED91E00E94EB
:102310003A0885CC67E771E0C7010E94BE1A892B95
:1023200039F481E090E0909367028093660277CC65
:1023300062E771E0C7010E94BE1A892B09F06FCCD9
:1023400010926702109266026ACC80915C029091B2
:102350005D02A0915E02B0915F0285017401E81AEE
:10236000F90A0A0B1B0BD801C70188359240A10559
:10237000B10508F47ACD11E01093640276CD809116
:102380005C0290915D02A0915E02B0915F02A50196
:102390009401281B390B4A0B5B0BDA01C901883504
:1023A0009240A105B10508F460CD82E080936402FB
:1023B0005CCD90916402923061F038F4992371F011
:1023C0009130F1F08093700250CD9330C9F0943089
:1023D000C9F782FD05C081FD15C0F4CF82FF02C0A0
:1023E00093E003C080FFEECF94E09093640280926C
:1023F0005C0290925D02A0925E02B0925F02E2CF18
:1024000081FFF0CF10926402DDCF40E050E0BA01CE
:102410008FE793E00E94720640E050E0BA018DE23F
:1024200093E00E9472064ECD80916502882349F0A8
:102430008FE793E00E94E8068DE293E00E94E806B1
:1024400041CD80916402823039F180F48823F9F023
:1024500040E050E0BA01813059F78FE793E00E94E5
:10246000720640E050E060EF72E4D9CF8330C9F0EB
:102470008430F1F640E050E060EF72E48FE793E0E3
:102480000E94720640E050E060E271E4C8CF40E094
:1024900050E060EF72E4E1CF40E050E060EF72E4C2
:1024A000B7CF40E050E060E271E4D7CF8091850281
:1024B0008111FCCD8091810290918202A0918302D2
:1024C000B0918402881A990AAA0ABB0A10E68116FA
:1024D0001AEE9106A104B10408F4E8CD60E08DE0A5
:1024E0000E94B80183E090E00197F1F761E08DE090
:1024F0000E94B80183E290E00197F1F760E08DE07F
:102500000E94B8010E947F02609381027093820250
:10251000809383029093840260937D0270937E0285
:1025200080937F029093800221E020938602BECDAB
:102530008CE00E948F01019761F480927902909261
:102540007A02A0927B02B0927C0282E080938602A3
:10255000ADCD80917D0290917E02A0917F02B091DD
:102560008002881A990AAA0ABB0A38EA831631E659
:102570009306A104B10408F499CD4FEF5FEF509397
:1025800017014093160151E0509385021092860284
:102590008DCD8CE00E948F014091790250917A029A
:1025A00060917B0270917C0285017401E41AF50A46
:1025B000060B170BA8019701892B89F4A7E5B1E059
:1025C0000E943019A30192010E940E193093170145
:1025D00020931601FF24F394F0928502D7CF283A76
:1025E00031464105510508F461CDC7CFEF920F93F5
:1025F0001F93CF93DF93E80134E047FD34E1042ECD
:10260000000C550B57FF03C0519541955109E32E1E
:10261000022F242FAE010E943814CE01DF91CF91FA
:102620001F910F91EF900895B0E0A0E0EAE1F3E18F
:102630000C943C195C016B017A016115710519F06C
:10264000FB0191838083E114F10451F0C7010297EB
:10265000839730F040E030E020E090E072C05E010F
:10266000E5012196F5011081812F90E00E942F1441
:10267000892BA9F71D3201F52196F501118101E0A1
:10268000E114F10409F4DAC0F0E1EF16F10409F005
:1026900082C0103359F488818F7D883509F076C067
:1026A000198122960260F0E1EF2EF12C812C912C01
:1026B000A12C88E0B82E8CC01B3221F4E5012296B3
:1026C000F501118100E0DCCFEAE0EE16F10409F437
:1026D000BBC0F0E1EF16F10409F06DC0E7CF78E080
:1026E000E72EF12C812C912CA12C60E1B62E70C02C
:1026F0003FE9310F3A3128F439EA332E80C021E026
:102700009AC0302F3170C114D10431F0222309F165
:102710002197F601D183C08327FF21C060E070E0DC
:1027200080E090E8311104C06FEF7FEF8FEF9FE7FB
:1027300022E230E03093D2032093D103462F372F8B
:10274000282F642F732F822FCDB7DEB7E1E10C94D1
:10275000581901FF04C02297F601D183C0833323A7
:1027600041F090958095709561957F4F8F4F9F4F69
:10277000E5CF97FFE3CF82E290E09093D20380937E
:10278000D1036FEF7FEF8FEF9FE7D8CF10E3E11416
:10279000F10409F4A4CF28E0E216F10409F4A2CF71
:1027A0000CF092CF812C912CA12CE0E4BE2E82E083
:1027B000E816F10469F060E070E080E090E89701CD
:1027C0000F2C000C440B550B0E940E1949015A01A5
:1027D00020E060E070E0CB0127010F2C000C6608C0
:1027E0007708FE0150ED352E310E39E0331540F4F7
:1027F0003FEB310F3A3108F07BCF49EC342E310EEC
:102800003E141F040CF07DCF27FD15C086169706D9
:10281000A806B90678F0A30192010E94FE18630D84
:10282000711D811D911D61307105810520E89207A0
:1028300008F465CF2FEF21961081D3CF103309F420
:102840002ACF2AE0E22EF12C9CEC892E982CA82C81
:102850009CE0B92EBDCF662777270C949715911170
:102860000C94BF17803219F089508550C8F708952D
:10287000A9E0B0E0EEE3F4E10C9441196A01F22E14
:10288000B02E102FFBE3AF2EA01608F41BE31F5F42
:10289000012F27E0AE014F5F5F4F0E94E716BC019A
:1028A0008981982F9970913009F43FC09BE2E1FC37
:1028B00004C09E2D9170E0FC3AC05E2D5071E82F4F
:1028C000E87083FF46C084E0911101C083E0EF2DE2
:1028D000E81B8F1508F0E0E0D6018E2F20E255238B
:1028E00051F1992329F0D6019C93C60101966C0100
:1028F00096012D5F3F4FE2FE24C08EE4D6018C93FB
:1029000091E411969C93119712968C93D9018E2F76
:1029100090E281111BC0E20FF32FF11D10828EEFA8
:102920009FEF2996ECE00C945D199DE2C6CF90E2F2
:10293000C4CF2D9381508111FCCFCE0ED11CE0E08D
:10294000D0CF8EE6D6018C9391E6DBCF9D9381505C
:10295000E0CF482F447082FF3DC084E0911101C058
:1029600083E08F1510F4EF2DE81BD6018E2F20E2A7
:10297000552309F1992329F0D6019C93C6010196AC
:102980006C0196012D5F3F4FE2FE1BC089E4D6012A
:102990008C938EE411968C93119786E412968C9307
:1029A000D9018E2F90E2882309F4B5CF9D938150F1
:1029B000FACF2D9381508111FCCFCE0ED11CE0E0D7
:1029C000D9CF89E6D6018C938EE611968C93119718
:1029D00086E6E4CF9B0177FF02C030E020E0A1E073
:1029E000B0E0911102C0B0E0A0E0F9013196AE0F65
:1029F000BF1F8B2C912CBB2009F461C05401EFEF59
:102A0000AE1ABE0AAA0DBB1DFA161B0619F014F069
:102A10004F2D4A1B511188C0E3FC59C07601A42FE9
:102A2000B0E2A1114FC0C40ED11C992309F45BC0C0
:102A300040E0D6011196F60190836D01552309F40B
:102A400048C0012F060F9A81582F507184FF03C090
:102A5000913309F4015010160CF047C0093008F00A
:102A600008E0EEE2FE2E5B01A01AB1088501919408
:102A7000819491082F3F320729F4D601FC92F60188
:102A800031966F016217730794F1021713077CF5F3
:102A9000DB01A21BB30BAA24A394B12CAC0EBD1E68
:102AA000AA0DBB1D11968C9121503109D6011196AA
:102AB00028153905F4F0F60180836D01DBCFB12CC8
:102AC000A12CA0CFF701B1937F01A150AACF911102
:102AD000B0CFD601942F50E302C05D939150911175
:102AE000FCCFC40ED11C40E0ACCF01E0BACF80E3F4
:102AF000DBCF6217730731F4963388F4953311F402
:102B0000552369F0F6018083FD01842F90E2811145
:102B100008C0A40FB11D1C9290E080E002CF81E3B9
:102B2000F1CF91938150F3CF911183CF8ACFB0E051
:102B3000A0E0EDE9F5E10C9441195C017B01611520
:102B4000710519F0DB018D939C9385010F5F1F4F79
:102B5000F501D0818D2F90E00E942F146C01892BFC
:102B6000B9F5DD32B9F50F5F1F4FD5011196DC9134
:102B7000C1E05801F1E0AF1AB10843E050E060E76E
:102B800070E0C5010E94C217892B69F5680182E0D7
:102B9000C80ED11C45E050E06BE670E0C6010E9413
:102BA000C217892B21F4680197E0C90ED11CE114EA
:102BB000F10419F0D701CD92DC9260E070E080E87A
:102BC0009FEFC111FFC060E070E080E89FE7FAC0AE
:102BD0005801BBCFDB3229F485010E5F1F4FF50191
:102BE000D181C0E0C6CF43E050E068E670E0C501A7
:102BF0000E94C217892BE9F0F80110E000E020E004
:102C000030E0A9015F01B0ED8B2E8D0E89E08815B3
:102C1000C8F19C2E689491F88C2F8870C2FF16C062
:102C2000811102C00F5F1F4F3196D501DC91C92D74
:102C3000E9CFE114F10429F00E5F1F4FF701118372
:102C4000008360E070E080EC9FE7BCC0882311F057
:102C500001501109A5E0B0E00E9430199B01AC01C0
:102C6000220F331F441F551F280D311D411D511DBB
:102C7000283999E93907490799E15907A8F2C66047
:102C80009C2ED2CFAEEF8A1206C0C3FD3CC09C2E54
:102C9000689493F8C9CFDF7DD534A9F580818D3252
:102CA00039F4C061DF011296818162E070E006C0F4
:102CB000DF018B32C1F3119661E070E080535D015A
:102CC000A61AB70A8A30F8F4E0E8CE16ECE0DE0681
:102CD0005CF4B601660F771F660F771FC60ED71E0E
:102CE000CC0CDD1CC80ED11C5D01FFEFAF1ABF0A72
:102CF0008C9180538A30A8F1C4FF03C0D194C19451
:102D0000D1080C0D1D1DC1FF09C0E114F10431F003
:102D100081E0A81AB108D701AD92BC92CA01B901ED
:102D20000E94DF17C370C33009F490584B015C0157
:102D300020E030E0A9010E94DA17882309F440C09E
:102D4000CFE9D0E017FF05C0119501951109C7E83B
:102D5000D0E06E01B8E1CB1AD10880E2E82EF12C68
:102D60000FC0D501B1CFFE01259135914591549108
:102D70000E191F09C501B4010E9440184B015C01E6
:102D8000D501C4010E151F0574F72497F594E79437
:102D9000CC16DD06A9F78A2F880F8B2F881F8F3F4F
:102DA00049F020E030E0A901C501B4010E94DA1722
:102DB000811106C082E290E09093D2038093D10308
:102DC000C501B401CDB7DEB7ECE00C945D19283035
:102DD00008F027E03327DA01990F311D87FD916054
:102DE00000966105710539F432602E5F3D9330E342
:102DF0002A95E1F708959F3F30F08038710561050D
:102E000009F03C5F3C5F3D93913008F08068911D74
:102E1000DF93CF931F930F93FF92EF92192F987F19
:102E20009695E92F96959695E90FFF27E350FF4F6A
:102E300099273327EE24FF24A701E7010590089482
:102E4000079428F4360FE71EF81E491F511D660F20
:102E5000771F881F991F0694A1F70590079428F4FF
:102E6000E70EF81E491F561FC11D770F881F991FB7
:102E7000661F0694A1F70590079428F4F80E491FE1
:102E8000561FC71FD11D880F991F661F771F0694F5
:102E9000A1F70590079420F4490F561FC71FD81FAC
:102EA000990F661F771F881F0694A9F784911095C4
:102EB000177041F0D695C79557954795F794E794C5
:102EC0001A95C1F7E3EAF0E06894159015913591F1
:102ED0006591959105907FE27395E118F10A430B96
:102EE000560BC90BD009C0F7E10CF11E431F561F4A
:102EF000C91FD01D7EF4703311F48A95E6CFE89493
:102F0000015030F0080F0AF40027021708F4202FB0
:102F10002395022F7A3328F079E37D932A95E9F7F8
:102F200010C07D932A9589F60694979567953795F5
:102F300017951794E118F10A430B560BC90BD009EA
:102F400098F023957E9173957A3308F070E37C9323
:102F50002013B8F77E9170617D9330F0839571E313
:102F60007D9370E32A95E1F71124EF90FF900F9184
:102F70001F91CF91DF91992787FD9095089599270B
:102F800088270895FB01DC014150504088F08D9165
:102F900081341CF08B350CF4805E659161341CF03B
:102FA0006B350CF4605E861B611171F3990B08950B
:102FB000881BFCCF0E941C1808F481E00895E89457
:102FC00009C097FB3EF490958095709561957F4F71
:102FD0008F4F9F4F9923A9F0F92F96E9BB2793951F
:102FE000F695879577956795B795F111F8CFFAF42F
:102FF000BB0F11F460FF1BC06F5F7F4F8F4F9F4F60
:1030000016C0882311F096E911C0772321F09EE8BD
:10301000872F762F05C0662371F096E8862F70E023
:1030200060E02AF09A95660F771F881FDAF7880FFD
:103030009695879597F90895990F0008550FAA0B53
:10304000E0E8FEEF16161706E807F907C0F01216BB
:103050001306E407F50798F0621B730B840B950BBE
:1030600039F40A2661F0232B242B252B21F4089513
:103070000A2609F4A140A6958FEF811D811D0895B0
:103080000E9453180C94C4180E94B61838F00E947D
:10309000BD1820F0952311F00C94AD180C94B318C2
:1030A00011240C94F8180E94D51870F3959FC1F361
:1030B000950F50E0551F629FF001729FBB27F00DE6
:1030C000B11D639FAA27F00DB11DAA1F649F66273B
:1030D000B00DA11D661F829F2227B00DA11D621F8A
:1030E000739FB00DA11D621F839FA00D611D221F44
:1030F000749F3327A00D611D231F849F600D211D28
:10310000822F762F6A2F11249F5750409AF0F1F0AA
:1031100088234AF0EE0FFF1FBB1F661F771F881F13
:1031200091505040A9F79E3F510580F00C94AD1886
:103130000C94F8185F3FE4F3983ED4F386957795A6
:103140006795B795F795E7959F5FC1F7FE2B880FB9
:10315000911D9695879597F9089597F99F6780E84F
:1031600070E060E008959FEF80EC089500240A94D9
:103170001616170618060906089500240A94121652
:103180001306140605060895092E0394000C11F485
:10319000882352F0BB0F40F4BF2B11F460FF04C032
:1031A0006F5F7F4F8F4F9F4F089557FD9058440F8B
:1031B000551F59F05F3F71F04795880F97FB991F96
:1031C00061F09F3F79F08795089512161306140653
:1031D000551FF2CF4695F1DF08C0161617061806E0
:1031E000991FF1CF86957105610508940895E894BB
:1031F000BB2766277727CB0197F90895DB018F93CB
:103200009F930E943019BF91AF91A29F800D911D95
:10321000A39F900DB29F900D11240895A1E21A2E44
:10322000AA1BBB1BFD010DC0AA1FBB1FEE1FFF1F6A
:10323000A217B307E407F50720F0A21BB30BE40BBA
:10324000F50B661F771F881F991F1A9469F7609501
:103250007095809590959B01AC01BD01CF010895BB
:103260000E947219A59F900DB49F900DA49F800D90
:10327000911D112408952F923F924F925F926F9269
:103280007F928F929F92AF92BF92CF92DF92EF92F6
:10329000FF920F931F93CF93DF93CDB7DEB7CA1B77
:1032A000DB0B0FB6F894DEBF0FBECDBF09942A88A2
:1032B000398848885F846E847D848C849B84AA844A
:1032C000B984C884DF80EE80FD800C811B81AA81D7
:1032D000B981CE0FD11D0FB6F894DEBF0FBECDBFA2
:1032E000ED010895A29FB001B39FC001A39F700D8F
:1032F000811D1124911DB29F700D811D1124911DFE
:1033000008955058BB27AA270E9499190C94C418F5
:103310000E94B61838F00E94BD1820F039F49F3F83
:1033200019F426F40C94B3180EF4E095E7FB0C9412
:10333000AD18E92F0E94D51858F3BA176207730722
:103340008407950720F079F4A6F50C94F7180EF48D
:10335000E0950B2EBA2FA02D0B01B90190010C01A5
:10336000CA01A0011124FF27591B99F0593F50F4BD
:10337000503E68F11A16F040A22F232F342F442715
:10338000585FF3CF469537952795A795F04053950D
:10339000C9F77EF41F16BA0B620B730B840BBAF0DD
:1033A0009150A1F0FF0FBB1F661F771F881FC2F748
:1033B0000EC0BA0F621F731F841F48F4879577955C
:1033C0006795B795F7959E3F08F0B0CF9395880F16
:1033D00008F09927EE0F9795879508950E94021A95
:1033E0000C94C4180E94BD1858F00E94B61840F002
:1033F00029F45F3F29F00C94AD1851110C94F81882
:103400000C94B3180E94D51868F39923B1F355238F
:1034100091F3951B550BBB27AA27621773078407E7
:1034200038F09F5F5F4F220F331F441FAA1FA9F37D
:1034300035D00E2E3AF0E0E832D091505040E6956B
:10344000001CCAF72BD0FE2F29D0660F771F881FCC
:10345000BB1F261737074807AB07B0E809F0BB0BBF
:10346000802DBF01FF2793585F4F3AF09E3F5105D3
:1034700078F00C94AD180C94F8185F3FE4F3983E84
:10348000D4F3869577956795B795F7959F5FC9F7BC
:10349000880F911D9695879597F90895E1E0660F3D
:1034A000771F881FBB1F621773078407BA0720F0B6
:1034B000621B730B840BBA0BEE1F88F7E09508951F
:1034C0000E94671A6894B1110C94F81808950E942C
:1034D000DD1888F09F5798F0B92F9927B751B0F0B1
:1034E000E1F0660F771F881F991F1AF0BA95C9F788
:1034F00014C0B13091F00E94F718B1E008950C9417
:10350000F718672F782F8827B85F39F0B93FCCF3C9
:10351000869577956795B395D9F73EF49095809504
:10352000709561957F4F8F4F9F4F08950E941C1893
:1035300008F48FEF0895EE0FFF1F0590F491E02D32
:1035400009946817790768F4FB01DC01E40FF51FA3
:10355000A40FB51F02C002900E9241505040D8F700
:1035600008950C94DC1CFC018191861721F08823BE
:10357000D9F7992708953197CF010895FB01DC0110
:103580008D91019080190110D9F3990B0895AEE047
:10359000B0E0EDECFAE10C9449190D891E898F8990
:1035A000988D26E02C831A83098397FF02C080E060
:1035B00090E801979E838D83AE01455E5F4F698DD4
:1035C0007A8DCE0101960E94F71A4D815E8157FDDA
:1035D0000AC02F813885421753070CF49A01020F55
:1035E000131FF80110822E96E4E00C946519ABE0ED
:1035F000B0E0EDEFFAE10C943B197C013B018A014C
:10360000FC0117821682838181FFC8C1CE01019619
:103610005C01F7019381F30193FD859193FF819103
:103620003F01882309F453C1853239F493FD859114
:1036300093FF81913F01853229F4B70190E00E9408
:10364000F01CE7CF912C212C312CFFE1F31538F041
:103650008B3211F190F4803209F1833229F137FC79
:103660003CC020ED280F2A3050F536FE20C08AE0FD
:10367000989E200D1124922E06C08D3291F0803339
:1036800071F7689430F8F30193FD859193FF819170
:103690003F018111DACF21C0689431F8689432F883
:1036A000F2CF689433F8EFCF689434F8ECCFEAE0C7
:1036B0002E9E200D1124222E689435F8E4CF8E32F0
:1036C00029F436FC04C1689436F8DDCF8C3619F441
:1036D000689437F8D8CF8836B1F2982F9F7D9554EB
:1036E0009330E0F08336A1F18337C1F1833509F0DF
:1036F00063C02801F2E04F0E511CF801C080D18058
:10370000692D70E036FC02C06FEF7FEFC6010E94AA
:10371000D11C4C01689437F882010AC00C5F1F4F1E
:10372000FFE3F98388248394912C6501E89437F8AA
:1037300033FE2DC0522C8114910471F5552009F4EB
:1037400068CFB70180E290E00E94F01C5A94F6CF57
:10375000F801808189830E5F1F4FE4CF2801F2E0DA
:103760004F0E511CF801C080D180692D70E036FCED
:1037700002C06FEF7FEFC6010E94E51C4C01820181
:10378000D5CFB70180E290E00E94F01C2A94281463
:10379000190409F0B0F7CECFF60137FC859137FE5A
:1037A00081916F01B70190E00E94F01C51105A9472
:1037B000F1E08F1A9108BFCF843619F0893609F0ED
:1037C00077C0F80137FE6BC060817181828193817F
:1037D0000C5F1F4FF32DFF763F2E97FF09C090958A
:1037E0008095709561957F4F8F4F9F4F689437F804
:1037F0002AE030E0A5010E94201DC82ECA188C2C9A
:10380000432C36FE0CC0E89440F8C91440F434FE52
:1038100005C032FC03C0F32DFE7E4F2E892C44FEE2
:1038200095C0FE01EC0DF11D8081803309F087C049
:10383000242D297E422E842D8870582E43FC95C05D
:1038400040FE8FC09C2C821418F42C0C922C9818DB
:1038500044FE91C0B70180E390E00E94F01C42FE5C
:1038600009C088E790E041FE02C088E590E0B7011A
:103870000E94F01CC91408F48AC0CA94D12C9FEF8E
:10388000C91AD90ACA0CDB1CF60182916F01B70173
:1038900090E00E94F01CAC14BD04B1F74FCF6081E2
:1038A0007181072E000C880B990B0E5F1F4F92CF72
:1038B000D32CE894D4F82AE030E0853739F1232D71
:1038C000297FD22E8F3601F148F48835A9F0F7010F
:1038D000868197812B96E2E10C945719803749F045
:1038E0008837A9F7D4FE02C06894D2F820E130E00E
:1038F0000DC06894D4F8F6CF34FE03C0822F8660E2
:10390000D82E20E132E002C028E030E0F801D7FEF6
:103910000FC060817181828193810C5F1F4FA5016F
:103920000E94201DC82ECA183D2CE89437F867CF96
:103930006081718190E080E00E5F1F4FF0CF42FC0C
:1039400002C0839478CF8394839475CF842D867836
:1039500009F471CFF6CFB70180E290E00E94F01C2D
:1039600083948214C0F3512C73CF522C58188214B4
:1039700008F46ECFF8CF842D867809F47BCF8BE2E4
:1039800041FE80E247FC8DE2B70190E071CFB701C4
:1039900080E390E00E94F01C9A946CCF8FEF9FEF31
:1039A00099CFFC010590615070400110D8F78095C7
:1039B00090958E0F9F1F0895FB01DC0102C00190BE
:1039C0000D9241505040D8F70895FC01615070406D
:1039D00001900110D8F7809590958E0F9F1F089544
:1039E0000F931F93CF93DF93182F092FEB018B8138
:1039F00081FD09C01FEF0FEF812F902FDF91CF9135
:103A00001F910F91089582FF14C02E813F818C81F8
:103A10009D81281739073CF4E881F981CF0101968F
:103A20009983888310838E819F8101969F838E83E3
:103A3000E3CFE885F985812F0995892BA1F3DACFAA
:103A4000FA01AA27283051F1203181F1E8946F93CF
:103A50006E7F6E5F7F4F8F4F9F4FAF4FB1E03ED075
:103A6000B4E03CD0670F781F891F9A1FA11D680F13
:103A7000791F8A1F911DA11D6A0F711D811D911D46
:103A8000A11D20D009F468943F912AE0269F1124BB
:103A90003019305D3193DEF6CF010895462F47701F
:103AA000405D4193B3E00FD0C9F7F6CF462F4F707A
:103AB000405D4A3318F0495D31FD4052419302D0D8
:103AC000A9F7EACFB4E0A69597958795779567957E
:103AD000BA95C9F700976105710508959B01AC017E
:103AE0000A2E06945795479537952795BA95C9F7A5
:103AF000620F731F841F951FA01D0895F894FFCFB8
:103B0000E8030000E8030000E8030000E803000009
:103B1000FFFFE8030000FFFFB002B002000000005A
:103B20005103B102DE02B9030F03ED0201030D0AD6
:103B3000006C65667420776865656C2052504D2076
:103B400073657420746F3A20007269676874207717
:103B50006865656C2052504D2073657420746F3A0F
:103B6000200053455450494400454D455247454E69
:103B7000435953544F50004C494E455452414345CC
:103B80000025642C25642C25642C25642C25642CAC
:103B900025732C257300534554535045454400006C
:00000001FF
