:020000040000FA
:100000000C94A3000C9494090C946D090C94CB00EF
:100010000C94CB000C94CB000C94CB000C94CB0034
:100020000C94CB000C94CB000C94CB000C94CB0024
:100030000C94CB000C94CB000C94CB000C94CB0014
:100040000C9423090C94CB000C94E1090C94BB098B
:100050000C94CB000C94CB000C94CB000C94CB00F4
:100060000C94130A0C94CB004E414E494E495459FE
:10007000494E46CDCCCC3D0AD7233C17B7D1387773
:10008000CC2B329595E6241FB14F0A000020410089
:1000900000C84200401C4620BCBE4CCA1B0E5AAED3
:1000A000C59D7441726475696E6F204F4E4C494E08
:1000B000450041726475696E6F20426F6F74696E9E
:1000C000672E2E2E00436F6D6D616E642072656326
:1000D00065697665643A2000454D455247454E4373
:1000E0005953544F5050454400000000002400274D
:1000F000002A0000000000250028002B000000005E
:10010000002300260029000404040404040404025B
:1001100002020202020303030303030102040810A4
:100120002040800102040810200102040810200071
:1001300000000800020100000304070000000000A6
:10014000000000002E0B11241FBECFEFD8E0DEBF51
:10015000CDBF24E0A2EDB1E001C01D92A530B207F1
:10016000E1F711E0A0E0B1E0EAE0F6E302C00590BB
:100170000D92A23DB107D9F710E0C3EAD0E004C068
:100180002197FE010E942018C23AD107C9F70E94A8
:10019000650C0C94031B0C9400008230C8F4E82F0B
:1001A000F0E0EE0FFF1FE65EFE4F7183608381304B
:1001B00041F0809169008C7F826080936900E89AA9
:1001C000089580916900837F886080936900E99A2F
:1001D0000895833081F028F4813099F08230A9F0BD
:1001E00008958730A9F08830C9F08430B1F4809147
:1001F00080008F7D03C0809180008F778093800086
:10020000089584B58F7784BD089584B58F7DFBCF25
:100210008091B0008F778093B00008958091B000F6
:100220008F7DF9CFCF93DF93282F30E0F901E15D87
:10023000FE4F8491F901E55EFE4FD491F901E95F2B
:10024000FE4FC491CC23A1F081110E94E900EC2F54
:10025000F0E0EE0FFF1FE350FF4FA591B491EC913A
:10026000ED2381E090E009F480E0DF91CF910895E3
:1002700080E090E0FACF1F93CF93DF93282F30E0F8
:10028000F901E15DFE4F8491F901E55EFE4FD491E5
:10029000F901E95FFE4FC491CC23A9F0162F81111B
:1002A0000E94E900EC2FF0E0EE0FFF1FED50FF4F32
:1002B000A591B4918FB7F894EC91111108C0D09525
:1002C000DE23DC938FBFDF91CF911F910895DE2B4A
:1002D000F8CFCF93DF9390E0FC01E55EFE4F2491D1
:1002E000895F9E4FFC0184918823C9F090E0880FBC
:1002F000991FFC01E751FF4FA591B491FC01ED500E
:10030000FF4FC591D49161110DC09FB7F8948C91A6
:10031000209582238C938881282328839FBFDF9197
:10032000CF910895623051F49FB7F8943C91822F99
:10033000809583238C93E8812E2BEFCF8FB7F89491
:10034000EC912E2B2C938FBFEACF1F93CF93DF938B
:10035000182FEB0161E00E946901209739F460E0F9
:10036000812FDF91CF911F910C943B01CF3FD1059D
:1003700011F461E0F5CFE12FF0E0E15DFE4FE49193
:10038000E33031F140F4E130B1F0E230E1F0C03877
:10039000D1057CF7E4CFE73029F1E83059F1E430BA
:1003A000B1F780918000806280938000D0938B00B1
:1003B000C0938A0004C084B5806884BDC7BDDF9146
:1003C000CF911F91089584B5806284BDC8BDF7CFD9
:1003D00080918000806880938000D0938900C093D2
:1003E0008800EDCF8091B00080688093B000C0930A
:1003F000B300E5CF8091B00080628093B000C093DD
:10040000B400DDCF3FB7F8948091BE029091BF0257
:10041000A091C002B091C10226B5A89B05C02F3F94
:1004200019F00196A11DB11D3FBFBA2FA92F982F1A
:100430008827BC01CD01620F711D811D911D42E015
:10044000660F771F881F991F4A95D1F708952FB718
:10045000F8946091BA027091BB028091BC029091B5
:10046000BD022FBF08950895AF92BF92CF92DF9241
:10047000EF92FF920F931F93CF93DF936C017B0159
:100480008B01040F151FEB015E01AE18BF08C017EA
:10049000D10759F06991D601ED91FC910190F0815D
:1004A000E02DC6010995892B79F7C501DF91CF9120
:1004B0001F910F91FF90EF90DF90CF90BF90AF9082
:1004C0000895FC01538D448D252F30E0842F90E05A
:1004D000821B930B541710F0CF960895019708953F
:1004E000FC01918D828D981761F0A28DAE0FBF2F08
:1004F000B11D5D968C91928D9F5F9F73928F90E05E
:1005000008958FEF9FEF0895FC01918D828D9817CC
:1005100031F0828DE80FF11D858D90E008958FEF09
:100520009FEF0895FC01918D228D892F90E0805CD2
:100530009F4F821B91098F739927089582EC92E057
:100540000E94920221E0892B09F420E0822F089575
:1005500080E090E0892B29F00E949E0281110C948A
:1005600000000895FC01A48DA80FB92FB11DA35A56
:10057000BF4F2C91848D90E001968F739927848FC3
:10058000A689B7892C93A089B1898C9183708064E6
:100590008C93938D848D981306C00288F389E02D87
:1005A00080818F7D80830895EF92FF920F931F9338
:1005B000CF93DF93EC0181E0888F9B8D8C8D981316
:1005C0001AC0E889F989808185FF15C09FB7F89422
:1005D000EE89FF896083E889F9898081837080646E
:1005E00080839FBF81E090E0DF91CF911F910F91B9
:1005F000FF90EF900895F62E0B8D10E00F5F1F4FC8
:100600000F731127E02E8C8D8E110CC00FB607FCD6
:10061000FACFE889F989808185FFF5CFCE010E9464
:10062000B202F1CFEB8DEC0FFD2FF11DE35AFF4F1E
:10063000F0829FB7F8940B8FEA89FB8980818062F2
:10064000CFCF0F931F93CF93DF938C01D0E0C0E007
:10065000F801EC0FFD1F6491662341F082EC92E0FB
:100660000E94D402892B11F02196F2CFCE01DF91A6
:10067000CF911F910F910895CF93DF93EC01888D57
:100680008823B9F0AA89BB89E889F9898C9185FD0D
:1006900003C0808186FD0DC00FB607FCF7CF8C919B
:1006A00085FFF2CF808185FFEDCFCE010E94B2029F
:1006B000E9CFDF91CF9108952091F901260F3327DB
:1006C000331F21323105ECF420911D02FC0190E032
:1006D00080E0243069F082E00895A091F901219131
:1006E000AC0147525E4FA40FB52FB11D2C9301965C
:1006F000861798F38091F901680F6093F90180E003
:10070000089581E0089508958FEF9FEF08958FEF8A
:100710009FEF08958091D20190E091958195910984
:100720000895CF93DF93CB01EA01642F0E945C030D
:10073000CE01DF91CF910895CF93DF931F92CDB774
:10074000DEB7698361E0CE0101960E945C0381E01F
:1007500090E00F90DF91CF91089590E080E00895B0
:100760004F925F926F927F928F929F92AF92BF92C1
:10077000CF92DF92EF92FF920F931F93CF93DF936D
:1007800000D000D000D0CDB7DEB7411551056105CE
:100790007105C9F0FC0125A5211115C06A017B0175
:1007A0009E838D83478C50A061A072A020E030E032
:1007B000A901C301B2010E945F1581111BC0ED8127
:1007C000FE8112A611A626960FB6F894DEBF0FBEC4
:1007D000CDBFDF91CF911F910F91FF90EF90DF90F0
:1007E000CF90BF90AF909F908F907F906F905F90D1
:1007F0004F900895C701B6010E9464152FE632E1BB
:1008000043E85AE30E94C5154B015C01ED81FE816E
:10081000C388D488E588F688A7019601C301B20190
:100820000E9406172B013C010D811E810E5B1F4F9C
:10083000F80120813181428153810E940617ED81A8
:10084000FE8126A937A940AD51AD0E94C515698327
:100850007A838B839C83ED81FE81E65BFF4F608111
:100860007181828193819B01AC010E9407179B01DA
:10087000AC01C701B6010E940617ED81FE81E25B63
:10088000FF4F20813181428153810E940717ED8102
:10089000FE8122AD33AD44AD55AD50580E94C51513
:1008A000A50194010E9473176B017C0120E030E0E8
:1008B00040E450EC0E945F1587FD93C020E030E0DB
:1008C00040E450E4C701B6010E941B1818160CF44E
:1008D0008FC0ED81FE81FE9620813181428153815E
:1008E000C301B2010E94C515A50194010E94C5155E
:1008F0004B015C0120E030E040E252EC0E945F15C9
:1009000087FD7CC020E030E040E252E4C501B40144
:100910000E941B1818160CF478C029813A814B816B
:100920005C81C501B4010E940717A70196010E94CE
:1009300007174B015C0120E030E040E752EC0E94D9
:100940005F1587FD69C020E030E040E752E4C50153
:10095000B4010E941B1818160CF465C0ED80FE80CF
:10096000F6E4EF0EF11CF7012081318142815381C1
:10097000C501B4010E9407174B015C0120E030E083
:10098000A9010E945F1587FD55C020E030E04FE7C8
:1009900053E4C501B4010E941B1818160CF44EC094
:1009A000F70180829182A282B382C501B4010E94C4
:1009B000E517ED81FE8172A761A76F3F710519F000
:1009C00014F06FEF70E077FF02C070E060E0ED813F
:1009D000FE8172A761A7F801408251826282738210
:1009E000F2CEC12CD12C60E4E62E60ECF62E71CF55
:1009F000C12CD12C50E4E52EFE2C6BCF812C912CF8
:100A000040E2A42E42ECB42E88CF812C912C30E20F
:100A1000A32E32E4B32E81CF812C912C20E7A22E7D
:100A200022ECB22E9BCF812C912C90E7A92E92E440
:100A3000B92E94CF812C912C5401B2CF812C912CC2
:100A40008FE7A82E83E4B82EABCF0F931F93CF93DD
:100A5000DF938C01EB01FC0180811C161D0694F0D4
:100A600070E060E0209771F00E94A501662777276B
:100A70006C1B7D0BF8018181DF91CF911F910F914C
:100A80000C94A5010E94A50170E060E0F3CFCF9225
:100A9000DF92EF92FF920F931F93CF93DF93EC01BE
:100AA0008DA58823C1F10E9427020AA91BA92CA9A0
:100AB0003DA9601B710B820B930B68377105810593
:100AC0009105B8F484E690E098A78FA38BA19CA130
:100AD00024E6289FB001299F700D1124CE01DF91DB
:100AE000CF911F910F91FF90EF90DF90CF900C94DA
:100AF00025051DA688E290E098A78FA39AA789A74D
:100B000080E090E0A0E2B2E4FE01EA5BFF4F808368
:100B10009183A283B3830BA11CA1CDA0DEA0EFA083
:100B2000F8A40C151D0559F589A59AA58E199F09DC
:100B3000181619069CF48031910514F08FE090E0AE
:100B40008E0D9F1D98A78FA38FA198A5089FB00118
:100B5000099F700D189F700D1124C0CF0097A1F34D
:100B6000853B2FEF920744F0919581959109E81A02
:100B7000F90AF8A6EFA2E8CF8BE490E0F8CF20E0E6
:100B800030E040EA50E46B897C898D899E890E941F
:100B90005F1587FF0CC08AE0E816F1045CF40E9D37
:100BA000B0010F9D700D1E9D700D112497CF1E1466
:100BB0001F045CF4C7012CE4E216F10414F08BE48A
:100BC00090E0E81AF90AF8A6EFA28FA198A597FF7E
:100BD00002C018A61FA28FA198A5C89EB001C99EE9
:100BE000700DD89E700D112479CFCF92DF92EF92C5
:100BF000FF92CF93DF93EC016A017B0120E030E0AC
:100C0000A9016F8D78A189A19AA10E945F15811118
:100C100009C020E030E0A901C701B6010E941B18FD
:100C2000181674F120E030E0A901C701B6010E9456
:100C30001B1818163CF4CF8ED8A2E9A2FAA281E0C4
:100C400090E013C020E030E0A901C701B6010E9486
:100C50005F1587FF0DC0F7FAF094F7F8F094CF8E88
:100C6000D8A2E9A2FAA28FEF9FEF9CA38BA32CC07E
:100C70001F8E18A219A21AA21CA21BA21DA624C074
:100C8000CF8ED8A2E9A2FAA281E090E09CA38BA328
:100C90008BA58823C9F081E08DA70E9427026AAB4B
:100CA0007BAB8CAB9DAB1BA61CA6FE01EA5BFF4F8A
:100CB00010821182128213821AA619A6CE5BDF4F10
:100CC000188219821A821B82DF91CF91FF90EF90D8
:100CD000DF90CF900895CF93DF93EC0140E050E098
:100CE000BA010E94F50570E060E0CE010E94250582
:100CF00018A61FA2FE01EA5BFF4F1082118212822A
:100D000013821AA619A6CE5BDF4F188219821A82A7
:100D10001B82DF91CF9108958F929F92AF92BF92E5
:100D2000CF92DF92EF92FF920F931F93CF93DF93B7
:100D3000EC01F8946B857C858D859E85CF80D88469
:100D4000E984FA847894611571058105910511F1A2
:100D5000C114D104E104F104E9F00F85188929894F
:100D60003A89C016D106E206F306A1F0CF86D88AEA
:100D7000E98AFA8A613422E472072FE0820791053A
:100D800008F443C080E090E0A0E8BFEB8B8F9C8F1D
:100D9000AD8FBE8FDE01A65BBF4F4D915D916D9112
:100DA0007C911397FE01E25BFF4F40835183628386
:100DB00073834B895C896D897E894D935D936D93B7
:100DC0007C931397F8948F809884A984BA84CB84F9
:100DD000DC84ED84FE84789420E030E0A9016B8D02
:100DE0007C8D8D8D9E8D0E945F1587FD05C08114C1
:100DF0009104A104B104F1F48F89988DA98DBA8D65
:100E00008B8B9C8BAD8BBE8B49C00E94641520E000
:100E100030E040EA51E40E94C5159B01AC0160EC52
:100E200071EE84E69CE40E9473176B8F7C8F8D8F2C
:100E30009E8FB0CF0E940202681979098A099B0926
:100E400000E412E42FE030E041E2C41641EAD406A7
:100E500047E0E406F10488F497018601000F111FB2
:100E6000221F331F003E43E9140744E024073105E5
:100E700020F400EE13E924E030E0061717072807F6
:100E80003907A0F580E090E0A0E8BFEB8B8F9C8F46
:100E9000AD8FBE8F1B8A1C8A1D8A1E8A8DA581116B
:100EA00018C020E030E040E85FE36B897C898D89E1
:100EB0009E890E945F1518160CF453C08CA58111F1
:100EC0003DC081E08CA70E9427026EA77FA788AB58
:100ED00099ABDF91CF911F910F91FF90EF90DF9031
:100EE000CF90BF90AF909F908F900895CB8CDC8C6B
:100EF000ED8CFE8C613A26E8720721E082079105AD
:100F0000D0F00E94641520E030E040EA51E40E94F5
:100F1000C5159B01AC0160EC71EE84E69CE40E9477
:100F200073175B018C019601A7010E941B1818160C
:100F300014F065017801C601D70162CF0E94270233
:100F40000EA51FA528A939A9601B710B820B930B55
:100F5000683C71058105910508F4BBCF81E08BA742
:100F6000B8CF1CA61BA6B5CFCF92DF92EF92FF920F
:100F70000F931F93CF93DF93EC010E9402020F8126
:100F8000188529853A85012B022B032BB1F00F819F
:100F9000188529853A856B017C01C01AD10AE20ABD
:100FA000F30A97018601003147E214072105310554
:100FB00098F00B871C872D873E876F8378878987FA
:100FC0009A878B819C81AD81BE810196A11DB11D47
:100FD0008B839C83AD83BE83DF91CF911F910F9153
:100FE000FF90EF90DF90CF90089581EB93E00C9409
:100FF000B4078FE593E00C94B407CF93DF93EC0133
:1010000061E088810E94690161E089810E94690133
:1010100062E08A81DF91CF910C946901FC0101901B
:101020000020E9F73197AF01481B590BBC0182EC56
:1010300092E00C943402CF93DF930E942103EC01E1
:1010400080E391E00E940E088C0F9D1FDF91CF91ED
:1010500008958F929F92AF92BF92CF92DF92EF92BC
:10106000FF920F931F93CF93DF93CDB7DEB7A19776
:101070000FB6F894DEBF0FBECDBF6C01990FEE081E
:10108000FF08F7FE47C06DE282EC92E00E94D402B6
:101090008C0122273327A9012C193D094E095F092C
:1010A00019A2CE0181967C019AE0892E912CA12C67
:1010B000B12CCA01B901A50194010E949316605D8B
:1010C000F70162937F01211531054105510589F72B
:1010D00090E080E0309719F0CF010E940E08080FD1
:1010E000191F80E391E00E940E08800F911FA196C6
:1010F0000FB6F894DEBF0FBECDBFDF91CF911F9129
:101100000F91FF90EF90DF90CF90BF90AF909F90A6
:101110008F900895A701960119A28E010F5D1F4FB0
:101120008AE0C82ED12CE12CF12CCA01B901A7010B
:1011300096010E949316605DF80162938F0121155C
:1011400031054105510589F7309729F0CF010E94FB
:101150000E088C01C6CF10E000E0C3CF1F93CF93E1
:10116000DF9385ED8093BC008091D5019091D601ED
:10117000A091D701B091D8010796A11DB11D23E020
:10118000B695A795979587952A95D1F72091BC009C
:1011900024FD03C010921D0252C04091D501509110
:1011A000D6016091D7017091D801452B462B472B72
:1011B00069F30097A105B10541F02AE22A95F1F7FC
:1011C00000C00197A109B109E1CF8091D401C1E02C
:1011D000C093D301882399F1D091B8001091BA003F
:1011E0008091BC008A7B8093BC0060E082E10E9419
:1011F0003B0160E083E10E943B0110921D02C0931D
:101200001F0210921E0261E082E10E943B0161E038
:1012100083E10E943B018091B9008E7F8093B900E9
:101220008091B9008D7F8093B90088E48093B800E5
:1012300085E48093BC001093BA00D093B800DF918E
:10124000CF911F9108951F920F920FB60F92112404
:101250002F933F938F939F93AF93BF938091BA0245
:101260009091BB02A091BC02B091BD023091B90235
:1012700023E0230F2D3758F50196A11DB11D2093B2
:10128000B9028093BA029093BB02A093BC02B093C0
:10129000BD028091BE029091BF02A091C002B091A8
:1012A000C1020196A11DB11D8093BE029093BF02A1
:1012B000A093C002B093C102BF91AF919F918F9153
:1012C0003F912F910F900FBE0F901F90189526E819
:1012D000230F0296A11DB11DD2CF1F920F920FB600
:1012E0000F9211242F933F934F935F936F937F93AC
:1012F0008F939F93AF93BF93EF93FF93E0911C0164
:10130000F0911D010995FF91EF91BF91AF919F91D0
:101310008F917F916F915F914F913F912F910F909E
:101320000FBE0F901F9018951F920F920FB60F923D
:1013300011242F933F934F935F936F937F938F93DA
:101340009F93AF93BF93EF93FF93E0911A01F091B6
:101350001B010995FF91EF91BF91AF919F918F91E3
:101360007F916F915F914F913F912F910F900FBEA1
:101370000F901F9018951F920F920FB60F92112485
:101380002F933F934F935F936F937F938F939F938D
:10139000AF93BF93EF93FF9382EC92E00E94B2026F
:1013A000FF91EF91BF91AF919F918F917F916F913D
:1013B0005F914F913F912F910F900FBE0F901F9013
:1013C00018951F920F920FB60F9211242F938F939F
:1013D0009F93EF93FF93E091D202F091D30280812B
:1013E000E091D802F091D90282FD1BC090818091DA
:1013F000DB028F5F8F732091DC02821741F0E09156
:10140000DB02F0E0EE53FD4F958F8093DB02FF91FE
:10141000EF919F918F912F910F900FBE0F901F9082
:1014200018958081F4CF1F920F920FB60F9211245E
:101430002F933F934F935F936F937F938F939F93DC
:10144000AF93BF93EF93FF938091B900887F80366D
:1014500009F44AC0F0F5883209F4A5C018F58031C6
:1014600009F499C0B8F4882309F4F5C0883009F468
:1014700092C0FF91EF91BF91AF919F918F917F911A
:101480006F915F914F913F912F910F900FBE0F90F1
:101490001F901895883109F486C0803251F78093E7
:1014A0001C0214C0803409F49BC040F48033B9F3AB
:1014B0008833F9F680931C0285ECAEC0803509F4C0
:1014C00083C0883509F494C0883499F60E94AE0828
:1014D000D0CF883909F48AC038F5883729F050F41C
:1014E000883611F0803729F683E080931D02109230
:1014F0001B0255C0883809F479C0803919F080384A
:1015000009F0B7CF80911B02803208F06FC0E091E4
:101510001B0281E08E0F80931B028091BB00F0E0E4
:10152000E550FE4F80833BC0803B39F0D0F4803AD9
:1015300009F477C0883A09F09CCF84E080931D02BB
:101540001092FA011092F901F0E0E0E00995809123
:10155000F90181110FC081E08093F9011092D90146
:1015600009C0803C09F4A8CF883C09F4A5CF883B8A
:1015700009F07FCFE091FA0181E08E0F8093FA01AC
:10158000F0E0E752FE4F80818093BB009091FA011A
:101590008091F90129C0809142028093BB0085ECC3
:1015A0008093BC0066CF90914102809140029817D1
:1015B00058F5E091410281E08E0F80934102F0E006
:1015C000E05EFD4F8081E9CFE091410281E08E0F26
:1015D000809341028091BB00F0E0E05EFD4F80838C
:1015E00090914102809140029817C8F285E8D8CFC7
:1015F000E091410281E08E0F809341028091BB0017
:10160000F0E0E05EFD4F808380911F0281115ECF8C
:1016100081E080931E0284EA8093BC0010921D0238
:1016200028CF85EC8093BC0010921D0280911B0294
:10163000803230F4E0911B02F0E0E550FE4F108262
:1016400060911B0270E08BEF91E0F0E0E0E0099523
:1016500010921B020ECF10921C0238CF4F925F9255
:101660006F927F928F929F92AF92BF92CF92DF92B2
:10167000EF92FF92E2ECF2E01382128288EE93E0A6
:10168000A0E0B0E084839583A683B78382E291E0F3
:101690009183808385EC90E09587848784EC90E04B
:1016A0009787868780EC90E0918B808B81EC90E02F
:1016B000938B828B82EC90E0958B848B86EC90E010
:1016C000978B868B118E128E138E148EE1EBF3E0C6
:1016D0008DEC482E8CEC582E8CE0682E8FE3782E03
:1016E00046AA57AA60AE71AE9DEC892E9CEC992E4D
:1016F000A92C9DE3B92E82AE93AEA4AEB5AEC12C9B
:10170000D12C20E2E22E20E4F22EC092EF03D09200
:10171000F003E092F103F092F20386E0808385E02B
:10172000818382E082831382148215821682178E4F
:1017300010A211A212A2138A148A158A168A178A75
:10174000108E118E128E40E050E060E87FEB438FE8
:10175000548F658F768F10A617A212A611A614A219
:1017600013A221E030E036A325A31092FB031092D0
:10177000FC031092FD031092FE031092FF031092DF
:10178000000410920104109202041092F3031092CC
:10179000F4031092F5031092F6031092F7031092DF
:1017A000F8031092F9031092FA031782108611863B
:1017B000128613861486158616861786108A118A55
:1017C000128A81E083A714A615A616A617A610AA4A
:1017D00011AA12AA13AA14AA15AAEFE5F3E046AAC1
:1017E00057AA60AE71AE82AE93AEA4AEB5AEC09253
:1017F0009D03D0929E03E0929F03F092A0039AE093
:1018000090839BE0918393E09283138214821582EC
:101810001682178E10A211A212A2138A148A158A98
:10182000168A178A108E118E128E438F548F658FF1
:10183000768F10A617A212A611A614A213A236A381
:1018400025A31092A9031092AA031092AB03109241
:10185000AC031092AD031092AE031092AF0310923E
:10186000B0031092A1031092A2031092A30310924E
:10187000A4031092A5031092A6031092A70310923E
:10188000A803178210861186128613861486158681
:1018900016861786108A118A128A83A714A615A69F
:1018A00016A617A610AA11AA12AA13AA14AA15AA54
:1018B000FF90EF90DF90CF90BF90AF909F908F9070
:1018C0007F906F905F904F900895CF93DF93CDB747
:1018D000DEB7E4970FB6F894DEBF0FBECDBF7894A5
:1018E00084B5826084BD84B5816084BD85B5826025
:1018F00085BD85B5816085BD80916E0081608093D6
:101900006E0010928100809181008260809381003E
:10191000809181008160809381008091800081604E
:10192000809380008091B10084608093B1008091A9
:10193000B00081608093B00080917A0084608093D1
:101940007A0080917A00826080937A0080917A0098
:10195000816080937A0080917A00806880937A0019
:101960001092C100E091D202F091D30282E0808314
:10197000E091CE02F091CF021082E091D002F0917E
:10198000D10280E180831092DA02E091D602F091D8
:10199000D70286E08083E091D402F091D502808165
:1019A00080618083E091D402F091D50280818860CB
:1019B0008083E091D402F091D50280818068808399
:1019C000E091D402F091D50280818F7D808382EBFB
:1019D00090E00E941B0881EB93E00E94FD078FE5D9
:1019E00093E00E94FD078091B303823009F4B9C0EF
:1019F000833009F0B8C081E065EF77E00E94CD0048
:101A000080916103823009F4B0C0833009F0AFC027
:101A100081E069EF77E00E94CD0084E690E0A0E0ED
:101A2000B0E08093000190930101A0930201B09374
:101A3000030185E090E0A0E0B0E080930401909382
:101A40000501A0930601B093070184E190E0A0E0B6
:101A5000B0E08093080190930901A0930A01B0932C
:101A60000B018AE090E0A0E0B0E080930C0190933D
:101A70000D01A0930E01B0930F0188EC90E0A0E05F
:101A8000B0E08093140190931501A0931601B093D8
:101A9000170161E08DE00E94690160E08CE00E9426
:101AA000690160E08DE00E943B010E9402026093A8
:101AB000B3027093B4028093B5029093B60260E0D3
:101AC00087E00E94690160E084E00E94690160E0B3
:101AD00088E00E94690181E090E0909399028093F0
:101AE000980283EA90E00E941B089E012F5F3F4FFF
:101AF0005901AE01455F5F4F5CAB4BAB99249394AA
:101B00008824839422242A94322C8AE0F5011192AD
:101B10008A95E9F782EC92E00E9492021816190663
:101B20005CF582EC92E00E947002182F809289028C
:101B30000E94270260938502709386028093870239
:101B400090938802112331F3E0918402EF3388F4FB
:101B500081E08E0F80938402F0E0EC5BFD4F1083F8
:101B6000D9CF80E049CF8FEF47CF80E052CF8FEFC2
:101B700050CF80924302CECF80918902882331F1E9
:101B80000E9427020091850210918602209187020F
:101B900030918802601B710B820B930B0091C6027F
:101BA0001091C7022091C8023091C90260177107D5
:101BB0008207930758F0109289028091430288238C
:101BC00009F42DC210928402109243020E9427024F
:101BD0006093A7027093A8028093A9029093AA022F
:101BE00000918A0210918B0220918C0230918D021B
:101BF0006B017C01C01AD10AE20AF30A809100014C
:101C000090910101A0910201B0910301C816D9067B
:101C1000EA06FB0608F492C0C114D104E104F10401
:101C2000A1F1F8946091B4037091B5038091B6036B
:101C30009091B7031092B4031092B5031092B603BB
:101C40001092B70378940E94641520E030E040EAD7
:101C500051E40E94731720E030E64AE657E40E9400
:101C6000C5152B013C01C701B6010E9464159B01FB
:101C7000AC01C301B2010E9473176093C803709353
:101C8000C9038093CA039093CB03C090A702D0905E
:101C9000A802E090A902F090AA0280918A02909195
:101CA0008B02A0918C02B0918D02C81AD90AEA0A5F
:101CB000FB0AA1F1F8946091620370916303809133
:101CC0006403909165031092620310926303109273
:101CD00064031092650378940E94641520E030E05C
:101CE00040EA51E40E94731720E030E64AE657E4E8
:101CF0000E94C5152B013C01C701B6010E94641565
:101D00009B01AC01C301B2010E947317609376037B
:101D10007093770380937803909379038091A7025F
:101D20009091A802A091A902B091AA0280938A0280
:101D300090938B02A0938C02B0938D02C090A70267
:101D4000D090A802E090A902F090AA02809192029D
:101D500090919302A0919402B0919502B701A601CF
:101D6000481B590B6A0B7B0B809104019091050174
:101D7000A0910601B0910701481759076A077B0730
:101D800008F451C08091B702882399F0809118011E
:101D90009091190190931301809312011092B70250
:101DA00097FD07C021E08837910508F020E02093D7
:101DB000970287E00E9412018C0188E00E941201C4
:101DC00041E050E00130110511F050E040E0440FD7
:101DD000551F440F551F21E030E0019711F030E00E
:101DE00020E0220F331F142F122B84E00E941201D7
:101DF00021E0019709F020E0122B8091A202181334
:101E00008EC211FD08C080919602833009F454C23D
:101E1000843009F46AC2C0929202D0929302E09296
:101E20009402F092950280919A0290919B02A09167
:101E30009C02B0919D0226013701481A590A6A0A8C
:101E40007B0A8091080190910901A0910A01B0914B
:101E50000B01481659066A067B0630F180919802FC
:101E600090919902009709F486C2019709F498C2EB
:101E700081EB93E00E948C068FE593E00E948C0634
:101E8000B301A20181EB93E00E94B003B301A20170
:101E90008FE593E00E94B003C0929A02D0929B0219
:101EA000E0929C02F0929D0280919E0290919F028E
:101EB000A091A002B091A102B701A601481B590B45
:101EC0006A0B7B0B80910C0190910D01A0910E018A
:101ED000B0910F01481759076A077B0780F081EB23
:101EE00093E00E9447058FE593E00E944705C0926A
:101EF0009E02D0929F02E092A002F092A1028091F5
:101F0000A3029091A402A091A502B091A602C81AC2
:101F1000D90AEA0AFB0A8091140190911501A09157
:101F20001601B0911701C816D906EA06FB0608F497
:101F30005BC0F090A2026091720370917303809174
:101F40007403909175030E94E5177F936F936091DE
:101F5000C4037091C5038091C6039091C7030E948A
:101F6000E5177F936F938F2D81701F928F93F1FAF6
:101F7000882780F91F928F93F2FA002700F91F92A9
:101F80000F93809113018F93809112018F93809111
:101F900011018F93809110018F938FEA91E09F93AD
:101FA0008F931F9282E38F93BF92AF920E944C183F
:101FB000C5010E940E0880E391E00E940E08809106
:101FC000A7029091A802A091A902B091AA028093C1
:101FD000A3029093A402A093A502B093A6020FB609
:101FE000F894DEBF0FBECDBF0E9402026B017C01E0
:101FF0008091B802813009F47AC208F437C2823085
:1020000009F4A3C280E090E0892B09F47ECD0E9400
:102010009E02882309F476CD0E94000073CD0091C2
:10202000840210E0F801EC5BFD4F108244E4E42EE2
:1020300042E0F42EF70181916F01882331F090E0A6
:102040000E94EB13892B09F0A8C00C5B1D4FE01612
:10205000F10648F4F80182916F0190E00E94EB13C1
:10206000892B09F09CC0F8011082F4E4EF16F2E02D
:10207000FF0651F0A8014E195F094F5F5F4FB7018E
:1020800084E492E00E942618109284028091440217
:10209000882309F49BCD85EC90E00E94210384E421
:1020A00092E00E940E0880E391E00E940E088501F4
:1020B00084E492E0F801819391938F016AE370E0E8
:1020C0000E943818009741F0FC011192CF014BA8F3
:1020D0005CA84016510671F7E980FA8068EC71E05F
:1020E000C7010E9443188C01892B09F45AC06EE67F
:1020F00071E0C7010E944318892B09F0A4C08B81AD
:102100009C81412C512C3201009721F00E94E71351
:102110002B013C018D819E81C12CD12C7601009731
:1021200021F00E94E7136B017C018F819885009755
:1021300009F485C00E94E7134092E7035092E80338
:102140006092E9037092EA03C092EF03D092F00329
:10215000E092F103F092F2036093EB037093EC03CF
:102160008093ED039093EE03409295035092960373
:102170006092970370929803C0929D03D0929E0341
:10218000E0929F03F092A0036093990370939A03E7
:1021900080939B0390939C0319CD76014BCF8601CE
:1021A00056CF8B819C81F12CE12C009739F04AE0CD
:1021B00050E070E060E00E94D0127B018D819E8132
:1021C000009739F04AE050E070E060E00E94D012E1
:1021D0008B0132E0632E712C70929902609298020A
:1021E000B7010F2C000C880B990B0E946615AB01F0
:1021F000BC0181EB93E00E94F505B801012E000CB3
:10220000880B990B0E946615AB01BC018FE593E02A
:102210000E94F50583E391E00E940E08C7010E9429
:1022200029088BE491E00E940E08C8010E94290849
:1022300024E631E03093110120931001C7CC60E017
:1022400070E0CB0179CF65E771E0C7010E944318C8
:10225000892BB9F4309299022092980281EB93E095
:102260000E946B068FE593E00E946B0688ED90E07C
:102270000E941B0843E851E0509311014093100164
:10228000A5CC64E971E0C7010E944318892B39F499
:1022900081E090E0909399028093980297CC6EE74A
:1022A00071E0C7010E944318892B09F08FCC10926E
:1022B0009902109298028ACC80918E0290918F029E
:1022C000A0919002B091910226013701481A590A53
:1022D0006A0A7B0AD301C20188359240A105B10583
:1022E00008F499CD9092960296CD80918E029091AD
:1022F0008F02A0919002B091910226013701481AF5
:10230000590A6A0A7B0AD301C20188359240A105A5
:10231000B10508F480CD82E0809396027CCD809157
:102320009602823061F038F4882371F08130F1F048
:102330001093A20270CD8330C9F08430C9F712FD2A
:1023400005C011FD15C0F4CF12FF02C083E003C029
:1023500010FFEECF84E080939602C0928E02D0925E
:102360008F02E0929002F0929102E2CF11FFF0CF43
:1023700010929602DDCF40E050E0BA0181EB93E08D
:102380000E94F50540E050E0BA018FE593E00E941D
:10239000F5058EE791E0909311018093100168CDCF
:1023A0008EE991E090931101809310018091970242
:1023B000882359F081EB93E00E946B068FE593E050
:1023C0000E946B0686EA91E0E6CF80919602823009
:1023D000E1F168F48823E1F0813039F181EB93E099
:1023E0000E946B068FE593E00E946B0641CD83301F
:1023F000C1F1843099F740E050E064EB72E481EB86
:1024000093E00E94F50540E050E060E271E418C0FE
:1024100040E050E064EB72E481EB93E00E94F5054C
:1024200040E050E064EB72E40BC040E050E0BA01E1
:1024300081EB93E00E94F50540E050E060E772E434
:102440008FE593E00E94F50513CD40E050E060E792
:1024500072E481EB93E00E94F50540E050E0BA01A0
:10246000EFCF40E050E060E271E4D6CF8091B70258
:102470008111C8CD8091B3029091B402A091B502B0
:10248000B091B602C81AD90AEA0AFB0A50E6C51684
:102490005AEED506E104F10408F4B4CD60E08DE015
:1024A0000E943B0183E090E00197F1F761E08DE04D
:1024B0000E943B0183E290E00197F1F760E08DE03C
:1024C0000E943B010E9402026093B3027093B40227
:1024D0008093B5029093B6026093AF027093B002FE
:1024E0008093B1029093B2029092B8028BCD8CE0AF
:1024F0000E941201019761F4C092AB02D092AC022B
:10250000E092AD02F092AE0282E08093B8027ACD02
:102510008091AF029091B002A091B102B091B2024D
:10252000C81AD90AEA0AFB0A88EAC81681E6D80658
:10253000E104F10408F466CD3092190120921801EB
:102540009092B7021092B8025DCD8CE00E94120109
:102550004091AB025091AC026091AD027091AE021D
:1025600026013701441A550A660A770AA301920127
:10257000892B79F4A7E5B1E00E94B51620ED37E08C
:1025800040E050E00E949316309319012093180107
:10259000D7CF283A31464105510508F433CDCCCF89
:1025A000B0E0A0E0E6EDF2E10C94C1165C016B0135
:1025B0007A016115710519F0FB0191838083E114A3
:1025C000F10451F0C7010297839730F040E030E00A
:1025D00020E090E072C05E01E5012196F5011081D6
:1025E000812F90E00E94EB13892BA9F71D3201F592
:1025F0002196F501118101E0E114F10409F4DAC03A
:10260000F0E1EF16F10409F082C0103359F488812B
:102610008F7D883509F076C0198122960260F0E13D
:10262000EF2EF12C812C912CA12C88E0B82E8CC09F
:102630001B3221F4E5012296F501118100E0DCCF87
:10264000EAE0EE16F10409F4BBC0F0E1EF16F10484
:1026500009F06DC0E7CF78E0E72EF12C812C912CAA
:10266000A12C60E1B62E70C03FE9310F3A3128F459
:1026700039EA332E80C021E09AC0302F3170C11466
:10268000D10431F0222309F12197F601D183C083CF
:1026900027FF21C060E070E080E090E8311104C0C5
:1026A0006FEF7FEF8FEF9FE722E230E0309304047B
:1026B00020930304462F372F282F642F732F822F48
:1026C000CDB7DEB7E1E10C94DD1601FF04C022971F
:1026D000F601D183C083332341F0909580957095A6
:1026E00061957F4F8F4F9F4FE5CF97FFE3CF82E2FA
:1026F00090E090930404809303046FEF7FEF8FEFDB
:102700009FE7D8CF10E3E114F10409F4A4CF28E047
:10271000E216F10409F4A2CF0CF092CF812C912C97
:10272000A12CE0E4BE2E82E0E816F10469F060E03E
:1027300070E080E090E897010F2C000C440B550BE3
:102740000E94931649015A0120E060E070E0CB013D
:1027500027010F2C000C66087708FE0150ED352E7E
:10276000310E39E0331540F43FEB310F3A3108F0C8
:102770007BCF49EC342E310E3E141F040CF07DCF7C
:1027800027FD15C086169706A806B90678F0A3019E
:1027900092010E948316630D711D811D911D613090
:1027A0007105810520E8920708F465CF2FEF219687
:1027B0001081D3CF103309F42ACF2AE0E22EF12C76
:1027C0009CEC892E982CA82C9CE0B92EBDCF6627B6
:1027D00077270C94F41391110C944415803219F05E
:1027E00089508550C8F70895B0E0A0E0EAEFF3E122
:1027F0000C94C6165C017B016115710519F0DB01B3
:102800008D939C9385010F5F1F4FF501D0818D2F14
:1028100090E00E94EB136C01892BB9F5DD32B9F51C
:102820000F5F1F4FD5011196DC91C1E05801F1E017
:10283000AF1AB10843E050E060E770E0C5010E94C4
:102840004715892B69F5680182E0C80ED11C45E067
:1028500050E06BE670E0C6010E944715892B21F419
:10286000680197E0C90ED11CE114F10419F0D701F9
:10287000CD92DC9260E070E080E89FEFC111FFC074
:1028800060E070E080E89FE7FAC05801BBCFDB3220
:1028900029F485010E5F1F4FF501D181C0E0C6CF3D
:1028A00043E050E068E670E0C5010E944715892BBF
:1028B000E9F0F80110E000E020E030E0A9015F015C
:1028C000B0ED8B2E8D0E89E08815C8F19C2E689492
:1028D00091F88C2F8870C2FF16C0811102C00F5F63
:1028E0001F4F3196D501DC91C92DE9CFE114F104D8
:1028F00029F00E5F1F4FF7011183008360E070E045
:1029000080EC9FE7BCC0882311F001501109A5E0BD
:10291000B0E00E94B5169B01AC01220F331F441F8B
:10292000551F280D311D411D511D283999E93907C1
:10293000490799E15907A8F2C6609C2ED2CFAEEFA5
:102940008A1206C0C3FD3CC09C2E689493F8C9CF80
:10295000DF7DD534A9F580818D3239F4C061DF0186
:102960001296818162E070E006C0DF018B32C1F314
:10297000119661E070E080535D01A61AB70A8A30B3
:10298000F8F4E0E8CE16ECE0DE065CF4B601660F83
:10299000771F660F771FC60ED71ECC0CDD1CC80E26
:1029A000D11C5D01FFEFAF1ABF0A8C9180538A30B2
:1029B000A8F1C4FF03C0D194C194D1080C0D1D1D12
:1029C000C1FF09C0E114F10431F081E0A81AB10897
:1029D000D701AD92BC92CA01B9010E946415C370BF
:1029E000C33009F490584B015C0120E030E0A901AC
:1029F0000E945F15882309F440C0CFE9D0E017FF9B
:102A000005C0119501951109C7E8D0E06E01B8E144
:102A1000CB1AD10880E2E82EF12C0FC0D501B1CF3E
:102A2000FE0125913591459154910E191F09C5015B
:102A3000B4010E94C5154B015C01D501C4010E15FE
:102A40001F0574F72497F594E794CC16DD06A9F7D3
:102A50008A2F880F8B2F881F8F3F49F020E030E0AE
:102A6000A901C501B4010E945F15811106C082E26F
:102A700090E09093040480930304C501B401CDB7A2
:102A8000DEB7ECE00C94E216992788270895FB0145
:102A9000DC014150504088F08D9181341CF08B3521
:102AA0000CF4805E659161341CF06B350CF4605E53
:102AB000861B611171F3990B0895881BFCCF0E944E
:102AC000A11508F481E00895E89409C097FB3EF44D
:102AD00090958095709561957F4F8F4F9F4F99236B
:102AE000A9F0F92F96E9BB279395F69587957795E9
:102AF0006795B795F111F8CFFAF4BB0F11F460FFA9
:102B00001BC06F5F7F4F8F4F9F4F16C0882311F000
:102B100096E911C0772321F09EE8872F762F05C014
:102B2000662371F096E8862F70E060E02AF09A95AF
:102B3000660F771F881FDAF7880F9695879597F9A4
:102B40000895990F0008550FAA0BE0E8FEEF16163E
:102B50001706E807F907C0F012161306E407F50791
:102B600098F0621B730B840B950B39F40A2661F005
:102B7000232B242B252B21F408950A2609F4A140A8
:102B8000A6958FEF811D811D08950E94D8150C9484
:102B900049160E943B1638F00E94421620F09523F9
:102BA00011F00C9432160C94381611240C947D16E6
:102BB0000E945A1670F3959FC1F3950F50E0551F70
:102BC000629FF001729FBB27F00DB11D639FAA2782
:102BD000F00DB11DAA1F649F6627B00DA11D661FD1
:102BE000829F2227B00DA11D621F739FB00DA11DF2
:102BF000621F839FA00D611D221F749F3327A00DAC
:102C0000611D231F849F600D211D822F762F6A2F47
:102C100011249F5750409AF0F1F088234AF0EE0FAC
:102C2000FF1FBB1F661F771F881F91505040A9F7D9
:102C30009E3F510580F00C9432160C947D165F3F38
:102C4000E4F3983ED4F3869577956795B795F79515
:102C5000E7959F5FC1F7FE2B880F911D969587958D
:102C600097F9089597F99F6780E870E060E008950C
:102C70009FEF80EC089500240A9416161706180694
:102C80000906089500240A94121613061406050670
:102C90000895092E0394000C11F4882352F0BB0F01
:102CA00040F4BF2B11F460FF04C06F5F7F4F8F4F64
:102CB0009F4F089557FD9058440F551F59F05F3F9F
:102CC00071F04795880F97FB991F61F09F3F79F04E
:102CD00087950895121613061406551FF2CF4695D0
:102CE000F1DF08C0161617061806991FF1CF869552
:102CF0007105610508940895E894BB276627772736
:102D0000CB0197F90895DB018F939F930E94B5162D
:102D1000BF91AF91A29F800D911DA39F900DB29F77
:102D2000900D11240895A1E21A2EAA1BBB1BFD01D0
:102D30000DC0AA1FBB1FEE1FFF1FA217B307E4079A
:102D4000F50720F0A21BB30BE40BF50B661F771FF2
:102D5000881F991F1A9469F76095709580959095D2
:102D60009B01AC01BD01CF0108950E94F716A59FFC
:102D7000900DB49F900DA49F800D911D1124089576
:102D80002F923F924F925F926F927F928F929F927B
:102D9000AF92BF92CF92DF92EF92FF920F931F9369
:102DA000CF93DF93CDB7DEB7CA1BDB0B0FB6F8941A
:102DB000DEBF0FBECDBF09942A88398848885F845A
:102DC0006E847D848C849B84AA84B984C884DF80CB
:102DD000EE80FD800C811B81AA81B981CE0FD11DAF
:102DE0000FB6F894DEBF0FBECDBFED010895A29FD0
:102DF000B001B39FC001A39F700D811D1124911DCF
:102E0000B29F700D811D1124911D08955058BB274C
:102E1000AA270E941E170C9449160E943B1638F0F0
:102E20000E94421620F039F49F3F19F426F40C94C6
:102E300038160EF4E095E7FB0C943216E92F0E9449
:102E40005A1658F3BA17620773078407950720F0DC
:102E500079F4A6F50C947C160EF4E0950B2EBA2F9F
:102E6000A02D0B01B90190010C01CA01A001112490
:102E7000FF27591B99F0593F50F4503E68F11A163C
:102E8000F040A22F232F342F4427585FF3CF4695CD
:102E900037952795A795F0405395C9F77EF41F16EF
:102EA000BA0B620B730B840BBAF09150A1F0FF0FB9
:102EB000BB1F661F771F881FC2F70EC0BA0F621FA5
:102EC000731F841F48F4879577956795B795F79595
:102ED0009E3F08F0B0CF9395880F08F09927EE0F2A
:102EE0009795879508950E9487170C9449160E941C
:102EF000421658F00E943B1640F029F45F3F29F03B
:102F00000C94321651110C947D160C9438160E94B4
:102F10005A1668F39923B1F3552391F3951B550B7A
:102F2000BB27AA2762177307840738F09F5F5F4F9C
:102F3000220F331F441FAA1FA9F335D00E2E3AF0DB
:102F4000E0E832D091505040E695001CCAF72BD0F3
:102F5000FE2F29D0660F771F881FBB1F2617370744
:102F60004807AB07B0E809F0BB0B802DBF01FF2776
:102F700093585F4F3AF09E3F510578F00C9432160B
:102F80000C947D165F3FE4F3983ED4F386957795D5
:102F90006795B795F7959F5FC9F7880F911D96952F
:102FA000879597F90895E1E0660F771F881FBB1F8B
:102FB000621773078407BA0720F0621B730B840B38
:102FC000BA0BEE1F88F7E09508950E94EC176894FD
:102FD000B1110C947D1608950E94621688F09F57D7
:102FE00098F0B92F9927B751B0F0E1F0660F771F2D
:102FF000881F991F1AF0BA95C9F714C0B13091F023
:103000000E947C16B1E008950C947C16672F782FEF
:103010008827B85F39F0B93FCCF3869577956795E7
:10302000B395D9F73EF490958095709561957F4F53
:103030008F4F9F4F08950E94A11508F48FEF0895B8
:10304000EE0FFF1F0590F491E02D099468177907A2
:1030500068F4FB01DC01E40FF51FA40FB51F02C0EB
:1030600002900E9241505040D8F708950C94611A86
:10307000FC018191861721F08823D9F799270895BB
:103080003197CF010895FB01DC018D9101908019EA
:103090000110D9F3990B0895AEE0B0E0E2E5F8E154
:1030A0000C94CE160D891E898F89988D26E02C836D
:1030B0001A83098397FF02C080E090E801979E83FE
:1030C0008D83AE01455E5F4F698D7A8DCE0101968D
:1030D0000E947C184D815E8157FD0AC02F81388582
:1030E000421753070CF49A01020F131FF8011082C4
:1030F0002E96E4E00C94EA16ABE0B0E0E2E8F8E1EA
:103100000C94C0167C013B018A01FC0117821682D7
:10311000838181FFC8C1CE0101965C01F7019381D3
:10312000F30193FD859193FF81913F01882309F479
:1031300053C1853239F493FD859193FF81913F010D
:10314000853229F4B70190E00E94751AE7CF912CDF
:10315000212C312CFFE1F31538F08B3211F190F472
:10316000803209F1833229F137FC3CC020ED280F71
:103170002A3050F536FE20C08AE0989E200D11249A
:10318000922E06C08D3291F0803371F7689430F83A
:10319000F30193FD859193FF81913F018111DACF76
:1031A00021C0689431F8689432F8F2CF689433F80B
:1031B000EFCF689434F8ECCFEAE02E9E200D112476
:1031C000222E689435F8E4CF8E3229F436FC04C1FF
:1031D000689436F8DDCF8C3619F4689437F8D8CF78
:1031E0008836B1F2982F9F7D95549330E0F0833666
:1031F000A1F18337C1F1833509F063C02801F2E002
:103200004F0E511CF801C080D180692D70E036FC52
:1032100002C06FEF7FEFC6010E94561A4C016894FE
:1032200037F882010AC00C5F1F4FFFE3F98388243F
:103230008394912C6501E89437F833FE2DC0522C0D
:103240008114910471F5552009F468CFB70180E22B
:1032500090E00E94751A5A94F6CFF8018081898314
:103260000E5F1F4FE4CF2801F2E04F0E511CF80112
:10327000C080D180692D70E036FC02C06FEF7FEF17
:10328000C6010E946A1A4C018201D5CFB70180E2C3
:1032900090E00E94751A2A942814190409F0B0F7D6
:1032A000CECFF60137FC859137FE81916F01B701D2
:1032B00090E00E94751A51105A94F1E08F1A91080B
:1032C000BFCF843619F0893609F077C0F80137FE90
:1032D0006BC060817181828193810C5F1F4FF32DE0
:1032E000FF763F2E97FF09C0909580957095619568
:1032F0007F4F8F4F9F4F689437F82AE030E0A50149
:103300000E94A51AC82ECA188C2C432C36FE0CC05D
:10331000E89440F8C91440F434FE05C032FC03C000
:10332000F32DFE7E4F2E892C44FE95C0FE01EC0D40
:10333000F11D8081803309F087C0242D297E422E23
:10334000842D8870582E43FC95C040FE8FC09C2C65
:10335000821418F42C0C922C981844FE91C0B701DA
:1033600080E390E00E94751A42FE09C088E790E071
:1033700041FE02C088E590E0B7010E94751AC914A9
:1033800008F48AC0CA94D12C9FEFC91AD90ACA0C72
:10339000DB1CF60182916F01B70190E00E94751A63
:1033A000AC14BD04B1F74FCF60817181072E000CC2
:1033B000880B990B0E5F1F4F92CFD32CE894D4F853
:1033C0002AE030E0853739F1232D297FD22E8F3640
:1033D00001F148F48835A9F0F701868197812B9691
:1033E000E2E10C94DC16803749F08837A9F7D4FE67
:1033F00002C06894D2F820E130E00DC06894D4F89F
:10340000F6CF34FE03C0822F8660D82E20E132E052
:1034100002C028E030E0F801D7FE0FC06081718162
:10342000828193810C5F1F4FA5010E94A51AC82EAF
:10343000CA183D2CE89437F867CF6081718190E01D
:1034400080E00E5F1F4FF0CF42FC02C0839478CF24
:103450008394839475CF842D867809F471CFF6CF49
:10346000B70180E290E00E94751A83948214C0F341
:10347000512C73CF522C5818821408F46ECFF8CF09
:10348000842D867809F47BCF8BE241FE80E247FCF5
:103490008DE2B70190E071CFB70180E390E00E9428
:1034A000751A9A946CCF8FEF9FEF99CFFC0105901E
:1034B000615070400110D8F7809590958E0F9F1F36
:1034C0000895FB01DC0102C001900D924150504073
:1034D000D8F70895FC016150704001900110D8F7B1
:1034E000809590958E0F9F1F08950F931F93CF93F4
:1034F000DF93182F092FEB018B8181FD09C01FEF8E
:103500000FEF812F902FDF91CF911F910F91089591
:1035100082FF14C02E813F818C819D81281739073D
:103520003CF4E881F981CF01019699838883108367
:103530008E819F8101969F838E83E3CFE885F985F5
:10354000812F0995892BA1F3DACFFA01AA27283018
:1035500051F1203181F1E8946F936E7F6E5F7F4F60
:103560008F4F9F4FAF4FB1E03ED0B4E03CD0670FDC
:10357000781F891F9A1FA11D680F791F8A1F911D2F
:10358000A11D6A0F711D811D911DA11D20D009F47F
:1035900068943F912AE0269F11243019305D3193C1
:1035A000DEF6CF010895462F4770405D4193B3E0AA
:1035B0000FD0C9F7F6CF462F4F70405D4A3318F051
:1035C000495D31FD4052419302D0A9F7EACFB4E002
:1035D000A6959795879577956795BA95C9F70097BA
:1035E0006105710508959B01AC010A2E069457955B
:1035F000479537952795BA95C9F7620F731F841FB2
:10360000951FA01D0895F894FFCFE8030000E8037C
:103610000000E8030000E80300003201FFFFE803B8
:103620000000FFFF3302330200000000D402340226
:1036300061023C039202700284020D0A006C65660E
:103640007420776865656C2052504D207365742036
:10365000746F3A2000726967687420776865656CDA
:103660002052504D2073657420746F3A2000464FED
:103670005243454452554E00534554504944004529
:103680004D455247454E435953544F5000454D45C3
:103690005247454E435953544F50504544004C49AE
:1036A0004E4554524143450054524143494E470010
:1036B0004F42535441434C45004147562C25732CEF
:1036C00025642C25642C25642C25642C25642C254C
:0C36D0006400534554535045454400002D
:107E0000112484B714BE81FFF0D085E080938100F7
:107E100082E08093C00088E18093C10086E0809377
:107E2000C20080E18093C4008EE0C9D0259A86E02C
:107E300020E33CEF91E0309385002093840096BBD3
:107E4000B09BFECF1D9AA8958150A9F7CC24DD24C4
:107E500088248394B5E0AB2EA1E19A2EF3E0BF2EE7
:107E6000A2D0813461F49FD0082FAFD0023811F036
:107E7000013811F484E001C083E08DD089C08234E0
:107E800011F484E103C0853419F485E0A6D080C0E4
:107E9000853579F488D0E82EFF2485D0082F10E0AE
:107EA000102F00270E291F29000F111F8ED06801E7
:107EB0006FC0863521F484E090D080E0DECF843638
:107EC00009F040C070D06FD0082F6DD080E0C81688
:107ED00080E7D80618F4F601B7BEE895C0E0D1E017
:107EE00062D089930C17E1F7F0E0CF16F0E7DF06D8
:107EF00018F0F601B7BEE89568D007B600FCFDCFD4
:107F0000A601A0E0B1E02C9130E011968C91119780
:107F100090E0982F8827822B932B1296FA010C0160
:107F200087BEE89511244E5F5F4FF1E0A038BF0790
:107F300051F7F601A7BEE89507B600FCFDCF97BE46
:107F4000E89526C08437B1F42ED02DD0F82E2BD052
:107F50003CD0F601EF2C8F010F5F1F4F84911BD097
:107F6000EA94F801C1F70894C11CD11CFA94CF0C13
:107F7000D11C0EC0853739F428D08EE10CD085E9AC
:107F80000AD08FE07ACF813511F488E018D01DD067
:107F900080E101D065CF982F8091C00085FFFCCF94
:107FA0009093C60008958091C00087FFFCCF809118
:107FB000C00084FD01C0A8958091C6000895E0E648
:107FC000F0E098E1908380830895EDDF803219F02E
:107FD00088E0F5DFFFCF84E1DECF1F93182FE3DFCA
:107FE0001150E9F7F2DF1F91089580E0E8DFEE27F6
:047FF000FF270994CA
:027FFE00040479
:00000001FF
