:020000040000FA
:100000000C9463000C945B1D0C94341D0C948B00B9
:100010000C948B000C948B000C948B000C948B0034
:100020000C948B000C948B000C948B000C94F91E98
:100030000C948B000C948B000C948B000C948B0014
:100040000C94EA1C0C948B000C94A81D0C94821D3B
:100050000C948B000C948B000C948B000C948B00F4
:100060000C94DA1D0C948B00000000002400270083
:100070002A0000000000250028002B0000000000DE
:1000800023002600290004040404040404040202DA
:100090000202020203030303030301020408102007
:1000A0004080010204081020010204081020000012
:1000B0000008000201000003040700000000000027
:1000C00000005D1FEC2B11241FBECFEFD8E0DEBF78
:1000D000CDBF13E0A0E0B1E0EEE5F2E602C005908E
:1000E0000D92AE3BB107D9F727E0AEEBB3E001C00C
:1000F0001D92A138B207E1F710E0C2E6D0E004C0DB
:100100002197FE010E94162FC136D107C9F70E9420
:100110004A200C9422310C940000CF93DF9300D03E
:1001200000D0CDB7DEB719821A821B821C8289816A
:100130009A81AB81BC818A3F9105A105B10568F424
:10014000000089819A81AB81BC810196A11DB11DFE
:1001500089839A83AB83BC83EACF80E00F900F90B2
:100160000F900F90DF91CF9108954F925F926F9211
:100170007F928F929F92AF92BF92CF92DF92EF9237
:10018000FF920F931F93CF93F9010FEF1FEF980189
:1001900000831183228333834A015B01B3E0B69469
:1001A000A79497948794BA95D1F76A017B0127E0C9
:1001B000C222DD24EE24FF2495018401C0E0063034
:1001C00011052105310508F041C0C1113FC0DC0116
:1001D000A00FB11F6C91412C512C32018016910659
:1001E000A206B30649F470E00C2C02C07595679521
:1001F0000A94E2F726013701462F50E060FF17C04E
:10020000B901A801A3E0440F551F661F771FAA95E7
:10021000D1F7440E551E661E771E408251826282BF
:100220007382C1E00F5F1F4F2F4F3F4FC8CFBA01FE
:10023000759567954FEF441A540A640A740A48E0AA
:100240004416510461047104B9F6ECCFCF911F91AB
:100250000F91FF90EF90DF90CF90BF90AF909F9065
:100260008F907F906F905F904F9008958230C8F488
:10027000E82FF0E0EE0FFF1FED5FFD4F718360830D
:10028000813041F0809169008C7F826080936900A9
:10029000E89A089580916900837F8860809369005F
:1002A000E99A0895833081F028F4813099F0823002
:1002B000A9F008958730A9F08830C9F08430B1F4EE
:1002C000809180008F7D03C0809180008F77809324
:1002D0008000089584B58F7784BD089584B58F7D9F
:1002E000FBCF8091B0008F778093B000089580910C
:1002F000B0008F7DF9CFCF93DF93282F30E0F90145
:10030000E255FF4F8491F901E656FF4FD491F90170
:10031000EA57FF4FC491CC23A1F081110E945201F2
:10032000EC2FF0E0EE0FFF1FE458FF4FA591B491C2
:10033000EC91ED2381E090E009F480E0DF91CF9132
:10034000089580E090E0FACF1F93CF93DF93282F9A
:1003500030E0F901E255FF4F8491F901E656FF4F75
:10036000D491F901EA57FF4FC491CC23A9F0162F7D
:1003700081110E945201EC2FF0E0EE0FFF1FEE58AA
:10038000FF4FA591B4918FB7F894EC91111108C06B
:10039000D095DE23DC938FBFDF91CF911F9108951D
:1003A000DE2BF8CFCF93DF9390E0FC01E656FF4FB2
:1003B00024918A579F4FFC0184918823D1F090E0CB
:1003C000880F991FFC01E859FF4FA591B491FC01DA
:1003D000EE58FF4FC591D491623071F49FB7F894F5
:1003E0003C91822F809583238C93E8812E2B288348
:1003F0009FBFDF91CF9108958FB7F894EC912E2B8A
:100400002C938FBFF6CF1F93CF93DF93182FEB0161
:1004100061E00E94D201209739F460E0812FDF91E2
:10042000CF911F910C94A401CF3FD10511F461E04D
:10043000F5CFE12FF0E0E255FF4FE491E33031F1E9
:1004400040F4E130B1F0E230E1F0C038D1057CF7A2
:10045000E4CFE73029F1E83059F1E430B1F7809189
:100460008000806280938000D0938B00C0938A00CC
:1004700004C084B5806884BDC7BDDF91CF911F9152
:10048000089584B5806284BDC8BDF7CF8091800097
:10049000806880938000D0938900C0938800EDCF5E
:1004A0008091B00080688093B000C093B300E5CF26
:1004B0008091B00080628093B000C093B400DDCF23
:1004C0003FB7F8948091C3049091C404A091C504EF
:1004D000B091C60426B5A89B05C02F3F19F0019620
:1004E000A11DB11D3FBFBA2FA92F982F8827BC018E
:1004F000CD01620F711D811D911D42E0660F771FB6
:10050000881F991F4A95D1F7089508950895089571
:100510000895AF92BF92CF92DF92EF92FF920F9326
:100520001F93CF93DF936C017B018B01040F151F89
:10053000EB015E01AE18BF08C017D10759F06991F1
:10054000D601ED91FC910190F081E02DC601099555
:10055000892B79F7C501DF91CF911F910F91FF9002
:10056000EF90DF90CF90BF90AF900895FC01538D36
:10057000448D252F30E0842F90E0821B930B54177D
:1005800010F0CF96089501970895FC01918D828D0A
:10059000981761F0A28DAE0FBF2FB11D5D968C91A3
:1005A000928D9F5F9F73928F90E008958FEF9FEFE2
:1005B00008952FB7F8948091C7049091C804A09132
:1005C000C904B091CA042FBF8093D3049093D4047C
:1005D000A093D504B093D6048BEC94E00E94C5029E
:1005E00097FF26C02FB7F8948091C7049091C80454
:1005F000A091C904B091CA042FBF4091D304509177
:10060000D4046091D5047091D604841B950BA60B7D
:10061000B70B4091CF045091D0046091D1047091F8
:10062000D20484179507A607B707B0F28FEF9FEFA4
:100630000895FC01918D828D981731F0828DE80F1D
:10064000F11D858D90E008958FEF9FEF0895FC01D7
:10065000918D228D892F90E0805C9F4F821B9109A4
:100660008F73992708958BEC94E00E94270321E073
:10067000892B09F420E0822F089580E090E0892BF7
:1006800029F00E94330381110C9400000895FC01AD
:10069000A48DA80FB92FB11DA35ABF4F2C91848DE3
:1006A00090E001968F739927848FA689B7892C9340
:1006B000A089B1898C91837080648C93938D848D93
:1006C000981306C00288F389E02D80818F7D808396
:1006D0000895EF92FF920F931F93CF93DF93EC0156
:1006E00081E0888F9B8D8C8D98131AC0E889F989D9
:1006F000808185FF15C09FB7F894EE89FF896083DC
:10070000E889F98980818370806480839FBF81E05C
:1007100090E0DF91CF911F910F91FF90EF9008959E
:10072000F62E0B8D10E00F5F1F4F0F731127E02E79
:100730008C8D8E110CC00FB607FCFACFE889F989B1
:10074000808185FFF5CFCE010E944703F1CFEB8D6D
:10075000EC0FFD2FF11DE35AFF4FF0829FB7F89485
:100760000B8FEA89FB8980818062CFCF682F8BEC69
:1007700094E00C946903CF93DF93EC01888D882378
:10078000B9F0AA89BB89E889F9898C9185FD03C0F4
:10079000808186FD0DC00FB607FCF7CF8C9185FFD9
:1007A000F2CF808185FFEDCFCE010E944703E9CFD4
:1007B000DF91CF91089520914B04260F3327331FEB
:1007C00021323105ECF420916F04FC0190E080E0CF
:1007D000243069F082E00895A0914B042191AC018E
:1007E000455D5B4FA40FB52FB11D2C930196861765
:1007F00098F380914B04680F60934B0480E0089558
:1008000081E0089510926F0481E08093710410924A
:10081000700461E082E10E94A40161E083E10E9432
:10082000A401E9EBF0E080818E7F808380818D7F61
:10083000808388E48093B80085E48093BC000895A9
:10084000CF93DF9391E090932A048823B9F0C0916D
:10085000B800D091BA008091BC008A7B8093BC0024
:1008600060E082E10E94A40160E083E10E94A401B3
:100870000E940204D093BA00C093B800DF91CF91D8
:1008800008950895E0919C0480919B04E81730F44A
:10089000F0E0EB5FFB4F808190E008958FEF9FEFDA
:1008A000089590919C0480919B042FEF3FEF98173F
:1008B00048F4E92FF0E0EB5FFB4F208130E09F5FD1
:1008C00090939C04C901089580919B0490919C048D
:1008D000891B990B0895CF92DF92EF92FF920F93AD
:1008E0001F93CF93DF937C01CB018A0120910404F5
:1008F000222389F0EB016B01C40ED51ECC15DD055A
:1009000069F06991D701ED91FC910190F081E02DA2
:10091000C7010995F3CF642F0E94DB03C801DF9163
:10092000CF911F910F91FF90EF90DF90CF9008959E
:10093000CF93DF931F92CDB7DEB769832091040474
:100940002223F9F020919904203258F021E030E080
:10095000FC013383228390E080E00F90DF91CF9100
:10096000089580919A04E82FF0E0EC51FC4F9981B2
:1009700090838F5F80939A048093990481E090E044
:10098000ECCF61E0CE0101960E94DB03F7CFCF925E
:10099000DF92EF92FF920F931F93CF93DF93D0914B
:1009A000990481E0D13208F09CC0C091E3030E9419
:1009B00060026B017C0180916F0481116CC082E048
:1009C00080936F0481E0809371048FEF80936E04B5
:1009D00010929304D0939204A4EEB3E0E2E7F4E023
:1009E00080E0D8138DC01092940480919404CC0FB1
:1009F000C82BC093940480917004813009F084C0A6
:100A0000109270040E9460026B017C01809194043A
:100A10008093BB008091260490912704A091280424
:100A2000B0912904892B8A2B8B2BA1F00E946002A4
:100A30000091260410912704209128043091290464
:100A40006C197D098E099F090617170728073907B2
:100A500008F442C08091BC0083FDD8CF85EC809320
:100A6000BC000E9460026B017C0180916F048230A7
:100A700009F44CC080916E048F3F09F469C08091E5
:100A80006E04803209F466C080916E04803309F4EC
:100A900063C084E026C08091260490912704A09131
:100AA0002804B0912904892B8A2B8B2B09F483CF3E
:100AB0000E946002009126041091270420912804CE
:100AC000309129046C197D098E099F0906171707B3
:100AD0002807390708F06FCF809125040E94200471
:100AE00085E010929A041092990410920404DF9108
:100AF000CF911F910F91FF90EF90DF90CF900895CD
:100B00009D9191938F5F6DCF85EEA9CF8091260443
:100B100090912704A0912804B0912904892B8A2B55
:100B20008B2B09F4A2CF0E94600200912604109141
:100B3000270420912804309129046C197D098E091D
:100B40009F09061717072807390708F08ECFC4CF6B
:100B500080E0C7CF82E0C5CF83E0C3CF90E080E0E4
:100B600008958F929F92AF92BF92CF92DF92EF92B1
:100B7000FF920F931F93CF93DF936A014801E70120
:100B800091E0909304048093E30310929A041092EE
:100B90009904E881F9810190F081E02DC701099560
:100BA0008C0C9D1CC814D90459F0E881F98101907E
:100BB000F081E02DD6016D916D01CE010995F2CF46
:100BC000CE010E94C70490E080E0DF91CF911F9199
:100BD0000F91FF90EF90DF90CF90BF90AF909F90DC
:100BE0008F900895EF92FF920F931F93CF93DF930F
:100BF00000D0CDB7DEB7FC01EF5BFE4F70813496BD
:100C0000E080F1804A83598302E010E020E030E088
:100C1000AE014F5F5F4F872F0E94B105892B51F0C6
:100C20008CEE0F900F90DF91CF911F910F91FF905D
:100C3000EF90089580E0F5CFEF92FF920F931F930E
:100C4000CF93DF931F92CDB7DEB7FC01EF5BFE4F72
:100C500070813496E080F180498301E010E020E06B
:100C600030E0AE014F5F5F4F872F0E94B105892BA7
:100C700049F08CEE0F90DF91CF911F910F91FF9073
:100C8000EF90089580E0F6CFEF92FF920F931F93BD
:100C9000AB01FC01EB5BFE4FE080F1808F5B9E4F70
:100CA00006E010E020E030E060EBFC0180810E9473
:100CB000B105892B31F08CEE1F910F91FF90EF90D1
:100CC000089580E0F9CFEBE3F7E081859285A38575
:100CD000B4850196A11DB11D81879287A387B48732
:100CE0000895ECE5F7E081859285A385B4850196AA
:100CF000A11DB11D81879287A387B48708958F9224
:100D00009F92AF92BF92CF92DF92EF92FF920F939A
:100D10001F93CF93DF93EC012D853E854F85588936
:100D200069897A898B899C890E94D32D6B017C010A
:100D30000B8D1C8D20E030E0A9010E94E82E1816D2
:100D40000CF047C0B801110F880B990B0E94402C82
:100D50004B015C012D8D3E8D4F8D58A1C701B60111
:100D60000E949F2C6B017C0120E030E040EA50E4BF
:100D70000E94E82E181634F4C12CD12C80EAE82EFB
:100D800080E4F82EA7019601C501B4010E94D42D7C
:100D90000E94B22E7C8F6B8F8B8D9C8D8F3F910527
:100DA00029F024F08FEF90E09C8F8B8F8B8D9C8DA2
:100DB00097FF02C01C8E1B8EDF91CF911F910F9168
:100DC000FF90EF90DF90CF90BF90AF909F908F906B
:100DD000089520E030E0A901C701B6010E94392C36
:100DE00087FFDACFB801110F880B990B0E94402CB6
:100DF0004B015C012D8D3E8D4F8D58A1C701B60171
:100E00000E949F2C6B017C0120E030E040EA50EC16
:100E10000E94392CA7019601505887FF04C020E09A
:100E200030E040EA50E4C501B4010E94D32DB0CFB8
:100E3000CF93DF93EC01198A1A8A1B8A1C8A1E8AB7
:100E40001D8A70E060E088810E94030270E060E02B
:100E500089810E9403021A8E198E1C8E1B8EDF91CF
:100E6000CF9108950F931F93CF93DF938C01EB01E4
:100E7000FC0180811C161D0694F070E060E0209754
:100E800071F00E940302662777276C1B7D0BF80127
:100E90008181DF91CF911F910F910C9403020E94E9
:100EA000030270E060E0F3CFCF92DF92EF92FF9207
:100EB0000F931F93CF93DF93FC01C589D689C78811
:100EC000D08C018D128DCC15DD05B1F5238D348DBF
:100ED000201B310B12161306ECF42B30310514F0E5
:100EE0002AE030E0200F311F328F218F818D928DCB
:100EF000C89FB001C99F700DD89F700D1124CF01FC
:100F0000DF91CF911F910F91FF90EF90DF90CF90E5
:100F10000C9432072115310549F3263F8FEF38072E
:100F200044F0319521953109021B130B128F018F6B
:100F3000DDCF2AE030E0F8CF7C0120E030E040EA6D
:100F400050E465857685878590890E94392C87FFD6
:100F50000CC00A3011054CF4C09FB001C19F700D48
:100F6000D09F700D1124C701CBCF0B301105B4F009
:100F70000A501109F701128F018F818D928D97FF11
:100F800002C0128E118EF701818D928DC89EB00124
:100F9000C99E700DD89E700D1124E5CF0150110926
:100FA000E9CFCF93DF93EC0161E088810E94D20109
:100FB00061E089810E94D20162E08A81DF91CF9154
:100FC0000C94D2014F925F926F927F928F929F9278
:100FD000AF92BF92CF92DF92EF92FF920F931F9347
:100FE000CF93DF93D82F6A01480181E080930404F6
:100FF000D093E30310929A0410929904D701ED91D3
:10100000FC910190F081E02DC7010995C7010E9474
:10101000C7040E9460022B013C0180916F04811182
:1010200066C0C82D81E080936F04809371049FEFA8
:1010300090936E0410929304980D90939204809371
:10104000940480919404DD0FD82BD0939404809164
:101050007004813009F086C0109270040E94600212
:101060002B013C01809194048093BB008091260465
:1010700090912704A0912804B0912904892B8A2BF0
:101080008B2BA1F00E94600200912604109127048E
:10109000209128043091290464197509860997095B
:1010A000061717072807390708F442C08091BC00CB
:1010B00083FDD8CF85EC8093BC000E9460022B0199
:1010C0003C0180916F04813009F44EC080919304FB
:1010D0008C1710F4C0919304E2E7F4E0A5E0B4E0CB
:1010E00080E08C1751F191919D938F5FFACF8091A1
:1010F000260490912704A0912804B0912904892BFB
:101100008A2B8B2B09F489CF0E9460020091260460
:10111000109127042091280430912904641975093D
:1011200086099709061717072807390708F075CFAA
:10113000809125040E942004C0E010929C04C0937A
:101140009B048C0C9D1CC814D90481F1D701ED912E
:10115000FC910284F385E02DC7010995F601819386
:101160006F01F1CF85EEA7CF8091260490912704DF
:10117000A0912804B0912904892B8A2B8B2B09F488
:10118000A0CF0E94600200912604109127042091B4
:1011900028043091290464197509860997090617EE
:1011A00017072807390708F08CCFC2CF90E080E0FE
:1011B000DF91CF911F910F91FF90EF90DF90CF9033
:1011C000BF90AF909F908F907F906F905F904F9067
:1011D00008952F923F924F925F926F927F928F92DB
:1011E0009F92AF92BF92CF92DF92EF92FF920F93B6
:1011F0001F93CF93DF93CDB7DEB72F970FB6F89439
:10120000DEBF0FBECDBF9C878B876D875F874E8704
:101210003901170128012F82388649865A8610E045
:1012200000E0EE24E394F12C0A151B0509F461C0DB
:101230009E01295F3F4FB201A1018E859F850E94CB
:10124000B5004F81588569857A854F3F2FEF52074A
:101250006207720709F49CC0DB01CA018C549F4FDE
:10126000AF4FBF4FE6E0B695A79597958795EA955E
:10127000D1F7880F991F880F991F835F9D4F21E039
:10128000FC0180819181A281B381892B8A2B8B2BD8
:1012900009F420E0FD85F2137BC01A012B0133E035
:1012A00056944794379427943A95D1F7DB01CA01B5
:1012B00087709927AA27BB2726E02216310441040C
:1012C000510468F4F301E20DF31D970102C0220FEF
:1012D000331F8A95E2F7C9019081892B80831A0117
:1012E0002B013FEF231A330A430A530A0F5F1F4FA4
:1012F0009BCFB12CF4012082318242825382B11003
:101300002DC0B3018B859C850E944406B82E8111A7
:1013100025C0EB85FC85EB5BFE4FE080F180EB8523
:10132000FC85EF5BFE4F06E010E020E030E0AE0110
:101330004F5F5F4F60EB80810E94E207892B11F0C5
:101340009CEEB92EF301DE011196C3010696319190
:101350002D91321320C0E817F907C9F78B2D2F966E
:101360000FB6F894DEBF0FBECDBFDF91CF911F91B6
:101370000F91FF90EF90DF90CF90BF90AF909F9034
:101380008F907F906F905F904F903F902F90089537
:101390002EECB22EAFCF8EECB82EE0CFCF92DF92F4
:1013A000EF92FF920F931F93CF93DF9300D000D063
:1013B000CDB7DEB76A01FC01EB5BFE4FE080F18048
:1013C0008F5B9E4F04E010E020E030E0AE014F5F05
:1013D0005F4FFC0180810E94E20749815A815427B6
:1013E0004527542770E060E0762F652F542F44275F
:1013F0002B81422B762F652F542F44272C81422B93
:10140000F6014083518362837383892B71F480E0FA
:101410000F900F900F900F90DF91CF911F910F9130
:10142000FF90EF90DF90CF9008958CEEF1CFCF92A8
:10143000DF92EF92FF920F931F93CF93DF9300D031
:10144000CDB7DEB76A01FC01EB5BFE4FE080F180B7
:101450008F5B9E4F02E010E020E030E0AE014F5F76
:101460005F4FFC0180810E94E20729813A81322787
:1014700023273227F60131832083892B61F480E012
:101480000F900F90DF91CF911F910F91FF90EF90F0
:10149000DF90CF9008958CEEF3CFEF92FF920F93F1
:1014A0001F93CF93DF9300D0CDB7DEB78C017A01C5
:1014B0006330710509F449C090F46130710509F198
:1014C00062307105E1F1F80181A992A9A3A9B4A93B
:1014D000F70180839183A283B38380E049C06630A3
:1014E000710588F7AE014F5F5F4F64E60E94170AEF
:1014F00081113EC0298180E0922F990FB0E0A0E0D9
:10150000E7CFAE014F5F5F4F64E40E94170A81117D
:101510002FC0998120E0392F330FA90170E060E0DE
:10152000232BD1F0F7014083518362837383F80149
:1015300045AB56AB67AB70AF91E096A319C0FC0109
:1015400081AD92ADA3ADB4ADC3CFFC01FD9680815A
:101550009181A281B381BCCFF80145A956A967A9A1
:1015600070ADF7014083518362837383F80116A243
:101570000F900F90DF91CF911F910F91FF90EF90FF
:1015800008958F929F92AF92BF92CF92DF92EF9287
:10159000FF920F931F93CF93DF9300D0CDB7DEB7A9
:1015A000962ED42E822EFC01EF5BFE4FC0805C0194
:1015B0002BEBA21A2EEFB20AF501E080F18001E0D8
:1015C00010E020E030E0AE014E5F5F4F8C2D0E94B6
:1015D000E207892BA9F42A812D2128292A83F501E4
:1015E000E080F180298301E010E020E030E0AE01EE
:1015F0004F5F5F4F692D8C2D0E94B105892B81F0C3
:101600008CEE0F900F90DF91CF911F910F91FF9073
:10161000EF90DF90CF90BF90AF909F908F90089504
:1016200080E0EFCFEF92FF920F931F93FC01EB5BF3
:10163000FE4FE080F1808F5B9E4F01E010E020E0E4
:1016400030E0FC0180810E94E207892B31F08CEEB2
:101650001F910F91FF90EF90089580E0F9CFEF92E6
:10166000FF920F931F93CF93DF931F92CDB7DEB7F7
:101670007C0100E041E06BE0C7010E941C06182FCE
:1016800040E06BE0C7010E941C06182BAE014F5FC3
:101690005F4F63E1C7010E94120B812B0F5F99819D
:1016A000977061F0033061F0882321F30F90DF9190
:1016B000CF911F910F91FF90EF9008950330B1F7F4
:1016C00084EFF4CF9F92AF92BF92CF92DF92EF92CE
:1016D000FF920F931F93CF93DF931F92CDB7DEB787
:1016E0007C015B016A01922E198241E06FEF0E943A
:1016F0001C06182F40E060E0C7010E941C06182B52
:1017000040E06FEFC7010E941C06182B992031F0B2
:10171000A5016BECC7010E94120B182B002341F0AE
:10172000AE014F5F5F4F6EEEC7010E94120B182B88
:1017300041E06FEFC7010E941C06182B41E060E0FA
:10174000C7010E941C06182B40E06FEFC7010E94E2
:101750001C0699819F7EF6019083812B0F90DF916B
:10176000CF911F910F91FF90EF90DF90CF90BF909E
:10177000AF909F9008950F931F93CF93DF931F9285
:10178000CDB7DEB78A01AE014F5F5F4F613081F0A8
:1017900060E50E94120B811105C099819F5F990F2E
:1017A000F80190830F90DF91CF911F910F910895D1
:1017B00060E7EFCFCF92DF92EF92FF921F93CF932C
:1017C000DF931F92CDB7DEB77C0140E063E80E9453
:1017D0001C06182F811117C0D12CC12CAE014F5FF0
:1017E0005F4F63E8C7010E94120B182F8981811196
:1017F0000AC0111108C08FEFC81AD80A88ECC816A1
:10180000D10461F719EF41E063E8C7010E941C06AB
:10181000812B0F90DF91CF911F91FF90EF90DF9080
:10182000CF900895CF92DF92EF92FF920F931F9384
:10183000CF93DF931F92CDB7DEB77C0110E000E0BD
:101840006C018EECC80ED11CF6018081AE014F5F99
:101850005F4F8430A9F463E1C7010E94120B9981A4
:10186000292F2770987111F58823D9F00F90DF91F7
:10187000CF911F910F91FF90EF90DF90CF9008953F
:1018800064E1C7010E94120B8111F0CF998190FD94
:10189000EDCF0F5F1F4F083C110531F00E948D0006
:1018A000D3CF2430B1F7E2CF89EFE0CF8AEFDECF9C
:1018B000CF93DF93EC01462F416060E00E941C064D
:1018C000811111C0CE010E94120C81110CC0CE01F9
:1018D0000E942F0B811107C040E060E0CE01DF9134
:1018E000CF910C941C06DF91CF9108950F931F9315
:1018F000CF93DF931F92CDB7DEB78B011982AE0174
:101900004F5F5F4F61E00E94120B811116C09981F9
:1019100094FB332730F9F801308393FB332730F9F8
:10192000328392FB332730F9318396FB222720F94B
:101930002383991F9927991F94830F90DF91CF914B
:101940001F910F9108952F923F924F925F926F9245
:101950007F928F929F92AF92BF92CF92DF92EF923F
:10196000FF921F93CF93DF93CDB7DEB72B970FB6C0
:10197000F894DEBF0FBECDBF6C011A011B861F821B
:101980001E82623009F06EC0AE01465F5F4F60E0BC
:101990000E94BB0B182F811108C0AE01455F5F4F3D
:1019A00066E4C6010E94120B182FAA85B0E020E061
:1019B0003FE24AE350E00E94602D2B013C0124EFFE
:1019C000420E21E0521E611C711CCB84D12CF12CE3
:1019D000E12C8FEFC81AD80AE80AF80A98EE892E87
:1019E00093E0992EA12CB12CC301B201A501940161
:1019F0000E94A22DCA01B901A70196010E94F22EF0
:101A00006B017C01C301B20120ED37E040E050E002
:101A10000E94A22DC701B601620F731F841F951F7C
:101A2000A50194010E94A22DF101208331834283FC
:101A30005383812F2B960FB6F894DEBF0FBECDBF18
:101A4000DF91CF911F91FF90EF90DF90CF90BF90EB
:101A5000AF909F908F907F906F905F904F903F904E
:101A60002F900895633009F043C0AE01465F5F4F89
:101A700060E00E94BB0B182F20E030E0A90181112B
:101A8000D3CFAE01465F5F4F60E0C6010E94BB0B43
:101A9000182F811108C0AE014A5F5F4F61E5C60192
:101AA0000E94170A182FEE81FF81AA85B0E020E07E
:101AB0003FE24AE350E00E94602D2B013C0124EFFD
:101AC000420E21E0521E611C711C6F01DD24F12CBD
:101AD000E12C04C0CC0CDD1CEE1CFF1CFA95D2F7E7
:101AE0008FEFC81AD80AE80AF80AEE24FF2476CF46
:101AF000BE016F5F7F4F0E94760C8C81882351F16D
:101B0000AE01465F5F4F60E0C6010E94BB0B182F1D
:101B1000F12CE12C81111BC0AE014A5F5F4F61E5E2
:101B2000C6010E94170A182F2E813F81C9019927EB
:101B3000B0E0A0E004C0880F991FAA1FBB1F3A9510
:101B4000D2F70196A11DB11D7C01112329F0D12CE2
:101B5000C12C25C0F12CE12CAE01465F5F4F61E046
:101B6000C6010E94BB0B182F8111F1CFAE01485F57
:101B70005F4F61E7C6010E94170A182F2885398533
:101B8000C9019927B0E0A0E004C0880F991FAA1FDF
:101B9000BB1F3A95D2F70196A11DB11D6C01AA8514
:101BA000B0E020E03FE24AE350E00E94602D2B01CC
:101BB0003C01E4EF4E0EE1E05E1E611C711C88EEFC
:101BC000882E83E0982EA12CB12CC301B201A5016F
:101BD00094010E94A22DD601AE19BF090E94602D6A
:101BE0000FCF4F925F926F927F92BF92CF92DF9210
:101BF000EF92FF920F931F93CF93DF9300D000D00B
:101C0000CDB7DEB78A01AE014F5F5F4F0E94A30CD4
:101C1000B82E81112AC069817A818B819C8128EE3E
:101C2000422E23E0522E612C712CA30192010E94BE
:101C3000A22D69017A019B01AC01AFEFBFEF0E94B9
:101C4000602D6C507E4F8F4F9F4FA30192010E94D9
:101C5000A22D7601DD24CC24C20ED31EE41EF51E77
:101C6000F801C082D182E282F3828B2D0F900F9017
:101C70000F900F90DF91CF911F910F91FF90EF90F8
:101C8000DF90CF90BF907F906F905F904F900895BE
:101C90005F926F927F928F929F92AF92BF92CF92FC
:101CA000DF92EF92FF920F931F93CF93DF93CDB705
:101CB000DEB761970FB6F894DEBF0FBECDBF7C01D3
:101CC0008B01FC018089FB018083AE014A5F5F4F7D
:101CD00068EFC7010E94170A582E81113AC1AE0160
:101CE0004F5F5F4F64E0C7010E94CE09582E8111FB
:101CF00030C12E813F812115310569F050E040E06F
:101D000069817A818B819C810E94A22DF8012683B2
:101D1000378340875187F80186819781A085B185F7
:101D2000F701868B978BA08FB18FF8011286AE01D9
:101D30004F5F5F4F60E2C7010E94170A582E811162
:101D400008C189819A81009709F01AC1F701858D30
:101D5000968DA78DB0A1F80185879687A787B08B50
:101D6000F701128EAE014F5F5F4F68E2C7010E941C
:101D7000170A582E8111EDC089819A819F708115B3
:101D8000F8E09F0708F090514AEF489F9001499F63
:101D9000300D1124C901330FAA0BBB0BF801818B45
:101DA000928BA38BB48B5801F1E2AF0EB11C4701AB
:101DB00025E2820E911C380185E1680E711CD12C40
:101DC000C12CA501B601C7010E944D0A582E8111F0
:101DD000C0C0F40181914F01F30181933F01FFEFF6
:101DE000CF1ADF0A24E0A20EB11C86E0C816D10487
:101DF00041F7AE014F5F5F4F61E0C7010E94120BD8
:101E0000582E8111A6C08981F701E35EFE4F8083C1
:101E100087FFCAC081E0F80181AFF80181ADF70109
:101E2000E75BFF4F808380ED97E0A0E0B0E08A871A
:101E30009B87AC87BD871E821F821886198686E322
:101E40009BE0A0E0B0E0F80182839383A483B58394
:101E5000BE016F5F7F4FC7010E94760C582E811123
:101E600078C08981811107C08A81811104C08B816A
:101E7000882309F43EC0AE01465F5F4F62E0C701B0
:101E80000E94A30C8111C1C089818823A9F08A8591
:101E90009B85AC85BD85825B9D4FAF4FBF4FF801E1
:101EA0004281538164817581840F951FA61FB71FDE
:101EB00082839383A483B5838B81882309F477C0BD
:101EC0008A859B85AC85BD858E549D4FAF4FBF4F96
:101ED000880F991FAA1FBB1FF8014281538164819B
:101EE0007581840F951FA61FB71F82839383A483D8
:101EF000B5838C81811168C08D81882301F1AE0189
:101F0000425F5F4F64E0C7010E94A30C8E849F84F0
:101F1000A888B988F6E28F0EF2E09F1EA11CB11CC2
:101F2000F8014281538164817581480D591D6A1DF4
:101F30007B1D4283538364837583811166C0F801DE
:101F400082819381A481B581F701828B938BA48BCD
:101F5000B58B852D61960FB6F894DEBF0FBECDBF51
:101F6000DF91CF911F910F91FF90EF90DF90CF9075
:101F7000BF90AF909F908F907F906F905F900895EB
:101F800033E0880F991F3A95E1F7B0E0A0E0F8013F
:101F900085879687A787B08BF701858F968FA78F48
:101FA000B0A381E0828FDECEF80111AE36CF8A81F8
:101FB000882309F49ECF8A859B85AC85BD858C5688
:101FC0009D4FAF4FBF4F88CFAE014A5F5F4F63E079
:101FD000C7010E94A30C8E809F80A884B984F4E975
:101FE0008F0EF2E09F1EA11CB11CF80142815381AB
:101FF00064817581480D591D6A1D7B1D4283538381
:1020000064837583882309F477CF582EA2CF2F924B
:102010003F924F925F926F927F928F929F92AF9278
:10202000BF92CF92DF92EF92FF920F931F93CF93C5
:10203000DF93CDB7DEB769970FB6F894DEBF0FBE5A
:10204000CDBF00ED17E020E030E00B871C872D8727
:102050003E871F86188A198A1A8A40322EE4520750
:1020600061057105E0F45CEFB52E8B2D69960FB616
:10207000F894DEBF0FBECDBFDF91CF911F910F91BE
:10208000FF90EF90DF90CF90BF90AF909F908F9098
:102090007F906F905F904F903F902F9008954E8B60
:1020A0005F8B688F798F8C01BE016A5F7F4F0E94C2
:1020B000760CB82E8111D9CFCE88DF88E88CF98CC8
:1020C00088EEC81A88E0D80AE108F1088E818111EB
:1020D00006C08F81811103C088858823C1F1AE01BC
:1020E000455F5F4F62E0C8010E94A30C81110AC1E5
:1020F0008E81882391F08B859C85AD85BE85825B22
:102100009D4FAF4FBF4F8C159D05AE05BF0508F025
:10211000AACFC81AD90AEA0AFB0A8885882309F4D3
:1021200071C08B859C85AD85BE858E549D4FAF4F0C
:10213000BF4F880F991FAA1FBB1F8C159D05AE05A9
:10214000BF0508F090CFC81AD90AEA0AFB0A8985A8
:102150008823D9F0AE01415F5F4F63E0C8010E9460
:10216000A30C4F85588969897A894C565D4F6F4F0A
:102170007F4F4C155D056E057F0508F074CF81110A
:10218000C1C0C41AD50AE60AF70A8A85882309F469
:102190006CCFBE016F5F7F4FC8010E94760C8C81AF
:1021A0008823E9F1AE014B5E5F4F60E0C8010E94F9
:1021B000BB0BB82E81111CC0AE014D5E5F4F61E5B7
:1021C000C8010E94170AB82E8B899C891C013324F0
:1021D000512C412C04C0220C331C441C551C9A95D4
:1021E000D2F79FEF291A390A490A590ABB20C9F0C8
:1021F0008E899F89A88DB98DF801828B938BA48BD2
:10220000B58B33CF8F81882309F4A1CF8B859C8533
:10221000AD85BE858C569D4FAF4FBF4F8ECF312CB5
:10222000212CAE014B5E5F4F61E0C8010E94BB0BE9
:10223000B82E8111DDCFA6E2CA1AA2E0DA0AE108BF
:10224000F108AD89B0E020E03FE24AE350E00E94AF
:10225000602D4B015C01B4EF8B0EB1E09B1EA11C05
:10226000B11CA8EEB3E0A70196010E94602D2B01DE
:102270003C01C501B40120ED37E040E050E00E9490
:10228000A22D420E531E641E751EC501B40128EE18
:1022900033E040E050E00E94A22DC301B2010E9451
:1022A000A22D220E331E21143104E1F04101B12C84
:1022B000A12CE1E08E1A9108A108B10890E080E01D
:1022C000B501A4014427452B462B472B31F0B6948A
:1022D000A794979487940196F3CF982F88271C0191
:1022E000280C391CA10161E7C8010E94F205B82E33
:1022F00081117ECFF801E153FF4FC082D182E2828B
:10230000F38276CFB82EB1CE7F928F929F92AF920A
:10231000BF92CF92DF92EF92FF920F931F93CF93D2
:10232000DF931F92CDB7DEB77C015B016A01722E8D
:102330004C0183EE881A8EEF980AF40110811982FD
:1023400041E061E0C7010E941C0681114AC060E4BF
:10235000C7010E94580C811144C0F1E07F121AC0DD
:1023600000E021E0AE014F5F5F4FB501C7010E9461
:10237000620B882389F00F90DF91CF911F910F910D
:10238000FF90EF90DF90CF90BF90AF909F908F9095
:102390007F900895F501108242E061E0C7010E943C
:1023A0001C06811124C060E0C7010E94580C8111F5
:1023B0001EC0F1E07F1218C001E020E0A601BE01BE
:1023C0006F5F7F4FC7010E94620B8111D4CF412FF5
:1023D00061E0C7010E941C068111CDCFF40110837A
:1023E000CACFF5011082C7CFF6011082F0CFF601F7
:1023F000F9CF2F923F924F925F926F927F928F927E
:102400009F92AF92BF92CF92DF92EF92FF920F9383
:102410001F93CF93DF93CDB7DEB7EC970FB6F89449
:10242000DEBF0FBECDBF6C015B01DC0150961C927C
:1024300041E060E80E941C0641E06FEFC6010E9487
:102440001C0640E060E0C6010E941C06F601E95D42
:10245000FE4F408161E9C6010E941C0641E060E038
:10246000C6010E941C0640E06FEFC6010E941C06D8
:1024700040E060E8C6010E941C0641E060E0C60141
:102480000E941C06811116C091E09983412C512CA9
:102490003201BFEF4B1A5B0A6B0A7B0A998190FFEE
:1024A0002AC08111B6C2E8EC4E16510461047104D1
:1024B000D1F489EFEC960FB6F894DEBF0FBECDBF16
:1024C000DF91CF911F910F91FF90EF90DF90CF9010
:1024D000BF90AF909F908F907F906F905F904F9044
:1024E0003F902F900895AE014F5F5F4F60E0C601AF
:1024F0000E94120BCECFF8EC4F1651046104710408
:10250000C1F28111D7CFC6010E94120C8111D2CF26
:1025100083E0F601E15EFE4F8083B696E080F180B5
:102520000CE010E020E030E0AE01465E5F4F64E179
:10253000349780810E94E207892B11F08CEEBACF8C
:10254000D50156961C925697F5011082118212827F
:1025500013826CA170E0762F66272DA1620F711D8A
:1025600014961D921D921D921C921797E9A1F0E0FE
:10257000FE2FEE27FF0F2F01712C612C1C964D9220
:102580005D926D927C921F978BA190E0982F882787
:10259000990F8C0130E020E050960D931D932D9300
:1025A0003C9353970C8D10E0102F00272D8D780150
:1025B000E20EF11CFCAEEBAE5596FC92EE925497F7
:1025C0009A8CD601A75CBE4F2D913C9111975B97D9
:1025D0008C90283E03E03007E9F1629FC001639FC1
:1025E000900D729F900D11248C509E4F68EE73E0F9
:1025F0000E94022FD6015D96ED90FD900D911C91E9
:1026000090975A962C91222329F12BAD3CAD2E9D0B
:10261000A0012F9D500D3E9D500D1124452F552793
:10262000E417F50741F460EE7AE8882009F4E3C086
:1026300068EB72E212C09F01DB010E94C42D83018E
:102640007F01E41AF50A01091109A80197010E9406
:10265000A22DB901882009F4CEC0CB0196958795AB
:1026600096958795D50119969C938E9318976295A8
:10267000660F660F607C57966C931FA61EA6892D69
:1026800090E07C0173E0F594E7947A95E1F7FAAE77
:10269000E9AE09AD0F70902E09F4B2C089AD8D700E
:1026A00011E018AB853029F084EF800F843008F0FA
:1026B00018AA41E06FEFC6010E941C06811107C0F5
:1026C000AE01425D5F4F66EBC6010E94170A9EA5F0
:1026D00020E0392F330F790110E000E0E9AAFAAACF
:1026E0000BAB1CAB811105C040E06FEFC6010E942F
:1026F0001C06F601EE5CFE4FE9A8FAA80BA91CA97E
:10270000E082F18202831383811178C1D60195960C
:102710008C909597882009F47FC0F501E484F584B6
:10272000068517855A968C9120E030E0A901882310
:1027300099F0A489B589F601258D368D478D50A174
:102740000E94602D9B01AC0120583F4F4F4F5F4FBF
:10275000232F342F452F55272E0D3F1D401F511F6E
:10276000A8EEB3E00E94602D70588F4F9F4FBC01C0
:1027700088279927F601E65DFE4F672B682B692BAA
:1027800009F041C08EEA97E8AFE8B2E08083918318
:10279000A283B3831EEAE12E17E8F12E0FE812E0C0
:1027A000EDAAFEAA0FAB18AFD5011B961C921E9284
:1027B0001A97AE01465D5F4F70E060E0C6010E946F
:1027C0004D0A4AA55BA56CA57DA54115510561057E
:1027D000710559F0FF24F3940DA91EA92FA938AD56
:1027E000401751076207730708F0F12C8823A9F0FE
:1027F000212C312C07C1F50171876087178A3DCFE5
:1028000001E008AB56CF10821182128213821DAAFA
:102810001EAA1FAA18AEC8CFF12CD60197963C90DD
:10282000332009F4C5C0AE014A5D5F4F62E070E03D
:10283000C6010E944D0A4EA15FA168A579A5411568
:1028400051056105710559F0EE24E39409A91AA90F
:102850002BA93CA9401751076207730708F0E12C28
:10286000212C90E0811132C0D60198962C90222024
:1028700009F4A4C00BAD1CAD0115110509F49AC0F3
:10288000962D852D742D6627980150E040E00E941A
:10289000A22D29013A01AE014F5F5F4F63E070E066
:1028A000C6010E944D0A49815A816B817C81411584
:1028B00051056105710531F091E044165506660633
:1028C000770608F090E0882309F479C0D5011B96BB
:1028D0001C921E921A9780E0811002C0FF24F3948C
:1028E000F60136A1F3A6F4E09F1609F4B0C021E08A
:1028F000311120E0D6019C962C93311002C0EE24B9
:10290000E394F601E5A6211001C091E0D6019E9660
:102910009C93F501808F9601265B3F4F99E1F90169
:10292000DE01119601900D929A95E1F7D501189666
:10293000ED91FC91199757969C9157971A966D9126
:102940007C911B971C96ED90FD900D911C911F970B
:1029500050964D905D906D907C90539754964D910C
:102960005C91559714968D909D90AD90BC90179763
:102970008D829E82AF82B886FA87E9877C876B87D3
:10298000ED86FE860F87188B498A5A8A6B8A7C8A65
:102990005E8B4D8B988F898F89E1FE013196D9012D
:1029A00001900D928A95E1F7C6010E942F0B82CD0E
:1029B000E12C5ACF412C512C32016DCF90E018A957
:1029C0008FEF113009F488CF890D8330F0F026E0C5
:1029D000921639F139E0931621F189AD8D70883066
:1029E000B1F041E0E41699F054E0951639F19130D8
:1029F00001F1F41601F19F2DEF2C68CF212C312C21
:102A0000812CF12C90E0E12C61CF85E065CF83E053
:102A100063CFB8EC4B1651046104710409F04ACD40
:102A200048CD84E081105CCFF60136A121E023A7D8
:102A30005ECF82E0F7CFE92E81E0F4CF82E0811013
:102A40004FCF81E0D6019B968C93E12C82E021E070
:102A500051CFAF92BF92DF92EF92FF920F931F93ED
:102A6000CF93DF93CDB7DEB769970FB6F894DEBF8B
:102A70000FBECDBF8C015B017C0183EEE81A8EEFA7
:102A8000F80AF701D08040EC61E0C8010E941C0602
:102A9000811126C0BE016F5F7F4FC8010E94F911EE
:102AA00081111EC041E06FEFC8010E941C06811118
:102AB00017C0A50166EBC8010E94170A811110C05A
:102AC00040E06FEFC8010E941C06811109C04D2D26
:102AD00061E0C8010E941C06811102C0F701D0828A
:102AE00069960FB6F894DEBF0FBECDBFDF91CF91D0
:102AF0001F910F91FF90EF90DF90BF90AF900895DE
:102B00002F923F924F925F926F927F928F929F92FD
:102B1000AF92BF92CF92DF92EF92FF920F931F93EB
:102B2000CF93DF93CDB7DEB7AC970FB6F894DEBF87
:102B30000FBECDBF1C017FA36EA359A748A71F825C
:102B4000188619861A861B861C861D861E86198A7B
:102B50001A8AFC01E85DFE4F20813181398F288F70
:102B6000AC014F5E5E4F5B8F4A8FDA011C922C01E5
:102B7000BEEE4B1ABEEF5B0AF20110823C01FDEE85
:102B80006F1AFEEF7F0AD3011C92FC01EC5EFE4F30
:102B90001082319610823196108241E06FEF0E94D0
:102BA0001C068B8B81111DC140E06FE4C1010E94A6
:102BB0001C068B8B811115C14CE26EE4C1010E9491
:102BC0001C068B8B81110DC140E06FEFC1010E948B
:102BD0001C068B8B811105C144EB66EBC1010E9481
:102BE0001C068B8B8111FDC040E060E8C1010E9492
:102BF0001C068B8B8111F5C020E0AE014E5E5F4F4D
:102C0000BE016F5E7F4FC1010E9484118B8B8111C9
:102C1000E8C01F82188619861A86F101E95EFE4F08
:102C2000FD8FEC8F9E01295F3F4F4901A3E0AA2E43
:102C3000B12CC12CD12CE12CF12C87012A8D3B8D9C
:102C4000AF0160E0C1010E94E9088B8B8111C9C00E
:102C50004F81588569857A854C8B5D8B6E8B7F8B18
:102C6000BE01615F7F4FC1010E9429158B8B8111CD
:102C7000B8C08F859889688D798D6817790708F0B5
:102C8000D3C0AA8DBB8D1C92F2011082D3011C927D
:102C90003296108231961082319610828C899D89ED
:102CA000AE89BF898C549F4FAF4FBF4FE6E0B695BA
:102CB000A79597958795EA95D1F7880F991F880F63
:102CC000991F835F9D4FFC0180819181A281B38117
:102CD000892B8A2B8B2B91F42C893D894E895F8916
:102CE0002C3231054105510548F42F5F3F4F4F4FBE
:102CF0005F4F2C8B3D8B4E8B5F8BD0CFAE01495FEE
:102D00005F4F4A0173E0A72EB12CC12CD12CEC8867
:102D1000FD880E891F892A8D3B8D4C8D5D8D61E06C
:102D2000C1010E94E908811159C16F8178858985A7
:102D30009A856C8B7D8B8E8B9F8BBE01615F7F4FE5
:102D4000C1010E942915811149C18F859889A88DDB
:102D5000B98D11E063E0462E512C612C712CA8171F
:102D6000B90720F010E0412C512C3201C12CD12C9C
:102D70007601C39460C0D501C4010196A11DB11DA7
:102D80008C8B9D8BAE8BBF8B86E0EAA5FBA5ACA59B
:102D9000B02F01900D928A95E1F74E8C5F8C68A060
:102DA00079A04AA35BA36CA37DA36FC04E8C5F8CFC
:102DB00068A079A0AEA1BFA14D925D926D927C9268
:102DC0001397E8A5F9A51083F101EC5FFE4F81E0B0
:102DD000808332978C918083A8A5B9A58C91319678
:102DE00080838B89AC960FB6F894DEBF0FBECDBF43
:102DF000DF91CF911F910F91FF90EF90DF90CF90D7
:102E0000BF90AF909F908F907F906F905F904F900A
:102E10003F902F900895BEECBB8BE3CFEEECEB8B95
:102E2000E0CFFEECFB8BDDCF10E0412C512C3201CA
:102E3000C12CD12C76018F859889288D398D8217E8
:102E4000930708F0B7CF46E0EA8DFB8D9E012F5F18
:102E50003F4FD90101900D924A95E1F7E88DF98D28
:102E60008E1B9F0BAC0170E060E04AA35BA36CA3D8
:102E70007DA353E0452E512C612C712CB1016F5E66
:102E80007E4F7BA76AA72CA7032F9E01255F3F4F8C
:102E90004C895D896E897F898C8D9D8D0E94B500DE
:102EA0008B849C84AD84BE847FEF87169706A7062B
:102EB000B70609F4B0CFD301C2010196A11DB11D1F
:102EC0008E8F9F8FA8A3B9A3D501C4018C549F4FA7
:102ED000AF4FBF4F36E0B695A795979587953A9532
:102EE000D1F7880F991F880F991F835F9D4F11E0BD
:102EF000FC0180819181A281B381892B8A2B8B2B4C
:102F000009F410E0812F90E0B0E0A0E08C159D0561
:102F1000AE05BF0509F082CFD501C40123E0B69507
:102F2000A795979587952A95D1F7B501A401477084
:102F300055276627772786309105A105B10508F04A
:102F400070CFEA8DFB8DE80FF91F21E030E001C062
:102F5000220F4A95EAF78081822B80836A8D7B8DD0
:102F6000C1010E944406811139C0BE01615F7F4FDB
:102F7000C1010E942915811131C08F859889288D42
:102F8000398DAC01421B530B8217930711F450E0AB
:102F900040E070E060E0A88DB98DA817B90708F08F
:102FA000EACE8AA19BA1ACA1BDA184179507A60773
:102FB000B70708F0FBCEBE016F5F7F4FC1010E94D3
:102FC000440696E0FE013196D101AF5EBE4F0190FE
:102FD0000D929A95E1F7882309F4ECCE8B8B01CF03
:102FE000FC0101900020E9F73197AF01481B590B14
:102FF000BC018BEC94E00C9489028F929F92AF926B
:10300000BF920F931F93CF93DF93CDB7DEB7A197F6
:103010000FB6F894DEBF0FBECDBF19A2423008F440
:103020004AE08E010F5D1F4F842E912CB12CA12CF4
:10303000A50194010E94A22DE62FB901CA01EA3030
:10304000F4F4E05DD801EE938D01232B242B252B86
:1030500079F790E080E0109719F0CD010E94F01709
:10306000A1960FB6F894DEBF0FBECDBFDF91CF9112
:103070001F910F91BF90AF909F908F900895E95C42
:10308000E1CFCF92DF92EF92FF92CF93DF936C016B
:10309000990FEE08FF08F7FE17C08DE20E94B603F5
:1030A000EC0166277727CB016C197D098E099F09F2
:1030B0004AE00E94FD178C0F9D1FDF91CF91FF907A
:1030C000EF90DF90CF9008954AE0C701B601DF91FD
:1030D000CF91FF90EF90DF90CF900C94FD174F921F
:1030E0005F926F927F928F929F92AF92BF92CF9298
:1030F000DF92EF92FF920F931F93CF936B017C01AE
:10310000742EAC019B010E94ED2E882399F081E47E
:1031100092E0CF911F910F91FF90EF90DF90CF90B1
:10312000BF90AF909F908F907F906F905F904F90E7
:103130000C94F01746015701E894B7F82FEF3FEFD2
:103140004FE75FE7C501B4010E94ED2E81110DC06C
:103150002FEF3FEF4FE75FE7C501B4010E94392C25
:1031600018161CF485E492E0D4CF2FEF3FEF4FE721
:103170005FE4C701B6010E94E82E18161CF489E42A
:1031800092E0C7CF2FEF3FEF4FE75FECC701B601EB
:103190000E94392C87FDF3CF20E030E0A901C70160
:1031A000B6010E94392C10E000E087FF08C08DE2D4
:1031B0000E94B6038C01F7FAF094F7F8F094C0E09F
:1031C00060E070E080E09FE37C1641F020E030E0BA
:1031D00040E251E40E94402ECF5FF6CFA701960156
:1031E0000E94D42D2B013C010E94B92E4B015C01A1
:1031F0004AE00E94FD177C01E00EF11ECC23B1F1E4
:10320000C501B4010E943E2C9B01AC01C301B20177
:103210000E94D32D4B015C018EE20E94B603E80EA2
:10322000F91EC15018F120E030E040E251E4C50140
:10323000B4010E949F2C2B013C010E94B92E4B012E
:10324000B12CA12C4AE0C501B4010E94FD17E80E83
:10325000F91EC501B4010E943E2C9B01AC01C301C3
:10326000B2010E94D32D4B015C01DBCFC701CF918E
:103270001F910F91FF90EF90DF90CF90BF90AF9094
:103280009F908F907F906F905F904F900895CF9315
:10329000DF93D0E0C0E0009719F00E94F017EC0136
:1032A0008DE492E00E94F0178C0F9D1FDF91CF916B
:1032B0000895CF92DF92EF92FF92CF93DF936C014C
:1032C000990FEE08FF08F7FE1DC08DE20E94B603BD
:1032D000EC0166277727CB016C197D098E099F09C0
:1032E0004AE00E94FD17C80FD91F8DE492E00E94AA
:1032F000F0178C0F9D1FDF91CF91FF90EF90DF9023
:10330000CF9008954AE0C701B6010E94FD17EC0175
:10331000ECCF9F92AF92BF92CF92DF92EF92FF924B
:103320000F931F93CF93DF93CDB7DEB7A0970FB660
:10333000F894DEBF0FBECDBF6C012FEDC20ED11CC5
:10334000F601A080F7E0F12CAF1609F4EEC0B62E1E
:103350008C0141E060E80E941C06F82E41E06FEF0E
:10336000C8010E941C06F82A40E060E0C8010E94E3
:103370001C06F82A46E06FEFC8010E941C06F82AD6
:10338000AE01425E5F4F63E8C8010E94120BF82A4B
:103390004E8D446063E8C8010E941C06F82A47E08D
:1033A0006FEFC8010E941C06F82A41E061E8C801DD
:1033B0000E941C06F82A0E948D00F82A41E060E86D
:1033C000C8010E941C06F82A21E0B212C1C0A0FC6C
:1033D00002C24BE664E9C8010E941C06E82EC8013F
:1033E0000E94DA0B8E29F82AAE01465E5F4F60E933
:1033F000C8010E94CE09F82A8A8D9B8DAC8DBD8DA7
:10340000992EE89497F897FBEE24E0F844E264E9FB
:10341000C8010E941C06F82AC8010E94DA0BF82A8B
:10342000AE01465E5F4F60E9C8010E94CE09F82AEE
:103430008A8D9B8D2C8D3D8D3C8B2D8B9E8B8F8B08
:1034400045E264E9C8010E941C06F82AC8010E94EE
:10345000DA0BF82AAE01465E5F4F60E9C8010E94B0
:10346000CE09F82A8C8D9D8D988F898F40E061E878
:10347000C8010E941C06F82A46E06FEFC8010E94AE
:103480001C06F82AAE01425E5F4F63E8C8010E9445
:10349000120BF82A4E8D4B7F63E8C8010E941C0670
:1034A000F82A41E06FEFC8010E941C06F82A41E0AB
:1034B00060E0C8010E941C06F82A40E06FEFC801D6
:1034C0000E941C06F82A40E060E8C8010E941C0621
:1034D000F82A59F5F1E0BF1699F0A1FC23C0F801D4
:1034E000E052FF4F8F8D8083319688A18083BE018B
:1034F0006F5F7F4FC8018E519F4F0E941B3112C0DA
:10350000A0FC10C0F801EE5FFE4F90823196E08281
:10351000DE0154967496035E1E4F8D9181930E17B3
:103520001F07D9F7BA28F601B0828F2DA0960FB6E3
:10353000F894DEBF0FBECDBFDF91CF911F910F91E9
:10354000FF90EF90DF90CF90BF90AF909F90089545
:10355000A1FC41C142E064E9C8010E941C06E82EBA
:10356000C8010E94DA0B8E29F82AAE01415E5F4F36
:1035700060E9C8010E94120BF82A4BE764E9C80110
:103580000E941C06F82AC8010E94DA0BF82AAE0134
:10359000405E5F4F60E9C8010E94120BF82A47E7BE
:1035A00064E9C8010E941C06F82AC8010E94DA0BCF
:1035B000F82AAE01465E5F4F60E9C8010E94CE095D
:1035C000F82A4A8D5B8D6C8D7D8DDB01CA0129E166
:1035D000B695A795979587952A95D1F78983DB01AD
:1035E000CA0132E1B695A795979587953A95D1F797
:1035F0008F778A83DB01CA01EBE0B695A795979593
:103600008795EA95D1F78F778B83DB01CA01F4E0C8
:10361000B695A79597958795FA95D1F78F778C836F
:10362000440F440F440F48774E8F48E764E9C801C0
:103630000E941C06F82AC8010E94DA0BF82AAE0183
:10364000465E5F4F60E9C8010E94CE09F82A8A8D64
:103650009B8DAC8DBD8DAC01BD012DE1769567953F
:10366000579547952A95D1F72E8D240F2D83AC01C0
:10367000BD0136E176956795579547953A95D1F70F
:103680004F774E83AC01BD01EFE076956795579576
:103690004795EA95D1F74F774F83292F2F772887C2
:1036A000AC01BD0176956795579547954F7749874A
:1036B000982F9295990F990F90749E8F49E764E91E
:1036C000C8010E941C06F82AC8010E94DA0BF82AD9
:1036D000AE01465E5F4F60E9C8010E94CE09F82A3C
:1036E0008A8D9B8DAC8DBD8DAC01BD012AE1769597
:1036F0006795579547952A95D1F72E8D240F2A87E0
:10370000AC01BD0133E176956795579547953A959C
:10371000D1F74F774B87AC01BD01ECE0769567950B
:1037200057954795EA95D1F74F774C87AC01BD0186
:10373000F5E07695679557954795FA95D1F74F77C8
:103740004D87982F990F990F9C779E8F4AE764E9D0
:10375000C8010E941C06F82AC8010E94DA0BF82A48
:10376000AE01465E5F4F60E9C8010E94CE09F82AAB
:103770008A8D9B8DAC8DBD8DAC01BD012EE1769502
:103780006795579547952A95D1F72E8D240F2E874B
:10379000AC01BD0137E176956795579547953A9508
:1037A000D1F74F774F872A2F2F77288BAC01BD0198
:1037B000E9E07695679557954795EA95D1F74F7764
:1037C000498BF2E0B695A79597958795FA95D1F72D
:1037D0008F778A8B1B8AE12C912C48CE0F931F93F5
:1037E000CF93DF938C01EB01FC01808191810097E5
:1037F000E1F06881798161157105A9F042815381F9
:103800002C813D814217530770F00E941B318C813F
:103810009D81F801958384831D821C82DF91CF9165
:103820001F910F9108950E94B82F88819981F80106
:10383000918380838A819B81938382838C819D8104
:1038400095838483198218821B821A82E5CFCF93D5
:10385000DF93EC0188819981009711F00E94B82FC5
:10386000198218821D821C821B821A82DF91CF91DD
:103870000895FC0180819181009711F00C94B82F7C
:1038800008950F931F93CF93DF93EC018881998163
:10389000009759F02A813B812617370730F081E0E5
:1038A000DF91CF911F910F9108958B016F5F7F4F33
:1038B0000E944130009759F0998388831B830A83C3
:1038C0002C813D81232B59F7FC011082E8CF80E049
:1038D000E7CFEF92FF920F931F93CF93DF93EC010B
:1038E0007B018A01BA010E94411C81110BC0CE01EB
:1038F0000E94271CCE01DF91CF911F910F91FF9065
:10390000EF9008951D830C83B701888199810E94EF
:103910001B31F0CFCF93DF93EC01FB0186179707A4
:1039200049F0608171816115710541F044815581D3
:103930000E94691CCE01DF91CF9108950E94271C3F
:10394000F9CFFC0111821082138212821582148237
:10395000FB0101900020E9F73197AF01461B570B9F
:103960000C94691C85ED8093BC0080912604909195
:103970002704A0912804B09129040796A11DB11D28
:1039800023E0B695A795979587952A95D1F720912D
:10399000BC0024FD03C010926F04089540912604DA
:1039A000509127046091280470912904452B462BDF
:1039B000472B69F30097A105B10541F02AE22A954A
:1039C000F1F700C00197A109B109E1CF8091250469
:1039D0000C9420041F920F920FB60F9211242F9374
:1039E0003F938F939F93AF93BF938091C704909120
:1039F000C804A091C904B091CA043091C20423E064
:103A0000230F2D3758F50196A11DB11D2093C20437
:103A10008093C7049093C804A093C904B093CA04C8
:103A20008091C3049091C404A091C504B091C604D0
:103A30000196A11DB11D8093C3049093C404A0936B
:103A4000C504B093C604BF91AF919F918F913F91F0
:103A50002F910F900FBE0F901F90189526E8230FFF
:103A60000296A11DB11DD2CF1F920F920FB60F92D9
:103A700011242F933F934F935F936F937F938F9373
:103A80009F93AF93BF93EF93FF93E0910502F09163
:103A900006020995FF91EF91BF91AF919F918F9190
:103AA0007F916F915F914F913F912F910F900FBE3A
:103AB0000F901F9018951F920F920FB60F9211241E
:103AC0002F933F934F935F936F937F938F939F9326
:103AD000AF93BF93EF93FF93E0910302F091040241
:103AE0000995FF91EF91BF91AF919F918F917F9138
:103AF0006F915F914F913F912F910F900FBE0F905B
:103B00001F9018951F920F920FB60F9211242F93AA
:103B10003F934F935F936F937F938F939F93AF9355
:103B2000BF93EF93FF938BEC94E00E944703FF91C8
:103B3000EF91BF91AF919F918F917F916F915F9125
:103B40004F913F912F910F900FBE0F901F9018959E
:103B50001F920F920FB60F9211242F938F939F9362
:103B6000EF93FF93E091DB04F091DC048081E0911E
:103B7000E104F091E20482FD1BC090818091E40495
:103B80008F5F8F732091E504821741F0E091E40488
:103B9000F0E0E553FB4F958F8093E404FF91EF91A4
:103BA0009F918F912F910F900FBE0F901F9018959E
:103BB0008081F4CF1F920F920FB60F9211242F9392
:103BC0003F934F935F936F937F938F939F93AF93A5
:103BD000BF93EF93FF938091B900887F803609F4FB
:103BE0004AC0F0F5883209F4A7C018F5803109F40D
:103BF0009BC0B8F4882309F4F9C0883009F494C054
:103C0000FF91EF91BF91AF919F918F917F916F91B4
:103C10005F914F913F912F910F900FBE0F901F908A
:103C20001895883109F488C0803251F780936E046A
:103C300014C0803409F49DC040F48033B9F3883354
:103C4000F9F680936E0485ECB0C0803509F485C028
:103C5000883509F496C0883499F60E94B21CD0CFFA
:103C6000883909F48CC038F5883729F050F4883643
:103C700011F0803729F683E080936F0410926D0471
:103C800057C0883809F47BC0803919F0803809F0B2
:103C9000B7CF80916D04803208F071C0E0916D045F
:103CA00081E08E0F80936D048091BB00F0E0E35BB8
:103CB000FB4F80833DC0803B39F0E0F4803A09F44B
:103CC00079C0883A09F09CCF84E080936F04109209
:103CD0004C0410924B04E0919704F09198040995DC
:103CE00080914B0481110FC081E080934B041092AE
:103CF0002B0409C0803C09F4A6CF883C09F4A3CF6B
:103D0000883B09F07DCFE0914C0481E08E0F8093D9
:103D10004C04F0E0E55DFB4F80818093BB00909107
:103D20004C0480914B0429C0809194048093BB0083
:103D300085EC8093BC0064CF9091930480919204B1
:103D4000981758F5E091930481E08E0F80939304C7
:103D5000F0E0EE58FB4F8081E9CFE091930481E0E1
:103D60008E0F809393048091BB00F0E0EE58FB4FE0
:103D7000808390919304809192049817C8F285E80B
:103D8000D8CFE091930481E08E0F809393048091CB
:103D9000BB00F0E0EE58FB4F8083809171048111ED
:103DA0005CCF81E08093700484EA8093BC00109221
:103DB0006F0426CF85EC8093BC0010926F04809135
:103DC0006D04803230F4E0916D04F0E0E35BFB4F72
:103DD000108260916D0470E0E0919504F09196047A
:103DE0008DE494E0099510926D040ACF10926E0450
:103DF00034CF1F920F920FB60F9211242F933F933F
:103E00008F939F93EF93FF938091E20387FF1FC0EF
:103E100010928500109284008091E2038F5F80935E
:103E2000E2038091E20387FF04C08091E2038C30BB
:103E3000ACF08091840090918500049680349C4978
:103E400090F1809184009091850004962EC080911D
:103E5000E20387FFE1CF8091E203DECF209184006F
:103E600030918500E091E2038E2FEE0F990BFC015B
:103E7000EE0FFF1FE80FF91FE254FC4F8181928182
:103E8000820F931F90938900809388008091E203B2
:103E9000FF91EF919F918F913F912F910F900FBEC6
:103EA0000F901F90189580E49CE99093890080936F
:103EB00088008FEF8093E203EBCF8F929F92AF92B7
:103EC000BF92EF92FF920F931F93CF93DF9300D097
:103ED00000D000D0CDB7DEB7EBECF4E01382128255
:103EE00088EE93E0A0E0B0E084839583A683B78357
:103EF00021E232E03183208325EC30E035872487CE
:103F000024EC30E03787268720EC30E0318B208BA3
:103F100021EC30E0338B228B22EC30E0358B248B8C
:103F200026EC30E0378B268B118E128E138E148E7A
:103F3000E8E6F5E01382128284839583A683B78333
:103F400083E392E09183808360E572E0CE01019685
:103F50000E94A11C6FE472E08FE597E00E94A11C13
:103F60000CE517E0812C912C80E8A82E8EE3B82E6A
:103F7000D8015D968D929D92AD92BC92909785E00E
:103F80008C9386E011968C93119782E012968C9315
:103F9000BE016F5F7F4F8FE597E00E948A1CF8019A
:103FA0001186128613861486118A128A138A148A3D
:103FB000158616861786108A128E118E148E138E11
:103FC000168A158AEE24E394F12CF08EE78ACE014E
:103FD00001960E94391C6AE572E0CE0101960E94AA
:103FE000A11C6FE472E08EE397E00E94A11C0BE33A
:103FF00017E0D8015D968D929D92AD92BC929097FC
:104000008BE08C938AE011968C93119783E0129643
:104010008C93BE016F5F7F4F8EE397E00E948A1CF6
:10402000F8011186128613861486118A128A138A61
:10403000148A158616861786108A128E118E148E93
:10404000138E168A158AF08EE78ACE0101960E9499
:10405000391C87EC91E0E4E7F5E0DF019C011D925B
:1040600021503040E1F785E795E09093BD068093BD
:10407000BC0626960FB6F894DEBF0FBECDBFDF910B
:10408000CF911F910F91FF90EF90BF90AF909F90B5
:104090008F900895CF93DF93CDB7DEB7CB55D1097D
:1040A0000FB6F894DEBF0FBECDBF789484B58260A2
:1040B00084BD84B5816084BD85B5826085BD85B5CC
:1040C000816085BD80916E00816080936E0010924A
:1040D00081008091810082608093810080918100C5
:1040E0008160809381008091800081608093800056
:1040F0008091B10084608093B1008091B0008160B4
:104100008093B00080917A00846080937A008091DF
:104110007A00826080937A0080917A008160809337
:104120007A0080917A00806880937A001092C100B2
:10413000E091DB04F091DC0482E08083E091D7041D
:10414000F091D8041082E091D904F091DA0480E172
:1041500080831092E304E091DF04F091E00486E0B4
:104160008083E091DD04F091DE04808180618083B2
:10417000E091DD04F091DE04808188608083E0912D
:10418000DD04F091DE04808180688083E091DD04AD
:10419000F091DE0480818F7D808385E692E00E942D
:1041A00047198CE597E00E94D1078BE397E00E94C6
:1041B000D10780915E07823009F447C1833009F04E
:1041C00046C181E061E776E00E94360180913D07BB
:1041D000823009F43EC1833009F03DC181E063E6DD
:1041E00076E00E94360142E350E060E070E04093E8
:1041F000F3015093F4016093F5017093F6018AE0A6
:1042000090E0A0E0B0E08093F7019093F801A093D4
:10421000F901B093FA014093FB015093FC016093C4
:10422000FD017093FE018093FF0190930002A09323
:104230000102B093020280EB92E00E944719E091E4
:10424000BC06F091BD06EF5BFE4F89E28083E091F2
:10425000BC06F091BD06EE5BFE4F81E08083E091ED
:10426000BC06F091BD06ED5BFE4F80E991E09183C5
:104270008083E091BC06F091BD06EB5BFE4F88E6C3
:1042800095E09183808310929C0410929B0410927D
:104290009A04109299040E94020485E892E0909397
:1042A00098048093970486E892E090939604809314
:1042B000950421E04EEF69E885E795E00E94C10A88
:1042C000811106C040E068E885E795E00E941C0681
:1042D000AE01455C5F4F60EC85E795E00E94120BF4
:1042E0001092540688EE93E09093AF068093AE064A
:1042F00080E991E09093B1068093B00685E89BE653
:10430000A1E0B0E08093B2069093B306A093B40608
:10431000B093B50684EA90E7A9E0B0E080933D064B
:1043200090933E06A0933F06B093400610929205EC
:104330001092930510929405109295059E012F5F9F
:104340003F4F1901B90185E795E00E94480E082FFB
:1043500081110AC019821A828AE3F101A5E8B5E049
:1043600001900D928A95E1F784E690E0909397068C
:104370008093960684E893E090939906809398063C
:1043800084EF91E090939B0680939A0680E09AE0F8
:1043900090939E0680939D0681E08093AD0641E058
:1043A00060E885E795E00E941C06182F41E06FEF5A
:1043B00085E795E00E941C06182B102B40E060E07A
:1043C00085E795E00E941C06182BAE014F5B5F4FFE
:1043D00061E985E795E00E94120B182B22968FADBC
:1043E000229780939C0641E060E085E795E00E947B
:1043F0001C06182B40E06FEF85E795E00E941C0635
:10440000182B40E060E885E795E00E941C06912F9C
:10441000982BF4E7CF2EF5E0DF2E10E000E0FF242C
:10442000F39491119FC10330110509F4A5C0ACF4B8
:104430000130110509F10230110509F49AC0F0921A
:104440009A05F601F6A280E02DC080E0BBCE8FEF8A
:10445000B9CE80E0C4CE8FEFC2CE0430110509F48E
:104460008EC020E04FEE0530110549F760E685E784
:1044700095E00E94C10A14C04091AA055091AB0575
:104480006091AC057091AD05E9E07695679557951B
:104490004795EA95D1F764E485E795E00E94F20537
:1044A000882379F20F5F1F4FFFEFCF1ADF0A982F93
:1044B0000630110509F0B5CF81116EC010929C0530
:1044C00010929D0522E04EEF60E685E795E00E94A0
:1044D000C10A811161C010929E0520E14FEE60E695
:1044E00085E795E00E94C10A811156C010929F0590
:1044F00080E090E0A2E1B0E08093A6059093A7054C
:10450000A093A805B093A90580919B0581113AC09D
:1045100080E090E4A0E0B0E08093AA059093AB0522
:10452000A093AC05B093AD0580E090E0A3E2B0E0CD
:104530008093AE059093AF05A093B005B093B105FD
:104540001092B2051092B3051092B4051092B50501
:104550008FEF809392064FEF61E085E795E00E9430
:104560001C0691E090939406811116C01092790672
:1045700013C0F0929C0565CFF0929D0562CF20E0BC
:104580004EEF74CF40E250E064E485E795E00E948E
:10459000F205882309F4BCCF8093740549E26AE8E8
:1045A0008091BC069091BD060E941C068093740504
:1045B0000E9460026B017C016AE0862E912CA12C86
:1045C000B12C0E9460026C197D098E099F09683E1A
:1045D000734081059105A8F321E0821A9108A10892
:1045E000B10838EEC30E33E0D31EE11CF11C811478
:1045F0009104A104B10429F7809174058111B4C01C
:10460000E091BC06F091BD06EF5BFE4F89E280832E
:1046100062E085E795E00E948919882309F4A9C022
:104620008093740581110BC080911F07813021F4A4
:1046300080912007813019F08BEF80937405809171
:1046400074058111F2C06090BC067090BD06299679
:104650001FAE1EAE299760961FAE60972F961FAEB5
:104660002F9725961CAE1DAE1EAE1FAE259761E09E
:10467000C3010E948919F301EE5FFE4F4080A42C14
:10468000B12CD12CC12C3196508051E0551508F435
:10469000BDC05512B4C081E2A816B104C104D10452
:1046A00008F0B4C041E06FEFC3010E941C06811105
:1046B0001AC040E06FE4C3010E941C06811113C0C0
:1046C0004CE26EE4C3010E941C0681110CC040E064
:1046D0006FEFC3010E941C06811105C044EB66EB1D
:1046E000C3010E941C0693012F5E3E4FF901108208
:1046F0003196108231961082319610823196108256
:1047000031961082E12CF12C8701552009F454C117
:10471000D801C7018C549F4FAF4FBF4F46E0B695AD
:10472000A795979587954A95D1F7880F991F880F78
:10473000991F835F9D4FFC0180819181A281B3818C
:10474000892B8A2B8B2B09F037C1FCE2EF16F10481
:104750000105110509F430C14FEFE41AF40A0F4FB7
:104760001F4FD6CF892F18CF88E792E00E944719B4
:10477000FFCF8091550681112AC06FE472E08EEF61
:1047800096E00E941B316AE972E08EEB96E00E948F
:104790001B3163ED72E08EED96E00E941B314EE11D
:1047A00057E060EC85E795E00E94120B811138CF4D
:1047B000A10162EC85E795E00E94120B91E09093D5
:1047C0001F07998192959F709093200729CF109190
:1047D000560667E576E08EEF96E00E941B311123C6
:1047E00091F2133238F466EA72E0103271F662EB3D
:1047F00072E0CBCF6EEB72E0173238F6F8CF9DE067
:10480000A916B104C104D10408F44CCFAE01425B37
:104810005F4FBE016F5B7F4FC3010E948015982ED2
:10482000992009F4DDC0909274058091740581117E
:104830000CC0AE01495B5F4FB1018091BC06909105
:10484000BD060E94801580937405809174058111C6
:104850000FC021E0AE01455C5F4FBE016F5B7F4F33
:104860008091BC069091BD060E94841180937405CE
:1048700080917405811178CFE091BC06F091BD065E
:10488000108AE091BC06F091BD06FF24F394F5A2D6
:104890000091BC061091BD06F80145A956A967A96B
:1048A00070AD29E076956795579547952A95D1F78C
:1048B00064E4C8010E94F205811102C0F801F6A269
:1048C00080937405811150CFE091BC06F091BD0634
:1048D00081E080A7E091BC06F091BD06FD9684EDD5
:1048E00098E0A0E0B0E080839183A283B3838091BD
:1048F0007405811139CF8CEB92E00E94471981E059
:1049000090E09093B9048093B8048BED92E00E94FC
:104910004719812C912C90E7A92E92E4B92E9E0183
:10492000215E3F4F62963FAF2EAF6297210181011A
:104930006FE472E0C8010E94A11C0A5F1F4F6296DB
:104940004EAD5FAD62974017510791F78BEC94E045
:104950000E942703892B09F4F8C26FE472E0CE01AC
:10496000895B9F4F0E94A11C0E94D9022D960EAD1B
:104970001FAD2D9797FD06C28BAF1CAE0F5F1F4F6B
:10498000B801CE01895B9F4F0E94411C882361F3CF
:1049900029962EAD3FAD29972D968EAD9FAD2D97C3
:1049A000BE01655C7F4F820F931F0E941B312D96C5
:1049B0001FAF0EAF2D97D8CF4101A301495E5E4FC7
:1049C000652DC3010E94E908982E811129CF81E04D
:1049D000F301EC5FFE4F8083329740823196508224
:1049E000F301E85CFE4F80818111F1C63297A0800F
:1049F000B18030E020E023014BEB441A4EEF540A23
:104A0000C3018F5B9E4F64969FAF8EAF6497F30197
:104A1000ED5DFE4F6696FFAFEEAF6697A3014F5D6B
:104A20005E4F68965FAF4EAF68974C976A969FAFA0
:104A30008EAF6A9735966C96FFAFEEAF6C9703C05A
:104A4000FCEF9F2E9601F501E20FF31F008100237A
:104A500009F484C09110E7CE69015FEFC51AD50A49
:104A6000D501AC0DBD1D6C910F3F09F04DC0690122
:104A700082E0C80ED11CD501AC0DBD1D8C916130FA
:104A800029F198F0623089F16330D1F6690144E090
:104A9000C40ED11C238190E0982F8827820F911D8E
:104AA0006C96EEADFFAD6C970EC0690194E0C90E37
:104AB000D11C238190E0982F8827820F911D689642
:104AC000EEADFFAD689791838083BCCF690144E070
:104AD000C40ED11C238190E0982F8827820F911D4E
:104AE0006696EEADFFAD6697EECF690144E0C40E69
:104AF000D11C238190E0982F8827820F911D6A9600
:104B0000EEADFFAD6A97DFCF053008F099CF2E5F8D
:104B10003F4FD501A20FB31FF101C02ED12CCF0101
:104B2000821993098C159D051CF48D918193F7CF03
:104B3000C20ED31EF201E080F18010E030E020E0F0
:104B4000A1016496EEADFFAD649780810E94B1052E
:104B5000892B09F477CFECEE9E2E74CF911063CEA3
:104B600044E06AE0C3010E941C06982E81115BCECE
:104B700020E04FEE64E8C3010E94C10A982E811123
:104B800052CE84E0F301E253FF4F8083C3010E94C1
:104B90002F0B982E811147CE41E06FEFC3010E9489
:104BA0001C06982EAE01495B5F4F64E8C3010E946A
:104BB000170A982A40E06FEFC3010E941C06982A4A
:104BC00009F031CEF301E853FF4F29968EAD9FAD2A
:104BD000299734E0880F991F3A95E1F7B0E0A0E0FB
:104BE00080839183A283B383B101C3010E94480EE5
:104BF000982E811118CEAE01415B5F4F69E0C30171
:104C00000E94120B982E81110ECE60968FAD609788
:104C1000817060968FAF6097F301E25EFE4F8083F4
:104C20008AE3F101D301509601900D928A95E1F744
:104C3000AE01415B5F4F61E0C3010E94120B982EF1
:104C40008111F1CD8301035E1E4F60968FAD609799
:104C5000F80180831BAEAE01455C5F4F61E0C3018C
:104C60000E94120B982E8BAD9110DDCDF82EE8949A
:104C7000F4F884FF12C04F2D61E0C3010E941C06AE
:104C8000982E8111D0CDF801F082F3014289538929
:104C900064897589C3010E9407101BAEAE01455C93
:104CA0005F4F61E0C3010E94120B982E8BAD9110F3
:104CB000BACDF82EE894F2F882FF12C04F2D61E0D1
:104CC000C3010E941C06982E8111ADCDF801F0821F
:104CD000F3014289538964897589C3010E940710D1
:104CE00083E0F301E15EFE4F8083AE01435B5F4FE3
:104CF00060E0C3010E94BB0B982E811194CD2E96CB
:104D00008FAD2E97F301E852FF4F8083AE01435BD6
:104D10005F4F61E0C3010E94BB0B982E811183CDD0
:104D20002E968FAD2E97F301ED52FF4F8083AE018B
:104D3000455C5F4F63E0C3010E94F10D982E811125
:104D400072CD8BAD9CADADADBEADF301EC52FF4F5E
:104D500080839183A283B383AE01455C5F4F64E09F
:104D6000C3010E94F10D982E81115DCDF301E15335
:104D7000FF4F8BAD9CADADADBEAD80839183A28363
:104D8000B38351CD2996CEACDFAC2997C114D104A1
:104D900029F076010115110509F041C32D968EAD5C
:104DA0009FAD2D9710E0892B09F457C08AEE92E051
:104DB0000E94F0172D964EAD5FAD2D9729966EADE2
:104DC0007FAD29978BEC94E00E9489028DE492E0FC
:104DD0000E94F01723961FAE1EAE239725961FAE96
:104DE0001EAE259727961FAE1EAE2797BE01695BA4
:104DF0007F4FCE018F5B9F4F0E948A1C712C612CCC
:104E000027968EAD9FAD2797892B81F02396EEAC28
:104E1000FFAC23976AE370E0C7010E940731009757
:104E200029F08C010E191F0917FF35C326E0269DB6
:104E3000C001279D900D1124BE016F5B7F4F21E0C3
:104E400030E02C0F3D1F820F931F0E948A1CCE0161
:104E50008F5B9F4F0E94391C11E0CE01895B9F4FF1
:104E60000E94391C112309F470C08D819E81892B09
:104E700009F46BC06DEF72E089819A810E94123152
:104E8000892B09F062C08F819885009709F4A8C327
:104E90000E94F42B8B018D859E85009709F4A4C395
:104EA0000E94F42B3B0182E090E09093B904809340
:104EB000B804B801012E000C880B990B0E94402CFD
:104EC0006B017C0120E030E0A9010E94E82E181659
:104ED0000CF08EC3C0926D07D0926E07E0926F0700
:104EE000F092700781E090E09093720780937107D1
:104EF000B301072C000C880B990B0E94402C6B010E
:104F00007C0120E030E0A9010E94E82E18160CF088
:104F100094C3C0924C07D0924D07E0924E07F09296
:104F20004F0781E090E0909351078093500786E00F
:104F300093E00E94F017C8010E9459198EE193E096
:104F40000E94F017C3010E945919CE0149960E9490
:104F5000391CCE0143960E94391CCE010D960E9449
:104F6000391CCE0107960E94391CC1010E94391CD0
:104F70008FB7F894C090C704D090C804E090C904DB
:104F8000F090CA048FBFC092BE04D092BF04E092DA
:104F9000C004F092C10480919D0490919E04A09160
:104FA0009F04B091A004C81AD90AEA0AFB0A8091AA
:104FB000F3019091F401A091F501B091F601C816AA
:104FC000D906EA06FB0608F4A8C0F89460916507C4
:104FD0007091660780916707909168071092650746
:104FE00010926607109267071092680778940E94E3
:104FF0003E2C20E030E040EA51E40E94402E20E0C8
:1050000030E64AE657E40E949F2C2B013C01C70181
:10501000B6010E943E2C9B01AC01C301B2010E946B
:10502000402E6093690770936A0780936B07909393
:105030006C07C090BE04D090BF04E090C004F09014
:10504000C10480919D0490919E04A0919F04B09111
:10505000A004C81AD90AEA0AFB0AF8946091440726
:105060007091450780914607909147071092440739
:1050700010924507109246071092470778940E94B5
:105080003E2C20E030E040EA51E40E94402E20E037
:1050900030E64AE657E40E949F2C2B013C01C701F1
:1050A000B6010E943E2C9B01AC01C301B2010E94DB
:1050B000402E609348077093490780934A07909366
:1050C0004B0762E277E08091BC069091BD060E949A
:1050D000F91180913A07843009F4D4C280912A07EB
:1050E00090912B078F3F980709F4CCC28639910520
:1050F0000CF0C8C281E08093B7048091BE04909107
:10510000BF04A091C004B091C10480939D0490930A
:105110009E04A0939F04B093A004C090BE04D090BE
:10512000BF04E090C004F090C1048091A904909164
:10513000AA04A091AB04B091AC04B701A601481B2E
:10514000590B6A0B7B0B8091F7019091F801A091AC
:10515000F901B091FA01481759076A077B0708F46B
:1051600052C08EE00E947B01019709F08EC281E05F
:105170008093AE04C092A504D092A604E092A70446
:10518000F092A8048091A1049091A204A091A3049C
:10519000B091A4048C5B9240A109B1098093A10451
:1051A0009093A204A093A304B093A4048FE00E9460
:1051B0007B01019709F082C281E08093AD04C09227
:1051C000A104D092A204E092A304F092A4048091DE
:1051D000A5049091A604A091A704B091A8048C5BAB
:1051E0009240A109B1098093A5049093A604A093CD
:1051F000A704B093A804C092A904D092AA04E09294
:10520000AB04F092AC048091AF049091B004A091F3
:10521000B104B091B204B701A601481B590B6A0B47
:105220007B0B8091FB019091FC01A091FD01B0915D
:10523000FE01481759076A077B07D8F08091B80428
:105240009091B904009709F452C28130910509F494
:1052500067C28CE597E00E947F068BE397E00E948F
:105260007F06C092AF04D092B004E092B104F092F5
:10527000B2048091B3049091B404A091B504B091AC
:10528000B604B701A601481B590B6A0B7B0B809132
:10529000FF0190910002A0910102B0910202481713
:1052A00059076A077B0780F08CE597E00E94540756
:1052B0008BE397E00E945407C092B304D092B404E9
:1052C000E092B504F092B6048091BA049091BB04C8
:1052D000A091BC04B091BD04C81AD90AEA0AFB0A1D
:1052E00038EEC31633E0D306E104F10408F489C0B4
:1052F00087E393E00E94471982E493E00E94F0174D
:105300008091B8049091B9040E9459198EE493E0F9
:105310000E94F01780917507909176070E944118BE
:105320008FE20E94B60380917707909178070E94E0
:1053300041188FE20E94B6036091690770916A0775
:1053400080916B0790916C0742E00E946F188DE48A
:1053500092E00E94F01780E693E00E94F01780919F
:105360005407909155070E9441188FE20E94B6039E
:1053700080915607909157070E9441188FE20E9432
:10538000B603609148077091490780914A07909150
:105390004B0742E00E946F188DE492E00E94F017E4
:1053A0008EE00E947B01019709F008C283E793E039
:1053B0000E9447198FE00E947B01019709F001C20A
:1053C0008EE893E00E9447198BEA93E00E94F01761
:1053D0008091B704882309F4F7C186EB93E00E941B
:1053E00047198091BE049091BF04A091C004B09170
:1053F000C1048093BA049093BB04A093BC04B093FF
:10540000BD0480E090E0892B09F490CA0E94330328
:10541000882309F484CA0E94000081CA73013701FD
:105420005FEF651A750AF7018081082E000C990B51
:105430000E94302C892B91F7015011090C0D1D1D74
:10544000F8018081082E000C990B0E94302C892BCA
:1054500031F00E151F0518F001501109F1CFA80108
:105460004F5F5F4F4E195F092D965FAF4EAF2D977F
:10547000CE14DF0420F4B701C6010E94FE30299645
:10548000EEADFFAD29972D968EAD9FAD2D97E80F10
:10549000F91F108283CC6FE472E0CE01CB960E949C
:1054A000A11C27968EAD9FAD2797009749F17801F3
:1054B0008017910708F47C012396EEADFFAD23978A
:1054C000EE0DFF1DD080108223966EAD7FAD239729
:1054D0006115710509F47AC0FB0101900020E9F71C
:1054E0003197AF01461B570BCE01CB960E94691C2A
:1054F00023968EAD9FAD2397E80EF91EF701D0825B
:10550000BE01655C7F4FC2010E94EE1BCE01CB96AF
:105510000E94391C0F5F1F4F2796EEACFFAC2797F8
:10552000E016F10628F09E2D8F2D7801092F182FF7
:105530006FE472E0CE01CB960E94A11C2796CEAC00
:10554000DFAC2797EC14FD0448F50C151D0508F495
:1055500068012396EEADFFAD2397EC0DFD1D108184
:10556000108223966EAD7FAD23976E0D7F1D611562
:10557000710589F1FB0101900020E9F73197AF0136
:10558000461B570BCE01CB960E94691C23968EAD0D
:105590009FAD2397C80ED91EF6011083BE01655C2E
:1055A0007F4FCE018F5B9F4F0E94EE1BCE01CB96AB
:1055B0000E94391CFFEF6F1A7F0A26E0420E511C31
:1055C00035E06316710409F01BCC41CCCE01CB96BB
:1055D0000E94271C8DCFCE01CB960E94271CD6CFD0
:1055E00060E070E0CB0156CC60E070E0CB015ACCBB
:1055F00020E030E0A901C701B6010E94392C87FFE5
:105600000FC0F7FAF094F7F8F094C0926D07D092BB
:105610006E07E0926F07F09270078FEF9FEF64CCF8
:1056200010926D0710926E0710926F07109270071C
:1056300010927207109271075BCC20E030E0A90154
:10564000C701B6010E94392C87FF0FC0F7FAF0940A
:10565000F7F8F094C0924C07D0924D07E0924E07B5
:10566000F0924F078FEF9FEF5ECC10924C07109295
:105670004D0710924E0710924F071092510710924B
:10568000500755CC1092B70438CD8091A504909165
:10569000A604A091A704B091A804A7019601281B15
:1056A000390B4A0B5B0BDA01C90180329340A1052B
:1056B000B10508F47BCD1092AE0478CD8091A104A1
:1056C0009091A204A091A304B091A404A701960113
:1056D000281B390B4A0B5B0BDA01C901803293405E
:1056E000A105B10508F487CD1092AD0484CD1092C8
:1056F0006D0710926E0710926F071092700710924C
:1057000072071092710710924C0710924D07109279
:105710004E0710924F07109251071092500799CDE3
:105720002091B704222349F08CE597E00E941807E6
:105730008BE397E00E9418078CCD2091AD04309147
:10574000AE0431111BC080926D0790926E07A0923B
:105750006F07B092700790937207809371072111C1
:1057600020C080924C0790924D07A0924E07B092B5
:105770004F0790935107809350076BCD2111D4CFE1
:1057800020E030E040E251E420936D0730936E0753
:1057900040936F075093700790937207809371073F
:1057A000E0CF20E030E040E251E420934C0730931A
:1057B0004D0740934E0750934F07DBCF80E893E0AF
:1057C000F7CD8CE993E0FECD8AEB93E008CE80E044
:1057D000A82E81E0B82E0DC98EE397E00E94391CF7
:1057E0008FE597E00C94391C1F93FC0199278827BB
:1057F000BC01E89411911032E9F3193010F01E3019
:10580000C8F31B3251F01D3249F4689406C00E945F
:105810001B2C610F711D811D911D119110531A30A8
:10582000B0F33EF490958095709561957F4F8F4FC2
:105830009F4F1F910895592F482F372F262F660FFE
:10584000771F881F991F660F771F881F991F620F88
:10585000731F841F951F660F771F881F991F089558
:1058600091110C940C2D803219F089508550C8F795
:1058700008950E947B2C08F481E00895E89409C003
:1058800097FB3EF490958095709561957F4F8F4F73
:105890009F4F9923A9F0F92F96E9BB279395F69589
:1058A000879577956795B795F111F8CFFAF4BB0F07
:1058B00011F460FF1BC06F5F7F4F8F4F9F4F16C06B
:1058C000882311F096E911C0772321F09EE8872FF5
:1058D000762F05C0662371F096E8862F70E060E0B1
:1058E0002AF09A95660F771F881FDAF7880F96952A
:1058F000879597F90895990F0008550FAA0BE0E8CE
:10590000FEEF16161706E807F907C0F01216130681
:10591000E407F50798F0621B730B840B950B39F4C1
:105920000A2661F0232B242B252B21F408950A2627
:1059300009F4A140A6958FEF811D811D08950E9455
:10594000B22C0C94262D0E94182D38F00E941F2D89
:1059500020F0952311F00C940F2D0C94152D11248B
:105960000C945A2D0E94372D70F3959FC1F3950F1B
:1059700050E0551F629FF001729FBB27F00DB11DD3
:10598000639FAA27F00DB11DAA1F649F6627B00D63
:10599000A11D661F829F2227B00DA11D621F739F4C
:1059A000B00DA11D621F839FA00D611D221F749F5A
:1059B0003327A00D611D231F849F600D211D822FA1
:1059C000762F6A2F11249F5750409AF0F1F08823C8
:1059D0004AF0EE0FFF1FBB1F661F771F881F9150F5
:1059E0005040A9F79E3F510580F00C940F2D0C9468
:1059F0005A2D5F3FE4F3983ED4F3869577956795EB
:105A0000B795F795E7959F5FC1F7FE2B880F911D1E
:105A10009695879597F9089599278827089597F976
:105A20009F6780E870E060E008959FEF80EC089544
:105A300000240A941616170618060906089500246D
:105A40000A9412161306140605060895092E0394E7
:105A5000000C11F4882352F0BB0F40F4BF2B11F45B
:105A600060FF04C06F5F7F4F8F4F9F4F089557FDBA
:105A70009058440F551F59F05F3F71F04795880FBC
:105A800097FB991F61F09F3F79F087950895121653
:105A900013061406551FF2CF4695F1DF08C01616FF
:105AA00017061806991FF1CF8695710561050894B0
:105AB0000895E894BB2766277727CB0197F90895C7
:105AC0000E94C42DA59F900DB49F900DA49F800DA2
:105AD000911D112408952F923F924F925F926F92E1
