:020000040000FA
:100000000C94F4000C9452200C942B200C941C01A2
:100010000C941C010C941C010C941C010C941C01EC
:100020000C941C010C941C010C941C010C941C01DC
:100030000C941C010C941C010C941C010C941C01CC
:100040000C94E11F0C941C010C949F200C947920BB
:100050000C941C010C941C010C941C010C941C01AC
:100060000C94D1200C941C014E414E494E495459D8
:10007000494E46CDCCCC3D0AD7233C17B7D1387773
:10008000CC2B329595E6241FB14F0A000020410089
:1000900000C84200401C4620BCBE4CCA1B0E5AAED3
:1000A000C59D744F62737461636C652073656E7374
:1000B0006F722072616E67696E67206661696C6538
:1000C00064004F62737461636C652073656E736F57
:1000D0007220696E697469616C697A65206661690C
:1000E0006C65640041726475696E6F204F4E4C49B7
:1000F0004E450041726475696E6F20426F6F74697E
:100100006E672E2E2E006E6F00796573004F62733E
:100110007461636C653F20007269676874204F46A4
:10012000462D6C696E65007269676874204F4E2DAC
:100130006C696E65006C656674204F46462D6C696F
:100140006E65006C656674204F4E2D6C696E65009F
:10015000526967687420776865656C206475747986
:100160003A20004C65667420776865656C2064757C
:1001700074793A200044726976656D6F64653A203F
:10018000003D3D3D3D3D3D3D3D3D3D00000000000D
:10019000240027002A0000000000250028002B0072
:1001A00000000000230026002900040404040404C5
:1001B0000404020202020202030303030303010216
:1001C00004081020408001020408102001020408E5
:1001D00010200000000800020100000304070000D6
:1001E000000000000000F02111241FBECFEFD8E076
:1001F000DEBFCDBF26E0A6EEB2E001C01D92AC3955
:10020000B207E1F712E0A0E0B1E0EEEAFBE602C0DF
:1002100005900D92A63EB107D9F710E0C4EFD0E0EB
:1002200004C02197FE010E94C933C33FD107C9F71B
:100230000E94B7220C94D5350C940000CF93DF9325
:1002400000D000D0CDB7DEB719821A821B821C8283
:1002500089819A81AB81BC818A3F9105A105B10555
:1002600068F4000089819A81AB81BC810196A11D4F
:10027000B11D89839A83AB83BC83EACF80E00F9062
:100280000F900F900F90DF91CF9108954F925F9252
:100290006F927F928F929F92AF92BF92CF92DF9296
:1002A000EF92FF920F931F93CF93F9010FEF1FEF80
:1002B000980100831183228333834A015B01B3E0F9
:1002C000B694A79497948794BA95D1F76A017B0165
:1002D00027E0C222DD24EE24FF2495018401C0E042
:1002E000063011052105310508F041C0C1113FC09C
:1002F000DC01A00FB11F6C91412C512C32018016F2
:100300009106A206B30649F470E00C2C02C0759564
:1003100067950A94E2F726013701462F50E060FF07
:1003200017C0B901A801A3E0440F551F661F771F2E
:10033000AA95D1F7440E551E661E771E4082518243
:1003400062827382C1E00F5F1F4F2F4F3F4FC8CFB4
:10035000BA01759567954FEF441A540A640A740AF6
:1003600048E04416510461047104B9F6ECCFCF9112
:100370001F910F91FF90EF90DF90CF90BF90AF90C3
:100380009F908F907F906F905F904F9008958230F4
:10039000C8F4E82FF0E0EE0FFF1FED5FFD4F718313
:1003A0006083813041F0809169008C7F826080930E
:1003B0006900E89A089580916900837F886080933E
:1003C0006900E99A0895833081F028F4813099F02A
:1003D0008230A9F008958730A9F08830C9F08430C0
:1003E000B1F4809180008F7D03C0809180008F7771
:1003F00080938000089584B58F7784BD089584B577
:100400008F7DFBCF8091B0008F778093B0000895EF
:100410008091B0008F7DF9CFCF93DF93282F30E00C
:10042000F901EE52FE4F8491F901E254FE4FD4914E
:10043000F901E655FE4FC491CC23A1F081110E9431
:10044000E301EC2FF0E0EE0FFF1FE056FE4FA59109
:10045000B491EC91ED2381E090E009F480E0DF912C
:10046000CF91089580E090E0FACF1F93CF93DF9370
:10047000282F30E0F901EE52FE4F8491F901E25449
:10048000FE4FD491F901E655FE4FC491CC23A9F05B
:10049000162F81110E94E301EC2FF0E0EE0FFF1FF9
:1004A000EA56FE4FA591B4918FB7F894EC911111D3
:1004B00008C0D095DE23DC938FBFDF91CF911F91D1
:1004C0000895DE2BF8CFCF93DF9390E0FC01E25448
:1004D000FE4F249186559E4FFC0184918823D1F0D4
:1004E00090E0880F991FFC01E457FE4FA591B4914D
:1004F000FC01EA56FE4FC591D491623071F49FB76A
:10050000F8943C91822F809583238C93E8812E2B45
:1005100028839FBFDF91CF9108958FB7F894EC9116
:100520002E2B2C938FBFF6CF1F93CF93DF93182FD3
:10053000EB0161E00E946302209739F460E0812FB3
:10054000DF91CF911F910C943502CF3FD10511F46B
:1005500061E0F5CFE12FF0E0EE52FE4FE491E330A1
:1005600031F140F4E130B1F0E230E1F0C038D105D2
:100570007CF7E4CFE73029F1E83059F1E430B1F706
:1005800080918000806280938000D0938B00C09324
:100590008A0004C084B5806884BDC7BDDF91CF9157
:1005A0001F91089584B5806284BDC8BDF7CF809146
:1005B0008000806880938000D0938900C093880079
:1005C000EDCF8091B00080688093B000C093B300FD
:1005D000E5CF8091B00080628093B000C093B400FA
:1005E000DDCF3FB7F8948091D1039091D203A091D1
:1005F000D303B091D40326B5A89B05C02F3F19F0B3
:100600000196A11DB11D3FBFBA2FA92F982F882792
:10061000BC01CD01620F711D811D911D42E0660F6D
:10062000771F881F991F4A95D1F708950895089557
:1006300008950895AF92BF92CF92DF92EF92FF920A
:100640000F931F93CF93DF936C017B018B01040FFA
:10065000151FEB015E01AE18BF08C017D10759F096
:100660006991D601ED91FC910190F081E02DC601D8
:100670000995892B79F7C501DF91CF911F910F91D2
:10068000FF90EF90DF90CF90BF90AF900895FC0166
:10069000538D448D252F30E0842F90E0821B930BE7
:1006A000541710F0CF96089501970895FC01918D8D
:1006B000828D981761F0A28DAE0FBF2FB11D5D9690
:1006C0008C91928D9F5F9F73928F90E008958FEF32
:1006D0009FEF08952FB7F8948091D5039091D6039A
:1006E000A091D703B091D8032FBF8093E1039093DB
:1006F000E203A093E303B093E40389ED93E00E9447
:10070000560397FF26C02FB7F8948091D503909198
:10071000D603A091D703B091D8032FBF4091E10336
:100720005091E2036091E3037091E403841B950B05
:10073000A60BB70B4091DD035091DE036091DF0300
:100740007091E00384179507A607B707B0F28FEF03
:100750009FEF0895FC01918D828D981731F0828D65
:10076000E80FF11D858D90E008958FEF9FEF0895BC
:10077000FC01918D228D892F90E0805C9F4F821B20
:1007800091098F739927089589ED93E00E94B8032A
:1007900021E0892B09F420E0822F089580E090E089
:1007A000892B29F00E94C40381110C940000089544
:1007B000FC01A48DA80FB92FB11DA35ABF4F2C91D6
:1007C000848D90E001968F739927848FA689B789CD
:1007D0002C93A089B1898C91837080648C93938DC4
:1007E000848D981306C00288F389E02D80818F7D67
:1007F00080830895EF92FF920F931F93CF93DF931F
:10080000EC0181E0888F9B8D8C8D98131AC0E8894C
:10081000F989808185FF15C09FB7F894EE89FF891B
:100820006083E889F98980818370806480839FBFB9
:1008300081E090E0DF91CF911F910F91FF90EF90B9
:100840000895F62E0B8D10E00F5F1F4F0F731127C9
:10085000E02E8C8D8E110CC00FB607FCFACFE88904
:10086000F989808185FFF5CFCE010E94D803F1CFB1
:10087000EB8DEC0FFD2FF11DE35AFF4FF0829FB778
:10088000F8940B8FEA89FB8980818062CFCF0F9328
:100890001F93CF93DF938C01D0E0C0E0F801EC0F01
:1008A000FD1F6491662341F089ED93E00E94FA03F5
:1008B000892B11F02196F2CFCE01DF91CF911F91BC
:1008C0000F910895682F89ED93E00C94FA03CF936C
:1008D000DF93EC01888D8823B9F0AA89BB89E88968
:1008E000F9898C9185FD03C0808186FD0DC00FB60E
:1008F00007FCF7CF8C9185FFF2CF808185FFEDCF8C
:10090000CE010E94D803E9CFDF91CF9108952091C5
:100910004E03260F3327331F21323105ECF420918B
:100920007203FC0190E080E0243069F082E00895D9
:10093000A0914E032191AC01425D5C4FA40FB52FF5
:10094000B11D2C930196861798F380914E03680F82
:1009500060934E0380E0089581E008951092720341
:1009600081E0809374031092730361E082E10E943E
:10097000350261E083E10E943502E9EBF0E080811D
:100980008E7F808380818D7F808388E48093B80010
:1009900085E48093BC000895CF93DF9391E090931A
:1009A0002D038823B9F0C091B800D091BA0080918E
:1009B000BC008A7B8093BC0060E082E10E9435022B
:1009C00060E083E10E9435020E94AE04D093BA0039
:1009D000C093B800DF91CF9108950895E0919F03EF
:1009E00080919E03E81730F4F0E0E85FFC4F8081CF
:1009F00090E008958FEF9FEF089590919F0380916D
:100A00009E032FEF3FEF981748F4E92FF0E0E85FDF
:100A1000FC4F208130E09F5F90939F03C9010895B0
:100A200080919E0390919F03891B990B0895CF920B
:100A3000DF92EF92FF920F931F93CF93DF937C018E
:100A4000CB018A0120910703222389F0EB016B017E
:100A5000C40ED51ECC15DD0569F06991D701ED9165
:100A6000FC910190F081E02DC7010995F3CF642F2F
:100A70000E948704C801DF91CF911F910F91FF90D1
:100A8000EF90DF90CF900895CF93DF931F92CDB773
:100A9000DEB76983209107032223F9F020919C039C
:100AA000203258F021E030E0FC013383228390E0D3
:100AB00080E00F90DF91CF91089580919D03E82F02
:100AC000F0E0E951FD4F998190838F5F80939D0302
:100AD00080939C0381E090E0ECCF61E0CE01019631
:100AE0000E948704F7CFCF92DF92EF92FF920F938D
:100AF0001F93CF93DF93D0919C0381E0D13208F014
:100B00009CC0C091E6020E94F1026B017C018091C1
:100B1000720381116CC082E08093720381E0809344
:100B200074038FEF8093710310929603D093950313
:100B3000A7EEB2E0E5E7F3E080E0D8138DC01092B5
:100B4000970380919703CC0FC82BC0939703809194
:100B50007303813009F084C0109273030E94F10284
:100B60006B017C01809197038093BB0080912903E6
:100B700090912A03A0912B03B0912C03892B8A2BEF
:100B80008B2BA1F00E94F1020091290310912A03FE
:100B900020912B0330912C036C197D098E099F093C
:100BA000061717072807390708F442C08091BC00D0
:100BB00083FDD8CF85EC8093BC000E94F1026B01CD
:100BC0007C0180917203823009F44CC080917103E2
:100BD0008F3F09F469C080917103803209F466C0C7
:100BE00080917103803309F463C084E026C0809152
:100BF000290390912A03A0912B03B0912C03892BF8
:100C00008A2B8B2B09F483CF0E94F10200912903D8
:100C100010912A0320912B0330912C036C197D092C
:100C20008E099F09061717072807390708F06FCFA5
:100C3000809128030E94CC0485E010929D031092BD
:100C40009C0310920703DF91CF911F910F91FF90AA
:100C5000EF90DF90CF9008959D9191938F5F6DCF2E
:100C600085EEA9CF8091290390912A03A0912B03AF
:100C7000B0912C03892B8A2B8B2B09F4A2CF0E94D5
:100C8000F1020091290310912A0320912B03309146
:100C90002C036C197D098E099F0906171707280771
:100CA000390708F08ECFC4CF80E0C7CF82E0C5CF30
:100CB00083E0C3CF90E080E008958F929F92AF923F
:100CC000BF92CF92DF92EF92FF920F931F93CF9339
:100CD000DF936A014801E70191E090930703809355
:100CE000E60210929D0310929C03E881F981019025
:100CF000F081E02DC70109958C0C9D1CC814D90406
:100D000059F0E881F9810190F081E02DD6016D91D3
:100D10006D01CE010995F2CFCE010E94730590E0DE
:100D200080E0DF91CF911F910F91FF90EF90DF90C6
:100D3000CF90BF90AF909F908F900895EF92FF92C9
:100D40000F931F93CF93DF9300D0CDB7DEB7FC0195
:100D5000EF5BFE4F70813496E080F1804A835983C7
:100D600002E010E020E030E0AE014F5F5F4F872FE0
:100D70000E945D06892B51F08CEE0F900F90DF9151
:100D8000CF911F910F91FF90EF90089580E0F5CFE4
:100D9000EF92FF920F931F93CF93DF931F92CDB7E4
:100DA000DEB7FC01EF5BFE4F70813496E080F1808E
:100DB000498301E010E020E030E0AE014F5F5F4F7B
:100DC000872F0E945D06892B49F08CEE0F90DF91F2
:100DD000CF911F910F91FF90EF90089580E0F6CF93
:100DE0003F924F925F926F927F928F929F92AF92BB
:100DF000BF92CF92DF92EF92FF920F931F93CF9308
:100E0000DF93CDB7DEB72C970FB6F894DEBF0FBED9
:100E1000CDBF4B0130E020E0312CAE014F5F5F4F82
:100E20003A01FC01EB5BFE4FFE83ED83AC014F5BAF
:100E30005E4F58874F83B297FA87E987405251092E
:100E40005C874B872C015BED451A5EEF550A5C0110
:100E5000E8EDAE1AEEEFBE0AF401E20FF31F0081D7
:100E6000002309F47CC031107AC069014FEFC41A25
:100E7000D40AD401AC0DBD1D6C910F3F09F047C0E1
:100E8000690152E0C50ED11CD401AC0DBD1D8C9181
:100E90006130C1F040F0623011F1633061F1ECEF8C
:100EA0003E2E9601D9CF690194E0C90ED11C238151
:100EB00090E0982F8827820F911DEB85FC85918308
:100EC0008083EFCF690144E0C40ED11C238190E000
:100ED000982F8827820F911DE985FA85F0CF690147
:100EE00044E0C40ED11C238190E0982F8827820F04
:100EF000911DF201E4CF690144E0C40ED11C2381AD
:100F000090E0982F8827820F911DF501D8CF0530EA
:100F100030F62E5F3F4FD401A20FB31FF301C02E56
:100F2000D12CCF01861997098C159D051CF48D9144
:100F30008193F7CFC20ED31EED81FE81E080F18058
:100F400010E030E020E0A301EF81F88580810E946D
:100F50005D06892B09F4A5CF7CEE372EA2CF832D19
:100F60002C960FB6F894DEBF0FBECDBFDF91CF91A8
:100F70001F910F91FF90EF90DF90CF90BF90AF90B7
:100F80009F908F907F906F905F904F903F900895CB
:100F9000EF92FF920F931F93AB01FC01EB5BFE4FAF
:100FA000E080F1808F5B9E4F06E010E020E030E0B3
:100FB00060EBFC0180810E945D06892B31F08CEE94
:100FC0001F910F91FF90EF90089580E0F9CFE0E33B
:100FD000F6E083819481A581B6810196A11DB11DA2
:100FE00083839483A583B6830895E3E6F6E0838143
:100FF0009481A581B6810196A11DB11D838394833F
:10100000A583B68308954F925F926F927F928F92DD
:101010009F92AF92BF92CF92DF92EF92FF92CF93C7
:10102000DF9300D000D000D0CDB7DEB74115510519
:1010300061057105B1F06A017B019E838D83FC011E
:10104000438454846584768420E030E0A901C301A0
:10105000B2010E94EC30811119C0ED81FE81168A27
:10106000158A26960FB6F894DEBF0FBECDBFDF916E
:10107000CF91FF90EF90DF90CF90BF90AF909F9077
:101080008F907F906F905F904F900895C701B60149
:101090000E94F1302FE632E143E85AE30E945231D8
:1010A0004B015C01ED81FE81C780D084E184F28434
:1010B000A7019601C301B2010E9464322B013C01D9
:1010C000ED81FE8123A134A145A156A10E94643285
:1010D000ED81FE812789308D418D528D0E945231E4
:1010E00069837A838B839C83ED81FE8163A574A5DC
:1010F00085A596A59B01AC010E9465329B01AC01C0
:10110000C701B6010E946432ED81FE8127A530A996
:1011100041A952A90E946532ED81FE81238D348D53
:10112000458D568D50580E945231A50194010E9460
:10113000D1326B017C0120E030E040EA50EC0E94AB
:10114000EC3087FD8EC020E030E040EA50E4C7017B
:10115000B6010E94793318160CF48AC0ED81FE8125
:10116000278D30A141A152A1C301B2010E94523189
:10117000A50194010E9452314B015C0120E030E056
:1011800040EA51EC0E94EC3087FD79C020E030E06D
:1011900040EA51E4C501B4010E94793318160CF4F9
:1011A00075C029813A814B815C81C501B4010E94DF
:1011B0006532A70196010E9465326B017C0120E037
:1011C00030E040EF51EC0E94EC3087FD66C020E03B
:1011D00030E040EF51E4C701B6010E9479331816A0
:1011E0000CF462C0ED81FE8127A130A541A552A576
:1011F000C701B6010E9465326B017C0120E030E03E
:10120000A9010E94EC3087FD56C020E030E04FE796
:1012100053E4C701B6010E94793318160CF44FC08D
:10122000ED81FE81C7A2D0A6E1A6F2A6C701B60154
:101230000E944333ED81FE81768B658B6F3F710594
:1012400019F014F06FEF70E077FF02C070E060E01B
:10125000ED81FE81768B658B43A254A265A276A2B6
:1012600000CFC12CD12C60EAE62E60ECF62E76CFB2
:10127000C12CD12C50EAE52E50E4F52E6FCF812CF5
:10128000912C40EAA42E41ECB42E8BCF812C912CD2
:1012900030EAA32E31E4B32E84CFC12CD12C20EF21
:1012A000E22E21ECF22E9ECFC12CD12C90EFE92E14
:1012B00091E4F92E97CFC12CD12C7601B1CFC12C5E
:1012C000D12C8FE7E82E83E4F82EAACF0F931F933B
:1012D000CF93DF938C01EB01FC0180811C161D066E
:1012E00094F070E060E0209771F00E94940266270D
:1012F00077276C1B7D0BF8018181DF91CF911F91C6
:101300000F910C9494020E94940270E060E0F3CF7D
:10131000CF92DF92EF92FF920F931F93CF93DF93C1
:10132000FC01C785D089C188D28803891489CC156E
:10133000DD05B1F525893689201B310B1216130600
:10134000ECF42B30310514F02AE030E0200F311F8F
:10135000348B238B83899489C89FB001C99F700DFA
:10136000D89F700D1124CF01DF91CF911F910F9164
:10137000FF90EF90DF90CF900C9466092115310516
:1013800049F3263F8FEF380744F031952195310915
:10139000021B130B148B038BDDCF2AE030E0F8CF58
:1013A0007C0120E030E040EA50E46781708581856F
:1013B00092850E94EC3087FF0CC00A3011054CF476
:1013C000C09FB001C19F700DD09F700D1124C70147
:1013D000CBCF0B301105B4F00A501109F701148B73
:1013E000038B8389948997FF02C0148A138AF701BB
:1013F00083899489C89EB001C99E700DD89E700DD6
:101400001124E5CF01501109E9CFCF93DF93EC010F
:101410001B861C861D861E86188A1F8670E060E06B
:101420000E9466091C8A1B8A1FA218A619A61AA662
:101430001E8A1D8A1BA21CA21DA21EA2DF91CF9193
:101440000895CF93DF93EC0161E088810E946302ED
:1014500061E089810E94630262E08A81DF91CF911D
:101460000C946302FC0101900020E9F73197AF0171
:10147000481B590BBC0189ED93E00C941A03CF93E0
:10148000DF930E944704EC0181E492E00E94320A5B
:101490008C0F9D1FDF91CF9108958F929F92AF92F5
:1014A000BF920F931F93CF93DF93CDB7DEB7A19772
:1014B0000FB6F894DEBF0FBECDBF19A2423008F4BC
:1014C0004AE08E010F5D1F4F842E912CB12CA12C70
:1014D000A50194010E94A733E62FB901CA01EA30A1
:1014E000F4F4E05DD801EE938D01232B242B252B02
:1014F00079F790E080E0109719F0CD010E94320A50
:10150000A1960FB6F894DEBF0FBECDBFDF91CF918D
:101510001F910F91BF90AF909F908F900895E95CBD
:10152000E1CFCF92DF92EF92FF92CF93DF936C01E6
:10153000990FEE08FF08F7FE1DC08DE20E946204BD
:10154000EC0166277727CB016C197D098E099F096D
:101550004AE00E944D0AC80FD91F81E492E00E9420
:10156000320A8C0F9D1FDF91CF91FF90EF90DF909B
:10157000CF9008954AE0C701B6010E944D0AEC01E0
:10158000ECCFCF92DF92EF92FF92CF93DF936C017B
:10159000990FEE08FF08F7FE17C08DE20E94620463
:1015A000EC0166277727CB016C197D098E099F090D
:1015B0004AE00E944D0A8C0F9D1FDF91CF91FF9052
:1015C000EF90DF90CF9008954AE0C701B601DF9118
:1015D000CF91FF90EF90DF90CF900C944D0A4F92F7
:1015E0005F926F927F928F929F92AF92BF92CF92B3
:1015F000DF92EF92FF920F931F93CF936B017C01C9
:10160000742EAC019B010E947E33882399F084E400
:1016100092E0CF911F910F91FF90EF90DF90CF90CC
:10162000BF90AF909F908F907F906F905F904F9002
:101630000C94320A46015701E894B7F82FEF3FEFB8
:101640004FE75FE7C501B4010E947E3381110DC0F1
:101650002FEF3FEF4FE75FE7C501B4010E94EC3089
:1016600018161CF488E492E0D4CF2FEF3FEF4FE739
:101670005FE4C701B6010E94793318161CF48CE4AC
:1016800092E0C7CF2FEF3FEF4FE75FECC701B60106
:101690000E94EC3087FDF3CF20E030E0A901C701C4
:1016A000B6010E94EC3010E000E087FF08C08DE238
:1016B0000E9462048C01F7FAF094F7F8F094C0E00D
:1016C00060E070E080E09FE37C1641F020E030E0D5
:1016D00040E251E40E94D132CF5FF6CFA7019601DC
:1016E0000E9465322B013C010E944A334B015C0190
:1016F0004AE00E944D0A7C01E00EF11ECC23B1F1BC
:10170000C501B4010E94F1309B01AC01C301B201DB
:101710000E9464324B015C018EE20E946204E80E7A
:10172000F91EC15018F120E030E040E251E4C5015B
:10173000B4010E9452312B013C010E944A334B01FB
:10174000B12CA12C4AE0C501B4010E944D0AE80E5B
:10175000F91EC501B4010E94F1309B01AC01C30127
:10176000B2010E9464324B015C01DBCFC701CF9113
:101770001F910F91FF90EF90DF90CF90BF90AF90AF
:101780009F908F907F906F905F904F9008954F92B1
:101790005F926F927F928F929F92AF92BF92CF9201
:1017A000DF92EF92FF920F931F93CF93DF93D82F87
:1017B0006A01480181E080930703D093E60210920A
:1017C0009D0310929C03D701ED91FC910190F08153
:1017D000E02DC7010995C7010E9473050E94F1021F
:1017E0002B013C0180917203811166C0C82D81E0FC
:1017F00080937203809374039FEF90937103109210
:101800009603980D90939503809397038091970387
:10181000DD0FD82BD093970380917303813009F0AB
:1018200086C0109273030E94F1022B013C0180914B
:1018300097038093BB008091290390912A03A09184
:101840002B03B0912C03892B8A2B8B2BA1F00E94A8
:10185000F1020091290310912A0320912B0330916A
:101860002C036419750986099709061717072807B5
:10187000390708F442C08091BC0083FDD8CF85ECC5
:101880008093BC000E94F1022B013C018091720305
:10189000813009F44EC0809196038C1710F4C091EA
:1018A0009603E5E7F3E0A8E0B3E080E08C1751F1A0
:1018B00091919D938F5FFACF8091290390912A0394
:1018C000A0912B03B0912C03892B8A2B8B2B09F42D
:1018D00089CF0E94F1020091290310912A032091DF
:1018E0002B0330912C036419750986099709061793
:1018F00017072807390708F075CF809128030E9441
:10190000CC04C0E010929F03C0939E038C0C9D1CDE
:10191000C814D90481F1D701ED91FC910284F385BB
:10192000E02DC7010995F60181936F01F1CF85EE96
:10193000A7CF8091290390912A03A0912B03B09106
:101940002C03892B8A2B8B2B09F4A0CF0E94F10248
:101950000091290310912A0320912B0330912C032D
:1019600064197509860997090617170728073907A3
:1019700008F08CCFC2CF90E080E0DF91CF911F9133
:101980000F91FF90EF90DF90CF90BF90AF909F901E
:101990008F907F906F905F904F9008952F923F921D
:1019A0004F925F926F927F928F929F92AF92BF926F
:1019B000CF92DF92EF92FF920F931F93CF93DF931B
:1019C000CDB7DEB72F970FB6F894DEBF0FBECDBFF1
:1019D0009C878B876D875F874E87390117012801A8
:1019E0002F82388649865A8610E000E0EE24E39480
:1019F000F12C0A151B0509F461C09E01295F3F4FB8
:101A0000B201A1018E859F850E9446014F815885B4
:101A100069857A854F3F2FEF52076207720709F4F5
:101A20009CC0DB01CA018C549F4FAF4FBF4FE6E013
:101A3000B695A79597958795EA95D1F7880F991F41
:101A4000880F991F835F9D4F21E0FC018081918168
:101A5000A281B381892B8A2B8B2B09F420E0FD8591
:101A6000F2137BC01A012B0133E05694479437944C
:101A700027943A95D1F7DB01CA0187709927AA27E5
:101A8000BB2726E0221631044104510468F4F30117
:101A9000E20DF31D970102C0220F331F8A95E2F772
:101AA000C9019081892B80831A012B013FEF231AF2
:101AB000330A430A530A0F5F1F4F9BCFB12CF40127
:101AC0002082318242825382B1102DC0B3018B85B6
:101AD0009C850E94C807B82E811125C0EB85FC8526
:101AE000EB5BFE4FE080F180EB85FC85EF5BFE4F0A
:101AF00006E010E020E030E0AE014F5F5F4F60EBAA
:101B000080810E94C70B892B11F09CEEB92EF30146
:101B1000DE011196C301069631912D91321320C03A
:101B2000E817F907C9F78B2D2F960FB6F894DEBF8B
:101B30000FBECDBFDF91CF911F910F91FF90EF901E
:101B4000DF90CF90BF90AF909F908F907F906F90DD
:101B50005F904F903F902F9008952EECB22EAFCF14
:101B60008EECB82EE0CFCF92DF92EF92FF920F93E0
:101B70001F93CF93DF9300D000D0CDB7DEB76A01BB
:101B8000FC01EB5BFE4FE080F1808F5B9E4F04E039
:101B900010E020E030E0AE014F5F5F4FFC0180813C
:101BA0000E94C70B49815A8154274527542770E06A
:101BB00060E0762F652F542F44272B81422B762F00
:101BC000652F542F44272C81422BF60140835183EB
:101BD00062837383892B71F480E00F900F900F90D4
:101BE0000F90DF91CF911F910F91FF90EF90DF90B9
:101BF000CF9008958CEEF1CFCF92DF92EF92FF92CB
:101C00000F931F93CF93DF9300D0CDB7DEB76A0158
:101C1000FC01EB5BFE4FE080F1808F5B9E4F02E0AA
:101C200010E020E030E0AE014F5F5F4FFC018081AB
:101C30000E94C70B29813A81322723273227F601D8
:101C400031832083892B61F480E00F900F90DF9126
:101C5000CF911F910F91FF90EF90DF90CF9008955B
:101C60008CEEF3CF0F931F93CF93DF9300D0CDB7BC
:101C7000DEB7FC01E253FF4F208121502330B8F43E
:101C80008C01AE014F5F5F4F6EE00E94FC0D811131
:101C900007C0AE014F5F5F4F6CE0C8010E94FC0DB2
:101CA0000F900F90DF91CF911F910F91089580E0D9
:101CB000F7CFEF92FF920F931F93CF93DF9300D054
:101CC000CDB7DEB78C017A016330710509F449C0E4
:101CD00090F46130710509F162307105E1F1F801AC
:101CE00081A992A9A3A9B4A9F70180839183A283B2
:101CF000B38380E049C06630710588F7AE014F5F5D
:101D00005F4F64E60E94FC0D81113EC0298180E096
:101D1000922F990FB0E0A0E0E7CFAE014F5F5F4F89
:101D200064E40E94FC0D81112FC0998120E0392FBD
:101D3000330FA90170E060E0232BD1F0F70140835D
:101D4000518362837383F80145AB56AB67AB70AFC9
:101D500091E096A319C0FC0181AD92ADA3ADB4ADE5
:101D6000C3CFFC01FD9680819181A281B381BCCF5C
:101D7000F80145A956A967A970ADF70140835183C1
:101D800062837383F80116A20F900F90DF91CF91B9
:101D90001F910F91FF90EF9008952F923F924F92D5
:101DA0005F926F927F928F929F92AF92BF92CF92EB
:101DB000DF92EF92FF920F931F93CF93DF93CDB7F4
:101DC000DEB7EC970FB6F894DEBF0FBECDBF6C0147
:101DD0005B01FC01EB5BFE4FE080F18034970CE08F
:101DE00010E020E030E0AE01465E5F4F64E18081AC
:101DF0000E94C70B892B09F06FC2D50156961C9221
:101E00005697F50110821182128213822CA130E0C4
:101E1000322F22276DA1260F311D14961D921D927F
:101E20001D921C921797E9A1F0E0FE2FEE27FF0FFD
:101E30002F01712C612C1C964D925D926D927C92BB
:101E40001F978BA190E0982F8827990FAC0170E025
:101E500060E050964D935D936D937C9353970C8DFA
:101E600010E0102F00278D8D7801E80EF11CFCAEDC
:101E7000EBAE5596FC92EE9254979A8CD601A75CE5
:101E8000BE4F4D915C9111975B978C90483E03E05B
:101E90005007E1F1249FC001259F900D349F900DC4
:101EA00011248C509E4F68EE73E00E9493339B0187
:101EB000D6015D96ED90FD900D911C9190975A96EC
:101EC0004C91442319F16BAD7CAD6E9DA0016F9DCB
:101ED000500D7E9D500D1124452F5527E417F50711
:101EE00041F420EE3AE8882009F407C128EB32E2F9
:101EF00010C0DF010E94553283017F01E41AF50A08
:101F000001091109A80197010E94A733882009F44B
:101F1000F4C0C9019695879596958795D501199630
:101F20009C938E9318972295220F220F207C579610
:101F30002C931FA61EA6892D90E07C0173E0F594DA
:101F4000E7947A95E1F7FAAEE9AE09AD0F70902EFD
:101F500009F4D8C089AD8D7011E018AB853029F037
:101F600084EF800F843008F018AA41E06FEFC601BB
:101F70000E94C806811107C0AE01425D5F4F66EB4B
:101F8000C6010E94FC0D9EA520E0392F330F790178
:101F900010E000E0E9AAFAAA0BAB1CAB811105C066
:101FA00040E06FEFC6010E94C806F601EE5CFE4FEE
:101FB000E9A8FAA80BA91CA9E082F1820283138385
:101FC00081117FC1D60195968C909597882009F450
:101FD000A5C0F501E484F584068517855A968C9191
:101FE00020E030E0A901882399F0A489B589F601A1
:101FF000258D368D478D50A10E9413329B01AC0177
:1020000020583F4F4F4F5F4F232F342F452F5527D9
:102010002E0D3F1D401F511FA8EEB3E00E9413324A
:1020200070588F4F9F4FBC0188279927F601E65DB6
:10203000FE4F672B682B692B09F067C08EEA97E883
:10204000AFE8B2E080839183A283B3831EEAE12EDE
:1020500017E8F12E0FE812E0EDAAFEAA0FAB18AFB9
:10206000D5011B961C921E921A97AE01465D5F4FDA
:1020700070E060E0C6010E94590E4AA55BA56CA500
:102080007DA5411551056105710559F0FF24F394B3
:102090000DA91EA92FA938AD401751076207730774
:1020A00008F0F12C212C312C81110FC1D60197960B
:1020B0003C903320A9F1AE014A5D5F4F62E070E0D1
:1020C000C6010E94590E4EA15FA168A579A54115D0
:1020D00051056105710559F0EE24E39409A91AA987
:1020E0002BA93CA9401751076207730708F0E12CA0
:1020F0008823B9F0212C90E046C0F5013187208774
:10210000178A17CF01E008AB30CF108211821282FC
:1021100013821DAA1EAA1FAA18AEA2CFF12CC6CFE9
:10212000E12CD60198962C90222009F4AAC00BAD80
:102130001CAD0115110509F4A0C0962D852D742D37
:102140006627980150E040E00E94A73329013A0138
:10215000AE014F5F5F4F63E070E0C6010E94590E11
:1021600049815A816B817C81411551056105710559
:1021700031F091E0441655066606770608F090E0C7
:10218000882309F47FC0D5011B961C921E921A97D2
:1021900080E0811002C0FF24F394F60136A1F3A67B
:1021A000F4E09F1609F4B2C021E0311120E0D6011D
:1021B0009C962C93311002C0EE24E394F601E5A620
:1021C000211001C091E0D6019E969C93F501808F6D
:1021D000FAE4CF0ED11C99E1F601DE0111960190CF
:1021E0000D929A95E1F7F501A085B1859789028551
:1021F0001385448455846684778440895189628933
:1022000073892489358984809580A680B7808D82E2
:102210009E82AF82B886BA87A9871C870B874D86B6
:102220005E866F86788A498B5A8B6B8B7C8B3E8B54
:102230002D8B988F898F89E1FE013196D60101900F
:102240000D928A95E1F780E0EC960FB6F894DEBF28
:102250000FBECDBFDF91CF911F910F91FF90EF90F7
:10226000DF90CF90BF90AF909F908F907F906F90B6
:102270005F904F903F902F900895412C512C320148
:1022800067CF90E018A98FEF113009F482CF890D44
:102290008330F0F026E0921609F139E09316F1F060
:1022A00089AD8D708830B1F041E0E41699F054E0CA
:1022B000951621F19130E9F0F416E9F09F2DEF2CFD
:1022C00062CF212C312C812CF12C90E0E12C5BCFC2
:1022D00085E05FCF83E05DCF8CEEB6CF84E08110E8
:1022E0005CCFD60196963C91969721E09B962C93D5
:1022F0005BCF82E0F4CFE92E81E0F1CF82E0811064
:102300004CCF81E0F60183A7E12C82E021E04FCFA2
:102310008F929F92AF92BF92CF92DF92EF92FF92F5
:102320000F931F93CF93DF9300D0CDB7DEB7962ED8
:10233000D42E822EFC01EF5BFE4FC0805C012BEBA4
:10234000A21A2EEFB20AF501E080F18001E010E060
:1023500020E030E0AE014E5F5F4F8C2D0E94C70B36
:10236000892BA9F42A812D2128292A83F501E080CF
:10237000F180298301E010E020E030E0AE014F5F02
:102380005F4F692D8C2D0E945D06892B81F08CEEAC
:102390000F900F90DF91CF911F910F91FF90EF90D1
:1023A000DF90CF90BF90AF909F908F90089580E086
:1023B000EFCFEF92FF920F931F93FC01EB5BFE4F69
:1023C000E080F1808F5B9E4F01E010E020E030E084
:1023D000FC0180810E94C70B892B31F08CEE1F918C
:1023E0000F91FF90EF90089580E0F9CF9F92AF9208
:1023F000BF92CF92DF92EF92FF920F931F93CF93F2
:10240000DF931F92CDB7DEB77C015B016A01922E8C
:10241000198241E06FEF0E94C806182F40E060E08B
:10242000C7010E94C806182B40E06FEFC7010E9449
:10243000C806182B992031F0A5016BECC7010E944A
:10244000D911182B002341F0AE014F5F5F4F6EEEA4
:10245000C7010E94D911182B41E06FEFC7010E94FC
:10246000C806182B41E060E0C7010E94C806182B7F
:1024700040E06FEFC7010E94C80699819F7EF60178
:102480009083812B0F90DF91CF911F910F91FF903F
:10249000EF90DF90CF90BF90AF909F900895EF9214
:1024A000FF920F931F93CF93DF931F92CDB7DEB7A9
:1024B0007C0100E041E06BE0C7010E94C806182FD4
:1024C00040E06BE0C7010E94C806182BAE014F5FC9
:1024D0005F4F63E1C7010E94D911812B0F5F998182
:1024E000977061F0033061F0882321F30F90DF9142
:1024F000CF911F910F91FF90EF9008950330B1F7A6
:1025000084EFF4CF0F931F93CF93DF931F92CDB738
:10251000DEB78A01AE014F5F5F4F613081F060E549
:102520000E94D911811105C099819F5F990FF8010F
:1025300090830F90DF91CF911F910F91089560E7E5
:10254000EFCFCF92DF92EF92FF921F93CF93DF9363
:102550001F92CDB7DEB77C0140E063E80E94C80659
:10256000182F811117C0D12CC12CAE014F5F5F4FC6
:1025700063E8C7010E94D911182F898181110AC00F
:10258000111108C08FEFC81AD80A88ECC816D104F8
:1025900061F719EF41E063E8C7010E94C806812B8B
:1025A0000F90DF91CF911F91FF90EF90DF90CF9030
:1025B00008950F931F93CF93DF931F92CDB7DEB78C
:1025C0008B01FC01E253FF4F2081AE014F5F5F4F53
:1025D0002430A1F463E10E94D9119981292F277039
:1025E000987109F08AEF243089F491E0F801908322
:1025F0000F90DF91CF911F910F91089564E10E9498
:10260000D9118111F5CF998190FDEFCFF80110829A
:10261000EFCFEF92FF920F931F93CF93DF931F9211
:10262000CDB7DEB77C01198210E000E0BE016F5F1C
:102630007F4FC7010E94D91281110CC0998191303E
:1026400049F00F5F1F4F083C110519F00E941E0151
:10265000EDCF89EF0F90DF91CF911F910F91FF90F8
:10266000EF900895CF93DF93EC01462F416060E037
:102670000E94C806811111C0CE010E940913811168
:102680000CC0CE010E944F12811107C040E060E0F3
:10269000CE01DF91CF910C94C806DF91CF910895C0
:1026A000CF92DF92EF92FF920F931F93CF93DF931E
:1026B0001F92CDB7DEB78C01FC01F08841E060E8E5
:1026C0000E94C80641E06FEFC8010E94C80640E0C2
:1026D00060E0C8010E94C806F801E95DFE4F408134
:1026E00061E9C8010E94C80641E060E0C8010E949B
:1026F000C80640E06FEFC8010E94C80640E060E8ED
:10270000C8010E94C806F1E0FF16F1F1FF1630F093
:1027100093E0F91609F44AC088EF0CC041E060E08C
:10272000C8010E94C80691E09983C12CD12C760182
:10273000882389F00F90DF91CF911F910F91FF9027
:10274000EF90DF90CF900895AE014F5F5F4F60E054
:10275000C8010E94D911EFEFCE1ADE0AEE0AFE0A76
:10276000998190FF0AC0811108C0F8ECCF16D104FE
:10277000E104F10449F789EFDDCF98ECC916D104E3
:10278000E104F104B9F6F7CF811103C0C8010E943A
:10279000320E42E060E0C8010E94C8068111CACF33
:1027A000F801E15EFE4F94E09083C4CF811103C035
:1027B000C8010E94320E44E0EDCFAF92BF92DF928B
:1027C000EF92FF920F931F93CF93DF93CDB7DEB7B6
:1027D00069970FB6F894DEBF0FBECDBF8C015B01C9
:1027E0007C0183EEE81A8EEFF80AF701D08040EC06
:1027F00061E0C8010E94C80681113CC0F801108A3E
:10280000C8010E945013811135C0C8010E940913EC
:10281000811130C083E0F801E15EFE4F8083BE018C
:102820006F5F7F4FC8010E94CD0E811123C0C80188
:102830000E944F1281111EC041E06FEFC8010E943B
:10284000C806811117C0A50166EBC8010E94FC0DE6
:10285000811110C040E06FEFC8010E94C8068111CD
:1028600009C04D2D61E0C8010E94C806811102C057
:10287000F701D08269960FB6F894DEBF0FBECDBFC8
:10288000DF91CF911F910F91FF90EF90DF90BF905C
:10289000AF9008950F931F93CF93DF931F92CDB7FF
:1028A000DEB78B011982AE014F5F5F4F61E00E947E
:1028B000D911811116C0998194FB332730F9F801A1
:1028C000308393FB332730F9328392FB332730F97F
:1028D000318396FB222720F92383991F9927991F7B
:1028E00094830F90DF91CF911F910F9108952F92B4
:1028F0003F924F925F926F927F928F929F92AF9290
:10290000BF92CF92DF92EF92FF921F93CF93DF930C
:10291000CDB7DEB72B970FB6F894DEBF0FBECDBF95
:102920006C011A011B861F821E82623009F06EC084
:10293000AE01465F5F4F60E00E948212182F811146
:1029400008C0AE01455F5F4F66E4C6010E94D91121
:10295000182FAA85B0E020E03FE24AE350E00E9451
:1029600013322B013C0124EF420E21E0521E611C68
:10297000711CCB84D12CF12CE12C8FEFC81AD80A12
:10298000E80AF80A98EE892E93E0992EA12CB12C32
:10299000C301B201A50194010E94A733CA01B90184
:1029A000A70196010E9483336B017C01C301B20130
:1029B00020ED37E040E050E00E94A733C701B601A8
:1029C000620F731F841F951FA50194010E94A733F6
:1029D000F1012083318342835383812F2B960FB6DD
:1029E000F894DEBF0FBECDBFDF91CF911F91FF9056
:1029F000EF90DF90CF90BF90AF909F908F907F909F
:102A00006F905F904F903F902F900895633009F042
:102A100043C0AE01465F5F4F60E00E948212182FF4
:102A200020E030E0A9018111D3CFAE01465F5F4FB6
:102A300060E0C6010E948212182F811108C0AE0109
:102A40004A5F5F4F61E5C6010E94FC0D182FEE81C1
:102A5000FF81AA85B0E020E03FE24AE350E00E9417
:102A600013322B013C0124EF420E21E0521E611C67
:102A7000711C6F01DD24F12CE12C04C0CC0CDD1C99
:102A8000EE1CFF1CFA95D2F78FEFC81AD80AE80A95
:102A9000F80AEE24FF2476CFBE016F5F7F4F0E94BD
:102AA0004A148C81882351F1AE01465F5F4F60E08C
:102AB000C6010E948212182FF12CE12C81111BC03B
:102AC000AE014A5F5F4F61E5C6010E94FC0D182F01
:102AD0002E813F81C9019927B0E0A0E004C0880F92
:102AE000991FAA1FBB1F3A95D2F70196A11DB11DD0
:102AF0007C01112329F0D12CC12C25C0F12CE12C13
:102B0000AE01465F5F4F61E0C6010E948212182F3E
:102B10008111F1CFAE01485F5F4F61E7C6010E94AE
:102B2000FC0D182F28853985C9019927B0E0A0E050
:102B300004C0880F991FAA1FBB1F3A95D2F70196B0
:102B4000A11DB11D6C01AA85B0E020E03FE24AE37F
:102B500050E00E9413322B013C01E4EF4E0EE1E005
:102B60005E1E611C711C88EE882E83E0982EA12CBD
:102B7000B12CC301B201A50194010E94A733D60173
:102B8000AE19BF090E9413320FCF4F925F926F921E
:102B90007F92BF92CF92DF92EF92FF920F931F939B
:102BA000CF93DF9300D000D0CDB7DEB78A01AE015E
:102BB0004F5F5F4F0E947714B82E81112AC0698140
:102BC0007A818B819C8128EE422E23E0522E612C4B
:102BD000712CA30192010E94A73369017A019B0124
:102BE000AC01AFEFBFEF0E9413326C507E4F8F4F9E
:102BF0009F4FA30192010E94A7337601DD24CC24CC
:102C0000C20ED31EE41EF51EF801C082D182E282FC
:102C1000F3828B2D0F900F900F900F90DF91CF913B
:102C20001F910F91FF90EF90DF90CF90BF907F901A
:102C30006F905F904F9008955F926F927F928F9206
:102C40009F92AF92BF92CF92DF92EF92FF920F933B
:102C50001F93CF93DF93CDB7DEB761970FB6F8948C
:102C6000DEBF0FBECDBF7C018B01FC018089FB0163
:102C70008083AE014A5F5F4F68EFC7010E94FC0D81
:102C8000582E81113AC1AE014F5F5F4F64E0C7011A
:102C90000E94B30D582E811130C12E813F81211524
:102CA000310569F050E040E069817A818B819C8137
:102CB0000E94A733F8012683378340875187F801A4
:102CC00086819781A085B185F701868B978BA08F30
:102CD000B18FF8011286AE014F5F5F4F60E2C7010E
:102CE0000E94FC0D582E811108C189819A8100979C
:102CF00009F01AC1F701858D968DA78DB0A1F80155
:102D000085879687A787B08BF701128EAE014F5F3C
:102D10005F4F68E2C7010E94FC0D582E8111EDC083
:102D200089819A819F708115F8E09F0708F0905182
:102D30004AEF489F9001499F300D1124C901330F7C
:102D4000AA0BBB0BF801818B928BA38BB48B580120
:102D5000F1E2AF0EB11C470125E2820E911C380151
:102D600085E1680E711CD12CC12CA501B601C701EB
:102D70000E94590E582E8111C0C0F40181914F015B
:102D8000F30181933F01FFEFCF1ADF0A24E0A20E87
:102D9000B11C86E0C816D10441F7AE014F5F5F4F0A
:102DA00061E0C7010E94D911582E8111A6C0898106
:102DB000F701E35EFE4F808387FFCAC081E0F80120
:102DC00081AFF80181ADF701E75BFF4F808380EDB4
:102DD00097E0A0E0B0E08A879B87AC87BD871E8222
:102DE0001F821886198686E39BE0A0E0B0E0F80118
:102DF00082839383A483B583BE016F5F7F4FC70136
:102E00000E944A14582E811178C08981811107C00F
:102E10008A81811104C08B81882309F43EC0AE01F0
:102E2000465F5F4F62E0C7010E9477148111C1C005
:102E300089818823A9F08A859B85AC85BD85825BC5
:102E40009D4FAF4FBF4FF80142815381648175811F
:102E5000840F951FA61FB71F82839383A483B58316
:102E60008B81882309F477C08A859B85AC85BD85D5
:102E70008E549D4FAF4FBF4F880F991FAA1FBB1F86
:102E8000F8014281538164817581840F951FA61FCB
:102E9000B71F82839383A483B5838C81811168C01B
:102EA0008D81882301F1AE01425F5F4F64E0C7016D
:102EB0000E9477148E849F84A888B988F6E28F0ECA
:102EC000F2E09F1EA11CB11CF80142815381648174
:102ED0007581480D591D6A1D7B1D42835383648390
:102EE0007583811166C0F80182819381A481B581C7
:102EF000F701828B938BA48BB58B852D61960FB6D2
:102F0000F894DEBF0FBECDBFDF91CF911F910F911F
:102F1000FF90EF90DF90CF90BF90AF909F908F90F9
:102F20007F906F905F90089533E0880F991F3A95D6
:102F3000E1F7B0E0A0E0F80185879687A787B08B1E
:102F4000F701858F968FA78FB0A381E0828FDECEA9
:102F5000F80111AE36CF8A81882309F49ECF8A8585
:102F60009B85AC85BD858C569D4FAF4FBF4F88CF9D
:102F7000AE014A5F5F4F63E0C7010E9477148E8005
:102F80009F80A884B984F4E98F0EF2E09F1EA11CF3
:102F9000B11CF8014281538164817581480D591D2E
:102FA0006A1D7B1D4283538364837583882309F4E0
:102FB00077CF582EA2CF2F923F924F925F926F926F
:102FC0007F928F929F92AF92BF92CF92DF92EF92B9
:102FD000FF920F931F93CF93DF93CDB7DEB769971F
:102FE0000FB6F894DEBF0FBECDBF00ED17E020E0B6
:102FF00030E00B871C872D873E871F86188A198A29
:103000001A8A40322EE4520761057105E0F45CEF44
:10301000B52E8B2D69960FB6F894DEBF0FBECDBFCF
:10302000DF91CF911F910F91FF90EF90DF90CF90A4
:10303000BF90AF909F908F907F906F905F904F90D8
:103040003F902F9008954E8B5F8B688F798F8C0106
:10305000BE016A5F7F4F0E944A14B82E8111D9CFFA
:10306000CE88DF88E88CF98C88EEC81A88E0D80A08
:10307000E108F1088E81811106C08F81811103C0A2
:1030800088858823C1F1AE01455F5F4F62E0C801CA
:103090000E94771481110AC18E81882391F08B855B
:1030A0009C85AD85BE85825B9D4FAF4FBF4F8C1514
:1030B0009D05AE05BF0508F0AACFC81AD90AEA0ACD
:1030C000FB0A8885882309F471C08B859C85AD85B2
:1030D000BE858E549D4FAF4FBF4F880F991FAA1FBB
:1030E000BB1F8C159D05AE05BF0508F090CFC81A13
:1030F000D90AEA0AFB0A89858823D9F0AE01415F23
:103100005F4F63E0C8010E9477144F855889698931
:103110007A894C565D4F6F4F7F4F4C155D056E059C
:103120007F0508F074CF8111C1C0C41AD50AE60A20
:10313000F70A8A85882309F46CCFBE016F5F7F4F41
:10314000C8010E944A148C818823E9F1AE014B5ECC
:103150005F4F60E0C8010E948212B82E81111CC02E
:10316000AE014D5E5F4F61E5C8010E94FC0DB82EB7
:103170008B899C891C013324512C412C04C0220CC6
:10318000331C441C551C9A95D2F79FEF291A390A13
:10319000490A590ABB20C9F08E899F89A88DB98D2B
:1031A000F801828B938BA48BB58B33CF8F818823CF
:1031B00009F4A1CF8B859C85AD85BE858C569D4F2E
:1031C000AF4FBF4F8ECF312C212CAE014B5E5F4FE6
:1031D00061E0C8010E948212B82E8111DDCFA6E203
:1031E000CA1AA2E0DA0AE108F108AD89B0E020E0ED
:1031F0003FE24AE350E00E9413324B015C01B4EF1E
:103200008B0EB1E09B1EA11CB11CA8EEB3E0A70180
:1032100096010E9413322B013C01C501B40120ED3F
:1032200037E040E050E00E94A733420E531E641E78
:10323000751EC501B40128EE33E040E050E00E9465
:10324000A733C301B2010E94A733220E331E2114FB
:103250003104E1F04101B12CA12CE1E08E1A91087A
:10326000A108B10890E080E0B501A4014427452BF6
:10327000462B472B31F0B694A794979487940196E8
:10328000F3CF982F88271C01280C391CA10161E776
:10329000C8010E949E06B82E81117ECFF801E1532D
:1032A000FF4FC082D182E282F38276CFB82EB1CEB8
:1032B0007F928F929F92AF92BF92CF92DF92EF92C6
:1032C000FF920F931F93CF93DF931F92CDB7DEB77B
:1032D0007C015B016A01722E4C0183EE881A8EEF2D
:1032E000980AF4011081198241E061E0C7010E944F
:1032F000C80681114AC060E4C7010E9432138111DF
:1033000044C0F1E07F121AC000E021E0AE014F5F3F
:103310005F4FB501C7010E94F611882389F00F9015
:10332000DF91CF911F910F91FF90EF90DF90CF90A1
:10333000BF90AF909F908F907F900895F50110827D
:1033400042E061E0C7010E94C806811124C060E02C
:10335000C7010E94321381111EC0F1E07F1218C014
:1033600001E020E0A601BE016F5F7F4FC7010E9410
:10337000F6118111D4CF412F61E0C7010E94C80628
:103380008111CDCFF4011083CACFF5011082C7CFD0
:10339000F6011082F0CFF601F9CF2F923F924F92B3
:1033A0005F926F927F928F929F92AF92BF92CF92D5
:1033B000DF92EF92FF920F931F93CF93DF93CDB7DE
:1033C000DEB7AC970FB6F894DEBF0FBECDBF1C01C1
:1033D0007FA36EA359A748A71F82188619861A864D
:1033E0001B861C861D861E86198A1A8AFC01E85DCA
:1033F000FE4F20813181398F288FAC014F5E5E4FA7
:103400005B8F4A8FDA011C922C01BEEE4B1ABEEF85
:103410005B0AF20110823C01FDEE6F1AFEEF7F0A9B
:10342000D3011C92FC01EC5EFE4F1082319610829B
:103430003196108241E06FEF0E94C8068B8B81119C
:103440001DC140E06FE4C1010E94C8068B8B811151
:1034500015C14CE26EE4C1010E94C8068B8B81113C
:103460000DC140E06FEFC1010E94C8068B8B811136
:1034700005C144EB66EBC1010E94C8068B8B81112C
:10348000FDC040E060E8C1010E94C8068B8B81113D
:10349000F5C020E0AE014E5E5F4FBE016F5E7F4F14
:1034A000C1010E9458198B8B8111E8C01F821886B8
:1034B00019861A86F101E95EFE4FFD8FEC8F9E01A1
:1034C000295F3F4F4901A3E0AA2EB12CC12CD12C7A
:1034D000E12CF12C87012A8D3B8DAF0160E0C10109
:1034E0000E94CE0C8B8B8111C9C04F815885698594
:1034F0007A854C8B5D8B6E8B7F8BBE01615F7F4FBE
:10350000C1010E94DD138B8B8111B8C08F85988912
:10351000688D798D6817790708F0D3C0AA8DBB8DA7
:103520001C92F2011082D3011C92329610823196C5
:103530001082319610828C899D89AE89BF898C5406
:103540009F4FAF4FBF4FE6E0B695A79597958795EC
:10355000EA95D1F7880F991F880F991F835F9D4FB8
:10356000FC0180819181A281B381892B8A2B8B2BD5
:1035700091F42C893D894E895F892C3231054105B2
:10358000510548F42F5F3F4F4F4F5F4F2C8B3D8BC2
:103590004E8B5F8BD0CFAE01495F5F4F4A0173E026
:1035A000A72EB12CC12CD12CEC88FD880E891F8947
:1035B0002A8D3B8D4C8D5D8D61E0C1010E94CE0C4A
:1035C000811159C16F81788589859A856C8B7D8B36
:1035D0008E8B9F8BBE01615F7F4FC1010E94DD1307
:1035E000811149C18F859889A88DB98D11E063E05B
:1035F000462E512C612C712CA817B90720F010E031
:10360000412C512C3201C12CD12C7601C39460C0C5
:10361000D501C4010196A11DB11D8C8B9D8BAE8B74
:10362000BF8B86E0EAA5FBA5ACA5B02F01900D925B
:103630008A95E1F74E8C5F8C68A079A04AA35BA3C2
:103640006CA37DA36FC04E8C5F8C68A079A0AEA1E7
:10365000BFA14D925D926D927C921397E8A5F9A55A
:103660001083F101EC5FFE4F81E0808332978C91F3
:103670008083A8A5B9A58C91319680838B89AC965F
:103680000FB6F894DEBF0FBECDBFDF91CF911F9173
:103690000F91FF90EF90DF90CF90BF90AF909F90F1
:1036A0008F907F906F905F904F903F902F900895F4
:1036B000BEECBB8BE3CFEEECEB8BE0CFFEECFB8BF9
:1036C000DDCF10E0412C512C3201C12CD12C7601E0
:1036D0008F859889288D398D8217930708F0B7CF89
:1036E00046E0EA8DFB8D9E012F5F3F4FD90101908F
:1036F0000D924A95E1F7E88DF98D8E1B9F0BAC0179
:1037000070E060E04AA35BA36CA37DA353E0452E69
:10371000512C612C712CB1016F5E7E4F7BA76AA783
:103720002CA7032F9E01255F3F4F4C895D896E8931
:103730007F898C8D9D8D0E9446018B849C84AD84F5
:10374000BE847FEF87169706A706B70609F4B0CFA9
:10375000D301C2010196A11DB11D8E8F9F8FA8A319
:10376000B9A3D501C4018C549F4FAF4FBF4F36E072
:10377000B695A795979587953A95D1F7880F991F94
:10378000880F991F835F9D4F11E0FC01808191811B
:10379000A281B381892B8A2B8B2B09F410E0812F16
:1037A00090E0B0E0A0E08C159D05AE05BF0509F0E6
:1037B00082CFD501C40123E0B695A795979587954B
:1037C0002A95D1F7B501A4014770552766277727B9
:1037D00086309105A105B10508F070CFEA8DFB8D0B
:1037E000E80FF91F21E030E001C0220F4A95EAF707
:1037F0008081822B80836A8D7B8DC1010E94C807E6
:10380000811139C0BE01615F7F4FC1010E94DD138C
:10381000811131C08F859889288D398DAC01421B6B
:10382000530B8217930711F450E040E070E060E022
:10383000A88DB98DA817B90708F0EACE8AA19BA177
:10384000ACA1BDA184179507A607B70708F0FBCE6A
:10385000BE016F5F7F4FC1010E94C80796E0FE0165
:103860003196D101AF5EBE4F01900D929A95E1F76E
:10387000882309F4ECCE8B8B01CF9F92AF92BF923D
:10388000CF92DF92EF92FF920F931F93CF93DF932C
:10389000CDB7DEB7A0970FB6F894DEBF0FBECDBF91
:1038A0006C012FEDC20ED11CF601A080F7E0F12CC7
:1038B000AF1609F4EEC0B62E8C0141E060E80E941C
:1038C000C806F82E41E06FEFC8010E94C806F82A2A
:1038D00040E060E0C8010E94C806F82A46E06FEFA9
:1038E000C8010E94C806F82AAE01425E5F4F63E835
:1038F000C8010E94D911F82A4E8D446063E8C801BE
:103900000E94C806F82A47E06FEFC8010E94C80667
:10391000F82A41E061E8C8010E94C806F82A0E941E
:103920001E01F82A41E060E8C8010E94C806F82A92
:1039300021E0B212C1C0A0FC02C24BE664E9C8019A
:103940000E94C806E82EC8010E94A1128E29F82AFA
:10395000AE01465E5F4F60E9C8010E94B30DF82AD0
:103960008A8D9B8DAC8DBD8D992EE89497F897FB31
:10397000EE24E0F844E264E9C8010E94C806F82A8F
:10398000C8010E94A112F82AAE01465E5F4F60E9AD
:10399000C8010E94B30DF82A8A8D9B8D2C8D3D8D18
:1039A0003C8B2D8B9E8B8F8B45E264E9C8010E9476
:1039B000C806F82AC8010E94A112F82AAE01465E84
:1039C0005F4F60E9C8010E94B30DF82A8C8D9D8D70
:1039D000988F898F40E061E8C8010E94C806F82AE4
:1039E00046E06FEFC8010E94C806F82AAE01425EA9
:1039F0005F4F63E8C8010E94D911F82A4E8D4B7FB2
:103A000063E8C8010E94C806F82A41E06FEFC801C8
:103A10000E94C806F82A41E060E0C8010E94C8067A
:103A2000F82A40E06FEFC8010E94C806F82A40E07B
:103A300060E8C8010E94C806F82A59F5F1E0BF16EF
:103A400099F0A1FC23C0F801E052FF4F8F8D8083D5
:103A5000319688A18083BE016F5F7F4FC8018E5170
:103A60009F4F0E94CE3512C0A0FC10C0F801EE5F3F
:103A7000FE4F90823196E082DE0154967496035E8A
:103A80001E4F8D9181930E171F07D9F7BA28F601A3
:103A9000B0828F2DA0960FB6F894DEBF0FBECDBFBB
:103AA000DF91CF911F910F91FF90EF90DF90CF901A
:103AB000BF90AF909F900895A1FC41C142E064E99E
:103AC000C8010E94C806E82EC8010E94A1128E29D2
:103AD000F82AAE01415E5F4F60E9C8010E94D9112A
:103AE000F82A4BE764E9C8010E94C806F82AC80111
:103AF0000E94A112F82AAE01405E5F4F60E9C80142
:103B00000E94D911F82A47E764E9C8010E94C80653
:103B1000F82AC8010E94A112F82AAE01465E5F4F42
:103B200060E9C8010E94B30DF82A4A8D5B8D6C8D47
:103B30007D8DDB01CA0129E1B695A79597958795FB
:103B40002A95D1F78983DB01CA0132E1B695A795A1
:103B5000979587953A95D1F78F778A83DB01CA01CC
:103B6000EBE0B695A79597958795EA95D1F78F776E
:103B70008B83DB01CA01F4E0B695A79597958795ED
:103B8000FA95D1F78F778C83440F440F440F487711
:103B90004E8F48E764E9C8010E94C806F82AC801A8
:103BA0000E94A112F82AAE01465E5F4F60E9C8018B
:103BB0000E94B30DF82A8A8D9B8DAC8DBD8DAC0112
:103BC000BD012DE176956795579547952A95D1F7D3
:103BD0002E8D240F2D83AC01BD0136E176956795BE
:103BE000579547953A95D1F74F774E83AC01BD0174
:103BF000EFE07695679557954795EA95D1F74F771A
:103C00004F83292F2F772887AC01BD0176956795C3
:103C1000579547954F774987982F9295990F990F08
:103C200090749E8F49E764E9C8010E94C806F82A8B
:103C3000C8010E94A112F82AAE01465E5F4F60E9FA
:103C4000C8010E94B30DF82A8A8D9B8DAC8DBD8D65
:103C5000AC01BD012AE176956795579547952A9560
:103C6000D1F72E8D240F2A87AC01BD0133E1769563
:103C70006795579547953A95D1F74F774B87AC01A4
:103C8000BD01ECE07695679557954795EA95D1F794
:103C90004F774C87AC01BD01F5E076956795579558
:103CA0004795FA95D1F74F774D87982F990F990F30
:103CB0009C779E8F4AE764E9C8010E94C806F82AEB
:103CC000C8010E94A112F82AAE01465E5F4F60E96A
:103CD000C8010E94B30DF82A8A8D9B8DAC8DBD8DD5
:103CE000AC01BD012EE176956795579547952A95CC
:103CF000D1F72E8D240F2E87AC01BD0137E17695CB
:103D00006795579547953A95D1F74F774F872A2F63
:103D10002F77288BAC01BD01E9E076956795579523
:103D20004795EA95D1F74F77498BF2E0B695A7957D
:103D300097958795FA95D1F78F778A8B1B8AE12C17
:103D4000912C48CECF93DF93EC0188819981009725
:103D500011F00E946B34198218821D821C821B8212
:103D60001A82DF91CF9108950F931F93CF93DF9322
:103D70008C01EB01FC01808191810097E1F0688169
:103D8000798161157105A9F0428153812C813D81B2
:103D90004217530770F00E94CE358C819D81F80147
:103DA000958384831D821C82DF91CF911F910F9197
:103DB00008950E946B3488819981F80191838083F2
:103DC0008A819B81938382838C819D819583848367
:103DD000198218821B821A82E5CFFC0180819181B1
:103DE000009711F00C946B340895FC01808191814F
:103DF000009711F00C943B2F60E070E0CB01089528
:103E00000F931F93CF93DF93EC01888199810097E3
:103E100059F02A813B812617370730F081E0DF9186
:103E2000CF911F910F9108958B016F5F7F4F0E947B
:103E3000F434009759F0998388831B830A832C817B
:103E40003D81232B59F7FC011082E8CF80E0E7CFBA
:103E5000EF92FF920F931F93CF93DF93EC017B01BF
:103E60008A01BA010E94001F81110BC0CE010E947D
:103E7000A21ECE01DF91CF911F910F91FF90EF9085
:103E800008951D830C83B701888199810E94CE35E6
:103E9000F0CF50E040E063E472E00C94281FAF9252
:103EA000BF92CF92DF92EF92FF920F931F93CF9327
:103EB000DF93EC016B015A0179012417350720F4D7
:103EC0008B2D5901E42EF82E198218821B821A823A
:103ED0001D821C82CE010E94491FD60114960D91AD
:103EE0001C91A016B10628F5E016F10608F487012A
:103EF000D601ED91FC911197E00FF11FF080108237
:103F00006D917C916A0D7B1D61157105F1F0FB01CE
:103F100001900020E9F73197AF01461B570BCE0106
:103F20000E94281FF60180819181080F191FD80176
:103F3000FC92CE01DF91CF911F910F91FF90EF90F6
:103F4000DF90CF90BF90AF900895CE010E94A21E47
:103F5000E9CF85ED8093BC008091290390912A03DD
:103F6000A0912B03B0912C030796A11DB11D23E056
:103F7000B695A795979587952A95D1F72091BC007E
:103F800024FD03C0109272030895409129035091BB
:103F90002A0360912B0370912C03452B462B472B52
:103FA00069F30097A105B10541F02AE22A95F1F7DE
:103FB00000C00197A109B109E1CF809128030C94B9
:103FC000CC041F920F920FB60F9211242F933F93A0
:103FD0008F939F93AF93BF938091D5039091D60316
:103FE000A091D703B091D8033091D00323E0230FE1
:103FF0002D3758F50196A11DB11D2093D003809354
:10400000D5039093D603A093D703B093D8038091A0
:10401000D1039091D203A091D303B091D403019620
:10402000A11DB11D8093D1039093D203A093D3031C
:10403000B093D403BF91AF919F918F913F912F91F6
:104040000F900FBE0F901F90189526E8230F029631
:10405000A11DB11DD2CF1F920F920FB60F92112446
:104060002F933F934F935F936F937F938F939F9380
:10407000AF93BF93EF93FF93E0910502F091060297
:104080000995FF91EF91BF91AF919F918F917F9192
:104090006F915F914F913F912F910F900FBE0F90B5
:1040A0001F9018951F920F920FB60F9211242F9305
:1040B0003F934F935F936F937F938F939F93AF93B0
:1040C000BF93EF93FF93E0910302F09104020995EF
:1040D000FF91EF91BF91AF919F918F917F916F91E0
:1040E0005F914F913F912F910F900FBE0F901F90B6
:1040F00018951F920F920FB60F9211242F933F9392
:104100004F935F936F937F938F939F93AF93BF93DF
:10411000EF93FF9389ED93E00E94D803FF91EF9115
:10412000BF91AF919F918F917F916F915F914F91CF
:104130003F912F910F900FBE0F901F9018951F92D7
:104140000F920FB60F9211242F938F939F93EF939B
:10415000FF93E091E903F091EA038081E091EF039E
:10416000F091F00382FD1BC090818091F2038F5F7C
:104170008F732091F303821741F0E091F203F0E096
:10418000E752FC4F958F8093F203FF91EF919F913F
:104190008F912F910F900FBE0F901F9018958081D7
:1041A000F4CF1F920F920FB60F9211242F933F93CB
:1041B0004F935F936F937F938F939F93AF93BF932F
:1041C000EF93FF938091B900887F803609F44AC04D
:1041D000F0F5883209F4A7C018F5803109F49BC0C6
:1041E000B8F4882309F4F9C0883009F494C0FF9129
:1041F000EF91BF91AF919F918F917F916F915F915F
:104200004F913F912F910F900FBE0F901F901895D7
:10421000883109F488C0803251F78093710314C04B
:10422000803409F49DC040F48033B9F38833F9F643
:104230008093710385ECB0C0803509F485C0883562
:1042400009F496C0883499F60E94A91FD0CF883906
:1042500009F48CC038F5883729F050F4883611F00D
:10426000803729F683E0809372031092700357C061
:10427000883809F47BC0803919F0803809F0B7CF4D
:1042800080917003803208F071C0E091700381E08A
:104290008E0F809370038091BB00F0E0E05BFC4FD9
:1042A00080833DC0803B39F0E0F4803A09F479C066
:1042B000883A09F09CCF84E08093720310924F03F8
:1042C00010924E03E0919A03F0919B03099580911F
:1042D0004E0381110FC081E080934E0310922E0394
:1042E00009C0803C09F4A6CF883C09F4A3CF883BE1
:1042F00009F07DCFE0914F0381E08E0F80934F0353
:10430000F0E0E25DFC4F80818093BB0090914F0311
:1043100080914E0329C0809197038093BB0085EC68
:104320008093BC0064CF9091960380919503981779
:1043300058F5E091960381E08E0F80939603F0E0AC
:10434000EB58FC4F8081E9CFE091960381E08E0F1E
:10435000809396038091BB00F0E0EB58FC4F808384
:1043600090919603809195039817C8F285E8D8CF6D
:10437000E091960381E08E0F809396038091BB00BD
:10438000F0E0EB58FC4F80838091740381115CCF87
:1043900081E08093730384EA8093BC0010927203DF
:1043A00026CF85EC8093BC0010927203809170033D
:1043B000803230F4E0917003F0E0E05BFC4F10825B
:1043C0006091700370E0E0919803F091990380E5AB
:1043D00093E00995109270030ACF1092710334CFC5
:1043E0000F931F93E9EDF3E01382128288EE93E0BE
:1043F000A0E0B0E084839583A683B78321E232E016
:104400003183208325EC30E03587248724EC30E0AD
:104410003787268720EC30E0318B208B21EC30E091
:10442000338B228B22EC30E0358B248B26EC30E072
:10443000378B268B118E128E138E148EE6E7F4E0E6
:104440001382128284839583A683B78383E392E0E9
:1044500091838083E3E6F6E000E010E020E83EE3AD
:10446000078B108F218F328F138E148E158E168E20
:104470004DEC5CEC6CEC7DE3478F50A361A372A321
:1044800085E0808386E0818382E0828313821482C8
:104490001582168213861486158616861782108654
:1044A00011861286148A138A168A158A108A17862C
:1044B00081E090E0928B818B13A614A615A616A618
:1044C00017A610AA11AA12AA13A214A215A216A224
:1044D00017A210A611A612A6E0E3F6E0078B108F34
:1044E000218F328F138E148E158E168E478F50A308
:1044F00061A372A32BE020832AE0218323E022839F
:1045000013821482158216821386148615861686E7
:104510001782108611861286148A138A168A158AC3
:10452000108A1786928B818B13A614A615A616A641
:1045300017A610AA11AA12AA13A214A215A216A2B3
:1045400017A210A611A612A68EEA91E0E2E8F4E006
:10455000DF019C011D9221503040E1F783E894E097
:104560009093CB058093CA051F910F910895CF9327
:10457000DF93CDB7DEB7CF54D1090FB6F894DEBFC5
:104580000FBECDBF789484B5826084BD84B5816050
:1045900084BD85B5826085BD85B5816085BD80910E
:1045A0006E00816080936E00109281008091810086
:1045B000826080938100809181008160809381007E
:1045C000809180008160809380008091B100846040
:1045D0008093B1008091B00081608093B0008091A1
:1045E0007A00846080937A0080917A008260809360
:1045F0007A0080917A00816080937A0080917A00BD
:10460000806880937A001092C100E091E903F091F4
:10461000EA0382E08083E091E503F091E6031082F3
:10462000E091E703F091E80380E180831092F103C9
:10463000E091ED03F091EE0386E08083E091EB03DF
:10464000F091EC03808180618083E091EB03F09135
:10465000EC03808188608083E091EB03F091EC03B0
:10466000808180688083E091EB03F091EC0380818E
:104670008F7D808383EF90E00E943F0A83E696E07F
:104680000E94210A80E396E00E94210A809165063B
:10469000823009F440C1833009F03FC181E065EF09
:1046A00077E00E94C70180913206823009F437C159
:1046B000833009F036C181E067EE77E00E94C701E0
:1046C00044E650E060E070E04093F3015093F40161
:1046D0006093F5017093F6018AE090E0A0E0B0E00D
:1046E0008093F7019093F801A093F901B093FA0138
:1046F0004093FB015093FC016093FD017093FE0118
:104700008093FF0190930002A0930102B0930202F4
:10471000E091CA05F091CB05EF5BFE4F89E2808303
:10472000E091CA05F091CB05EE5BFE4F81E08083FE
:10473000E091CA05F091CB05ED5BFE4F80E991E079
:1047400091838083E091CA05F091CB05EB5BFE4F2E
:1047500086E794E09183808310929F0310929E03DA
:1047600010929D0310929C030E94AE0486E193E098
:1047700090939B0380939A0387E193E0909399032E
:104780008093980321E04EEF69E883E894E00E946B
:104790008811811106C040E068E883E894E00E9437
:1047A000C806AE01455C5F4F60EC83E894E00E9470
:1047B000D9111092620588EE93E09093BD05809325
:1047C000BC0580E991E09093BF058093BE0585E824
:1047D0009BE6A1E0B0E08093C0059093C105A09353
:1047E000C205B093C30584EA90E7A9E0B0E08093E6
:1047F0004B0590934C05A0934D05B0934E05109238
:10480000A0041092A1041092A2041092A304BE016D
:104810006F5F7F4F83E894E00E941C16082F811180
:104820000BC019821A828AE3FE013196A3E9B4E033
:1048300001900D928A95E1F784E690E09093A505AA
:104840008093A40584E893E09093A7058093A60540
:1048500084EF91E09093A9058093A80580E09AE009
:104860009093AC058093AB0581E08093BB0541E05C
:1048700060E883E894E00E94C806182F41E06FEFDB
:1048800083E894E00E94C806182B102B40E060E0FB
:1048900083E894E00E94C806182BAE014F5B5F4F7F
:1048A00061E983E894E00E94D911182B22968FAD1C
:1048B00022978093AA0541E060E083E894E00E949B
:1048C000C806182B40E06FEF83E894E00E94C8060A
:1048D000182B40E060E883E894E00E94C806912F1E
:1048E000982B10E000E0FF24F3949111A0C1033055
:1048F000110509F4A4C0BCF40130110519F102300E
:10490000110509F499C0F092A804F801EE57FB4F85
:10491000F6A280E02DC080E0C2CE8FEFC0CE80E056
:10492000CBCE8FEFC9CE0430110509F48BC020E047
:104930004FEE0530110539F760E683E894E00E94F8
:10494000881114C04091B8045091B9046091BA0420
:104950007091BB04E9E07695679557954795EA9580
:10496000D1F764E483E894E00E949E06882369F20C
:104970000F5F1F4F982F0630110509F0B6CF811138
:104980006EC01092AA041092AB0422E04EEF60E6D3
:1049900083E894E00E948811811161C01092AC04F8
:1049A00020E14FEE60E683E894E00E9488118111D7
:1049B00056C01092AD0480E090E0A2E1B0E0809398
:1049C000B4049093B504A093B604B093B704809157
:1049D000A90481113AC080E090E4A0E0B0E08093A7
:1049E000B8049093B904A093BA04B093BB0480E0D8
:1049F00090E0A3E2B0E08093BC049093BD04A09348
:104A0000BE04B093BF041092C0041092C10410926F
:104A1000C2041092C3048FEF8093A0054FEF61E0B2
:104A200083E894E00E94C80691E09093A20581116A
:104A300016C01092870513C0F092AA0466CFF092B8
:104A4000AB0463CF20E04EEF77CF40E250E064E468
:104A500083E894E00E949E06882309F4BCCF8093EB
:104A6000820449E26AE88091CA059091CB050E94D0
:104A7000C806809382040E94F1026B017C016AE007
:104A8000862E912CA12CB12C0E94F1026C197D096B
:104A90008E099F09683E734081059105A8F321E0C6
:104AA000821A9108A108B10838EEC30E33E0D31E74
:104AB000E11CF11C81149104A104B10429F7809137
:104AC00082048111B6C0E091CA05F091CB05EF5B7D
:104AD000FE4F89E2808362E083E894E00E943D1CFF
:104AE000882309F4ABC08093820481110BC08091AC
:104AF0002D06813021F480912E06813019F08BEF44
:104B000080938204809182048111F5C06090CA056F
:104B10007090CB0529961FAE1EAE299760961FAEEA
:104B200060972F961FAE2F9725961CAE1DAE1EAE1A
:104B30001FAE259761E0C3010E943D1CF301EE5FAB
:104B4000FE4F4080A42CB12CD12CC12C319650802A
:104B500051E0551508F4C1C05512B8C081E2A8163D
:104B6000B104C104D10408F0B8C041E06FEFC30143
:104B70000E94C80681111AC040E06FE4C3010E9480
:104B8000C806811113C04CE26EE4C3010E94C8063E
:104B900081110CC040E06FEFC3010E94C806811173
:104BA00005C044EB66EBC3010E94C80693012F5E6B
:104BB0003E4FD9011C92F301EE5EFE4F10823196FA
:104BC0001082319610823196108231961082E12C3B
:104BD000F12C8701552009F417C1D801C7018C5465
:104BE0009F4FAF4FBF4F46E0B695A79597958795D6
:104BF0004A95D1F7880F991F880F991F835F9D4FA2
:104C0000FC0180819181A281B381892B8A2B8B2B1E
:104C100009F0FAC0FCE2EF16F1040105110509F4F0
:104C2000F3C04FEFE41AF40A0F4F1F4FD6CF892F6E
:104C300016CF82EC90E00E943F0AFFCF809163057F
:104C400081112CC063E472E08CE096E00E94CE35C6
:104C500060E572E08CEC95E00E94CE3569E872E088
:104C60008CEE95E00E94CE354CE256E060EC83E895
:104C700094E00E94D911811136CFAE014F5F5F4F92
:104C800062EC83E894E00E94D91191E090932D06A4
:104C9000998192959F7090932E0625CF109164056F
:104CA00065E675E08CE096E00E94CE35112381F236
:104CB000133238F46CE572E0103261F668E672E0A7
:104CC000C9CF64E772E0173228F6F8CF9DE0A91645
:104CD000B104C104D10408F448CFAE01425B5F4F78
:104CE000BE016F5B7F4FC3010E94CD19882309F479
:104CF000A0C0809382048091820481110EC0AE0115
:104D0000495B5F4FBE016F5F7F4F8091CA059091F5
:104D1000CB050E94CD198093820480918204811179
:104D20000FC021E0AE01455C5F4FBE016F5B7F4F5E
:104D30008091CA059091CB050E94581980938204F6
:104D400080918204811175CFE091CA05F091CB0565
:104D5000108AE091CA05F091CB05FF24F394F5A2E7
:104D60000091CA051091CB05F80145A956A967A97C
:104D700070AD99E076956795579547959A95D1F7D7
:104D800064E4C8010E949E06811103C0D801969672
:104D9000FC928093820481114CCFE091CA05F0917E
:104DA000CB0581E080A7E091CA05F091CB05FD9687
:104DB00084ED98E0A0E0B0E080839183A283B38388
:104DC00080918204811135CFE091CA05F091CB0525
:104DD00083E0808BC090CA05D090CB05AE01455CC6
:104DE0005F4F68EFC6010E94FC0D882309F43CC1A7
:104DF0008093820480918204882309F46DC183EA40
:104E000090E00E943F0AFFCFCE0101964C01A30122
:104E1000495E5E4F652DC3010E94CE0C811166CFA5
:104E200081E0F301EC5FFE4F808332974082319640
:104E30005082F301E85CFE4F808160E071E08111F7
:104E400003C0329760817181C3010E94F006811115
:104E500050CF44E06AE0C3010E94C806811149CFE7
:104E600020E04FEE64E8C3010E948811811141CF18
:104E700084E0F301E253FF4F8083C3010E944F128D
:104E8000811137CF41E06FEFC3010E94C806182F90
:104E9000AE01495B5F4F64E8C3010E94FC0D182B13
:104EA00040E06FEFC3010E94C806812B09F021CFBB
:104EB000F301E853FF4F29968EAD9FAD299724E06B
:104EC000880F991F2A95E1F7B0E0A0E080839183D5
:104ED000A283B383BE016F5F7F4FC3010E941C1684
:104EE000811107CFAE01415B5F4F69E0C3010E94B2
:104EF000D9118111FECE60968FAD6097817060965A
:104F00008FAF6097F301E25EFE4F80838AE3FE017C
:104F10003196D301509601900D928A95E1F7AE013A
:104F2000415B5F4F61E0C3010E94D9118111E1CE65
:104F30008301035E1E4F60968FAD6097D8018C93FE
:104F40001BAEAE01455C5F4F61E0C3010E94D91109
:104F50009BAD8111CECEF92EE894F4F894FF13C0E6
:104F60004F2D61E0C3010E94C8068111C2CEF80135
:104F7000F082D30152964D915D916D917C91559740
:104F8000C3010E94DB171BAEAE01455C5F4F61E0C1
:104F9000C3010E94D9119BAD8111ABCEF92EE894CB
:104FA000F2F892FF13C04F2D61E0C3010E94C806C2
:104FB00081119FCEF801F082D30152964D915D91FF
:104FC0006D917C915597C3010E94DB1783E0F3013B
:104FD000E15EFE4F8083AE01435B5F4F60E0C30143
:104FE0000E948212811185CE2E968FAD2E97F301ED
:104FF000E852FF4F8083AE01435B5F4F61E0C30126
:105000000E948212811175CE2E968FAD2E97F301DC
:10501000ED52FF4F8083AE01455C5F4F63E0C301FB
:105020000E94C515811165CE8BAD9CADADADBEADF9
:10503000F301EC52FF4F80839183A283B383AE01CF
:10504000455C5F4F64E0C3010E94C515811151CEDC
:10505000F301E153FF4F4BAD5CAD6DAD7EAD4083D1
:1050600051836283738345CE2BAD3CAD64E670E023
:1050700080E02115310521F0A4E6B0E00E94553210
:10508000F601EF5BFE4F90813496E080F1806C83F7
:105090007B838A83198204E010E020E030E0AE01D7
:1050A0004F5F5F4F64E0892F0E945D06892B11F0EE
:1050B0008CEE9ECE84E690E0A0E0B0E0F601868B18
:1050C000978BA08FB18F109282048091CA05909126
:1050D000CB050E9450138CCE81E090E09093C703E3
:1050E0008093C60384EE90E00E943F0A812C912CAD
:1050F00080E7A82E82E4B82E1E01FFE12F0E311C9E
:105100009E012F5F3F4F29018901D80111961C9202
:105110001E9213961C921E92129715961C921E9226
:105120001497C8010E94491F0A5F1F4F20163106BD
:1051300061F789ED93E00E94B803892B09F42DC132
:1051400029961FAE1EAE29972B961FAE1EAE2B972B
:105150002D961FAE1EAE2D97CE01895B9F4F0E94EC
:10516000491F0E946A032D960EAD1FAD2D9797FD26
:1051700020C08BAF1CAE0F5F1F4FB801CE01895B03
:105180009F4F0E94001F882361F329962EAD3FADEB
:1051900029972D968EAD9FAD2D97BE01655C7F4FF3
:1051A000820F931F0E94CE352D961FAF0EAF2D9705
:1051B000D8CF2996CEACDFAC2997C114D10429F001
:1051C00076010115110509F0FFC32D968EAD9FAD37
:1051D0002D9710E0892B09F467C081E992E00E94C5
:1051E000320A2D964EAD5FAD2D9729966EAD7FADEF
:1051F000299789ED93E00E941A0381E492E00E94CE
:10520000320A23961FAE1EAE239725961FAE1EAE02
:10521000259727961FAE1EAE279729966EAD7FADB8
:1052200029976115710509F40BC42D964EAD5FAD3C
:105230002D97CE018F5B9F4F0E94281FF12CE12CF0
:1052400027966EAC7FAC27972396CEACDFAC239726
:105250006114710461F06AE370E0C6010E94BA351E
:10526000009729F08C010C191D0917FFF1C326E0E6
:105270002E9DC0012F9D900D1124E1E0F0E0EC0F78
:10528000FD1F8E0F9F1F23966EAD7FAD2397611577
:10529000710509F4DAC3A3010E94281FCE018F5BB8
:1052A0009F4F0E94ED1E11E0CE01895B9F4F0E942F
:1052B000ED1E112309F471C08D819E81892B09F4A3
:1052C0006CC009811A8164EA72E0C8010E94C53588
:1052D000892B09F049C48F819885009709F4F2C39E
:1052E0000E943F2F8B018D859E85009709F4EEC3A8
:1052F0000E943F2F3B0182E090E09093C703809390
:10530000C603B801012E000C880B990B0E94F330E4
:105310006B017C0120E030E0A9010E94793318166E
:105320000CF0D8C3C0926E06D0926F06E092700661
:10533000F092710681E090E090937306809372067C
:10534000B301072C000C880B990B0E94F3306B0102
:105350007C0120E030E0A9010E94793318160CF09E
:10536000DEC3C0923B06D0923C06E0923D06F0922E
:105370003E0681E090E09093400680933F068DEAE0
:1053800092E00E94320AC8010E94910A85EC92E0E4
:105390000E94320AC3010E94910ACE0149960E94DE
:1053A000ED1ECE0143960E94ED1ECE010D960E9489
:1053B000ED1ECE0107960E94ED1ECE0101960E94C1
:1053C000ED1E8FB7F894C090D503D090D603E0902F
:1053D000D703F090D8038FBFC092CC03D092CD03F7
:1053E000E092CE03F092CF038091A2039091A303A9
:1053F000A091A403B091A503C81AD90AEA0AFB0A2E
:105400008091F3019091F401A091F501B091F60122
:10541000C816D906EA06FB0608F41CC1C114D1045B
:10542000E104F10409F454C0F894609166067091A7
:105430006706809168069091690610926606109240
:1054400067061092680610926906789400918E069D
:1054500010918F062091900630919106009392064C
:1054600010939306209394063093950600916A0654
:1054700010916B0620916C0630916D0600938E069C
:1054800010938F0620939006309391060E94F1307E
:1054900020E030E040EA51E40E94D13220E030E6E2
:1054A0004AE657E40E9452312B013C01C701B60184
:1054B0000E94F1309B01AC01C301B2010E94D132C4
:1054C00060936A0670936B0680936C0690936D06EA
:1054D000C090CC03D090CD03E090CE03F090CF03EA
:1054E0008091A2039091A303A091A403B091A5037E
:1054F000C81AD90AEA0AFB0A09F454C0F894609160
:1055000033067091340680913506909136061092DC
:1055100033061092340610923506109236067894AF
:1055200000915B0610915C0620915D0630915E064D
:1055300000935F0610936006209361063093620625
:1055400000913706109138062091390630913A06BD
:1055500000935B0610935C0620935D0630935E0615
:105560000E94F13020E030E040EA51E40E94D13264
:1055700020E030E64AE657E40E9452312B013C011C
:10558000C701B6010E94F1309B01AC01C301B20119
:105590000E94D132609337067093380680933906A3
:1055A00090933A061982BE016F5F7F4F8091CA05C2
:1055B0009091CB050E94D91280938204811103C07F
:1055C00089818130B9F5BE016F5F7F4F8091CA0537
:1055D0009091CB050E94CD0E80938204998D90937B
:1055E0002F06811108C08091CA059091CB050E94B9
:1055F0004F12809382048091820481110EC38091A6
:105600002F06843009F409C389859A858F3F98074E
:1056100009F403C39093A1038093A0038091A00396
:105620009091A10301968739910508F0F9C281E0B4
:105630008093C5038091CC039091CD03A091CE03BC
:10564000B091CF038093A2039093A303A093A403EC
:10565000B093A5034090CC035090CD036090CE034F
:105660007090CF038091AA039091AB03A091AC03FB
:10567000B091AD03B301A201481B590B6A0B7B0B20
:105680008091F7019091F801A091F901B091FA0190
:10569000481759076A077B0708F47FC08EE00E940D
:1056A0000C027C0181E051E0E516F10409F080E094
:1056B0008093B6038FE00E940C028C0181E00130E0
:1056C000110509F080E08093B50380E10E940C028F
:1056D00021E08130910509F020E02093B403A1E09E
:1056E000EA16F10431F00130110519F0019709F0C3
:1056F0009EC24092B0035092B1036092B203709286
:10570000B303B1E0EB16F10409F08DC201301105CD
:1057100009F48DC20FEF1FEF1093AF030093AE0398
:105720008091BB039091BC030817190761F0109397
:10573000BC030093BB034092B7035092B80360923E
:10574000B9037092BA03EA94EF2809F490C28091E9
:10575000B50381118CC28091B403882309F487C2F8
:105760008091A6039091A703A091A803B091A903EB
:105770000097A105B10509F067C24092A6035092B7
:10578000A7036092A8037092A9034092AA035092C3
:10579000AB036092AC037092AD03C090CC03D09089
:1057A000CD03E090CE03F090CF038091BD039091A4
:1057B000BE03A091BF03B091C00326013701481A70
:1057C000590A6A0A7B0A8091FB019091FC01A09121
:1057D000FD01B091FE01481659066A067B06F0F0FD
:1057E0008091C6039091C703009709F449C20197BD
:1057F00009F45FC2B301A20183E696E00E940308A8
:10580000B301A20180E396E00E940308C092BD03A9
:10581000D092BE03E092BF03F092C0038091C10317
:105820009091C203A091C303B091C403B701A60134
:10583000481B590B6A0B7B0B8091FF019091000272
:10584000A0910102B0910202481759076A077B072D
:1058500080F083E696E00E94880980E396E00E944B
:105860008809C092C103D092C203E092C303F092B0
:10587000C4038091C8039091C903A091CA03B09159
:10588000CB03C81AD90AEA0AFB0A58EEC51653E038
:10589000D506E104F10408F489C081E891E00E9492
:1058A0003F0A85E791E00E9447048091C6039091EA
:1058B000C7030E94910A83E691E00E944704809109
:1058C0007606909177060E94C10A8FE20E946204D8
:1058D00080917806909179060E94C10A8FE20E9419
:1058E000620460916A0670916B0680916C069091DB
:1058F0006D0642E00E94EF0A81E492E00E94320AC3
:1059000080E591E00E94470480914306909144060F
:105910000E94C10A8FE20E94620480914506909124
:1059200046060E94C10A8FE20E9462046091370617
:10593000709138068091390690913A0642E00E94B3
:10594000EF0A81E492E00E94320A8EE00E940C028B
:10595000019709F087C283E491E00E943F0A8FE03B
:105960000E940C02019709F080C287E291E00E9438
:105970003F0A8DE091E00E9447048091C50388238F
:1059800009F476C289E091E00E943F0A8091CC033D
:105990009091CD03A091CE03B091CF038093C80323
:1059A0009093C903A093CA03B093CB0380E090E027
:1059B000892B09F4A5CB0E94C403882309F49CCB4E
:1059C0000E94000099CB73013701BFEF6B1A7B0A6D
:1059D000F7018081082E000C990B0E94CB30892B97
:1059E00091F7015011090C0D1D1DD8018C91082E45
:1059F000000C990B0E94CB30892B31F00E151F053E
:105A000018F001501109F1CFA8014F5F5F4F4E19F7
:105A10005F092D965FAF4EAF2D97CE14DF0420F4B3
:105A2000B701C6010E94B1352996EEADFFAD2997A9
:105A30002D968EAD9FAD2D97E80FF91F1082C5CB27
:105A4000F12CE12C712C612C12CC0E94A21E26CCD0
:105A5000980150E040E0BE016F5B7F4FCE01CB96D6
:105A60000E944F1FBE01655C7F4FC2010E94B41EA1
:105A7000CE01CB960E94ED1E27962EAD3FAD279707
:105A8000A8014F5F5F4FBE016F5B7F4FCE01CB968A
:105A90000E944F1FBE01655C7F4FCE018F5B9F4F01
:105AA0000E94B41ECE01CB960E94ED1EFFEFEF1AAE
:105AB000FF0A26E0420E511C35E0E316F10409F01E
:105AC000BFCBECCB60E070E0CB010CCC60E070E0D1
:105AD000CB0110CC20E030E0A901C701B6010E9443
