:100000000C94E4000C94A3080C947C080C940C0150
:100010000C940C010C940C010C940C010C940C012C
:100020000C940C010C940C010C940C010C940C011C
:100030000C940C010C940C010C940C010C940C010C
:100040000C9432080C940C010C94F0080C94CA081F
:100050000C940C010C940C010C940C010C940C01EC
:100060000C940C010C940C014E414E494E495459CC
:10007000494E46CDCCCC3D0AD7233C17B7D1387773
:10008000CC2B329595E6241FB14F0A000020410089
:1000900000C84200401C4620BCBE4CCA1B0E5AAED3
:1000A000C59D7441726475696E6F204F4E4C494E08
:1000B000450041726475696E6F20426F6F74696E9E
:1000C000672E2E2E00436F6D6D616E642072656326
:1000D00065697665643A20006E6F004F62737461E3
:1000E000636C653F2000202D2000202D20006F6EC6
:1000F0002D6C696E653F3A2000202F206375725F7A
:1001000052504D2000202F207467745F64757479FD
:100110002000526967687420776865656C20647593
:1001200074793A2000202F206375725F52504D2061
:1001300000202F207467745F6475747920004C650B
:10014000667420776865656C3A206375725F6475C4
:100150007479200044726976656D6F64653A200099
:100160003D3D3D3D3D3D3D3D3D3D00000000002409
:100170000027002A0000000000250028002B0000B6
:1001800000000023002600290004040404040404E1
:100190000402020202020203030303030301020436
:1001A00008102040800102040810200102040810F9
:1001B0002000000008000201000003040700000006
:1001C000000000000000220911241FBECFEFD8E07C
:1001D000DEBFCDBF23E0A6E7B1E001C01D92A03293
:1001E000B207E1F711E0A0E0B1E0E4EBFCE202C00D
:1001F00005900D92A637B107D9F710E0C4EED0E014
:1002000004C02197FE010E942316C33ED107C9F7FF
:100210000E94240A0C9458160C9400008230C8F4F2
:10022000E82FF0E0EE0FFF1FE05FFE4F7183608369
:10023000813041F0809169008C7F826080936900F9
:10024000E89A089580916900837F886080936900AF
:10025000E99A0895833081F028F4813099F0823052
:10026000A9F008958730A9F08830C9F08430B1F43E
:10027000809180008F7D03C0809180008F77809374
:100280008000089584B58F7784BD089584B58F7DEF
:10029000FBCF8091B0008F778093B000089580915C
:1002A000B0008F7DF9CFCF93DF93282F30E0F90195
:1002B000EF54FE4F8491F901E356FE4FD491F901BA
:1002C000E757FE4FC491CC23A1F081110E942A016F
:1002D000EC2FF0E0EE0FFF1FE158FE4FA591B49117
:1002E000EC91ED2381E090E009F480E0DF91CF9183
:1002F000089580E090E0FACF1F93CF93DF93282FEB
:1003000030E0F901EF54FE4F8491F901E356FE4FBE
:10031000D491F901E757FE4FC491CC23A9F0162FD1
:1003200081110E942A01EC2FF0E0EE0FFF1FEB5825
:10033000FE4FA591B4918FB7F894EC91111108C0BC
:10034000D095DE23DC938FBFDF91CF911F9108956D
:10035000DE2BF8CFCF93DF9390E0FC01E356FE4F06
:10036000249187579E4FFC0184918823D1F090E01F
:10037000880F991FFC01E559FE4FA591B491FC012E
:10038000EB58FE4FC591D491623071F49FB7F89449
:100390003C91822F809583238C93E8812E2B288398
:1003A0009FBFDF91CF9108958FB7F894EC912E2BDA
:1003B0002C938FBFF6CF1F93CF93DF93182FEB01B2
:1003C00061E00E94AA01209739F460E0812FDF915B
:1003D000CF911F910C947C01CF3FD10511F461E0C6
:1003E000F5CFE12FF0E0EF54FE4FE491E33031F12F
:1003F00040F4E130B1F0E230E1F0C038D1057CF7F3
:10040000E4CFE73029F1E83059F1E430B1F78091D9
:100410008000806280938000D0938B00C0938A001C
:1004200004C084B5806884BDC7BDDF91CF911F91A2
:10043000089584B5806284BDC8BDF7CF80918000E7
:10044000806880938000D0938900C0938800EDCFAE
:100450008091B00080688093B000C093B300E5CF76
:100460008091B00080628093B000C093B400DDCF73
:100470003FB7F8948091EF019091F001A091F101C4
:10048000B091F20126B5A89B05C02F3F19F0019647
:10049000A11DB11D3FBFBA2FA92F982F8827BC01DE
:1004A000CD01620F711D811D911D42E0660F771F06
:1004B000881F991F4A95D1F708950895AF92BF926A
:1004C000CF92DF92EF92FF920F931F93CF93DF9320
:1004D0006C017B018B01040F151FEB015E01AE184F
:1004E000BF08C017D10759F06991D601ED91FC9171
:1004F0000190F081E02DC6010995892B79F7C5019E
:10050000DF91CF911F910F91FF90EF90DF90CF90EF
:10051000BF90AF900895FC01538D448D252F30E09E
:10052000842F90E0821B930B541710F0CF96089500
:1005300001970895FC01918D828D981761F0A28D2D
:10054000AE0FBF2FB11D5D968C91928D9F5F9F73F3
:10055000928F90E008958FEF9FEF0895FC01918DA9
:10056000828D981731F0828DE80FF11D858D90E016
:1005700008958FEF9FEF0895FC01918D228D892FB3
:1005800090E0805C9F4F821B91098F73992708959B
:1005900083EF91E00E94BC0221E0892B09F420E066
:1005A000822F089580E090E0892B29F00E94C802F4
:1005B00081110C9400000895FC01A48DA80FB92F9F
:1005C000B11DA35ABF4F2C91848D90E001968F737B
:1005D0009927848FA689B7892C93A089B1898C919A
:1005E000837080648C93938D848D981306C00288E9
:1005F000F389E02D80818F7D80830895EF92FF92B3
:100600000F931F93CF93DF93EC0181E0888F9B8D35
:100610008C8D98131AC0E889F989808185FF15C0EF
:100620009FB7F894EE89FF896083E889F989808112
:100630008370806480839FBF81E090E0DF91CF91E1
:100640001F910F91FF90EF900895F62E0B8D10E003
:100650000F5F1F4F0F731127E02E8C8D8E110CC072
:100660000FB607FCFACFE889F989808185FFF5CFBD
:10067000CE010E94DC02F1CFEB8DEC0FFD2FF11DBE
:10068000E35AFF4FF0829FB7F8940B8FEA89FB89FA
:1006900080818062CFCF0F931F93CF93DF938C0124
:1006A000D0E0C0E0F801EC0FFD1F6491662341F03B
:1006B00083EF91E00E94FE02892B11F02196F2CF88
:1006C000CE01DF91CF911F910F910895682F83EF95
:1006D00091E00C94FE02CF93DF93EC01888D882388
:1006E000B9F0AA89BB89E889F9898C9185FD03C095
:1006F000808186FD0DC00FB607FCF7CF8C9185FF7A
:10070000F2CF808185FFEDCFCE010E94DC02E9CFE0
:10071000DF91CF9108954F925F926F927F928F9267
:100720009F92AF92BF92CF92DF92EF92FF92CF93C0
:10073000DF9300D000D000D0CDB7DEB74115510512
:1007400061057105B1F06A017B019E838D83FC0117
:10075000478C50A061A072A020E030E0A901C30145
:10076000B2010E945D13811119C0ED81FE8112A6B4
:1007700011A626960FB6F894DEBF0FBECDBFDF914F
:10078000CF91FF90EF90DF90CF90BF90AF909F9070
:100790008F907F906F905F904F900895C701B60142
:1007A0000E9462132FE632E143E85AE30E94C3132A
:1007B0004B015C01ED81FE81C388D488E588F68811
:1007C000A7019601C301B2010E9404152B013C014F
:1007D000ED81FE8127A930AD41AD52AD0E940415D7
:1007E000ED81FE8123A534A545A556A50E94C3131E
:1007F00069837A838B839C83ED81FE81FF96608180
:100800007181828193819B01AC010E9405159B013E
:10081000AC01C701B6010E940415ED81FE81ED5BBC
:10082000FF4F20813181428153810E940515ED8166
:10083000FE8127A530A941A952A950580E94C3138F
:10084000A50194010E9471156B017C0120E030E04C
:1008500040E450EC0E945D1387FD8EC020E030E044
:1008600040E450E4C701B6010E94191618160CF4B2
:100870008AC0ED81FE8123A934A945A956A9C301E7
:10088000B2010E94C313A50194010E94C3134B013E
:100890005C0120E030E040EA51EC0E945D1387FDEE
:1008A00078C020E030E040EA51E4C501B4010E9484
:1008B000191618160CF474C029813A814B815C8199
:1008C000C501B4010E940515A70196010E940515F6
:1008D0006B017C0120E030E040E252EC0E945D13AD
:1008E00087FD65C020E030E040E252E4C701B60178
:1008F0000E94191618160CF461C0ED81FE8123AD1B
:1009000034AD45AD56ADC701B6010E9405156B016A
:100910007C0120E030E0A9010E945D1387FD55C0F5
:1009200020E030E04FE753E4C701B6010E941916FA
:1009300018160CF44EC0ED81FE81C3AED4AEE5AE08
:10094000F6AEC701B6010E94E315ED81FE8172A7E4
:1009500061A76F3F710519F014F06FEF70E077FF3A
:1009600002C070E060E0ED81FE8172A761A747AA36
:1009700050AE61AE72AEFDCEC12CD12C60E4E62E3D
:1009800060ECF62E76CFC12CD12C50E4E52EFE2C57
:1009900070CF812C912C40EAA42E41ECB42E8CCF48
:1009A000812C912C30EAA32E31E4B32E85CFC12CBB
:1009B000D12C20E2E22E22ECF22E9FCFC12CD12CA2
:1009C00090E2E92E92E4F92E98CFC12CD12C760139
:1009D000B2CFC12CD12C8FE7E82E83E4F82EABCF19
:1009E0000F931F93CF93DF938C01EB01FC01808168
:1009F0001C161D0694F070E060E0209771F00E94D4
:100A0000DB01662777276C1B7D0BF8018181DF9165
:100A1000CF911F910F910C94DB010E94DB0170E0DC
:100A200060E0F3CFCF92DF92EF92FF920F931F938C
:100A3000CF93DF93FC01C3A1D4A1C5A0D6A007A189
:100A400010A5CC15DD05B1F521A532A5201B310B74
:100A500012161306ECF42B30310514F02AE030E0C6
:100A6000200F311F30A727A387A190A5C89FB001F1
:100A7000C99F700DD89F700D1124CF01DF91CF91C8
:100A80001F910F91FF90EF90DF90CF900C94F004A6
:100A90002115310549F3263F8FEF380744F0319592
:100AA00021953109021B130B10A707A3DDCF2AE004
:100AB00030E0F8CF7C0120E030E040EA50E4638988
:100AC0007489858996890E945D1387FF0CC00A305E
:100AD00011054CF4C09FB001C19F700DD09F700DE7
:100AE0001124C701CBCF0B301105B4F00A50110906
:100AF000F70110A707A387A190A597FF02C010A632
:100B000017A2F70187A190A5C89EB001C99E700DDC
:100B1000D89E700D1124E5CF01501109E9CFCF9374
:100B2000DF93EC011F8E18A219A21AA21CA21BA20D
:100B300070E060E00E94F00418A61FA21BAE1CAE7D
:100B40001DAE1EAE1AA619A61FAA18AE19AE1AAE71
:100B5000DF91CF910895CF92DF92EF92FF920F93A2
:100B60001F93CF93DF93EC01F8946B857C858D8583
:100B70009E850F81188529853A85789461157105C0
:100B80008105910511F10115110521053105E9F0E6
:100B9000CF84D888E988FA880C151D052E053F05F5
:100BA000A1F00F87188B298B3A8B613422E47207EE
:100BB0002FE08207910508F441C080E090E0A0E8B2
:100BC000BFEB8B8F9C8FAD8FBE8FDE01DF964D917B
:100BD0005D916D917C911397FE01ED5BFF4F40831A
:100BE0005183628373834B895C896D897E894D93C0
:100BF0005D936D937C931397F894CF80D884E984A8
:100C0000FA84789420E030E0A9016B8D7C8D8D8D85
:100C10009E8D0E945D1387FF26C08F89988DA98DB8
:100C2000BA8D8B8B9C8BAD8BBE8BDF91CF911F913F
:100C30000F91FF90EF90DF90CF9008950E94621384
:100C400020E030E040EA51E40E94C3139B01AC0174
:100C500060EC71EE84E69CE40E9471156B8F7C8FD2
:100C60008D8F9E8FB2CF0E9438026C197D098E093C
:100C70009F09613472448F40910578F68B8D9C8D6D
:100C8000AD8DBE8DCECFCF92DF92EF92FF920F93BC
:100C90001F93CF93DF93EC010E9438020F811885D8
:100CA00029853A85012B022B032BB1F00F81188582
:100CB00029853A856B017C01C01AD10AE20AF30A40
:100CC00097018601003147E214072105310598F0AC
:100CD0000B871C872D873E876F83788789879A8744
:100CE0008B819C81AD81BE810196A11DB11D8B833D
:100CF0009C83AD83BE83DF91CF911F910F91FF90B5
:100D0000EF90DF90CF90089587ED92E00C9443062A
:100D100080E992E00C944306CF93DF93EC0161E00D
:100D200088810E94AA0161E089810E94AA0162E093
:100D30008A81DF91CF910C94AA01FC0101900020DF
:100D4000E9F73197AF01481B590BBC0183EF91E0E4
:100D50000C945E028F929F92AF92BF920F931F935B
:100D6000CF93DF93CDB7DEB7A1970FB6F894DEBF70
:100D70000FBECDBF19A2423008F44AE08E010F5DCC
:100D80001F4F842E912CB12CA12CA50194010E94FF
:100D90009114E62FB901CA01EA30F4F4E05DD801FC
:100DA000EE938D01232B242B252B79F790E080E007
:100DB000109719F0CD010E949D06A1960FB6F894E8
:100DC000DEBF0FBECDBFDF91CF911F910F91BF90BE
:100DD000AF909F908F900895E95CE1CFCF93DF9320
:100DE0000E944B03EC0186E291E00E949D068C0F6D
:100DF0009D1FDF91CF910895CF92DF92EF92FF92E6
:100E0000CF93DF936C01990FEE08FF08F7FE1DC02A
:100E10008DE20E946603EC0166277727CB016C19EF
:100E20007D098E099F094AE00E94AA06C80FD91FB2
:100E300086E291E00E949D068C0F9D1FDF91CF916D
:100E4000FF90EF90DF90CF9008954AE0C701B60180
:100E50000E94AA06EC01ECCFCF92DF92EF92FF92B4
:100E6000CF93DF936C01990FEE08FF08F7FE17C0D0
:100E70008DE20E946603EC0166277727CB016C198F
:100E80007D098E099F094AE00E94AA068C0F9D1FCA
:100E9000DF91CF91FF90EF90DF90CF9008954AE0DF
:100EA000C701B601DF91CF91FF90EF90DF90CF9017
:100EB0000C94AA064F925F926F927F928F929F92AC
:100EC000AF92BF92CF92DF92EF92FF920F931F9358
:100ED000CF936B017C01742EAC019B010E941E1606
:100EE000882399F089E291E0CF911F910F91FF90B3
:100EF000EF90DF90CF90BF90AF909F908F907F90BA
:100F00006F905F904F900C949D0646015701E894B6
:100F1000B7F82FEF3FEF4FE75FE7C501B4010E943D
:100F20001E1681110DC02FEF3FEF4FE75FE7C501A0
:100F3000B4010E945D1318161CF48DE291E0D4CF29
:100F40002FEF3FEF4FE75FE4C701B6010E9419168C
:100F500018161CF481E391E0C7CF2FEF3FEF4FE766
:100F60005FECC701B6010E945D1387FDF3CF20E05F
:100F700030E0A901C701B6010E945D1310E000E056
:100F800087FF08C08DE20E9466038C01F7FAF09497
:100F9000F7F8F094C0E060E070E080E09FE37C163A
:100FA00041F020E030E040E251E40E947115CF5F53
:100FB000F6CFA70196010E9405152B013C010E9466
:100FC000EA154B015C014AE00E94AA067C01E00E92
:100FD000F11ECC23B1F1C501B4010E9462139B0143
:100FE000AC01C301B2010E9404154B015C018EE209
:100FF0000E946603E80EF91EC15018F120E030E0AF
:1010000040E251E4C501B4010E94C3132B013C012D
:101010000E94EA154B01B12CA12C4AE0C501B40194
:101020000E94AA06E80EF91EC501B4010E946213CF
:101030009B01AC01C301B2010E9404154B015C018C
:10104000DBCFC701CF911F910F91FF90EF90DF9001
:10105000CF90BF90AF909F908F907F906F905F9058
:101060004F9008951F920F920FB60F9211242F9355
:101070003F938F939F93AF93BF938091EB01909198
:10108000EC01A091ED01B091EE013091EA0123E075
:10109000230F2D3758F50196A11DB11D2093EA01AC
:1010A0008093EB019093EC01A093ED01B093EE01DE
:1010B0008091EF019091F001A091F101B091F201C6
:1010C0000196A11DB11D8093EF019093F001A093B3
:1010D000F101B093F201BF91AF919F918F913F9138
:1010E0002F910F900FBE0F901F90189526E8230F99
:1010F0000296A11DB11DD2CF1F920F920FB60F9273
:1011000011242F933F934F935F936F937F938F930C
:101110009F93AF93BF93EF93FF93E0911201F091F0
:1011200013010995FF91EF91BF91AF919F918F911D
:101130007F916F915F914F913F912F910F900FBED3
:101140000F901F9018951F920F920FB60F921124B7
:101150002F933F934F935F936F937F938F939F93BF
:10116000AF93BF93EF93FF93E0911001F0911101C2
:101170000995FF91EF91BF91AF919F918F917F91D1
:101180006F915F914F913F912F910F900FBE0F90F4
:101190001F9018951F920F920FB60F9211242F9344
:1011A0003F934F935F936F937F938F939F93AF93EF
:1011B000BF93EF93FF9383EF91E00E94DC02FF91D6
:1011C000EF91BF91AF919F918F917F916F915F91BF
:1011D0004F913F912F910F900FBE0F901F90189538
:1011E0001F920F920FB60F9211242F938F939F93FC
:1011F000EF93FF93E0910302F09104028081E0916C
:101200000902F0910A0282FD1BC0908180910C02BC
:101210008F5F8F7320910D02821741F0E0910C02D5
:10122000F0E0ED50FE4F958F80930C02FF91EF910F
:101230009F918F912F910F900FBE0F901F90189537
:101240008081F4CF8F929F92AF92BF92CF92DF9224
:10125000EF92FF920F931F93E3EFF1E0138212825C
:1012600088EE93E0A0E0B0E084839583A683B78303
:1012700088E191E09183808385EC90E09587848775
:1012800084EC90E09787868780EC90E0918B808B50
:1012900081EC90E0938B828B82EC90E0958B848B39
:1012A00086EC90E0978B868B118E128E138E148EA7
:1012B000E7EDF2E08DEC882E8CEC982E8CE0A82ED9
:1012C0008FE3B82E83A694A6A5A6B6A69DECC92E3C
:1012D0009CECD92EED2C9DE3F92EC7A6D0AAE1AA4D
:1012E000F2AA03E313E323EB3EE303AB14AB25AB1A
:1012F00036AB85E0808386E0818382E0828313823F
:10130000148215821682178E10A211A212A2138ABD
:10131000148A158A168A178A108E118E128E40E052
:1013200050E060E87FEB438F548F658F768F10A677
:1013300017A212A611A614A213A281E090E096A310
:1013400085A310921603109217031092180310929F
:10135000190310921A0310921B0310921C0310928F
:101360001D0317AA10AE11AE12AE13AE14AE15AE19
:1013700016AE17821086118612861386148615867D
:1013800016861786108A118A128AE0E9F2E083A68F
:1013900094A6A5A6B6A6C7A6D0AAE1AAF2AA03ABB0
:1013A00014AB25AB36AB2BE020832AE0218323E06E
:1013B00022831382148215821682178E10A211A224
:1013C00012A2138A148A158A168A178A108E118E11
:1013D000128E438F548F658F768F10A617A212A698
:1013E00011A614A213A296A385A31092CF02109265
:1013F000D0021092D1021092D2021092D302109217
:10140000D4021092D5021092D60217AA10AE11AED5
:1014100012AE13AE14AE15AE16AE1782108611863C
:10142000128613861486158616861786108A118AE8
:10143000128A1F910F91FF90EF90DF90CF90BF9095
:10144000AF909F908F900895CF93DF93CDB7DEB785
:101450002E970FB6F894DEBF0FBECDBF789484B53B
:10146000826084BD84B5816084BD85B5826085BDA0
:1014700085B5816085BD80916E00816080936E002E
:101480001092810080918100826080938100809120
:1014900081008160809381008091800081608093D1
:1014A00080008091B10084608093B1008091B00091
:1014B00081608093B00080917A00846080937A008C
:1014C00080917A00826080937A0080917A008160B6
:1014D00080937A0080917A00806880937A001092DD
:1014E000C100E0910302F091040282E08083E09168
:1014F000FF01F09100021082E0910102F0910202DE
:1015000080E1808310920B02E0910702F0910802C3
:1015100086E08083E0910502F0910602808180617F
:101520008083E0910502F0910602808188608083CB
:10153000E0910502F0910602808180688083E0914D
:101540000502F091060280818F7D808382EB90E01E
:101550000E94EE0687ED92E00E948C0680E992E000
:101560000E948C068091D902823009F49AC083309F
:1015700009F099C081E064E876E00E940E01809154
:101580009202823009F491C0833009F090C081E06A
:1015900068E876E00E940E0184E690E0A0E0B0E00A
:1015A0008093000190930101A0930201B093030185
:1015B00085E090E0A0E0B0E0809304019093050105
:1015C000A0930601B093070184E190E0A0E0B0E0B1
:1015D0008093080190930901A0930A01B0930B0135
:1015E0008AE090E0A0E0B0E080930C0190930D01C0
:1015F000A0930E01B0930F0181E090E09093E10180
:101600008093E00183EA90E00E94EE069E012F5F46
:101610003F4F3C872B87AE01455F5F4F5E874D870D
:10162000412C512C34EB632E32E4732E22242A9465
:10163000322C01E010E08AE0AB85BC851D928A95D2
:10164000E9F783EF91E00E94BC0218161906ACF589
:1016500083EF91E00E949A02B1E0B093BC019FB782
:10166000F8944091EB015091EC016091ED01709183
:10167000EE019FBF4093B8015093B9016093BA0146
:101680007093BB018823E9F2E091B701EF3388F44E
:1016900091E09E0F9093B701F0E0E958FE4F8083F0
:1016A000D0CF80E068CF8FEF66CF80E071CF8FEF33
:1016B0006FCFE1E0E0937601C4CF8091BC01882335
:1016C00079F12FB7F8948091EB019091EC01A09102
:1016D000ED01B091EE012FBF4091B8015091B901D9
:1016E0006091BA017091BB01841B950BA60BB70BDF
:1016F0004091F7015091F8016091F9017091FA0160
:1017000084179507A607B70758F01092BC0180917F
:101710007601882309F49AC21092B70110927601DB
:101720008FB7F894C090EB01D090EC01E090ED0100
:10173000F090EE018FBFC092E601D092E701E092F7
:10174000E801F092E9018091BD019091BE01A09164
:10175000BF01B091C001C81AD90AEA0AFB0A8091F8
:10176000000190910101A0910201B0910301C816FE
:10177000D906EA06FB0608F492C0C114D104E104BC
:10178000F104A1F1F8946091DA027091DB0280918A
:10179000DC029091DD021092DA021092DB021092CC
:1017A000DC021092DD0278940E94621320E030E0A7
:1017B00040EA51E40E94711520E030E64AE657E421
:1017C0000E94C3134B015C01C701B6010E94621362
:1017D0009B01AC01C501B4010E9471156093EE023A
:1017E0007093EF028093F0029093F102C090E601B3
:1017F000D090E701E090E801F090E9018091BD010F
:101800009091BE01A091BF01B091C001C81AD90A40
:10181000EA0AFB0AA1F1F894609193027091940294
:1018200080919502909196021092930210929402E8
:10183000109295021092960278940E94621320E012
:1018400030E040EA51E40E94711520E030E64AE6BB
:1018500057E40E94C3134B015C01C701B6010E940B
:1018600062139B01AC01C501B4010E947115609324
:10187000A7027093A8028093A9029093AA02809174
:10188000E6019091E701A091E801B091E901809310
:10189000BD019093BE01A093BF01B093C0018090A1
:1018A000E6019090E701A090E801B090E9018091F5
:1018B000C5019091C601A091C701B091C801B501C1
:1018C000A401481B590B6A0B7B0B8091040190917A
:1018D0000501A0910601B0910701481759076A0751
:1018E0007B0708F482C084E00E9453017C0181E000
:1018F00051E0E516F10409F080E08093DF0187E014
:101900000E9453016C0181E091E0C916D10409F0F5
:1019100080E08093DD0188E00E94530121E0813066
:10192000910509F020E02093DE01A1E0EA16F10420
:1019300039F0B1E0CB16D10419F0019709F00AC3D0
:101940008092CB019092CC01A092CD01B092CE01B9
:10195000E1E0EE16F10409F0F8C2CA94CD2809F4CA
:10196000F9C2CC24CA94DC2CD092CA01C092C9011D
:101970008091D3019091D401C816D90661F0D0921C
:10198000D401C092D3018092CF019092D001A09255
:10199000D101B092D201EA94EF2809F4FBC2809100
:1019A000DD018111F7C28091DE01882309F4F2C2C2
:1019B0008091C1019091C201A091C301B091C40175
:1019C0000097A105B10509F0D2C28092C1019092A1
:1019D000C201A092C301B092C4018092C50190924D
:1019E000C601A092C701B092C801C090E601D09094
:1019F000E701E090E801F090E9018091D501909134
:101A0000D601A091D701B091D80146015701881A9B
:101A1000990AAA0ABB0A8091080190910901A09134
:101A20000A01B0910B0188169906AA06BB0630F18F
:101A30008091E0019091E101009709F4B4C201970F
:101A400009F4CAC287ED92E00E94AB0580E992E0FA
:101A50000E94AB05B501A40187ED92E00E948B03C3
:101A6000B501A40180E992E00E948B03C092D501E8
:101A7000D092D601E092D701F092D8018091D9019D
:101A80009091DA01A091DB01B091DC01B701A601D0
:101A9000481B590B6A0B7B0B80910C0190910D0137
:101AA000A0910E01B0910F01481759076A077B07F3
:101AB00080F087ED92E00E94120580E992E00E949A
:101AC0001205C092D901D092DA01E092DB01F092C6
:101AD000DC018091E2019091E301A091E401B091D9
:101AE000E501C81AD90AEA0AFB0A48EEC41643E01F
:101AF000D406E104F10408F49CC080E691E00E9461
:101B0000EE0684E591E00E944B038091E001909104
:101B1000E1010E94FC068EE391E00E944B0380915C
:101B2000FE029091FF020E942C0781E391E00E9447
:101B30004B0380910003909101030E942C0785E2E2
:101B400091E00E944B036091EA027091EB02809158
:101B5000EC029091ED0242E00E945A0786E291E089
:101B60000E949D0682E191E00E944B038091B702A2
:101B70009091B8020E942C0785E091E00E944B03EF
:101B80008091B9029091BA020E942C0789EF90E0EF
:101B90000E944B036091A3027091A4028091A50260
:101BA0009091A60242E00E945A0786E291E00E94CC
:101BB0009D068EEE90E00E944B038091DF0188230A
:101BC00009F4E6C28FE40E9466038AEE90E00E9468
:101BD0004B038091DE01882309F4DCC28FE40E946C
:101BE000660386EE90E00E944B038091DD0188231E
:101BF00009F4D2C28FE40E94660386E291E00E945B
:101C00009D068BED90E00E944B0388ED90E00E94D2
:101C1000EE068091E6019091E701A091E801B09174
:101C2000E9018093E2019093E301A093E401B09372
:101C3000E50180E090E0892B09F4FDCC0E94C80208
:101C4000882309F4F3CC0E940000F0CCE090B701A7
:101C5000F12CF701E958FE4F108297E7C92E91E069
:101C6000D92ED6018D915D01882331F090E00E943C
:101C7000E911892B09F0ADC0F701E958FE4F7F014A
:101C8000CE14DF0448F4D7018E915D0190E00E94EC
:101C9000E911892B09F09FC0F7011082F7E7CF16F1
:101CA000F1E0DF0651F0A7014C195D094F5F5F4F6E
:101CB000B60187E791E00E9429161092B701809142
:101CC0007701882309F42CCD85EC90E00E944B032A
:101CD00087E791E00E949D0686E291E00E949D06C2
:101CE0009E012F5F3F4F790187E791E0D7018D93E8
:101CF0009D937D016AE370E00E943B16009741F0DE
:101D0000FC011192CF012D853E852E153F0571F7FF
:101D1000C980DA806DE671E0C6010E9446167C013A
:101D2000892B09F45AC066E671E0C6010E94461686
:101D3000892B09F0F5CC8B819C81C12CD12C7601AB
:101D4000009721F00E94E5116B017C018D819E813D
:101D5000812C912C5401009721F00E94E5114B0138
:101D60005C018F819885009709F4EBC00E94E51112
:101D7000C0920203D0920303E0920403F0920503A1
:101D800080920A0390920B03A0920C03B0920D0371
:101D900060930603709307038093080390930903ED
:101DA000C092BB02D092BC02E092BD02F092BE0291
:101DB0008092C3029092C402A092C502B092C60261
:101DC0006093BF027093C0028093C1029093C202DD
:101DD000A7CC650146CF750153CF8B819C81D12C57
:101DE000C12C009739F04AE050E070E060E00E94BA
:101DF000CE106B018D819E81009739F04AE050E052
:101E000070E060E00E94CE107B0142E050E0509311
:101E1000E1014093E001B6010D2C000C880B990BF9
:101E20000E9464134B015C0120E030E0A9010E9494
:101E300019161816C4F58092F6029092F702A09235
:101E4000F802B092F9021093FB020093FA02B70174
:101E50000F2C000C880B990B0E9464134B015C0142
:101E600020E030E0A9010E94191618160CF042C0BB
:101E70008092AF029092B002A092B102B092B202F0
:101E80001093B4020093B30285E391E00E949D0693
:101E9000C6010E94FC068DE491E00E949D06C701E8
:101EA0000E94FC063DCC20E030E0A901C501B40150
:101EB0000E945D1387FF11C0B7FAB094B7F8B094D1
:101EC0008092F6029092F702A092F802B092F90284
:101ED0003092FB022092FA02BACF1092F6021092D0
:101EE000F7021092F8021092F9021092FB0210927F
:101EF000FA02ADCF20E030E0A901C501B4010E9493
:101F00005D1387FF11C0B7FAB094B7F8B094809210
:101F1000AF029092B002A092B102B092B20230929F
:101F2000B4022092B302B0CF1092AF021092B0026E
:101F30001092B1021092B2021092B4021092B30247
:101F4000A3CF60E070E0CB0113CF21E0C216D10433
:101F500009F40ACD1092D4011092D3011092CF014E
:101F60001092D0011092D1011092D20114CDA5018E
:101F70009401281B390B4A0B5B0BDA01C901843F22
:101F80009140A105B10508F428CD1092CA01109224
:101F9000C90123CD1092C1011092C2011092C30158
:101FA0001092C4011ACD1092F6021092F70210920C
:101FB000F8021092F9021092FB021092FA021092AB
:101FC000AF021092B0021092B1021092B2021092BF
:101FD000B4021092B30236CD8091D3019091D40116
:101FE000892BA1F08091CF019091D001A091D101D6
:101FF000B091D201B701A601481B590B6A0B7B0BAC
:1020000081E0463951056105710508F480E02091B1
:10201000DD019091DF019923B9F1222349F087ED89
:1020200092E00E948F0580E992E00E948F050ACD20
:102030009091DE01992379F081110DC080E090E04C
:10204000A0E2B2E48093F6029093F702A093F80224
:10205000B093F90259C01092F6021092F702109252
:10206000F8021092F9021092FB021092FA0220E09C
:1020700030E040E752E42093AF023093B002409347
:10208000B1025093B20220C09091DE01222391F15F
:102090009923F9F081111DC04092F6025092F70287
:1020A0006092F8027092F9021093FB020093FA0218
:1020B00080E090E0A0E2B2E48093AF029093B0029F
:1020C000A093B102B093B2021093B4020093B30292
:1020D000B9CC20E030E040E752E42093F6023093A0
:1020E000F7024093F8025093F9021093FB02009319
:1020F000FA0265CF9923A9F04092F6025092F702B6
:102100006092F8027092F9021093FB020093FA02B7
:102110004092AF025092B0026092B1027092B2024D
:10212000D3CF8091CB019091CC01A091CD01B09102
:10213000CE01A7019601281B390B4A0B5B0BDA0174
:10214000C901893B3BE09307A105B105D0F480911B
:10215000C9019091CA0197FF05C080E090E0A0E717
:10216000B2E470CF892B41F24092F6025092F7020E
:102170006092F8027092F9021093FB020093FA0247
:1021800076CF89389341A105B10508F048CF84CFB7
:1021900088E519CD88E523CD88E52DCDB0E0A0E018
:1021A000E4EDF0E10C94BF145C016B017A01611560
:1021B000710519F0FB0191838083E114F10451F062
:1021C000C7010297839730F040E030E020E090E0D4
:1021D00072C05E01E5012196F5011081812F90E02A
:1021E0000E94E911892BA9F71D3201F52196F5010D
:1021F000118101E0E114F10409F4DAC0F0E1EF1615
:10220000F10409F082C0103359F488818F7D88353C
:1022100009F076C0198122960260F0E1EF2EF12CD0
:10222000812C912CA12C88E0B82E8CC01B3221F47B
:10223000E5012296F501118100E0DCCFEAE0EE161F
:10224000F10409F4BBC0F0E1EF16F10409F06DC030
:10225000E7CF78E0E72EF12C812C912CA12C60E1C6
:10226000B62E70C03FE9310F3A3128F439EA332EE7
:1022700080C021E09AC0302F3170C114D10431F0F8
:10228000222309F12197F601D183C08327FF21C0C2
:1022900060E070E080E090E8311104C06FEF7FEF04
:1022A0008FEF9FE722E230E030931F0320931E035D
:1022B000462F372F282F642F732F822FCDB7DEB7ED
:1022C000E1E10C94DB1401FF04C02297F601D183F5
:1022D000C083332341F090958095709561957F4F31
:1022E0008F4F9F4FE5CF97FFE3CF82E290E090932F
:1022F0001F0380931E036FEF7FEF8FEF9FE7D8CF11
:1023000010E3E114F10409F4A4CF28E0E216F1048B
:1023100009F4A2CF0CF092CF812C912CA12CE0E4F7
:10232000BE2E82E0E816F10469F060E070E080E023
:1023300090E897010F2C000C440B550B0E94911450
:1023400049015A0120E060E070E0CB0127010F2C29
:10235000000C66087708FE0150ED352E310E39E08D
:10236000331540F43FEB310F3A3108F07BCF49ECA5
:10237000342E310E3E141F040CF07DCF27FD15C006
:1023800086169706A806B90678F0A30192010E9466
:102390008114630D711D811D911D613071058105D1
:1023A00020E8920708F465CF2FEF21961081D3CF54
:1023B000103309F42ACF2AE0E22EF12C9CEC892E6E
:1023C000982CA82C9CE0B92EBDCF662777270C94BB
:1023D000F21191110C944213803219F089508550FA
:1023E000C8F70895B0E0A0E0E8EFF1E10C94C41460
:1023F0005C017B016115710519F0DB018D939C93E4
:1024000085010F5F1F4FF501D0818D2F90E00E9455
:10241000E9116C01892BB9F5DD32B9F50F5F1F4F5A
:10242000D5011196DC91C1E05801F1E0AF1AB10875
:1024300043E050E060E770E0C5010E944513892B3E
:1024400069F5680182E0C80ED11C45E050E06BE6FA
:1024500070E0C6010E944513892B21F4680197E0C2
:10246000C90ED11CE114F10419F0D701CD92DC9210
:1024700060E070E080E89FEFC111FFC060E070E0B5
:1024800080E89FE7FAC05801BBCFDB3229F4850111
:102490000E5F1F4FF501D181C0E0C6CF43E050E091
:1024A00068E670E0C5010E944513892BE9F0F80148
:1024B00010E000E020E030E0A9015F01B0ED8B2EDC
:1024C0008D0E89E08815C8F19C2E689491F88C2FA8
:1024D0008870C2FF16C0811102C00F5F1F4F319676
:1024E000D501DC91C92DE9CFE114F10429F00E5F8B
:1024F0001F4FF7011183008360E070E080EC9FE7DD
:10250000BCC0882311F001501109A5E0B0E00E9481
:10251000B3149B01AC01220F331F441F551F280D1C
:10252000311D411D511D283999E93907490799E1A4
:102530005907A8F2C6609C2ED2CFAEEF8A1206C011
:10254000C3FD3CC09C2E689493F8C9CFDF7DD53481
:10255000A9F580818D3239F4C061DF011296818145
:1025600062E070E006C0DF018B32C1F3119661E0DA
:1025700070E080535D01A61AB70A8A30F8F4E0E8EB
:10258000CE16ECE0DE065CF4B601660F771F660F30
:10259000771FC60ED71ECC0CDD1CC80ED11C5D01EA
:1025A000FFEFAF1ABF0A8C9180538A30A8F1C4FFA5
:1025B00003C0D194C194D1080C0D1D1DC1FF09C0E9
:1025C000E114F10431F081E0A81AB108D701AD920D
:1025D000BC92CA01B9010E946213C370C33009F4EE
:1025E00090584B015C0120E030E0A9010E945D138E
:1025F000882309F440C0CFE9D0E017FF05C011954A
:1026000001951109C7E8D0E06E01B8E1CB1AD108F5
:1026100080E2E82EF12C0FC0D501B1CFFE0125914B
:102620003591459154910E191F09C501B4010E94BD
:10263000C3134B015C01D501C4010E151F0574F7CE
:102640002497F594E794CC16DD06A9F78A2F880F16
:102650008B2F881F8F3F49F020E030E0A901C50192
:10266000B4010E945D13811106C082E290E0909354
:102670001F0380931E03C501B401CDB7DEB7ECE0A4
:102680000C94E014992788270895FB01DC01415040
:10269000504088F08D9181341CF08B350CF4805EB5
:1026A000659161341CF06B350CF4605E861B611122
:1026B00071F3990B0895881BFCCF0E949F1308F4B7
:1026C00081E00895E89409C097FB3EF490958095C9
:1026D000709561957F4F8F4F9F4F9923A9F0F92FE8
:1026E00096E9BB279395F695879577956795B79566
:1026F000F111F8CFFAF4BB0F11F460FF1BC06F5F4C
:102700007F4F8F4F9F4F16C0882311F096E911C05D
:10271000772321F09EE8872F762F05C0662371F07E
:1027200096E8862F70E060E02AF09A95660F771F92
:10273000881FDAF7880F9695879597F90895990F6E
:102740000008550FAA0BE0E8FEEF16161706E8077B
:10275000F907C0F012161306E407F50798F0621B9C
:10276000730B840B950B39F40A2661F0232B242B71
:10277000252B21F408950A2609F4A140A6958FEF90
:10278000811D811D08950E94D6130C9447140E9448
:10279000391438F00E94401420F0952311F00C9465
:1027A00030140C94361411240C947B140E94581489
:1027B00070F3959FC1F3950F50E0551F629FF00194
:1027C000729FBB27F00DB11D639FAA27F00DB11DAD
:1027D000AA1F649F6627B00DA11D661F829F222736
:1027E000B00DA11D621F739FB00DA11D621F839FBD
:1027F000A00D611D221F749F3327A00D611D231F93
:10280000849F600D211D822F762F6A2F11249F57E0
:1028100050409AF0F1F088234AF0EE0FFF1FBB1FE3
:10282000661F771F881F91505040A9F79E3F5105A2
:1028300080F00C9430140C947B145F3FE4F3983ECA
:10284000D4F3869577956795B795F795E7959F5F4C
:10285000C1F7FE2B880F911D9695879597F90895DE
:1028600097F99F6780E870E060E008959FEF80EC43
:10287000089500240A9416161706180609060895E6
:1028800000240A9412161306140605060895092E4C
:102890000394000C11F4882352F0BB0F40F4BF2BBB
:1028A00011F460FF04C06F5F7F4F8F4F9F4F0895FB
:1028B00057FD9058440F551F59F05F3F71F04795F1
:1028C000880F97FB991F61F09F3F79F087950895D6
:1028D000121613061406551FF2CF4695F1DF08C0F5
:1028E000161617061806991FF1CF86957105610512
:1028F00008940895E894BB2766277727CB0197F9BA
:102900000895DB018F939F930E94B314BF91AF9101
:10291000A29F800D911DA39F900DB29F900D112439
:102920000895A1E21A2EAA1BBB1BFD010DC0AA1F10
:10293000BB1FEE1FFF1FA217B307E407F50720F028
:10294000A21BB30BE40BF50B661F771F881F991FA3
:102950001A9469F760957095809590959B01AC01EC
:10296000BD01CF0108950E94F514A59F900DB49F5D
:10297000900DA49F800D911D112408952F923F92D8
:102980004F925F926F927F928F929F92AF92BF927F
:10299000CF92DF92EF92FF920F931F93CF93DF932B
:1029A000CDB7DEB7CA1BDB0B0FB6F894DEBF0FBE88
:1029B000CDBF09942A88398848885F846E847D84D5
:1029C0008C849B84AA84B984C884DF80EE80FD80D7
:1029D0000C811B81AA81B981CE0FD11D0FB6F8944D
:1029E000DEBF0FBECDBFED010895A29FB001B39F22
:1029F000C001A39F700D811D1124911DB29F700D08
:102A0000811D1124911D08955058BB27AA270E94AB
:102A10001C150C9447140E94391438F00E9440147D
:102A200020F039F49F3F19F426F40C9436140EF478
:102A3000E095E7FB0C943014E92F0E94581458F3EA
:102A4000BA17620773078407950720F079F4A6F593
:102A50000C947A140EF4E0950B2EBA2FA02D0B01D6
:102A6000B90190010C01CA01A0011124FF27591BD3
:102A700099F0593F50F4503E68F11A16F040A22FD9
:102A8000232F342F4427585FF3CF4695379527954A
:102A9000A795F0405395C9F77EF41F16BA0B620B49
:102AA000730B840BBAF09150A1F0FF0FBB1F661F90
:102AB000771F881FC2F70EC0BA0F621F731F841FD3
:102AC00048F4879577956795B795F7959E3F08F0F9
:102AD000B0CF9395880F08F09927EE0F97958795BB
:102AE00008950E9485150C9447140E94401458F0D4
:102AF0000E94391440F029F45F3F29F00C943014FF
:102B000051110C947B140C9436140E94581468F3E1
:102B10009923B1F3552391F3951B550BBB27AA2796
:102B200062177307840738F09F5F5F4F220F331FD0
:102B3000441FAA1FA9F335D00E2E3AF0E0E832D098
:102B400091505040E695001CCAF72BD0FE2F29D09B
:102B5000660F771F881FBB1F261737074807AB076D
:102B6000B0E809F0BB0B802DBF01FF2793585F4FE2
:102B70003AF09E3F510578F00C9430140C947B147D
:102B80005F3FE4F3983ED4F3869577956795B795C4
:102B9000F7959F5FC9F7880F911D9695879597F9CF
:102BA0000895E1E0660F771F881FBB1F6217730748
:102BB0008407BA0720F0621B730B840BBA0BEE1F5D
:102BC00088F7E09508950E94EA156894B1110C9475
:102BD0007B1408950E94601488F09F5798F0B92FD5
:102BE0009927B751B0F0E1F0660F771F881F991F42
:102BF0001AF0BA95C9F714C0B13091F00E947A1456
:102C0000B1E008950C947A14672F782F8827B85F65
:102C100039F0B93FCCF3869577956795B395D9F799
:102C20003EF490958095709561957F4F8F4F9F4FA3
:102C300008950E949F1308F48FEF08950E949F1338
:102C4000880B990B0895EE0FFF1F0590F491E02D6E
:102C500009946817790768F4FB01DC01E40FF51F9C
:102C6000A40FB51F02C002900E9241505040D8F7F9
:102C700008950C944F16FC018191861721F088234A
:102C8000D9F7992708953197CF010895FB01DC0109
:102C90008D91019080190110D9F3990B0895FB01D2
:102CA000DC0102C001900D9241505040D8F70895C8
:042CB000F894FFCFC6
:102CB400E8030000E8030000E8030000E803000064
:102CC4005D025D0200000000FE025E028B026B03E7
:102CD400BC029A02AE020D0A006E616E00696E6655
:102CE400006F7666006C65667420776865656C2095
:102CF40052504D2073657420746F3A2000726967D6
:102D0400687420776865656C2052504D2073657433
:102D140020746F3A2000534554504944005345549D
:062D240053504545440038
:00000001FF
