:020000040000FA
:100000000C9441050C94DC160C94B5160C946905FF
:100010000C9469050C9469050C9469050C946905A8
:100020000C9469050C9469050C9469050C947A1874
:100030000C9469050C9469050C9469050C94690588
:100040000C946B160C9469050C9429170C940317E7
:100050000C9469050C9469050C9469050C94690568
:100060000C945B170C946905000103070F1F3F7F79
:100070000080C0E0F0F8FCFE00000000003E5B4F96
:100080005B3E3E6B4F6B3E1C3E7C3E1C183C7E3CF8
:10009000181C577D571C1C5E7F5E1C00183C180006
:1000A000FFE7C3E7FF0018241800FFE7DBE7FF3096
:1000B000483A060E2629792926407F050507407F04
:1000C00005253F5A3CE73C5A7F3E1C1C08081C1C77
:1000D0003E7F14227F22145F5F005F5F06097F016D
:1000E0007F006689956A606060606094A2FFA29458
:1000F00008047E040810207E201008082A1C080826
:100100001C2A08081E101010100C1E0C1E0C303873
:100110003E3830060E3E0E06000000000000005F74
:1001200000000007000700147F147F14242A7F2A90
:100130001223130864623649562050000807030052
:10014000001C2241000041221C002A1C7F1C2A089E
:10015000083E080800807030000808080808000001
:1001600060600020100804023E5149453E00427F75
:10017000400072494949462141494D331814127FC4
:100180001027454545393C4A494931412111090764
:100190003649494936464949291E000014000000E5
:1001A00040340000000814224114141414140041B7
:1001B00022140802015909063E415D594E7C121174
:1001C000127C7F494949363E414141227F414141AC
:1001D0003E7F494949417F090909013E4141517327
:1001E0007F0808087F00417F41002040413F017F98
:1001F000081422417F404040407F021C027F7F0460
:1002000008107F3E4141413E7F090909063E4151A8
:10021000215E7F09192946264949493203017F0198
:10022000033F4040403F1F2040201F3F4038403F99
:10023000631408146303047804036159494D4300AF
:100240007F4141410204081020004141417F0402E6
:10025000010204404040404000030708002054547D
:1002600078407F284444383844444428384444285B
:100270007F385454541800087E090218A4A49C78AE
:100280007F0804047800447D40002040403D007F0A
:100290001028440000417F40007C047804787C08EA
:1002A0000404783844444438FC18242418182424BE
:1002B00018FC7C08040408485454542404043F44A3
:1002C000243C4040207C1C2040201C3C4030403CD2
:1002D00044281028444C9090907C4464544C440032
:1002E0000836410000007700000041360800020196
:1002F0000204023C2623263C1EA1A161123A404082
:10030000207A3854545559215555794122545478FE
:1003100042215554784020545579400C1E52721297
:100320003955555559395454545939555454580020
:1003300000457C410002457D420001457C407D1224
:1003400011127DF0282528F07C5455450020545486
:100350007C547C0A097F4932494949323A44444431
:100360003A324A4848303A4141217A3A424020786C
:10037000009DA0A07D3D4242423D3D4040403D3C6D
:1003800024FF2424487E4943662B2FFC2F2BFF0992
:1003900029F620C0887E0903205454794100004486
:1003A0007D413048484A32384040227A007A0A0A71
:1003B000727D0D19317D2629292F282629292926E4
:1003C00030484D4020380808080808080808382F29
:1003D00010C8ACBA2F102834FA00007B00000814B3
:1003E0002A142222142A14085500550055AA55AA89
:1003F00055AAFF55FF55FF000000FF00101010FF29
:1004000000141414FF001010FF00FF1010F010F083
:10041000141414FC001414F700FF0000FF00FF1474
:1004200014F404FC141417101F10101F101F1414C0
:10043000141F00101010F0000000001F101010100A
:100440001F10101010F010000000FF1010101010FE
:1004500010101010FF10000000FF140000FF00FF3C
:1004600000001F10170000FC04F4141417101714D8
:1004700014F404F40000FF00F714141414141414FA
:10048000F700F7141414171410101F101F1414146D
:10049000F4141010F010F000001F101F0000001FD7
:1004A00014000000FC140000F010F01010FF10FF0A
:1004B000141414FF141010101F00000000F010FF9F
:1004C000FFFFFFFFF0F0F0F0F0FFFFFF0000000083
:1004D00000FFFF0F0F0F0F0F3844443844FC4A4A07
:1004E0004A347E02020606027E027E0263554941BC
:1004F000633844443C04407E201E2006027E0202F3
:1005000099A5E7A5991C2A492A1C4C7201724C3006
:100510004A4D4D303048784830BC625A463D3E49DD
:100520004949007E0101017E2A2A2A2A2A44445F81
:10053000444440514A444040444A51400000FF0175
:1005400003E080FF000008086B6B08361236243683
:10055000060F090F060000181800000010100030E8
:1005600040FF0101001F01011E00191D1712003C70
:100570003C3C3C00000000002200FF21DB40A4A620
:100580002EAF2000A1C8D300408DAED580A80000BA
:10059000600000000000000000000000000000E01B
:1005A0000000000000000000000000000001E0006A
:1005B00000000000000000000000000001F000004A
:1005C000000000000000000000000003F000000038
:1005D0000000000000000000000007F00000000024
:1005E00000000000000000000007F800000000000C
:1005F00000000000000000000FF800000003C00031
:100600007E000001E0007F0FF800000003C000FE44
:10061000000001E000FFEFF800000003C000FE0052
:100620000001E000FFFFF800000003C000F0000040
:10063000000F007FFE7FC0000003C000F00000003C
:100640000F003FFE7FF83FF1FBCFFCFEF3BC3DEF18
:10065000E01FFE7FFF7FFBFFDFFEFEFFBC3DEFE004
:100660001FC6FFFF7FFBFFDFFEFEFFBC3DEFE00F7D
:10067000E3C7FE787BC3DE1EF0FFBC3DEF0007FF43
:1006800087FC787BC3DE1EF0F83C3DEF0001FFFFE6
:10069000F0007BC3C01EF0F03C3DEF0001F37FE0B3
:1006A0003FFBC3CFFEF0F03C3DEF0003E33F807F14
:1006B000FBC3DFFEF0F03C3DEF0007E73C00787B3A
:1006C000C3DE1EF0F03C3DEF0007FFBE00787BC3A9
:1006D000DE1EF0F03C3DEF0007FFFE00787BC3DE3E
:1006E0001EF0F03C3DEF000FFFFE007FFBFFDFFE42
:1006F000F0F03FFDEFE00FFFFF007FFBFFDFFEF0BC
:10070000F03FFDEFE00FF9FF003E79F9CF9EF0F0EA
:100710001F3DE7E01FF1FF000000000000000000A7
:100720000000001F80FF007FFFFFFFFFFFFFFFFFB4
:10073000FFE01C007F007FFFFFFFFEB46D888D1877
:10074000E000001F007FFFFFFFFE95AD7DB577E065
:1007500000000F007FFFFFFFFEA5AD9D8D19E0009B
:100760000006007FFFFFFFFEB5ADEDB57EE00000A7
:100770000000000180000000000000000000038075
:1007800000000000000000000007C00000000000A2
:100790000000000007C00000000000000000000F83
:1007A000C00000000000000000001FE0000000008A
:1007B00000000000001FE00000000000000000003A
:1007C0003FE00000000000000000003FF0000000DB
:1007D0000000000000007FF0000000000000001F8B
:1007E000F87FF0000000000000003FFE7FF00000F6
:1007F00000000000003FFF7FF0000000000000004C
:100800001FFFFBE0000000000000000FFFF9FFC029
:100810000000000000000FFFF9FFF80000000000DA
:100820000007FFF1FFFF00000000000003FC73FF62
:10083000FF80000000000001FE3FFFFF800000007D
:10084000000000FF1E0FFF000000000000007FFE00
:100850001FFC000000000000003FFFFFF800000048
:10086000000000000FDFFFE0000000000000001F9C
:1008700019FFC0000000000000003F3CFF00000026
:1008800000000000007E7CF8000000000000000076
:100890007FFE7C0000000000000000FFFFFC000065
:1008A000000000000000FFFFFE000000000000004C
:1008B00000FFFFFE0000000000000001FFEFFE004F
:1008C00000000000000001FFCFFE0000000000005B
:1008D0000003FF07FE0000000000000003FC07FE0D
:1008E0000000000000000003F003FE000000000014
:1008F0000000018000FE0000000000000000000079
:100900007E000000000000000000003E000000002B
:100910000000000000000C00000000000007800044
:10092000FC000003C0000000078001FC000003C0C1
:10093000000000078001FC000003C00000000780E9
:1009400001E00000001E000000078001E000000040
:100950001E007FE3F79FF9FDE7787BDFC0FFF7FF1D
:10096000BFFDFDFF787BDFC0FFF7FFBFFDFDFF7818
:100970007BDFC0F0F787BC3DE1FF787BDE00F0F75E
:1009800087BC3DE1F0787BDE0000F787803DE1E049
:10099000787BDE007FF7879FFDE1E0787BDE00FF5C
:1009A000F787BFFDE1E0787BDE00F0F787BC3DE133
:1009B000E0787BDE00F0F787BC3DE1E0787BDE008D
:1009C000F0F787BC3DE1E0787BDE00FFF7FFBFFD7D
:1009D000E1E07FFBDFC0FFF7FFBFFDE1E07FFBDF72
:1009E000C07CF3F39F3DE1E03E7BCFC00000000000
:1009F00000000000000000FFFFFFFFFFFFFFFFFF00
:100A0000FFC0FFFFFFFFFD68DB111A31C0FFFFFFD2
:100A1000FFFD2B5AFB6AEFC0FFFFFFFFFD4B5B3B67
:100A20001A33C0FFFFFFFFFD6B5BDB6AFDC00000F8
:100A30000000240027002A000000000025002800F4
:100A40002B0004040404040404040202020202024F
:100A50000303030303030102040810204080010282
:100A60000408102001020408102000000008000201
:100A70000100000304070000000000000000DE1871
:100A8000B22111241FBECFEFD8E0DEBFCDBF11E0F1
:100A9000A0E0B1E0ECE2FDE402C005900D92AC3FB5
:100AA000B107D9F724E0ACEFB1E001C01D92AE313F
:100AB000B207E1F715E0C0E4D5E004C02197FE01DC
:100AC0000E947124CF33D107C9F70E94CF190C942B
:100AD00089260C94000008958230C8F4E82FF0E0D5
:100AE000EE0FFF1FE45FFE4F71836083813041F0A2
:100AF000809169008C7F826080936900E89A0895F4
:100B000080916900837F886080936900E99A0895E5
:100B100090E0FC01E659F54F2491FC01EA5AF54FAB
:100B20003491FC01EE5BF54FE491EE23C9F02223F2
:100B300039F0233001F1A8F4213019F1223029F1E4
:100B4000F0E0EE0FFF1FE85CF54FA591B4918FB771
:100B5000F894EC91611126C030953E233C938FBFF1
:100B600008952730A9F02830C9F0243049F7809142
:100B700080008F7D03C0809180008F7780938000FC
:100B8000DFCF84B58F7784BDDBCF84B58F7DFBCF7E
:100B90008091B0008F778093B000D2CF8091B00069
:100BA0008F7DF9CF3E2BDACFCF93DF9390E0FC011E
:100BB000EA5AF54F24918E5B954FFC01849188236E
:100BC000D1F090E0880F991FFC01E25DF54FA591EF
:100BD000B491FC01E85CF54FC591D491623071F499
:100BE0009FB7F8943C91822F809583238C93E88162
:100BF0002E2B28839FBFDF91CF9108958FB7F89454
:100C0000EC912E2B2C938FBFF6CF1F93CF93DF93B6
:100C1000182FEB0161E00E94D405209739F460E0C1
:100C2000812FDF91CF911F910C948805CF3FD10583
:100C300011F461E0F5CFE12FF0E0E659F54FE491D2
:100C4000E33031F140F4E130B1F0E230E1F0C038AE
:100C5000D1057CF7E4CFE73029F1E83059F1E430F1
:100C6000B1F780918000806280938000D0938B00E8
:100C7000C0938A0004C084B5806884BDC7BDDF917D
:100C8000CF911F91089584B5806284BDC8BDF7CF10
:100C900080918000806880938000D0938900C09309
:100CA0008800EDCF8091B00080688093B000C09341
:100CB000B300E5CF8091B00080628093B000C09314
:100CC000B400DDCF3FB7F8948091EF029091F0022D
:100CD000A091F102B091F20226B5A89B05C02F3F6A
:100CE00019F00196A11DB11D3FBFBA2FA92F982F52
:100CF0008827BC01CD01620F711D811D911D42E04D
:100D0000660F771F881F991F4A95D1F708958F9214
:100D10009F92AF92BF92CF92DF92EF92FF924B01E0
:100D20005C010E9462066B017C010E9462066C19E4
:100D30007D098E099F09683E734081059105A8F3DE
:100D400021E0821A9108A108B10888EEC80E83E05C
:100D5000D81EE11CF11C81149104A104B10429F7EF
:100D6000FF90EF90DF90CF90BF90AF909F908F90CB
:100D700008952FB7F8946091EB027091EC02809186
:100D8000ED029091EE022FBF089508950895089501
:100D90000895AF92BF92CF92DF92EF92FF920F939E
:100DA0001F93CF93DF936C017B018B01040F151F01
:100DB000EB015E01AE18BF08C017D10759F0699169
:100DC000D601ED91FC910190F081E02DC6010995CD
:100DD000892B79F7C501DF91CF911F910F91FF907A
:100DE000EF90DF90CF90BF90AF900895FC01538DAE
:100DF000448D252F30E0842F90E0821B930B5417F5
:100E000010F0CF96089501970895FC01918D828D81
:100E1000981761F0A28DAE0FBF2FB11D5D968C911A
:100E2000928D9F5F9F73928F90E008958FEF9FEF59
:100E300008950F931F930E94B9066093FF02709369
:100E40000003809301039093020387EF92E00E94D6
:100E5000050797FF1DC00E94B9060091FF0210917F
:100E600000032091010330910203601B710B820B80
:100E7000930B0091FB021091FC022091FD02309136
:100E8000FE026017710782079307F8F28FEF9FEF5A
:100E90001F910F910895FC01918D828D981731F06B
:100EA000828DE80FF11D858D90E008958FEF9FEF03
:100EB0000895FC01918D228D892F90E0805C9F4FD9
:100EC000821B91098F739927089587EF92E00E9402
:100ED000590721E0892B09F420E0822F089580E052
:100EE00090E0892B29F00E94650781110C94000085
:100EF0000895FC01A48DA80FB92FB11DA35ABF4FAF
:100F00002C91848D90E001968F739927848FA68908
:100F1000B7892C93A089B1898C91837080648C935C
:100F2000938D848D981306C00288F389E02D80810B
:100F30008F7D80830895EF92FF920F931F93CF933D
:100F4000DF93EC0181E0888F9B8D8C8D98131AC004
:100F5000E889F989808185FF15C09FB7F894EE89EB
:100F6000FF896083E889F989808183708064808348
:100F70009FBF81E090E0DF91CF911F910F91FF9093
:100F8000EF900895F62E0B8D10E00F5F1F4F0F733B
:100F90001127E02E8C8D8E110CC00FB607FCFACFF6
:100FA000E889F989808185FFF5CFCE010E94790714
:100FB000F1CFEB8DEC0FFD2FF11DE35AFF4FF082C7
:100FC0009FB7F8940B8FEA89FB8980818062CFCF2D
:100FD000CF93DF93EC01888D8823B9F0AA89BB8970
:100FE000E889F9898C9185FD03C0808186FD0DC05B
:100FF0000FB607FCF7CF8C9185FFF2CF808185FF7C
:10100000EDCFCE010E947907E9CFDF91CF9108950E
:1010100020918702260F3327331F21323105ECF44C
:101020002091AB02FC0190E080E0243069F082E086
:101030000895A09187022191AC0149595D4FA40FF9
:10104000B52FB11D2C930196861798F380918702D6
:10105000680F6093870280E0089581E00895109200
:10106000AB0281E08093AD021092AC0261E082E1BC
:101070000E94880561E083E10E948805E9EBF0E0C9
:1010800080818E7F808380818D7F808388E48093C0
:10109000B80085E48093BC000895CF93DF9391E07E
:1010A000909366028823B9F0C091B800D091BA003D
:1010B0008091BC008A7B8093BC0060E082E10E944A
:1010C000880560E083E10E9488050E942F08D09384
:1010D000BA00C093B800DF91CF910895E091D70294
:1010E0008091D602E81730F4F0E0EF5BFD4F80818D
:1010F00090E008958FEF9FEF08959091D70280912F
:10110000D6022FEF3FEF981748F4E92FF0E0EF5B9E
:10111000FD4F208130E09F5F9093D702C901089571
:101120008091D6029091D702891B990B0895CF9296
:10113000DF92EF92FF920F931F93CF93DF937C0187
:10114000CB018A012091F602222389F0EB016B0189
:10115000C40ED51ECC15DD0569F06991D701ED915E
:10116000FC910190F081E02DC7010995F3CF642F28
:101170000E940808C801DF91CF911F910F91FF9045
:10118000EF90DF90CF900895CF93DF931F92CDB76C
:10119000DEB769832091F6022223F9F02091F30251
:1011A000203258F021E030E0FC013383228390E0CC
:1011B00080E00F90DF91CF9108958091F402E82FA5
:1011C000F0E0EF5DFD4F998190838F5F8093F40293
:1011D0008093F30281E090E0ECCF61E0CE010196D4
:1011E0000E940808F7CFCF92DF92EF92FF920F9301
:1011F0001F93CF93DF93D091F30281E0D13208F0B7
:101200009CC0C091F5020E9462066B017C01809136
:10121000AB0281116CC082E08093AB0281E08093CD
:10122000AD028FEF8093AA021092CF02D093CE022C
:10123000A1E2B2E0EEEAF2E080E0D8138DC01092B5
:10124000D0028091D002CC0FC82BC093D0028091E5
:10125000AC02813009F084C01092AC020E94620698
:101260006B017C018091D0028093BB00809162026F
:1012700090916302A0916402B0916502892B8A2B40
:101280008B2BA1F00E946206009162021091630212
:1012900020916402309165026C197D098E099F09C5
:1012A000061717072807390708F442C08091BC00C9
:1012B00083FDD8CF85EC8093BC000E9462066B0151
:1012C0007C018091AB02823009F44CC08091AA026B
:1012D0008F3F09F469C08091AA02803209F466C088
:1012E0008091AA02803309F463C084E026C0809113
:1012F000620290916302A0916402B0916502892B11
:101300008A2B8B2B09F483CF0E9462060091620224
:101310001091630220916402309165026C197D097D
:101320008E099F09061717072807390708F06FCF9E
:10133000809161020E944D0885E01092F4021092A3
:10134000F3021092F602DF91CF911F910F91FF905F
:10135000EF90DF90CF9008959D9191938F5F6DCF27
:1013600085EEA9CF8091620290916302A091640200
:10137000B0916502892B8A2B8B2B09F4A2CF0E9496
:101380006206009162021091630220916402309122
:1013900065026C197D098E099F0906171707280732
:1013A000390708F08ECFC4CF80E0C7CF82E0C5CF29
:1013B00083E0C3CF0895FC016370668B84819581BF
:1013C00026813781613039F0633029F09187808739
:1013D00033872287089531872087938782870895EE
:1013E0002F923F924F925F926F927F928F929F9235
:1013F000AF92BF92CF92DF92EF92FF920F931F9323
:10140000CF93DF93CDB7DEB76A970FB6F894DEBF00
:101410000FBECDBF9A8F898F7A8369834A01D22EFE
:1014200018870F833701BC2CDC0159962D913C9114
:101430005A972115310509F015C118968D919C9187
:101440001997681779070CF0D7C11A968D919C915E
:10145000481759070CF0D0C14C2C512CB6E0CB9E4C
:10146000600D711D11247C876B87161617060CF012
:10147000C3C1EA2DF0E0FA87E98793E0EE0FFF1F82
:101480009A95E1F7F88BEF87CF01840F951F181617
:1014900019060CF0B1C1A98DBA8D58968C918111A5
:1014A00004C0BFEABD1508F4D394A98DBA8DED919F
:1014B000FC9111970284F385E02DCD010995B5E0EB
:1014C000DB9EC0011124E981FA81FC83EB83312C7E
:1014D000212C9C0128583F4F388F2F8B4A2D50E0EC
:1014E0005E8B4D8BEF89F88DE20DF31D44919E824A
:1014F0008D82D12CC12C69817A81620D731D7A8B0A
:10150000698B842F90E09C8B8B8BE98DFA8DA08169
:10151000B18140FF82C0F1E0BF126FC0AF126DC059
:101520001C96ED91FC912F813885A4014C0D5D1D19
:1015300069897A89898D9A8D0995EB89FC89F59558
:10154000E7954E2F5FEFC51AD50A6D817E818D8993
:101550009E89680F791F7E836D8398E0C916D10438
:1015600081F6AFEF2A1A3A0AEB81FC81E40DF51DF2
:10157000FC83EB83F5E02F16310409F0B3CF2F8104
:10158000388526153705B9F0A98DBA8DED91FC91F6
:10159000B1E0BB1257C0AB1255C069817A816B5F55
:1015A0007F4F0088F189E02D830128E030E0A4011D
:1015B000898D9A8D0995A98DBA8DED91FC91119720
:1015C0000688F789E02DCD016A960FB6F894DEBF44
:1015D0000FBECDBFDF91CF911F910F91FF90EF9084
:1015E000DF90CF90BF90AF909F908F907F906F9043
:1015F0005F904F903F902F9009941E96ED91FC9133
:10160000EF80F88409851A8592014D815E816B8196
:101610007C81898D9A8D099590CF2F8138852615EB
:10162000370509F48ACF31E0B31207C0A31205C011
:101630001C96ED91FC91930178CF1E96ED91FC9153
:101640007301E0CF6B857C85641975090684F78585
:10165000E02D73010F8518899201A401898D9A8D5F
:101660000995A9CFF90134969491329745915491F7
:10167000D91AB7E0DB9E400D511D1124F9012591C7
:1016800034913C8B2B8BFA0125903490FA013296E1
:10169000749031963491398B32966490319644909F
:1016A00041E04C1518F04A1508F07FC0662D062C55
:1016B000000C770B7C836B83842D042C000C990B1E
:1016C0009E838D83A98DBA8DED91FC911197028433
:1016D000F385E02DCD010995512CD12CC12CEA2D9B
:1016E000F0E0FA87E9872B2D30E03C872B87A401B7
:1016F000440D511D47FC5A95588F4F8B69817A8153
:10170000660D711D67FC7A957E876D877989C7168E
:1017100008F051CF2C2D30E04D815E81420F531FD8
:10172000A985BA854A9FC0014B9F900D5A9F900D85
:101730001124FC01E80DF91DF88BEF87852D612C34
:101740004F89588D420F531F5E8B4D8B671408F0E5
:1017500050C044244394480E877041F4C10101965F
:10176000EB89FC89E20DF31DD4901C01D7FE19C052
:10177000A98DBA8DED91FC91662D70E0B1E0BB12A0
:1017800019C0AB1217C02D853E85620F731F0484EC
:10179000F585E02D2F8138854D895E89898D9A8D5B
:1017A0000995DD0C6394842DD1CF1E821D821C828D
:1017B0001B8288CF4B815C81640F751FAB85BC8514
:1017C0006A9FC0016B9F900D7A9F900D11246981D3
:1017D0007A81680F791F0684F785E02DEF80F88401
:1017E00009851A859D014F855889898D9A8D09959E
:1017F000D8CF570CC3948ACF6A960FB6F894DEBF41
:101800000FBECDBFDF91CF911F910F91FF90EF9051
:10181000DF90CF90BF90AF909F908F907F906F9010
:101820005F904F903F902F9008958F929F92AF922C
:10183000CF92EF92FF920F931F93CF93DF93EC0120
:10184000262F898D9A8D009709F051C06A30D1F406
:101850001D861C868D8948E0849F900111248E8509
:101860009F85820F931F9F878E8781E090E0DF9195
:10187000CF911F910F91FF90EF90CF90AF909F90DD
:101880008F9008956D3089F3CC88AD888F89882337
:10189000C1F08C859D8536E0C39E800D911D11247D
:1018A000488559854817590764F44E855F851D861C
:1018B0001C8638E0A39EC0011124840F951F9F87CA
:1018C0008E87EA88FB88088919894E855F856C8533
:1018D0007D85CE010E94F0092C898C859D8546E08E
:1018E000249F800D911D11249D878C87BECF6A3067
:1018F00069F41D861C86FC013896E4912D898E853D
:101900009F85E29F800D911D1124ADCF6D3009F4AC
:10191000ACCFFC0134963491631708F4A6CF32960D
:10192000E491E61708F4A1CFFC01329685909490DB
:10193000462F431B342F47E0349F800C911C112409
:10194000F401329634913196E4913323A9F1EE23D8
:1019500099F1CC88F4013596E491AD884F89442300
:1019600001F10E2E000CFF0BE30FF11DCE9EA00126
:10197000CF9E500D11246C857D85460F571F6885BD
:101980007985641775076CF44E855F851D861C8606
:10199000FC013896E491AE9E400D511D11245F87E5
:1019A0004E87EA88FB88088919894E855F856C8592
:1019B0007D85CE010E94F009F4013496E4912C89D2
:1019C0008C859D85E29F800D911D11248DCF6F9296
:1019D0007F928F929F92AF92BF92CF92DF92EF92BF
:1019E000FF920F931F93CF93DF93EC016B015A018A
:1019F00039014801E881F9810284F385E02D0995D8
:101A0000E881F9810288F389E02D87019301A5011E
:101A1000B601CE010995A501480D591D4150510946
:101A2000E881F9810288F389E02D9301B601CE01A6
:101A30000995E881F9810088F189E02D9401A501DB
:101A4000B601CE010995C60CD71CB60161507109CB
:101A5000E881F9810088F189E02D9401A501CE018A
:101A60000995E881F9810688F789E02DCE01DF919B
:101A7000CF911F910F91FF90EF90DF90CF90BF908B
:101A8000AF909F908F907F906F9009946F927F920C
:101A90008F929F92AF92BF92CF92DF92EF92FF927E
:101AA0000F931F93CF93DF935C01EB016A01490110
:101AB00038018701DC01ED91FC916217730719F57C
:101AC000641675062CF0962D872D3A01C92ED82E56
:101AD0009601261937092F5F3F4F048CF58DE02DB5
:101AE000A301BE01C5010995DF91CF911F910F910F
:101AF000FF90EF90DF90CF90BF90AF909F908F902E
:101B00007F906F9008954615570591F42617370773
:101B100024F0892D4B01C22FD82F9E012819390995
:101B20002F5F3F4F068CF78DE02DA601B401DACF71
:101B30000284F385E02D0995D501ED91FC9104888F
:101B4000F589E02D83019401A601BE01C501099527
:101B5000D501ED91FC910688F789E02DC501DF9153
:101B6000CF911F910F91FF90EF90DF90CF90BF909A
:101B7000AF909F908F907F906F900994EF92FF921B
:101B80000F931F93DC011A960D911C911B971896C9
:101B90002D913C911997ED91FC9100A0F1A1E02DC0
:101BA0007B0150E040E070E060E009951F910F91EB
:101BB000FF90EF9008954F925F926F927F928F9275
:101BC0009F92AF92BF92CF92DF92EF92FF920F93CC
:101BD0001F93CF93DF936C012B015A013901480108
:101BE000DC01ED91FC910284F385E02D0995E20181
:101BF000640C751CD601ED91FC91C615D7055CF4FB
:101C00000088F189E02D87019401A501BE01C6017C
:101C100009952196EFCF0688F789E02DC601DF915F
:101C2000CF911F910F91FF90EF90DF90CF90BF90D9
:101C3000AF909F908F907F906F905F904F9009949E
:101C40008F929F92AF92BF92CF92DF92EF92FF92CC
:101C50000F931F93CF93DF93EC015B014A0169015E
:101C6000E881F9810284F385E02D099595012C0D19
:101C70003D1D21503109E881F9810488F589E02D65
:101C800078018401A401B501CE010995E881F981AB
:101C90000688F789E02DCE01DF91CF911F910F913A
:101CA000FF90EF90DF90CF90BF90AF909F908F907C
:101CB00009948F929F92AF92BF92CF92DF92EF9250
:101CC000FF920F931F93CF93DF93EC015B014A01C7
:101CD00069017801E881F9810284F385E02D099595
:101CE000C80CD91C860101501109E881F9810488CA
:101CF000F589E02D9501A401B501CE010995E88192
:101D0000F9810688F789E02DCE01DF91CF911F91EF
:101D10000F91FF90EF90DF90CF90BF90AF909F908A
:101D20008F900994EF92FF920F931F93DC01ED9136
:101D3000FC9100A0F1A1E02D09951F910F91FF905A
:101D4000EF9008950F931F93DC01ED91FC91068CA9
:101D5000F78DE02D09951F910F9108950F931F9313
:101D6000DC01ED91FC91048CF58DE02D09951F911E
:101D70000F910895DC01ED91FC910084F185E02D37
:101D800009943F924F925F926F927F928F929F92AF
:101D9000AF92BF92CF92DF92EF92FF920F931F9379
:101DA000CF93DF935C017B014A016901390187E030
:101DB000680E711C93E0759467949A95E1F72B0176
:101DC000400E511E10E000E0312CD0E0C0E0CE010A
:101DD00087709927330C892B59F4FE0183E0F59520
:101DE000E7958A95E1F7E00FF11FE80DF91D3490B2
:101DF00037FE0AC021E030E0A701B5016C0F7D1F5E
:101E000080EA93E00E94BA0E2196CC16DD06F9F620
:101E10008FEFE81AF80A060D171DE414F504A9F669
:101E2000DF91CF911F910F91FF90EF90DF90CF90B6
:101E3000BF90AF909F908F907F906F905F904F90EA
:101E40003F9008952F923F924F925F926F927F92B0
:101E50008F929F92AF92BF92CF92DF92EF92FF92BA
:101E60000F931F93CF93DF9300D000D000D0CDB756
:101E7000DEB73C016A013E832D83FC82EB82580170
:101E8000A41AB50AB7FE03C0B194A194B1088D801D
:101E90009E80861A970A97FE03C0919481949108B8
:101EA0008A149B045CF0902F812F0D811E819D83ED
:101EB0008E839C2D8D2D6B01692F782F0C151D05A0
:101EC0005CF09D818E817E836D83692F782F902FAA
:101ED000812F8601C92ED82E1601201A310A2B0116
:101EE0002D813E81421A530A57FE03C051944194FA
:101EF0005108710137FE03C03FEFE31AF30AF5946E
:101F0000E7948D819E81861797075CF5A1E0B0E08C
:101F1000BA83A983C016D1064CF1D301ED91FC918F
:101F20000484F585E02D2B813C81A8016D817E81A3
:101F30008A149B041CF04D815E81B801C301099590
:101F4000E418F508F7FE0AC02D813E8189819A8147
:101F5000280F391F3E832D83E20CF31C0F5F1F4FA8
:101F6000D9CF2FEF3FEF3A832983D4CF26960FB6F0
:101F7000F894DEBF0FBECDBFDF91CF911F910F91BF
:101F8000FF90EF90DF90CF90BF90AF909F908F9099
:101F90007F906F905F904F903F902F900895EF92B9
:101FA000FF920F931F93CF93DF93EC01EC80FD80A2
:101FB0006E157F050CF070C057FF04C0240F351F4D
:101FC00050E040E08E819F81FA01E20FF31F8E17EF
:101FD0009F071CF49C01241B350B121613060CF0F2
:101FE0005BC0922F842F8695869586958E9DD00115
:101FF0008F9DB00D11246A0F7B1FAF8DB8A1A60F66
:10200000B71F477049F188E0841B482F682F70E0A4
:10201000FB01E059FF4FE491281708F063C0621BF1
:1020200071092FEF30E002C0359527956A95E2F7E8
:10203000E2230130110539F0B0F10230110561F5EC
:102040008C91E82702C08C91E82BEC93941720F137
:102050002C813D81A20FB31FE92FE41BE83078F0FB
:102060000230110521F58E2F9C9190959C932C8127
:102070003D81A20FB31F88508830B0F7E770EE2380
:1020800059F0F0E0E859FF4FE49101301105F9F003
:1020900010F10230110519F1DF91CF911F910F91CD
:1020A000FF90EF900895E0958C91E823CECF81E0EA
:1020B0000115110509F480E081959E2F8C932C81E8
:1020C0003D81A20FB31F98509830C0F7D7CF8C91A5
:1020D000E82BEC93E1CFE0958C91E823FACF8C913B
:1020E000E827F7CF0130110509F4ADCFE0F2023057
:1020F000110509F4A5CFAE0DBF1DAECF0F931F93F1
:10210000CF93DF9377FF04C0260F371F70E060E0A6
:10211000DC011496CD91DC91FB01E20FF31FCE1789
:10212000DF071CF49E01261B370B121613064CF515
:10213000FA0157FD3796A3E0F595E795AA95E1F7E3
:10214000EC9FD001ED9FB00DFC9FB00D11246A0FE4
:102150007B1FDC015F96ED91FC91E60FF71F477046
:10216000552781E090E001C0880F4A95EAF7482F93
:102170000130110559F0A8F02E0F3F1F0230110554
:10218000E1F0DF91CF911F910F9108952E0F3F1F26
:10219000E217F307B1F38191DF011197842B8C9340
:1021A000F7CF80952E0F3F1FE217F30751F3919160
:1021B000DF01119798239C93F7CFE217F30709F3F8
:1021C0008191DF01119784278C93F7CF0F931F9391
:1021D000FA01DC0156964C9156974230E9F04330B3
:1021E000A1F1413061F514964D915C91DA01AE1B7D
:1021F000BF0BFD01E21BF30B77FD0BC0DC01169654
:102200004D915C916417750724F4AB01BF010E94E6
:102210007E101F910F91089514964D915C91DA01F3
:10222000A61BB70BBD0161507109DC0116964D91DB
:102230005C91DA01AE1BBF0BFD01E21BF30B77FDD6
:10224000E8CFAF010E94CF0FE4CF16964D915C917D
:10225000DA01A61BB70BBD0161507109CDCF0F93F9
:102260001F93FA01DC0156964C9156974230A9F023
:10227000433091F1413019F514964D915C91DA019A
:10228000AE1BBF0BFD013197F7FD04C0AB01BF01D1
:102290000E94CF0F1F910F91089514964D915C915C
:1022A000DA01A61BB70BBD01DC0116964D915C91BE
:1022B000DA01AE1BBF0BFD013197621B730BF7FDFB
:1022C000E9CFDC0116964D915C91E417F50714F700
:1022D000AF010E947E10DECF16964D915C91DA011F
:1022E000A61BB70BBD01621B730BCECFFC0177FDA4
:1022F00064C080859185681779070CF05EC057FD32
:102300005CC082859385481759070CF056C08689B2
:102310008230B1F0833029F1813041F4848195819C
:10232000841B950BAB01BC01615071092130310553
:1023300009F108F443C02230310509F463C008955F
:1023400084819581DC01A61BB70BBD016150710929
:1023500086819781DC01A41BB50BAD014150510969
:10236000E5CF86819781861B970BBA01AC0141505E
:102370005109DCCFCA0157FD0796A3E095958795D3
:10238000AA95E1F7A481B5818A9F90018B9F300DBA
:102390009A9F300D1124620F731F078CF0A1E02D5E
:1023A000E60FF71F4770552721E030E001C0220FEC
:1023B0004A95EAF78081822B80830895CA0157FDF0
:1023C000079633E0959587953A95E1F7A481B58115
:1023D0008A9F90018B9F300D9A9F300D1124620FC0
:1023E000731F078CF0A1E02DE60FF71F47705527EC
:1023F00081E090E001C0880F4A95EAF780959081CE
:102400008923DACFCA0157FD079623E09595879572
:102410002A95E1F7A481B5818A9F90018B9F300DA9
:102420009A9F300D1124620F731F078CF0A1E02DCD
:10243000E60FF71F4770552721E030E001C0220F5B
:102440004A95EAF780818227B7CF08958EBD0000B4
:102450000DB407FEFDCF8EB50895EF92FF920F9356
:102460001F93CF93DF937C01C62F8091BD03909182
:10247000BE03009709F459C02091C10331E03093A5
:10248000F6022093F5021092F4021092F302DC019E
:10249000ED91FC910190F081E02D60E009958701BC
:1024A000EE24E394F12CD1E0C1508091BD039091D2
:1024B000BE03CF3F91F1B0E2EB16F104D8F00E94D9
:1024C000F3088091BD039091BE032091C103D09386
:1024D000F6022093F5021092F4021092F302DC014E
:1024E000ED91FC910190F081E02D60E00995EE24E2
:1024F000E394F12C8091BD039091BE03F8016491A7
:10250000DC01ED91FC910190F081E02D0995BFEF88
:10251000EB1AFB0A0F5F1F4FC7CFDF91CF911F91BF
:102520000F91FF90EF900C94F308E091CD03F091A0
:10253000CE0390818091D303809589238083870186
:10254000C15008F438C0F80184912091BB03309148
:10255000BC03232B29F00E9426120F5F1F4FF0CFE0
:1025600028E030E040E8E091C903F091CA0390917F
:10257000D103582F5423D9F05081952B9083E091AB
:10258000CB03F091CC0390815091D203952B908393
:10259000E091CB03F091CC0350819091D2039095C0
:1025A00095239083469521503109E9F6D6CF508185
:1025B00090959523E3CFDF91CF911F910F91FF90DD
:1025C000EF9008951F93CF93DF93EC018D8D9E8D37
:1025D000009721F1162F29A131E03093F6022093C4
:1025E000F5021092F4021092F302DC01ED91FC91DD
:1025F0000190F081E02D60E009958D8D9E8DDC01CC
:10260000ED91FC910190F081E02D612F09958D8D68
:102610009E8DDF91CF911F910C94F308ADA5BEA5BF
:102620009C918BA9809589238C938B8D9C8D892B74
:1026300031F0862FDF91CF911F910C94261228E064
:1026400030E080E8A9A5BAA599A9462F4823C1F092
:102650004C91942B9C93ABA5BCA59C914AA9942B1F
:102660009C93ABA5BCA54C919AA9909594239C935F
:1026700086952150310931F7DF91CF911F9108954F
:102680004C9190959423E6CF8CBD9DBD08951F93EA
:10269000CF93DF93EC01162F8D8D9E8D892BB1F199
:1026A0002DA93EA94FA958AD60E074E284EF90E0F7
:1026B0000E946B23205131094109510956954795D4
:1026C000379527952093B80066EA111167EACE0185
:1026D0000E94E2128D8D9E8D892B41F129AD3AAD7C
:1026E0004BAD5CAD60E074E284EF90E00E946B2340
:1026F000205131094109510956954795379527953C
:102700002093B800DF91CF911F9108958B8D9C8D00
:10271000892B21F08EAD9FAD0E944413EFA5F8A93F
:1027200090818CA9809589238083CECFEFA5F8A9CD
:1027300080819CA9892B8083E5CFE0EEF3E0818541
:102740009285A385B4850196A11DB11D81879287CD
:10275000A387B4870895EDEFF3E081859285A38583
:10276000B4850196A11DB11D81879287A387B48787
:102770000895CF92DF92EF92FF920F931F93CF9322
:10278000DF93EC012D853E854F85588969897A89CB
:102790008B899C890E948D236B017C010B8D1C8D84
:1027A00020E030E0A9010E946C241816ECF40F5FC1
:1027B0001F4F1C8F0B8F8B8D9C8D8F3F910529F0A8
:1027C00024F08FEF90E09C8F8B8F8B8D9C8D97FFEB
:1027D00002C01C8E1B8EDF91CF911F910F91FF9035
:1027E000EF90DF90CF90089520E030E0A901C7017D
:1027F000B6010E940D2287FFDECF01501109D9CF0B
:102800000F931F93CF93DF938C01EB01FC01808129
:102810001C161D0694F070E060E0209771F00E9495
:102820000506662777276C1B7D0BF8018181DF91F8
:10283000CF911F910F910C9405060E94050670E040
:1028400060E0F3CFCF92DF92EF92FF920F931F934E
:10285000CF93DF93FC01C588D688E788F08CC18DC3
:10286000D28DCE14DF0409F5838D948DC817D90756
:10287000BCF42196D28FC18F818D928DC89EB001FC
:10288000C99E700DD89E700D1124CF01DF91CF919C
:102890001F910F91FF90EF90DF90CF900C94001458
:1028A0008C179D074CF72197E5CF8C0120E030E095
:1028B00040EA50E465857685878590890E940D22DF
:1028C00087FF0CC0CA30D1054CF4CC9EB001CD9E20
:1028D000700DDC9E700D1124C801D8CFCB30D1050E
:1028E000ACF02A97F801D28FC18F818D928D97FF1E
:1028F00002C0128E118EF801818D928DE89EB0017A
:10290000E99E700DF89E700D1124E6CF2197EACF55
:10291000CF93DF93EC0161E088810E94D40561E0F0
:1029200089810E94D40562E08A81DF91CF910C9465
:10293000D40590E080E008952091A6033091A7038C
:10294000C901079697FD079623E0959587952A95E7
:10295000E1F72091A4033091A503829FA001839FFA
:10296000500D929F500D112470E060E08091BF03E4
:102970009091C0030C9467260E945926FB01019098
:102980000020E9F73197AF01461B570BDC01ED91B1
:10299000FC910280F381E02D09948F929F92AF9277
:1029A000BF92CF92DF92EF92FF920F931F93CF933C
:1029B000DF93CDB7DEB7A1970FB6F894DEBF0FBE99
:1029C000CDBF6C01990FEE08FF08F7FE4BC06DE21A
:1029D00087EF92E00E949B078C0122273327A901F1
:1029E0002C193D094E095F0919A2CE0181967C017F
:1029F0009AE0892E912CA12CB12CCA01B901A50114
:102A000094010E946B23605DF70162937F012115A1
:102A100031054105510589F790E080E0309729F0B4
:102A2000BF0187EF92E00E94BE14080F191F66E6EF
:102A300071E087EF92E00E94BE14800F911FA19673
:102A40000FB6F894DEBF0FBECDBFDF91CF911F91BF
:102A50000F91FF90EF90DF90CF90BF90AF909F903D
:102A60008F900895A701960119A28E010F5D1F4F47
:102A70008AE0C82ED12CE12CF12CCA01B901A701A2
:102A800096010E946B23605DF80162938F0121150E
:102A900031054105510589F7309739F0BF0187EFBE
:102AA00092E00E94BE148C01C2CF10E000E0BFCFC4
:102AB0000F931F93CF93DF938C01EB01FC01808177
:102AC00091810097E1F06881798161157105A9F024
:102AD000428153812C813D814217530770F00E943F
:102AE00082268C819D81F801958384831D821C82BE
:102AF000DF91CF911F910F9108950E941325888136
:102B00009981F801918380838A819B819383828359
:102B10008C819D8195838483198218821B821A82FD
:102B2000E5CFCF93DF93EC0188819981009711F075
:102B30000E941325198218821D821C821B821A8210
:102B4000DF91CF910895FC0180819181009711F070
:102B50000C94132508950F931F93CF93DF93EC01EB
:102B600088819981009759F02A813B812617370780
:102B700030F081E0DF91CF911F910F9108958B018B
:102B80006F5F7F4F0E949C25009759F0998388833F
:102B90001B830A832C813D81232B59F7FC01108272
:102BA000E8CF80E0E7CFEF92FF920F931F93CF9390
:102BB000DF93EC017B018A01BA010E94AB15811100
:102BC0000BC0CE010E949115CE01DF91CF911F91D4
:102BD0000F91FF90EF9008951D830C83B7018881BA
:102BE00099810E948226F0CFCF93DF93EC0161158B
:102BF000710571F0FB0101900020E9F73197AF01F9
:102C0000461B570B0E94D315CE01DF91CF9108953B
:102C10000E949115F9CFCF93DF93EC01FB0186174A
:102C2000970749F0608171816115710541F0448118
:102C300055810E94D315CE01DF91CF9108950E9456
:102C40009115F9CFFC011182108213821282158234
:102C50001482FB0101900020E9F73197AF01461B78
:102C6000570B0C94D31585ED8093BC0080916202C4
:102C700090916302A0916402B09165020796A11D34
:102C8000B11D23E0B695A795979587952A95D1F71D
:102C90002091BC0024FD03C01092AB020895409126
:102CA0006202509163026091640270916502452B4B
:102CB000462B472B69F30097A105B10541F02AE2A5
:102CC0002A95F1F700C00197A109B109E1CF8091E0
:102CD00061020C944D081F920F920FB60F921124AF
:102CE0002F933F938F939F93AF93BF938091EB026A
:102CF0009091EC02A091ED02B091EE023091EA02C7
:102D000023E0230F2D3758F50196A11DB11D209307
:102D1000EA028093EB029093EC02A093ED02B09351
:102D2000EE028091EF029091F002A091F102B09139
:102D3000F2020196A11DB11D8093EF029093F00263
:102D4000A093F102B093F202BF91AF919F918F9146
:102D50003F912F910F900FBE0F901F90189526E86E
:102D6000230F0296A11DB11DD2CF1F920F920FB655
:102D70000F9211242F933F934F935F936F937F9301
:102D80008F939F93AF93BF93EF93FF93E0910E01C7
:102D9000F0910F010995FF91EF91BF91AF919F9134
:102DA0008F917F916F915F914F913F912F910F90F4
:102DB0000FBE0F901F9018951F920F920FB60F9293
:102DC00011242F933F934F935F936F937F938F9330
:102DD0009F93AF93BF93EF93FF93E0910C01F0911A
:102DE0000D010995FF91EF91BF91AF919F918F9147
:102DF0007F916F915F914F913F912F910F900FBEF7
:102E00000F901F9018951F920F920FB60F921124DA
:102E10002F933F934F935F936F937F938F939F93E2
:102E2000AF93BF93EF93FF9387EF92E00E947907F0
:102E3000FF91EF91BF91AF919F918F917F916F9192
:102E40005F914F913F912F910F900FBE0F901F9068
:102E500018951F920F920FB60F9211242F938F93F4
:102E60009F93EF93FF93E0910703F0910803808114
:102E7000E0910D03F0910E0382FD1BC090818091C3
:102E800010038F5F8F7320911103821741F0E0913F
:102E90001003F0E0E950FD4F958F80931003FF91F0
:102EA000EF919F918F912F910F900FBE0F901F90D8
:102EB00018958081F4CF1F920F920FB60F921124B4
:102EC0002F933F934F935F936F937F938F939F9332
:102ED000AF93BF93EF93FF938091B900887F8036C3
:102EE00009F44AC0F0F5883209F4A7C018F580311A
:102EF00009F49BC0B8F4882309F4F9C0883009F4B8
:102F000094C0FF91EF91BF91AF919F918F917F916D
:102F10006F915F914F913F912F910F900FBE0F9046
:102F20001F901895883109F488C0803251F780933A
:102F3000AA0214C0803409F49DC040F48033B9F370
:102F40008833F9F68093AA0285ECB0C0803509F485
:102F500085C0883509F496C0883499F60E943316E6
:102F6000D0CF883909F48CC038F5883729F050F46F
:102F7000883611F0803729F683E08093AB021092F7
:102F8000A90257C0883809F47BC0803919F080380D
:102F900009F0B7CF8091A902803208F071C0E091AA
:102FA000A90281E08E0F8093A9028091BB00F0E01E
:102FB000E757FD4F80833DC0803B39F0E0F4803A15
:102FC00009F479C0883A09F09CCF84E08093AB0281
:102FD0001092880210928702E091D402F091D502FB
:102FE00009958091870281110FC081E0809387024B
:102FF0001092670209C0803C09F4A6CF883C09F40E
:10300000A3CF883B09F07DCFE091880281E08E0F4D
:1030100080938802F0E0E959FD4F80818093BB00E6
:10302000909188028091870229C08091D00280937C
:10303000BB0085EC8093BC0064CF9091CF0280915F
:10304000CE02981758F5E091CF0281E08E0F809361
:10305000CF02F0E0E255FD4F8081E9CFE091CF0251
:1030600081E08E0F8093CF028091BB00F0E0E255AB
:10307000FD4F80839091CF028091CE029817C8F2C5
:1030800085E8D8CFE091CF0281E08E0F8093CF0208
:103090008091BB00F0E0E255FD4F80838091AD024E
:1030A00081115CCF81E08093AC0284EA8093BC0004
:1030B0001092AB0226CF85EC8093BC001092AB023D
:1030C0008091A902803230F4E091A902F0E0E75744
:1030D000FD4F10826091A90270E0E091D202F09160
:1030E000D30289E892E009951092A9020ACF1092C2
:1030F000AA0234CF1F920F920FB60F9211242F9372
:103100003F938F939F93EF93FF938091200287FFCC
:103110001FC01092850010928400809120028F5F62
:10312000809320028091200287FF04C080912002BA
:103130008C30ACF0809184009091850004968034AE
:103140009C4990F1809184009091850004962EC056
:103150008091200287FFE1CF80912002DECF209175
:10316000840030918500E09120028E2FEE0F990BA4
:10317000FC01EE0FFF1FE80FF91FE450FE4F8181A5
:103180009281820F931F9093890080938800809191
:103190002002FF91EF919F918F913F912F910F907E
:1031A0000FBE0F901F90189580E49CE990938900C2
:1031B000809388008FEF80932002EBCFCF92DF9235
:1031C000EF92FF920F931F93CF93DF9300D000D025
:1031D00000D0CDB7DEB7E7EFF2E01382128288EEBF
:1031E00093E0A0E0B0E084839583A683B7832AE1CF
:1031F00031E03183208325EC30E03587248724ECCF
:1032000030E03787268720EC30E0318B208B21ECB3
:1032100030E0338B228B22EC30E0358B248B26EC94
:1032200030E0378B268B118E128E138E148E24E98C
:10323000E22E23E0F22EF70113821282848395831B
:10324000A683B7838CE291E09183808369E671E085
:10325000CE0101960E94221668E671E080E094E0BB
:103260000E9422160DEF13E085E0F801808386E0CE
:10327000818382E08283BE016F5F7F4F80E094E0B4
:103280000E940B16F8011186128613861486118A85
:10329000128A138A148A128E118E148E138E168A35
:1032A000158ACC24C394D12CD08EC78ACE01019626
:1032B0000E94A31563E771E0CE0101960E942216D9
:1032C00068E671E083EE93E00E94221600EE13E0C0
:1032D0008AE0F80180838BE0818383E08283BE01F2
:1032E0006F5F7F4F83EE93E00E940B16F80111860B
:1032F000128613861486118A128A138A148A128EF1
:10330000118E148E138E168A158AD08EC78ACE011E
:1033100001960E94A315E0EAF3E01382128220E8EE
:1033200030E03583248380E290E097838683318781
:10333000208793878287168A1586148617861686B5
:1033400081E0858B848B2FEF3FEF338B228B318B8A
:10335000208B878B108E128E118E148E138EF68E0C
:10336000E58E10A2178E8FEF84A385A386A387A373
:1033700080A780E586AF17AE8EE391E091838083CE
:1033800026960FB6F894DEBF0FBECDBFDF91CF916A
:103390001F910F91FF90EF90DF90CF900895CF9302
:1033A000DF93CDB7DEB7E1970FB6F894DEBF0FBE5F
:1033B000CDBF789484B5826084BD84B5816084BDBE
:1033C00085B5826085BD85B5816085BD80916E00C3
:1033D000816080936E0010928100809181008260F4
:1033E0008093810080918100816080938100809131
:1033F00080008160809380008091B1008460809320
:10340000B1008091B00081608093B00080917A001B
:10341000846080937A0080917A00826080937A0041
:1034200080917A00816080937A0080917A00806830
:1034300080937A001092C100E0910703F091080395
:1034400082E08083E0910303F09104031082E09115
:103450000503F091060380E1808310920F03E09151
:103460000B03F0910C0386E08083E0910903F09157
:103470000A03808180618083E0910903F0910A034F
:10348000808188608083E0910903F0910A03808144
:1034900080688083E0910903F0910A0380818F7D29
:1034A00080838DEF93E00E94881480EE93E00E9469
:1034B00088148091FF03823009F469C0833009F0D9
:1034C00068C081E06BEA73E10E946C058091E203C1
:1034D000823009F460C0833009F05FC081E06DE99B
:1034E00073E10E946C0584E690E0A0E0B0E0809378
:1034F000000190930101A0930201B0930301809316
:10350000040190930501A0930601B09307018AE09E
:1035100090E0A0E0B0E08093080190930901A093AF
:103520000A01B0930B018091BF039091C003892BD6
:10353000B1F52091A6033091A703C901079697FD25
:103540000796B3E095958795BA95E1F72091A40386
:103550003091A503AC01429FC001439F900D529F43
:10356000900D11240E9477249093C0038093BF0391
:10357000892BA9F46EE771E087EF92E00E94BE14F8
:1035800066E671E087EF92E00E94BE14FFCF80E014
:1035900099CF8FEF97CF80E0A2CF8FEFA0CF0E947F
:1035A0009C142091A6033091A7038091A4039091CD
:1035B000A503B901213231050CF4DEC16054710953
:1035C00077FF02C06F5F7F4F7595679582559109B0
:1035D00097FD019600E410E022E530E04EE657E06A
:1035E000959587950E94C10E82E08093C2038091D9
:1035F000BD039091BE03892B09F4D1C18CE3809364
:10360000C1031092D7021092D6021092F4021092C7
:10361000F3020E942F0885EC96E09093D5028093E8
:10362000D40286EC96E09093D3028093D2028091EC
:10363000C80387FD1EC061E00E94D40561E080914F
:10364000C8030E94880561E070E080E090E00E947D
:10365000870660E08091C8030E9488056AE070E0F8
:1036600080E090E00E94870661E08091C8030E949C
:1036700088058091BD039091BE03892B09F44EC249
:103680002091D5033091D6034091D7035091D803B0
:1036900060E074E284EF90E00E946B2320513109D6
:1036A0004109510956954795379527952093B800BC
:1036B00064E08AE895E00E942D126091A6036150B3
:1036C00080EA93E00E94E21264E086E895E00E94BE
:1036D0002D128091C20360E1813009F064E180EA3B
:1036E00093E00E94E21264E082E895E00E942D12CD
:1036F0008FE88093DD038091A4039091A503803827
:10370000910509F022C28091A6039091A70380340D
:10371000910509F02AC28091C203813009F038C2B4
:103720008FE98093DD0312E16AED80EA93E00E9465
:10373000E212612F80EA93E00E94E21261E880EADF
:1037400093E00E94E2126091DD0380EA93E00E9420
:10375000E21269ED80EA93E00E94E2128091C203D6
:1037600062E2813009F061EF80EA93E00E94E212A8
:1037700066E08CE795E00E942D128091BD03909148
:10378000BE03892B09F406C22091D9033091DA03D4
:103790004091DB035091DC0360E074E284EF90E041
:1037A0000E946B23205131094109510956954795D3
:1037B000379527952093B80060ED77E080E090E0A2
:1037C0000E94870681E08093B4038093B50381E073
:1037D00090E09093B3038093B2039093B1038093EE
:1037E000B00369E971E0CE0101960E9422160E94A1
:1037F0009C141092AD031092AC0385E090E090937E
:10380000AF038093AE034D815E8169817A8180EA46
:1038100093E00E94C90666E671E080EA93E00E94A8
:10382000BE148091BD039091BE03892B09F4BCC1E5
:103830002091D5033091D6034091D7035091D803FE
:1038400060E074E284EF90E00E946B232051310924
:103850004109510956954795379527952093B8000A
:1038600064E088E795E00E942D128091A403909176
:10387000A5038034910509F0AEC160E280EA93E0CF
:103880000E94E2126091A403615E80EA93E00E94CC
:10389000E2122091A6033091A703C901079697FD74
:1038A000079623E0959587952A95E1F72091A40343
:1038B0003091A503829F7001839FF00C929FF00CC2
:1038C00011240091BF031091C0038091BD0390911A
:1038D000BE03E00EF11E009709F407C22091C10358
:1038E00031E03093F6022093F5021092F402109228
:1038F000F302DC01ED91FC910190F081E02D60E498
:103900000995680101E010E0BB24B3948091BD03E8
:103910009091BE03EC14FD0409F466C10032110558
:10392000D0F00E94F3088091BD039091BE032091D6
:10393000C103B092F6022093F5021092F4021092A5
:10394000F302DC01ED91FC910190F081E02D60E447
:10395000099501E010E08091BD039091BE03F6014E
:1039600061916F01DC01ED91FC910190F081E02DFE
:1039700009950F5F1F4FCACF6052710977FF02C0D0
:103980006F5F7F4F759567958357910997FD0196F6
:1039900000E210E023E730E04EE855E021CE61E0A0
:1039A0008091C6030E94D40561E08091C7030E9404
:1039B000D4058091C603082E000C990BFC01EE5B28
:1039C000F54FE491F0E0EE0FFF1FE85CF54F259115
:1039D00034913093CE032093CD03FC01EA5AF54F86
:1039E000E491E093D3038091C703082E000C990B58
:1039F000FC01EE5BF54FE491F0E0EE0FFF1FE85C99
:103A0000F54FA591B491B093D003A093CF03FC01DF
:103A1000EA5AF54FE491E093D4038C91E82BEC93B0
:103A20008091BB039091BC03892B09F434C01FB76C
:103A3000F8948091D102811127C0ECE4FAE08491DE
:103A4000E0E6FAE09491E82FF0E0EE0FFF1FE25D70
:103A5000F54FA591B491EC91E92321F461E08AE05E
:103A60000E94880561E08AE00E94D4058CB58061DF
:103A70008CBD8CB580648CBD61E08DE00E94D40566
:103A800061E08BE00E94D4058091D1028F5F80932A
:103A9000D1021FBFCCCD61E08091C4030E94D40548
:103AA00061E08091C5030E94D4058091C403082E73
:103AB000000C990BFC01EE5BF54FE491F0E0EE0F8A
:103AC000FF1FE85CF54F259134913093CA03209392
:103AD000C903FC01EA5AF54FE491E093D1038091C8
:103AE000C503082E000C990BFC01EE5BF54FE49129
:103AF000F0E0EE0FFF1FE85CF54FA591B491B09395
:103B0000CC03A093CB03FC01EA5AF54FE491E09378
:103B1000D2038C91E095E823EC9389CD8091BB038F
:103B20009091BC03892B31F08091DE039091DF03EB
:103B30000E944413E091CF03F091D00390818091D3
:103B4000D403809589238083B3CD8036910589F491
:103B50008091A6039091A703409739F48091C20306
:103B6000813029F480E18093DD0312E0DDCD8FEA1E
:103B7000FACF80349105C9F78091A6039091A703ED
:103B8000809799F78091C203813011F480E1C9CD0B
:103B90008FECC7CDE091CF03F091D003808190915D
:103BA000D403892B808308CE8091BB039091BC0302
:103BB000892B31F08091DE039091DF030E94441342
:103BC000E091CF03F091D00390818091D403809550
:103BD0008923808345CE60E080EA93E00E94E21270
:103BE0006091A403615051CE0E94F3088091BD03FF
:103BF0009091BE03892B09F4C0C02091D903309164
:103C0000DA034091DB035091DC0360E074E284EF5F
:103C100090E00E946B2320513109410951095695CA
:103C20004795379527952093B800CE0101960E94BD
:103C3000A3151092D9021092D80270E060E0809132
:103C4000FD030E94050670E060E08091FE030E9483
:103C5000050670E060E08091E0030E94050670E0D8
:103C600060E08091E1030E9405067E01FFE1EF0E16
:103C7000F11C22242A94322C9E012F5F3F4F3901E0
:103C8000890168E671E0C8010E9422160A5F1F4F91
:103C9000E016F106B1F787EF92E00E945907892BF1
:103CA00009F4D4C068E671E0CE018B960E9422161A
:103CB0000E9419070FA518A997FD69C08F8F18A238
:103CC0000F5F1F4FB801CE018B960E94AB15882362
:103CD00079F32BA53CA58FA598A9B701820F931F57
:103CE0000E94822618AB0FA7E3CFE091CD03F0919D
:103CF000CE0380819091D303892B80830E151F05FD
:103D000009F474CF6801BFEFCB1ADB0AF801808198
:103D10002091BB033091BC03232B21F00E9426127B
:103D20008601ECCF28E030E040E8E091C903F09153
:103D3000CA039091D103582F5423D9F05081952B69
:103D40009083E091CB03F091CC0390815091D2030A
:103D5000952B9083E091CB03F091CC03508190910F
:103D6000D203909595239083469521503109E9F629
:103D7000D7CF508190959523E3CFE091CF03F09179
:103D8000D00380819091D403892B80834ECFABA444
:103D9000BCA4A114B10429F065010115110509F0B5
:103DA000ECC18FA598A9892B09F484C26EEA71E051
:103DB00087EF92E00E94BE144FA558A96BA57CA581
:103DC00087EF92E00E94C90666E671E087EF92E015
:103DD0000E94BE141EA21DA218A61FA21AA619A6F2
:103DE000BE01655D7F4FCE0185960E940B16912C1A
:103DF000812C89A59AA5892B71F0CDA0DEA06AE35C
:103E000070E0C6010E946E26009729F08C010C1903
:103E10001D0917FFE8C126E0289DC001299D900DCE
:103E20001124BE016B5D7F4F21E030E02C0F3D1F60
:103E3000820F931F0E940B16CE0185960E94A31538
:103E400041E049ABCE018B960E94A31559A9552399
:103E500009F474C08D819E81892B09F46FC061ECD7
:103E600071E089819A810E947926892B09F066C0C8
:103E70008F819885009709F41FC20E94C8216B01A9
:103E80008D859E85009709F41BC20E94C8218B0175
:103E900082E090E09093D9028093D802B6010D2C75
:103EA000000C880B990B0E9414224B015C0120E04E
:103EB00030E0A9010E946C2418160CF005C2809213
:103EC0000E0490920F04A0921004B0921104A1E08D
:103ED000B0E0B0931304A0931204B801012E000CBB
:103EE000880B990B0E9414224B015C0120E030E00A
:103EF000A9010E946C2418160CF00DC28092F103E7
:103F00009092F203A092F303B092F403E1E0F0E0A8
:103F1000F093F603E093F5036AEC71E087EF92E02B
:103F20000E94BE14C6010E94CD1462EE71E087EFBC
:103F300092E00E94BE14C8010E94CD14CE014996A1
:103F40000E94A315CE0143960E94A315CE010D96A3
:103F50000E94A315CE0107960E94A315CE010196DB
:103F60000E94A3150E94B9064090000150900101E3
:103F700060900201709003010091DA021091DB025F
:103F80002091DC023091DD02AB01BC01401B510BE2
:103F9000620B730B441555056605770508F468C078
:103FA0008090060490900704A0900804B090090443
:103FB000B201550C880B990B0E9414222B013C0175
:103FC000C501B4010E94122220E030E040EA51E431
:103FD0000E94FA2320E030E64AE657E40E9473226A
:103FE000A30192010E94FA2360930A0470930B04C8
:103FF00080930C0490930D04109206041092070411
:1040000010920804109209046091E9037091EA0388
:104010008091EB039091EC030E94122220E030E0AB
:1040200040EA51E40E94FA2320E030E64AE657E4F1
:104030000E947322A30192010E94FA236093ED0370
:104040007093EE038093EF039093F0031092E903D3
:104050001092EA031092EB031092EC030E94B9064F
:104060006093DA027093DB028093DC029093DD02AE
:104070000E94B9060091DE021091DF022091E00259
:104080003091E102601B710B820B930B00910401D4
:104090001091050120910601309107016017710709
:1040A0008207930790F08DEF93E00E94B91380EEA2
:1040B00093E00E94B9130E94B9066093DE027093E8
:1040C000DF028093E0029093E1020E94B906009122
:1040D000E2021091E3022091E4023091E502601BBC
:1040E000710B820B930B0091080110910901209133
:1040F0000A0130910B01601771078207930790F056
:104100008DEF93E00E94221480EE93E00E9422142F
:104110000E94B9066093E2027093E3028093E40286
:104120009093E5020E94B9060091E6021091E70221
:104130002091E8023091E902601B710B820B930B16
:10414000683E73408105910550F00E94B906609366
:10415000E6027093E7028093E8029093E90220E080
:1041600030E0232B09F488CD0E946507882309F4E9
:1041700083CD0E94000080CD640146013FEF831A89
:10418000930AD6018C91082E000C990B0E940422F0
:10419000892B91F7015011090A0D1B1DF80180812F
:1041A000082E000C990B0E940422892B31F00C156B
:1041B0001D0518F001501109F1CFA8014F5F5F4FA5
:1041C0004C195D0958AB4FA7AC14BD0420F4B601DF
:1041D000C5010E945E26EBA5FCA58FA598A9E80F56
:1041E000F91F1082DECD68E671E0C7010E94221639
:1041F00089A59AA50097B1F068018017910708F486
:104200006C01EDA1FEA1EC0DFD1DB08010826DA131
:104210007EA1C7010E94F4158DA19EA1C80ED91ED2
:10422000D601BC92B701C3010E945815C7010E9474
:10423000A3150F5F1F4FA9A4BAA4A016B10628F0BA
:104240009A2D8B2D5801092F182F68E671E0C701B0
:104250000E942216C9A4DAA4AC14BD04B8F40C154B
:104260001D0508F46801EDA1FEA1EC0DFD1D1081F6
:1042700010826DA17EA16A0D7B1DC7010E94F415FD
:104280008DA19EA1C80ED91EF6011083B701CE01E3
:1042900085960E945815C7010E94A315FFEF8F1A3B
:1042A0009F0A26E0620E711C35E08316910409F026
:1042B000A0CDC2CD19AAC6CD60E070E0CB01DFCDA4
:1042C00060E070E0CB01E3CD20E030E0A901C50162
:1042D000B4010E940D2287FF11C0B7FAB094B7F85D
:1042E000B09480920E0490920F04A0921004B092A9
:1042F00011043092130420921204EFCD10920E0498
:1043000010920F04109210041092110410921304D2
:1043100010921204E2CD20E030E0A901C501B40101
:104320000E940D2287FF11C0B7FAB094B7F8B0947D
:104330008092F1039092F203A092F303B092F403FF
:104340003092F6032092F503E7CD1092F10310921C
:10435000F2031092F3031092F4031092F6031092FA
:10436000F503DACD8EE391E09093A1038093A0034F
:104370008091BF039091C003009711F00E94132514
:1043800083EE93E00E94A31580E094E00C94A315C3
:104390001F93FC0199278827BC01E89411911032E2
:1043A000E9F3193010F01E30C8F31B3251F01D3202
:1043B00049F4689406C00E94EF21610F711D811DB0
:1043C000911D119110531A30B0F33EF490958095E1
:1043D000709561957F4F8F4F9F4F1F910895592F73
:1043E000482F372F262F660F771F881F991F660FBC
:1043F000771F881F991F620F731F841F951F660FF9
:10440000771F881F991F089591110C94E022803224
:1044100019F089508550C8F708950E944F2208F47A
:1044200081E00895E89409C097FB3EF4909580954B
:10443000709561957F4F8F4F9F4F9923A9F0F92F6A
:1044400096E9BB279395F695879577956795B795E8
:10445000F111F8CFFAF4BB0F11F460FF1BC06F5FCE
:104460007F4F8F4F9F4F16C0882311F096E911C0E0
:10447000772321F09EE8872F762F05C0662371F001
:1044800096E8862F70E060E02AF09A95660F771F15
:10449000881FDAF7880F9695879597F90895990FF1
:1044A0000008550FAA0BE0E8FEEF16161706E807FE
:1044B000F907C0F012161306E407F50798F0621B1F
:1044C000730B840B950B39F40A2661F0232B242BF4
:1044D000252B21F408950A2609F4A140A6958FEF13
:1044E000811D811D08950E9486220C94FA220E944B
:1044F000EC2238F00E94F32220F0952311F00C9466
:10450000E3220C94E92211240C942E230E940B2305
:1045100070F3959FC1F3950F50E0551F629FF00116
:10452000729FBB27F00DB11D639FAA27F00DB11D2F
:10453000AA1F649F6627B00DA11D661F829F2227B8
:10454000B00DA11D621F739FB00DA11D621F839F3F
:10455000A00D611D221F749F3327A00D611D231F15
:10456000849F600D211D822F762F6A2F11249F5763
:1045700050409AF0F1F088234AF0EE0FFF1FBB1F66
:10458000661F771F881F91505040A9F79E3F510525
:1045900080F00C94E3220C942E235F3FE4F3983ECA
:1045A000D4F3869577956795B795F795E7959F5FCF
:1045B000C1F7FE2B880F911D9695879597F9089561
:1045C00099278827089597F99F6780E870E060E051
:1045D00008959FEF80EC089500240A94161617069C
:1045E00018060906089500240A94121613061406E4
:1045F00005060895092E0394000C11F4882352F047
:10460000BB0F40F4BF2B11F460FF04C06F5F7F4FFE
:104610008F4F9F4F089557FD9058440F551F59F0E5
:104620005F3F71F04795880F97FB991F61F09F3F9F
:1046300079F087950895121613061406551FF2CFC8
:104640004695F1DF08C0161617061806991FF1CF18
:1046500086957105610508940895E894BB2766273F
:104660007727CB0197F908952F923F924F925F924F
:104670006F927F928F929F92AF92BF92CF92DF9272
:10468000EF92FF920F931F93CF93DF93CDB7DEB7D7
:10469000CA1BDB0B0FB6F894DEBF0FBECDBF09946B
:1046A0002A88398848885F846E847D848C849B84C2
:1046B000AA84B984C884DF80EE80FD800C811B81D0
:1046C000AA81B981CE0FD11D0FB6F894DEBF0FBEFF
:1046D000CDBFED010895A1E21A2EAA1BBB1BFD015F
:1046E0000DC0AA1FBB1FEE1FFF1FA217B307E407D1
:1046F000F50720F0A21BB30BE40BF50B661F771F29
:10470000881F991F1A9469F7609570958095909508
:104710009B01AC01BD01CF0108955058BB27AA27CA
:104720000E94A5230C94FA220E94EC2238F00E94E9
:10473000F32220F039F49F3F19F426F40C94E92277
:104740000EF4E095E7FB0C94E322E92F0E940B2383
:1047500058F3BA17620773078407950720F079F4B6
:10476000A6F50C942D230EF4E0950B2EBA2FA02D58
:104770000B01B90190010C01CA01A0011124FF270E
:10478000591B99F0593F50F4503E68F11A16F04009
:10479000A22F232F342F4427585FF3CF4695379508
:1047A0002795A795F0405395C9F77EF41F16BA0BCD
:1047B000620B730B840BBAF09150A1F0FF0FBB1F7B
:1047C000661F771F881FC2F70EC0BA0F621F731FC4
:1047D000841F48F4879577956795B795F7959E3F21
:1047E00008F0B0CF9395880F08F09927EE0F9795B2
:1047F000879508950E940E240C94FA220E94F322B9
:1048000058F00E94EC2240F029F45F3F29F00C940C
:10481000E32251110C942E230C94E9220E940B23C5
:1048200068F39923B1F3552391F3951B550BBB27DF
:10483000AA2762177307840738F09F5F5F4F220F24
:10484000331F441FAA1FA9F335D00E2E3AF0E0E81B
:1048500032D091505040E695001CCAF72BD0FE2F65
:1048600029D0660F771F881FBB1F261737074807F9
:10487000AB07B0E809F0BB0B802DBF01FF279358B1
:104880005F4F3AF09E3F510578F00C94E3220C9470
:104890002E235F3FE4F3983ED4F386957795679592
:1048A000B795F7959F5FC9F7880F911D96958795E6
:1048B00097F90895E1E0660F771F881FBB1F621705
:1048C00073078407BA0720F0621B730B840BBA0BC3
:1048D000EE1F88F7E09508950E944F2208F48FEFAD
:1048E0000895EE0FFF1F0590F491E02D09940F93AA
:1048F0001F93CF93DF938230910510F482E090E014
:10490000E0911C04F0911D0430E020E0B0E0A0E054
:10491000309799F42115310509F44AC0281B390B49
:1049200024303105D8F58A819B816115710589F1A3
:10493000FB0193838283FE0111C04081518102817A
:10494000138148175907E0F04817590799F4109751
:1049500061F012960C93129713961C933296CF0126
:10496000DF91CF911F910F91089500931C04109334
:104970001D04F4CF2115310551F04217530738F0CB
:10498000A901DB019A01BD01DF01F801C1CFEF01EF
:10499000F9CF90931D0480931C04CDCFFE01E20F4C
:1049A000F31F819391932250310939832883D7CF04
:1049B00020911A0430911B04232B41F42091120101
:1049C0003091130130931B0420931A04209110019D
:1049D000309111012115310541F42DB73EB74091B9
:1049E000140150911501241B350BE0911A04F0912C
:1049F0001B04E217F307A0F42E1B3F0B28173907FF
:104A000078F0AC014E5F5F4F2417350748F04E0F2A
:104A10005F1F50931B0440931A04819391939FCF7F
:104A2000F0E0E0E09CCFCF93DF930097E9F0FC014A
:104A3000329713821282A0911C04B0911D04ED01E3
:104A400030E020E01097A1F420813181820F931F84
:104A500020911A0430911B042817390709F061C00E
:104A6000F0931B04E0931A04DF91CF910895EA01BB
:104A7000CE17DF07E8F54A815B819E01411551059C
:104A8000B1F7E901FB83EA8349915991C40FD51F1E
:104A9000EC17FD0761F4808191810296840F951FC8
:104AA000E90199838883828193819B838A83F0E0E3
:104AB000E0E012968D919C9113970097B9F52D9196
:104AC0003C911197CD010296820F931F20911A04F9
:104AD00030911B042817390739F6309751F5109299
:104AE0001D0410921C04B0931B04A0931A04BCCFA5
:104AF000D383C28340815181840F951FC817D90782
:104B000061F44E5F5F4F88819981480F591F51832F
:104B100040838A819B81938382832115310509F02B
:104B2000B0CFF0931D04E0931C049ECFFD01DC0187
:104B3000C0CF13821282D7CFB0E0A0E0E2EAF5E264
:104B40000C9436238C01009751F4CB010E947724FA
:104B50008C01C801CDB7DEB7E0E10C945223FC0113
:104B6000E60FF71F9C0122503109E217F30708F402
:104B70009DC0D901CD91DC911197C617D70798F048
:104B8000C530D10530F3CE0104978617970708F397
:104B9000C61BD70B2297C193D1936D937C93CF0102
:104BA0000E941325D6CF5B01AC1ABD0A4C018C0EB6
:104BB0009D1EA0911C04B0911D04512C412CF12C80
:104BC000E12C109731F580911A0490911B048815FF
:104BD000990509F05CC04616570608F058C0809148
:104BE000100190911101009741F48DB79EB740914B
:104BF000140150911501841B950BE817F90708F073
:104C000055C0F0931B04E0931A04F901718360838B
:104C1000A0CF8D919C91119712966C90129713963C
:104C20007C901397A815B90559F56C0142E0C40EA4
:104C3000D11CCA14DB0420F1AC014A195B09DA016A
:104C40001296159780F06282738251834083D90156
:104C50006D937C93E114F10471F0D7011396FC93EA
:104C6000EE93129776CF22968C0F9D1FF9019183B8
:104C70008083F301EFCFF0931D04E0931C0469CF10
:104C80004816590608F42C017D01D3019ACFCB01B7
:104C90000E9477247C01009749F0AE01B8010E9480
:104CA0005E26C8010E941325870153CF10E000E063
:104CB00050CF81E090E0F8940C948926FB01DC0150
:104CC00002C001900D9241505040D8F70895DC0188
:104CD00001C06D9341505040E0F70895FC0181916F
:104CE000861721F08823D9F7992708953197CF01A6
:104CF0000895FB01DC018D91019080190110D9F319
:104D0000990B0895FB01DC0101900D920020E1F761
:104D1000089515E0C0E4D5E004C0FE010E947124AE
:104D20002196C134D107C9F7F894FFCFE8030000FA
:104D3000E8030000E8030000C806C80600001E04DF
:104D40008000000000009B07C906F606E807590727
:104D500005074B0700000000C408970899146B056D
:104D600090087D086E0800000000150CC906991413
:104D7000C70676116B05BA0E920EAE0EA20E220F6A
:104D80006B05DB094713E6102F11DB0DBE0D460D39
:104D9000E70C0D0A004C656674576865656C005237
:104DA00069676874576865656C004F4C45442069B5
:104DB0006E697469616C697A6174696F6E2066618D
:104DC000696C656400446973706C617920696E690F
:104DD0007469616C697A65642E00436F6D6D616EF4
:104DE000642072656365697665643A2000534554B2
:104DF0005350454544006C65667420776865656C62
:104E00002052504D2073657420746F3A20007269EF
:104E100067687420776865656C2052504D20736513
:084E20007420746F3A200000B9
:107E0000112484B714BE81FFF0D085E080938100F7
:107E100082E08093C00088E18093C10086E0809377
:107E2000C20080E18093C4008EE0C9D0259A86E02C
:107E300020E33CEF91E0309385002093840096BBD3
:107E4000B09BFECF1D9AA8958150A9F7CC24DD24C4
:107E500088248394B5E0AB2EA1E19A2EF3E0BF2EE7
:107E6000A2D0813461F49FD0082FAFD0023811F036
:107E7000013811F484E001C083E08DD089C08234E0
:107E800011F484E103C0853419F485E0A6D080C0E4
:107E9000853579F488D0E82EFF2485D0082F10E0AE
:107EA000102F00270E291F29000F111F8ED06801E7
:107EB0006FC0863521F484E090D080E0DECF843638
:107EC00009F040C070D06FD0082F6DD080E0C81688
:107ED00080E7D80618F4F601B7BEE895C0E0D1E017
:107EE00062D089930C17E1F7F0E0CF16F0E7DF06D8
:107EF00018F0F601B7BEE89568D007B600FCFDCFD4
:107F0000A601A0E0B1E02C9130E011968C91119780
:107F100090E0982F8827822B932B1296FA010C0160
:107F200087BEE89511244E5F5F4FF1E0A038BF0790
:107F300051F7F601A7BEE89507B600FCFDCF97BE46
:107F4000E89526C08437B1F42ED02DD0F82E2BD052
:107F50003CD0F601EF2C8F010F5F1F4F84911BD097
:107F6000EA94F801C1F70894C11CD11CFA94CF0C13
:107F7000D11C0EC0853739F428D08EE10CD085E9AC
:107F80000AD08FE07ACF813511F488E018D01DD067
:107F900080E101D065CF982F8091C00085FFFCCF94
:107FA0009093C60008958091C00087FFFCCF809118
:107FB000C00084FD01C0A8958091C6000895E0E648
:107FC000F0E098E1908380830895EDDF803219F02E
:107FD00088E0F5DFFFCF84E1DECF1F93182FE3DFCA
:107FE0001150E9F7F2DF1F91089580E0E8DFEE27F6
:047FF000FF270994CA
:027FFE00040479
:00000001FF
