:020000040000FA
:100000000C9411010C94DB080C94B4080C94390185
:100010000C9439010C9439010C9439010C94390178
:100020000C9439010C9439010C9439010C94390168
:100030000C9439010C9439010C9439010C94390158
:100040000C946A080C9439010C9428090C94020948
:100050000C9439010C9439010C9439010C94390138
:100060000C9439010C9439014E414E494E49545972
:10007000494E46CDCCCC3D0AD7233C17B7D1387773
:10008000CC2B329595E6241FB14F0A000020410089
:1000900000C84200401C4620BCBE4CCA1B0E5AAED3
:1000A000C59D7441726475696E6F204F4E4C494E08
:1000B000450041726475696E6F20426F6F74696E9E
:1000C000672E2E2E00436F6D6D616E642072656326
:1000D00065697665643A200043616E27742066691D
:1000E0006E642074686520706F6C69637900547564
:1000F000726E696E6720726967687400476F696E17
:1001000067207374726169676874005475726E69F0
:100110006E67206C6566740043757272656E74203C
:10012000747261636520706F6C6963793A20006E48
:100130006F004F62737461636C653F2000202D2057
:1001400000202D20006F6E2D6C696E653F3A2000F7
:10015000202F206375725F52504D2000202F207495
:1001600067745F64757479200052696768742077DA
:100170006865656C3A206375725F647574792000F8
:10018000202F206375725F52504D2000202F207465
:1001900067745F6475747920004C656674207768B5
:1001A00065656C3A206375725F64757479200044EC
:1001B000726976656D6F64653A20003D3D3D3D3D59
:1001C0003D3D3D3D3D0000000000240027002A0089
:1001D00000000000250028002B0000000000230084
:1001E0002600290004040404040404040202020298
:1001F00002020303030303030102040810204080EA
:100200000102040810200102040810200000000868
:1002100000020100000304070000000000000000CD
:100220005A0911241FBECFEFD8E0DEBFCDBF23E0B7
:10023000A6E7B1E001C01D92A231B207E1F711E0DB
:10024000A0E0B1E0E2EBFBE202C005900D92A63720
:10025000B107D9F711E0C1E1D1E004C02197FE0157
:100260000E94A215C031D107C9F70E945C0A0C9404
:10027000D7150C9400008230C8F4E82FF0E0EE0FA0
:10028000FF1FE05FFE4F71836083813041F08091FA
:1002900069008C7F826080936900E89A089580915C
:1002A0006900837F886080936900E99A08958330AC
:1002B00081F028F4813099F08230A9F008958730D8
:1002C000A9F08830C9F08430B1F4809180008F7D2E
:1002D00003C0809180008F7780938000089584B55B
:1002E0008F7784BD089584B58F7DFBCF8091B0005A
:1002F0008F778093B00008958091B0008F7DF9CF03
:10030000CF93DF93282F30E0F901E45FFD4F849114
:10031000F901E850FE4FD491F901EC51FE4FC49120
:10032000CC23A1F081110E945701EC2FF0E0EE0FD9
:10033000FF1FE652FE4FA591B491EC91ED2381E0B1
:1003400090E009F480E0DF91CF91089580E090E0A3
:10035000FACF1F93CF93DF93282F30E0F901E45FAA
:10036000FD4F8491F901E850FE4FD491F901EC5111
:10037000FE4FC491CC23A9F0162F81110E94570182
:10038000EC2FF0E0EE0FFF1FE053FE4FA591B4916C
:100390008FB7F894EC91111108C0D095DE23DC934F
:1003A0008FBFDF91CF911F910895DE2BF8CFCF93B0
:1003B000DF9390E0FC01E850FE4F24918C519E4F5A
:1003C000FC0184918823C9F090E0880F991FFC01FB
:1003D000EA53FE4FA591B491FC01E053FE4FC59145
:1003E000D49161110DC09FB7F8948C912095822310
:1003F0008C938881282328839FBFDF91CF91089514
:10040000623051F49FB7F8943C91822F80958323FA
:100410008C93E8812E2BEFCF8FB7F894EC912E2B95
:100420002C938FBFEACF1F93CF93DF93182FEB014D
:1004300061E00E94D701209739F460E0812FDF91BD
:10044000CF911F910C94A901CF3FD10511F461E028
:10045000F5CFE12FF0E0E45FFD4FE491E33031F1BF
:1004600040F4E130B1F0E230E1F0C038D1057CF782
:10047000E4CFE73029F1E83059F1E430B1F7809169
:100480008000806280938000D0938B00C0938A00AC
:1004900004C084B5806884BDC7BDDF91CF911F9132
:1004A000089584B5806284BDC8BDF7CF8091800077
:1004B000806880938000D0938900C0938800EDCF3E
:1004C0008091B00080688093B000C093B300E5CF06
:1004D0008091B00080628093B000C093B400DDCF03
:1004E0003FB7F8948091E1019091E201A091E3017E
:1004F000B091E40126B5A89B05C02F3F19F00196E5
:10050000A11DB11D3FBFBA2FA92F982F8827BC016D
:10051000CD01620F711D811D911D42E0660F771F95
:10052000881F991F4A95D1F708950895AF92BF92F9
:10053000CF92DF92EF92FF920F931F93CF93DF93AF
:100540006C017B018B01040F151FEB015E01AE18DE
:10055000BF08C017D10759F06991D601ED91FC9100
:100560000190F081E02DC6010995892B79F7C5012D
:10057000DF91CF911F910F91FF90EF90DF90CF907F
:10058000BF90AF900895FC01538D448D252F30E02E
:10059000842F90E0821B930B541710F0CF96089590
:1005A00001970895FC01918D828D981761F0A28DBD
:1005B000AE0FBF2FB11D5D968C91928D9F5F9F7383
:1005C000928F90E008958FEF9FEF0895FC01918D39
:1005D000828D981731F0828DE80FF11D858D90E0A6
:1005E00008958FEF9FEF0895FC01918D228D892F43
:1005F00090E0805C9F4F821B91098F73992708952B
:1006000085EE91E00E94F40221E0892B09F420E0BC
:10061000822F089580E090E0892B29F00E9400034A
:1006200081110C9400000895FC01A48DA80FB92F2E
:10063000B11DA35ABF4F2C91848D90E001968F730A
:100640009927848FA689B7892C93A089B1898C9129
:10065000837080648C93938D848D981306C0028878
:10066000F389E02D80818F7D80830895EF92FF9242
:100670000F931F93CF93DF93EC0181E0888F9B8DC5
:100680008C8D98131AC0E889F989808185FF15C07F
:100690009FB7F894EE89FF896083E889F9898081A2
:1006A0008370806480839FBF81E090E0DF91CF9171
:1006B0001F910F91FF90EF900895F62E0B8D10E093
:1006C0000F5F1F4F0F731127E02E8C8D8E110CC002
:1006D0000FB607FCFACFE889F989808185FFF5CF4D
:1006E000CE010E941403F1CFEB8DEC0FFD2FF11D15
:1006F000E35AFF4FF0829FB7F8940B8FEA89FB898A
:1007000080818062CFCF0F931F93CF93DF938C01B3
:10071000D0E0C0E0F801EC0FFD1F6491662341F0CA
:1007200085EE91E00E943603892B11F02196F2CFDD
:10073000CE01DF91CF911F910F910895682F85EE23
:1007400091E00C943603CF93DF93EC01888D8823DE
:10075000B9F0AA89BB89E889F9898C9185FD03C024
:10076000808186FD0DC00FB607FCF7CF8C9185FF09
:10077000F2CF808185FFEDCFCE010E941403E9CF37
:10078000DF91CF9108954F925F926F927F928F92F7
:100790009F92AF92BF92CF92DF92EF92FF92CF9350
:1007A000DF9300D000D000D0CDB7DEB741155105A2
:1007B00061057105B1F06A017B019E838D83FC01A7
:1007C000478C50A061A072A020E030E0A901C301D5
:1007D000B2010E94DC12811119C0ED81FE8112A6C6
:1007E00011A626960FB6F894DEBF0FBECDBFDF91DF
:1007F000CF91FF90EF90DF90CF90BF90AF909F9000
:100800008F907F906F905F904F900895C701B601D1
:100810000E94E1122FE632E143E85AE30E944213BC
:100820004B015C01ED81FE81C388D488E588F688A0
:10083000A7019601C301B2010E9483142B013C0160
:10084000ED81FE8127A930AD41AD52AD0E948314E8
:10085000ED81FE8123A534A545A556A50E9442132E
:1008600069837A838B839C83ED81FE81FF9660810F
:100870007181828193819B01AC010E9484149B0150
:10088000AC01C701B6010E948314ED81FE81ED5BCE
:10089000FF4F20813181428153810E948414ED8178
:1008A000FE8127A530A941A952A950580E944213A0
:1008B000A50194010E94F0146B017C0120E030E05E
:1008C00040E450EC0E94DC1287FD8EC020E030E056
:1008D00040E450E4C701B6010E94981518160CF4C4
:1008E0008AC0ED81FE8123A934A945A956A9C30177
:1008F000B2010E944213A50194010E9442134B01D0
:100900005C0120E030E040EA51EC0E94DC1287FDFF
:1009100078C020E030E040EA51E4C501B4010E9413
:10092000981518160CF474C029813A814B815C81AA
:10093000C501B4010E948414A70196010E94841489
:100940006B017C0120E030E040E252EC0E94DC12BE
:1009500087FD65C020E030E040E252E4C701B60107
:100960000E94981518160CF461C0ED81FE8123AD2C
:1009700034AD45AD56ADC701B6010E9484146B017C
:100980007C0120E030E0A9010E94DC1287FD55C007
:1009900020E030E04FE753E4C701B6010E9498150C
:1009A00018160CF44EC0ED81FE81C3AED4AEE5AE98
:1009B000F6AEC701B6010E946215ED81FE8172A7F5
:1009C00061A76F3F710519F014F06FEF70E077FFCA
:1009D00002C070E060E0ED81FE8172A761A747AAC6
:1009E00050AE61AE72AEFDCEC12CD12C60E4E62ECD
:1009F00060ECF62E76CFC12CD12C50E4E52EFE2CE7
:100A000070CF812C912C40EAA42E41ECB42E8CCFD7
:100A1000812C912C30EAA32E31E4B32E85CFC12C4A
:100A2000D12C20E2E22E22ECF22E9FCFC12CD12C31
:100A300090E2E92E92E4F92E98CFC12CD12C7601C8
:100A4000B2CFC12CD12C8FE7E82E83E4F82EABCFA8
:100A50000F931F93CF93DF938C01EB01FC018081F7
:100A60001C161D0694F070E060E0209771F00E9463
:100A70001302662777276C1B7D0BF8018181DF91BC
:100A8000CF911F910F910C9413020E94130270E0FA
:100A900060E0F3CFCF92DF92EF92FF920F931F931C
:100AA000CF93DF93FC01C3A1D4A1C5A0D6A007A119
:100AB00010A5CC15DD05B1F521A532A5201B310B04
:100AC00012161306ECF42B30310514F02AE030E056
:100AD000200F311F30A727A387A190A5C89FB00181
:100AE000C99F700DD89F700D1124CF01DF91CF9158
:100AF0001F910F91FF90EF90DF90CF900C942805FD
:100B00002115310549F3263F8FEF380744F0319521
:100B100021953109021B130B10A707A3DDCF2AE093
:100B200030E0F8CF7C0120E030E040EA50E4638917
:100B30007489858996890E94DC1287FF0CC00A306F
:100B400011054CF4C09FB001C19F700DD09F700D76
:100B50001124C701CBCF0B301105B4F00A50110995
:100B6000F70110A707A387A190A597FF02C010A6C1
:100B700017A2F70187A190A5C89EB001C99E700D6C
:100B8000D89E700D1124E5CF01501109E9CFCF9304
:100B9000DF93EC011F8E18A219A21AA21CA21BA29D
:100BA00070E060E00E94280518A61FA21BAE1CAED4
:100BB0001DAE1EAE1AA619A61FAA18AE19AE1AAE01
:100BC000DF91CF910895CF92DF92EF92FF920F9332
:100BD0001F93CF93DF93EC01F8946B857C858D8513
:100BE0009E850F81188529853A8578946115710550
:100BF0008105910511F10115110521053105E9F076
:100C0000CF84D888E988FA880C151D052E053F0584
:100C1000A1F00F87188B298B3A8B613422E472077D
:100C20002FE08207910508F441C080E090E0A0E841
:100C3000BFEB8B8F9C8FAD8FBE8FDE01DF964D910A
:100C40005D916D917C911397FE01ED5BFF4F4083A9
:100C50005183628373834B895C896D897E894D934F
:100C60005D936D937C931397F894CF80D884E98437
:100C7000FA84789420E030E0A9016B8D7C8D8D8D15
:100C80009E8D0E94DC1287FF26C08F89988DA98DCA
:100C9000BA8D8B8B9C8BAD8BBE8BDF91CF911F91CF
:100CA0000F91FF90EF90DF90CF9008950E94E11296
:100CB00020E030E040EA51E40E9442139B01AC0185
:100CC00060EC71EE84E69CE40E94F0146B8F7C8FE4
:100CD0008D8F9E8FB2CF0E9470026C197D098E0994
:100CE0009F09613472448F40910578F68B8D9C8DFD
:100CF000AD8DBE8DCECFCF92DF92EF92FF920F934C
:100D00001F93CF93DF93EC010E9470020F8118852F
:100D100029853A85012B022B032BB1F00F81188511
:100D200029853A856B017C01C01AD10AE20AF30ACF
:100D300097018601003147E214072105310598F03B
:100D40000B871C872D873E876F83788789879A87D3
:100D50008B819C81AD81BE810196A11DB11D8B83CC
:100D60009C83AD83BE83DF91CF911F910F91FF9044
:100D7000EF90DF90CF90089589EC92E00C947B0681
:100D800082E892E00C947B06CF93DF93EC0161E064
:100D900088810E94D70161E089810E94D70162E0C9
:100DA0008A81DF91CF910C94D701FC010190002042
:100DB000E9F73197AF01481B590BBC0185EE91E073
:100DC0000C9496028F929F92AF92BF920F931F93B3
:100DD000CF93DF93CDB7DEB7A1970FB6F894DEBF00
:100DE0000FBECDBF19A2423008F44AE08E010F5D5C
:100DF0001F4F842E912CB12CA12CA50194010E948F
:100E00001014E62FB901CA01EA30F4F4E05DD8010C
:100E1000EE938D01232B242B252B79F790E080E096
:100E2000109719F0CD010E94D506A1960FB6F8943F
:100E3000DEBF0FBECDBFDF91CF911F910F91BF904D
:100E4000AF909F908F900895E95CE1CFCF93DF93AF
:100E50000E948303EC0186E291E00E94D5068C0F8C
:100E60009D1FDF91CF910895CF92DF92EF92FF9275
:100E7000CF93DF936C01990FEE08FF08F7FE1DC0BA
:100E80008DE20E949E03EC0166277727CB016C1947
:100E90007D098E099F094AE00E94E206C80FD91F0A
:100EA00086E291E00E94D5068C0F9D1FDF91CF91C5
:100EB000FF90EF90DF90CF9008954AE0C701B60110
:100EC0000E94E206EC01ECCFCF92DF92EF92FF920C
:100ED000CF93DF936C01990FEE08FF08F7FE17C060
:100EE0008DE20E949E03EC0166277727CB016C19E7
:100EF0007D098E099F094AE00E94E2068C0F9D1F22
:100F0000DF91CF91FF90EF90DF90CF9008954AE06E
:100F1000C701B601DF91CF91FF90EF90DF90CF90A6
:100F20000C94E2064F925F926F927F928F929F9203
:100F3000AF92BF92CF92DF92EF92FF920F931F93E7
:100F4000CF936B017C01742EAC019B010E949D1517
:100F5000882399F089E291E0CF911F910F91FF9042
:100F6000EF90DF90CF90BF90AF909F908F907F9049
:100F70006F905F904F900C94D50646015701E8940E
:100F8000B7F82FEF3FEF4FE75FE7C501B4010E94CD
:100F90009D1581110DC02FEF3FEF4FE75FE7C501B2
:100FA000B4010E94DC1218161CF48DE291E0D4CF3B
:100FB0002FEF3FEF4FE75FE4C701B6010E9498159E
:100FC00018161CF481E391E0C7CF2FEF3FEF4FE7F6
:100FD0005FECC701B6010E94DC1287FDF3CF20E071
:100FE00030E0A901C701B6010E94DC1210E000E068
:100FF00087FF08C08DE20E949E038C01F7FAF094EF
:10100000F7F8F094C0E060E070E080E09FE37C16C9
:1010100041F020E030E040E251E40E94F014CF5F64
:10102000F6CFA70196010E9484142B013C010E9477
:1010300069154B015C014AE00E94E2067C01E00E6A
:10104000F11ECC23B1F1C501B4010E94E1129B0154
:10105000AC01C301B2010E9483144B015C018EE21A
:101060000E949E03E80EF91EC15018F120E030E006
:1010700040E251E4C501B4010E9442132B013C013E
:101080000E9469154B01B12CA12C4AE0C501B401A5
:101090000E94E206E80EF91EC501B4010E94E112A9
:1010A0009B01AC01C301B2010E9483144B015C019E
:1010B000DBCFC701CF911F910F91FF90EF90DF9091
:1010C000CF90BF90AF909F908F907F906F905F90E8
:1010D0004F9008951F920F920FB60F9211242F93E5
:1010E0003F938F939F93AF93BF938091DD01909136
:1010F000DE01A091DF01B091E0013091DC0123E03D
:10110000230F2D3758F50196A11DB11D2093DC0149
:101110008093DD019093DE01A093DF01B093E001A5
:101120008091E1019091E201A091E301B091E4018D
:101130000196A11DB11D8093E1019093E201A0935E
:10114000E301B093E401BF91AF919F918F913F91E3
:101150002F910F900FBE0F901F90189526E8230F28
:101160000296A11DB11DD2CF1F920F920FB60F9202
:1011700011242F933F934F935F936F937F938F939C
:101180009F93AF93BF93EF93FF93E0911201F09180
:1011900013010995FF91EF91BF91AF919F918F91AD
:1011A0007F916F915F914F913F912F910F900FBE63
:1011B0000F901F9018951F920F920FB60F92112447
:1011C0002F933F934F935F936F937F938F939F934F
:1011D000AF93BF93EF93FF93E0911001F091110152
:1011E0000995FF91EF91BF91AF919F918F917F9161
:1011F0006F915F914F913F912F910F900FBE0F9084
:101200001F9018951F920F920FB60F9211242F93D3
:101210003F934F935F936F937F938F939F93AF937E
:10122000BF93EF93FF9385EE91E00E941403FF912B
:10123000EF91BF91AF919F918F917F916F915F914E
:101240004F913F912F910F900FBE0F901F901895C7
:101250001F920F920FB60F9211242F938F939F938B
:10126000EF93FF93E091F501F091F6018081E09119
:10127000FB01F091FC0182FD1BC090818091FE0179
:101280008F5F8F732091FF01821741F0E091FE0183
:10129000F0E0EB51FE4F958F8093FE01FF91EF91AF
:1012A0009F918F912F910F900FBE0F901F901895C7
:1012B0008081F4CF8F929F92AF92BF92CF92DF92B4
:1012C000EF92FF920F931F93E5EEF1E013821282EB
:1012D00088EE93E0A0E0B0E084839583A683B78393
:1012E00088E191E09183808385EC90E09587848705
:1012F00084EC90E09787868780EC90E0918B808BE0
:1013000081EC90E0938B828B82EC90E0958B848BC8
:1013100086EC90E0978B868B118E128E138E148E36
:10132000E9ECF2E08DEC882E8CEC982E8CE0A82E67
:101330008FE3B82E83A694A6A5A6B6A69DECC92ECB
:101340009CECD92EED2C9DE3F92EC7A6D0AAE1AADC
:10135000F2AA03E313E323EB3EE303AB14AB25ABA9
:1013600036AB86E0808385E0818382E082831382CE
:10137000148215821682178E10A211A212A2138A4D
:10138000148A158A168A178A108E118E128E40E0E2
:1013900050E060E87FEB438F548F658F768F10A607
:1013A00017A212A611A614A213A281E090E096A3A0
:1013B00085A3109208031092090310920A03109259
:1013C0000B0310920C0310920D0310920E03109257
:1013D0000F0317AA10AE11AE12AE13AE14AE15AEB7
:1013E00016AE17821086118612861386148615860D
:1013F00016861786108A118A128AE2E8F2E083A61E
:1014000094A6A5A6B6A6C7A6D0AAE1AAF2AA03AB3F
:1014100014AB25AB36AB2AE020832BE0218323E0FD
:1014200022831382148215821682178E10A211A2B3
:1014300012A2138A148A158A168A178A108E118EA0
:10144000128E438F548F658F768F10A617A212A627
:1014500011A614A213A296A385A31092C102109202
:10146000C2021092C3021092C4021092C5021092DE
:10147000C6021092C7021092C80217AA10AE11AE8F
:1014800012AE13AE14AE15AE16AE178210861186CC
:10149000128613861486158616861786108A118A78
:1014A000128A1F910F91FF90EF90DF90CF90BF9025
:1014B000AF909F908F900895CF93DF93CDB7DEB715
:1014C0002E970FB6F894DEBF0FBECDBF789484B5CB
:1014D000826084BD84B5816084BD85B5826085BD30
:1014E00085B5816085BD80916E00816080936E00BE
:1014F00010928100809181008260809381008091B0
:101500008100816080938100809180008160809360
:1015100080008091B10084608093B1008091B00020
:1015200081608093B00080917A00846080937A001B
:1015300080917A00826080937A0080917A00816045
:1015400080937A0080917A00806880937A0010926C
:10155000C100E091F501F091F60182E08083E09115
:10156000F101F091F2011082E091F301F091F401A8
:1015700080E180831092FD01E091F901F091FA0180
:1015800086E08083E091F701F091F801808180612D
:101590008083E091F701F091F80180818860808379
:1015A000E091F701F091F801808180688083E091FB
:1015B000F701F091F80180818F7D808382EB90E0CC
:1015C0000E94260789EC92E00E94C40682E892E01D
:1015D0000E94C4068091CB02823009F4A4C08330FB
:1015E00009F4A3C08FEF6CEB76E00E943B01809181
:1015F0008402823009F49BC0833009F49AC08FEFD3
:1016000060EC76E00E943B0184E690E0A0E0B0E070
:101610008093000190930101A0930201B093030114
:1016200085E090E0A0E0B0E0809304019093050194
:10163000A0930601B093070184E190E0A0E0B0E040
:101640008093080190930901A0930A01B0930B01C4
:101650008AE090E0A0E0B0E080930C0190930D014F
:10166000A0930E01B0930F0160E084E00E94D701C7
:1016700060E087E00E94D70160E088E00E94D70127
:1016800081E090E09093D3018093D20183EA90E0CF
:101690000E9426079E012F5F3F4F3C872B87AE019C
:1016A000455F5F4F5E874D87812C912C20E7A22EEE
:1016B00022E4B22E22242A94322C8AE0EB85FC8587
:1016C00011928A95E9F785EE91E00E94F4021816CE
:1016D0001906ACF585EE91E00E94D202F1E0F0939C
:1016E000BC019FB7F8944091DD015091DE016091FB
:1016F000DF017091E0019FBF4093B8015093B901A1
:101700006093BA017093BB018823E9F2E091B701BD
:10171000EF3388F491E09E0F9093B701F0E0E95821
:10172000FE4F8083D0CF80E05ECF81E05CCF80E051
:1017300067CF81E065CF21E020937601C4CF80910F
:10174000BC01882379F12FB7F8948091DD01909145
:10175000DE01A091DF01B091E0012FBF4091B801FF
:101760005091B9016091BA017091BB01841B950B36
:10177000A60BB70B4091E9015091EA016091EB0192
:101780007091EC0184179507A607B70758F01092DF
:10179000BC0180917601882309F463C21092B701DD
:1017A000109276018FB7F8944090DD015090DE01E1
:1017B0006090DF017090E0018FBF4092D80150929D
:1017C000D9016092DA017092DB018091BD019091A4
:1017D000BE01A091BF01B091C001481A590A6A0A1E
:1017E0007B0A8091000190910101A0910201B091CA
:1017F0000301481659066A067B0608F492C0411494
:10180000510461047104A1F1F8946091CC027091CB
:10181000CD028091CE029091CF021092CC02109214
:10182000CD021092CE021092CF0278940E94E11263
:1018300020E030E040EA51E40E94F01420E030E67D
:101840004AE657E40E9442136B017C01C301B201D6
:101850000E94E1129B01AC01C701B6010E94F01485
:101860006093E0027093E1028093E2029093E302BE
:101870004090D8015090D9016090DA017090DB015E
:101880008091BD019091BE01A091BF01B091C001B6
:10189000481A590A6A0A7B0AA1F1F89460918502F4
:1018A0007091860280918702909188021092850241
:1018B00010928602109287021092880278940E94F9
:1018C000E11220E030E040EA51E40E94F01420E010
:1018D00030E64AE657E40E9442136B017C01C301E3
:1018E000B2010E94E1129B01AC01C701B6010E9446
:1018F000F0146093990270939A0280939B029093E4
:101900009C028091D8019091D901A091DA01B09107
:10191000DB018093BD019093BE01A093BF01B09302
:10192000C0014090D8015090D9016090DA017090C8
:10193000DB018091C1019091C201A091C301B091DE
:10194000C401B301A201481B590B6A0B7B0B8091A8
:10195000040190910501A0910601B091070148177B
:1019600059076A077B0708F43FC084E00E948001A2
:101970008C0187E00E9480017C0188E00E94800148
:1019800021E00130110509F020E02093D10121E090
:10199000F1E0EF16F10409F020E02093CF0121E0FF
:1019A0008130910509F020E02093D0012091CD01F4
:1019B0003091CE012115310509F4DEC22130310507
:1019C00009F4E6C22F3F3F4F39F4019709F0C9C22D
:1019D0001092CE011092CD014092C1015092C201ED
:1019E0006092C3017092C4018091C5019091C601BB
:1019F000A091C701B091C80173016201C81AD90A48
:101A0000EA0AFB0A8091080190910901A0910A015C
:101A1000B0910B01C816D906EA06FB0638F1809191
:101A2000D2019091D301009709F4B9C28130910598
:101A300009F4CEC289EC92E00E94E30582E892E0CC
:101A40000E94E305B701A60189EC92E00E94C3035E
:101A5000B701A60182E892E00E94C3034092C5014B
:101A60005092C6016092C7017092C8018091C9016D
:101A70009091CA01A091CB01B091CC01B301A20118
:101A8000481B590B6A0B7B0B80910C0190910D0147
:101A9000A0910E01B0910F01481759076A077B0703
:101AA00080F089EC92E00E944A0582E892E00E9470
:101AB0004A054092C9015092CA016092CB017092CE
:101AC000CC018091D4019091D501A091D601B09123
:101AD000D701481A590A6A0A7B0A38EE431633E0DE
:101AE00053066104710408F4AFC08BEB91E00E94CF
:101AF00026078FEA91E00E9483038091D2019091A2
:101B0000D3010E94340789E991E00E948303809108
:101B1000F0029091F1020E9464078CE891E00E942B
:101B200083038091F2029091F3020E94640780E89F
:101B300091E00E9483036091DC027091DD0280914C
:101B4000DE029091DF0242E00E94920786E291E07D
:101B50000E94D50689E691E00E9483038091A90244
:101B60009091AA020E9464078CE591E00E94830391
:101B70008091AB029091AC020E94640780E591E0F5
:101B80000E94830360919502709196028091970262
:101B90009091980242E00E94920786E291E00E94B2
:101BA000D50685E491E00E9483038091D1018111E3
:101BB00065C288E50E949E0381E491E00E94830350
:101BC0008091D00181115CC288E50E949E038DE363
:101BD00091E00E9483038091CF01811153C288E577
:101BE0000E949E0386E291E00E94D50682E391E086
:101BF0000E9483038FE291E00E94260788E191E032
:101C00000E9483038091CD019091CE01009709F449
:101C10003BC28130910509F43AC2019609F03AC2FB
:101C20008BE091E00E9426078091D8019091D90124
:101C3000A091DA01B091DB018093D4019093D5019A
:101C4000A093D601B093D70180E090E0892B09F4EE
:101C500034CD0E940003882309F42CCD0E9400009B
:101C600029CD0091B70110E0F801E958FE4F10822C
:101C700087E7E82E81E0F82EF70181916F01882334
:101C800031F090E00E946811892B09F0AAC0095830
:101C90001E4FE016F10648F4F80182916F0190E0C2
:101CA0000E946811892B09F09EC0F8011082F7E7A5
:101CB000EF16F1E0FF0651F0A8014E195F094F5FE2
:101CC0005F4FB70187E791E00E94A8151092B70116
:101CD00080917701882309F465CD85EC90E00E941E
:101CE000830387E791E00E94D50686E291E00E9497
:101CF000D5068E010F5F1F4F87E791E0F8018193B2
:101D000091938F016AE370E00E94BA15009741F049
:101D1000FC011192CF012D853E852017310771F707
:101D2000E980FA806DE671E0C7010E94C5158C015B
:101D3000892B09F45AC066E671E0C7010E94C515F7
:101D4000892B09F02FCD8B819C81412C512C3201A4
:101D5000009721F00E9464112B013C018D819E812E
:101D6000C12CD12C7601009721F00E9464116B01E7
:101D70007C018F819885009709F4EFC00E9464115F
:101D80004092F4025092F5026092F6027092F702CD
:101D9000C092FC02D092FD02E092FE02F092FF029D
:101DA0006093F8027093F9028093FA029093FB0219
:101DB0004092AD025092AE026092AF027092B002B9
:101DC000C092B502D092B602E092B702F092B80289
:101DD0006093B1027093B2028093B3029093B40205
:101DE000E1CC760149CF860154CF8B819C81F12CC7
:101DF000E12C009739F04AE050E070E060E00E948A
:101E00004D107B018D819E81009739F04AE050E0B2
:101E100070E060E00E944D108B0142E050E0509372
:101E2000D3014093D201B7010F2C000C880B990B02
:101E30000E94E3122B013C0120E030E0A9010E9446
:101E400098151816E4F54092E8025092E902609263
:101E5000EA027092EB0281E090E09093ED028093B1
:101E6000EC02B801012E000C880B990B0E94E312C2
:101E70002B013C0120E030E0A9010E9498151816C2
:101E80000CF044C04092A1025092A2026092A302C0
:101E90007092A402E1E0F0E0F093A602E093A502C4
:101EA00085E391E00E94D506C7010E9434078DE4C6
:101EB00091E00E94D506C8010E94340773CC20E04F
:101EC00030E0A901C301B2010E94DC1287FF11C0FA
:101ED00077FA709477F870944092E8025092E90291
:101EE0006092EA027092EB023092ED022092EC02D4
:101EF000B8CF1092E8021092E9021092EA02109212
:101F0000EB021092ED021092EC02ABCF20E030E039
:101F1000A901C301B2010E94DC1287FF11C077FA48
:101F2000709477F870944092A1025092A20260924D
:101F3000A3027092A4023092A6022092A502B0CF12
:101F40001092A1021092A2021092A3021092A40277
:101F50001092A6021092A502A3CF60E070E0CB0120
:101F60000FCFEA94EF2809F037CD81E090E090930D
:101F7000CE018093CD0130CD0130110529F430928E
:101F8000CE012092CD0128CDEA94EF2871F324CD23
:101F900001301105A1F3019709F41ACD1DCD10925E
:101FA000E8021092E9021092EA021092EB021092FB
:101FB000ED021092EC021092A1021092A202109275
:101FC000A3021092A4021092A6021092A50232CD92
:101FD0002091CD013091CE012115310501F1213043
:101FE0003105B1F12F3F3F4F09F03FC01092E80299
:101FF0001092E9021092EA021092EB021092ED02A6
:102000001092EC028092A1029092A202A092A302EE
:10201000B092A4029093A6028093A5020BCD20E07B
:1020200030E044EB52E42093E8023093E90240931D
:10203000EA025093EB029093ED028093EC0220931E
:10204000A1023093A2024093A3025093A402E2CFD4
:102050008092E8029092E902A092EA02B092EB022A
:102060003093ED022093EC02A6CF89EC92E00E941F
:10207000C70582E892E00E94C705DCCC8FE49ACDC8
:102080008FE4A3CD8FE4ACCD8CEF90E0CBCD8EEE82
:1020900090E0C8CD88ED90E0C5CDB0E0A0E0E3E5EC
:1020A000F0E10C943E145C016B017A01611571053D
:1020B00019F0FB0191838083E114F10451F0C70111
:1020C0000297839730F040E030E020E090E072C06B
:1020D0005E01E5012196F5011081812F90E00E94BB
:1020E0006811892BA9F71D3201F52196F50111819F
:1020F00001E0E114F10409F4DAC0F0E1EF16F104B3
:1021000009F082C0103359F488818F7D883509F039
:1021100076C0198122960260F0E1EF2EF12C812C1D
:10212000912CA12C88E0B82E8CC01B3221F4E50143
:102130002296F501118100E0DCCFEAE0EE16F10411
:1021400009F4BBC0F0E1EF16F10409F06DC0E7CF70
:1021500078E0E72EF12C812C912CA12C60E1B62E99
:1021600070C03FE9310F3A3128F439EA332E80C08C
:1021700021E09AC0302F3170C114D10431F02223F4
:1021800009F12197F601D183C08327FF21C060E0C8
:1021900070E080E090E8311104C06FEF7FEF8FEFC7
:1021A0009FE722E230E03093110320931003462F83
:1021B000372F282F642F732F822FCDB7DEB7E1E1A1
:1021C0000C945A1401FF04C02297F601D183C083F6
:1021D000332341F090958095709561957F4F8F4F97
:1021E0009F4FE5CF97FFE3CF82E290E090931103FA
:1021F000809310036FEF7FEF8FEF9FE7D8CF10E34F
:10220000E114F10409F4A4CF28E0E216F10409F482
:10221000A2CF0CF092CF812C912CA12CE0E4BE2E09
:1022200082E0E816F10469F060E070E080E090E898
:1022300097010F2C000C440B550B0E941014490100
:102240005A0120E060E070E0CB0127010F2C000C68
:1022500066087708FE0150ED352E310E39E0331552
:1022600040F43FEB310F3A3108F07BCF49EC342E8C
:10227000310E3E141F040CF07DCF27FD15C08616CD
:102280009706A806B90678F0A30192010E940014EF
:10229000630D711D811D911D61307105810520E85F
:1022A000920708F465CF2FEF21961081D3CF10331A
:1022B00009F42ACF2AE0E22EF12C9CEC892E982CEE
:1022C000A82C9CE0B92EBDCF662777270C947111FE
:1022D00091110C94C112803219F089508550C8F7C1
:1022E0000895B0E0A0E0E7E7F1E10C9443145C014D
:1022F0007B016115710519F0DB018D939C938501BC
:102300000F5F1F4FF501D0818D2F90E00E94681163
:102310006C01892BB9F5DD32B9F50F5F1F4FD5017F
:102320001196DC91C1E05801F1E0AF1AB10843E029
:1023300050E060E770E0C5010E94C412892B69F586
:10234000680182E0C80ED11C45E050E06BE670E009
:10235000C6010E94C412892B21F4680197E0C90EBE
:10236000D11CE114F10419F0D701CD92DC9260E0A8
:1023700070E080E89FEFC111FFC060E070E080E88E
:102380009FE7FAC05801BBCFDB3229F485010E5F0D
:102390001F4FF501D181C0E0C6CF43E050E068E6B1
:1023A00070E0C5010E94C412892BE9F0F80110E029
:1023B00000E020E030E0A9015F01B0ED8B2E8D0E32
:1023C00089E08815C8F19C2E689491F88C2F88704C
:1023D000C2FF16C0811102C00F5F1F4F3196D50199
:1023E000DC91C92DE9CFE114F10429F00E5F1F4FF4
:1023F000F7011183008360E070E080EC9FE7BCC0D0
:10240000882311F001501109A5E0B0E00E943214B8
:102410009B01AC01220F331F441F551F280D311D96
:10242000411D511D283999E93907490799E1590793
:10243000A8F2C6609C2ED2CFAEEF8A1206C0C3FDB2
:102440003CC09C2E689493F8C9CFDF7DD534A9F5A4
:1024500080818D3239F4C061DF011296818162E0A2
:1024600070E006C0DF018B32C1F3119661E070E0CD
:1024700080535D01A61AB70A8A30F8F4E0E8CE1658
:10248000ECE0DE065CF4B601660F771F660F771F7F
:10249000C60ED71ECC0CDD1CC80ED11C5D01FFEF93
:1024A000AF1ABF0A8C9180538A30A8F1C4FF03C0D1
:1024B000D194C194D1080C0D1D1DC1FF09C0E114B8
:1024C000F10431F081E0A81AB108D701AD92BC92B5
:1024D000CA01B9010E94E112C370C33009F49058D7
:1024E0004B015C0120E030E0A9010E94DC1288234E
:1024F00009F440C0CFE9D0E017FF05C01195019560
:102500001109C7E8D0E06E01B8E1CB1AD10880E22A
:10251000E82EF12C0FC0D501B1CFFE0125913591E8
:10252000459154910E191F09C501B4010E9442132F
:102530004B015C01D501C4010E151F0574F72497EA
:10254000F594E794CC16DD06A9F78A2F880F8B2F18
:10255000881F8F3F49F020E030E0A901C501B40198
:102560000E94DC12811106C082E290E09093110378
:1025700080931003C501B401CDB7DEB7ECE00C9435
:102580005F14992788270895FB01DC0141505040D2
:1025900088F08D9181341CF08B350CF4805E659150
:1025A00061341CF06B350CF4605E861B611171F3B5
:1025B000990B0895881BFCCF0E941E1308F481E03C
:1025C0000895E89409C097FB3EF490958095709526
:1025D00061957F4F8F4F9F4F9923A9F0F92F96E96F
:1025E000BB279395F695879577956795B795F111E4
:1025F000F8CFFAF4BB0F11F460FF1BC06F5F7F4F81
:102600008F4F9F4F16C0882311F096E911C0772392
:1026100021F09EE8872F762F05C0662371F096E89B
:10262000862F70E060E02AF09A95660F771F881F6A
:10263000DAF7880F9695879597F90895990F00080E
:10264000550FAA0BE0E8FEEF16161706E807F90784
:10265000C0F012161306E407F50798F0621B730B1F
:10266000840B950B39F40A2661F0232B242B252BA0
:1026700021F408950A2609F4A140A6958FEF811D43
:10268000811D08950E9455130C94C6130E94B8131F
:1026900038F00E94BF1320F0952311F00C94AF1373
:1026A0000C94B51311240C94FA130E94D71370F3F1
:1026B000959FC1F3950F50E0551F629FF001729FE7
:1026C000BB27F00DB11D639FAA27F00DB11DAA1FF6
:1026D000649F6627B00DA11D661F829F2227B00D43
:1026E000A11D621F739FB00DA11D621F839FA00DCE
:1026F000611D221F749F3327A00D611D231F849F1E
:10270000600D211D822F762F6A2F11249F57504074
:102710009AF0F1F088234AF0EE0FFF1FBB1F661FEF
:10272000771F881F91505040A9F79E3F510580F0B8
:102730000C94AF130C94FA135F3FE4F3983ED4F378
:10274000869577956795B795F795E7959F5FC1F75C
:10275000FE2B880F911D9695879597F9089597F907
:102760009F6780E870E060E008959FEF80EC089537
:1027700000240A9416161706180609060895002460
:102780000A9412161306140605060895092E0394DA
:10279000000C11F4882352F0BB0F40F4BF2B11F44E
:1027A00060FF04C06F5F7F4F8F4F9F4F089557FDAD
:1027B0009058440F551F59F05F3F71F04795880FAF
:1027C00097FB991F61F09F3F79F087950895121646
:1027D00013061406551FF2CF4695F1DF08C01616F2
:1027E00017061806991FF1CF8695710561050894A3
:1027F0000895E894BB2766277727CB0197F90895BA
:10280000DB018F939F930E943214BF91AF91A29FDF
:10281000800D911DA39F900DB29F900D11240895DE
:10282000A1E21A2EAA1BBB1BFD010DC0AA1FBB1FD4
:10283000EE1FFF1FA217B307E407F50720F0A21B46
:10284000B30BE40BF50B661F771F881F991F1A94B3
:1028500069F760957095809590959B01AC01BD01DD
:10286000CF0108950E947414A59F900DB49F900D00
:10287000A49F800D911D112408952F923F924F9295
:102880005F926F927F928F929F92AF92BF92CF9200
:10289000DF92EF92FF920F931F93CF93DF93CDB709
:1028A000DEB7CA1BDB0B0FB6F894DEBF0FBECDBF81
:1028B00009942A88398848885F846E847D848C8452
:1028C0009B84AA84B984C884DF80EE80FD800C815B
:1028D0001B81AA81B981CE0FD11D0FB6F894DEBF3E
:1028E0000FBECDBFED010895A29FB001B39FC001FF
:1028F000A39F700D811D1124911DB29F700D811D2C
:102900001124911D08955058BB27AA270E949B149B
:102910000C94C6130E94B81338F00E94BF1320F025
:1029200039F49F3F19F426F40C94B5130EF4E09596
:10293000E7FB0C94AF13E92F0E94D71358F3BA1793
:10294000620773078407950720F079F4A6F50C94C5
:10295000F9130EF4E0950B2EBA2FA02D0B01B9013F
:1029600090010C01CA01A0011124FF27591B99F005
:10297000593F50F4503E68F11A16F040A22F232F11
:10298000342F4427585FF3CF469537952795A79561
:10299000F0405395C9F77EF41F16BA0B620B730B08
:1029A000840BBAF09150A1F0FF0FBB1F661F771F79
:1029B000881FC2F70EC0BA0F621F731F841F48F42E
:1029C000879577956795B795F7959E3F08F0B0CFB7
:1029D0009395880F08F09927EE0F9795879508959E
:1029E0000E9404150C94C6130E94BF1358F00E9455
:1029F000B81340F029F45F3F29F00C94AF13511144
:102A00000C94FA130C94B5130E94D71368F399230E
:102A1000B1F3552391F3951B550BBB27AA276217DA
:102A20007307840738F09F5F5F4F220F331F441FE7
:102A3000AA1FA9F335D00E2E3AF0E0E832D091501B
:102A40005040E695001CCAF72BD0FE2F29D0660F08
:102A5000771F881FBB1F261737074807AB07B0E84B
:102A600009F0BB0B802DBF01FF2793585F4F3AF051
:102A70009E3F510578F00C94AF130C94FA135F3F0E
:102A8000E4F3983ED4F3869577956795B795F795D7
:102A90009F5FC9F7880F911D9695879597F90895BF
:102AA000E1E0660F771F881FBB1F6217730784075B
:102AB000BA0720F0621B730B840BBA0BEE1F88F76A
:102AC000E09508950E9469156894B1110C94FA1369
:102AD00008950E94DF1388F09F5798F0B92F992727
:102AE000B751B0F0E1F0660F771F881F991F1AF0F9
:102AF000BA95C9F714C0B13091F00E94F913B1E052
:102B000008950C94F913672F782F8827B85F39F050
:102B1000B93FCCF3869577956795B395D9F73EF491
:102B200090958095709561957F4F8F4F9F4F089539
:102B30000E941E1308F48FEF08950E941E13880B45
:102B4000990B0895EE0FFF1F0590F491E02D099465
:102B50006817790768F4FB01DC01E40FF51FA40F87
:102B6000B51F02C002900E9241505040D8F7089510
:102B70000C94CE15FC018191861721F08823D9F79A
:102B8000992708953197CF010895FB01DC018D91BC
:102B9000019080190110D9F3990B0895FB01DC0114
:102BA00002C001900D9241505040D8F70895F8941A
:102BB000FFCFE8030000E8030000E8030000E8039B
:102BC0000000950295020000000036039602C30241
:102BD000A303F402D202E6020D0A006E616E0069E0
:102BE0006E66006F7666006C656674207768656552
:102BF0006C2052504D2073657420746F3A2000721F
:102C00006967687420776865656C2052504D207341
:102C1000657420746F3A2000534554504944005362
:082C20004554535045454400A2
:107E0000112484B714BE81FFF0D085E080938100F7
:107E100082E08093C00088E18093C10086E0809377
:107E2000C20080E18093C4008EE0C9D0259A86E02C
:107E300020E33CEF91E0309385002093840096BBD3
:107E4000B09BFECF1D9AA8958150A9F7CC24DD24C4
:107E500088248394B5E0AB2EA1E19A2EF3E0BF2EE7
:107E6000A2D0813461F49FD0082FAFD0023811F036
:107E7000013811F484E001C083E08DD089C08234E0
:107E800011F484E103C0853419F485E0A6D080C0E4
:107E9000853579F488D0E82EFF2485D0082F10E0AE
:107EA000102F00270E291F29000F111F8ED06801E7
:107EB0006FC0863521F484E090D080E0DECF843638
:107EC00009F040C070D06FD0082F6DD080E0C81688
:107ED00080E7D80618F4F601B7BEE895C0E0D1E017
:107EE00062D089930C17E1F7F0E0CF16F0E7DF06D8
:107EF00018F0F601B7BEE89568D007B600FCFDCFD4
:107F0000A601A0E0B1E02C9130E011968C91119780
:107F100090E0982F8827822B932B1296FA010C0160
:107F200087BEE89511244E5F5F4FF1E0A038BF0790
:107F300051F7F601A7BEE89507B600FCFDCF97BE46
:107F4000E89526C08437B1F42ED02DD0F82E2BD052
:107F50003CD0F601EF2C8F010F5F1F4F84911BD097
:107F6000EA94F801C1F70894C11CD11CFA94CF0C13
:107F7000D11C0EC0853739F428D08EE10CD085E9AC
:107F80000AD08FE07ACF813511F488E018D01DD067
:107F900080E101D065CF982F8091C00085FFFCCF94
:107FA0009093C60008958091C00087FFFCCF809118
:107FB000C00084FD01C0A8958091C6000895E0E648
:107FC000F0E098E1908380830895EDDF803219F02E
:107FD00088E0F5DFFFCF84E1DECF1F93182FE3DFCA
:107FE0001150E9F7F2DF1F91089580E0E8DFEE27F6
:047FF000FF270994CA
:027FFE00040479
:00000001FF
