:100000000C9411010C94DB080C94B4080C94390185
:100010000C9439010C9439010C9439010C94390178
:100020000C9439010C9439010C9439010C94390168
:100030000C9439010C9439010C9439010C94390158
:100040000C946A080C9439010C9428090C94020948
:100050000C9439010C9439010C9439010C94390138
:100060000C9439010C9439014E414E494E49545972
:10007000494E46CDCCCC3D0AD7233C17B7D1387773
:10008000CC2B329595E6241FB14F0A000020410089
:1000900000C84200401C4620BCBE4CCA1B0E5AAED3
:1000A000C59D7441726475696E6F204F4E4C494E08
:1000B000450041726475696E6F20426F6F74696E9E
:1000C000672E2E2E00436F6D6D616E642072656326
:1000D00065697665643A200043616E27742066691D
:1000E0006E642074686520706F6C69637900547564
:1000F000726E696E6720726967687400476F696E17
:1001000067207374726169676874005475726E69F0
:100110006E67206C6566740043757272656E74203C
:10012000747261636520706F6C6963793A20006E48
:100130006F004F62737461636C653F2000202D2057
:1001400000202D20006F6E2D6C696E653F3A2000F7
:10015000202F206375725F52504D2000202F207495
:1001600067745F64757479200052696768742077DA
:100170006865656C3A206375725F647574792000F8
:10018000202F206375725F52504D2000202F207465
:1001900067745F6475747920004C656674207768B5
:1001A00065656C3A206375725F64757479200044EC
:1001B000726976656D6F64653A20003D3D3D3D3D59
:1001C0003D3D3D3D3D0000000000240027002A0089
:1001D00000000000250028002B0000000000230084
:1001E0002600290004040404040404040202020298
:1001F00002020303030303030102040810204080EA
:100200000102040810200102040810200000000868
:1002100000020100000304070000000000000000CD
:100220005A0911241FBECFEFD8E0DEBFCDBF23E0B7
:10023000A6E7B1E001C01D92AF30B207E1F711E0CF
:10024000A0E0B1E0E0E7FBE202C005900D92A63726
:10025000B107D9F711E0C1E1D1E004C02197FE0157
:100260000E948115C031D107C9F70E945C0A0C9425
:10027000B6150C9400008230C8F4E82FF0E0EE0FC1
:10028000FF1FE05FFE4F71836083813041F08091FA
:1002900069008C7F826080936900E89A089580915C
:1002A0006900837F886080936900E99A08958330AC
:1002B00081F028F4813099F08230A9F008958730D8
:1002C000A9F08830C9F08430B1F4809180008F7D2E
:1002D00003C0809180008F7780938000089584B55B
:1002E0008F7784BD089584B58F7DFBCF8091B0005A
:1002F0008F778093B00008958091B0008F7DF9CF03
:10030000CF93DF93282F30E0F901E45FFD4F849114
:10031000F901E850FE4FD491F901EC51FE4FC49120
:10032000CC23A1F081110E945701EC2FF0E0EE0FD9
:10033000FF1FE652FE4FA591B491EC91ED2381E0B1
:1003400090E009F480E0DF91CF91089580E090E0A3
:10035000FACF1F93CF93DF93282F30E0F901E45FAA
:10036000FD4F8491F901E850FE4FD491F901EC5111
:10037000FE4FC491CC23A9F0162F81110E94570182
:10038000EC2FF0E0EE0FFF1FE053FE4FA591B4916C
:100390008FB7F894EC91111108C0D095DE23DC934F
:1003A0008FBFDF91CF911F910895DE2BF8CFCF93B0
:1003B000DF9390E0FC01E850FE4F24918C519E4F5A
:1003C000FC0184918823C9F090E0880F991FFC01FB
:1003D000EA53FE4FA591B491FC01E053FE4FC59145
:1003E000D49161110DC09FB7F8948C912095822310
:1003F0008C938881282328839FBFDF91CF91089514
:10040000623051F49FB7F8943C91822F80958323FA
:100410008C93E8812E2BEFCF8FB7F894EC912E2B95
:100420002C938FBFEACF1F93CF93DF93182FEB014D
:1004300061E00E94D701209739F460E0812FDF91BD
:10044000CF911F910C94A901CF3FD10511F461E028
:10045000F5CFE12FF0E0E45FFD4FE491E33031F1BF
:1004600040F4E130B1F0E230E1F0C038D1057CF782
:10047000E4CFE73029F1E83059F1E430B1F7809169
:100480008000806280938000D0938B00C0938A00AC
:1004900004C084B5806884BDC7BDDF91CF911F9132
:1004A000089584B5806284BDC8BDF7CF8091800077
:1004B000806880938000D0938900C0938800EDCF3E
:1004C0008091B00080688093B000C093B300E5CF06
:1004D0008091B00080628093B000C093B400DDCF03
:1004E0003FB7F8948091DE019091DF01A091E00187
:1004F000B091E10126B5A89B05C02F3F19F00196E8
:10050000A11DB11D3FBFBA2FA92F982F8827BC016D
:10051000CD01620F711D811D911D42E0660F771F95
:10052000881F991F4A95D1F708950895AF92BF92F9
:10053000CF92DF92EF92FF920F931F93CF93DF93AF
:100540006C017B018B01040F151FEB015E01AE18DE
:10055000BF08C017D10759F06991D601ED91FC9100
:100560000190F081E02DC6010995892B79F7C5012D
:10057000DF91CF911F910F91FF90EF90DF90CF907F
:10058000BF90AF900895FC01538D448D252F30E02E
:10059000842F90E0821B930B541710F0CF96089590
:1005A00001970895FC01918D828D981761F0A28DBD
:1005B000AE0FBF2FB11D5D968C91928D9F5F9F7383
:1005C000928F90E008958FEF9FEF0895FC01918D39
:1005D000828D981731F0828DE80FF11D858D90E0A6
:1005E00008958FEF9FEF0895FC01918D228D892F43
:1005F00090E0805C9F4F821B91098F73992708952B
:1006000082EE91E00E94F40221E0892B09F420E0BF
:10061000822F089580E090E0892B29F00E9400034A
:1006200081110C9400000895FC01A48DA80FB92F2E
:10063000B11DA35ABF4F2C91848D90E001968F730A
:100640009927848FA689B7892C93A089B1898C9129
:10065000837080648C93938D848D981306C0028878
:10066000F389E02D80818F7D80830895EF92FF9242
:100670000F931F93CF93DF93EC0181E0888F9B8DC5
:100680008C8D98131AC0E889F989808185FF15C07F
:100690009FB7F894EE89FF896083E889F9898081A2
:1006A0008370806480839FBF81E090E0DF91CF9171
:1006B0001F910F91FF90EF900895F62E0B8D10E093
:1006C0000F5F1F4F0F731127E02E8C8D8E110CC002
:1006D0000FB607FCFACFE889F989808185FFF5CF4D
:1006E000CE010E941403F1CFEB8DEC0FFD2FF11D15
:1006F000E35AFF4FF0829FB7F8940B8FEA89FB898A
:1007000080818062CFCF0F931F93CF93DF938C01B3
:10071000D0E0C0E0F801EC0FFD1F6491662341F0CA
:1007200082EE91E00E943603892B11F02196F2CFE0
:10073000CE01DF91CF911F910F910895682F82EE26
:1007400091E00C943603CF93DF93EC01888D8823DE
:10075000B9F0AA89BB89E889F9898C9185FD03C024
:10076000808186FD0DC00FB607FCF7CF8C9185FF09
:10077000F2CF808185FFEDCFCE010E941403E9CF37
:10078000DF91CF9108954F925F926F927F928F92F7
:100790009F92AF92BF92CF92DF92EF92FF92CF9350
:1007A000DF9300D000D000D0CDB7DEB741155105A2
:1007B00061057105B1F06A017B019E838D83FC01A7
:1007C000478C50A061A072A020E030E0A901C301D5
:1007D000B2010E94BB12811119C0ED81FE8112A6E7
:1007E00011A626960FB6F894DEBF0FBECDBFDF91DF
:1007F000CF91FF90EF90DF90CF90BF90AF909F9000
:100800008F907F906F905F904F900895C701B601D1
:100810000E94C0122FE632E143E85AE30E942113FE
:100820004B015C01ED81FE81C388D488E588F688A0
:10083000A7019601C301B2010E9462142B013C0181
:10084000ED81FE8127A930AD41AD52AD0E94621409
:10085000ED81FE8123A534A545A556A50E9421134F
:1008600069837A838B839C83ED81FE81FF9660810F
:100870007181828193819B01AC010E9463149B0171
:10088000AC01C701B6010E946214ED81FE81ED5BEF
:10089000FF4F20813181428153810E946314ED8199
:1008A000FE8127A530A941A952A950580E942113C1
:1008B000A50194010E94CF146B017C0120E030E07F
:1008C00040E450EC0E94BB1287FD8EC020E030E077
:1008D00040E450E4C701B6010E94771518160CF4E5
:1008E0008AC0ED81FE8123A934A945A956A9C30177
:1008F000B2010E942113A50194010E9421134B0112
:100900005C0120E030E040EA51EC0E94BB1287FD20
:1009100078C020E030E040EA51E4C501B4010E9413
:10092000771518160CF474C029813A814B815C81CB
:10093000C501B4010E946314A70196010E946314CB
:100940006B017C0120E030E040E252EC0E94BB12DF
:1009500087FD65C020E030E040E252E4C701B60107
:100960000E94771518160CF461C0ED81FE8123AD4D
:1009700034AD45AD56ADC701B6010E9463146B019D
:100980007C0120E030E0A9010E94BB1287FD55C028
:1009900020E030E04FE753E4C701B6010E9477152D
:1009A00018160CF44EC0ED81FE81C3AED4AEE5AE98
:1009B000F6AEC701B6010E944115ED81FE8172A716
:1009C00061A76F3F710519F014F06FEF70E077FFCA
:1009D00002C070E060E0ED81FE8172A761A747AAC6
:1009E00050AE61AE72AEFDCEC12CD12C60E4E62ECD
:1009F00060ECF62E76CFC12CD12C50E4E52EFE2CE7
:100A000070CF812C912C40EAA42E41ECB42E8CCFD7
:100A1000812C912C30EAA32E31E4B32E85CFC12C4A
:100A2000D12C20E2E22E22ECF22E9FCFC12CD12C31
:100A300090E2E92E92E4F92E98CFC12CD12C7601C8
:100A4000B2CFC12CD12C8FE7E82E83E4F82EABCFA8
:100A50000F931F93CF93DF938C01EB01FC018081F7
:100A60001C161D0694F070E060E0209771F00E9463
:100A70001302662777276C1B7D0BF8018181DF91BC
:100A8000CF911F910F910C9413020E94130270E0FA
:100A900060E0F3CFCF92DF92EF92FF920F931F931C
:100AA000CF93DF93FC01C3A1D4A1C5A0D6A007A119
:100AB00010A5CC15DD05B1F521A532A5201B310B04
:100AC00012161306ECF42B30310514F02AE030E056
:100AD000200F311F30A727A387A190A5C89FB00181
:100AE000C99F700DD89F700D1124CF01DF91CF9158
:100AF0001F910F91FF90EF90DF90CF900C942805FD
:100B00002115310549F3263F8FEF380744F0319521
:100B100021953109021B130B10A707A3DDCF2AE093
:100B200030E0F8CF7C0120E030E040EA50E4638917
:100B30007489858996890E94BB1287FF0CC00A3090
:100B400011054CF4C09FB001C19F700DD09F700D76
:100B50001124C701CBCF0B301105B4F00A50110995
:100B6000F70110A707A387A190A597FF02C010A6C1
:100B700017A2F70187A190A5C89EB001C99E700D6C
:100B8000D89E700D1124E5CF01501109E9CFCF9304
:100B9000DF93EC011F8E18A219A21AA21CA21BA29D
:100BA00070E060E00E94280518A61FA21BAE1CAED4
:100BB0001DAE1EAE1AA619A61FAA18AE19AE1AAE01
:100BC000DF91CF910895CF92DF92EF92FF920F9332
:100BD0001F93CF93DF93EC01F8946B857C858D8513
:100BE0009E850F81188529853A8578946115710550
:100BF0008105910511F10115110521053105E9F076
:100C0000CF84D888E988FA880C151D052E053F0584
:100C1000A1F00F87188B298B3A8B613422E472077D
:100C20002FE08207910508F441C080E090E0A0E841
:100C3000BFEB8B8F9C8FAD8FBE8FDE01DF964D910A
:100C40005D916D917C911397FE01ED5BFF4F4083A9
:100C50005183628373834B895C896D897E894D934F
:100C60005D936D937C931397F894CF80D884E98437
:100C7000FA84789420E030E0A9016B8D7C8D8D8D15
:100C80009E8D0E94BB1287FF26C08F89988DA98DEB
:100C9000BA8D8B8B9C8BAD8BBE8BDF91CF911F91CF
:100CA0000F91FF90EF90DF90CF9008950E94C012B7
:100CB00020E030E040EA51E40E9421139B01AC01A6
:100CC00060EC71EE84E69CE40E94CF146B8F7C8F05
:100CD0008D8F9E8FB2CF0E9470026C197D098E0994
:100CE0009F09613472448F40910578F68B8D9C8DFD
:100CF000AD8DBE8DCECFCF92DF92EF92FF920F934C
:100D00001F93CF93DF93EC010E9470020F8118852F
:100D100029853A85012B022B032BB1F00F81188511
:100D200029853A856B017C01C01AD10AE20AF30ACF
:100D300097018601003147E214072105310598F03B
:100D40000B871C872D873E876F83788789879A87D3
:100D50008B819C81AD81BE810196A11DB11D8B83CC
:100D60009C83AD83BE83DF91CF911F910F91FF9044
:100D7000EF90DF90CF90089586EC92E00C947B0684
:100D80008FE792E00C947B06CF93DF93EC0161E058
:100D900088810E94D70161E089810E94D70162E0C9
:100DA0008A81DF91CF910C94D701FC010190002042
:100DB000E9F73197AF01481B590BBC0182EE91E076
:100DC0000C9496028F929F92AF92BF920F931F93B3
:100DD000CF93DF93CDB7DEB7A1970FB6F894DEBF00
:100DE0000FBECDBF19A2423008F44AE08E010F5D5C
:100DF0001F4F842E912CB12CA12CA50194010E948F
:100E0000EF13E62FB901CA01EA30F4F4E05DD8012E
:100E1000EE938D01232B242B252B79F790E080E096
:100E2000109719F0CD010E94D506A1960FB6F8943F
:100E3000DEBF0FBECDBFDF91CF911F910F91BF904D
:100E4000AF909F908F900895E95CE1CFCF93DF93AF
:100E50000E948303EC0186E291E00E94D5068C0F8C
:100E60009D1FDF91CF910895CF92DF92EF92FF9275
:100E7000CF93DF936C01990FEE08FF08F7FE1DC0BA
:100E80008DE20E949E03EC0166277727CB016C1947
:100E90007D098E099F094AE00E94E206C80FD91F0A
:100EA00086E291E00E94D5068C0F9D1FDF91CF91C5
:100EB000FF90EF90DF90CF9008954AE0C701B60110
:100EC0000E94E206EC01ECCFCF92DF92EF92FF920C
:100ED000CF93DF936C01990FEE08FF08F7FE17C060
:100EE0008DE20E949E03EC0166277727CB016C19E7
:100EF0007D098E099F094AE00E94E2068C0F9D1F22
:100F0000DF91CF91FF90EF90DF90CF9008954AE06E
:100F1000C701B601DF91CF91FF90EF90DF90CF90A6
:100F20000C94E2064F925F926F927F928F929F9203
:100F3000AF92BF92CF92DF92EF92FF920F931F93E7
:100F4000CF936B017C01742EAC019B010E947C1538
:100F5000882399F089E291E0CF911F910F91FF9042
:100F6000EF90DF90CF90BF90AF909F908F907F9049
:100F70006F905F904F900C94D50646015701E8940E
:100F8000B7F82FEF3FEF4FE75FE7C501B4010E94CD
:100F90007C1581110DC02FEF3FEF4FE75FE7C501D3
:100FA000B4010E94BB1218161CF48DE291E0D4CF5C
:100FB0002FEF3FEF4FE75FE4C701B6010E947715BF
:100FC00018161CF481E391E0C7CF2FEF3FEF4FE7F6
:100FD0005FECC701B6010E94BB1287FDF3CF20E092
:100FE00030E0A901C701B6010E94BB1210E000E089
:100FF00087FF08C08DE20E949E038C01F7FAF094EF
:10100000F7F8F094C0E060E070E080E09FE37C16C9
:1010100041F020E030E040E251E40E94CF14CF5F85
:10102000F6CFA70196010E9463142B013C010E9498
:1010300048154B015C014AE00E94E2067C01E00E8B
:10104000F11ECC23B1F1C501B4010E94C0129B0175
:10105000AC01C301B2010E9462144B015C018EE23B
:101060000E949E03E80EF91EC15018F120E030E006
:1010700040E251E4C501B4010E9421132B013C015F
:101080000E9448154B01B12CA12C4AE0C501B401C6
:101090000E94E206E80EF91EC501B4010E94C012CA
:1010A0009B01AC01C301B2010E9462144B015C01BF
:1010B000DBCFC701CF911F910F91FF90EF90DF9091
:1010C000CF90BF90AF909F908F907F906F905F90E8
:1010D0004F9008951F920F920FB60F9211242F93E5
:1010E0003F938F939F93AF93BF938091DA01909139
:1010F000DB01A091DC01B091DD013091D90123E049
:10110000230F2D3758F50196A11DB11D2093D9014C
:101110008093DA019093DB01A093DC01B093DD01B1
:101120008091DE019091DF01A091E001B091E10199
:101130000196A11DB11D8093DE019093DF01A09364
:10114000E001B093E101BF91AF919F918F913F91E9
:101150002F910F900FBE0F901F90189526E8230F28
:101160000296A11DB11DD2CF1F920F920FB60F9202
:1011700011242F933F934F935F936F937F938F939C
:101180009F93AF93BF93EF93FF93E0911201F09180
:1011900013010995FF91EF91BF91AF919F918F91AD
:1011A0007F916F915F914F913F912F910F900FBE63
:1011B0000F901F9018951F920F920FB60F92112447
:1011C0002F933F934F935F936F937F938F939F934F
:1011D000AF93BF93EF93FF93E0911001F091110152
:1011E0000995FF91EF91BF91AF919F918F917F9161
:1011F0006F915F914F913F912F910F900FBE0F9084
:101200001F9018951F920F920FB60F9211242F93D3
:101210003F934F935F936F937F938F939F93AF937E
:10122000BF93EF93FF9382EE91E00E941403FF912E
:10123000EF91BF91AF919F918F917F916F915F914E
:101240004F913F912F910F900FBE0F901F901895C7
:101250001F920F920FB60F9211242F938F939F938B
:10126000EF93FF93E091F201F091F3018081E0911F
:10127000F801F091F90182FD1BC090818091FB0182
:101280008F5F8F732091FC01821741F0E091FB0189
:10129000F0E0EE51FE4F958F8093FB01FF91EF91AF
:1012A0009F918F912F910F900FBE0F901F901895C7
:1012B0008081F4CF8F929F92AF92BF92CF92DF92B4
:1012C000EF92FF920F931F93E2EEF1E013821282EE
:1012D00088EE93E0A0E0B0E084839583A683B78393
:1012E00088E191E09183808385EC90E09587848705
:1012F00084EC90E09787868780EC90E0918B808BE0
:1013000081EC90E0938B828B82EC90E0958B848BC8
:1013100086EC90E0978B868B118E128E138E148E36
:10132000E6ECF2E08DEC882E8CEC982E8CE0A82E6A
:101330008FE3B82E83A694A6A5A6B6A69DECC92ECB
:101340009CECD92EED2C9DE3F92EC7A6D0AAE1AADC
:10135000F2AA03E313E323EB3EE303AB14AB25ABA9
:1013600036AB86E0808385E0818382E082831382CE
:10137000148215821682178E10A211A212A2138A4D
:10138000148A158A168A178A108E118E128E40E0E2
:1013900050E060E87FEB438F548F658F768F10A607
:1013A00017A212A611A614A213A281E090E096A3A0
:1013B00085A3109205031092060310920703109262
:1013C00008031092090310920A0310920B03109263
:1013D0000C0317AA10AE11AE12AE13AE14AE15AEBA
:1013E00016AE17821086118612861386148615860D
:1013F00016861786108A118A128AEFE7F2E083A612
:1014000094A6A5A6B6A6C7A6D0AAE1AAF2AA03AB3F
:1014100014AB25AB36AB2AE020832BE0218323E0FD
:1014200022831382148215821682178E10A211A2B3
:1014300012A2138A148A158A168A178A108E118EA0
:10144000128E438F548F658F768F10A617A212A627
:1014500011A614A213A296A385A31092BE02109205
:10146000BF021092C0021092C1021092C2021092EA
:10147000C3021092C4021092C50217AA10AE11AE98
:1014800012AE13AE14AE15AE16AE178210861186CC
:10149000128613861486158616861786108A118A78
:1014A000128A1F910F91FF90EF90DF90CF90BF9025
:1014B000AF909F908F900895CF93DF93CDB7DEB715
:1014C0002E970FB6F894DEBF0FBECDBF789484B5CB
:1014D000826084BD84B5816084BD85B5826085BD30
:1014E00085B5816085BD80916E00816080936E00BE
:1014F00010928100809181008260809381008091B0
:101500008100816080938100809180008160809360
:1015100080008091B10084608093B1008091B00020
:1015200081608093B00080917A00846080937A001B
:1015300080917A00826080937A0080917A00816045
:1015400080937A0080917A00806880937A0010926C
:10155000C100E091F201F091F30182E08083E0911B
:10156000EE01F091EF011082E091F001F091F101B4
:1015700080E180831092FA01E091F601F091F70189
:1015800086E08083E091F401F091F5018081806133
:101590008083E091F401F091F5018081886080837F
:1015A000E091F401F091F501808180688083E09101
:1015B000F401F091F50180818F7D808382EB90E0D2
:1015C0000E94260786EC92E00E94C4068FE792E014
:1015D0000E94C4068091C802823009F4A4C08330FE
:1015E00009F4A3C08FEF6CEB76E00E943B01809181
:1015F0008102823009F49BC0833009F49AC08FEFD6
:1016000060EC76E00E943B0184E690E0A0E0B0E070
:101610008093000190930101A0930201B093030114
:1016200085E090E0A0E0B0E0809304019093050194
:10163000A0930601B093070184E190E0A0E0B0E040
:101640008093080190930901A0930A01B0930B01C4
:101650008AE090E0A0E0B0E080930C0190930D014F
:10166000A0930E01B0930F0160E084E00E94D701C7
:1016700060E087E00E94D70160E088E00E94D70127
:1016800081E090E09093D0018093CF0183EA90E0D5
:101690000E9426079E012F5F3F4F3C872B87AE019C
:1016A000455F5F4F5E874D87812C912C54EBA52EB3
:1016B00052E4B52E22242A94322C8AE0EB85FC8554
:1016C00011928A95E9F782EE91E00E94F4021816D1
:1016D0001906ACF582EE91E00E94D202F1E0F0939F
:1016E000BC019FB7F8944091DA015091DB01609101
:1016F000DC017091DD019FBF4093B8015093B901A7
:101700006093BA017093BB018823E9F2E091B701BD
:10171000EF3388F491E09E0F9093B701F0E0E95821
:10172000FE4F8083D0CF80E05ECF81E05CCF80E051
:1017300067CF81E065CF21E020937601C4CF80910F
:10174000BC01882379F12FB7F8948091DA01909148
:10175000DB01A091DC01B091DD012FBF4091B80108
:101760005091B9016091BA017091BB01841B950B36
:10177000A60BB70B4091E6015091E7016091E8019B
:101780007091E90184179507A607B70758F01092E2
:10179000BC0180917601882309F435C21092B7010B
:1017A000109276018FB7F894C090DA01D090DB01E7
:1017B000E090DC01F090DD018FBFC092D501D092A6
:1017C000D601E092D701F092D8018091BD019091AD
:1017D000BE01A091BF01B091C001C81AD90AEA0A9E
:1017E000FB0A8091000190910101A0910201B0914A
:1017F0000301C816D906EA06FB0608F492C0C11414
:10180000D104E104F104A1F1F8946091C90270914E
:10181000CA028091CB029091CC021092C902109220
:10182000CA021092CB021092CC0278940E94C0128D
:1018300020E030E040EA51E40E94CF1420E030E69E
:101840004AE657E40E9421132B013C01C701B6016F
:101850000E94C0129B01AC01C301B2010E94CF14CF
:101860006093DD027093DE028093DF029093E002CA
:10187000C090D501D090D601E090D701F090D8016A
:101880008091BD019091BE01A091BF01B091C001B6
:10189000C81AD90AEA0AFB0AA1F1F89460918202F7
:1018A000709183028091840290918502109282024D
:1018B00010928302109284021092850278940E9402
:1018C000C01220E030E040EA51E40E94CF1420E052
:1018D00030E64AE657E40E9421132B013C01C70180
:1018E000B6010E94C0129B01AC01C301B2010E946B
:1018F000CF1460939602709397028093980290930E
:1019000099028091D5019091D601A091D701B09113
:10191000D8018093BD019093BE01A093BF01B09305
:10192000C001C090D501D090D601E090D701F090D1
:10193000D8018091C1019091C201A091C301B091E1
:10194000C401B701A601481B590B6A0B7B0B8091A0
:10195000040190910501A0910601B091070148177B
:1019600059076A077B07C0F184E00E9480018C015F
:1019700088E00E94800141E050E00130110511F043
:1019800050E040E0440F551F440F551F21E030E068
:10199000019711F030E020E0220F331F142F122B9B
:1019A00087E00E94800121E0019709F020E0122BDE
:1019B0008091CD01813009F4A6C208F4AFC2823013
:1019C00009F4B2C21093CE01C092C101D092C201FB
:1019D000E092C301F092C4018091C5019091C601CB
:1019E000A091C701B091C80126013701481A590AD0
:1019F0006A0A7B0A8091080190910901A0910A016D
:101A0000B0910B01481659066A067B0638F18091A1
:101A1000CF019091D001009709F48BC281309105DC
:101A200009F4A0C286EC92E00E94E3058FE792E001
:101A30000E94E305B301A20186EC92E00E94C30379
:101A4000B301A2018FE792E00E94C303C092C501D7
:101A5000D092C601E092C701F092C8018091C901FD
:101A60009091CA01A091CB01B091CC01B701A60120
:101A7000481B590B6A0B7B0B80910C0190910D0157
:101A8000A0910E01B0910F01481759076A077B0713
:101A900080F086EC92E00E944A058FE792E00E9477
:101AA0004A05C092C901D092CA01E092CB01F092DE
:101AB000CC018091D1019091D201A091D301B0913C
:101AC000D401C81AD90AEA0AFB0A38EEC31633E071
:101AD000D306E104F10408F4ACC28BEB91E00E9460
:101AE00026078FEA91E00E9483038091CF019091B5
:101AF000D0010E94340789E991E00E94830380911C
:101B0000ED029091EE020E9464078CE891E00E9441
:101B100083038091EF029091F0020E94640780E8B5
:101B200091E00E9483036091D9027091DA02809162
:101B3000DB029091DC0242E00E94920786E291E093
:101B40000E94D50689E691E00E9483038091A60257
:101B50009091A7020E9464078CE591E00E948303A4
:101B60008091A8029091A9020E94640780E591E00B
:101B70000E9483036091920270919302809194027B
:101B80009091950242E00E94920786E291E00E94C5
:101B9000D50685E491E00E9483031091CE0188E58B
:101BA00012FD8FE40E949E0381E491E00E94830372
:101BB00088E511FD8FE40E949E038DE391E00E9471
:101BC000830388E510FD8FE40E949E0386E291E086
:101BD0000E94D50682E391E00E9483038FE291E0A8
:101BE0000E94260788E191E00E9483038091CD0145
:101BF000813009F40AC208F429C2823009F429C2EA
:101C000088ED90E004C20091B70110E0F801E958B6
:101C1000FE4F108237E7E32E31E0F32EF70181917A
:101C20006F01882331F090E00E944711892B09F061
:101C3000AAC009581E4FE016F10648F4F801829137
:101C40006F0190E00E944711892B09F09EC0F801B6
:101C50001082F7E7EF16F1E0FF0651F0A8014E19E8
:101C60005F094F5F5F4FB70187E791E00E948715DB
:101C70001092B70180917701882309F493CD85EC08
:101C800090E00E94830387E791E00E94D50686E2F8
:101C900091E00E94D5068E010F5F1F4F87E791E00C
:101CA000F801819391938F016AE370E00E94991586
:101CB000009741F0FC011192CF012D853E85201740
:101CC000310771F7E980FA806DE671E0C7010E9483
:101CD000A4158C01892B09F45AC066E671E0C7018E
:101CE0000E94A415892B09F05DCD8B819C81412C2C
:101CF000512C3201009721F00E9443112B013C012D
:101D00008D819E81C12CD12C7601009721F00E94FB
:101D100043116B017C018F819885009709F4EFC016
:101D20000E9443114092F1025092F2026092F3023B
:101D30007092F402C092F902D092FA02E092FB0291
:101D4000F092FC026093F5027093F6028093F70222
:101D50009093F8024092AA025092AB026092AC02B9
:101D60007092AD02C092B202D092B302E092B4027D
:101D7000F092B5026093AE027093AF028093B0020E
:101D80009093B1020FCD760149CF860154CF8B815C
:101D90009C81F12CE12C009739F04AE050E070E092
:101DA00060E00E942C107B018D819E81009739F0AC
:101DB0004AE050E070E060E00E942C108B0142E0AD
:101DC00050E05093D0014093CF01B7010F2C000C8D
:101DD000880B990B0E94C2122B013C0120E030E0DD
:101DE000A9010E9477151816E4F54092E502509279
:101DF000E6026092E7027092E80281E090E0909340
:101E0000EA028093E902B801012E000C880B990BBD
:101E10000E94C2122B013C0120E030E0A9010E9487
:101E2000771518160CF044C040929E0250929F0203
:101E30006092A0027092A102E1E0F0E0F093A302B0
:101E4000E093A20285E391E00E94D506C7010E94BB
:101E500034078DE491E00E94D506C8010E94340742
:101E6000A1CC20E030E0A901C301B2010E94BB1265
:101E700087FF11C077FA709477F870944092E5026A
:101E80005092E6026092E7027092E8023092EA0213
:101E90002092E902B8CF1092E5021092E602109269
:101EA000E7021092E8021092EA021092E902ABCF28
:101EB00020E030E0A901C301B2010E94BB1287FFFC
:101EC00011C077FA709477F8709440929E02509205
:101ED0009F026092A0027092A1023092A30220920F
:101EE000A202B0CF10929E0210929F021092A00206
:101EF0001092A1021092A3021092A202A3CF60E05E
:101F000070E0CB010FCF11FF03C01092CD015ACD6D
:101F100010FF58CD82E08093CD0154CD12FFF8CF51
:101F2000F1E0F093CD014ECD12FDFACF11FDEDCFD2
:101F300049CD1092E5021092E6021092E70210924B
:101F4000E8021092EA021092E90210929E021092A8
:101F50009F021092A0021092A1021092A30210926E
:101F6000A20260CD2091CD01213061F040F12230FC
:101F7000D9F186EC92E00E94C7058FE792E00E94BB
:101F8000C70550CD1092E5021092E6021092E702CA
:101F90001092E8021092EA021092E90220E030E08A
:101FA00040E752E420939E0230939F024093A002A8
:101FB0005093A1029093A3028093A20233CD80920A
:101FC000E5029092E602A092E702B092E8029093B6
:101FD000EA028093E90280929E0290929F02A09270
:101FE000A002B092A102E6CF20E030E040E752E448
:101FF0002093E5023093E6024093E7025093E80213
:102000009093EA028093E902A0CF8BE091E00E94D6
:1020100026078091D5019091D601A091D701B0916A
:10202000D8018093D1019093D201A093D301B093B2
:10203000D40140E050E0452B09F43FCB0E9400035F
:10204000882309F437CB0E94000034CB8CEF90E05A
:10205000DECF8EEE90E0DBCFB0E0A0E0E2E3F0E197
:102060000C941D145C016B017A016115710519F066
:10207000FB0191838083E114F10451F0C7010297C1
:10208000839730F040E030E020E090E072C05E01E5
:10209000E5012196F5011081812F90E00E94471102
:1020A000892BA9F71D3201F52196F501118101E077
:1020B000E114F10409F4DAC0F0E1EF16F10409F0DB
:1020C00082C0103359F488818F7D883509F076C03D
:1020D000198122960260F0E1EF2EF12C812C912CD7
:1020E000A12C88E0B82E8CC01B3221F4E501229689
:1020F000F501118100E0DCCFEAE0EE16F10409F40D
:10210000BBC0F0E1EF16F10409F06DC0E7CF78E055
:10211000E72EF12C812C912CA12C60E1B62E70C001
:102120003FE9310F3A3128F439EA332E80C021E0FB
:102130009AC0302F3170C114D10431F0222309F13B
:102140002197F601D183C08327FF21C060E070E0B2
:1021500080E090E8311104C06FEF7FEF8FEF9FE7D1
:1021600022E230E030930E0320930D03462F372FE9
:10217000282F642F732F822FCDB7DEB7E1E10C94A7
:10218000391401FF04C02297F601D183C0833323A1
:1021900041F090958095709561957F4F8F4F9F4F3F
:1021A000E5CF97FFE3CF82E290E090930E03809318
:1021B0000D036FEF7FEF8FEF9FE7D8CF10E3E114B0
:1021C000F10409F4A4CF28E0E216F10409F4A2CF47
:1021D0000CF092CF812C912CA12CE0E4BE2E82E059
:1021E000E816F10469F060E070E080E090E89701A3
:1021F0000F2C000C440B550B0E94EF1349015A01A0
:1022000020E060E070E0CB0127010F2C000C660895
:102210007708FE0150ED352E310E39E0331540F4CC
:102220003FEB310F3A3108F07BCF49EC342E310EC1
:102230003E141F040CF07DCF27FD15C086169706AF
:10224000A806B90678F0A30192010E94DF13630D7E
:10225000711D811D911D61307105810520E8920776
:1022600008F465CF2FEF21961081D3CF103309F4F6
:102270002ACF2AE0E22EF12C9CEC892E982CA82C57
:102280009CE0B92EBDCF662777270C945011911191
:102290000C94A012803219F089508550C8F7089527
:1022A000B0E0A0E0E6E5F1E10C9422145C017B01D2
:1022B0006115710519F0DB018D939C9385010F5F0A
:1022C0001F4FF501D0818D2F90E00E9447116C01C6
:1022D000892BB9F5DD32B9F50F5F1F4FD501119686
:1022E000DC91C1E05801F1E0AF1AB10843E050E0E1
:1022F00060E770E0C5010E94A312892B69F56801AF
:1023000082E0C80ED11C45E050E06BE670E0C601EB
:102310000E94A312892B21F4680197E0C90ED11CF9
:10232000E114F10419F0D701CD92DC9260E070E085
:1023300080E89FEFC111FFC060E070E080E89FE798
:10234000FAC05801BBCFDB3229F485010E5F1F4F65
:10235000F501D181C0E0C6CF43E050E068E670E00F
:10236000C5010E94A312892BE9F0F80110E000E0FA
:1023700020E030E0A9015F01B0ED8B2E8D0E89E0E9
:102380008815C8F19C2E689491F88C2F8870C2FF34
:1023900016C0811102C00F5F1F4F3196D501DC912D
:1023A000C92DE9CFE114F10429F00E5F1F4FF701A9
:1023B0001183008360E070E080EC9FE7BCC088235D
:1023C00011F001501109A5E0B0E00E9411149B0129
:1023D000AC01220F331F441F551F280D311D411D15
:1023E000511D283999E93907490799E15907A8F298
:1023F000C6609C2ED2CFAEEF8A1206C0C3FD3CC091
:102400009C2E689493F8C9CFDF7DD534A9F58081DF
:102410008D3239F4C061DF011296818162E070E093
:1024200006C0DF018B32C1F3119661E070E080538A
:102430005D01A61AB70A8A30F8F4E0E8CE16ECE09F
:10244000DE065CF4B601660F771F660F771FC60EB7
:10245000D71ECC0CDD1CC80ED11C5D01FFEFAF1ADE
:10246000BF0A8C9180538A30A8F1C4FF03C0D19475
:10247000C194D1080C0D1D1DC1FF09C0E114F10468
:1024800031F081E0A81AB108D701AD92BC92CA011F
:10249000B9010E94C012C370C33009F490584B01B7
:1024A0005C0120E030E0A9010E94BB12882309F4FE
:1024B00040C0CFE9D0E017FF05C011950195110983
:1024C000C7E8D0E06E01B8E1CB1AD10880E2E82E6F
:1024D000F12C0FC0D501B1CFFE0125913591459169
:1024E00054910E191F09C501B4010E9421134B011B
:1024F0005C01D501C4010E151F0574F72497F594EE
:10250000E794CC16DD06A9F78A2F880F8B2F881F3A
:102510008F3F49F020E030E0A901C501B4010E94DD
:10252000BB12811106C082E290E090930E0380936B
:102530000D03C501B401CDB7DEB7ECE00C943E1439
:10254000992788270895FB01DC014150504088F00D
:102550008D9181341CF08B350CF4805E6591613473
:102560001CF06B350CF4605E861B611171F3990BE6
:102570000895881BFCCF0E94FD1208F481E00895A5
:10258000E89409C097FB3EF490958095709561950D
:102590007F4F8F4F9F4F9923A9F0F92F96E9BB27C3
:1025A0009395F695879577956795B795F111F8CF3F
:1025B000FAF4BB0F11F460FF1BC06F5F7F4F8F4FAA
:1025C0009F4F16C0882311F096E911C0772321F0A0
:1025D0009EE8872F762F05C0662371F096E8862F38
:1025E00070E060E02AF09A95660F771F881FDAF78F
:1025F000880F9695879597F90895990F0008550FBC
:10260000AA0BE0E8FEEF16161706E807F907C0F078
:1026100012161306E407F50798F0621B730B840B80
:10262000950B39F40A2661F0232B242B252B21F45A
:1026300008950A2609F4A140A6958FEF811D811DFA
:1026400008950E9434130C94A5130E94971338F038
:102650000E949E1320F0952311F00C948E130C947D
:10266000941311240C94D9130E94B61370F3959F00
:10267000C1F3950F50E0551F629FF001729FBB2779
:10268000F00DB11D639FAA27F00DB11DAA1F649F15
:102690006627B00DA11D661F829F2227B00DA11DC8
:1026A000621F739FB00DA11D621F839FA00D611D4E
:1026B000221F749F3327A00D611D231F849F600D6F
:1026C000211D822F762F6A2F11249F5750409AF098
:1026D000F1F088234AF0EE0FFF1FBB1F661F771F24
:1026E000881F91505040A9F79E3F510580F00C94EF
:1026F0008E130C94D9135F3FE4F3983ED4F3869580
:1027000077956795B795F795E7959F5FC1F7FE2B8E
:10271000880F911D9695879597F9089597F99F676A
:1027200080E870E060E008959FEF80EC0895002459
:102730000A941616170618060906089500240A9426
:1027400012161306140605060895092E0394000CAC
:1027500011F4882352F0BB0F40F4BF2B11F460FF3B
:1027600004C06F5F7F4F8F4F9F4F089557FD905864
:10277000440F551F59F05F3F71F04795880F97FB45
:10278000991F61F09F3F79F08795089512161306FF
:102790001406551FF2CF4695F1DF08C0161617062E
:1027A0001806991FF1CF8695710561050894089563
:1027B000E894BB2766277727CB0197F90895DB01BB
:1027C0008F939F930E941114BF91AF91A29F800D90
:1027D000911DA39F900DB29F900D11240895A1E229
:1027E0001A2EAA1BBB1BFD010DC0AA1FBB1FEE1F8B
:1027F000FF1FA217B307E407F50720F0A21BB30BD6
:10280000E40BF50B661F771F881F991F1A9469F751
:1028100060957095809590959B01AC01BD01CF01AD
:1028200008950E945314A59F900DB49F900DA49FEE
:10283000800D911D112408952F923F924F925F9227
:102840006F927F928F929F92AF92BF92CF92DF92C0
:10285000EF92FF920F931F93CF93DF93CDB7DEB725
:10286000CA1BDB0B0FB6F894DEBF0FBECDBF0994B9
:102870002A88398848885F846E847D848C849B8410
:10288000AA84B984C884DF80EE80FD800C811B811E
:10289000AA81B981CE0FD11D0FB6F894DEBF0FBE4D
:1028A000CDBFED010895A29FB001B39FC001A39FCA
:1028B000700D811D1124911DB29F700D811D112479
:1028C000911D08955058BB27AA270E947A140C9492
:1028D000A5130E94971338F00E949E1320F039F43C
:1028E0009F3F19F426F40C9494130EF4E095E7FB43
:1028F0000C948E13E92F0E94B61358F3BA1762078F
:1029000073078407950720F079F4A6F50C94D81383
:102910000EF4E0950B2EBA2FA02D0B01B9019001FA
:102920000C01CA01A0011124FF27591B99F0593F3E
:1029300050F4503E68F11A16F040A22F232F342F86
:102940004427585FF3CF469537952795A795F040D4
:102950005395C9F77EF41F16BA0B620B730B840BE9
:10296000BAF09150A1F0FF0FBB1F661F771F881FA1
:10297000C2F70EC0BA0F621F731F841F48F48795F9
:1029800077956795B795F7959E3F08F0B0CF9395EB
:10299000880F08F09927EE0F9795879508950E9464
:1029A000E3140C94A5130E949E1358F00E949713F1
:1029B00040F029F45F3F29F00C948E1351110C94D0
:1029C000D9130C9494130E94B61368F39923B1F3AE
:1029D000552391F3951B550BBB27AA276217730745
:1029E000840738F09F5F5F4F220F331F441FAA1FD9
:1029F000A9F335D00E2E3AF0E0E832D09150504095
:102A0000E695001CCAF72BD0FE2F29D0660F771F42
:102A1000881FBB1F261737074807AB07B0E809F028
:102A2000BB0B802DBF01FF2793585F4F3AF09E3FAD
:102A3000510578F00C948E130C94D9135F3FE4F396
:102A4000983ED4F3869577956795B795F7959F5FF0
:102A5000C9F7880F911D9695879597F90895E1E03C
:102A6000660F771F881FBB1F621773078407BA079B
:102A700020F0621B730B840BBA0BEE1F88F7E095F6
:102A800008950E9448156894B1110C94D9130895C3
:102A90000E94BE1388F09F5798F0B92F9927B7511D
:102AA000B0F0E1F0660F771F881F991F1AF0BA95F2
:102AB000C9F714C0B13091F00E94D813B1E0089565
:102AC0000C94D813672F782F8827B85F39F0B93F57
:102AD000CCF3869577956795B395D9F73EF49095A5
:102AE0008095709561957F4F8F4F9F4F08950E94FD
:102AF000FD1208F48FEF08950E94FD12880B990BC8
:102B00000895EE0FFF1F0590F491E02D09946817CA
:102B1000790768F4FB01DC01E40FF51FA40FB51F72
:102B200002C002900E9241505040D8F708950C9484
:102B3000AD15FC018191861721F08823D9F79927DB
:102B400008953197CF010895FB01DC018D9101902B
:102B500080190110D9F3990B0895FB01DC0102C023
:102B600001900D9241505040D8F70895F894FFCF4E
:102B7000E8030000E8030000E8030000E8030000A9
:102B8000950295020000000036039602C302A303DB
:102B9000F402D202E6020D0A006E616E00696E66F2
:102BA000006F7666006C65667420776865656C20DA
:102BB00052504D2073657420746F3A20007269671B
:102BC000687420776865656C2052504D2073657479
:102BD00020746F3A200053455450494400534554E3
:062BE0005350454544007E
:00000001FF
