:020000040000FA
:100000000C9463000C94D11B0C94AA1B0C948B00D1
:100010000C948B000C948B000C948B000C948B0034
:100020000C948B000C948B000C948B000C946F1D23
:100030000C948B000C948B000C948B000C948B0014
:100040000C94601B0C948B000C941E1C0C94F81BDD
:100050000C948B000C948B000C948B000C948B00F4
:100060000C94501C0C948B0000000000240027000E
:100070002A0000000000250028002B0000000000DE
:1000800023002600290004040404040404040202DA
:100090000202020203030303030301020408102007
:1000A0004080010204081020010204081020000012
:1000B0000008000201000003040700000000000027
:1000C0000000D31D382911241FBECFEFD8E0DEBFBA
:1000D000CDBF13E0A0E0B1E0E0E8FCE502C0059090
:1000E0000D92A233B107D9F726E0A2E3B3E001C035
:1000F0001D92AB3DB207E1F710E0C2E6D0E004C0CC
:100100002197FE010E94272CC136D107C9F70E9412
:100110009E1E0C94332E0C940000CF93DF9300D0DE
:1001200000D0CDB7DEB719821A821B821C8289816A
:100130009A81AB81BC818A3F9105A105B10568F424
:10014000000089819A81AB81BC810196A11DB11DFE
:1001500089839A83AB83BC83EACF80E00F900F90B2
:100160000F900F90DF91CF9108954F925F926F9211
:100170007F928F929F92AF92BF92CF92DF92EF9237
:10018000FF920F931F93CF93F9010FEF1FEF980189
:1001900000831183228333834A015B01B3E0B69469
:1001A000A79497948794BA95D1F76A017B0127E0C9
:1001B000C222DD24EE24FF2495018401C0E0063034
:1001C00011052105310508F041C0C1113FC0DC0116
:1001D000A00FB11F6C91412C512C32018016910659
:1001E000A206B30649F470E00C2C02C07595679521
:1001F0000A94E2F726013701462F50E060FF17C04E
:10020000B901A801A3E0440F551F661F771FAA95E7
:10021000D1F7440E551E661E771E408251826282BF
:100220007382C1E00F5F1F4F2F4F3F4FC8CFBA01FE
:10023000759567954FEF441A540A640A740A48E0AA
:100240004416510461047104B9F6ECCFCF911F91AB
:100250000F91FF90EF90DF90CF90BF90AF909F9065
:100260008F907F906F905F904F9008958230C8F488
:10027000E82FF0E0EE0FFF1FE150FE4F7183608327
:10028000813041F0809169008C7F826080936900A9
:10029000E89A089580916900837F8860809369005F
:1002A000E99A0895833081F028F4813099F0823002
:1002B000A9F008958730A9F08830C9F08430B1F4EE
:1002C000809180008F7D03C0809180008F77809324
:1002D0008000089584B58F7784BD089584B58F7D9F
:1002E000FBCF8091B0008F778093B000089580910C
:1002F000B0008F7DF9CFCF93DF93282F30E0F90145
:10030000E255FF4F8491F901E656FF4FD491F90170
:10031000EA57FF4FC491CC23A1F081110E945201F2
:10032000EC2FF0E0EE0FFF1FE458FF4FA591B491C2
:10033000EC91ED2381E090E009F480E0DF91CF9132
:10034000089580E090E0FACF1F93CF93DF93282F9A
:1003500030E0F901E255FF4F8491F901E656FF4F75
:10036000D491F901EA57FF4FC491CC23A9F0162F7D
:1003700081110E945201EC2FF0E0EE0FFF1FEE58AA
:10038000FF4FA591B4918FB7F894EC91111108C06B
:10039000D095DE23DC938FBFDF91CF911F9108951D
:1003A000DE2BF8CFCF93DF9390E0FC01E656FF4FB2
:1003B00024918A579F4FFC0184918823D1F090E0CB
:1003C000880F991FFC01E859FF4FA591B491FC01DA
:1003D000EE58FF4FC591D491623071F49FB7F894F5
:1003E0003C91822F809583238C93E8812E2B288348
:1003F0009FBFDF91CF9108958FB7F894EC912E2B8A
:100400002C938FBFF6CF1F93CF93DF93182FEB0161
:1004100061E00E94D201209739F460E0812FDF91E2
:10042000CF911F910C94A401CF3FD10511F461E04D
:10043000F5CFE12FF0E0E255FF4FE491E33031F1E9
:1004400040F4E130B1F0E230E1F0C038D1057CF7A2
:10045000E4CFE73029F1E83059F1E430B1F7809189
:100460008000806280938000D0938B00C0938A00CC
:1004700004C084B5806884BDC7BDDF91CF911F9152
:10048000089584B5806284BDC8BDF7CF8091800097
:10049000806880938000D0938900C0938800EDCF5E
:1004A0008091B00080688093B000C093B300E5CF26
:1004B0008091B00080628093B000C093B400DDCF23
:1004C0003FB7F8948091290490912A04A0912B04BD
:1004D000B0912C0426B5A89B05C02F3F19F00196BA
:1004E000A11DB11D3FBFBA2FA92F982F8827BC018E
:1004F000CD01620F711D811D911D42E0660F771FB6
:10050000881F991F4A95D1F708952FB7F8946091E5
:1005100025047091260480912704909128042FBF10
:1005200008950895089508950895AF92BF92CF92C7
:10053000DF92EF92FF920F931F93CF93DF936C01A3
:100540007B018B01040F151FEB015E01AE18BF0884
:10055000C017D10759F06991D601ED91FC91019036
:10056000F081E02DC6010995892B79F7C501DF914E
:10057000CF911F910F91FF90EF90DF90CF90BF90A0
:10058000AF900895FC01538D448D252F30E0842FCA
:1005900090E0821B930B541710F0CF9608950197AB
:1005A0000895FC01918D828D981761F0A28DAE0F98
:1005B000BF2FB11D5D968C91928D9F5F9F73928F1F
:1005C00090E008958FEF9FEF08950F931F930E947F
:1005D00085026093350470933604809337049093BA
:1005E00038048DE294E00E94D10297FF1DC00E9462
:1005F0008502009135041091360420913704309122
:100600003804601B710B820B930B00913104109125
:10061000320420913304309134046017710782074B
:100620009307F8F28FEF9FEF1F910F910895FC0150
:10063000918D828D981731F0828DE80FF11D858D97
:1006400090E008958FEF9FEF0895FC01918D228D2A
:10065000892F90E0805C9F4F821B91098F739927AF
:1006600008958DE294E00E94250321E0892B09F48E
:1006700020E0822F089580E090E0892B29F00E94ED
:10068000310381110C9400000895FC01A48DA80F82
:10069000B92FB11DA35ABF4F2C91848D90E00196C4
:1006A0008F739927848FA689B7892C93A089B189E4
:1006B0008C91837080648C93938D848D981306C085
:1006C0000288F389E02D80818F7D80830895EF92E9
:1006D000FF920F931F93CF93DF93EC0181E0888FFC
:1006E0009B8D8C8D98131AC0E889F989808185FFCC
:1006F00015C09FB7F894EE89FF896083E889F9896E
:1007000080818370806480839FBF81E090E0DF916F
:10071000CF911F910F91FF90EF900895F62E0B8DC2
:1007200010E00F5F1F4F0F731127E02E8C8D8E117D
:100730000CC00FB607FCFACFE889F989808185FFE4
:10074000F5CFCE010E944503F1CFEB8DEC0FFD2FCD
:10075000F11DE35AFF4FF0829FB7F8940B8FEA899F
:10076000FB8980818062CFCFCF93DF93EC01888DAE
:100770008823B9F0AA89BB89E889F9898C9185FD1C
:1007800003C0808186FD0DC00FB607FCF7CF8C91AA
:1007900085FFF2CF808185FFEDCFCE010E9445031A
:1007A000E9CFDF91CF9108952091BF03260F332722
:1007B000331F21323105ECF42091E303FC0190E07A
:1007C00080E0243069F082E00895A091BF03219178
:1007D000AC0141565C4FA40FB52FB11D2C9301966F
:1007E000861798F38091BF03680F6093BF0380E082
:1007F000089581E008951092E30381E08093E5037A
:100800001092E40361E082E10E94A40161E083E1CF
:100810000E94A401E9EBF0E080818E7F80838081DB
:100820008D7F808388E48093B80085E48093BC004A
:100830000895CF93DF9391E090939E038823B9F0BE
:10084000C091B800D091BA008091BC008A7B80939F
:10085000BC0060E082E10E94A40160E083E10E94AC
:10086000A4010E94FB03D093BA00C093B800DF91AB
:10087000CF9108950895E091100480910F04E81736
:1008800030F4F0E0E758FC4F808190E008958FEF5E
:100890009FEF08959091100480910F042FEF3FEF88
:1008A000981748F4E92FF0E0E758FC4F208130E03A
:1008B0009F5F90931004C901089580910F04909157
:1008C0001004891B990B0895CF92DF92EF92FF924B
:1008D0000F931F93CF93DF937C01CB018A0120916B
:1008E0007803222389F0EB016B01C40ED51ECC15D1
:1008F000DD0569F06991D701ED91FC910190F081DE
:10090000E02DC7010995F3CF642F0E94D403C801DD
:10091000DF91CF911F910F91FF90EF90DF90CF90DB
:100920000895CF93DF931F92CDB7DEB769832091EF
:1009300078032223F9F020910D04203258F021E0B1
:1009400030E0FC013383228390E080E00F90DF9160
:10095000CF91089580910E04E82FF0E0E85AFC4F03
:10096000998190838F5F80930E0480930D0481E0C2
:1009700090E0ECCF61E0CE0101960E94D403F7CF66
:10098000CF92DF92EF92FF920F931F93CF93DF935B
:10099000D0910D0481E0D13208F09CC0C091570382
:1009A0000E9460026B017C018091E30381116CC0A5
:1009B00082E08093E30381E08093E5038FEF8093EF
:1009C000E20310920704D0930604A8E5B3E0E6EE34
:1009D000F3E080E0D8138DC01092080480910804E1
:1009E000CC0FC82BC09308048091E403813009F038
:1009F00084C01092E4030E9460026B017C0180912C
:100A000008048093BB0080919A0390919B03A0916E
:100A10009C03B0919D03892B8A2B8B2BA1F00E9404
:100A2000600200919A0310919B0320919C033091E6
:100A30009D036C197D098E099F0906171707280762
:100A4000390708F442C08091BC0083FDD8CF85EC03
:100A50008093BC000E9460026B017C018091E303E3
:100A6000823009F44CC08091E2038F3F09F469C0E1
:100A70008091E203803209F466C08091E203803302
:100A800009F463C084E026C080919A0390919B038F
:100A9000A0919C03B0919D03892B8A2B8B2B09F489
:100AA00083CF0E94600200919A0310919B032091D2
:100AB0009C0330919D036C197D098E099F090617CF
:100AC00017072807390708F06FCF809199030E9414
:100AD000190485E010920E0410920D041092780310
:100AE000DF91CF911F910F91FF90EF90DF90CF900A
:100AF00008959D9191938F5F6DCF85EEA9CF8091E1
:100B00009A0390919B03A0919C03B0919D03892B24
:100B10008A2B8B2B09F4A2CF0E94600200919A03CA
:100B200010919B0320919C0330919D036C197D09CA
:100B30008E099F09061717072807390708F08ECF77
:100B4000C4CF80E0C7CF82E0C5CF83E0C3CF90E0C1
:100B500080E008958F929F92AF92BF92CF92DF92E2
:100B6000EF92FF920F931F93CF93DF936A01480197
:100B7000E70191E0909378038093570310920E045D
:100B800010920D04E881F9810190F081E02DC701F8
:100B900009958C0C9D1CC814D90459F0E881F98181
:100BA0000190F081E02DD6016D916D01CE01099586
:100BB000F2CFCE010E94C00490E080E0DF91CF919F
:100BC0001F910F91FF90EF90DF90CF90BF90AF906B
:100BD0009F908F900895EF92FF920F931F93CF9362
:100BE000DF9300D0CDB7DEB7FC01EF5BFE4F708125
:100BF0003496E080F1804A83598302E010E020E0DF
:100C000030E0AE014F5F5F4F872F0E94AA05892B0E
:100C100051F08CEE0F900F90DF91CF911F910F91BB
:100C2000FF90EF90089580E0F5CFEF92FF920F9341
:100C30001F93CF93DF931F92CDB7DEB7FC01EF5B1D
:100C4000FE4F70813496E080F180498301E010E02E
:100C500020E030E0AE014F5F5F4F872F0E94AA0572
:100C6000892B49F08CEE0F90DF91CF911F910F915E
:100C7000FF90EF90089580E0F6CFEF92FF920F93F0
:100C80001F93AB01FC01EB5BFE4FE080F1808F5BBB
:100C90009E4F06E010E020E030E060EBFC01808138
:100CA0000E94AA05892B31F08CEE1F910F91FF90C5
:100CB000EF90089580E0F9CFEDE9F6E08185928527
:100CC000A385B4850196A11DB11D81879287A38755
:100CD000B4870895EAEBF6E081859285A385B48513
:100CE0000196A11DB11D81879287A387B4870895BE
:100CF000CF92DF92EF92FF920F931F93CF93DF93E8
:100D0000EC012D853E854F85588969897A898B89C3
:100D10009C890E941F2B6B017C010B8D1C8D20E098
:100D200030E0A9010E94FE2B1816ECF40F5F1F4F54
:100D30001C8F0B8F8B8D9C8D8F3F910529F024F09C
:100D40008FEF90E09C8F8B8F8B8D9C8D97FF02C0D7
:100D50001C8E1B8EDF91CF911F910F91FF90EF9012
:100D6000DF90CF90089520E030E0A901C701B601DF
:100D70000E94852987FFDECF01501109D9CFCF937B
:100D8000DF93EC01198A1A8A1B8A1C8A1E8A1D8A23
:100D900070E060E088810E94030270E060E0898179
:100DA000DF91CF910C9403020F931F93CF93DF93A6
:100DB0008C01EB01FC0180811C161D0694F070E093
:100DC00060E0209771F00E940302662777276C1B72
:100DD0007D0BF8018181DF91CF911F910F910C94D0
:100DE00003020E94030270E060E0F3CFCF92DF9233
:100DF000EF92FF920F931F93CF93DF93FC01C5886F
:100E0000D688E788F08CC18DD28DCE14DF0409F529
:100E1000838D948DC817D907BCF42196D28FC18FCA
:100E2000818D928DC89EB001C99E700DD89E700DA7
:100E30001124CF01DF91CF911F910F91FF90EF907F
:100E4000DF90CF900C94D4068C179D074CF7219718
:100E5000E5CF8C0120E030E040EA50E465857685FE
:100E6000878590890E94852987FF0CC0CA30D105EB
:100E70004CF4CC9EB001CD9E700DDC9E700D112403
:100E8000C801D8CFCB30D105ACF02A97F801D28F6A
:100E9000C18F818D928D97FF02C0128E118EF80145
:100EA000818D928DE89EB001E99E700DF89E700DC7
:100EB0001124E6CF2197EACFCF93DF93EC0161E0D5
:100EC00088810E94D20161E089810E94D20162E0A2
:100ED0008A81DF91CF910C94D2014F925F926F92F1
:100EE0007F928F929F92AF92BF92CF92DF92EF92BA
:100EF000FF920F931F93CF93DF93D82F6A0148017E
:100F000081E080937803D093570310920E041092DF
:100F10000D04D701ED91FC910190F081E02DC70106
:100F20000995C7010E94C0040E9460022B013C0188
:100F30008091E303811166C0C82D81E08093E303B3
:100F40008093E5039FEF9093E20310920704980DBE
:100F5000909306048093080480910804DD0FD82B39
:100F6000D09308048091E403813009F086C0109288
:100F7000E4030E9460022B013C01809108048093ED
:100F8000BB0080919A0390919B03A0919C03B09128
:100F90009D03892B8A2B8B2BA1F00E94600200916C
:100FA0009A0310919B0320919C0330919D03641937
:100FB000750986099709061717072807390708F4DE
:100FC00042C08091BC0083FDD8CF85EC8093BC00EB
:100FD0000E9460022B013C018091E303813009F4FF
:100FE0004EC0809107048C1710F4C0910704E6EE00
:100FF000F3E0A9E7B3E080E08C1751F191919D9364
:101000008F5FFACF80919A0390919B03A0919C03EC
:10101000B0919D03892B8A2B8B2B09F489CF0E94D9
:10102000600200919A0310919B0320919C033091E0
:101030009D0364197509860997090617170728077C
:10104000390708F075CF809199030E941904C0E018
:1010500010921004C0930F048C0C9D1CC814D9046A
:1010600081F1D701ED91FC910284F385E02DC70158
:101070000995F60181936F01F1CF85EEA7CF80919D
:101080009A0390919B03A0919C03B0919D03892B9F
:101090008A2B8B2B09F4A0CF0E94600200919A0347
:1010A00010919B0320919C0330919D036419750955
:1010B00086099709061717072807390708F08CCF04
:1010C000C2CF90E080E0DF91CF911F910F91FF9010
:1010D000EF90DF90CF90BF90AF909F908F907F90D8
:1010E0006F905F904F9008952F923F924F925F9232
:1010F0006F927F928F929F92AF92BF92CF92DF9228
:10110000EF92FF920F931F93CF93DF93CDB7DEB78C
:101110002F970FB6F894DEBF0FBECDBF9C878B878D
:101120006D875F874E873901170128012F82388626
:1011300049865A8610E000E0EE24E394F12C0A156B
:101140001B0509F461C09E01295F3F4FB201A10157
:101150008E859F850E94B5004F81588569857A8567
:101160004F3F2FEF52076207720709F49CC0DB0163
:10117000CA018C549F4FAF4FBF4FE6E0B695A7957D
:1011800097958795EA95D1F7880F991F880F991F32
:10119000875F9D4F21E0FC0180819181A281B38115
:1011A000892B8A2B8B2B09F420E0FD85F2137BC061
:1011B0001A012B0133E056944794379427943A95BB
:1011C000D1F7DB01CA0187709927AA27BB2726E040
:1011D000221631044104510468F4F301E20DF31DB9
:1011E000970102C0220F331F8A95E2F7C90190814F
:1011F000892B80831A012B013FEF231A330A430AFC
:10120000530A0F5F1F4F9BCFB12CF4012082318214
:1012100042825382B1102DC0B3018B859C850E9400
:101220003D06B82E811125C0EB85FC85EB5BFE4F9A
:10123000E080F180EB85FC85EF5BFE4F06E010E07F
:1012400020E030E0AE014F5F5F4F60EB80810E9495
:101250006D07892B11F09CEEB92EF301DE0111967A
:10126000C301069631912D91321320C0E817F9077A
:10127000C9F78B2D2F960FB6F894DEBF0FBECDBFEA
:10128000DF91CF911F910F91FF90EF90DF90CF9062
:10129000BF90AF909F908F907F906F905F904F9096
:1012A0003F902F9008952EECB22EAFCF8EECB82E3B
:1012B000E0CFCF92DF92EF92FF920F931F93CF93E5
:1012C000DF9300D000D0CDB7DEB76A01FC01EB5B45
:1012D000FE4FE080F1808F5B9E4F04E010E020E045
:1012E00030E0AE014F5F5F4FFC0180810E946D07CF
:1012F00049815A8154274527542770E060E0762FB2
:10130000652F542F44272B81422B762F652F542F86
:1013100044272C81422BF6014083518362837383DF
:10132000892B71F480E00F900F900F900F90DF9158
:10133000CF911F910F91FF90EF90DF90CF90089584
:101340008CEEF1CFCF92DF92EF92FF920F931F932B
:10135000CF93DF9300D0CDB7DEB76A01FC01EB5B22
:10136000FE4FE080F1808F5B9E4F02E010E020E0B6
:1013700030E0AE014F5F5F4FFC0180810E946D073E
:1013800029813A81322723273227F60131832083AE
:10139000892B61F480E00F900F90DF91CF911F9126
:1013A0000F91FF90EF90DF90CF9008958CEEF3CFE8
:1013B000EF92FF920F931F93CF93DF9300D0CDB79F
:1013C000DEB78C017A016330710509F449C090F4ED
:1013D0006130710509F162307105E1F1F80181A90F
:1013E00092A9A3A9B4A9F70180839183A283B383AF
:1013F00080E049C06630710588F7AE014F5F5F4FEE
:1014000064E60E94A20981113EC0298180E0922FEA
:10141000990FB0E0A0E0E7CFAE014F5F5F4F64E40B
:101420000E94A20981112FC0998120E0392F330F2A
:10143000A90170E060E0232BD1F0F70140835183D4
:1014400062837383F80145AB56AB67AB70AF91E035
:1014500096A319C0FC0181AD92ADA3ADB4ADC3CFCD
:10146000FC01FD9680819181A281B381BCCFF801FE
:1014700045A956A967A970ADF701408351836283DE
:101480007383F80116A20F900F90DF91CF911F91F7
:101490000F91FF90EF9008958F929F92AF92BF921D
:1014A000CF92DF92EF92FF920F931F93CF93DF9330
:1014B00000D0CDB7DEB7962ED42E822EFC01EF5B86
:1014C000FE4FC0805C012BEBA21A2EEFB20AF50191
:1014D000E080F18001E010E020E030E0AE014E5FFE
:1014E0005F4F8C2D0E946D07892BA9F42A812D2135
:1014F00028292A83F501E080F180298301E010E0AA
:1015000020E030E0AE014F5F5F4F692D8C2D0E94CF
:10151000AA05892B81F08CEE0F900F90DF91CF916F
:101520001F910F91FF90EF90DF90CF90BF90AF9001
:101530009F908F90089580E0EFCFEF92FF920F93EE
:101540001F93FC01EB5BFE4FE080F1808F5B9E4FB1
:1015500001E010E020E030E0FC0180810E946D0796
:10156000892B31F08CEE1F910F91FF90EF90089531
:1015700080E0F9CFEF92FF920F931F93CF93DF9309
:101580001F92CDB7DEB77C0100E041E06BE0C70100
:101590000E941506182F40E06BE0C7010E94150657
:1015A000182BAE014F5F5F4F63E1C7010E949D0A98
:1015B000812B0F5F9981977061F0033061F0882370
:1015C00021F30F90DF91CF911F910F91FF90EF903A
:1015D00008950330B1F784EFF4CF9F92AF92BF929A
:1015E000CF92DF92EF92FF920F931F93CF93DF93EF
:1015F0001F92CDB7DEB77C015B016A01922E198282
:1016000041E06FEF0E941506182F40E060E0C7012F
:101610000E941506182B40E06FEFC7010E941506C7
:10162000182B992031F0A5016BECC7010E949D0A8F
:10163000182B002341F0AE014F5F5F4F6EEEC701E4
:101640000E949D0A182B41E06FEFC7010E9415060A
:10165000182B41E060E0C7010E941506182B40E0FE
:101660006FEFC7010E94150699819F7EF601908356
:10167000812B0F90DF91CF911F910F91FF90EF90F1
:10168000DF90CF90BF90AF909F9008950F931F93DE
:10169000CF93DF931F92CDB7DEB78A01AE014F5FC4
:1016A0005F4F613081F060E50E949D0A811105C0A5
:1016B00099819F5F990FF80190830F90DF91CF91EF
:1016C0001F910F91089560E7EFCFCF92DF92EF92D5
:1016D000FF921F93CF93DF931F92CDB7DEB77C01AC
:1016E00040E063E80E941506182F811117C0D12C25
:1016F000C12CAE014F5F5F4F63E8C7010E949D0A96
:10170000182F898181110AC0111108C08FEFC81AE2
:10171000D80A88ECC816D10461F719EF41E063E8F4
:10172000C7010E941506812B0F90DF91CF911F9169
:10173000FF90EF90DF90CF900895CF92DF92EF92DD
:10174000FF920F931F93CF93DF931F92CDB7DEB716
:101750007C0110E000E06C018EECC80ED11CF6019B
:101760008081AE014F5F5F4F8430A9F463E1C70110
:101770000E949D0A9981292F2770987111F588235D
:10178000D9F00F90DF91CF911F910F91FF90EF90C3
:10179000DF90CF90089564E1C7010E949D0A8111F6
:1017A000F0CF998190FDEDCF0F5F1F4F083C1105E1
:1017B00031F00E948D00D3CF2430B1F7E2CF89EF12
:1017C000E0CF8AEFDECFCF93DF93EC01462F41606D
:1017D00060E00E941506811111C0CE010E949D0B90
:1017E00081110CC0CE010E94BA0A811107C040E0ED
:1017F00060E0CE01DF91CF910C941506DF91CF917F
:1018000008950F931F93CF93DF931F92CDB7DEB749
:101810008B011982AE014F5F5F4F61E00E949D0A0C
:10182000811116C0998194FB332730F9F801308378
:1018300093FB332730F9328392FB332730F931831E
:1018400096FB222720F92383991F9927991F9483B8
:101850000F90DF91CF911F910F9108952F923F929A
:101860004F925F926F927F928F929F92AF92BF92B0
:10187000CF92DF92EF92FF921F93CF93DF93CDB77A
:10188000DEB72B970FB6F894DEBF0FBECDBF6C014D
:101890001A011B861F821E82623009F06EC0AE01E3
:1018A000465F5F4F60E00E94460B182F811108C011
:1018B000AE01455F5F4F66E4C6010E949D0A182F86
:1018C000AA85B0E020E03FE24AE350E00E94AC2A63
:1018D0002B013C0124EF420E21E0521E611C711CC1
:1018E000CB84D12CF12CE12C8FEFC81AD80AE80A4E
:1018F000F80A98EE892E93E0992EA12CB12CC30101
:10190000B201A50194010E94EE2ACA01B901A70102
:1019100096010E94032C6B017C01C301B20120EDF2
:1019200037E040E050E00E94EE2AC701B601620FA6
:10193000731F841F951FA50194010E94EE2AF101D7
:101940002083318342835383812F2B960FB6F894E3
:10195000DEBF0FBECDBFDF91CF911F91FF90EF9003
:10196000DF90CF90BF90AF909F908F907F906F90BF
:101970005F904F903F902F900895633009F043C0DF
:10198000AE01465F5F4F60E00E94460B182F20E0DB
:1019900030E0A9018111D3CFAE01465F5F4F60E017
:1019A000C6010E94460B182F811108C0AE014A5F84
:1019B0005F4F61E5C6010E94A209182FEE81FF81E9
:1019C000AA85B0E020E03FE24AE350E00E94AC2A62
:1019D0002B013C0124EF420E21E0521E611C711CC0
:1019E0006F01DD24F12CE12C04C0CC0CDD1CEE1CBD
:1019F000FF1CFA95D2F78FEFC81AD80AE80AF80A3E
:101A0000EE24FF2476CFBE016F5F7F4F0E94010C52
:101A10008C81882351F1AE01465F5F4F60E0C601C3
:101A20000E94460B182FF12CE12C81111BC0AE0136
:101A30004A5F5F4F61E5C6010E94A209182F2E81FF
:101A40003F81C9019927B0E0A0E004C0880F991F29
:101A5000AA1FBB1F3A95D2F70196A11DB11D7C01AB
:101A6000112329F0D12CC12C25C0F12CE12CAE0181
:101A7000465F5F4F61E0C6010E94460B182F81113F
:101A8000F1CFAE01485F5F4F61E7C6010E94A20936
:101A9000182F28853985C9019927B0E0A0E004C036
:101AA000880F991FAA1FBB1F3A95D2F70196A11D57
:101AB000B11D6C01AA85B0E020E03FE24AE350E0AE
:101AC0000E94AC2A2B013C01E4EF4E0EE1E05E1EC9
:101AD000611C711C88EE882E83E0982EA12CB12CFD
:101AE000C301B201A50194010E94EE2AD601AE19EC
:101AF000BF090E94AC2A0FCF4F925F926F927F92E4
:101B0000BF92CF92DF92EF92FF920F931F93CF93EA
:101B1000DF9300D000D0CDB7DEB78A01AE014F5FB2
:101B20005F4F0E942E0CB82E81112AC069817A81E4
:101B30008B819C8128EE422E23E0522E612C712C49
:101B4000A30192010E94EE2A69017A019B01AC0176
:101B5000AFEFBFEF0E94AC2A6C507E4F8F4F9F4F6C
:101B6000A30192010E94EE2A7601DD24CC24C20E4C
:101B7000D31EE41EF51EF801C082D182E282F382F8
:101B80008B2D0F900F900F900F90DF91CF911F91A1
:101B90000F91FF90EF90DF90CF90BF907F906F906C
:101BA0005F904F9008955F926F927F928F929F9275
:101BB000AF92BF92CF92DF92EF92FF920F931F935B
:101BC000CF93DF93CDB7DEB761970FB6F894DEBF42
:101BD0000FBECDBF7C018B01FC018089FB0180839E
:101BE000AE014A5F5F4F68EFC7010E94A209582EFD
:101BF00081113AC1AE014F5F5F4F64E0C7010E949F
:101C00005909582E811130C12E813F81211531058E
:101C100069F050E040E069817A818B819C810E946B
:101C2000EE2AF8012683378340875187F8018681A1
:101C30009781A085B185F701868B978BA08FB18F97
:101C4000F8011286AE014F5F5F4F60E2C7010E944C
:101C5000A209582E811108C189819A81009709F043
:101C60001AC1F701858D968DA78DB0A1F8018587E2
:101C70009687A787B08BF701128EAE014F5F5F4F3B
:101C800068E2C7010E94A209582E8111EDC0898126
:101C90009A819F708115F8E09F0708F090514AEFF4
:101CA000489F9001499F300D1124C901330FAA0BA1
:101CB000BB0BF801818B928BA38BB48B5801F1E2A3
:101CC000AF0EB11C470125E2820E911C380185E15F
:101CD000680E711CD12CC12CA501B601C7010E9450
:101CE000D809582E8111C0C0F40181914F01F30130
:101CF00081933F01FFEFCF1ADF0A24E0A20EB11C4F
:101D000086E0C816D10441F7AE014F5F5F4F61E036
:101D1000C7010E949D0A582E8111A6C08981F70132
:101D2000E35EFE4F808387FFCAC081E0F80181AF88
:101D3000F80181ADF701E75BFF4F808380ED97E00D
:101D4000A0E0B0E08A879B87AC87BD871E821F8298
:101D50001886198686E39BE0A0E0B0E0F801828354
:101D60009383A483B583BE016F5F7F4FC7010E9439
:101D7000010C582E811178C08981811107C08A8198
:101D8000811104C08B81882309F43EC0AE01465FF7
:101D90005F4F62E0C7010E942E0C8111C1C0898192
:101DA0008823A9F08A859B85AC85BD85825B9D4F84
:101DB000AF4FBF4FF8014281538164817581840F19
:101DC000951FA61FB71F82839383A483B5838B813E
:101DD000882309F477C08A859B85AC85BD858E54A0
:101DE0009D4FAF4FBF4F880F991FAA1FBB1FF80110
:101DF0004281538164817581840F951FA61FB71F8F
:101E000082839383A483B5838C81811168C08D8183
:101E1000882301F1AE01425F5F4F64E0C7010E9479
:101E20002E0C8E849F84A888B988F6E28F0EF2E08B
:101E30009F1EA11CB11CF8014281538164817581F0
:101E4000480D591D6A1D7B1D42835383648375832E
:101E5000811166C0F80182819381A481B581F70167
:101E6000828B938BA48BB58B852D61960FB6F894DE
:101E7000DEBF0FBECDBFDF91CF911F910F91FF90BD
:101E8000EF90DF90CF90BF90AF909F908F907F901A
:101E90006F905F90089533E0880F991F3A95E1F7AE
:101EA000B0E0A0E0F80185879687A787B08BF7019F
:101EB000858F968FA78FB0A381E0828FDECEF80149
:101EC00011AE36CF8A81882309F49ECF8A859B85FF
:101ED000AC85BD858C569D4FAF4FBF4F88CFAE01AF
:101EE0004A5F5F4F63E0C7010E942E0C8E809F8087
:101EF000A884B984F4E98F0EF2E09F1EA11CB11CE6
:101F0000F8014281538164817581480D591D6A1D14
:101F10007B1D4283538364837583882309F477CFC1
:101F2000582EA2CF2F923F924F925F926F927F9244
:101F30008F929F92AF92BF92CF92DF92EF92FF92D9
:101F40000F931F93CF93DF93CDB7DEB769970FB68B
:101F5000F894DEBF0FBECDBF00ED17E020E030E00B
:101F60000B871C872D873E871F86188A198A1A8A35
:101F700040322EE4520761057105E0F45CEFB52EA6
:101F80008B2D69960FB6F894DEBF0FBECDBFDF91E3
:101F9000CF911F910F91FF90EF90DF90CF90BF9066
:101FA000AF909F908F907F906F905F904F903F90F9
:101FB0002F9008954E8B5F8B688F798F8C01BE01B7
:101FC0006A5F7F4F0E94010CB82E8111D9CFCE8855
:101FD000DF88E88CF98C88EEC81A88E0D80AE10816
:101FE000F1088E81811106C08F81811103C088851F
:101FF0008823C1F1AE01455F5F4F62E0C8010E94D6
:102000002E0C81110AC18E81882391F08B859C85CD
:10201000AD85BE85825B9D4FAF4FBF4F8C159D0533
:10202000AE05BF0508F0AACFC81AD90AEA0AFB0A0A
:102030008885882309F471C08B859C85AD85BE8514
:102040008E549D4FAF4FBF4F880F991FAA1FBB1FC4
:102050008C159D05AE05BF0508F090CFC81AD90AAA
:10206000EA0AFB0A89858823D9F0AE01415F5F4FF8
:1020700063E0C8010E942E0C4F85588969897A89CE
:102080004C565D4F6F4F7F4F4C155D056E057F05BC
:1020900008F074CF8111C1C0C41AD50AE60AF70A44
:1020A0008A85882309F46CCFBE016F5F7F4FC8011A
:1020B0000E94010C8C818823E9F1AE014B5E5F4FD9
:1020C00060E0C8010E94460BB82E81111CC0AE0111
:1020D0004D5E5F4F61E5C8010E94A209B82E8B8951
:1020E0009C891C013324512C412C04C0220C331C2C
:1020F000441C551C9A95D2F79FEF291A390A490AB0
:10210000590ABB20C9F08E899F89A88DB98DF80125
:10211000828B938BA48BB58B33CF8F81882309F46B
:10212000A1CF8B859C85AD85BE858C569D4FAF4FCD
:10213000BF4F8ECF312C212CAE014B5E5F4F61E043
:10214000C8010E94460BB82E8111DDCFA6E2CA1A43
:10215000A2E0DA0AE108F108AD89B0E020E03FE250
:102160004AE350E00E94AC2A4B015C01B4EF8B0EB5
:10217000B1E09B1EA11CB11CA8EEB3E0A701960123
:102180000E94AC2A2B013C01C501B40120ED37E0CF
:1021900040E050E00E94EE2A420E531E641E751E5F
:1021A000C501B40128EE33E040E050E00E94EE2A81
:1021B000C301B2010E94EE2A220E331E2114310403
:1021C000E1F04101B12CA12CE1E08E1A9108A108A7
:1021D000B10890E080E0B501A4014427452B462BCF
:1021E000472B31F0B694A794979487940196F3CF38
:1021F000982F88271C01280C391CA10161E7C80110
:102200000E94EB05B82E81117ECFF801E153FF4FFC
:10221000C082D182E282F38276CFB82EB1CE7F9295
:102220008F929F92AF92BF92CF92DF92EF92FF92E6
:102230000F931F93CF93DF931F92CDB7DEB77C012F
:102240005B016A01722E4C0183EE881A8EEF980AA8
:10225000F4011081198241E061E0C7010E94150676
:1022600081114AC060E4C7010E94E30B811144C0A0
:10227000F1E07F121AC000E021E0AE014F5F5F4F36
:10228000B501C7010E94ED0A882389F00F90DF9104
:10229000CF911F910F91FF90EF90DF90CF90BF9063
:1022A000AF909F908F907F900895F501108242E04B
:1022B00061E0C7010E941506811124C060E0C701DA
:1022C0000E94E30B81111EC0F1E07F1218C001E0F3
:1022D00020E0A601BE016F5F7F4FC7010E94ED0A9B
:1022E0008111D4CF412F61E0C7010E9415068111F1
:1022F000CDCFF4011083CACFF5011082C7CFF6010C
:102300001082F0CFF601F9CF2F923F924F925F9259
:102310006F927F928F929F92AF92BF92CF92DF92F5
:10232000EF92FF920F931F93CF93DF93CDB7DEB75A
:10233000EC970FB6F894DEBF0FBECDBF6C015B010A
:10234000DC0150961C9241E060E80E94150641E0D5
:102350006FEFC6010E94150640E060E0C6010E94D2
:102360001506F601E95DFE4F408161E9C6010E9454
:10237000150641E060E0C6010E94150640E06FEFDF
:10238000C6010E94150640E060E8C6010E941506DD
:1023900041E060E0C6010E941506811116C091E07F
:1023A0009983412C512C3201BFEF4B1A5B0A6B0A07
:1023B0007B0A998190FF2AC08111B6C2E8EC4E16C3
:1023C000510461047104D1F489EFEC960FB6F894CE
:1023D000DEBF0FBECDBFDF91CF911F910F91FF9058
:1023E000EF90DF90CF90BF90AF909F908F907F90B5
:1023F0006F905F904F903F902F900895AE014F5F88
:102400005F4F60E0C6010E949D0ACECFF8EC4F16E8
:10241000510461047104C1F28111D7CFC6010E9439
:102420009D0B8111D2CF83E0F601E15EFE4F8083E8
:10243000B696E080F1800CE010E020E030E0AE01E4
:10244000465E5F4F64E1349780810E946D07892B5F
:1024500011F08CEEBACFD50156961C925697F50125
:1024600010821182128213826CA170E0762F66278F
:102470002DA1620F711D14961D921D921D921C922A
:102480001797E9A1F0E0FE2FEE27FF0F2F01712C27
:10249000612C1C964D925D926D927C921F978BA140
:1024A00090E0982F8827990F8C0130E020E050961B
:1024B0000D931D932D933C9353970C8D10E0102F8B
:1024C00000272D8D7801E20EF11CFCAEEBAE559687
:1024D000FC92EE9254979A8CD601A75CBE4F2D9138
:1024E0003C9111975B978C90283E03E03007E9F10F
:1024F000629FC001639F900D729F900D11248C50BC
:102500009E4F68EE73E00E94132CD6015D96ED900D
:10251000FD900D911C9190975A962C91222329F1B0
:102520002BAD3CAD2E9DA0012F9D500D3E9D500D1D
:102530001124452F5527E417F50741F460EE7AE89A
:10254000882009F4E3C068EB72E212C09F01DB014E
:102550000E94102B83017F01E41AF50A0109110979
:10256000A80197010E94EE2AB901882009F4CEC083
:10257000CB019695879596958795D50119969C934D
:102580008E9318976295660F660F607C57966C93D2
:102590001FA61EA6892D90E07C0173E0F594E794B8
:1025A0007A95E1F7FAAEE9AE09AD0F70902E09F415
:1025B000B2C089AD8D7011E018AB853029F084EF81
:1025C000800F843008F018AA41E06FEFC6010E9426
:1025D0001506811107C0AE01425D5F4F66EBC60173
:1025E0000E94A2099EA520E0392F330F790110E047
:1025F00000E0E9AAFAAA0BAB1CAB811105C040E0D0
:102600006FEFC6010E941506F601EE5CFE4FE9A8C9
:10261000FAA80BA91CA9E082F1820283138381111D
:1026200078C1D60195968C909597882009F47FC043
:10263000F501E484F584068517855A968C9120E08F
:1026400030E0A901882399F0A489B589F601258D88
:10265000368D478D50A10E94AC2A9B01AC012058B9
:102660003F4F4F4F5F4F232F342F452F55272E0DB0
:102670003F1D401F511FA8EEB3E00E94AC2A7058C6
:102680008F4F9F4FBC0188279927F601E65DFE4FCB
:10269000672B682B692B09F041C08EEA97E8AFE8F9
:1026A000B2E080839183A283B3831EEAE12E17E810
:1026B000F12E0FE812E0EDAAFEAA0FAB18AFD5017C
:1026C0001B961C921E921A97AE01465D5F4F70E0FA
:1026D00060E0C6010E94D8094AA55BA56CA57DA54E
:1026E000411551056105710559F0FF24F3940DA9B9
:1026F0001EA92FA938AD401751076207730708F0CC
:10270000F12C8823A9F0212C312C07C1F501718708
:102710006087178A3DCF01E008AB56CF1082118247
:10272000128213821DAA1EAA1FAA18AEC8CFF12CAE
:10273000D60197963C90332009F4C5C0AE014A5D9E
:102740005F4F62E070E0C6010E94D8094EA15FA110
:1027500068A579A5411551056105710559F0EE246B
:10276000E39409A91AA92BA93CA9401751076207AC
:10277000730708F0E12C212C90E0811132C0D601C2
:1027800098962C90222009F4A4C00BAD1CAD011525
:10279000110509F49AC0962D852D742D6627980190
:1027A00050E040E00E94EE2A29013A01AE014F5F5D
:1027B0005F4F63E070E0C6010E94D80949815A81E9
:1027C0006B817C81411551056105710531F091E006
:1027D000441655066606770608F090E0882309F44B
:1027E00079C0D5011B961C921E921A9780E0811029
:1027F00002C0FF24F394F60136A1F3A6F4E09F167D
:1028000009F4B0C021E0311120E0D6019C962C9350
:10281000311002C0EE24E394F601E5A6211001C0B8
:1028200091E0D6019E969C93F501808F9601265BE0
:102830003F4F99E1F901DE01119601900D929A95B1
:10284000E1F7D5011896ED91FC91199757969C9157
:1028500057971A966D917C911B971C96ED90FD9061
:102860000D911C911F9750964D905D906D907C90AE
:10287000539754964D915C91559714968D909D90D9
:10288000AD90BC9017978D829E82AF82B886FA87F2
:10289000E9877C876B87ED86FE860F87188B498AD0
:1028A0005A8A6B8A7C8A5E8B4D8B988F898F89E1DF
:1028B000FE013196D90101900D928A95E1F7C6018A
:1028C0000E94BA0A82CDE12C5ACF412C512C320100
:1028D0006DCF90E018A98FEF113009F488CF890DE2
:1028E0008330F0F026E0921639F139E0931621F1A9
:1028F00089AD8D708830B1F041E0E41699F054E074
:10290000951639F1913001F1F41601F19F2DEF2C5C
:1029100068CF212C312C812CF12C90E0E12C61CF5F
:1029200085E065CF83E063CFB8EC4B1651046104BA
:10293000710409F04ACD48CD84E081105CCFF601E6
:1029400036A121E023A75ECF82E0F7CFE92E81E018
:10295000F4CF82E081104FCF81E0D6019B968C931B
:10296000E12C82E021E051CFAF92BF92DF92EF9253
:10297000FF920F931F93CF93DF93CDB7DEB7699785
:102980000FB6F894DEBF0FBECDBF8C015B017C019A
:1029900083EEE81A8EEFF80AF701D08040EC61E090
:1029A000C8010E941506811126C0BE016F5F7F4FCE
:1029B000C8010E94841181111EC041E06FEFC8015F
:1029C0000E941506811117C0A50166EBC8010E947F
:1029D000A209811110C040E06FEFC8010E941506E6
:1029E000811109C04D2D61E0C8010E9415068111B9
:1029F00002C0F701D08269960FB6F894DEBF0FBE11
:102A0000CDBFDF91CF911F910F91FF90EF90DF909D
:102A1000BF90AF9008952F923F924F925F926F9226
:102A20007F928F929F92AF92BF92CF92DF92EF925E
:102A3000FF920F931F93CF93DF93CDB7DEB7AC9781
:102A40000FB6F894DEBF0FBECDBF1C017FA36EA3EF
:102A500059A748A71F82188619861A861B861C86C6
:102A60001D861E86198A1A8AFC01E85DFE4F2081A8
:102A70003181398F288FAC014F5E5E4F5B8F4A8F5B
:102A8000DA011C922C01BEEE4B1ABEEF5B0AF2017A
:102A900010823C01FDEE6F1AFEEF7F0AD3011C92FB
:102AA000FC01EC5EFE4F108231961082319610824E
:102AB00041E06FEF0E9415068B8B81111DC140E034
:102AC0006FE4C1010E9415068B8B811115C14CE288
:102AD0006EE4C1010E9415068B8B81110DC140E08F
:102AE0006FEFC1010E9415068B8B811105C144EB6C
:102AF00066EBC1010E9415068B8B8111FDC040E081
:102B000060E8C1010E9415068B8B8111F5C020E0A1
:102B1000AE014E5E5F4FBE016F5E7F4FC1010E94EE
:102B20000F118B8B8111E8C01F82188619861A86B7
:102B3000F101E95EFE4FFD8FEC8F9E01295F3F4F53
:102B40004901A3E0AA2EB12CC12CD12CE12CF12CEF
:102B500087012A8D3B8DAF0160E0C1010E9474089E
:102B60008B8B8111C9C04F81588569857A854C8BC3
:102B70005D8B6E8B7F8BBE01615F7F4FC1010E94B9
:102B8000B4148B8B8111B8C08F859889688D798D2D
:102B90006817790708F0D3C0AA8DBB8D1C92F2018B
:102BA0001082D3011C923296108231961082319697
:102BB00010828C899D89AE89BF898C549F4FAF4FFD
:102BC000BF4FE6E0B695A79597958795EA95D1F71B
:102BD000880F991F880F991F875F9D4FFC01808187
:102BE0009181A281B381892B8A2B8B2B91F42C8923
:102BF0003D894E895F892C3231054105510548F4E4
:102C00002F5F3F4F4F4F5F4F2C8B3D8B4E8B5F8B1A
:102C1000D0CFAE01495F5F4F4A0173E0A72EB12CC0
:102C2000C12CD12CEC88FD880E891F892A8D3B8D03
:102C30004C8D5D8D61E0C1010E947408811159C104
:102C40006F81788589859A856C8B7D8B8E8B9F8B28
:102C5000BE01615F7F4FC1010E94B414811149C15F
:102C60008F859889A88DB98D11E063E0462E512C8F
:102C7000612C712CA817B90720F010E0412C512CC1
:102C80003201C12CD12C7601C39460C0D501C4019E
:102C90000196A11DB11D8C8B9D8BAE8BBF8B86E0E9
:102CA000EAA5FBA5ACA5B02F01900D928A95E1F79E
:102CB0004E8C5F8C68A079A04AA35BA36CA37DA314
:102CC0006FC04E8C5F8C68A079A0AEA1BFA14D9261
:102CD0005D926D927C921397E8A5F9A51083F1019E
:102CE000EC5FFE4F81E0808332978C918083A8A5B2
:102CF000B9A58C91319680838B89AC960FB6F894E8
:102D0000DEBF0FBECDBFDF91CF911F910F91FF901E
:102D1000EF90DF90CF90BF90AF909F908F907F907B
:102D20006F905F904F903F902F900895BEECBB8BBB
:102D3000E3CFEEECEB8BE0CFFEECFB8BDDCF10E0D6
:102D4000412C512C3201C12CD12C76018F859889D0
:102D5000288D398D8217930708F0B7CF46E0EA8DAA
:102D6000FB8D9E012F5F3F4FD90101900D924A9537
:102D7000E1F7E88DF98D8E1B9F0BAC0170E060E0F0
:102D80004AA35BA36CA37DA353E0452E512C612C79
:102D9000712CB1016F5E7E4F7BA76AA72CA7032F12
:102DA0009E01255F3F4F4C895D896E897F898C8D9F
:102DB0009D8D0E94B5008B849C84AD84BE847FEF82
:102DC00087169706A706B70609F4B0CFD301C2014C
:102DD0000196A11DB11D8E8F9F8FA8A3B9A3D50108
:102DE000C4018C549F4FAF4FBF4F36E0B695A795A7
:102DF000979587953A95D1F7880F991F880F991F56
:102E0000875F9D4F11E0FC0180819181A281B38198
:102E1000892B8A2B8B2B09F410E0812F90E0B0E0F6
:102E2000A0E08C159D05AE05BF0509F082CFD50148
:102E3000C40123E0B695A795979587952A95D1F774
:102E4000B501A4014770552766277727863091057D
:102E5000A105B10508F070CFEA8DFB8DE80FF91FD1
:102E600021E030E001C0220F4A95EAF78081822BF1
:102E700080836A8D7B8DC1010E943D06811139C01E
:102E8000BE01615F7F4FC1010E94B414811131C046
:102E90008F859889288D398DAC01421B530B821781
:102EA000930711F450E040E070E060E0A88DB98D28
:102EB000A817B90708F0EACE8AA19BA1ACA1BDA1D1
:102EC00084179507A607B70708F0FBCEBE016F5F12
:102ED0007F4FC1010E943D0696E0FE013196D1016F
:102EE000AF5EBE4F01900D929A95E1F7882309F4E9
:102EF000ECCE8B8B01CFFC0101900020E9F73197DC
:102F0000AF01481B590BBC018DE294E00C94950273
:102F10008F929F92AF92BF920F931F93CF93DF93A5
:102F2000CDB7DEB7A1970FB6F894DEBF0FBECDBF09
:102F300019A2423008F44AE08E010F5D1F4F842E23
:102F4000912CB12CA12CA50194010E94EE2AE62F10
:102F5000B901CA01EA30F4F4E05DD801EE938D01C5
:102F6000232B242B252B79F790E080E0109719F084
:102F7000CD010E947B17A1960FB6F894DEBF0FBE5D
:102F8000CDBFDF91CF911F910F91BF90AF909F90D8
:102F90008F900895E95CE1CFCF92DF92EF92FF929C
:102FA000CF93DF936B017C016DE28DE294E00E9490
:102FB0006703EC0166277727CB016C197D098E0921
:102FC0009F094AE00E9488178C0F9D1FDF91CF91C7
:102FD000FF90EF90DF90CF900895CF93DF93D0E0F4
:102FE000C0E0009719F00E947B17EC018DE392E09E
:102FF0000E947B178C0F9D1FDF91CF9108959F92A8
:10300000AF92BF92CF92DF92EF92FF920F931F93F6
:10301000CF93DF93CDB7DEB7A0970FB6F894DEBF9E
:103020000FBECDBF6C012FEDC20ED11CF601A080EA
:10303000F7E0F12CAF1609F4EEC0B62E8C0141E09A
:1030400060E80E941506F82E41E06FEFC8010E946B
:103050001506F82A40E060E0C8010E941506F82A2B
:1030600046E06FEFC8010E941506F82AAE01425EE5
:103070005F4F63E8C8010E949D0AF82A4E8D4460A4
:1030800063E8C8010E941506F82A47E06FEFC801FF
:103090000E941506F82A41E061E8C8010E94150661
:1030A000F82A0E948D00F82A41E060E8C8010E94D9
:1030B0001506F82A21E0B212C1C0A0FC02C24BE6FC
:1030C00064E9C8010E941506E82EC8010E94650B3C
:1030D0008E29F82AAE01465E5F4F60E9C8010E9462
:1030E0005909F82A8A8D9B8DAC8DBD8D992EE89457
:1030F00097F897FBEE24E0F844E264E9C8010E94E7
:103100001506F82AC8010E94650BF82AAE01465E32
:103110005F4F60E9C8010E945909F82A8A8D9B8D8A
:103120002C8D3D8D3C8B2D8B9E8B8F8B45E264E9E6
:10313000C8010E941506F82AC8010E94650BF82AEA
:10314000AE01465E5F4F60E9C8010E945909F82A46
:103150008C8D9D8D988F898F40E061E8C8010E9419
:103160001506F82A46E06FEFC8010E941506F82AF6
:10317000AE01425E5F4F63E8C8010E949D0AF82AD3
:103180004E8D4B7F63E8C8010E941506F82A41E086
:103190006FEFC8010E941506F82A41E060E0C801FF
:1031A0000E941506F82A40E06FEFC8010E9415063C
:1031B000F82A40E060E8C8010E941506F82A59F58F
:1031C000F1E0BF1699F0A1FC23C0F801E052FF4FD7
:1031D0008F8D8083319688A18083BE016F5F7F4F82
:1031E000C8018E519F4F0E942C2E12C0A0FC10C00F
:1031F000F801EE5FFE4F90823196E082DE01549638
:103200007496035E1E4F8D9181930E171F07D9F799
:10321000BA28F601B0828F2DA0960FB6F894DEBFC3
:103220000FBECDBFDF91CF911F910F91FF90EF9017
:10323000DF90CF90BF90AF909F900895A1FC41C1C7
:1032400042E064E9C8010E941506E82EC8010E9408
:10325000650B8E29F82AAE01415E5F4F60E9C80117
:103260000E949D0AF82A4BE764E9C8010E941506EE
:10327000F82AC8010E94650BF82AAE01405E5F4F34
:1032800060E9C8010E949D0AF82A47E764E9C8017D
:103290000E941506F82AC8010E94650BF82AAE01A3
:1032A000465E5F4F60E9C8010E945909F82A4A8DBD
:1032B0005B8D6C8D7D8DDB01CA0129E1B695A795EB
:1032C000979587952A95D1F78983DB01CA0132E169
:1032D000B695A795979587953A95D1F78F778A8375
:1032E000DB01CA01EBE0B695A79597958795EA951E
:1032F000D1F78F778B83DB01CA01F4E0B695A795F0
:1033000097958795FA95D1F78F778C83440F440F63
:10331000440F48774E8F48E764E9C8010E941506BC
:10332000F82AC8010E94650BF82AAE01465E5F4F7D
:1033300060E9C8010E945909F82A8A8D9B8DAC8DDD
:10334000BD8DAC01BD012DE17695679557954795EB
:103350002A95D1F72E8D240F2D83AC01BD0136E1C6
:1033600076956795579547953A95D1F74F774E8360
:10337000AC01BD01EFE07695679557954795EA95C5
:10338000D1F74F774F83292F2F772887AC01BD01C5
:1033900076956795579547954F774987982F9295DA
:1033A000990F990F90749E8F49E764E9C8010E94B4
:1033B0001506F82AC8010E94650BF82AAE01465E80
:1033C0005F4F60E9C8010E945909F82A8A8D9B8DD8
:1033D000AC8DBD8DAC01BD012AE176956795579501
:1033E00047952A95D1F72E8D240F2A87AC01BD0170
:1033F00033E176956795579547953A95D1F74F778D
:103400004B87AC01BD01ECE07695679557954795E4
:10341000EA95D1F74F774C87AC01BD01F5E0769581
:10342000679557954795FA95D1F74F774D87982F20
:10343000990F990F9C779E8F4AE764E9C8010E9413
:103440001506F82AC8010E94650BF82AAE01465EEF
:103450005F4F60E9C8010E945909F82A8A8D9B8D47
:10346000AC8DBD8DAC01BD012EE17695679557956C
:1034700047952A95D1F72E8D240F2E87AC01BD01DB
:1034800037E176956795579547953A95D1F74F77F8
:103490004F872A2F2F77288BAC01BD01E9E0769565
:1034A000679557954795EA95D1F74F77498BF2E0A5
:1034B000B695A79597958795FA95D1F78F778A8BCB
:1034C0001B8AE12C912C48CE0F931F93CF93DF934F
:1034D0008C01EB01FC01808191810097E1F0688112
:1034E000798161157105A9F0428153812C813D815B
:1034F0004217530770F00E942C2E8C819D81F80199
:10350000958384831D821C82DF91CF911F910F913F
:1035100008950E94C92C88819981F8019183808344
:103520008A819B81938382838C819D81958384830F
:10353000198218821B821A82E5CFCF93DF93EC01A8
:1035400088819981009711F00E94C92C19821882F4
:103550001D821C821B821A82DF91CF910895FC018B
:1035600080819181009711F00C94C92C08950F93DC
:103570001F93CF93DF93EC0188819981009759F0D5
:103580002A813B812617370730F081E0DF91CF9108
:103590001F910F9108958B016F5F7F4F0E94522DF5
:1035A000009759F0998388831B830A832C813D817E
:1035B000232B59F7FC011082E8CF80E0E7CFEF9290
:1035C000FF920F931F93CF93DF93EC017B018A014E
:1035D000BA010E94B71A81110BC0CE010E949D1A38
:1035E000CE01DF91CF911F910F91FF90EF90089541
:1035F0001D830C83B701888199810E942C2EF0CF06
:10360000CF93DF93EC01FB018617970749F06081A8
:1036100071816115710541F0448155810E94DF1A65
:10362000CE01DF91CF9108950E949D1AF9CFFC0140
:10363000118210821382128215821482FB01019082
:103640000020E9F73197AF01461B570B0C94DF1AA6
:1036500085ED8093BC0080919A0390919B03A0918B
:103660009C03B0919D030796A11DB11D23E0B69563
:10367000A795979587952A95D1F72091BC0024FDB1
:1036800003C01092E303089540919A0350919B0365
:1036900060919C0370919D03452B462B472B69F34A
:1036A0000097A105B10541F02AE22A95F1F700C083
:1036B0000197A109B109E1CF809199030C941904F4
:1036C0001F920F920FB60F9211242F933F938F9357
:1036D0009F93AF93BF938091250490912604A0916E
:1036E0002704B09128043091240423E0230F2D37C0
:1036F00058F50196A11DB11D209324048093250443
:1037000090932604A0932704B09328048091290461
:1037100090912A04A0912B04B0912C040196A11D34
:10372000B11D8093290490932A04A0932B04B09395
:103730002C04BF91AF919F918F913F912F910F904A
:103740000FBE0F901F90189526E8230F0296A11D1B
:10375000B11DD2CF1F920F920FB60F9211242F934B
:103760003F934F935F936F937F938F939F93AF9309
:10377000BF93EF93FF93E0910102F091020209954C
:10378000FF91EF91BF91AF919F918F917F916F9139
:103790005F914F913F912F910F900FBE0F901F900F
:1037A00018951F920F920FB60F9211242F933F93EB
:1037B0004F935F936F937F938F939F93AF93BF9339
:1037C000EF93FF93E091FF01F09100020995FF91C3
:1037D000EF91BF91AF919F918F917F916F915F9189
:1037E0004F913F912F910F900FBE0F901F90189502
:1037F0001F920F920FB60F9211242F933F934F9366
:103800005F936F937F938F939F93AF93BF93EF9348
:10381000FF938DE294E00E944503FF91EF91BF91E9
:10382000AF919F918F917F916F915F914F913F9158
:103830002F910F900FBE0F901F9018951F920F920F
:103840000FB60F9211242F938F939F93EF93FF93B3
:10385000E0913D04F0913E048081E0914304F091B9
:10386000440482FD1BC09081809146048F5F8F735A
:1038700020914704821741F0E0914604F0E0E35DB7
:10388000FB4F958F80934604FF91EF919F918F910D
:103890002F910F900FBE0F901F9018958081F4CF3D
:1038A0001F920F920FB60F9211242F933F934F93B5
:1038B0005F936F937F938F939F93AF93BF93EF9398
:1038C000FF938091B900887F803609F44AC0F0F5F3
:1038D000883209F4A7C018F5803109F49BC0B8F408
:1038E000882309F4F9C0883009F494C0FF91EF915E
:1038F000BF91AF919F918F917F916F915F914F9108
:103900003F912F910F900FBE0F901F901895883107
:1039100009F488C0803251F78093E20314C08034E8
:1039200009F49DC040F48033B9F38833F9F68093ED
:10393000E20385ECB0C0803509F485C0883509F410
:1039400096C0883499F60E94281BD0CF883909F494
:103950008CC038F5883729F050F4883611F080375C
:1039600029F683E08093E3031092E10357C088387F
:1039700009F47BC0803919F0803809F0B7CF809105
:10398000E103803208F071C0E091E10381E08E0F25
:103990008093E1038091BB00F0E0EF53FC4F808304
:1039A0003DC0803B39F0E0F4803A09F479C0883AB0
:1039B00009F09CCF84E08093E3031092C00310923F
:1039C000BF03E0910B04F0910C0409958091BF03B3
:1039D00081110FC081E08093BF0310929F0309C043
:1039E000803C09F4A6CF883C09F4A3CF883B09F0BA
:1039F0007DCFE091C00381E08E0F8093C003F0E0A3
:103A0000E156FC4F80818093BB009091C003809170
:103A1000BF0329C0809108048093BB0085EC80938C
:103A2000BC0064CF9091070480910604981758F564
:103A3000E091070481E08E0F80930704F0E0EA51E3
:103A4000FC4F8081E9CFE091070481E08E0F8093E5
:103A500007048091BB00F0E0EA51FC4F8083909115
:103A60000704809106049817C8F285E8D8CFE09142
:103A7000070481E08E0F809307048091BB00F0E083
:103A8000EA51FC4F80838091E50381115CCF81E096
:103A90008093E40384EA8093BC001092E30326CF72
:103AA00085EC8093BC001092E3038091E1038032A7
:103AB00030F4E091E103F0E0EF53FC4F10826091AD
:103AC000E10370E0E0910904F0910A0481EC93E0D5
:103AD00009951092E1030ACF1092E20334CF1F92AE
:103AE0000F920FB60F9211242F933F938F939F93B2
:103AF000EF93FF938091560387FF1FC010928500BC
:103B000010928400809156038F5F809356038091BA
:103B1000560387FF04C0809156038C30ACF080912F
:103B2000840090918500049680349C4990F18091A6
:103B300084009091850004962EC08091560387FFE3
:103B4000E1CF80915603DECF209184003091850033
:103B5000E09156038E2FEE0F990BFC01EE0FFF1F25
:103B6000E80FF91FEE5CFC4F81819281820F931F59
:103B7000909389008093880080915603FF91EF9184
:103B80009F918F913F912F910F900FBE0F901F909B
:103B9000189580E49CE990938900809388008FEFCA
:103BA00080935603EBCFEF92FF920F931F93CF9327
:103BB000DF9300D000D000D0CDB7DEB7EDE2F4E067
:103BC0001382128288EE93E0A0E0B0E084839583B4
:103BD000A683B7832DE132E03183208325EC30E0EA
:103BE0003587248724EC30E03787268720EC30E0C7
:103BF000318B208B21EC30E0338B228B22EC30E0B8
:103C0000358B248B26EC30E0378B268B118E128E71
:103C1000138E148EEAECF4E013821282848395836F
:103C2000A683B7838FE292E09183808360E472E0A1
:103C3000CE0101960E94171B6FE372E08DEB96E0B8
:103C40000E94171B0AEB16E085E0D8018C9386E0F2
:103C500011968C93119782E012968C93BE016F5F40
:103C60007F4F8DEB96E00E94001BF80111861286B3
:103C700013861486118A128A138A148A128E118E60
:103C8000148E138E168A158AEE24E394F12CF08E8E
:103C9000E78ACE0101960E94AF1A6AE472E0CE0173
:103CA00001960E94171B6FE372E080EA96E00E9483
:103CB000171B0DE916E08AE0F80180838BE0818311
:103CC00083E08283BE016F5F7F4F80EA96E00E94AF
:103CD000001BD80119961D921D921D921C921C97D3
:103CE000F801118A128A138A148A128E118E148E88
:103CF000138E168A158AF08EE78ACE0101960E94ED
:103D0000AF1A87EC91E0E6EDF4E0DF019C011D9233
:103D100021503040E1F787ED94E090931F068093A7
:103D20001E0626960FB6F894DEBF0FBECDBFDF91FC
:103D3000CF911F910F91FF90EF900895CF93DF9354
:103D4000CDB7DEB7CC55D1090FB6F894DEBF0FBEA4
:103D5000CDBF789484B5826084BD84B5816084BD14
:103D600085B5826085BD85B5816085BD80916E0019
:103D7000816080936E00109281008091810082604A
:103D80008093810080918100816080938100809187
:103D900080008160809380008091B1008460809376
:103DA000B1008091B00081608093B00080917A0072
:103DB000846080937A0080917A00826080937A0098
:103DC00080917A00816080937A0080917A00806887
:103DD00080937A001092C100E0913D04F0913E047E
:103DE00082E08083E0913904F0913A041082E091FE
:103DF0003B04F0913C0480E1808310924504E09103
:103E00004104F091420486E08083E0913F04F09108
:103E10004004808180618083E0913F04F091400400
:103E2000808188608083E0913F04F091400480812C
:103E300080688083E0913F04F091400480818F7D11
:103E400080838AEB96E00E945C078DE996E00E94F1
:103E50005C078091BC06823009F43FC1833009F0D1
:103E60003EC181E06AE676E00E94360180919F06BD
:103E7000823009F436C1833009F035C181E06CE548
:103E800076E00E94360184E690E0A0E0B0E0809306
:103E9000F3019093F401A093F501B093F6018093A0
:103EA000F7019093F801A093F901B093FA018AE029
:103EB00090E0A0E0B0E08093FB019093FC01A09320
:103EC000FD01B093FE01E0911E06F0911F06EF5B2D
:103ED000FE4F89E28083E0911E06F0911F06EE5BA3
:103EE000FE4F81E08083E0911E06F0911F06ED5B9E
:103EF000FE4F80E991E091838083E0911E06F0916E
:103F00001F06EB5BFE4F8AEC94E091838083109256
:103F1000100410920F0410920E0410920D040E94CF
:103F2000FB0381E992E090930C0480930B0482E9F7
:103F300092E090930A048093090421E04EEF69E82F
:103F400087ED94E00E944C0A811106C040E068E8C9
:103F500087ED94E00E941506AE01455C5F4F60EC72
:103F600087ED94E00E949D0A1092B60588EE93E0DA
:103F7000909311068093100680E991E090931306C8
:103F80008093120685E89BE6A1E0B0E080931406DA
:103F900090931506A0931606B093170684EA90E74F
:103FA000A9E0B0E080939F059093A005A093A105A0
:103FB000B093A2051092F4041092F5041092F60446
:103FC0001092F7049E012F5F3F4F64963FAF2EAFD4
:103FD0006497B90187ED94E00E94D30D082F8111F9
:103FE0000BC019821A828AE3FE013196A7EEB4E073
:103FF00001900D928A95E1F784E690E09093F9059F
:104000008093F80584E893E09093FB058093FA058C
:1040100084EF91E09093FD058093FC0580E09AE0A9
:10402000909300068093FF0581E080930F0641E0A6
:1040300060E887ED94E00E941506182F41E06FEFCD
:1040400087ED94E00E941506182B102B40E060E0ED
:1040500087ED94E00E941506182BAE014F5B5F4F71
:1040600061E987ED94E00E949D0A182B22968FAD9E
:1040700022978093FE0541E060E087ED94E00E9486
:104080001506182B40E06FEF87ED94E00E941506AF
:10409000182B40E060E887ED94E00E941506912F10
:1040A000982BF6EDCF2EF4E0DF2E10E000E0FF2499
:1040B000F39491119FC10330110509F4A5C0ACF42C
:1040C0000130110509F10230110509F49AC0F0928E
:1040D000FC04F601F6A280E02DC080E0C3CE8FEF95
:1040E000C1CE80E0CCCE8FEFCACE0430110509F4EA
:1040F0008EC020E04FEE0530110549F760E687EDF0
:1041000094E00E944C0A14C040910C0550910D059A
:1041100060910E0570910F05E9E0769567955795CA
:104120004795EA95D1F764E487ED94E00E94EB05AA
:10413000882379F20F5F1F4FFFEFCF1ADF0A982F06
:104140000630110509F0B5CF81116EC01092FE0442
:104150001092FF0422E04EEF60E687ED94E00E94AB
:104160004C0A811161C01092000520E14FEE60E61B
:1041700087ED94E00E944C0A811156C0109201050F
:1041800080E090E0A2E1B0E08093080590930905FB
:10419000A0930A05B0930B058091FD0481113AC0EC
:1041A00080E090E4A0E0B0E080930C0590930D05D2
:1041B000A0930E05B0930F0580E090E0A3E2B0E07D
:1041C0008093100590931105A0931205B0931305E9
:1041D00010921405109215051092160510921705ED
:1041E0008FEF8093F4054FEF61E087ED94E00E943C
:1041F000150691E09093F605811116C01092DB052B
:1042000013C0F092FE0465CFF092FF0462CF20E06D
:104210004EEF74CF40E250E064E487ED94E00E94FA
:10422000EB05882309F4BCCF8093D60449E26AE801
:1042300080911E0690911F060E9415068093D60459
:104240000E9460024B015C016AE0C62ED12CE12C79
:10425000F12C0E946002681979098A099B09683E5D
:10426000734081059105A8F321E0C21AD108E10845
:10427000F10838EE830E33E0931EA11CB11CC1146B
:10428000D104E104F10429F78091D6048111B4C06E
:10429000E0911E06F0911F06EF5BFE4F89E28083DE
:1042A00062E087ED94E00E94FF17882309F4A9C01B
:1042B0008093D60481110BC080918106813021F456
:1042C00080918206813019F08BEF8093D604809123
:1042D000D6048111F4C060901E0670901F062996C6
:1042E0001FAE1EAE299760961FAE60972F961FAE29
:1042F0002F9725961CAE1DAE1EAE1FAE259761E012
:10430000C3010E94FF17F301EE5FFE4F4080A42C13
:10431000B12CD12CC12C3196508051E0551508F4A8
:10432000BFC05512B6C081E2A816B104C104D104C1
:1043300008F0B6C041E06FEFC3010E94150681117D
:104340001AC040E06FE4C3010E941506811113C03A
:104350004CE26EE4C3010E94150681110CC040E0DE
:104360006FEFC3010E941506811105C044EB66EB97
:10437000C3010E94150693012F5E3E4FF901108282
:1043800031961082319610823196108231961082C9
:1043900031961082E12CF12C8701552009F47AC165
:1043A000D801C7018C549F4FAF4FBF4F46E0B69521
:1043B000A795979587954A95D1F7880F991F880FEC
:1043C000991F875F9D4FFC0180819181A281B381FC
:1043D000892B8A2B8B2B09F05DC1FCE2EF16F104CF
:1043E0000105110509F456C14FEFE41AF40A0F4F05
:1043F0001F4FD6CF892F18CF85E592E00E94ED1789
:10440000FFCF8091B70581112CC06FE372E080E689
:1044100096E00E942C2E67E772E080E296E00E9410
:104420002C2E60EB72E080E496E00E942C2E40E897
:1044300056E060EC87ED94E00E949D0A811138CF30
:10444000AE014F5F5F4F62EC87ED94E00E949D0AE2
:1044500091E090938106998192959F709093820646
:1044600027CF1091B80569EB75E080E696E00E94D1
:104470002C2E112381F2133238F463E872E01032EB
:1044800061F66FE872E0C9CF6BE972E0173228F687
:10449000F8CF9DE0A916B104C104D10408F44ACFB5
:1044A000AE01425B5F4FBE016F5B7F4FC3010E9455
:1044B0000B15982E992009F403C19092D60480918F
:1044C000D60481110EC0AE01495B5F4FBE016F5F24
:1044D0007F4F80911E0690911F060E940B158093BE
:1044E000D6048091D60481110FC021E0AE01455C55
:1044F0005F4FBE016F5B7F4F80911E0690911F063C
:104500000E940F118093D6048091D604811174CF3C
:10451000E0911E06F0911F06108AE0911E06F091B0
:104520001F06FF24F394F5A200911E0610911F06AA
:10453000F80145A956A967A970AD29E07695679558
:10454000579547952A95D1F764E4C8010E94EB0579
:10455000811102C0F801F6A28093D60481114CCFDC
:10456000E0911E06F0911F0681E080A7E0911E06F3
:10457000F0911F06FD9684ED98E0A0E0B0E0808306
:104580009183A283B3838091D604811135CF109299
:104590002304109222041092CB061092CC061092A3
:1045A000CD061092CE061092D0061092CF06109231
:1045B000AE061092AF061092B0061092B10610929D
:1045C000B3061092B2068EE00E947B018C018FE050
:1045D0000E947B0120911D04222309F44AC28AEB28
:1045E00096E00E94BF068DE996E00E94BF069E01FC
:1045F000215E3F4F62963FAF2EAF629766246A946A
:10460000762CAE014F5F5F4F4A018A016FE372E083
:10461000C8010E94171B0A5F1F4F62968EAD9FADA7
:1046200062978017910791F78DE294E00E9425032D
:10463000892B09F4E4C26FE372E0CE01895B9F4FDE
:104640000E94171B0E94E5022D960EAD1FAD2D97FF
:1046500097FD63C28BAF1CAE0F5F1F4FB801CE0139
:10466000895B9F4F0E94B71A882361F329962EAD6C
:104670003FAD29972D968EAD9FAD2D97BE01655C00
:104680007F4F820F931F0E942C2E2D961FAF0EAFCF
:104690002D97D8CFCE0101964C01A301495E5E4F04
:1046A000652DC3010E947408982E811103CF81E00B
:1046B000F301EC5FFE4F8083329740823196508247
:1046C000F301E85CFE4F80818111CDC53297A08057
:1046D000B18030E020E023014BEB441A4EEF540A46
:1046E00013015FEB251A5EEF350AC3018D5D9E4F06
:1046F00066969FAF8EAF6697F301EF5DFE4F6996AA
:10470000FFAFEEAF6997A3014B5D5E4F6B965FAF56
:104710004EAF6B9705966D969FAF8EAF6D9703C0AA
:10472000FCEF9F2E9601F501E20FF31F008100239D
:1047300009F488C09110C1CE69019FEFC91AD90A46
:10474000D501AC0DBD1D6C910F3F09F04DC0690145
:1047500042E0C40ED11CD501AC0DBD1D8C91613061
:1047600029F198F0623089F16330D1F6690144E0B3
:10477000C40ED11C238190E0982F8827820F911DB1
:104780006D96EEADFFAD6D970EC0690154E0C50E9C
:10479000D11C238190E0982F8827820F911D699664
:1047A000EEADFFAD699791838083BCCF690144E092
:1047B000C40ED11C238190E0982F8827820F911D71
:1047C0006696EEADFFAD6697EECF690144E0C40E8C
:1047D000D11C238190E0982F8827820F911D6B9622
:1047E000EEADFFAD6B97DFCF053008F099CF2E5FB0
:1047F0003F4FD501A20FB31FFE013196C02ED12C21
:10480000CF0164964EAD5FAD6497841B950B8C15FC
:104810009D051CF48D918193F3CFC20ED31EF2013E
:10482000E080F18010E030E020E0AE014F5F5F4FAC
:10483000F10180810E94AA05892B09F473CFECEE67
:104840009E2E70CF911039CE44E06AE0C3010E94E1
:104850001506982E811131CE20E04FEE64E8C30199
:104860000E944C0A982E811128CE84E0F301E25375
:10487000FF4F8083C3010E94BA0A982E81111DCE7A
:1048800041E06FEFC3010E941506982EAE01495B0F
:104890005F4F64E8C3010E94A209982A40E06FEFCD
:1048A000C3010E941506982A09F007CEF301E853C8
:1048B000FF4F29968EAD9FAD299734E0880F991F41
:1048C0003A95E1F7B0E0A0E080839183A283B383BF
:1048D000BE016F5F7F4FC3010E94D30D982E8111DF
:1048E000ECCDAE01415B5F4F69E0C3010E949D0AC0
:1048F000982E8111E2CD60968FAD609781706096A1
:104900008FAF6097F301E25EFE4F80838AE3FE0182
:104910003196D301509601900D928A95E1F7AE0140
:10492000415B5F4F61E0C3010E949D0A982E811197
:10493000C4CD8301035E1E4F60968FAD6097F80172
:1049400080831BAEAE01455C5F4F61E0C3010E94F6
:104950009D0A982E8BAD9110B0CDF82EE894F4F806
:1049600084FF12C04F2D61E0C3010E941506982EEE
:104970008111A3CDF801F082F30142895389648942
:104980007589C3010E94920F1BAEAE01455C5F4F5B
:1049900061E0C3010E949D0A982E8BAD91108DCDD0
:1049A000F82EE894F2F882FF12C04F2D61E0C301A7
:1049B0000E941506982E811180CDF801F082F30136
:1049C0004289538964897589C3010E94920F83E0EB
:1049D000F301E15EFE4F8083AE01435B5F4F60E019
:1049E000C3010E94460B982E811167CD2E968FAD84
:1049F0002E97F301E852FF4F8083AE01435B5F4F78
:104A000061E0C3010E94460B982E811156CD2E966F
:104A10008FAD2E97F301ED52FF4F8083AE01455CC1
:104A20005F4F63E0C3010E947C0D982E811145CD3C
:104A30008BAD9CADADADBEADF301EC52FF4F8083AD
:104A40009183A283B383AE01455C5F4F64E0C301F1
:104A50000E947C0D982E811130CDF301E153FF4F60
:104A60008BAD9CADADADBEAD80839183A283B3838E
:104A700024CD012B09F1892BC9F140E050E060E71A
:104A800072E44093CB065093CC066093CD067093AE
:104A9000CE0681E090E09093D0068093CF064093BD
:104AA000AE065093AF066093B0067093B106909334
:104AB000B3068093B2069BCD892B09F490CD80E09C
:104AC00090E0A0EFB1E48093CB069093CC06A09346
:104AD000CD06B093CE0681E090E09093D00680930F
:104AE000CF0640E050E060E772E4D9CF80E090E08C
:104AF000A0E7B2E48093CB069093CC06A093CD06BA
:104B0000B093CE0681E090E09093D0068093CF06DC
:104B100040E050E060EF71E4C2CF2996CEACDFAC4C
:104B20002997C114D10429F076010115110509F066
:104B30004AC22D968EAD9FAD2D97892B09F424C3C3
:104B400088EB92E00E947B172D964EAD5FAD2D97BE
:104B500029966EAD7FAD29978DE294E00E94950273
:104B60008DE392E00E947B1723961FAE1EAE239723
:104B700025961FAE1EAE259727961FAE1EAE279711
:104B8000BE01695B7F4FCE018F5B9F4F0E94001B70
:104B9000B12CA12C27968EAD9FAD2797892B81F044
:104BA0002396EEACFFAC23976AE370E0C7010E9446
:104BB000182E009729F08C010E191F0917FF3FC20C
:104BC00026E02A9DC0012B9D900D1124BE016F5B34
:104BD0007F4F21E030E02C0F3D1F820F931F0E947A
:104BE000001BCE018F5B9F4F0E94AF1A41E067967A
:104BF0004FAF6797CE01895B9F4F0E94AF1A6796B0
:104C00005FAD6797552309F480C08D819E81892B04
:104C100009F47BC06BEC72E089819A810E94232E9B
:104C2000892B09F072C08F819885009709F4B0C272
:104C30000E9440294B018D859E85009709F4ACC2E6
:104C40000E9440296B0182E090E0909323048093BE
:104C50002204092C000CAA08BB08C501B4010E945B
:104C60008C291B012C0120E030E0A9010E94FE2BC1
:104C700018160CF095C22092CB063092CC064092CA
:104C8000CD065092CE0681E090E09093D0068093BE
:104C9000CF060D2C000CEE08FF08C701B6010E94DC
:104CA0008C291B012C0120E030E0A9010E94FE2B81
:104CB00018160CF09CC22092AE063092AF064092BD
:104CC000B0065092B10681E090E09093B3068093D5
:104CD000B20684ED92E00E947B17B7FEAFC2C50119
:104CE000B4010E94CC178DE392E00E947B178CEEFA
:104CF00092E00E947B17F7FEA7C2C701B6010E948F
:104D0000CC178DE392E00E947B17CE0149960E945A
:104D1000AF1ACE0143960E94AF1ACE010D960E94A3
:104D2000AF1ACE0107960E94AF1ACE0101960E94DB
:104D3000AF1A0E9485028090F3019090F401A09038
:104D4000F501B090F6010091110410911204209128
:104D5000130430911404AB01BC01401B510B620BD6
:104D6000730B481559056A057B0508F484C0C0908B
:104D7000C306D090C406E090C506F090C606B40104
:104D8000990C880B990B0E948C294B015C01C7017F
:104D9000B6010E948A2920E030E040EA51E40E94F6
:104DA0008C2B20E030E64AE657E40E94EB29A5016F
:104DB00094010E948C2B6093C7067093C806809361
:104DC000C9069093CA061092C3061092C4061092A8
:104DD000C5061092C6066091A6067091A70680913E
:104DE000A8069091A9060E948A2920E030E040EAB6
:104DF00051E40E948C2B20E030E64AE657E40E9402
:104E0000EB29A50194010E948C2B6093AA06709354
:104E1000AB068093AC069093AD061092A606109256
:104E2000A7061092A8061092A90664E876E0809181
:104E30001E0690911F060E94841180919C0684306A
:104E400009F408C280918C0690918D068F3F9807D7
:104E500009F400C28C3291400CF0FCC181E08093D7
:104E60001D040E94850260931104709312048093C4
:104E70001304909314040E9485020091150410916C
:104E800016042091170430911804601B710B820BDB
:104E9000930B0091F7011091F8012091F9013091E5
:104EA000FA01601771078207930790F08AEB96E08A
:104EB0000E9478068DE996E00E9478060E9485029D
:104EC000609315047093160480931704909318044C
:104ED0000E9485020091190410911A0420911B046C
:104EE00030911C04601B710B820B930B0091FB0132
:104EF0001091FC012091FD013091FE0160177107B6
:104F00008207930790F08AEB96E00E94F6068DE9FF
:104F100096E00E94F6060E94850260931904709341
:104F20001A0480931B0490931C040E948502009134
:104F30001E0410911F042091200430912104601B55
:104F4000710B820B930B683E73408105910508F14C
:104F50008EE00E947B01892B09F07FC185E093E000
:104F60000E94ED1780E293E00E947B1780911D0460
:104F7000882309F475C18BE293E00E94ED170E942B
:104F8000850260931E0470931F0480932004909305
:104F9000210470922304609222048AEB96E00E941E
:104FA000BF068DE996E00E94BF0680E090E0892B65
:104FB00009F427CB0E943103882309F422CB0E94F5
:104FC00000001FCB750157019FEFA91AB90AF7011D
:104FD0008081082E000C990B0E947C29892B91F767
:104FE000015011090C0D1D1DF8018081082E000CC7
:104FF000990B0E947C29892B31F00E151F0518F0A2
:1050000001501109F1CF0F5F1F4FA8014E195F0921
:105010002D965FAF4EAF2D97CE14DF0420F4B7016D
:10502000C6010E940F2E2996EEADFFAD29972D9651
:105030008EAD9FAD2D97E80FF91F10827ACD6FE3EB
:1050400072E0CE01CB960E94171B27968EAD9FADC6
:105050002797009749F178018017910708F47C01A0
:105060002396EEADFFAD2397EE0DFF1DD08010828D
:1050700023966EAD7FAD23976115710509F47AC053
:10508000FB0101900020E9F73197AF01461B570B58
:10509000CE01CB960E94DF1A23968EAD9FAD23974B
:1050A000E80EF91EF701D082BE01655C7F4FC40196
:1050B0000E94641ACE01CB960E94AF1A0F5F1F4F59
:1050C0002796CEACDFAC2797C016D10628F09C2DD2
:1050D0008D2D6801092F182F6FE372E0CE01CB965A
:1050E0000E94171B2796EEACFFAC2797CE14DF0467
:1050F00048F50E151F0508F478012396EEADFFADB7
:105100002397EE0DFF1D1081108223966EAD7FADAB
:1051100023976C0D7D1D6115710589F1FB010190CF
:105120000020E9F73197AF01461B570BCE01CB9614
:105130000E94DF1A23968EAD9FAD2397E80EF91ECD
:10514000F7011083BE01655C7F4FCE018F5B9F4FDF
:105150000E94641ACE01CB960E94AF1AFFEFAF1ADD
:10516000BF0A26E0820E911C35E0A316B10409F0B7
:1051700011CD37CDCE01CB960E949D1A8DCFCE0199
:10518000CB960E949D1AD6CF67961FAE679732CDF9
:1051900060E070E0CB014ECD60E070E0CB0152CD1D
:1051A00020E030E0A901C201B1010E94852987FFFA
:1051B00011C057FA509457F850942092CB06309271
:1051C000CC064092CD065092CE067092D0066092E8
:1051D000CF065FCD1092CB061092CC061092CD0672
:1051E0001092CE061092D0061092CF0652CD20E03B
:1051F00030E0A901C201B1010E94852987FF11C0D9
:1052000057FA509457F850942092AE063092AF0659
:105210004092B0065092B1067092B3066092B20608
:1052200058CD1092AE061092AF061092B0061092B2
:10523000B1061092B3061092B2064BCD4AE0C501FA
:10524000B4010E9488174FCD4AE0C701B6010E9401
:10525000881757CD10921D0404CE82E193E080CED2
:105260008FE293E08ACE80E0A82E81E0B82E31CA8A
:1052700080EA96E00E94AF1A8DEB96E00C94AF1A8C
:105280001F93FC0199278827BC01E89411911032E3
:10529000E9F3193010F01E30C8F31B3251F01D3203
:1052A00049F4689406C00E946729610F711D811D31
:1052B000911D119110531A30B0F33EF490958095E2
:1052C000709561957F4F8F4F9F4F1F910895592F74
:1052D000482F372F262F660F771F881F991F660FBD
:1052E000771F881F991F620F731F841F951F660FFA
:1052F000771F881F991F089591110C94582A8032A6
:1053000019F089508550C8F708950E94C72908F4FC
:1053100081E00895E89409C097FB3EF4909580954C
:10532000709561957F4F8F4F9F4F9923A9F0F92F6B
:1053300096E9BB279395F695879577956795B795E9
:10534000F111F8CFFAF4BB0F11F460FF1BC06F5FCF
:105350007F4F8F4F9F4F16C0882311F096E911C0E1
:10536000772321F09EE8872F762F05C0662371F002
:1053700096E8862F70E060E02AF09A95660F771F16
:10538000881FDAF7880F9695879597F90895990FF2
:105390000008550FAA0BE0E8FEEF16161706E807FF
:1053A000F907C0F012161306E407F50798F0621B20
:1053B000730B840B950B39F40A2661F0232B242BF5
:1053C000252B21F408950A2609F4A140A6958FEF14
:1053D000811D811D08950E94FE290C94722A0E944D
:1053E000642A38F00E946B2A20F0952311F00C9467
:1053F0005B2A0C94612A11240C94A62A0E94832A09
:1054000070F3959FC1F3950F50E0551F629FF00117
:10541000729FBB27F00DB11D639FAA27F00DB11D30
:10542000AA1F649F6627B00DA11D661F829F2227B9
:10543000B00DA11D621F739FB00DA11D621F839F40
:10544000A00D611D221F749F3327A00D611D231F16
:10545000849F600D211D822F762F6A2F11249F5764
:1054600050409AF0F1F088234AF0EE0FFF1FBB1F67
:10547000661F771F881F91505040A9F79E3F510526
:1054800080F00C945B2A0C94A62A5F3FE4F3983ECC
:10549000D4F3869577956795B795F795E7959F5FD0
:1054A000C1F7FE2B880F911D9695879597F9089562
:1054B00099278827089597F99F6780E870E060E052
:1054C00008959FEF80EC089500240A94161617069D
:1054D00018060906089500240A94121613061406E5
:1054E00005060895092E0394000C11F4882352F048
:1054F000BB0F40F4BF2B11F460FF04C06F5F7F4F00
:105500008F4F9F4F089557FD9058440F551F59F0E6
:105510005F3F71F04795880F97FB991F61F09F3FA0
:1055200079F087950895121613061406551FF2CFC9
:105530004695F1DF08C0161617061806991FF1CF19
:1055400086957105610508940895E894BB27662740
:105550007727CB0197F908950E94102BA59F900DF6
:10556000B49F900DA49F800D911D112408952F923A
:105570003F924F925F926F927F928F929F92AF92E3
:10558000BF92CF92DF92EF92FF920F931F93CF9330
:10559000DF93CDB7DEB7CA1BDB0B0FB6F894DEBFC7
:1055A0000FBECDBF09942A88398848885F846E84ED
:1055B0007D848C849B84AA84B984C884DF80EE8037
:1055C000FD800C811B81AA81B981CE0FD11D0FB640
:1055D000F894DEBF0FBECDBFED010895A1E21A2EF3
:1055E000AA1BBB1BFD010DC0AA1FBB1FEE1FFF1F87
:1055F000A217B307E407F50720F0A21BB30BE40BD7
:10560000F50B661F771F881F991F1A9469F760951D
:105610007095809590959B01AC01BD01CF010895D7
:10562000A29FB001B39FC001A39F700D811D1124E3
:10563000911DB29F700D811D1124911D0895505828
:10564000BB27AA270E94372B0C94722A0E94642A37
:1056500038F00E946B2A20F039F49F3F19F426F4A9
:105660000C94612A0EF4E095E7FB0C945B2AE92F79
:105670000E94832A58F3BA176207730784079507B5
:1056800020F079F4A6F50C94A52A0EF4E0950B2EE3
:10569000BA2FA02D0B01B90190010C01CA01A00184
:1056A0001124FF27591B99F0593F50F4503E68F1DF
:1056B0001A16F040A22F232F342F4427585FF3CF20
:1056C000469537952795A795F0405395C9F77EF4F1
:1056D0001F16BA0B620B730B840BBAF09150A1F03A
:1056E000FF0FBB1F661F771F881FC2F70EC0BA0FC0
:1056F000621F731F841F48F4879577956795B79548
:10570000F7959E3F08F0B0CF9395880F08F0992742
:10571000EE0F9795879508950E94A02B0C94722AFE
:105720000E946B2A58F00E94642A40F029F45F3FDF
:1057300029F00C945B2A51110C94A62A0C94612A2E
:105740000E94832A68F39923B1F3552391F3951BA3
:10575000550BBB27AA2762177307840738F09F5F92
:105760005F4F220F331F441FAA1FA9F335D00E2EFF
:105770003AF0E0E832D091505040E695001CCAF76C
:105780002BD0FE2F29D0660F771F881FBB1F26172F
:1057900037074807AB07B0E809F0BB0B802DBF0106
:1057A000FF2793585F4F3AF09E3F510578F00C94D5
:1057B0005B2A0C94A62A5F3FE4F3983ED4F38695C7
:1057C00077956795B795F7959F5FC9F7880F911DF6
:1057D0009695879597F90895E1E0660F771F881FE2
:1057E000BB1F621773078407BA0720F0621B730B95
:1057F000840BBA0BEE1F88F7E09508950E94C72925
:1058000008F48FEF0895DB018F939F930E94AC2AD9
:10581000BF91AF91A29F800D911DA39F900DB29F4C
:10582000900D11240895AA1BBB1B51E107C0AA1FAC
:10583000BB1FA617B70710F0A61BB70B881F991F31
:105840005A95A9F780959095BC01CD010895EE0F6A
:10585000FF1F0590F491E02D09940F931F93CF93B0
:10586000DF938230910510F482E090E0E091D90658
:10587000F091DA0630E020E0B0E0A0E0309799F453
:105880002115310509F44AC0281B390B2430310594
:10589000D8F58A819B816115710589F1FB0193839C
:1058A0008283FE0111C0408151810281138148171A
:1058B0005907E0F04817590799F4109761F01296CC
:1058C0000C93129713961C933296CF01DF91CF91D0
:1058D0001F910F9108950093D9061093DA06F4CF23
:1058E0002115310551F04217530738F0A901DB01AA
:1058F0009A01BD01DF01F801C1CFEF01F9CF90930B
:10590000DA068093D906CDCFFE01E20FF31F819313
:1059100091932250310939832883D7CF2091D7061C
:105920003091D806232B41F42091050230910602D4
:105930003093D8062093D7062091030230910402B9
:105940002115310541F42DB73EB740910702509122
:105950000802241B350BE091D706F091D806E21718
:10596000F307A0F42E1B3F0B2817390778F0AC0182
:105970004E5F5F4F2417350748F04E0F5F1F50935F
:10598000D8064093D706819391939FCFF0E0E0E053
:105990009CCFCF93DF930097E9F0FC0132971382FD
:1059A0001282A091D906B091DA06ED0130E020E034
:1059B0001097A1F420813181820F931F2091D70687
:1059C0003091D8062817390709F061C0F093D8063E
:1059D000E093D706DF91CF910895EA01CE17DF0754
:1059E000E8F54A815B819E0141155105B1F7E90156
:1059F000FB83EA8349915991C40FD51FEC17FD072A
:105A000061F4808191810296840F951FE901998349
:105A10008883828193819B838A83F0E0E0E0129601
:105A20008D919C9113970097B9F52D913C91119709
:105A3000CD010296820F931F2091D7063091D80690
:105A40002817390739F6309751F51092DA06109277
:105A5000D906B093D806A093D706BCCFD383C28310
:105A600040815181840F951FC817D90761F44E5F9B
:105A70005F4F88819981480F591F518340838A81E4
:105A80009B81938382832115310509F0B0CFF09378
:105A9000DA06E093D9069ECFFD01DC01C0CF138268
:105AA0001282D7CFB0E0A0E0E8E5FDE20C94B92A7D
:105AB0008C01009751F4CB010E942D2C8C01C80160
:105AC000CDB7DEB7E0E10C94D52AFC01E60FF71F55
:105AD0009C0122503109E217F30708F49DC0D90157
