:020000040000FA
:100000000C942D010C94C0090C9499090C94550181
:100010000C9455010C9455010C9455010C94550108
:100020000C9455010C9455010C9455010C945501F8
:100030000C9455010C9455010C9455010C945501E8
:100040000C944F090C9455010C940D0A0C94E7097B
:100050000C9455010C9455010C9455010C945501C8
:100060000C943F0A0C9455014E414E494E49545947
:10007000494E46CDCCCC3D0AD7233C17B7D1387773
:10008000CC2B329595E6241FB14F0A000020410089
:1000900000C84200401C4620BCBE4CCA1B0E5AAED3
:1000A000C59D7441726475696E6F204F4E4C494E08
:1000B000450041726475696E6F20426F6F74696E9E
:1000C000672E2E2E00436F6D6D616E642072656326
:1000D00065697665643A200049524348414E474578
:1000E000443A0043616E27742066696E6420746828
:1000F0006520706F6C696379005475726E696E6704
:1001000020726967687420736F66746C7900547527
:10011000726E696E67206C65667420736F66746CAE
:1001200079005475726E696E672072696768740031
:100130005475726E696E67206C65667400476F69EE
:100140006E672073747261696768740043757272B8
:10015000656E7420747261636520706F6C69637979
:100160003A20006E6F00796573004F6273746163AB
:100170006C653F2000202D2000202D20006F6E2D6B
:100180006C696E653F3A2000202F206375725F52C4
:10019000504D2000202F207467745F64757479209F
:1001A00000526967687420776865656C3A206375EA
:1001B000725F647574792000202F206375725F521E
:1001C000504D2000202F207467745F64757479206F
:1001D000004C65667420776865656C3A20637572BB
:1001E0005F64757479200044726976656D6F64652B
:1001F0003A20003D3D3D3D3D3D3D3D3D3D00000043
:100200000000240027002A0000000000250028002C
:100210002B00000000002300260029000404040431
:1002200004040404020202020202030303030303A0
:10023000010204081020408001020408102001027D
:100240000408102000000008000201000003040759
:1002500000000000000000005A0B11241FBECFEF69
:10026000D8E0DEBFCDBF23E0AAE7B1E001C01D9218
:10027000A339B207E1F711E0A0E0B1E0EAE0F2E370
:1002800002C005900D92AA37B107D9F711E0CDE26F
:10029000D1E004C02197FE010E94CE18CC32D107D4
:1002A000C9F70E945C0C0C9403190C940000823076
:1002B000C8F4E82FF0E0EE0FFF1FEC5EFE4F7183F5
:1002C0006083813041F0809169008C7F82608093EF
:1002D0006900E89A089580916900837F886080931F
:1002E0006900E99A0895833081F028F4813099F00B
:1002F0008230A9F008958730A9F08830C9F08430A1
:10030000B1F4809180008F7D03C0809180008F7751
:1003100080938000089584B58F7784BD089584B557
:100320008F7DFBCF8091B0008F778093B0000895D0
:100330008091B0008F7DF9CFCF93DF93282F30E0ED
:10034000F901EC5BFD4F8491F901E05DFD4FD49123
:10035000F901E45EFD4FC491CC23A1F081110E940C
:100360007301EC2FF0E0EE0FFF1FEE5EFD4FA59145
:10037000B491EC91ED2381E090E009F480E0DF910D
:10038000CF91089580E090E0FACF1F93CF93DF9351
:10039000282F30E0F901EC5BFD4F8491F901E05D1D
:1003A000FD4FD491F901E45EFD4FC491CC23A9F037
:1003B000162F81110E947301EC2FF0E0EE0FFF1F4A
:1003C000E85FFD4FA591B4918FB7F894EC911111AE
:1003D00008C0D095DE23DC938FBFDF91CF911F91B2
:1003E0000895DE2BF8CFCF93DF9390E0FC01E05D22
:1003F000FD4F2491845E9D4FFC0184918823C9F0B8
:1004000090E0880F991FFC01E250FE4FA591B49136
:10041000FC01E85FFD4FC591D49161110DC09FB7FC
:10042000F8948C91209582238C93888128232883AB
:100430009FBFDF91CF910895623051F49FB7F89438
:100440003C91822F809583238C93E8812E2BEFCFD4
:100450008FB7F894EC912E2B2C938FBFEACF1F937C
:10046000CF93DF93182FEB0161E00E94F3012097F7
:1004700039F460E0812FDF91CF911F910C94C50179
:10048000CF3FD10511F461E0F5CFE12FF0E0EC5B57
:10049000FD4FE491E33031F140F4E130B1F0E2306E
:1004A000E1F0C038D1057CF7E4CFE73029F1E8303E
:1004B00059F1E430B1F78091800080628093800030
:1004C000D0938B00C0938A0004C084B5806884BD3B
:1004D000C7BDDF91CF911F91089584B5806284BD1F
:1004E000C8BDF7CF80918000806880938000D09352
:1004F0008900C0938800EDCF8091B0008068809320
:10050000B000C093B300E5CF8091B00080628093CB
:10051000B000C093B400DDCF3FB7F8948091620281
:1005200090916302A0916402B091650226B5A89BE8
:1005300005C02F3F19F00196A11DB11D3FBFBA2F75
:10054000A92F982F8827BC01CD01620F711D811D35
:10055000911D42E0660F771F881F991F4A95D1F7BA
:1005600008950895AF92BF92CF92DF92EF92FF92DB
:100570000F931F93CF93DF936C017B018B01040FCB
:10058000151FEB015E01AE18BF08C017D10759F067
:100590006991D601ED91FC910190F081E02DC601A9
:1005A0000995892B79F7C501DF91CF911F910F91A3
:1005B000FF90EF90DF90CF90BF90AF900895FC0137
:1005C000538D448D252F30E0842F90E0821B930BB8
:1005D000541710F0CF96089501970895FC01918D5E
:1005E000828D981761F0A28DAE0FBF2FB11D5D9661
:1005F0008C91928D9F5F9F73928F90E008958FEF03
:100600009FEF0895FC01918D828D981731F0828DB6
:10061000E80FF11D858D90E008958FEF9FEF08950D
:10062000FC01918D228D892F90E0805C9F4F821B71
:1006300091098F739927089586E692E00E9410032E
:1006400021E0892B09F420E0822F089580E090E0DA
:10065000892B29F00E941C0381110C94000008953D
:10066000FC01A48DA80FB92FB11DA35ABF4F2C9127
:10067000848D90E001968F739927848FA689B7891E
:100680002C93A089B1898C91837080648C93938D15
:10069000848D981306C00288F389E02D80818F7DB8
:1006A00080830895EF92FF920F931F93CF93DF9370
:1006B000EC0181E0888F9B8D8C8D98131AC0E8899E
:1006C000F989808185FF15C09FB7F894EE89FF896D
:1006D0006083E889F98980818370806480839FBF0B
:1006E00081E090E0DF91CF911F910F91FF90EF900B
:1006F0000895F62E0B8D10E00F5F1F4F0F7311271B
:10070000E02E8C8D8E110CC00FB607FCFACFE88955
:10071000F989808185FFF5CFCE010E943003F1CFAA
:10072000EB8DEC0FFD2FF11DE35AFF4FF0829FB7C9
:10073000F8940B8FEA89FB8980818062CFCF0F9379
:100740001F93CF93DF938C01D0E0C0E0F801EC0F52
:10075000FD1F6491662341F086E692E00E945203F9
:10076000892B11F02196F2CFCE01DF91CF911F910D
:100770000F910895682F86E692E00C945203CF9370
:10078000DF93EC01888D8823B9F0AA89BB89E889B9
:10079000F9898C9185FD03C0808186FD0DC00FB65F
:1007A00007FCF7CF8C9185FFF2CF808185FFEDCFDD
:1007B000CE010E943003E9CFDF91CF9108952091BF
:1007C000A101260F3327331F21323105ECF420918C
:1007D000C501FC0190E080E0243069F082E00895DA
:1007E000A091A1012191AC014F575E4FA40FB52FED
:1007F000B11D2C930196861798F38091A101680F83
:100800006093A10180E0089581E0089508958FEF3D
:100810009FEF08958FEF9FEF089580917A0190E008
:100820009195819591090895CF93DF93CB01EA01CA
:10083000642F0E94DF03CE01DF91CF910895CF9303
:10084000DF931F92CDB7DEB7698361E0CE010196D9
:100850000E94DF0381E090E00F90DF91CF91089537
:1008600090E080E008954F925F926F927F928F9216
:100870009F92AF92BF92CF92DF92EF92FF92CF936F
:10088000DF9300D000D000D0CDB7DEB741155105C1
:1008900061057105B1F06A017B019E838D83FC01C6
:1008A000478C50A061A072A020E030E0A901C301F4
:1008B000B2010E940816811119C0ED81FE8112A6B5
:1008C00011A626960FB6F894DEBF0FBECDBFDF91FE
:1008D000CF91FF90EF90DF90CF90BF90AF909F901F
:1008E0008F907F906F905F904F900895C701B601F1
:1008F0000E940D162FE632E143E85AE30E946E167D
:100900004B015C01ED81FE81C388D488E588F688BF
:10091000A7019601C301B2010E94AF172B013C0150
:10092000ED81FE8127A930AD41AD52AD0E94AF17D8
:10093000ED81FE8123A534A545A556A50E946E161E
:1009400069837A838B839C83ED81FE81FF9660812E
:100950007181828193819B01AC010E94B0179B0140
:10096000AC01C701B6010E94AF17ED81FE81ED5BBE
:10097000FF4F20813181428153810E94B017ED8168
:10098000FE8127A530A941A952A950580E946E1690
:10099000A50194010E941C186B017C0120E030E04D
:1009A00040E450EC0E94081687FD8EC020E030E045
:1009B00040E450E4C701B6010E94C41818160CF4B4
:1009C0008AC0ED81FE8123A934A945A956A9C30196
:1009D000B2010E946E16A50194010E946E164B0191
:1009E0005C0120E030E040EA51EC0E94081687FDEF
:1009F00078C020E030E040EA51E4C501B4010E9433
:100A0000C41818160CF474C029813A814B815C819A
:100A1000C501B4010E94B017A70196010E94B0174A
:100A20006B017C0120E030E040E252EC0E940816AD
:100A300087FD65C020E030E040E252E4C701B60126
:100A40000E94C41818160CF461C0ED81FE8123AD1C
:100A500034AD45AD56ADC701B6010E94B0176B016C
:100A60007C0120E030E0A9010E94081687FD55C0F6
:100A700020E030E04FE753E4C701B6010E94C418FC
:100A800018160CF44EC0ED81FE81C3AED4AEE5AEB7
:100A9000F6AEC701B6010E948E18ED81FE8172A7E5
:100AA00061A76F3F710519F014F06FEF70E077FFE9
:100AB00002C070E060E0ED81FE8172A761A747AAE5
:100AC00050AE61AE72AEFDCEC12CD12C60E4E62EEC
:100AD00060ECF62E76CFC12CD12C50E4E52EFE2C06
:100AE00070CF812C912C40EAA42E41ECB42E8CCFF7
:100AF000812C912C30EAA32E31E4B32E85CFC12C6A
:100B0000D12C20E2E22E22ECF22E9FCFC12CD12C50
:100B100090E2E92E92E4F92E98CFC12CD12C7601E7
:100B2000B2CFC12CD12C8FE7E82E83E4F82EABCFC7
:100B30000F931F93CF93DF938C01EB01FC01808116
:100B40001C161D0694F070E060E0209771F00E9482
:100B50002F02662777276C1B7D0BF8018181DF91BF
:100B6000CF911F910F910C942F020E942F0270E0E1
:100B700060E0F3CFCF92DF92EF92FF920F931F933B
:100B8000CF93DF93FC01C3A1D4A1C5A0D6A007A138
:100B900010A5CC15DD05B1F521A532A5201B310B23
:100BA00012161306ECF42B30310514F02AE030E075
:100BB000200F311F30A727A387A190A5C89FB001A0
:100BC000C99F700DD89F700D1124CF01DF91CF9177
:100BD0001F910F91FF90EF90DF90CF900C949805AC
:100BE0002115310549F3263F8FEF380744F0319541
:100BF00021953109021B130B10A707A3DDCF2AE0B3
:100C000030E0F8CF7C0120E030E040EA50E4638936
:100C10007489858996890E94081687FF0CC00A305E
:100C200011054CF4C09FB001C19F700DD09F700D95
:100C30001124C701CBCF0B301105B4F00A501109B4
:100C4000F70110A707A387A190A597FF02C010A6E0
:100C500017A2F70187A190A5C89EB001C99E700D8B
:100C6000D89E700D1124E5CF01501109E9CFCF9323
:100C7000DF93EC011F8E18A219A21AA21CA21BA2BC
:100C800070E060E00E94980518A61FA21BAE1CAE83
:100C90001DAE1EAE1AA619A61FAA18AE19AE1AAE20
:100CA000DF91CF910895CF92DF92EF92FF920F9351
:100CB0001F93CF93DF93EC01F8946B857C858D8532
:100CC0009E850F81188529853A857894611571056F
:100CD0008105910511F10115110521053105E9F095
:100CE000CF84D888E988FA880C151D052E053F05A4
:100CF000A1F00F87188B298B3A8B613422E472079D
:100D00002FE08207910508F441C080E090E0A0E860
:100D1000BFEB8B8F9C8FAD8FBE8FDE01DF964D9129
:100D20005D916D917C911397FE01ED5BFF4F4083C8
:100D30005183628373834B895C896D897E894D936E
:100D40005D936D937C931397F894CF80D884E98456
:100D5000FA84789420E030E0A9016B8D7C8D8D8D34
:100D60009E8D0E94081687FF26C08F89988DA98DB9
:100D7000BA8D8B8B9C8BAD8BBE8BDF91CF911F91EE
:100D80000F91FF90EF90DF90CF9008950E940D1685
:100D900020E030E040EA51E40E946E169B01AC0175
:100DA00060EC71EE84E69CE40E941C186B8F7C8FD3
:100DB0008D8F9E8FB2CF0E948C026C197D098E0997
:100DC0009F09613472448F40910578F68B8D9C8D1C
:100DD000AD8DBE8DCECFCF92DF92EF92FF920F936B
:100DE0001F93CF93DF93EC010E948C020F81188533
:100DF00029853A85012B022B032BB1F00F81188531
:100E000029853A856B017C01C01AD10AE20AF30AEE
:100E100097018601003147E214072105310598F05A
:100E20000B871C872D873E876F83788789879A87F2
:100E30008B819C81AD81BE810196A11DB11D8B83EB
:100E40009C83AD83BE83DF91CF911F910F91FF9063
:100E5000EF90DF90CF9008958AE493E00C94EB0636
:100E600083E093E00C94EB06CF93DF93EC0161E019
:100E700088810E94F30161E089810E94F30162E0B0
:100E80008A81DF91CF910C94F301FC010190002045
:100E9000E9F73197AF01481B590BBC0186E692E098
:100EA0000C94B2028F929F92AF92BF920F931F93B6
:100EB000CF93DF93CDB7DEB7A1970FB6F894DEBF1F
:100EC0000FBECDBF19A2423008F44AE08E010F5D7B
:100ED0001F4F842E912CB12CA12CA50194010E94AE
:100EE0003C17E62FB901CA01EA30F4F4E05DD801FD
:100EF000EE938D01232B242B252B79F790E080E0B6
:100F0000109719F0CD010E944507A1960FB6F894ED
:100F1000DEBF0FBECDBFDF91CF911F910F91BF906C
:100F2000AF909F908F900895E95CE1CFCF93DF93CE
:100F30000E949F03EC018AE291E00E9445078C0F1A
:100F40009D1FDF91CF910895CF92DF92EF92FF9294
:100F5000CF93DF936C01990FEE08FF08F7FE1DC0D9
:100F60008DE20E94BA03EC0166277727CB016C194A
:100F70007D098E099F094AE00E945207C80FD91FB8
:100F80008AE291E00E9445078C0F9D1FDF91CF916F
:100F9000FF90EF90DF90CF9008954AE0C701B6012F
:100FA0000E945207EC01ECCFCF92DF92EF92FF92BA
:100FB000CF93DF936C01990FEE08FF08F7FE17C07F
:100FC0008DE20E94BA03EC0166277727CB016C19EA
:100FD0007D098E099F094AE00E9452078C0F9D1FD0
:100FE000DF91CF91FF90EF90DF90CF9008954AE08E
:100FF000C701B601DF91CF91FF90EF90DF90CF90C6
:101000000C9452074F925F926F927F928F929F92B1
:10101000AF92BF92CF92DF92EF92FF920F931F9306
:10102000CF936B017C01742EAC019B010E94C91807
:10103000882399F08DE291E0CF911F910F91FF905D
:10104000EF90DF90CF90BF90AF909F908F907F9068
:101050006F905F904F900C94450746015701E894BC
:10106000B7F82FEF3FEF4FE75FE7C501B4010E94EC
:10107000C91881110DC02FEF3FEF4FE75FE7C501A2
:10108000B4010E94081618161CF481E391E0D4CF35
:101090002FEF3FEF4FE75FE4C701B6010E94C4188E
:1010A00018161CF485E391E0C7CF2FEF3FEF4FE711
:1010B0005FECC701B6010E94081687FDF3CF20E060
:1010C00030E0A901C701B6010E94081610E000E057
:1010D00087FF08C08DE20E94BA038C01F7FAF094F2
:1010E000F7F8F094C0E060E070E080E09FE37C16E9
:1010F00041F020E030E040E251E40E941C18CF5F54
:10110000F6CFA70196010E94B0172B013C010E9467
:1011100095184B015C014AE00E9452077C01E00EE9
:10112000F11ECC23B1F1C501B4010E940D169B0143
:10113000AC01C301B2010E94AF174B015C018EE20A
:101140000E94BA03E80EF91EC15018F120E030E009
:1011500040E251E4C501B4010E946E162B013C012E
:101160000E9495184B01B12CA12C4AE0C501B40195
:101170000E945207E80EF91EC501B4010E940D1627
:101180009B01AC01C301B2010E94AF174B015C018E
:10119000DBCFC701CF911F910F91FF90EF90DF90B0
:1011A000CF90BF90AF909F908F907F906F905F9007
:1011B0004F9008951F93CF93DF9385ED8093BC00EC
:1011C00080917D0190917E01A0917F01B09180017D
:1011D0000796A11DB11D23E0B695A7959795879514
:1011E0002A95D1F72091BC0024FD03C01092C501BF
:1011F00052C040917D0150917E0160917F017091BC
:101200008001452B462B472B69F30097A105B105BB
:1012100041F02AE22A95F1F700C00197A109B1092E
:10122000E1CF80917C01C1E0C0937B01882399F1DB
:10123000D091B8001091BA008091BC008A7B809355
:10124000BC0060E082E10E94C50160E083E10E9491
:10125000C5011092C501C093C7011092C60161E09B
:1012600082E10E94C50161E083E10E94C501809195
:10127000B9008E7F8093B9008091B9008D7F8093F3
:10128000B90088E48093B80085E48093BC00109393
:10129000BA00D093B800DF91CF911F9108951F92AB
:1012A0000F920FB60F9211242F933F938F939F931A
:1012B000AF93BF9380915E0290915F02A091600214
:1012C000B091610230915D0223E0230F2D3758F574
:1012D0000196A11DB11D20935D0280935E02909343
:1012E0005F02A0936002B0936102809162029091CC
:1012F0006302A0916402B09165020196A11DB11D27
:101300008093620290936302A0936402B09365029B
:10131000BF91AF919F918F913F912F910F900FBEF1
:101320000F901F90189526E8230F0296A11DB11D5E
:10133000D2CF1F920F920FB60F9211242F933F938B
:101340004F935F936F937F938F939F93AF93BF93CD
:10135000EF93FF93E0911601F09117010995FF912A
:10136000EF91BF91AF919F918F917F916F915F911D
:101370004F913F912F910F900FBE0F901F90189596
:101380001F920F920FB60F9211242F933F934F93FA
:101390005F936F937F938F939F93AF93BF93EF93DD
:1013A000FF93E0911401F09115010995FF91EF91E0
:1013B000BF91AF919F918F917F916F915F914F916D
:1013C0003F912F910F900FBE0F901F9018951F9275
:1013D0000F920FB60F9211242F933F934F935F9369
:1013E0006F937F938F939F93AF93BF93EF93FF93ED
:1013F00086E692E00E943003FF91EF91BF91AF919A
:101400009F918F917F916F915F914F913F912F911C
:101410000F900FBE0F901F9018951F920F920FB64E
:101420000F9211242F938F939F93EF93FF93E0914B
:101430007602F09177028081E0917C02F0917D024A
:1014400082FD1BC0908180917F028F5F8F732091FE
:101450008002821741F0E0917F02F0E0EA59FD4FEF
:10146000958F80937F02FF91EF919F918F912F91A4
:101470000F900FBE0F901F9018958081F4CF1F9290
:101480000F920FB60F9211242F933F934F935F93B8
:101490006F937F938F939F93AF93BF93EF93FF933C
:1014A0008091B900887F803609F44AC0F0F588320F
:1014B00009F4A5C018F5803109F499C0B8F488235F
:1014C00009F4F5C0883009F492C0FF91EF91BF9103
:1014D000AF919F918F917F916F915F914F913F91CC
:1014E0002F910F900FBE0F901F901895883109F41F
:1014F00086C0803251F78093C40114C0803409F44F
:101500009BC040F48033B9F38833F9F68093C4016B
:1015100085ECAEC0803509F483C0883509F494C0E9
:10152000883499F60E94DA08D0CF883909F48AC045
:1015300038F5883729F050F4883611F0803729F6CD
:1015400083E08093C5011092C30155C0883809F427
:1015500079C0803919F0803809F0B7CF8091C30184
:10156000803208F06FC0E091C30181E08E0F80935C
:10157000C3018091BB00F0E0ED55FE4F80833BC07E
:10158000803B39F0D0F4803A09F477C0883A09F00A
:101590009CCF84E08093C5011092A2011092A1011A
:1015A000F0E0E0E009958091A10181110FC081E098
:1015B0008093A1011092810109C0803C09F4A8CF59
:1015C000883C09F4A5CF883B09F07FCFE091A201C8
:1015D00081E08E0F8093A201F0E0EF57FE4F8081F3
:1015E0008093BB009091A2018091A10129C08091BC
:1015F000EA018093BB0085EC8093BC0066CF90919C
:10160000E9018091E801981758F5E091E90181E03E
:101610008E0F8093E901F0E0E853FE4F8081E9CF1F
:10162000E091E90181E08E0F8093E9018091BB0098
:10163000F0E0E853FE4F80839091E9018091E8014A
:101640009817C8F285E8D8CFE091E90181E08E0FC4
:101650008093E9018091BB00F0E0E853FE4F808366
:101660008091C70181115ECF81E08093C60184EA39
:101670008093BC001092C50128CF85EC8093BC00FC
:101680001092C5018091C301803230F4E091C30112
:10169000F0E0ED55FE4F10826091C30170E083EAE7
:1016A00091E0F0E0E0E009951092C3010ECF1092B6
:1016B000C40138CF8F929F92AF92BF92CF92DF92A8
:1016C000EF92FF920F931F93E6E6F2E013821282ED
:1016D00088EE93E0A0E0B0E084839583A683B7838F
:1016E0008CE191E09183808385EC90E095878487FD
:1016F00084EC90E09787868780EC90E0918B808BDC
:1017000081EC90E0938B828B82EC90E0958B848BC4
:1017100086EC90E0978B868B118E128E138E148E32
:10172000EAE4F3E08DEC882E8CEC982E8CE0A82E69
:101730008FE3B82E83A694A6A5A6B6A69DECC92EC7
:101740009CECD92EED2C9DE3F92EC7A6D0AAE1AAD8
:10175000F2AA03E313E323EB3EE303AB14AB25ABA5
:1017600036AB86E0808385E0818382E082831382CA
:10177000148215821682178E10A211A212A2138A49
:10178000148A158A168A178A108E118E128E40E0DE
:1017900050E060E87FEB438F548F658F768F10A603
:1017A00017A212A611A614A213A281E090E096A39C
:1017B00085A31092890310928A0310928B031092D2
:1017C0008C0310928D0310928E0310928F0310924F
:1017D000900317AA10AE11AE12AE13AE14AE15AE32
:1017E00016AE178210861186128613861486158609
:1017F00016861786108A118A128AE3E0F3E083A620
:1018000094A6A5A6B6A6C7A6D0AAE1AAF2AA03AB3B
:1018100014AB25AB36AB2AE020832BE0218323E0F9
:1018200022831382148215821682178E10A211A2AF
:1018300012A2138A148A158A168A178A108E118E9C
:10184000128E438F548F658F768F10A617A212A623
:1018500011A614A213A296A385A31092420310927C
:1018600043031092440310924503109246031092D2
:101870004703109248031092490317AA10AE11AE05
:1018800012AE13AE14AE15AE16AE178210861186C8
:10189000128613861486158616861786108A118A74
:1018A000128A1F910F91FF90EF90DF90CF90BF9021
:1018B000AF909F908F900895CF93DF93CDB7DEB711
:1018C0002E970FB6F894DEBF0FBECDBF789484B5C7
:1018D000826084BD84B5816084BD85B5826085BD2C
:1018E00085B5816085BD80916E00816080936E00BA
:1018F00010928100809181008260809381008091AC
:10190000810081608093810080918000816080935C
:1019100080008091B10084608093B1008091B0001C
:1019200081608093B00080917A00846080937A0017
:1019300080917A00826080937A0080917A00816041
:1019400080937A0080917A00806880937A00109268
:10195000C100E0917602F091770282E08083E0910D
:101960007202F09173021082E0917402F09175029C
:1019700080E1808310927E02E0917A02F0917B02F6
:1019800086E08083E0917802F09179028081806125
:101990008083E0917802F091790280818860808371
:1019A000E0917802F0917902808180688083E091F3
:1019B0007802F091790280818F7D808382EB90E0C4
:1019C0000E9496078AE493E00E94340783E093E044
:1019D0000E94340780914C03823009F4B9C08330EF
:1019E00009F0B8C081E06CE277E00E945701809175
:1019F0000503823009F4B0C0833009F0AFC081E044
:101A000060E377E00E94570184E690E0A0E0B0E058
:101A10008093000190930101A0930201B093030110
:101A200085E090E0A0E0B0E080930601909307018C
:101A3000A0930801B093090184E190E0A0E0B0E038
:101A400080930A0190930B01A0930C01B0930D01B8
:101A50008AE090E0A0E0B0E080930E0190930F0147
:101A6000A0931001B093110161E08DE00E94F30199
:101A700060E08CE00E94F30160E08DE00E94C5010F
:101A80000E948C026093570270935802809359020F
:101A900090935A0260E087E00E94F30160E084E0E6
:101AA0000E94F30160E088E00E94F30181E090E091
:101AB000909346028093450283EA90E00E94960745
:101AC0008E010F5F1F4F1C870B87065F1F4F1E87FE
:101AD0000D87412C512C54EB652E52E4752E222497
:101AE0002A94322C8AE0EB85FC8511928A95E9F7DD
:101AF00086E692E00E94100318161906B4F586E6F1
:101B000092E00E94EE02F1E0F09331029FB7F89468
:101B100040915E0250915F0260916002709161029B
:101B20009FBF40932D0250932E0260932F0270931B
:101B300030028823E9F2E0912C02EF3388F491E03F
:101B40009E0F90932C02F0E0E451FE4F8083D0CFA3
:101B500080E049CF8FEF47CF80E052CF8FEF50CF5B
:101B6000EE24E394E092EB01C3CF8091310288230D
:101B700079F12FB7F89480915E0290915F02A09165
:101B80006002B09161022FBF40912D0250912E0250
:101B900060912F0270913002841B950BA60BB70B3E
:101BA00040916A0250916B0260916C0270916D02DB
:101BB00084179507A607B70758F010923102809155
:101BC000EB01882309F480C210922C021092EB01E1
:101BD0008FB7F89480905E0290905F02A0906002B0
:101BE000B09061028FBF80924B0290924C02A09203
:101BF0004D02B0924E028091320290913302A09138
:101C00003402B0913502881A990AAA0ABB0A809157
:101C1000000190910101A0910201B0910301881689
:101C20009906AA06BB0608F492C081149104A10487
:101C3000B104A1F1F89460914D0370914E0380912D
:101C40004F039091500310924D0310924E03109247
:101C50004F031092500378940E940D1620E030E05C
:101C600040EA51E40E941C1820E030E64AE657E4BE
:101C70000E946E166B017C01C501B4010E940D1615
:101C80009B01AC01C701B6010E941C18609361035F
:101C900070936203809363039093640380904B027C
:101CA00090904C02A0904D02B0904E028091320272
:101CB00090913302A0913402B0913502881A990AAA
:101CC000AA0ABB0AA1F1F894609106037091070378
:101CD0008091080390910903109206031092070364
:101CE000109208031092090378940E940D1620E0C8
:101CF00030E040EA51E40E941C1820E030E64AE659
:101D000057E40E946E166B017C01C501B4010E946C
:101D10000D169B01AC01C701B6010E941C1860930F
:101D20001A0370931B0380931C0390931D038091EF
:101D30004B0290914C02A0914D02B0914E028093C3
:101D4000320290933302A0933402B0933502809113
:101D50004B0290914C02A0914D02B0914E024091E5
:101D60003602509137026091380270913902841B1B
:101D7000950BA60BB70B409106015091070160919E
:101D800008017091090184179507A607B70708F4A1
:101D900074C080915B02882399F080911201909128
:101DA0001301909305018093040110925B0297FD4B
:101DB00007C021E0883C91050CF020E0209343020D
:101DC00087E00E949C018C0188E00E949C0141E018
:101DD00050E00130110511F050E040E0440F551F74
:101DE000440F551F21E030E0019711F030E020E072
:101DF000220F331F142F122B84E00E949C0121E03C
:101E0000019709F020E0122B00914402101729F1EC
:101E100088ED90E00E949F03602F70E090E080E0EA
:101E20004AE00E9452078AE30E94BA03612F70E0E1
:101E300090E080E04AE00E9452078AE291E00E942E
:101E4000450780914202813009F4CAC208F4BCC23D
:101E5000823009F4CAC21093440280914B029091DF
:101E60004C02A0914D02B0914E02809336029093A5
:101E70003702A0933802B093390280904B029090C1
:101E80004C02A0904D02B0904E0280913A02909187
:101E90003B02A0913C02B0913D0275016401C81A59
:101EA000D90AEA0AFB0A80910A0190910B01A091DC
:101EB0000C01B0910D01C816D906EA06FB0638F1EF
:101EC0008091450290914602009709F493C28130B7
:101ED000910509F4A8C28AE493E00E94530683E0C6
:101EE00093E00E945306B701A6018AE493E00E94A2
:101EF0003304B701A60183E093E00E94330480928B
:101F00003A0290923B02A0923C02B0923D02809134
:101F10003E0290913F02A0914002B0914102B50172
:101F2000A401481B590B6A0B7B0B80910E01909109
:101F30000F01A0911001B0911101481759076A07CC
:101F40007B0780F08AE493E00E94BA0583E093E087
:101F50000E94BA0580923E0290923F02A0924002F7
:101F6000B09241028091470290914802A0914902AB
:101F7000B0914A02881A990AAA0ABB0A38EE831657
:101F800033E09306A104B10408F4F1C283EF91E0B9
:101F90000E94960787EE91E00E949F038091450280
:101FA000909146020E94A40781ED91E00E949F0358
:101FB00080917103909172030E94D40784EC91E0A8
:101FC0000E949F0380917303909174030E94D40731
:101FD00088EB91E00E949F0360915D0370915E0326
:101FE00080915F039091600342E00E9402088AE2C0
:101FF00091E00E94450781EA91E00E949F03809151
:102000002A0390912B030E94D40784E991E00E9457
:102010009F0380912C0390912D030E94D40788E8A0
:1020200091E00E949F0360911603709117038091C5
:1020300018039091190342E00E9402088AE291E09D
:102040000E9445078DE791E00E949F031091440292
:102050008FE412FF88E50E94BA0389E791E00E94AD
:102060009F038FE411FF88E50E94BA0385E791E0A2
:102070000E949F038FE410FF88E50E94BA038AE262
:1020800091E00E9445078AE691E00E949F038091BB
:102090004302882309F44CC286E691E00E94960729
:1020A0008CE491E00E949F0380914202823009F407
:1020B0007BC208F040C2882309F445C2813009F48C
:1020C00070C283EE90E041C200912C0210E0F80152
:1020D000E451FE4F10823CEEE32E31E0F32EF70187
:1020E00081915F01882331F090E00E949414892B44
:1020F00009F0AAC004511E4FE016F10648F4F80199
:1021000082915F0190E00E949414892B09F09EC097
:10211000F8011082FCEEEF16F1E0FF0651F0A80185
:102120004E195F094F5F5F4FB7018CEE91E00E943F
:10213000D41810922C028091EC01882309F448CD28
:1021400085EC90E00E949F038CEE91E00E94450791
:102150008AE291E00E9445078E010F5F1F4F8CEECF
:1021600091E0F801819391938F016AE370E00E94FE
:10217000E618009741F0FC011192CF01ED84FE8436
:10218000E016F10671F7E980FA8061E771E0C701B6
:102190000E94F1188C01892B09F45AC06AE671E09B
:1021A000C7010E94F118892B09F012CD8B819C8107
:1021B000C12CD12C7601009721F00E9490146B0164
:1021C0007C018D819E81812C912C5401009721F0FE
:1021D0000E9490144B015C018F819885009709F44F
:1021E000EFC00E949014C0927503D0927603E092E3
:1021F0007703F092780380927D0390927E03A09201
:102200007F03B09280036093790370937A03809385
:102210007B0390937C03C0922E03D0922F03E09215
:102220003003F09231038092360390923703A092EC
:102230003803B09239036093320370933303809371
:10224000340390933503C4CC750149CF850154CF35
:102250008B819C81F12CE12C009739F04AE050E011
:1022600070E060E00E9479137B018D819E81009770
:1022700039F04AE050E070E060E00E9479138B0191
:1022800022E030E03093460220934502B7010F2C44
:10229000000C880B990B0E940F164B015C0120E08B
:1022A00030E0A9010E94C4181816E4F58092690371
:1022B00090926A03A0926B03B0926C0381E090E06D
:1022C00090936E0380936D03B801012E000C880B70
:1022D000990B0E940F164B015C0120E030E0A90130
:1022E0000E94C41818160CF044C0809222039092E9
:1022F0002303A0922403B092250381E090E0909301
:1023000027038093260389E391E00E944507C701D4
:102310000E94A40781E591E00E944507C8010E9440
:10232000A40756CC20E030E0A901C501B4010E9409
:10233000081687FF11C0B7FAB094B7F8B09480922E
:10234000690390926A03A0926B03B0926C0330927F
:102350006E0320926D03B8CF1092690310926A0346
:1023600010926B0310926C0310926E0310926D0327
:10237000ABCF20E030E0A901C501B4010E940816EE
:1023800087FF11C0B7FAB094B7F8B09480922203D7
:1023900090922303A0922403B09225033092270346
:1023A00020922603B0CF10922203109223031092A2
:1023B0002403109225031092270310922603A3CF23
:1023C00060E070E0CB010FCF12FF04C031E030932A
:1023D000420241CD10FF3FCD82E0809342023BCDCF
:1023E00011FFF8CF1092420236CD12FDEFCF11FD52
:1023F000F9CF31CD1092690310926A0310926B03EA
:1024000010926C0310926E0310926D0310922203CF
:102410001092230310922403109225031092270395
:102420001092260358CD20914302222349F08AE4DA
:1024300093E00E94370683E093E00E9437064BCD7D
:1024400020914202223009F455C008F52223E9F117
:10245000213069F71092690310926A0310926B039E
:1024600010926C0310926E0310926D0300E010E066
:1024700020E732E4009322031093230320932403E4
:1024800030932503909327038093260324CD233094
:1024900009F441C0243059F64092690350926A030E
:1024A00060926B0370926C0390936E0380936D0344
:1024B00020E030E040E252E42093220330932303F3
:1024C0004093240350932503DDCF4092690350923B
:1024D0006A0360926B0370926C0390936E03809317
:1024E0006D03409222035092230360922403709262
:1024F0002503C8CF20E030E040E752E42093690391
:1025000030936A0340936B0350936C0390936E0374
:1025100080936D037BCF00E010E020E232E4009373
:10252000690310936A0320936B0330936C03D5CF38
:1025300083E691E0B3CD8330D1F1843009F0C1CD91
:1025400089EF90E002C08DE391E00E9496078091B0
:102550004B0290914C02A0914D02B0914E0280939B
:10256000470290934802A0934902B0934A020E9406
:102570008C024B015C0180915C02813009F45BC0EC
:10258000C8F0823009F486C080E090E0892B09F41D
:10259000A9CA0E941C03882309F4A1CA0E94000052
:1025A0009ECA80E391E0D1CF82E291E0CECF8EE06F
:1025B00091E0CBCF80915B028111E6CF80915702F1
:1025C00090915802A0915902B0915A02881A990A22
:1025D000AA0ABB0A40E684164AEE9406A104B10496
:1025E00098F260E08DE00E94C50183E090E00197E1
:1025F000F1F761E08DE00E94C50183E290E0019770
:10260000F1F760E08DE00E94C5010E948C026093AA
:102610005702709358028093590290935A02609324
:10262000530270935402809355029093560251E0E6
:1026300050935C02A9CF8CE00E949C01019761F449
:1026400080924F0290925002A0925102B092520298
:1026500082E080935C0298CF809153029091540263
:10266000A0915502B0915602881A990AAA0ABB0A8B
:1026700088EA881681E69806A104B10408F484CF9C
:10268000309213012092120191E090935B0210921C
:102690005C027ACF8CE00E949C0140914F025091E5
:1026A0005002609151027091520285017401E41A46
:1026B000F50A060B170BA8019701892B99F4A7E5DA
:1026C000B1E00E945E1720ED37E040E050E00E944C
:1026D0003C173093130120931201FF24F394F092DE
:1026E0005B02D5CF283A31464105510508F44CCF5D
:1026F000C7CFB0E0A0E0EFE7F3E10C946A175C010C
:102700006B017A016115710519F0FB0191838083DA
:10271000E114F10451F0C7010297839730F040E0D3
:1027200030E020E090E072C05E01E5012196F50105
:102730001081812F90E00E949414892BA9F71D32FB
:1027400001F52196F501118101E0E114F10409F48C
:10275000DAC0F0E1EF16F10409F082C0103359F449
:1027600088818F7D883509F076C0198122960260B4
:10277000F0E1EF2EF12C812C912CA12C88E0B82EC9
:102780008CC01B3221F4E5012296F501118100E095
:10279000DCCFEAE0EE16F10409F4BBC0F0E1EF167D
:1027A000F10409F06DC0E7CF78E0E72EF12C812C21
:1027B000912CA12C60E1B62E70C03FE9310F3A3167
:1027C00028F439EA332E80C021E09AC0302F3170CE
:1027D000C114D10431F0222309F12197F601D183EC
:1027E000C08327FF21C060E070E080E090E83111F5
:1027F00004C06FEF7FEF8FEF9FE722E230E030936E
:10280000920320939103462F372F282F642F732F85
:10281000822FCDB7DEB7E1E10C94861701FF04C02B
:102820002297F601D183C083332341F090958095A0
:10283000709561957F4F8F4F9F4FE5CF97FFE3CF07
:1028400082E290E090939203809391036FEF7FEF89
:102850008FEF9FE7D8CF10E3E114F10409F4A4CF80
:1028600028E0E216F10409F4A2CF0CF092CF812CFB
:10287000912CA12CE0E4BE2E82E0E816F10469F070
:1028800060E070E080E090E897010F2C000C440BB2
:10289000550B0E943C1749015A0120E060E070E0AE
:1028A000CB0127010F2C000C66087708FE0150EDC4
:1028B000352E310E39E0331540F43FEB310F3A310C
:1028C00008F07BCF49EC342E310E3E141F040CF07F
:1028D0007DCF27FD15C086169706A806B90678F0A5
:1028E000A30192010E942C17630D711D811D911D82
:1028F00061307105810520E8920708F465CF2FEF5C
:1029000021961081D3CF103309F42ACF2AE0E22E8A
:10291000F12C9CEC892E982CA82C9CE0B92EBDCFD4
:10292000662777270C949D1491110C94ED15803235
:1029300019F089508550C8F70895B0E0A0E0E3EAA7
:10294000F4E10C946F175C017B016115710519F0BE
:10295000DB018D939C9385010F5F1F4FF501D081A3
:102960008D2F90E00E9494146C01892BB9F5DD3213
:10297000B9F50F5F1F4FD5011196DC91C1E05801E9
:10298000F1E0AF1AB10843E050E060E770E0C50144
:102990000E94F015892B69F5680182E0C80ED11CF0
:1029A00045E050E06BE670E0C6010E94F015892B0F
:1029B00021F4680197E0C90ED11CE114F10419F06B
:1029C000D701CD92DC9260E070E080E89FEFC1110A
:1029D000FFC060E070E080E89FE7FAC05801BBCF1D
:1029E000DB3229F485010E5F1F4FF501D181C0E074
:1029F000C6CF43E050E068E670E0C5010E94F015E4
:102A0000892BE9F0F80110E000E020E030E0A901B6
:102A10005F01B0ED8B2E8D0E89E08815C8F19C2EDC
:102A2000689491F88C2F8870C2FF16C0811102C083
:102A30000F5F1F4F3196D501DC91C92DE9CFE1140D
:102A4000F10429F00E5F1F4FF7011183008360E04E
:102A500070E080EC9FE7BCC0882311F001501109A1
:102A6000A5E0B0E00E945E179B01AC01220F331F6E
:102A7000441F551F280D311D411D511D283999E94D
:102A80003907490799E15907A8F2C6609C2ED2CFB1
:102A9000AEEF8A1206C0C3FD3CC09C2E689493F82A
:102AA000C9CFDF7DD534A9F580818D3239F4C0617D
:102AB000DF011296818162E070E006C0DF018B3297
:102AC000C1F3119661E070E080535D01A61AB70A68
:102AD0008A30F8F4E0E8CE16ECE0DE065CF4B601ED
:102AE000660F771F660F771FC60ED71ECC0CDD1C36
:102AF000C80ED11C5D01FFEFAF1ABF0A8C91805345
:102B00008A30A8F1C4FF03C0D194C194D1080C0D40
:102B10001D1DC1FF09C0E114F10431F081E0A81AC4
:102B2000B108D701AD92BC92CA01B9010E940D163D
:102B3000C370C33009F490584B015C0120E030E0D1
:102B4000A9010E940816882309F440C0CFE9D0E00B
:102B500017FF05C0119501951109C7E8D0E06E0176
:102B6000B8E1CB1AD10880E2E82EF12C0FC0D501D4
:102B7000B1CFFE0125913591459154910E191F0950
:102B8000C501B4010E946E164B015C01D501C40160
:102B90000E151F0574F72497F594E794CC16DD06FF
:102BA000A9F78A2F880F8B2F881F8F3F49F020E0CD
:102BB00030E0A901C501B4010E940816811106C0C8
:102BC00082E290E09093920380939103C501B40157
:102BD000CDB7DEB7ECE00C948B17992788270895C2
:102BE000FB01DC014150504088F08D9181341CF094
:102BF0008B350CF4805E659161341CF06B350CF400
:102C0000605E861B611171F3990B0895881BFCCFE0
:102C10000E944A1608F481E00895E89409C097FBE1
:102C20003EF490958095709561957F4F8F4F9F4FA3
:102C30009923A9F0F92F96E9BB279395F6958795E7
:102C400077956795B795F111F8CFFAF4BB0F11F4AA
:102C500060FF1BC06F5F7F4F8F4F9F4F16C0882351
:102C600011F096E911C0772321F09EE8872F762F87
:102C700005C0662371F096E8862F70E060E02AF0C8
:102C80009A95660F771F881FDAF7880F96958795B4
:102C900097F90895990F0008550FAA0BE0E8FEEF89
:102CA00016161706E807F907C0F012161306E40710
:102CB000F50798F0621B730B840B950B39F40A2609
:102CC00061F0232B242B252B21F408950A2609F4E7
:102CD000A140A6958FEF811D811D08950E94811648
:102CE0000C94F2160E94E41638F00E94EB1620F0C5
:102CF000952311F00C94DB160C94E11611240C941E
:102D000026170E94031770F3959FC1F3950F50E0AB
:102D1000551F629FF001729FBB27F00DB11D639F8D
:102D2000AA27F00DB11DAA1F649F6627B00DA11D33
:102D3000661F829F2227B00DA11D621F739FB00DD9
:102D4000A11D621F839FA00D611D221F749F332749
:102D5000A00D611D231F849F600D211D822F762FE2
:102D60006A2F11249F5750409AF0F1F088234AF0BF
:102D7000EE0FFF1FBB1F661F771F881F915050402B
:102D8000A9F79E3F510580F00C94DB160C94261792
:102D90005F3FE4F3983ED4F3869577956795B795B2
:102DA000F795E7959F5FC1F7FE2B880F911D9695CC
:102DB000879597F9089597F99F6780E870E060E03C
:102DC00008959FEF80EC089500240A9416161706C4
:102DD00018060906089500240A941216130614060C
:102DE00005060895092E0394000C11F4882352F06F
:102DF000BB0F40F4BF2B11F460FF04C06F5F7F4F27
:102E00008F4F9F4F089557FD9058440F551F59F00D
:102E10005F3F71F04795880F97FB991F61F09F3FC7
:102E200079F087950895121613061406551FF2CFF0
:102E30004695F1DF08C0161617061806991FF1CF40
:102E400086957105610508940895E894BB27662767
:102E50007727CB0197F90895DB018F939F930E9409
:102E60005E17BF91AF91A29F800D911DA39F900D02
:102E7000B29F900D11240895A1E21A2EAA1BBB1B2C
:102E8000FD010DC0AA1FBB1FEE1FFF1FA217B30736
:102E9000E407F50720F0A21BB30BE40BF50B661F4C
:102EA000771F881F991F1A9469F760957095809510
:102EB00090959B01AC01BD01CF0108950E94A01720
:102EC000A59F900DB49F900DA49F800D911D11247E
:102ED00008952F923F924F925F926F927F928F92BE
:102EE0009F92AF92BF92CF92DF92EF92FF920F9399
:102EF0001F93CF93DF93CDB7DEB7CA1BDB0B0FB6A3
:102F0000F894DEBF0FBECDBF09942A88398848885F
:102F10005F846E847D848C849B84AA84B984C884F5
:102F2000DF80EE80FD800C811B81AA81B981CE0FEC
:102F3000D11D0FB6F894DEBF0FBECDBFED010895D1
:102F4000A29FB001B39FC001A39F700D811D1124EA
:102F5000911DB29F700D811D1124911D089550582F
:102F6000BB27AA270E94C7170C94F2160E94E416EA
:102F700038F00E94EB1620F039F49F3F19F426F444
:102F80000C94E1160EF4E095E7FB0C94DB16E92FA8
:102F90000E94031758F3BA1762077307840795074F
:102FA00020F079F4A6F50C9425170EF4E0950B2E7D
:102FB000BA2FA02D0B01B90190010C01CA01A0018B
:102FC0001124FF27591B99F0593F50F4503E68F1E6
:102FD0001A16F040A22F232F342F4427585FF3CF27
:102FE000469537952795A795F0405395C9F77EF4F8
:102FF0001F16BA0B620B730B840BBAF09150A1F041
:10300000FF0FBB1F661F771F881FC2F70EC0BA0FC6
:10301000621F731F841F48F4879577956795B7954E
:10302000F7959E3F08F0B0CF9395880F08F0992749
:10303000EE0F9795879508950E9430180C94F2161C
:103040000E94EB1658F00E94E41640F029F45F3F0E
:1030500029F00C94DB1651110C9426170C94E116F0
:103060000E94031768F39923B1F3552391F3951B3D
:10307000550BBB27AA2762177307840738F09F5F99
:103080005F4F220F331F441FAA1FA9F335D00E2E06
:103090003AF0E0E832D091505040E695001CCAF773
:1030A0002BD0FE2F29D0660F771F881FBB1F261736
:1030B00037074807AB07B0E809F0BB0B802DBF010D
:1030C000FF2793585F4F3AF09E3F510578F00C94DC
:1030D000DB160C9426175F3FE4F3983ED4F38695F5
:1030E00077956795B795F7959F5FC9F7880F911DFD
:1030F0009695879597F90895E1E0660F771F881FE9
:10310000BB1F621773078407BA0720F0621B730B9B
:10311000840BBA0BEE1F88F7E09508950E9495186E
:103120006894B1110C94261708950E940B1788F02B
:103130009F5798F0B92F9927B751B0F0E1F0660F7B
:10314000771F881F991F1AF0BA95C9F714C0B130BC
:1031500091F00E942517B1E008950C942517672F70
:10316000782F8827B85F39F0B93FCCF386957795EB
:103170006795B395D9F73EF49095809570956195D4
:103180007F4F8F4F9F4F08950E944A1608F48FEF8C
:1031900008950E944A16880B990B0895EE0FFF1FA1
:1031A0000590F491E02D09946817790768F4FB0104
:1031B000DC01E40FF51FA40FB51F02C002900E92B0
:1031C00041505040D8F708950C94FA18FC018191B1
:1031D000861721F08823D9F7992708953197CF01D1
:1031E0000895FB01DC018D91019080190110D9F344
:1031F000990B0895FB01DC0102C001900D92415032
:103200005040D8F70895F894FFCFE8030000FFFF7F
:10321000E8030000E8030000E8030000FFFFB1023C
:10322000B102000000005203B202DF02BF0310032C
:10323000EE0202030D0A006E616E00696E66006F99
:103240007666006C65667420776865656C20525000
:103250004D2073657420746F3A200072696768743A
:1032600020776865656C2052504D2073657420741A
:103270006F3A20005345545049440053455453502D
:04328000454544007C
:107E0000112484B714BE81FFF0D085E080938100F7
:107E100082E08093C00088E18093C10086E0809377
:107E2000C20080E18093C4008EE0C9D0259A86E02C
:107E300020E33CEF91E0309385002093840096BBD3
:107E4000B09BFECF1D9AA8958150A9F7CC24DD24C4
:107E500088248394B5E0AB2EA1E19A2EF3E0BF2EE7
:107E6000A2D0813461F49FD0082FAFD0023811F036
:107E7000013811F484E001C083E08DD089C08234E0
:107E800011F484E103C0853419F485E0A6D080C0E4
:107E9000853579F488D0E82EFF2485D0082F10E0AE
:107EA000102F00270E291F29000F111F8ED06801E7
:107EB0006FC0863521F484E090D080E0DECF843638
:107EC00009F040C070D06FD0082F6DD080E0C81688
:107ED00080E7D80618F4F601B7BEE895C0E0D1E017
:107EE00062D089930C17E1F7F0E0CF16F0E7DF06D8
:107EF00018F0F601B7BEE89568D007B600FCFDCFD4
:107F0000A601A0E0B1E02C9130E011968C91119780
:107F100090E0982F8827822B932B1296FA010C0160
:107F200087BEE89511244E5F5F4FF1E0A038BF0790
:107F300051F7F601A7BEE89507B600FCFDCF97BE46
:107F4000E89526C08437B1F42ED02DD0F82E2BD052
:107F50003CD0F601EF2C8F010F5F1F4F84911BD097
:107F6000EA94F801C1F70894C11CD11CFA94CF0C13
:107F7000D11C0EC0853739F428D08EE10CD085E9AC
:107F80000AD08FE07ACF813511F488E018D01DD067
:107F900080E101D065CF982F8091C00085FFFCCF94
:107FA0009093C60008958091C00087FFFCCF809118
:107FB000C00084FD01C0A8958091C6000895E0E648
:107FC000F0E098E1908380830895EDDF803219F02E
:107FD00088E0F5DFFFCF84E1DECF1F93182FE3DFCA
:107FE0001150E9F7F2DF1F91089580E0E8DFEE27F6
:047FF000FF270994CA
:027FFE00040479
:00000001FF
