:100000000C9446050C94FF160C94D8160C946E05AF
:100010000C946E050C946E050C946E050C946E0594
:100020000C946E050C946E050C946E050C949D1842
:100030000C946E050C946E050C946E050C946E0574
:100040000C948E160C946E050C944C170C94261779
:100050000C946E050C946E050C946E050C946E0554
:100060000C947E170C946E05000103070F1F3F7F51
:100070000080C0E0F0F8FCFE00000000003E5B4F96
:100080005B3E3E6B4F6B3E1C3E7C3E1C183C7E3CF8
:10009000181C577D571C1C5E7F5E1C00183C180006
:1000A000FFE7C3E7FF0018241800FFE7DBE7FF3096
:1000B000483A060E2629792926407F050507407F04
:1000C00005253F5A3CE73C5A7F3E1C1C08081C1C77
:1000D0003E7F14227F22145F5F005F5F06097F016D
:1000E0007F006689956A606060606094A2FFA29458
:1000F00008047E040810207E201008082A1C080826
:100100001C2A08081E101010100C1E0C1E0C303873
:100110003E3830060E3E0E06000000000000005F74
:1001200000000007000700147F147F14242A7F2A90
:100130001223130864623649562050000807030052
:10014000001C2241000041221C002A1C7F1C2A089E
:10015000083E080800807030000808080808000001
:1001600060600020100804023E5149453E00427F75
:10017000400072494949462141494D331814127FC4
:100180001027454545393C4A494931412111090764
:100190003649494936464949291E000014000000E5
:1001A00040340000000814224114141414140041B7
:1001B00022140802015909063E415D594E7C121174
:1001C000127C7F494949363E414141227F414141AC
:1001D0003E7F494949417F090909013E4141517327
:1001E0007F0808087F00417F41002040413F017F98
:1001F000081422417F404040407F021C027F7F0460
:1002000008107F3E4141413E7F090909063E4151A8
:10021000215E7F09192946264949493203017F0198
:10022000033F4040403F1F2040201F3F4038403F99
:10023000631408146303047804036159494D4300AF
:100240007F4141410204081020004141417F0402E6
:10025000010204404040404000030708002054547D
:1002600078407F284444383844444428384444285B
:100270007F385454541800087E090218A4A49C78AE
:100280007F0804047800447D40002040403D007F0A
:100290001028440000417F40007C047804787C08EA
:1002A0000404783844444438FC18242418182424BE
:1002B00018FC7C08040408485454542404043F44A3
:1002C000243C4040207C1C2040201C3C4030403CD2
:1002D00044281028444C9090907C4464544C440032
:1002E0000836410000007700000041360800020196
:1002F0000204023C2623263C1EA1A161123A404082
:10030000207A3854545559215555794122545478FE
:1003100042215554784020545579400C1E52721297
:100320003955555559395454545939555454580020
:1003300000457C410002457D420001457C407D1224
:1003400011127DF0282528F07C5455450020545486
:100350007C547C0A097F4932494949323A44444431
:100360003A324A4848303A4141217A3A424020786C
:10037000009DA0A07D3D4242423D3D4040403D3C6D
:1003800024FF2424487E4943662B2FFC2F2BFF0992
:1003900029F620C0887E0903205454794100004486
:1003A0007D413048484A32384040227A007A0A0A71
:1003B000727D0D19317D2629292F282629292926E4
:1003C00030484D4020380808080808080808382F29
:1003D00010C8ACBA2F102834FA00007B00000814B3
:1003E0002A142222142A14085500550055AA55AA89
:1003F00055AAFF55FF55FF000000FF00101010FF29
:1004000000141414FF001010FF00FF1010F010F083
:10041000141414FC001414F700FF0000FF00FF1474
:1004200014F404FC141417101F10101F101F1414C0
:10043000141F00101010F0000000001F101010100A
:100440001F10101010F010000000FF1010101010FE
:1004500010101010FF10000000FF140000FF00FF3C
:1004600000001F10170000FC04F4141417101714D8
:1004700014F404F40000FF00F714141414141414FA
:10048000F700F7141414171410101F101F1414146D
:10049000F4141010F010F000001F101F0000001FD7
:1004A00014000000FC140000F010F01010FF10FF0A
:1004B000141414FF141010101F00000000F010FF9F
:1004C000FFFFFFFFF0F0F0F0F0FFFFFF0000000083
:1004D00000FFFF0F0F0F0F0F3844443844FC4A4A07
:1004E0004A347E02020606027E027E0263554941BC
:1004F000633844443C04407E201E2006027E0202F3
:1005000099A5E7A5991C2A492A1C4C7201724C3006
:100510004A4D4D303048784830BC625A463D3E49DD
:100520004949007E0101017E2A2A2A2A2A44445F81
:10053000444440514A444040444A51400000FF0175
:1005400003E080FF000008086B6B08361236243683
:10055000060F090F060000181800000010100030E8
:1005600040FF0101001F01011E00191D1712003C70
:100570003C3C3C00000000002200FF21DB40A4A620
:100580002EAF2000A1C8D300408DAED580A80000BA
:10059000600000000000000000000000000000E01B
:1005A0000000000000000000000000000001E0006A
:1005B00000000000000000000000000001F000004A
:1005C000000000000000000000000003F000000038
:1005D0000000000000000000000007F00000000024
:1005E00000000000000000000007F800000000000C
:1005F00000000000000000000FF800000003C00031
:100600007E000001E0007F0FF800000003C000FE44
:10061000000001E000FFEFF800000003C000FE0052
:100620000001E000FFFFF800000003C000F0000040
:10063000000F007FFE7FC0000003C000F00000003C
:100640000F003FFE7FF83FF1FBCFFCFEF3BC3DEF18
:10065000E01FFE7FFF7FFBFFDFFEFEFFBC3DEFE004
:100660001FC6FFFF7FFBFFDFFEFEFFBC3DEFE00F7D
:10067000E3C7FE787BC3DE1EF0FFBC3DEF0007FF43
:1006800087FC787BC3DE1EF0F83C3DEF0001FFFFE6
:10069000F0007BC3C01EF0F03C3DEF0001F37FE0B3
:1006A0003FFBC3CFFEF0F03C3DEF0003E33F807F14
:1006B000FBC3DFFEF0F03C3DEF0007E73C00787B3A
:1006C000C3DE1EF0F03C3DEF0007FFBE00787BC3A9
:1006D000DE1EF0F03C3DEF0007FFFE00787BC3DE3E
:1006E0001EF0F03C3DEF000FFFFE007FFBFFDFFE42
:1006F000F0F03FFDEFE00FFFFF007FFBFFDFFEF0BC
:10070000F03FFDEFE00FF9FF003E79F9CF9EF0F0EA
:100710001F3DE7E01FF1FF000000000000000000A7
:100720000000001F80FF007FFFFFFFFFFFFFFFFFB4
:10073000FFE01C007F007FFFFFFFFEB46D888D1877
:10074000E000001F007FFFFFFFFE95AD7DB577E065
:1007500000000F007FFFFFFFFEA5AD9D8D19E0009B
:100760000006007FFFFFFFFEB5ADEDB57EE00000A7
:100770000000000180000000000000000000038075
:1007800000000000000000000007C00000000000A2
:100790000000000007C00000000000000000000F83
:1007A000C00000000000000000001FE0000000008A
:1007B00000000000001FE00000000000000000003A
:1007C0003FE00000000000000000003FF0000000DB
:1007D0000000000000007FF0000000000000001F8B
:1007E000F87FF0000000000000003FFE7FF00000F6
:1007F00000000000003FFF7FF0000000000000004C
:100800001FFFFBE0000000000000000FFFF9FFC029
:100810000000000000000FFFF9FFF80000000000DA
:100820000007FFF1FFFF00000000000003FC73FF62
:10083000FF80000000000001FE3FFFFF800000007D
:10084000000000FF1E0FFF000000000000007FFE00
:100850001FFC000000000000003FFFFFF800000048
:10086000000000000FDFFFE0000000000000001F9C
:1008700019FFC0000000000000003F3CFF00000026
:1008800000000000007E7CF8000000000000000076
:100890007FFE7C0000000000000000FFFFFC000065
:1008A000000000000000FFFFFE000000000000004C
:1008B00000FFFFFE0000000000000001FFEFFE004F
:1008C00000000000000001FFCFFE0000000000005B
:1008D0000003FF07FE0000000000000003FC07FE0D
:1008E0000000000000000003F003FE000000000014
:1008F0000000018000FE0000000000000000000079
:100900007E000000000000000000003E000000002B
:100910000000000000000C00000000000007800044
:10092000FC000003C0000000078001FC000003C0C1
:10093000000000078001FC000003C00000000780E9
:1009400001E00000001E000000078001E000000040
:100950001E007FE3F79FF9FDE7787BDFC0FFF7FF1D
:10096000BFFDFDFF787BDFC0FFF7FFBFFDFDFF7818
:100970007BDFC0F0F787BC3DE1FF787BDE00F0F75E
:1009800087BC3DE1F0787BDE0000F787803DE1E049
:10099000787BDE007FF7879FFDE1E0787BDE00FF5C
:1009A000F787BFFDE1E0787BDE00F0F787BC3DE133
:1009B000E0787BDE00F0F787BC3DE1E0787BDE008D
:1009C000F0F787BC3DE1E0787BDE00FFF7FFBFFD7D
:1009D000E1E07FFBDFC0FFF7FFBFFDE1E07FFBDF72
:1009E000C07CF3F39F3DE1E03E7BCFC00000000000
:1009F00000000000000000FFFFFFFFFFFFFFFFFF00
:100A0000FFC0FFFFFFFFFD68DB111A31C0FFFFFFD2
:100A1000FFFD2B5AFB6AEFC0FFFFFFFFFD4B5B3B67
:100A20001A33C0FFFFFFFFFD6B5BDB6AFDC00000F8
:100A30000000240027002A000000000025002800F4
:100A40002B000000000023002600290004040404F9
:100A50000404040402020202020203030303030368
:100A60000102040810204080010204081020010245
:100A70000408102000000008000201000003040721
:100A800000000000000000000119272211241FBEF1
:100A9000CFEFD8E0DEBFCDBF12E0A0E0B1E0E6E1ED
:100AA000FEE402C005900D92A830B107D9F724E00A
:100AB000A8E0B2E001C01D92AA32B207E1F715E04A
:100AC000C5E4D5E004C02197FE010E94E624C434A9
:100AD000D107C9F70E94F2190C94FE260C9400006D
:100AE00008958230C8F4E82FF0E0EE0FFF1FE45FB6
:100AF000FE4F71836083813041F0809169008C7F6B
:100B0000826080936900E89A089580916900837FEC
:100B1000886080936900E99A0895833081F028F411
:100B2000813099F08230A9F008958730A9F088309B
:100B3000C9F08430B1F4809180008F7D03C0809132
:100B400080008F7780938000089584B58F7784BD6F
:100B5000089584B58F7DFBCF8091B0008F7780930F
:100B6000B00008958091B0008F7DF9CFCF93DF93CF
:100B7000282F30E0F901EC58F54F8491F901E05A43
:100B8000F54FD491F901E45BF54FC491CC23A1F06A
:100B900081110E948D05EC2FF0E0EE0FFF1FEE5B40
:100BA000F54FA591B491EC91ED2381E090E009F42B
:100BB00080E0DF91CF91089580E090E0FACF1F931D
:100BC000CF93DF93282F30E0F901EC58F54F849153
:100BD000F901E05AF54FD491F901E45BF54FC49166
:100BE000CC23A9F0162F81110E948D05EC2FF0E087
:100BF000EE0FFF1FE85CF54FA591B4918FB7F89405
:100C0000EC91111108C0D095DE23DC938FBFDF91EA
:100C1000CF911F910895DE2BF8CFCF93DF9390E013
:100C2000FC01E05AF54F2491845B954FFC018491BF
:100C30008823D1F090E0880F991FFC01E25DF54F09
:100C4000A591B491FC01E85CF54FC591D491623057
:100C500071F49FB7F8943C91822F809583238C93F5
:100C6000E8812E2B28839FBFDF91CF9108958FB706
:100C7000F894EC912E2B2C938FBFF6CF1F93CF932C
:100C8000DF93182FEB0161E00E940D06209739F4E5
:100C900060E0812FDF91CF911F910C94DF05CF3F52
:100CA000D10511F461E0F5CFE12FF0E0EC58F54FFC
:100CB000E491E33031F140F4E130B1F0E230E1F0C1
:100CC000C038D1057CF7E4CFE73029F1E83059F19D
:100CD000E430B1F780918000806280938000D093EF
:100CE0008B00C0938A0004C084B5806884BDC7BDF2
:100CF000DF91CF911F91089584B5806284BDC8BDF6
:100D0000F7CF80918000806880938000D093890025
:100D1000C0938800EDCF8091B00080688093B000D0
:100D2000C093B300E5CF8091B00080628093B000A3
:100D3000C093B400DDCF3FB7F8948091FB0290914F
:100D4000FC02A091FD02B091FE0226B5A89B05C051
:100D50002F3F19F00196A11DB11D3FBFBA2FA92F3A
:100D6000982F8827BC01CD01620F711D811D911D37
:100D700042E0660F771F881F991F4A95D1F70895A3
:100D80008F929F92AF92BF92CF92DF92EF92FF929B
:100D90004B015C010E949B066B017C010E949B063B
:100DA0006C197D098E099F09683E73408105910584
:100DB000A8F321E0821A9108A108B10888EEC80EB4
:100DC00083E0D81EE11CF11C81149104A104B1043C
:100DD00029F7FF90EF90DF90CF90BF90AF909F905A
:100DE0008F9008952FB7F8946091F7027091F802F0
:100DF0008091F9029091FA022FBF089583E00E943A
:100E0000B60521E0892B09F020E0822F089584E0C7
:100E10000E94B60521E0892B09F020E0822F089579
:100E20000895089508950895AF92BF92CF92DF92EA
:100E3000EF92FF920F931F93CF93DF936C017B018F
:100E40008B01040F151FEB015E01AE18BF08C01720
:100E5000D10759F06991D601ED91FC910190F08193
:100E6000E02DC6010995892B79F7C501DF91CF9156
:100E70001F910F91FF90EF90DF90CF90BF90AF90B8
:100E80000895FC01538D448D252F30E0842F90E090
:100E9000821B930B541710F0CF9608950197089575
:100EA000FC01918D828D981761F0A28DAE0FBF2F3E
:100EB000B11D5D968C91928D9F5F9F73928F90E094
:100EC00008958FEF9FEF08950F931F930E94F206EE
:100ED00060930B0370930C0380930D0390930E03A8
:100EE00083E093E00E94500797FF1DC00E94F20626
:100EF00000910B0310910C0320910D0330910E0310
:100F0000601B710B820B930B009107031091080378
:100F10002091090330910A03601771078207930734
:100F2000F8F28FEF9FEF1F910F910895FC01918DC3
:100F3000828D981731F0828DE80FF11D858D90E03C
:100F400008958FEF9FEF0895FC01918D228D892FD9
:100F500090E0805C9F4F821B91098F7399270895C1
:100F600083E093E00E94A40721E0892B09F420E0AC
:100F7000822F089580E090E0892B29F00E94B0072D
:100F800081110C9400000895FC01A48DA80FB92FC5
:100F9000B11DA35ABF4F2C91848D90E001968F73A1
:100FA0009927848FA689B7892C93A089B1898C91C0
:100FB000837080648C93938D848D981306C002880F
:100FC000F389E02D80818F7D80830895EF92FF92D9
:100FD0000F931F93CF93DF93EC0181E0888F9B8D5C
:100FE0008C8D98131AC0E889F989808185FF15C016
:100FF0009FB7F894EE89FF896083E889F989808139
:101000008370806480839FBF81E090E0DF91CF9107
:101010001F910F91FF90EF900895F62E0B8D10E029
:101020000F5F1F4F0F731127E02E8C8D8E110CC098
:101030000FB607FCFACFE889F989808185FFF5CFE3
:10104000CE010E94C407F1CFEB8DEC0FFD2FF11DF7
:10105000E35AFF4FF0829FB7F8940B8FEA89FB8920
:1010600080818062CFCFCF93DF93EC01888D88237E
:10107000B9F0AA89BB89E889F9898C9185FD03C0FB
:10108000808186FD0DC00FB607FCF7CF8C9185FFE0
:10109000F2CF808185FFEDCFCE010E94C407E9CF5A
:1010A000DF91CF91089520919302260F3327331FAC
:1010B00021323105ECF42091B702FC0190E080E090
:1010C000243069F082E00895A09193022191AC014F
:1010D0004D585D4FA40FB52FB11D2C930196861767
:1010E00098F380919302680F6093930280E00895D3
:1010F00081E008951092B70281E08093B9021092C6
:10110000B80261E082E10E94DF0561E083E10E94B4
:10111000DF05E9EBF0E080818E7F808380818D7F29
:10112000808388E48093B80085E48093BC000895B0
:10113000CF93DF9391E0909372028823B9F0C0912E
:10114000B800D091BA008091BC008A7B8093BC002B
:1011500060E082E10E94DF0560E083E10E94DF053C
:101160000E947A08D093BA00C093B800DF91CF9163
:101170000895E091E3028091E202E81730F4F0E094
:10118000E35BFD4F808190E008958FEF9FEF08951E
:101190009091E3028091E2022FEF3FEF981748F41D
:1011A000E92FF0E0E35BFD4F208130E09F5F9093FB
:1011B000E302C90108958091E2029091E302891B44
:1011C000990B0895CF92DF92EF92FF920F931F93A6
:1011D000CF93DF937C01CB018A012091020322236C
:1011E00089F0EB016B01C40ED51ECC15DD0569F04D
:1011F0006991D701ED91FC910190F081E02DC7013B
:101200000995F3CF642F0E945308C801DF91CF9155
:101210001F910F91FF90EF90DF90CF900895CF93A3
:10122000DF931F92CDB7DEB769832091020322239B
:10123000F9F02091FF02203258F021E030E0FC016B
:101240003383228390E080E00F90DF91CF91089567
:1012500080910003E82FF0E0E35DFD4F99819083DA
:101260008F5F809300038093FF0281E090E0ECCFDA
:1012700061E0CE0101960E945308F7CFCF92DF9232
:10128000EF92FF920F931F93CF93DF93D091FF02C2
:1012900081E0D13208F09CC0C09101030E949B06FE
:1012A0006B017C018091B70281116CC082E0809358
:1012B000B70281E08093B9028FEF8093B60210925B
:1012C000DB02D093DA02ADE2B2E0EAEBF2E080E0DA
:1012D000D8138DC01092DC028091DC02CC0FC82B99
:1012E000C093DC028091B802813009F084C0109272
:1012F000B8020E949B066B017C018091DC02809306
:10130000BB0080916E0290916F02A0917002B0912B
:101310007102892B8A2B8B2BA1F00E949B060091D6
:101320006E0210916F0220917002309171026C195F
:101330007D098E099F09061717072807390708F442
:1013400042C08091BC0083FDD8CF85EC8093BC0067
:101350000E949B066B017C018091B702823009F4E8
:101360004CC08091B6028F3F09F469C08091B602EB
:10137000803209F466C08091B602803309F463C0FC
:1013800084E026C080916E0290916F02A09170025D
:10139000B0917102892B8A2B8B2B09F483CF0E9489
:1013A0009B0600916E0210916F02209170023091A5
:1013B00071026C197D098E099F0906171707280706
:1013C000390708F06FCF80916D020E94980885E080
:1013D000109200031092FF0210920203DF91CF914E
:1013E0001F910F91FF90EF90DF90CF9008959D9106
:1013F00091938F5F6DCF85EEA9CF80916E02909112
:101400006F02A0917002B0917102892B8A2B8B2BF5
:1014100009F4A2CF0E949B0600916E0210916F0208
:1014200020917002309171026C197D098E099F091B
:10143000061717072807390708F08ECFC4CF80E0BA
:10144000C7CF82E0C5CF83E0C3CF0895FC016370AE
:10145000668B8481958126813781613039F06330D4
:1014600029F09187808733872287089531872087E5
:101470009387828708952F923F924F925F926F9247
:101480007F928F929F92AF92BF92CF92DF92EF9214
:10149000FF920F931F93CF93DF93CDB7DEB76A9779
:1014A0000FB6F894DEBF0FBECDBF9A8F898F7A83B7
:1014B00069834A01D22E18870F833701BC2CDC01C7
:1014C00059962D913C915A972115310509F015C176
:1014D00018968D919C911997681779070CF0D7C1D0
:1014E0001A968D919C91481759070CF0D0C14C2C3D
:1014F000512CB6E0CB9E600D711D11247C876B874B
:10150000161617060CF0C3C1EA2DF0E0FA87E9873A
:1015100093E0EE0FFF1F9A95E1F7F88BEF87CF016D
:10152000840F951F181619060CF0B1C1A98DBA8D3C
:1015300058968C91811104C0BFEABD1508F4D3946C
:10154000A98DBA8DED91FC9111970284F385E02D60
:10155000CD010995B5E0DB9EC0011124E981FA8136
:10156000FC83EB83312C212C9C0128583F4F388F72
:101570002F8B4A2D50E05E8B4D8BEF89F88DE20D5D
:10158000F31D44919E828D82D12CC12C69817A8178
:10159000620D731D7A8B698B842F90E09C8B8B8BF3
:1015A000E98DFA8DA081B18140FF82C0F1E0BF12C8
:1015B0006FC0AF126DC01C96ED91FC912F813885E4
:1015C000A4014C0D5D1D69897A89898D9A8D0995D3
:1015D000EB89FC89F595E7954E2F5FEFC51AD50A83
:1015E0006D817E818D899E89680F791F7E836D83D1
:1015F00098E0C916D10481F6AFEF2A1A3A0AEB81B6
:10160000FC81E40DF51DFC83EB83F5E02F1631041E
:1016100009F0B3CF2F81388526153705B9F0A98D8C
:10162000BA8DED91FC91B1E0BB1257C0AB1255C021
:1016300069817A816B5F7F4F0088F189E02D83019A
:1016400028E030E0A401898D9A8D0995A98DBA8D85
:10165000ED91FC9111970688F789E02DCD016A96EE
:101660000FB6F894DEBF0FBECDBFDF91CF911F91B3
:101670000F91FF90EF90DF90CF90BF90AF909F9031
:101680008F907F906F905F904F903F902F90099434
:101690001E96ED91FC91EF80F88409851A859201E0
:1016A0004D815E816B817C81898D9A8D099590CF6A
:1016B0002F8138852615370509F48ACF31E0B3121A
:1016C00007C0A31205C01C96ED91FC91930178CF41
:1016D0001E96ED91FC917301E0CF6B857C856419BA
:1016E00075090684F785E02D73010F85188992012D
:1016F000A401898D9A8D0995A9CFF9013496949109
:10170000329745915491D91AB7E0DB9E400D511D97
:101710001124F901259134913C8B2B8BFA012590F2
:101720003490FA013296749031963491398B329616
:1017300064903196449041E04C1518F04A1508F039
:101740007FC0662D062C000C770B7C836B83842D69
:10175000042C000C990B9E838D83A98DBA8DED917D
:10176000FC9111970284F385E02DCD010995512C50
:10177000D12CC12CEA2DF0E0FA87E9872B2D30E03F
:101780003C872B87A401440D511D47FC5A95588F67
:101790004F8B69817A81660D711D67FC7A957E8712
:1017A0006D877989C71608F051CF2C2D30E04D8117
:1017B0005E81420F531FA985BA854A9FC0014B9F86
:1017C000900D5A9F900D1124FC01E80DF91DF88B26
:1017D000EF87852D612C4F89588D420F531F5E8BEB
:1017E0004D8B671408F050C044244394480E877012
:1017F00041F4C1010196EB89FC89E20DF31DD490FF
:101800001C01D7FE19C0A98DBA8DED91FC91662DF2
:1018100070E0B1E0BB1219C0AB1217C02D853E8538
:10182000620F731F0484F585E02D2F8138854D8963
:101830005E89898D9A8D0995DD0C6394842DD1CFB5
:101840001E821D821C821B8288CF4B815C81640FAB
:10185000751FAB85BC856A9FC0016B9F900D7A9FF9
:10186000900D112469817A81680F791F0684F785AC
:10187000E02DEF80F88409851A859D014F855889F0
:10188000898D9A8D0995D8CF570CC3948ACF6A96C3
:101890000FB6F894DEBF0FBECDBFDF91CF911F9181
:1018A0000F91FF90EF90DF90CF90BF90AF909F90FF
:1018B0008F907F906F905F904F903F902F90089502
:1018C0008F929F92AF92CF92EF92FF920F931F93BE
:1018D000CF93DF93EC01262F898D9A8D009709F025
:1018E00051C06A30D1F41D861C868D8948E0849FE2
:1018F000900111248E859F85820F931F9F878E876D
:1019000081E090E0DF91CF911F910F91FF90EF90D8
:10191000CF90AF909F908F9008956D3089F3CC88D1
:10192000AD888F898823C1F08C859D8536E0C39E64
:10193000800D911D1124488559854817590764F475
:101940004E855F851D861C8638E0A39EC00111244C
:10195000840F951F9F878E87EA88FB8808891989DD
:101960004E855F856C857D85CE010E943B0A2C8962
:101970008C859D8546E0249F800D911D11249D87B7
:101980008C87BECF6A3069F41D861C86FC013896B0
:10199000E4912D898E859F85E29F800D911D1124F4
:1019A000ADCF6D3009F4ACCFFC01349634916317A0
:1019B00008F4A6CF3296E491E61708F4A1CFFC0113
:1019C000329685909490462F431B342F47E0349FE6
:1019D000800C911C1124F401329634913196E491DB
:1019E0003323A9F1EE2399F1CC88F4013596E491E3
:1019F000AD884F89442301F10E2E000CFF0BE30F3D
:101A0000F11DCE9EA001CF9E500D11246C857D85C9
:101A1000460F571F68857985641775076CF44E85E6
:101A20005F851D861C86FC013896E491AE9E400DB4
:101A3000511D11245F874E87EA88FB880889198920
:101A40004E855F856C857D85CE010E943B0AF40141
:101A50003496E4912C898C859D85E29F800D911DA3
:101A600011248DCF6F927F928F929F92AF92BF92EF
:101A7000CF92DF92EF92FF920F931F93CF93DF935A
:101A8000EC016B015A0139014801E881F9810284B6
:101A9000F385E02D0995E881F9810288F389E02D2D
:101AA00087019301A501B601CE010995A501480D55
:101AB000591D41505109E881F9810288F389E02DCF
:101AC0009301B601CE010995E881F9810088F18979
:101AD000E02D9401A501B601CE010995C60CD71CD5
:101AE000B60161507109E881F9810088F189E02D22
:101AF0009401A501CE010995E881F9810688F7894D
:101B0000E02DCE01DF91CF911F910F91FF90EF90CB
:101B1000DF90CF90BF90AF909F908F907F906F900D
:101B200009946F927F928F929F92AF92BF92CF92C1
:101B3000DF92EF92FF920F931F93CF93DF935C019D
:101B4000EB016A01490138018701DC01ED91FC914B
:101B50006217730719F5641675062CF0962D872DFC
:101B60003A01C92ED82E9601261937092F5F3F4F0B
:101B7000048CF58DE02DA301BE01C5010995DF910F
:101B8000CF911F910F91FF90EF90DF90CF90BF907A
:101B9000AF909F908F907F906F9008954615570556
:101BA00091F42617370724F0892D4B01C22FD82F27
:101BB0009E01281939092F5F3F4F068CF78DE02DC4
:101BC000A601B401DACF0284F385E02D0995D50191
:101BD000ED91FC910488F589E02D83019401A60123
:101BE000BE01C5010995D501ED91FC910688F789E3
:101BF000E02DC501DF91CF911F910F91FF90EF90E4
:101C0000DF90CF90BF90AF909F908F907F906F901C
:101C10000994EF92FF920F931F93DC011A960D9196
:101C20001C911B9718962D913C911997ED91FC9161
:101C300000A0F1A1E02D7B0150E040E070E060E009
:101C400009951F910F91FF90EF9008954F925F9229
:101C50006F927F928F929F92AF92BF92CF92DF92BC
:101C6000EF92FF920F931F93CF93DF936C012B01A1
:101C70005A0139014801DC01ED91FC910284F385A0
:101C8000E02D0995E201640C751CD601ED91FC91E3
:101C9000C615D7055CF40088F189E02D8701940111
:101CA000A501BE01C60109952196EFCF0688F789E7
:101CB000E02DC601DF91CF911F910F91FF90EF9022
:101CC000DF90CF90BF90AF909F908F907F906F905C
:101CD0005F904F9009948F929F92AF92BF92CF9254
:101CE000DF92EF92FF920F931F93CF93DF93EC015C
:101CF0005B014A016901E881F9810284F385E02DE5
:101D0000099595012C0D3D1D21503109E881F9817E
:101D10000488F589E02D78018401A401B501CE0184
:101D20000995E881F9810688F789E02DCE01DF91D8
:101D3000CF911F910F91FF90EF90DF90CF90BF90C8
:101D4000AF909F908F9009948F929F92AF92BF9285
:101D5000CF92DF92EF92FF920F931F93CF93DF9377
:101D6000EC015B014A0169017801E881F981028493
:101D7000F385E02D0995C80CD91C86010150110985
:101D8000E881F9810488F589E02D9501A401B50168
:101D9000CE010995E881F9810688F789E02DCE0109
:101DA000DF91CF911F910F91FF90EF90DF90CF9037
:101DB000BF90AF909F908F900994EF92FF920F93F6
:101DC0001F93DC01ED91FC9100A0F1A1E02D09959C
:101DD0001F910F91FF90EF9008950F931F93DC01D7
:101DE000ED91FC91068CF78DE02D09951F910F91D7
:101DF00008950F931F93DC01ED91FC91048CF58DF8
:101E0000E02D09951F910F910895DC01ED91FC9152
:101E10000084F185E02D09943F924F925F926F927A
:101E20007F928F929F92AF92BF92CF92DF92EF926A
:101E3000FF920F931F93CF93DF935C017B014A01C5
:101E40006901390187E0680E711C93E0759467940D
:101E50009A95E1F72B01400E511E10E000E0312C65
:101E6000D0E0C0E0CE0187709927330C892B59F45C
:101E7000FE0183E0F595E7958A95E1F7E00FF11F04
:101E8000E80DF91D349037FE0AC021E030E0A701CB
:101E9000B5016C0F7D1F8CEA93E00E94050F21961F
:101EA000CC16DD06F9F68FEFE81AF80A060D171DB5
:101EB000E414F504A9F6DF91CF911F910F91FF90E3
:101EC000EF90DF90CF90BF90AF909F908F907F90DA
:101ED0006F905F904F903F9008952F923F924F9256
:101EE0005F926F927F928F929F92AF92BF92CF92AA
:101EF000DF92EF92FF920F931F93CF93DF9300D067
:101F000000D000D0CDB7DEB73C016A013E832D83FF
:101F1000FC82EB825801A41AB50AB7FE03C0B19443
:101F2000A194B1088D809E80861A970A97FE03C0FF
:101F30009194819491088A149B045CF0902F812FD6
:101F40000D811E819D838E839C2D8D2D6B01692FAC
:101F5000782F0C151D055CF09D818E817E836D832D
:101F6000692F782F902F812F8601C92ED82E160128
:101F7000201A310A2B012D813E81421A530A57FE45
:101F800003C0519441945108710137FE03C03FEFE3
:101F9000E31AF30AF594E7948D819E8186179707DB
:101FA0005CF5A1E0B0E0BA83A983C016D1064CF17C
:101FB000D301ED91FC910484F585E02D2B813C81CA
:101FC000A8016D817E818A149B041CF04D815E8185
:101FD000B801C3010995E418F508F7FE0AC02D8180
:101FE0003E8189819A81280F391F3E832D83E20C1F
:101FF000F31C0F5F1F4FD9CF2FEF3FEF3A83298399
:10200000D4CF26960FB6F894DEBF0FBECDBFDF91BA
:10201000CF911F910F91FF90EF90DF90CF90BF90E5
:10202000AF909F908F907F906F905F904F903F9078
:102030002F900895EF92FF920F931F93CF93DF930A
:10204000EC01EC80FD806E157F050CF070C057FF31
:1020500004C0240F351F50E040E08E819F81FA01BB
:10206000E20FF31F8E179F071CF49C01241B350BF6
:10207000121613060CF05BC0922F842F869586955E
:1020800086958E9DD0018F9DB00D11246A0F7B1F08
:10209000AF8DB8A1A60FB71F477049F188E0841B28
:1020A000482F682F70E0FB01E059FF4FE49128179B
:1020B00008F063C0621B71092FEF30E002C0359554
:1020C00027956A95E2F7E2230130110539F0B0F166
:1020D0000230110561F58C91E82702C08C91E82B44
:1020E000EC93941720F12C813D81A20FB31FE92FAF
:1020F000E41BE83078F00230110521F58E2F9C9119
:1021000090959C932C813D81A20FB31F88508830FD
:10211000B0F7E770EE2359F0F0E0E859FF4FE49193
:1021200001301105F9F010F10230110519F1DF91BC
:10213000CF911F910F91FF90EF900895E0958C91B2
:10214000E823CECF81E00115110509F480E08195E7
:102150009E2F8C932C813D81A20FB31F98509830F5
:10216000C0F7D7CF8C91E82BEC93E1CFE0958C9121
:10217000E823FACF8C91E827F7CF0130110509F455
:10218000ADCFE0F20230110509F4A5CFAE0DBF1DB1
:10219000AECF0F931F93CF93DF9377FF04C0260F2B
:1021A000371F70E060E0DC011496CD91DC91FB01FB
:1021B000E20FF31FCE17DF071CF49E01261B370B1F
:1021C000121613064CF5FA0157FD3796A3E0F59564
:1021D000E795AA95E1F7EC9FD001ED9FB00DFC9F2C
:1021E000B00D11246A0F7B1FDC015F96ED91FC910D
:1021F000E60FF71F4770552781E090E001C0880F78
:102200004A95EAF7482F0130110559F0A8F02E0F32
:102210003F1F02301105E1F0DF91CF911F910F9127
:1022200008952E0F3F1FE217F307B1F38191DF01ED
:102230001197842B8C93F7CF80952E0F3F1FE217B9
:10224000F30751F39191DF01119798239C93F7CFF6
:10225000E217F30709F38191DF01119784278C932B
:10226000F7CF0F931F93FA01DC0156964C915697C6
:102270004230E9F04330A1F1413061F514964D91BF
:102280005C91DA01AE1BBF0BFD01E21BF30B77FD86
:102290000BC0DC0116964D915C916417750724F410
:1022A000AB01BF010E94C9101F910F9108951496B0
:1022B0004D915C91DA01A61BB70BBD01615071090C
:1022C000DC0116964D915C91DA01AE1BBF0BFD014E
:1022D000E21BF30B77FDE8CFAF010E941A10E4CFA9
:1022E00016964D915C91DA01A61BB70BBD016150AA
:1022F0007109CDCF0F931F93FA01DC0156964C91D3
:1023000056974230A9F0433091F1413019F51496B7
:102310004D915C91DA01AE1BBF0BFD013197F7FDCA
:1023200004C0AB01BF010E941A101F910F910895C4
:1023300014964D915C91DA01A61BB70BBD01DC012F
:1023400016964D915C91DA01AE1BBF0BFD013197E2
:10235000621B730BF7FDE9CFDC0116964D915C9182
:10236000E417F50714F7AF010E94C910DECF1696E7
:102370004D915C91DA01A61BB70BBD01621B730B7B
:10238000CECFFC0177FD64C0808591856817790701
:102390000CF05EC057FD5CC08285938548175907D5
:1023A0000CF056C086898230B1F0833029F181303B
:1023B00041F484819581841B950BAB01BC01615074
:1023C00071092130310509F108F443C0223031058B
:1023D00009F463C0089584819581DC01A61BB70BC5
:1023E000BD016150710986819781DC01A41BB50B89
:1023F000AD0141505109E5CF86819781861B970B2E
:10240000BA01AC0141505109DCCFCA0157FD079612
:10241000A3E095958795AA95E1F7A481B5818A9F58
:1024200090018B9F300D9A9F300D1124620F731F06
:10243000078CF0A1E02DE60FF71F4770552721E02C
:1024400030E001C0220F4A95EAF78081822B808319
:102450000895CA0157FD079633E0959587953A95FB
:10246000E1F7A481B5818A9F90018B9F300D9A9FDF
:10247000300D1124620F731F078CF0A1E02DE60FC1
:10248000F71F4770552781E090E001C0880F4A95FB
:10249000EAF7809590818923DACFCA0157FD079624
:1024A00023E0959587952A95E1F7A481B5818A9FC8
:1024B00090018B9F300D9A9F300D1124620F731F76
:1024C000078CF0A1E02DE60FF71F4770552721E09C
:1024D00030E001C0220F4A95EAF780818227B7CF0A
:1024E00008958EBD00000DB407FEFDCF8EB5089592
:1024F000EF92FF920F931F93CF93DF937C01C62F30
:102500008091C9039091CA03009709F459C02091A2
:10251000CD0331E0309302032093010310920003B6
:102520001092FF02DC01ED91FC910190F081E02D11
:1025300060E009958701EE24E394F12CD1E0C150CD
:102540008091C9039091CA03CF3F91F1B0E2EB169D
:10255000F104D8F00E943E098091C9039091CA030A
:102560002091CD03D0930203209301031092000326
:102570001092FF02DC01ED91FC910190F081E02DC1
:1025800060E00995EE24E394F12C8091C9039091C9
:10259000CA03F8016491DC01ED91FC910190F08196
:1025A000E02D0995BFEFEB1AFB0A0F5F1F4FC7CF56
:1025B000DF91CF911F910F91FF90EF900C943E0906
:1025C000E091D903F091DA0390818091DF03809547
:1025D000892380838701C15008F438C0F8018491B1
:1025E0002091C7033091C803232B29F00E94711258
:1025F0000F5F1F4FF0CF28E030E040E8E091D503B7
:10260000F091D6039091DD03582F5423D9F05081D7
:10261000952B9083E091D703F091D803908150914E
:10262000DE03952B9083E091D703F091D80350817E
:102630009091DE0390959523908346952150310922
:10264000E9F6D6CF508190959523E3CFDF91CF91D6
:102650001F910F91FF90EF9008951F93CF93DF93F9
:10266000EC018D8D9E8D009721F1162F29A131E06F
:102670003093020320930103109200031092FF0293
:10268000DC01ED91FC910190F081E02D60E0099575
:102690008D8D9E8DDC01ED91FC910190F081E02DFE
:1026A000612F09958D8D9E8DDF91CF911F910C9497
:1026B0003E09ADA5BEA59C918BA9809589238C93DD
:1026C0008B8D9C8D892B31F0862FDF91CF911F91BF
:1026D0000C94711228E030E080E8A9A5BAA599A968
:1026E000462F4823C1F04C91942B9C93ABA5BCA5DD
:1026F0009C914AA9942B9C93ABA5BCA54C919AA9FB
:10270000909594239C9386952150310931F7DF9160
:10271000CF911F9108954C9190959423E6CF8CBD55
:102720009DBD08951F93CF93DF93EC01162F8D8DE0
:102730009E8D892BB1F12DA93EA94FA958AD60E01E
:1027400074E284EF90E00E94E023205131094109B6
:10275000510956954795379527952093B80066EA15
:10276000111167EACE010E942D138D8D9E8D892B4C
:1027700041F129AD3AAD4BAD5CAD60E074E284EF60
:1027800090E00E94E02320513109410951095695FA
:102790004795379527952093B800DF91CF911F91EA
:1027A00008958B8D9C8D892B21F08EAD9FAD0E945D
:1027B0008F13EFA5F8A990818CA980958923808338
:1027C000CECFEFA5F8A980819CA9892B8083E5CF86
:1027D000ECEEF3E081859285A385B4850196A11D79
:1027E000B11D81879287A387B4870895E9E0F4E05B
:1027F00081859285A385B4850196A11DB11D818730
:102800009287A387B4870895CF92DF92EF92FF92C9
:102810000F931F93CF93DF93EC012D853E854F855A
:10282000588969897A898B899C890E9402246B0165
:102830007C010B8D1C8D20E030E0A9010E94E12479
:102840001816ECF40F5F1F4F1C8F0B8F8B8D9C8D18
:102850008F3F910529F024F08FEF90E09C8F8B8FB4
:102860008B8D9C8D97FF02C01C8E1B8EDF91CF91AC
:102870001F910F91FF90EF90DF90CF90089520E08F
:1028800030E0A901C701B6010E94822287FFDECF96
:1028900001501109D9CF0F931F93CF93DF938C0170
:1028A000EB01FC0180811C161D0694F070E060E0D5
:1028B000209771F00E943E06662777276C1B7D0BE0
:1028C000F8018181DF91CF911F910F910C943E0609
:1028D0000E943E0670E060E0F3CFCF92DF92EF926D
:1028E000FF920F931F93CF93DF93FC01C588D68887
:1028F000E788F08CC18DD28DCE14DF0409F5838D6D
:10290000948DC817D907BCF42196D28FC18F818DC1
:10291000928DC89EB001C99E700DD89E700D112475
:10292000CF01DF91CF911F910F91FF90EF90DF903A
:10293000CF900C944B148C179D074CF72197E5CF43
:102940008C0120E030E040EA50E46585768587859B
:1029500090890E94822287FF0CC0CA30D1054CF4B6
:10296000CC9EB001CD9E700DDC9E700D1124C8016F
:10297000D8CFCB30D105ACF02A97F801D28FC18FD8
:10298000818D928D97FF02C0128E118EF801818D7C
:10299000928DE89EB001E99E700DF89E700D112495
:1029A000E6CF2197EACFCF93DF93EC0161E08881F6
:1029B0000E940D0661E089810E940D0662E08A8115
:1029C000DF91CF910C940D0690E080E00895209166
:1029D000B2033091B303C901079697FD079623E030
:1029E000959587952A95E1F72091B0033091B10331
:1029F000829FA001839F500D929F500D112470E083
:102A000060E08091CB039091CC030C94DC26FB0119
:102A100001900020E9F73197AF01461B570BDC010D
:102A2000ED91FC910280F381E02D09948F929F92A9
:102A3000AF92BF920F931F93CF93DF93CDB7DEB7C3
:102A4000A1970FB6F894DEBF0FBECDBF19A24230DA
:102A500008F44AE08E010F5D1F4F842E912CB12C9B
:102A6000A12CA50194010E94E023E62FB901CA011F
:102A7000EA3004F5E05DD801EE938D01232B242B81
:102A8000252B79F790E080E0109729F0BD0183E0D5
:102A900093E00E940715A1960FB6F894DEBF0FBE13
:102AA000CDBFDF91CF911F910F91BF90AF909F90BD
:102AB0008F900895E95CDFCFCF92DF92EF92FF9283
:102AC000CF93DF936B017C016DE283E093E00E9482
:102AD000E607EC0166277727CB016C197D098E0983
:102AE0009F094AE00E9416158C0F9D1FDF91CF9120
:102AF000FF90EF90DF90CF900895CF93DF93BC01CC
:102B000083E093E00E940715EC0166E671E083E044
:102B100093E00E9407158C0F9D1FDF91CF910895C0
:102B20000E94CE260F931F93CF93DF938C01EB016E
:102B3000FC01808191810097E1F0688179816115C4
:102B40007105A9F0428153812C813D8142175307C1
:102B500070F00E94F7268C819D81F8019583848313
:102B60001D821C82DF91CF911F910F9108950E94C9
:102B7000882588819981F801918380838A819B814E
:102B8000938382838C819D819583848319821882AB
:102B90001B821A82E5CFCF93DF93EC018881998164
:102BA000009711F00E948825198218821D821C82CC
:102BB0001B821A82DF91CF910895FC01808191815F
:102BC000009711F00C94882508950F931F93CF93CD
:102BD000DF93EC0188819981009759F02A813B812C
:102BE0002617370730F081E0DF91CF911F910F91C9
:102BF00008958B016F5F7F4F0E941126009759F057
:102C0000998388831B830A832C813D81232B59F769
:102C1000FC011082E8CF80E0E7CFEF92FF920F93A4
:102C20001F93CF93DF93EC017B018A01BA010E94CD
:102C3000E51581110BC0CE010E94CB15CE01DF91AD
:102C4000CF911F910F91FF90EF9008951D830C83FA
:102C5000B701888199810E94F726F0CFCF93DF9347
:102C6000EC01FB018617970749F0608171816115BE
:102C7000710541F0448155810E940D16CE01DF910E
:102C8000CF9108950E94CB15F9CFFC0111821082DB
:102C90001382128215821482FB0101900020E9F751
:102CA0003197AF01461B570B0C940D1685ED8093A1
:102CB000BC0080916E0290916F02A0917002B09161
:102CC00071020796A11DB11D23E0B695A7959795B2
:102CD00087952A95D1F72091BC0024FD03C010925E
:102CE000B702089540916E0250916F026091700298
:102CF00070917102452B462B472B69F30097A10574
:102D0000B10541F02AE22A95F1F700C00197A10927
:102D1000B109E1CF80916D020C9498081F920F9237
:102D20000FB60F9211242F933F938F939F93AF93DE
:102D3000BF938091F7029091F802A091F902B091AF
:102D4000FA023091F60223E0230F2D3758F5019651
:102D5000A11DB11D2093F6028093F7029093F80213
:102D6000A093F902B093FA028091FB029091FC02C9
:102D7000A091FD02B091FE020196A11DB11D8093AC
:102D8000FB029093FC02A093FD02B093FE02BF9160
:102D9000AF919F918F913F912F910F900FBE0F9008
:102DA0001F90189526E8230F0296A11DB11DD2CFC2
:102DB0001F920F920FB60F9211242F933F934F93B0
:102DC0005F936F937F938F939F93AF93BF93EF9393
:102DD000FF93E0910E01F0910F010995FF91EF91A2
:102DE000BF91AF919F918F917F916F915F914F9123
:102DF0003F912F910F900FBE0F901F9018951F922B
:102E00000F920FB60F9211242F933F934F935F931E
:102E10006F937F938F939F93AF93BF93EF93FF93A2
:102E2000E0910C01F0910D010995FF91EF91BF9197
:102E3000AF919F918F917F916F915F914F913F9152
:102E40002F910F900FBE0F901F9018951F920F9209
:102E50000FB60F9211242F933F934F935F936F936D
:102E60007F938F939F93AF93BF93EF93FF9383E0F1
:102E700093E00E94C407FF91EF91BF91AF919F91A2
:102E80008F917F916F915F914F913F912F910F9013
:102E90000FBE0F901F9018951F920F920FB60F92B2
:102EA00011242F938F939F93EF93FF93E09113033C
:102EB000F09114038081E0911903F0911A0382FDCF
:102EC0001BC0908180911C038F5F8F7320911D0325
:102ED000821741F0E0911C03F0E0ED5FFC4F958F0D
:102EE00080931C03FF91EF919F918F912F910F90F1
:102EF0000FBE0F901F9018958081F4CF1F920F92F4
:102F00000FB60F9211242F933F934F935F936F93BC
:102F10007F938F939F93AF93BF93EF93FF93809192
:102F2000B900887F803609F44AC0F0F5883209F488
:102F3000A7C018F5803109F49BC0B8F4882309F4C0
:102F4000F9C0883009F494C0FF91EF91BF91AF911F
:102F50009F918F917F916F915F914F913F912F91B1
:102F60000F900FBE0F901F901895883109F488C0FC
:102F7000803251F78093B60214C0803409F49DC0AA
:102F800040F48033B9F38833F9F68093B60285ECC8
:102F9000B0C0803509F485C0883509F496C08834FE
:102FA00099F60E945616D0CF883909F48CC038F5AE
:102FB000883729F050F4883611F0803729F683E0FD
:102FC0008093B7021092B50257C0883809F47BC0CD
:102FD000803919F0803809F0B7CF8091B50280327E
:102FE00008F071C0E091B50281E08E0F8093B502C8
:102FF0008091BB00F0E0EB56FD4F80833DC0803BED
:1030000039F0E0F4803A09F479C0883A09F09CCFAD
:1030100084E08093B7021092940210929302E091A0
:10302000E002F091E10209958091930281110FC0B5
:1030300081E0809393021092730209C0803C09F4EE
:10304000A6CF883C09F4A3CF883B09F07DCFE0915F
:10305000940281E08E0F80939402F0E0ED58FD4FD2
:1030600080818093BB00909194028091930229C04B
:103070008091DC028093BB0085EC8093BC0064CF20
:103080009091DB028091DA02981758F5E091DB020B
:1030900081E08E0F8093DB02F0E0E654FD4F8081EB
:1030A000E9CFE091DB0281E08E0F8093DB0280911B
:1030B000BB00F0E0E654FD4F80839091DB028091ED
:1030C000DA029817C8F285E8D8CFE091DB0281E0F8
:1030D0008E0F8093DB028091BB00F0E0E654FD4F41
:1030E00080838091B90281115CCF81E08093B80226
:1030F00084EA8093BC001092B70226CF85EC8093BF
:10310000BC001092B7028091B502803230F4E09199
:10311000B502F0E0EB56FD4F10826091B50270E011
:10312000E091DE02F091DF0285E992E009951092CC
:10313000B5020ACF1092B60234CF1F920F920FB68B
:103140000F9211242F933F938F939F93EF93FF93AD
:1031500080912C0287FF1FC010928500109284007E
:1031600080912C028F5F80932C0280912C0287FF2C
:1031700004C080912C028C30ACF08091840090913E
:103180008500049680349C4990F180918400909150
:10319000850004962EC080912C0287FFE1CF80919C
:1031A0002C02DECF2091840030918500E0912C022A
:1031B0008E2FEE0F990BFC01EE0FFF1FE80FF91F8A
:1031C000E85FFD4F81819281820F931F9093890068
:1031D0008093880080912C02FF91EF919F918F91B5
:1031E0003F912F910F900FBE0F901F90189580E484
:1031F0009CE990938900809388008FEF80932C0244
:10320000EBCFCF92DF92EF92FF920F931F93CF936A
:10321000DF9300D000D000D0CDB7DEB7E3E0F3E01D
:103220001382128288EE93E0A0E0B0E0848395835D
:10323000A683B7832AE131E03183208325EC30E097
:103240003587248724EC30E03787268720EC30E070
:10325000318B208B21EC30E0338B228B22EC30E061
:10326000358B248B26EC30E0378B268B118E128E1B
:10327000138E148E20EAE22E23E0F22EF701138241
:10328000128284839583A683B7838CE291E0918335
:10329000808369E671E0CE0101960E94451668E6DA
:1032A00071E08CE094E00E94451609E014E085E0AE
:1032B000F801808386E0818382E08283BE016F5FB4
:1032C0007F4F8CE094E00E942E16F8011186128642
:1032D00013861486118A128A138A148A128E118E0A
:1032E000148E138E168A158ACC24C394D12CD08EBA
:1032F000C78ACE0101960E94DD1563E771E0CE0119
:1033000001960E94451668E671E08FEE93E00E94F8
:1033100045160CEE13E08AE0F80180838BE0818390
:1033200083E08283BE016F5F7F4F8FEE93E00E9448
:103330002E16F8011186128613861486118A128AB7
:10334000138A148A128E118E148E138E168A158A81
:10335000D08EC78ACE0101960E94DD15ECEAF3E01B
:103360001382128220E830E03583248380E290E0EB
:10337000978386833187208793878287168A15866D
:1033800014861786168681E0858B848B2FEF3FEF9E
:10339000338B228B318B208B878B108E128E118E6C
:1033A000148E138EF68EE58E10A2178E8FEF84A3E7
:1033B00085A386A387A380A780E586AF17AE8EE39B
:1033C00091E09183808326960FB6F894DEBF0FBEFE
:1033D000CDBFDF91CF911F910F91FF90EF90DF90C4
:1033E000CF900895CF93DF93CDB7DEB7E1970FB6B7
:1033F000F894DEBF0FBECDBF789484B5826084BDE3
:1034000084B5816084BD85B5826085BD85B58160E8
:1034100085BD80916E00816080936E001092810066
:103420008091810082608093810080918100816021
:1034300080938100809180008160809380008091E2
:10344000B10084608093B1008091B000816080936E
:10345000B00080917A00846080937A0080917A0035
:10346000826080937A0080917A00816080937A00F4
:1034700080917A00806880937A001092C100E09178
:103480001303F091140382E08083E0910F03F09125
:1034900010031082E0911103F091120380E1808308
:1034A00010921B03E0911703F091180386E08083CC
:1034B000E0911503F0911603808180618083E09193
:1034C0001503F0911603808188608083E0911503D5
:1034D000F0911603808180688083E0911503F0915C
:1034E000160380818F7D808389E094E00E94D3144D
:1034F0008CEE93E00E94D31480910B04823009F487
:1035000061C0833009F060C081E066EF73E10E9422
:1035100071058091EE03823009F458C0833009F0C0
:1035200057C081E068EE73E10E94710584E690E087
:10353000A0E0B0E08093000190930101A09302010C
:10354000B09303018093040190930501A0930601B9
:10355000B09307018AE090E0A0E0B0E0809308011A
:1035600090930901A0930A01B0930B018091CB03C2
:103570009091CC03892B71F52091B2033091B30364
:10358000C901079697FD0796B3E095958795BA957B
:10359000E1F72091B0033091B103AC01429FC0012B
:1035A000439F900D529F900D11240E94EC24909304
:1035B000CC038093CB03892B69F48EE791E00E94C2
:1035C0007D15FFCF80E0A1CF8FEF9FCF80E0AACF06
:1035D0008FEFA8CF0E94E7142091B2033091B3037C
:1035E0008091B0039091B103B901213231050CF4FF
:1035F000DEC16054710977FF02C06F5F7F4F759520
:1036000067958255910997FD019600E410E022E547
:1036100030E04EE657E0959587950E940C0F82E0CA
:103620008093CE038091C9039091CA03892B09F43A
:10363000D1C18CE38093CD031092E3021092E20299
:10364000109200031092FF020E947A0880E197E036
:103650009093E1028093E00281E197E09093DF0292
:103660008093DE028091D40387FD1EC061E00E943A
:103670000D0661E08091D4030E94DF0561E070E0F7
:1036800080E090E00E94C00660E08091D4030E9438
:10369000DF056AE070E080E090E00E94C00661E033
:1036A0008091D4030E94DF058091C9039091CA03E1
:1036B000892B09F44EC22091E1033091E20340913D
:1036C000E3035091E40360E074E284EF90E00E9431
:1036D000E023205131094109510956954795379505
:1036E00027952093B80064E08AE895E00E9478125C
:1036F0006091B20361508CEA93E00E942D1364E064
:1037000086E895E00E9478128091CE0360E18130D6
:1037100009F064E18CEA93E00E942D1364E082E8F2
:1037200095E00E9478128FE88093E9038091B003BE
:103730009091B1038038910509F022C28091B203C3
:103740009091B3038034910509F02AC28091CE0391
:10375000813009F038C28FE98093E90312E16AED04
:103760008CEA93E00E942D13612F8CEA93E00E9473
:103770002D1361E88CEA93E00E942D136091E90318
:103780008CEA93E00E942D1369ED8CEA93E00E948D
:103790002D138091CE0362E2813009F061EF8CEA53
:1037A00093E00E942D1366E08CE795E00E9478126A
:1037B0008091C9039091CA03892B09F406C2209114
:1037C000E5033091E6034091E7035091E80360E0A0
:1037D00074E284EF90E00E94E02320513109410916
:1037E000510956954795379527952093B80060ED78
:1037F00077E080E090E00E94C00681E08093C00303
:103800008093C10381E090E09093BF038093BE0357
:103810009093BD038093BC0369E971E0CE010196EA
:103820000E9445160E94E7141092B9031092B80343
:1038300085E090E09093BB038093BA034D815E8155
:1038400069817A818CEA93E00E94140766E671E050
:103850008CEA93E00E9407158091C9039091CA03F6
:10386000892B09F4BCC12091E1033091E20340911E
:10387000E3035091E40360E074E284EF90E00E947F
:10388000E023205131094109510956954795379553
:1038900027952093B80064E088E795E00E947812AD
:1038A0008091B0039091B1038034910509F0AEC1CD
:1038B00060E28CEA93E00E942D136091B003615E98
:1038C0008CEA93E00E942D132091B2033091B30350
:1038D000C901079697FD079623E0959587952A9548
:1038E000E1F72091B0033091B103829F7001839F73
:1038F000F00C929FF00C11240091CB031091CC039B
:103900008091C9039091CA03E00EF11E009709F45B
:103910001CC22091CD0331E03093020320930103B8
:10392000109200031092FF02DC01ED91FC910190D6
:10393000F081E02D60E40995680101E010E0AA241F
:10394000A3948091C9039091CA03EC14FD0409F477
:1039500066C100321105D0F00E943E098091C90372
:103960009091CA032091CD03A092020320930103FA
:10397000109200031092FF02DC01ED91FC91019086
:10398000F081E02D60E4099501E010E08091C90329
:103990009091CA03F60161916F01DC01ED91FC91F8
:1039A0000190F081E02D09950F5F1F4FCACF605243
:1039B000710977FF02C06F5F7F4F759567958357D9
:1039C000910997FD019600E210E023E730E04EE810
:1039D00055E021CE61E08091D2030E940D0661E0A6
:1039E0008091D3030E940D068091D203082E000C13
:1039F000990BFC01E45BF54FE491F0E0EE0FFF1F43
:103A0000E85CF54F259134913093DA032093D90384
:103A1000FC01E05AF54FE491E093DF038091D3037A
:103A2000082E000C990BFC01E45BF54FE491F0E0EB
:103A3000EE0FFF1FE85CF54FA591B491B093DC0346
:103A4000A093DB03FC01E05AF54FE491E093E0031F
:103A50008C91E82BEC938091C7039091C803892B3C
:103A600009F434C01FB7F8948091DD02811127C09A
:103A7000E6E5FAE08491EAE6FAE09491E82FF0E0D6
:103A8000EE0FFF1FE25DF54FA591B491EC91E92394
:103A900021F461E08AE00E94DF0561E08AE00E9493
:103AA0000D068CB580618CBD8CB580648CBD61E0E9
:103AB0008DE00E940D0661E08BE00E940D06809172
:103AC000DD028F5F8093DD021FBFCCCD61E080916E
:103AD000D0030E940D0661E08091D1030E940D0683
:103AE0008091D003082E000C990BFC01E45BF54F8C
:103AF000E491F0E0EE0FFF1FE85CF54F2591349163
:103B00003093D6032093D503FC01E05AF54FE4919E
:103B1000E093DD038091D103082E000C990BFC018A
:103B2000E45BF54FE491F0E0EE0FFF1FE85CF54F2A
:103B3000A591B491B093D803A093D703FC01E05AA8
:103B4000F54FE491E093DE038C91E095E823EC934C
:103B500089CD8091C7039091C803892B31F0809162
:103B6000EA039091EB030E948F13E091DB03F09145
:103B7000DC0390818091E003809589238083B3CD1D
:103B80008036910589F48091B2039091B3034097F8
:103B900039F48091CE03813029F480E18093E903E8
:103BA00012E0DDCD8FEAFACF80349105C9F780911C
:103BB000B2039091B303809799F78091CE0381303F
:103BC00011F480E1C9CD8FECC7CDE091DB03F0911A
:103BD000DC0380819091E003892B808308CE809163
:103BE000C7039091C803892B31F08091EA0390912B
:103BF000EB030E948F13E091DB03F091DC039081D3
:103C00008091E00380958923808345CE60E08CEA33
:103C100093E00E942D136091B003615051CE0E9439
:103C20003E098091C9039091CA03892B09F4D5C03C
:103C30002091E5033091E6034091E7035091E803BA
:103C400060E074E284EF90E00E94E02320513109AB
:103C50004109510956954795379527952093B80006
:103C6000CE0101960E94DD151092E5021092E40249
:103C700010921A0410921B0410921C0410921D043E
:103C800010921F0410921E041092FD031092FE0366
:103C90001092FF031092000410920204109201048B
:103CA00070E060E0809109040E943E0670E060E0F0
:103CB00080910A040E943E0670E060E08091EC036F
:103CC0000E943E0670E060E08091ED030E943E0697
:103CD0003E01FFE16F0E711C9E012F5F3F4F690196
:103CE000890168E671E0C8010E9445160A5F1F4F0E
:103CF00060167106B1F783E093E00E94A407892B58
:103D000009F4D4C068E671E0CE018B960E94451696
:103D10000E9464070FA518A997FD69C08F8F18A28C
:103D20000F5F1F4FB801CE018B960E94E5158823C7
:103D300079F32BA53CA58FA598A9B301820F931FFA
:103D40000E94F72618AB0FA7E3CFE091D903F091BB
:103D5000DA0380819091DF03892B80830E151F0584
:103D600009F45FCF6801BFEFCB1ADB0AF80180814D
:103D70002091C7033091C803232B21F00E947112B8
:103D80008601ECCF28E030E040E8E091D503F091E7
:103D9000D6039091DD03582F5423D9F05081952BF1
:103DA0009083E091D703F091D80390815091DE0386
:103DB000952B9083E091D703F091D8035081909197
:103DC000DE03909595239083469521503109E9F6BD
:103DD000D7CF508190959523E3CFE091DB03F0910D
:103DE000DC0380819091E003892B808339CFABA4E1
:103DF000BCA4A114B10429F075010115110509F045
:103E000004C28FA598A9892B09F4BBC26EEA71E0A0
:103E100083E093E00E9407154FA558A96BA57CA5E8
:103E200083E093E00E94140766E671E083E093E08C
:103E30000E9407151EA21DA218A61FA21AA619A647
:103E4000BE01655D7F4FCE0185960E942E16912C96
:103E5000812C89A59AA5892B71F0EDA0FEA06AE3BB
:103E600070E0C7010E94E326009729F08C010E192B
:103E70001F0917FF00C226E0289DC001299D900D53
:103E80001124BE016B5D7F4F21E030E02C0F3D1F00
:103E9000820F931F0E942E16CE0185960E94DD157B
:103EA00041E049ABCE018B960E94DD1559A95523FF
:103EB00009F488C08D819E81892B09F483C061EC4F
:103EC00071E089819A810E94EE26892B09F07AC0DF
:103ED0008F819885009709F456C20E943D221B01EC
:103EE0008D859E85009709F452C20E943D226B0188
:103EF00082E090E09093E5028093E402032C000CB2
:103F000044085508C201B1010E9489224B015C019D
:103F100020E030E0A9010E94E12418160CF03BC219
:103F200080921A0490921B04A0921C04B0921D046B
:103F3000A1E0B0E0B0931F04A0931E040D2C000C70
:103F4000EE08FF08C701B6010E9489224B015C01FF
:103F500020E030E0A9010E94E12418160CF043C2D1
:103F60008092FD039092FE03A092FF03B0920004A2
:103F700021E030E030930204209301046AEC71E008
:103F800083E093E00E94071557FE55C2C201B101BC
:103F90000E945C1566E671E083E093E00E940715DD
:103FA00062EE71E083E093E00E940715F7FE49C2DC
:103FB000C701B6010E945C1566E671E083E093E0FC
:103FC0000E940715CE0149960E94DD15CE01439649
:103FD0000E94DD15CE010D960E94DD15CE010796DB
:103FE0000E94DD15CE0101960E94DD150E94F206A9
:103FF0008090000190900101A0900201B090030117
:104000000091E6021091E7022091E8023091E90266
:10401000AB01BC01401B510B620B730B48155905DA
:104020006A057B0508F468C0C0901204D0901304A0
:10403000E0901404F0901504B401990C880B990BCE
:104040000E9489221B012C01C701B6010E94872210
:1040500020E030E040EA51E40E946F2420E030E6A6
:104060004AE657E40E94E822A20191010E946F24CF
:1040700060931604709317048093180490931904A6
:10408000109212041092130410921404109215044A
:104090006091F5037091F6038091F7039091F80316
:1040A0000E94872220E030E040EA51E40E946F2421
:1040B00020E030E64AE657E40E94E822A20191019E
:1040C0000E946F246093F9037093FA038093FB03BB
:1040D0009093FC031092F5031092F6031092F703ED
:1040E0001092F8030E94F2066093E6027093E702D2
:1040F0008093E8029093E9020E94F2060091EA029E
:104100001091EB022091EC023091ED02601B710BDB
:10411000820B930B0091040110910501209106017F
:1041200030910701601771078207930790F089E0CB
:1041300094E00E9404148CEE93E00E9404140E9408
:10414000F2066093EA027093EB028093EC02909384
:10415000ED020E94F2060091EE021091EF02209112
:10416000F0023091F102601B710B820B930B0091F6
:1041700008011091090120910A0130910B0160178B
:1041800071078207930790F089E094E00E946D1414
:104190008CEE93E00E946D140E94F2066093EE0292
:1041A0007093EF028093F0029093F1020E94F20666
:1041B0000091F2021091F3022091F4023091F50285
:1041C000601B710B820B930B683E73408105910558
:1041D00070F08BEF91E00E947D150E94F2066093D3
:1041E000F2027093F3028093F4029093F50280E060
:1041F00090E0892B09F470CD0E94B007882309F460
:104200006BCD0E94000068CD740147013FEF831A17
:10421000930AD7018C91082E000C990B0E947922E9
:10422000892B91F7015011090A0D1B1DF80180819E
:10423000082E000C990B0E947922892B31F00E1563
:104240001F0518F001501109F1CF0F5F1F4FA80192
:104250004E195F0958AB4FA7AE14BF0420F4B70145
:10426000C5010E94D326EBA5FCA58FA598A9E80F50
:10427000F91F1082C6CD68E671E0C3010E944516A1
:1042800089A59AA5009711F178018017910708F484
:104290007C01EDA1FEA1EE0DFF1DB08010826DA18D
:1042A0007EA16115710509F464C0FB010190002035
:1042B000E9F73197AF01461B570BC3010E940D165A
:1042C0008DA19EA1E80EF91ED701BC92B301C601D3
:1042D0000E949215C3010E94DD150F5F1F4FA9A414
:1042E000BAA4A016B10628F09A2D8B2D5801092FDB
:1042F000182F68E671E0C3010E944516E9A4FAA4EC
:10430000AE14BF0410F50E151F0508F47801EDA1D9
:10431000FEA1EE0DFF1D108110826DA17EA16A0D20
:104320007B1D6115710549F1FB0101900020E9F742
:104330003197AF01461B570BC3010E940D168DA18B
:104340009EA1E80EF91EF7011083B301CE018596F8
:104350000E949215C3010E94DD15FFEF8F1A9F0A7C
:1043600026E0C20ED11C35E08316910409F071CD10
:1043700093CDC3010E94CB15A3CFC3010E94CB15DF
:10438000DECF19AA8FCD60E070E0CB01A8CD60E050
:1043900070E0CB01ACCD20E030E0A901C501B40153
:1043A0000E94822287FF12C0D501C401B0588093B9
:1043B0001A0490931B04A0931C04B0931D04EFEF08
:1043C000FFEFF0931F04E0931E04B8CD10921A047F
:1043D00010921B0410921C0410921D0410921F04D2
:1043E00010921E04ABCD20E030E0A901C501B4015C
:1043F0000E94822287FF12C0D501C401B058809369
:10440000FD039093FE03A093FF03B09300044FEFCE
:104410005FEF5093020440930104B0CD1092FD036E
:104420001092FE031092FF031092000410920204F7
:1044300010920104A3CD4AE0C201B1010E941615F9
:10444000A9CD4AE0C701B6010E941615B5CD8EE38D
:1044500091E09093AD038093AC038091CB03909156
:10446000CC03009711F00E9488258FEE93E00E9404
:10447000DD158CE094E00C94DD151F93FC01992769
:104480008827BC01E89411911032E9F3193010F03B
:104490001E30C8F31B3251F01D3249F4689406C037
:1044A0000E946422610F711D811D911D1191105395
:1044B0001A30B0F33EF490958095709561957F4FDA
:1044C0008F4F9F4F1F910895592F482F372F262F19
:1044D000660F771F881F991F660F771F881F991F08
:1044E000620F731F841F951F660F771F881F991F08
:1044F000089591110C945523803219F089508550FC
:10450000C8F708950E94C42208F481E00895E89451
:1045100009C097FB3EF490958095709561957F4F0B
:104520008F4F9F4F9923A9F0F92F96E9BB279395B9
:10453000F695879577956795B795F111F8CFFAF4C9
:10454000BB0F11F460FF1BC06F5F7F4F8F4F9F4FFA
:1045500016C0882311F096E911C0772321F09EE858
:10456000872F762F05C0662371F096E8862F70E0BE
:1045700060E02AF09A95660F771F881FDAF7880F98
:104580009695879597F90895990F0008550FAA0BEE
:10459000E0E8FEEF16161706E807F907C0F0121656
:1045A0001306E407F50798F0621B730B840B950B59
:1045B00039F40A2661F0232B242B252B21F40895AE
:1045C0000A2609F4A140A6958FEF811D811D08954B
:1045D0000E94FB220C946F230E94612338F00E94FA
:1045E000682320F0952311F00C9458230C945E233B
:1045F00011240C94A3230E94802370F3959FC1F390
:10460000950F50E0551F629FF001729FBB27F00D80
:10461000B11D639FAA27F00DB11DAA1F649F6627D5
:10462000B00DA11D661F829F2227B00DA11D621F24
:10463000739FB00DA11D621F839FA00D611D221FDE
:10464000749F3327A00D611D231F849F600D211DC2
:10465000822F762F6A2F11249F5750409AF0F1F045
:1046600088234AF0EE0FFF1FBB1F661F771F881FAE
:1046700091505040A9F79E3F510580F00C9458236B
:104680000C94A3235F3FE4F3983ED4F3869577958B
:104690006795B795F795E7959F5FC1F7FE2B880F54
:1046A000911D9695879597F90895992788270895DC
:1046B00097F99F6780E870E060E008959FEF80ECD5
:1046C000089500240A941616170618060906089578
:1046D00000240A9412161306140605060895092EDE
:1046E0000394000C11F4882352F0BB0F40F4BF2B4D
:1046F00011F460FF04C06F5F7F4F8F4F9F4F08958D
:1047000057FD9058440F551F59F05F3F71F0479582
:10471000880F97FB991F61F09F3F79F08795089567
:10472000121613061406551FF2CF4695F1DF08C086
:10473000161617061806991FF1CF869571056105A3
:1047400008940895E894BB2766277727CB0197F94B
:1047500008952F923F924F925F926F927F928F9225
:104760009F92AF92BF92CF92DF92EF92FF920F9300
:104770001F93CF93DF93CDB7DEB7CA1BDB0B0FB60A
:10478000F894DEBF0FBECDBF09942A8839884888C7
:104790005F846E847D848C849B84AA84B984C8845D
:1047A000DF80EE80FD800C811B81AA81B981CE0F54
:1047B000D11D0FB6F894DEBF0FBECDBFED01089539
:1047C000A1E21A2EAA1BBB1BFD010DC0AA1FBB1F15
:1047D000EE1FFF1FA217B307E407F50720F0A21B87
:1047E000B30BE40BF50B661F771F881F991F1A94F4
:1047F00069F760957095809590959B01AC01BD011E
:10480000CF0108955058BB27AA270E941A240C9460
:104810006F230E94612338F00E94682320F039F44E
:104820009F3F19F426F40C945E230EF4E095E7FB09
:104830000C945823E92F0E94802358F3BA1762077B
:1048400073078407950720F079F4A6F50C94A2234A
:104850000EF4E0950B2EBA2FA02D0B01B90190019B
:104860000C01CA01A0011124FF27591B99F0593FDF
:1048700050F4503E68F11A16F040A22F232F342F27
:104880004427585FF3CF469537952795A795F04075
:104890005395C9F77EF41F16BA0B620B730B840B8A
:1048A000BAF09150A1F0FF0FBB1F661F771F881F42
:1048B000C2F70EC0BA0F621F731F841F48F487959A
:1048C00077956795B795F7959E3F08F0B0CF93958C
:1048D000880F08F09927EE0F9795879508950E9405
:1048E00083240C946F230E94682358F00E94612354
:1048F00040F029F45F3F29F00C94582351110C9497
:10490000A3230C945E230E94802368F39923B1F3C0
:10491000552391F3951B550BBB27AA2762177307E5
:10492000840738F09F5F5F4F220F331F441FAA1F79
:10493000A9F335D00E2E3AF0E0E832D09150504035
:10494000E695001CCAF72BD0FE2F29D0660F771FE3
:10495000881FBB1F261737074807AB07B0E809F0C9
:10496000BB0B802DBF01FF2793585F4F3AF09E3F4E
:10497000510578F00C9458230C94A3235F3FE4F383
:10498000983ED4F3869577956795B795F7959F5F91
:10499000C9F7880F911D9695879597F90895E1E0DD
:1049A000660F771F881FBB1F621773078407BA073C
:1049B00020F0621B730B840BBA0BEE1F88F7E09597
:1049C00008950E94C42208F48FEF0895EE0FFF1F90
:1049D0000590F491E02D09940F931F93CF93DF93EB
:1049E0008230910510F482E090E0E0912804F0918B
:1049F000290430E020E0B0E0A0E0309799F42115E0
:104A0000310509F44AC0281B390B24303105D8F58B
:104A10008A819B816115710589F1FB0193838283F2
:104A2000FE0111C04081518102811381481759074D
:104A3000E0F04817590799F4109761F012960C931B
:104A4000129713961C933296CF01DF91CF911F914D
:104A50000F9108950093280410932904F4CF211591
:104A6000310551F04217530738F0A901DB019A01D3
:104A7000BD01DF01F801C1CFEF01F9CF9093290407
:104A800080932804CDCFFE01E20FF31F8193919311
:104A90002250310939832883D7CF209126043091C1
:104AA0002704232B41F420911201309113013093FC
:104AB0002704209326042091100130911101211523
:104AC000310541F42DB73EB74091140150911501C5
:104AD000241B350BE0912604F0912704E217F3071D
:104AE000A0F42E1B3F0B2817390778F0AC014E5F5E
:104AF0005F4F2417350748F04E0F5F1F5093270470
:104B000040932604819391939FCFF0E0E0E09CCF07
:104B1000CF93DF930097E9F0FC0132971382128262
:104B2000A0912804B0912904ED0130E020E0109715
:104B3000A1F420813181820F931F209126043091AE
:104B400027042817390709F061C0F0932704E09380
:104B50002604DF91CF910895EA01CE17DF07E8F52B
:104B60004A815B819E0141155105B1F7E901FB8343
:104B7000EA8349915991C40FD51FEC17FD0761F4E1
:104B8000808191810296840F951FE9019983888322
:104B9000828193819B838A83F0E0E0E012968D917D
:104BA0009C9113970097B9F52D913C911197CD01E8
:104BB0000296820F931F2091260430912704281714
:104BC000390739F6309751F51092290410922804CC
:104BD000B0932704A0932604BCCFD383C283408123
:104BE0005181840F951FC817D90761F44E5F5F4F3D
:104BF00088819981480F591F518340838A819B8105
:104C0000938382832115310509F0B0CFF0932904F5
:104C1000E09328049ECFFD01DC01C0CF13821282F5
:104C2000D7CFB0E0A0E0E7E1F6E20C94AB238C0133
:104C3000009751F4CB010E94EC248C01C801CDB740
:104C4000DEB7E0E10C94C723FC01E60FF71F9C01DF
:104C500022503109E217F30708F49DC0D901CD9124
:104C6000DC911197C617D70798F0C530D10530F3FE
:104C7000CE0104978617970708F3C61BD70B229718
:104C8000C193D1936D937C93CF010E948825D6CF99
:104C90005B01AC1ABD0A4C018C0E9D1EA09128042C
:104CA000B0912904512C412CF12CE12C109731F5B5
:104CB00080912604909127048815990509F05CC01D
:104CC0004616570608F058C08091100190911101C6
:104CD000009741F48DB79EB7409114015091150192
:104CE000841B950BE817F90708F055C0F0932704CB
:104CF000E0932604F90171836083A0CF8D919C918C
:104D0000119712966C90129713967C901397A81592
:104D1000B90559F56C0142E0C40ED11CCA14DB047C
:104D200020F1AC014A195B09DA011296159780F05F
:104D30006282738251834083D9016D937C93E11425
:104D4000F10471F0D7011396FC93EE93129776CF8E
:104D500022968C0F9D1FF90191838083F301EFCF81
:104D6000F0932904E093280469CF4816590608F403
:104D70002C017D01D3019ACFCB010E94EC247C0150
:104D8000009749F0AE01B8010E94D326C8010E94E5
:104D90008825870153CF10E000E050CF81E090E0FC
:104DA000F8940C94FE26FB01DC0102C001900D92E8
:104DB00041505040D8F70895DC0101C06D93415037
:104DC0005040E0F70895FC018191861721F0882377
:104DD000D9F7992708953197CF010895FB01DC0198
:104DE0008D91019080190110D9F3990B0895FB0161
:104DF000DC0101900D920020E1F7089515E0C5E473
:104E0000D5E004C0FE010E94E6242196C634D107F5
:064E1000C9F7F894FFCF82
:104E1600E8030000E8030000E80300001307130797
:104E260000002A04800000000000E607140741077E
:104E36003308A40750079607000000000F09E20890
:104E4600E4147005DB08C808B90800000000600C0F
:104E56001407E4141207C1117005050FDD0EF90ED3
:104E6600ED0E6D0F7005260A921331117A11260E7A
:104E7600090E910D320D0D0A004C65667457686572
:104E8600656C005269676874576865656C004F4CBD
:104E9600454420696E697469616C697A6174696FE9
:104EA6006E206661696C656400446973706C617933
:104EB60020696E697469616C697A65642E00436F56
:104EC6006D6D616E642072656365697665643A200E
:104ED600005345545350454544006C65667420772D
:104EE6006865656C2052504D2073657420746F3A66
:104EF6002000726967687420776865656C20525077
:104F06004D2073657420746F3A20006C65667420BA
:084F16006F6E2D6C696E6500E1
:00000001FF
