:020000040000FA
:100000000C9463000C948E1D0C94671D0C948B0053
:100010000C948B000C948B000C948B000C948B0034
:100020000C948B000C948B000C948B000C942C1F64
:100030000C948B000C948B000C948B000C948B0014
:100040000C941D1D0C948B000C94DB1D0C94B51DA1
:100050000C948B000C948B000C948B000C948B00F4
:100060000C940D1E0C948B0000000000240027004F
:100070002A0000000000250028002B0000000000DE
:1000800023002600290004040404040404040202DA
:100090000202020203030303030301020408102007
:1000A0004080010204081020010204081020000012
:1000B0000008000201000003040700000000000027
:1000C0000000901FF92A11241FBECFEFD8E0DEBF39
:1000D000CDBF13E0A0E0B1E0E8E7F0E602C0059094
:1000E0000D92AC3AB107D9F727E0ACEAB3E001C012
:1000F0001D92AF35B207E1F710E0C2E6D0E004C0D0
:100100002197FE010E94232EC136D107C9F70E9414
:100110005B200C942F300C940000CF93DF9300D021
:1001200000D0CDB7DEB719821A821B821C8289816A
:100130009A81AB81BC818A3F9105A105B10568F424
:10014000000089819A81AB81BC810196A11DB11DFE
:1001500089839A83AB83BC83EACF80E00F900F90B2
:100160000F900F90DF91CF9108954F925F926F9211
:100170007F928F929F92AF92BF92CF92DF92EF9237
:10018000FF920F931F93CF93F9010FEF1FEF980189
:1001900000831183228333834A015B01B3E0B69469
:1001A000A79497948794BA95D1F76A017B0127E0C9
:1001B000C222DD24EE24FF2495018401C0E0063034
:1001C00011052105310508F041C0C1113FC0DC0116
:1001D000A00FB11F6C91412C512C32018016910659
:1001E000A206B30649F470E00C2C02C07595679521
:1001F0000A94E2F726013701462F50E060FF17C04E
:10020000B901A801A3E0440F551F661F771FAA95E7
:10021000D1F7440E551E661E771E408251826282BF
:100220007382C1E00F5F1F4F2F4F3F4FC8CFBA01FE
:10023000759567954FEF441A540A640A740A48E0AA
:100240004416510461047104B9F6ECCFCF911F91AB
:100250000F91FF90EF90DF90CF90BF90AF909F9065
:100260008F907F906F905F904F9008958230C8F488
:10027000E82FF0E0EE0FFF1FED5FFD4F718360830D
:10028000813041F0809169008C7F826080936900A9
:10029000E89A089580916900837F8860809369005F
:1002A000E99A0895833081F028F4813099F0823002
:1002B000A9F008958730A9F08830C9F08430B1F4EE
:1002C000809180008F7D03C0809180008F77809324
:1002D0008000089584B58F7784BD089584B58F7D9F
:1002E000FBCF8091B0008F778093B000089580910C
:1002F000B0008F7DF9CFCF93DF93282F30E0F90145
:10030000E255FF4F8491F901E656FF4FD491F90170
:10031000EA57FF4FC491CC23A1F081110E945201F2
:10032000EC2FF0E0EE0FFF1FE458FF4FA591B491C2
:10033000EC91ED2381E090E009F480E0DF91CF9132
:10034000089580E090E0FACF1F93CF93DF93282F9A
:1003500030E0F901E255FF4F8491F901E656FF4F75
:10036000D491F901EA57FF4FC491CC23A9F0162F7D
:1003700081110E945201EC2FF0E0EE0FFF1FEE58AA
:10038000FF4FA591B4918FB7F894EC91111108C06B
:10039000D095DE23DC938FBFDF91CF911F9108951D
:1003A000DE2BF8CFCF93DF9390E0FC01E656FF4FB2
:1003B00024918A579F4FFC0184918823D1F090E0CB
:1003C000880F991FFC01E859FF4FA591B491FC01DA
:1003D000EE58FF4FC591D491623071F49FB7F894F5
:1003E0003C91822F809583238C93E8812E2B288348
:1003F0009FBFDF91CF9108958FB7F894EC912E2B8A
:100400002C938FBFF6CF1F93CF93DF93182FEB0161
:1004100061E00E94D201209739F460E0812FDF91E2
:10042000CF911F910C94A401CF3FD10511F461E04D
:10043000F5CFE12FF0E0E255FF4FE491E33031F1E9
:1004400040F4E130B1F0E230E1F0C038D1057CF7A2
:10045000E4CFE73029F1E83059F1E430B1F7809189
:100460008000806280938000D0938B00C0938A00CC
:1004700004C084B5806884BDC7BDDF91CF911F9152
:10048000089584B5806284BDC8BDF7CF8091800097
:10049000806880938000D0938900C0938800EDCF5E
:1004A0008091B00080688093B000C093B300E5CF26
:1004B0008091B00080628093B000C093B400DDCF23
:1004C0003FB7F8948091A9049091AA04A091AB043D
:1004D000B091AC0426B5A89B05C02F3F19F001963A
:1004E000A11DB11D3FBFBA2FA92F982F8827BC018E
:1004F000CD01620F711D811D911D42E0660F771FB6
:10050000881F991F4A95D1F70895CF92DF92EF92F5
:10051000FF92CF93DF93EC016A017B0120E030E092
:10052000A901CB01B6010E94F52D18167CF4C98AE9
:10053000DA8AEB8AFC8A81E090E09E8B8D8BDF91DA
:10054000CF91FF90EF90DF90CF90089520E030E0C2
:10055000A901C701B6010E94462B87FF0BC0F7FA1D
:10056000F094F7F8F094C98ADA8AEB8AFC8A8FEF64
:100570009FEFE3CF198A1A8A1B8A1C8A1E8A1D8A5A
:10058000DECF0895089508950895AF92BF92CF9257
:10059000DF92EF92FF920F931F93CF93DF936C0143
:1005A0007B018B01040F151FEB015E01AE18BF0824
:1005B000C017D10759F06991D601ED91FC910190D6
:1005C000F081E02DC6010995892B79F7C501DF91EE
:1005D000CF911F910F91FF90EF90DF90CF90BF9040
:1005E000AF900895FC01538D448D252F30E0842F6A
:1005F00090E0821B930B541710F0CF96089501974B
:100600000895FC01918D828D981761F0A28DAE0F37
:10061000BF2FB11D5D968C91928D9F5F9F73928FBE
:1006200090E008958FEF9FEF08952FB7F894809191
:10063000AD049091AE04A091AF04B091B0042FBF6F
:100640008093B9049093BA04A093BB04B093BC0404
:1006500081EB94E00E94010397FF26C02FB7F89426
:100660008091AD049091AE04A091AF04B091B0041C
:100670002FBF4091B9045091BA046091BB047091AE
:10068000BC04841B950BA60BB70B4091B50450918D
:10069000B6046091B7047091B80484179507A60753
:1006A000B707B0F28FEF9FEF0895FC01918D828D17
:1006B000981731F0828DE80FF11D858D90E0089537
:1006C0008FEF9FEF0895FC01918D228D892F90E08F
:1006D000805C9F4F821B91098F739927089581EB4E
:1006E00094E00E94630321E0892B09F420E0822F2B
:1006F000089580E090E0892B29F00E946F0381111A
:100700000C9400000895FC01A48DA80FB92FB11D11
:10071000A35ABF4F2C91848D90E001968F73992737
:10072000848FA689B7892C93A089B1898C91837015
:1007300080648C93938D848D981306C00288F3890E
:10074000E02D80818F7D80830895EF92FF920F933B
:100750001F93CF93DF93EC0181E0888F9B8D8C8D6D
:1007600098131AC0E889F989808185FF15C09FB761
:10077000F894EE89FF896083E889F9898081837024
:10078000806480839FBF81E090E0DF91CF911F91D3
:100790000F91FF90EF900895F62E0B8D10E00F5FF4
:1007A0001F4F0F731127E02E8C8D8E110CC00FB6CA
:1007B00007FCFACFE889F989808185FFF5CFCE0162
:1007C0000E948303F1CFEB8DEC0FFD2FF11DE35A57
:1007D000FF4FF0829FB7F8940B8FEA89FB898081E5
:1007E0008062CFCF682F81EB94E00C94A503CF9368
:1007F000DF93EC01888D8823B9F0AA89BB89E88949
:10080000F9898C9185FD03C0808186FD0DC00FB6EE
:1008100007FCF7CF8C9185FFF2CF808185FFEDCF6C
:10082000CE010E948303E9CFDF91CF9108952091FB
:100830003904260F3327331F21323105ECF4209180
:100840005D04FC0190E080E0243069F082E00895CE
:10085000A09139042191AC01475E5B4FA40FB52FE5
:10086000B11D2C930196861798F380913904680F77
:100870006093390480E0089581E0089510925D044A
:1008800081E080935F0410925E0461E082E10E9447
:10089000A40161E083E10E94A401E9EBF0E0808122
:1008A0008E7F808380818D7F808388E48093B800F1
:1008B00085E48093BC000895CF93DF9391E09093FB
:1008C00018048823B9F0C091B800D091BA00809183
:1008D000BC008A7B8093BC0060E082E10E94A4019E
:1008E00060E083E10E94A4010E943E04D093BA001C
:1008F000C093B800DF91CF9108950895E0918A04E4
:1009000080918904E81730F4F0E0ED50FC4F8081CD
:1009100090E008958FEF9FEF089590918A04809161
:1009200089042FEF3FEF981748F4E92FF0E0ED50DE
:10093000FC4F208130E09F5F90938A04C9010895A5
:100940008091890490918A04891B990B0895CF9214
:10095000DF92EF92FF920F931F93CF93DF937C016F
:10096000CB018A012091F203222389F0EB016B0174
:10097000C40ED51ECC15DD0569F06991D701ED9146
:10098000FC910190F081E02DC7010995F3CF642F10
:100990000E941704C801DF91CF911F910F91FF9022
:1009A000EF90DF90CF900895CF93DF931F92CDB754
:1009B000DEB769832091F2032223F9F020918704A6
:1009C000203258F021E030E0FC013383228390E0B4
:1009D00080E00F90DF91CF91089580918804E82FF7
:1009E000F0E0EE52FC4F998190838F5F80938804F2
:1009F0008093870481E090E0ECCF61E0CE01019626
:100A00000E941704F7CFCF92DF92EF92FF920F93DD
:100A10001F93CF93DF93D091870481E0D13208F008
:100A20009CC0C091D1030E9460026B017C01809147
:100A30005D0481116CC082E080935D0481E080934D
:100A40005F048FEF80935C0410928104D093800444
:100A5000A2EDB3E0E0E6F4E080E0D8138DC01092A0
:100A6000820480918204CC0FC82BC09382048091B1
:100A70005E04813009F084C010925E040E9460021E
:100A80006B017C01809182048093BB0080911404EF
:100A900090911504A0911604B0911704892B8A2B0C
:100AA0008B2BA1F00E946002009114041091150498
:100AB00020911604309117046C197D098E099F0945
:100AC000061717072807390708F442C08091BC00B1
:100AD00083FDD8CF85EC8093BC000E9460026B013F
:100AE0007C0180915D04823009F44CC080915C04EB
:100AF0008F3F09F469C080915C04803209F466C0BC
:100B000080915C04803309F463C084E026C0809146
:100B1000140490911504A0911604B0911704892B28
:100B20008A2B8B2B09F483CF0E946002009114045E
:100B30001091150420911604309117046C197D0949
:100B40008E099F09061717072807390708F06FCF86
:100B5000809113040E945C0485E010928804109236
:100B600087041092F203DF91CF911F910F91FF90B4
:100B7000EF90DF90CF9008959D9191938F5F6DCF0F
:100B800085EEA9CF8091140490911504A0911604CC
:100B9000B0911704892B8A2B8B2B09F4A2CF0E94CA
:100BA00060020091140410911504209116043091F4
:100BB00017046C197D098E099F0906171707280766
:100BC000390708F08ECFC4CF80E0C7CF82E0C5CF11
:100BD00083E0C3CF90E080E008958F929F92AF9220
:100BE000BF92CF92DF92EF92FF920F931F93CF931A
:100BF000DF936A014801E70191E09093F20380934B
:100C0000D1031092880410928704E881F981019041
:100C1000F081E02DC70109958C0C9D1CC814D904E6
:100C200059F0E881F9810190F081E02DD6016D91B4
:100C30006D01CE010995F2CFCE010E94030590E02F
:100C400080E0DF91CF911F910F91FF90EF90DF90A7
:100C5000CF90BF90AF909F908F900895EF92FF92AA
:100C60000F931F93CF93DF9300D0CDB7DEB7FC0176
:100C7000EF5BFE4F70813496E080F1804A835983A8
:100C800002E010E020E030E0AE014F5F5F4F872FC1
:100C90000E94ED05892B51F08CEE0F900F90DF91A3
:100CA000CF911F910F91FF90EF90089580E0F5CFC5
:100CB000EF92FF920F931F93CF93DF931F92CDB7C5
:100CC000DEB7FC01EF5BFE4F70813496E080F1806F
:100CD000498301E010E020E030E0AE014F5F5F4F5C
:100CE000872F0E94ED05892B49F08CEE0F90DF9144
:100CF000CF911F910F91FF90EF90089580E0F6CF74
:100D0000EF92FF920F931F93AB01FC01EB5BFE4F41
:100D1000E080F1808F5B9E4F06E010E020E030E045
:100D200060EBFC0180810E94ED05892B31F08CEE97
:100D30001F910F91FF90EF90089580E0F9CFE1E2CD
:100D4000F7E081859285A385B4850196A11DB11D2B
:100D500081879287A387B4870895EEE3F7E08185C2
:100D60009285A385B4850196A11DB11D81879287C7
:100D7000A387B48708958F929F92AF92BF92CF922C
:100D8000DF92EF92FF920F931F93CF93DF93EC01CB
:100D90002D853E854F85588969897A898B899C89FB
:100DA0000E94E02C6B017C010B8D1C8D20E030E05B
:100DB00040E251E40E94F52D18160CF03FC0B80136
:100DC000110F880B990B0E944D2B4B015C0120E009
:100DD00030E040EA50E4C701B6010E94F52D181634
:100DE00034F4C12CD12C80EAE82E80E4F82EA7013F
:100DF0009601C501B4010E94E12C0E94BF2D7C8F99
:100E00006B8F8B8D9C8D8F3F910529F024F08FEF98
:100E100090E09C8F8B8F8B8D9C8D97FF02C01C8EDA
:100E20001B8EDF91CF911F910F91FF90EF90DF907C
:100E3000CF90BF90AF909F908F90089520E030E0CA
:100E4000A901C701B6010E94462B87FFDACFB8017E
:100E5000110F880B990B0E944D2B4B015C0120E078
:100E600030E040EA50ECC701B6010E94462BA701D2
:100E70009601505887FF04C020E030E040EA50E47B
:100E8000C501B4010E94E02CB8CFCF93DF93EC01F1
:100E9000198A1A8A1B8A1C8A1E8A1D8A70E060E0E1
:100EA00088810E94030270E060E08981DF91CF9128
:100EB0000C9403020F931F93CF93DF938C01EB01EC
:100EC000FC0180811C161D06ECF070E060E02097AC
:100ED000C9F00E940302662777276C1B7D0BF8017F
:100EE00081810E940302BE01DD0F880B990B0E94D5
:100EF0004D2BAB01BC01C801DF91CF911F910F9128
:100F00000C9485020E94030270E060E0E8CFCF926B
:100F1000DF92EF92FF920F931F93CF93DF93FC0129
:100F2000C589D689C788D08C018D128DCC15DD0579
:100F3000B1F5238D348D201B310B12161306ECF402
:100F40002630310514F025E030E0200F311F328FBC
:100F5000218F818D928DC89FB001C99F700DD89F40
:100F6000700D1124CF01DF91CF911F910F91FF9050
:100F7000EF90DF90CF900C945A072115310549F37B
:100F80002B3F8FEF380744F0319521953109021B33
:100F9000130B128F018FDDCF25E030E0F8CF7C01FD
:100FA00020E030E040EA50E46585768587859089C9
:100FB0000E94462B87FF0CC00A3011054CF4C09FDD
:100FC000B001C19F700DD09F700D1124C701CBCF10
:100FD0000B301105B4F00A501109F701128F018F7F
:100FE000818D928D97FF02C0128E118EF701818D37
:100FF000928DC89EB001C99E700DD89E700D1124AF
:10100000E5CF01501109E9CFCF93DF93EC0161E007
:1010100088810E94D20161E089810E94D20162E050
:101020008A81DF91CF910C94D2014F925F926F929F
:101030007F928F929F92AF92BF92CF92DF92EF9268
:10104000FF920F931F93CF93DF93D82F6A0148012C
:1010500081E08093F203D093D10310928804109220
:101060008704D701ED91FC910190F081E02DC7013B
:101070000995C7010E9403050E9460022B013C01F3
:1010800080915D04811166C0C82D81E080935D046C
:1010900080935F049FEF90935C0410928104980DFD
:1010A000909380048093820480918204DD0FD82B7A
:1010B000D093820480915E04813009F086C0109242
:1010C0005E040E9460022B013C01809182048093A7
:1010D000BB008091140490911504A0911604B09166
:1010E0001704892B8A2B8B2BA1F00E9460020091A0
:1010F00014041091150420911604309117046419FA
:10110000750986099709061717072807390708F48C
:1011100042C08091BC0083FDD8CF85EC8093BC0099
:101120000E9460022B013C0180915D04813009F432
:101130004EC0809181048C1710F4C0918104E0E6C8
:10114000F4E0A3EFB3E080E08C1751F191919D930F
:101150008F5FFACF8091140490911504A09116042A
:10116000B0911704892B8A2B8B2B09F489CF0E940D
:10117000600200911404109115042091160430911E
:1011800017046419750986099709061717072807B0
:10119000390708F075CF809113040E945C04C0E009
:1011A00010928A04C09389048C0C9D1CC814D90425
:1011B00081F1D701ED91FC910284F385E02DC70107
:1011C0000995F60181936F01F1CF85EEA7CF80914C
:1011D000140490911504A0911604B0911704892B62
:1011E0008A2B8B2B09F4A0CF0E946002009114047B
:1011F0001091150420911604309117046419750993
:1012000086099709061717072807390708F08CCFB2
:10121000C2CF90E080E0DF91CF911F910F91FF90BE
:10122000EF90DF90CF90BF90AF909F908F907F9086
:101230006F905F904F9008952F923F924F925F92E0
:101240006F927F928F929F92AF92BF92CF92DF92D6
:10125000EF92FF920F931F93CF93DF93CDB7DEB73B
:101260002F970FB6F894DEBF0FBECDBF9C878B873C
:101270006D875F874E873901170128012F823886D5
:1012800049865A8610E000E0EE24E394F12C0A151A
:101290001B0509F461C09E01295F3F4FB201A10106
:1012A0008E859F850E94B5004F81588569857A8516
:1012B0004F3F2FEF52076207720709F49CC0DB0112
:1012C000CA018C549F4FAF4FBF4FE6E0B695A7952C
:1012D00097958795EA95D1F7880F991F880F991FE1
:1012E000835F9D4F21E0FC0180819181A281B381C8
:1012F000892B8A2B8B2B09F420E0FD85F2137BC010
:101300001A012B0133E056944794379427943A9569
:10131000D1F7DB01CA0187709927AA27BB2726E0EE
:10132000221631044104510468F4F301E20DF31D67
:10133000970102C0220F331F8A95E2F7C9019081FD
:10134000892B80831A012B013FEF231A330A430AAA
:10135000530A0F5F1F4F9BCFB12CF40120823182C3
:1013600042825382B1102DC0B3018B859C850E94AF
:101370008006B82E811125C0EB85FC85EB5BFE4F06
:10138000E080F180EB85FC85EF5BFE4F06E010E02E
:1013900020E030E0AE014F5F5F4F60EB80810E9444
:1013A0001508892B11F09CEEB92EF301DE01119680
:1013B000C301069631912D91321320C0E817F90729
:1013C000C9F78B2D2F960FB6F894DEBF0FBECDBF99
:1013D000DF91CF911F910F91FF90EF90DF90CF9011
:1013E000BF90AF909F908F907F906F905F904F9045
:1013F0003F902F9008952EECB22EAFCF8EECB82EEA
:10140000E0CFCF92DF92EF92FF920F931F93CF9393
:10141000DF9300D000D0CDB7DEB76A01FC01EB5BF3
:10142000FE4FE080F1808F5B9E4F04E010E020E0F3
:1014300030E0AE014F5F5F4FFC0180810E941508D4
:1014400049815A8154274527542770E060E0762F60
:10145000652F542F44272B81422B762F652F542F35
:1014600044272C81422BF60140835183628373838E
:10147000892B71F480E00F900F900F900F90DF9107
:10148000CF911F910F91FF90EF90DF90CF90089533
:101490008CEEF1CFCF92DF92EF92FF920F931F93DA
:1014A000CF93DF9300D0CDB7DEB76A01FC01EB5BD1
:1014B000FE4FE080F1808F5B9E4F02E010E020E065
:1014C00030E0AE014F5F5F4FFC0180810E94150844
:1014D00029813A81322723273227F601318320835D
:1014E000892B61F480E00F900F90DF91CF911F91D5
:1014F0000F91FF90EF90DF90CF9008958CEEF3CF97
:10150000EF92FF920F931F93CF93DF9300D0CDB74D
:10151000DEB78C017A016330710509F449C090F49B
:101520006130710509F162307105E1F1F80181A9BD
:1015300092A9A3A9B4A9F70180839183A283B3835D
:1015400080E049C06630710588F7AE014F5F5F4F9C
:1015500064E60E944A0A81113EC0298180E0922FF0
:10156000990FB0E0A0E0E7CFAE014F5F5F4F64E4BA
:101570000E944A0A81112FC0998120E0392F330F30
:10158000A90170E060E0232BD1F0F7014083518383
:1015900062837383F80145AB56AB67AB70AF91E0E4
:1015A00096A319C0FC0181AD92ADA3ADB4ADC3CF7C
:1015B000FC01FD9680819181A281B381BCCFF801AD
:1015C00045A956A967A970ADF7014083518362838D
:1015D0007383F80116A20F900F90DF91CF911F91A6
:1015E0000F91FF90EF9008958F929F92AF92BF92CC
:1015F000CF92DF92EF92FF920F931F93CF93DF93DF
:1016000000D0CDB7DEB7962ED42E822EFC01EF5B34
:10161000FE4FC0805C012BEBA21A2EEFB20AF5013F
:10162000E080F18001E010E020E030E0AE014E5FAC
:101630005F4F8C2D0E941508892BA9F42A812D213A
:1016400028292A83F501E080F180298301E010E058
:1016500020E030E0AE014F5F5F4F692D8C2D0E947E
:10166000ED05892B81F08CEE0F900F90DF91CF91DB
:101670001F910F91FF90EF90DF90CF90BF90AF90B0
:101680009F908F90089580E0EFCFEF92FF920F939D
:101690001F93FC01EB5BFE4FE080F1808F5B9E4F60
:1016A00001E010E020E030E0FC0180810E9415089C
:1016B000892B31F08CEE1F910F91FF90EF900895E0
:1016C00080E0F9CFEF92FF920F931F93CF93DF93B8
:1016D0001F92CDB7DEB77C0100E041E06BE0C701AF
:1016E0000E945806182F40E06BE0C7010E94580680
:1016F000182BAE014F5F5F4F63E1C7010E94450B9E
:10170000812B0F5F9981977061F0033061F088231E
:1017100021F30F90DF91CF911F910F91FF90EF90E8
:1017200008950330B1F784EFF4CF9F92AF92BF9248
:10173000CF92DF92EF92FF920F931F93CF93DF939D
:101740001F92CDB7DEB77C015B016A01922E198230
:1017500041E06FEF0E945806182F40E060E0C7019B
:101760000E945806182B40E06FEFC7010E945806F0
:10177000182B992031F0A5016BECC7010E94450B95
:10178000182B002341F0AE014F5F5F4F6EEEC70193
:101790000E94450B182B41E06FEFC7010E945806CD
:1017A000182B41E060E0C7010E945806182B40E06A
:1017B0006FEFC7010E94580699819F7EF6019083C2
:1017C000812B0F90DF91CF911F910F91FF90EF90A0
:1017D000DF90CF90BF90AF909F9008950F931F938D
:1017E000CF93DF931F92CDB7DEB78A01AE014F5F73
:1017F0005F4F613081F060E50E94450B811105C0AB
:1018000099819F5F990FF80190830F90DF91CF919D
:101810001F910F91089560E7EFCFCF92DF92EF9283
:10182000FF921F93CF93DF931F92CDB7DEB77C015A
:1018300040E063E80E945806182F811117C0D12C90
:10184000C12CAE014F5F5F4F63E8C7010E94450B9B
:10185000182F898181110AC0111108C08FEFC81A91
:10186000D80A88ECC816D10461F719EF41E063E8A3
:10187000C7010E945806812B0F90DF91CF911F91D5
:10188000FF90EF90DF90CF900895CF92DF92EF928C
:10189000FF920F931F93CF93DF931F92CDB7DEB7C5
:1018A0007C0110E000E06C018EECC80ED11CF6014A
:1018B0008081AE014F5F5F4F8430A9F463E1C701BF
:1018C0000E94450B9981292F2770987111F5882363
:1018D000D9F00F90DF91CF911F910F91FF90EF9072
:1018E000DF90CF90089564E1C7010E94450B8111FC
:1018F000F0CF998190FDEDCF0F5F1F4F083C110590
:1019000031F00E948D00D3CF2430B1F7E2CF89EFC0
:10191000E0CF8AEFDECFCF93DF93EC01462F41601B
:1019200060E00E945806811111C0CE010E94450C52
:1019300081110CC0CE010E94620B811107C040E0F2
:1019400060E0CE01DF91CF910C945806DF91CF91EA
:1019500008950F931F93CF93DF931F92CDB7DEB7F8
:101960008B011982AE014F5F5F4F61E00E94450B12
:10197000811116C0998194FB332730F9F801308327
:1019800093FB332730F9328392FB332730F93183CD
:1019900096FB222720F92383991F9927991F948367
:1019A0000F90DF91CF911F910F9108952F923F9249
:1019B0004F925F926F927F928F929F92AF92BF925F
:1019C000CF92DF92EF92FF921F93CF93DF93CDB729
:1019D000DEB72B970FB6F894DEBF0FBECDBF6C01FC
:1019E0001A011B861F821E82623009F06EC0AE0192
:1019F000465F5F4F60E00E94EE0B182F811108C018
:101A0000AE01455F5F4F66E4C6010E94450B182F8B
:101A1000AA85B0E020E03FE24AE350E00E946D2C4E
:101A20002B013C0124EF420E21E0521E611C711C6F
:101A3000CB84D12CF12CE12C8FEFC81AD80AE80AFC
:101A4000F80A98EE892E93E0992EA12CB12CC301AF
:101A5000B201A50194010E94AF2CCA01B901A701EE
:101A600096010E94FF2D6B017C01C301B20120EDA4
:101A700037E040E050E00E94AF2CC701B601620F92
:101A8000731F841F951FA50194010E94AF2CF101C3
:101A90002083318342835383812F2B960FB6F89492
:101AA000DEBF0FBECDBFDF91CF911F91FF90EF90B2
:101AB000DF90CF90BF90AF909F908F907F906F906E
:101AC0005F904F903F902F900895633009F043C08E
:101AD000AE01465F5F4F60E00E94EE0B182F20E0E2
:101AE00030E0A9018111D3CFAE01465F5F4F60E0C6
:101AF000C6010E94EE0B182F811108C0AE014A5F8B
:101B00005F4F61E5C6010E944A0A182FEE81FF81EE
:101B1000AA85B0E020E03FE24AE350E00E946D2C4D
:101B20002B013C0124EF420E21E0521E611C711C6E
:101B30006F01DD24F12CE12C04C0CC0CDD1CEE1C6B
:101B4000FF1CFA95D2F78FEFC81AD80AE80AF80AEC
:101B5000EE24FF2476CFBE016F5F7F4F0E94A90C59
:101B60008C81882351F1AE01465F5F4F60E0C60172
:101B70000E94EE0B182FF12CE12C81111BC0AE013D
:101B80004A5F5F4F61E5C6010E944A0A182F2E8105
:101B90003F81C9019927B0E0A0E004C0880F991FD8
:101BA000AA1FBB1F3A95D2F70196A11DB11D7C015A
:101BB000112329F0D12CC12C25C0F12CE12CAE0130
:101BC000465F5F4F61E0C6010E94EE0B182F811146
:101BD000F1CFAE01485F5F4F61E7C6010E944A0A3C
:101BE000182F28853985C9019927B0E0A0E004C0E5
:101BF000880F991FAA1FBB1F3A95D2F70196A11D06
:101C0000B11D6C01AA85B0E020E03FE24AE350E05C
:101C10000E946D2C2B013C01E4EF4E0EE1E05E1EB4
:101C2000611C711C88EE882E83E0982EA12CB12CAB
:101C3000C301B201A50194010E94AF2CD601AE19D7
:101C4000BF090E946D2C0FCF4F925F926F927F92CF
:101C5000BF92CF92DF92EF92FF920F931F93CF9399
:101C6000DF9300D000D0CDB7DEB78A01AE014F5F61
:101C70005F4F0E94D60CB82E81112AC069817A81EB
:101C80008B819C8128EE422E23E0522E612C712CF8
:101C9000A30192010E94AF2C69017A019B01AC0162
:101CA000AFEFBFEF0E946D2C6C507E4F8F4F9F4F58
:101CB000A30192010E94AF2C7601DD24CC24C20E38
:101CC000D31EE41EF51EF801C082D182E282F382A7
:101CD0008B2D0F900F900F900F90DF91CF911F9150
:101CE0000F91FF90EF90DF90CF90BF907F906F901B
:101CF0005F904F9008955F926F927F928F929F9224
:101D0000AF92BF92CF92DF92EF92FF920F931F9309
:101D1000CF93DF93CDB7DEB761970FB6F894DEBFF0
:101D20000FBECDBF7C018B01FC018089FB0180834C
:101D3000AE014A5F5F4F68EFC7010E944A0A582E02
:101D400081113AC1AE014F5F5F4F64E0C7010E944D
:101D5000010A582E811130C12E813F812115310594
:101D600069F050E040E069817A818B819C810E941A
:101D7000AF2CF8012683378340875187F80186818D
:101D80009781A085B185F701868B978BA08FB18F46
:101D9000F8011286AE014F5F5F4F60E2C7010E94FB
:101DA0004A0A582E811108C189819A81009709F049
:101DB0001AC1F701858D968DA78DB0A1F801858791
:101DC0009687A787B08BF701128EAE014F5F5F4FEA
:101DD00068E2C7010E944A0A582E8111EDC089812C
:101DE0009A819F708115F8E09F0708F090514AEFA3
:101DF000489F9001499F300D1124C901330FAA0B50
:101E0000BB0BF801818B928BA38BB48B5801F1E251
:101E1000AF0EB11C470125E2820E911C380185E10D
:101E2000680E711CD12CC12CA501B601C7010E94FE
:101E3000800A582E8111C0C0F40181914F01F30135
:101E400081933F01FFEFCF1ADF0A24E0A20EB11CFD
:101E500086E0C816D10441F7AE014F5F5F4F61E0E5
:101E6000C7010E94450B582E8111A6C08981F70138
:101E7000E35EFE4F808387FFCAC081E0F80181AF37
:101E8000F80181ADF701E75BFF4F808380ED97E0BC
:101E9000A0E0B0E08A879B87AC87BD871E821F8247
:101EA0001886198686E39BE0A0E0B0E0F801828303
:101EB0009383A483B583BE016F5F7F4FC7010E94E8
:101EC000A90C582E811178C08981811107C08A819F
:101ED000811104C08B81882309F43EC0AE01465FA6
:101EE0005F4F62E0C7010E94D60C8111C1C0898199
:101EF0008823A9F08A859B85AC85BD85825B9D4F33
:101F0000AF4FBF4FF8014281538164817581840FC7
:101F1000951FA61FB71F82839383A483B5838B81EC
:101F2000882309F477C08A859B85AC85BD858E544E
:101F30009D4FAF4FBF4F880F991FAA1FBB1FF801BE
:101F40004281538164817581840F951FA61FB71F3D
:101F500082839383A483B5838C81811168C08D8132
:101F6000882301F1AE01425F5F4F64E0C7010E9428
:101F7000D60C8E849F84A888B988F6E28F0EF2E092
:101F80009F1EA11CB11CF80142815381648175819F
:101F9000480D591D6A1D7B1D4283538364837583DD
:101FA000811166C0F80182819381A481B581F70116
:101FB000828B938BA48BB58B852D61960FB6F8948D
:101FC000DEBF0FBECDBFDF91CF911F910F91FF906C
:101FD000EF90DF90CF90BF90AF909F908F907F90C9
:101FE0006F905F90089533E0880F991F3A95E1F75D
:101FF000B0E0A0E0F80185879687A787B08BF7014E
:10200000858F968FA78FB0A381E0828FDECEF801F7
:1020100011AE36CF8A81882309F49ECF8A859B85AD
:10202000AC85BD858C569D4FAF4FBF4F88CFAE015D
:102030004A5F5F4F63E0C7010E94D60C8E809F808D
:10204000A884B984F4E98F0EF2E09F1EA11CB11C94
:10205000F8014281538164817581480D591D6A1DC3
:102060007B1D4283538364837583882309F477CF70
:10207000582EA2CF2F923F924F925F926F927F92F3
:102080008F929F92AF92BF92CF92DF92EF92FF9288
:102090000F931F93CF93DF93CDB7DEB769970FB63A
:1020A000F894DEBF0FBECDBF00ED17E020E030E0BA
:1020B0000B871C872D873E871F86188A198A1A8AE4
:1020C00040322EE4520761057105E0F45CEFB52E55
:1020D0008B2D69960FB6F894DEBF0FBECDBFDF9192
:1020E000CF911F910F91FF90EF90DF90CF90BF9015
:1020F000AF909F908F907F906F905F904F903F90A8
:102100002F9008954E8B5F8B688F798F8C01BE0165
:102110006A5F7F4F0E94A90CB82E8111D9CFCE885B
:10212000DF88E88CF98C88EEC81A88E0D80AE108C4
:10213000F1088E81811106C08F81811103C08885CD
:102140008823C1F1AE01455F5F4F62E0C8010E9484
:10215000D60C81110AC18E81882391F08B859C85D4
:10216000AD85BE85825B9D4FAF4FBF4F8C159D05E2
:10217000AE05BF0508F0AACFC81AD90AEA0AFB0AB9
:102180008885882309F471C08B859C85AD85BE85C3
:102190008E549D4FAF4FBF4F880F991FAA1FBB1F73
:1021A0008C159D05AE05BF0508F090CFC81AD90A59
:1021B000EA0AFB0A89858823D9F0AE01415F5F4FA7
:1021C00063E0C8010E94D60C4F85588969897A89D5
:1021D0004C565D4F6F4F7F4F4C155D056E057F056B
:1021E00008F074CF8111C1C0C41AD50AE60AF70AF3
:1021F0008A85882309F46CCFBE016F5F7F4FC801C9
:102200000E94A90C8C818823E9F1AE014B5E5F4FDF
:1022100060E0C8010E94EE0BB82E81111CC0AE0117
:102220004D5E5F4F61E5C8010E944A0AB82E8B8956
:102230009C891C013324512C412C04C0220C331CDA
:10224000441C551C9A95D2F79FEF291A390A490A5E
:10225000590ABB20C9F08E899F89A88DB98DF801D4
:10226000828B938BA48BB58B33CF8F81882309F41A
:10227000A1CF8B859C85AD85BE858C569D4FAF4F7C
:10228000BF4F8ECF312C212CAE014B5E5F4F61E0F2
:10229000C8010E94EE0BB82E8111DDCFA6E2CA1A4A
:1022A000A2E0DA0AE108F108AD89B0E020E03FE2FF
:1022B0004AE350E00E946D2C4B015C01B4EF8B0EA1
:1022C000B1E09B1EA11CB11CA8EEB3E0A7019601D2
:1022D0000E946D2C2B013C01C501B40120ED37E0BB
:1022E00040E050E00E94AF2C420E531E641E751E4B
:1022F000C501B40128EE33E040E050E00E94AF2C6D
:10230000C301B2010E94AF2C220E331E21143104EE
:10231000E1F04101B12CA12CE1E08E1A9108A10855
:10232000B10890E080E0B501A4014427452B462B7D
:10233000472B31F0B694A794979487940196F3CFE6
:10234000982F88271C01280C391CA10161E7C801BE
:102350000E942E06B82E81117ECFF801E153FF4F67
:10236000C082D182E282F38276CFB82EB1CE7F9244
:102370008F929F92AF92BF92CF92DF92EF92FF9295
:102380000F931F93CF93DF931F92CDB7DEB77C01DE
:102390005B016A01722E4C0183EE881A8EEF980A57
:1023A000F4011081198241E061E0C7010E945806E2
:1023B00081114AC060E4C7010E948B0C811144C0A6
:1023C000F1E07F121AC000E021E0AE014F5F5F4FE5
:1023D000B501C7010E94950B882389F00F90DF910A
:1023E000CF911F910F91FF90EF90DF90CF90BF9012
:1023F000AF909F908F907F900895F501108242E0FA
:1024000061E0C7010E945806811124C060E0C70145
:102410000E948B0C81111EC0F1E07F1218C001E0F8
:1024200020E0A601BE016F5F7F4FC7010E94950BA0
:102430008111D4CF412F61E0C7010E94580681115C
:10244000CDCFF4011083CACFF5011082C7CFF601BA
:102450001082F0CFF601F9CF2F923F924F925F9208
:102460006F927F928F929F92AF92BF92CF92DF92A4
:10247000EF92FF920F931F93CF93DF93CDB7DEB709
:10248000EC970FB6F894DEBF0FBECDBF6C015B01B9
:10249000DC0150961C9241E060E80E94580641E041
:1024A0006FEFC6010E94580640E060E0C6010E943E
:1024B0005806F601E95DFE4F408161E9C6010E94C0
:1024C000580641E060E0C6010E94580640E06FEF08
:1024D000C6010E94580640E060E8C6010E94580606
:1024E00041E060E0C6010E945806811116C091E0EB
:1024F0009983412C512C3201BFEF4B1A5B0A6B0AB6
:102500007B0A998190FF2AC08111B6C2E8EC4E1671
:10251000510461047104D1F489EFEC960FB6F8947C
:10252000DEBF0FBECDBFDF91CF911F910F91FF9006
:10253000EF90DF90CF90BF90AF909F908F907F9063
:102540006F905F904F903F902F900895AE014F5F36
:102550005F4F60E0C6010E94450BCECFF8EC4F16EE
:10256000510461047104C1F28111D7CFC6010E94E8
:10257000450C8111D2CF83E0F601E15EFE4F8083EE
:10258000B696E080F1800CE010E020E030E0AE0193
:10259000465E5F4F64E1349780810E941508892B65
:1025A00011F08CEEBACFD50156961C925697F501D4
:1025B00010821182128213826CA170E0762F66273E
:1025C0002DA1620F711D14961D921D921D921C92D9
:1025D0001797E9A1F0E0FE2FEE27FF0F2F01712CD6
:1025E000612C1C964D925D926D927C921F978BA1EF
:1025F00090E0982F8827990F8C0130E020E05096CA
:102600000D931D932D933C9353970C8D10E0102F39
:1026100000272D8D7801E20EF11CFCAEEBAE559635
:10262000FC92EE9254979A8CD601A75CBE4F2D91E6
:102630003C9111975B978C90283E03E03007E9F1BD
:10264000629FC001639F900D729F900D11248C506A
:102650009E4F68EE73E00E940F2ED6015D96ED90BE
:10266000FD900D911C9190975A962C91222329F15F
:102670002BAD3CAD2E9DA0012F9D500D3E9D500DCC
:102680001124452F5527E417F50741F460EE7AE849
:10269000882009F4E3C068EB72E212C09F01DB01FD
:1026A0000E94D12C83017F01E41AF50A0109110966
:1026B000A80197010E94AF2CB901882009F4CEC06F
:1026C000CB019695879596958795D50119969C93FC
:1026D0008E9318976295660F660F607C57966C9381
:1026E0001FA61EA6892D90E07C0173E0F594E79467
:1026F0007A95E1F7FAAEE9AE09AD0F70902E09F4C4
:10270000B2C089AD8D7011E018AB853029F084EF2F
:10271000800F843008F018AA41E06FEFC6010E94D4
:102720005806811107C0AE01425D5F4F66EBC601DE
:102730000E944A0A9EA520E0392F330F790110E04C
:1027400000E0E9AAFAAA0BAB1CAB811105C040E07E
:102750006FEFC6010E945806F601EE5CFE4FE9A835
:10276000FAA80BA91CA9E082F182028313838111CC
:1027700078C1D60195968C909597882009F47FC0F2
:10278000F501E484F584068517855A968C9120E03E
:1027900030E0A901882399F0A489B589F601258D37
:1027A000368D478D50A10E946D2C9B01AC012058A5
:1027B0003F4F4F4F5F4F232F342F452F55272E0D5F
:1027C0003F1D401F511FA8EEB3E00E946D2C7058B2
:1027D0008F4F9F4FBC0188279927F601E65DFE4F7A
:1027E000672B682B692B09F041C08EEA97E8AFE8A8
:1027F000B2E080839183A283B3831EEAE12E17E8BF
:10280000F12E0FE812E0EDAAFEAA0FAB18AFD5012A
:102810001B961C921E921A97AE01465D5F4F70E0A8
:1028200060E0C6010E94800A4AA55BA56CA57DA553
:10283000411551056105710559F0FF24F3940DA967
:102840001EA92FA938AD401751076207730708F07A
:10285000F12C8823A9F0212C312C07C1F5017187B7
:102860006087178A3DCF01E008AB56CF10821182F6
:10287000128213821DAA1EAA1FAA18AEC8CFF12C5D
:10288000D60197963C90332009F4C5C0AE014A5D4D
:102890005F4F62E070E0C6010E94800A4EA15FA116
:1028A00068A579A5411551056105710559F0EE241A
:1028B000E39409A91AA92BA93CA94017510762075B
:1028C000730708F0E12C212C90E0811132C0D60171
:1028D00098962C90222009F4A4C00BAD1CAD0115D4
:1028E000110509F49AC0962D852D742D662798013F
:1028F00050E040E00E94AF2C29013A01AE014F5F49
:102900005F4F63E070E0C6010E94800A49815A81EE
:102910006B817C81411551056105710531F091E0B4
:10292000441655066606770608F090E0882309F4F9
:1029300079C0D5011B961C921E921A9780E08110D7
:1029400002C0FF24F394F60136A1F3A6F4E09F162B
:1029500009F4B0C021E0311120E0D6019C962C93FF
:10296000311002C0EE24E394F601E5A6211001C067
:1029700091E0D6019E969C93F501808F9601265B8F
:102980003F4F99E1F901DE01119601900D929A9560
:10299000E1F7D5011896ED91FC91199757969C9106
:1029A00057971A966D917C911B971C96ED90FD9010
:1029B0000D911C911F9750964D905D906D907C905D
:1029C000539754964D915C91559714968D909D9088
:1029D000AD90BC9017978D829E82AF82B886FA87A1
:1029E000E9877C876B87ED86FE860F87188B498A7F
:1029F0005A8A6B8A7C8A5E8B4D8B988F898F89E18E
:102A0000FE013196D90101900D928A95E1F7C60138
:102A10000E94620B82CDE12C5ACF412C512C320105
:102A20006DCF90E018A98FEF113009F488CF890D90
:102A30008330F0F026E0921639F139E0931621F157
:102A400089AD8D708830B1F041E0E41699F054E022
:102A5000951639F1913001F1F41601F19F2DEF2C0B
:102A600068CF212C312C812CF12C90E0E12C61CF0E
:102A700085E065CF83E063CFB8EC4B165104610469
:102A8000710409F04ACD48CD84E081105CCFF60195
:102A900036A121E023A75ECF82E0F7CFE92E81E0C7
:102AA000F4CF82E081104FCF81E0D6019B968C93CA
:102AB000E12C82E021E051CFAF92BF92DF92EF9202
:102AC000FF920F931F93CF93DF93CDB7DEB7699734
:102AD0000FB6F894DEBF0FBECDBF8C015B017C0149
:102AE00083EEE81A8EEFF80AF701D08040EC61E03F
:102AF000C8010E945806811126C0BE016F5F7F4F3A
:102B0000C8010E942C1281111EC041E06FEFC80164
:102B10000E945806811117C0A50166EBC8010E94EA
:102B20004A0A811110C040E06FEFC8010E945806A8
:102B3000811109C04D2D61E0C8010E945806811124
:102B400002C0F701D08269960FB6F894DEBF0FBEBF
:102B5000CDBFDF91CF911F910F91FF90EF90DF904C
:102B6000BF90AF9008952F923F924F925F926F92D5
:102B70007F928F929F92AF92BF92CF92DF92EF920D
:102B8000FF920F931F93CF93DF93CDB7DEB7AC9730
:102B90000FB6F894DEBF0FBECDBF1C017FA36EA39E
:102BA00059A748A71F82188619861A861B861C8675
:102BB0001D861E86198A1A8AFC01E85DFE4F208157
:102BC0003181398F288FAC014F5E5E4F5B8F4A8F0A
:102BD000DA011C922C01BEEE4B1ABEEF5B0AF20129
:102BE00010823C01FDEE6F1AFEEF7F0AD3011C92AA
:102BF000FC01EC5EFE4F10823196108231961082FD
:102C000041E06FEF0E9458068B8B81111DC140E09F
:102C10006FE4C1010E9458068B8B811115C14CE2F3
:102C20006EE4C1010E9458068B8B81110DC140E0FA
:102C30006FEFC1010E9458068B8B811105C144EBD7
:102C400066EBC1010E9458068B8B8111FDC040E0EC
:102C500060E8C1010E9458068B8B8111F5C020E00D
:102C6000AE014E5E5F4FBE016F5E7F4FC1010E949D
:102C7000B7118B8B8111E8C01F82188619861A86BE
:102C8000F101E95EFE4FFD8FEC8F9E01295F3F4F02
:102C90004901A3E0AA2EB12CC12CD12CE12CF12C9E
:102CA00087012A8D3B8DAF0160E0C1010E941C09A4
:102CB0008B8B8111C9C04F81588569857A854C8B72
:102CC0005D8B6E8B7F8BBE01615F7F4FC1010E9468
:102CD0005C158B8B8111B8C08F859889688D798D33
:102CE0006817790708F0D3C0AA8DBB8D1C92F2013A
:102CF0001082D3011C923296108231961082319646
:102D000010828C899D89AE89BF898C549F4FAF4FAB
:102D1000BF4FE6E0B695A79597958795EA95D1F7C9
:102D2000880F991F880F991F835F9D4FFC01808139
:102D30009181A281B381892B8A2B8B2B91F42C89D1
:102D40003D894E895F892C3231054105510548F492
:102D50002F5F3F4F4F4F5F4F2C8B3D8B4E8B5F8BC9
:102D6000D0CFAE01495F5F4F4A0173E0A72EB12C6F
:102D7000C12CD12CEC88FD880E891F892A8D3B8DB2
:102D80004C8D5D8D61E0C1010E941C09811159C10A
:102D90006F81788589859A856C8B7D8B8E8B9F8BD7
:102DA000BE01615F7F4FC1010E945C15811149C165
:102DB0008F859889A88DB98D11E063E0462E512C3E
:102DC000612C712CA817B90720F010E0412C512C70
:102DD0003201C12CD12C7601C39460C0D501C4014D
:102DE0000196A11DB11D8C8B9D8BAE8BBF8B86E098
:102DF000EAA5FBA5ACA5B02F01900D928A95E1F74D
:102E00004E8C5F8C68A079A04AA35BA36CA37DA3C2
:102E10006FC04E8C5F8C68A079A0AEA1BFA14D920F
:102E20005D926D927C921397E8A5F9A51083F1014C
:102E3000EC5FFE4F81E0808332978C918083A8A560
:102E4000B9A58C91319680838B89AC960FB6F89496
:102E5000DEBF0FBECDBFDF91CF911F910F91FF90CD
:102E6000EF90DF90CF90BF90AF909F908F907F902A
:102E70006F905F904F903F902F900895BEECBB8B6A
:102E8000E3CFEEECEB8BE0CFFEECFB8BDDCF10E085
:102E9000412C512C3201C12CD12C76018F8598897F
:102EA000288D398D8217930708F0B7CF46E0EA8D59
:102EB000FB8D9E012F5F3F4FD90101900D924A95E6
:102EC000E1F7E88DF98D8E1B9F0BAC0170E060E09F
:102ED0004AA35BA36CA37DA353E0452E512C612C28
:102EE000712CB1016F5E7E4F7BA76AA72CA7032FC1
:102EF0009E01255F3F4F4C895D896E897F898C8D4E
:102F00009D8D0E94B5008B849C84AD84BE847FEF30
:102F100087169706A706B70609F4B0CFD301C201FA
:102F20000196A11DB11D8E8F9F8FA8A3B9A3D501B6
:102F3000C4018C549F4FAF4FBF4F36E0B695A79555
:102F4000979587953A95D1F7880F991F880F991F04
:102F5000835F9D4F11E0FC0180819181A281B3814B
:102F6000892B8A2B8B2B09F410E0812F90E0B0E0A5
:102F7000A0E08C159D05AE05BF0509F082CFD501F7
:102F8000C40123E0B695A795979587952A95D1F723
:102F9000B501A4014770552766277727863091052C
:102FA000A105B10508F070CFEA8DFB8DE80FF91F80
:102FB00021E030E001C0220F4A95EAF78081822BA0
:102FC00080836A8D7B8DC1010E948006811139C08A
:102FD000BE01615F7F4FC1010E945C15811131C04C
:102FE0008F859889288D398DAC01421B530B821730
:102FF000930711F450E040E070E060E0A88DB98DD7
:10300000A817B90708F0EACE8AA19BA1ACA1BDA17F
:1030100084179507A607B70708F0FBCEBE016F5FC0
:103020007F4FC1010E94800696E0FE013196D101DA
:10303000AF5EBE4F01900D929A95E1F7882309F497
:10304000ECCE8B8B01CFFC0101900020E9F731978A
:10305000AF01481B590BBC0181EB94E00C94C502F5
:103060008F929F92AF92BF920F931F93CF93DF9354
:10307000CDB7DEB7A1970FB6F894DEBF0FBECDBFB8
:1030800019A2423008F44AE08E010F5D1F4F842ED2
:10309000912CB12CA12CA50194010E94AF2CE62FFC
:1030A000B901CA01EA30F4F4E05DD801EE938D0174
:1030B000232B242B252B79F790E080E0109719F033
:1030C000CD010E942318A1960FB6F894DEBF0FBE63
:1030D000CDBFDF91CF911F910F91BF90AF909F9087
:1030E0008F900895E95CE1CFCF92DF92EF92FF924B
:1030F000CF93DF936C01990FEE08FF08F7FE17C01E
:103100008DE20E94F203EC0166277727CB016C1950
:103110007D098E099F094AE00E9430188C0F9D1F7F
:10312000DF91CF91FF90EF90DF90CF9008954AE02C
:10313000C701B601DF91CF91FF90EF90DF90CF9064
:103140000C9430184F925F926F927F928F929F9261
:10315000AF92BF92CF92DF92EF92FF920F931F93A5
:10316000CF936B017C01742EAC019B010E94FA2D60
:10317000882399F081E492E0CF911F910F91FF9005
:10318000EF90DF90CF90BF90AF909F908F907F9007
:103190006F905F904F900C94231846015701E8946C
:1031A000B7F82FEF3FEF4FE75FE7C501B4010E948B
:1031B000FA2D81110DC02FEF3FEF4FE75FE7C501FB
:1031C000B4010E94462B18161CF485E492E0D4CF7B
:1031D0002FEF3FEF4FE75FE4C701B6010E94F52DE7
:1031E00018161CF489E492E0C7CF2FEF3FEF4FE7AA
:1031F0005FECC701B6010E94462B87FDF3CF20E0AC
:1032000030E0A901C701B6010E94462B10E000E0A2
:1032100087FF08C08DE20E94F2038C01F7FAF09458
:10322000F7F8F094C0E060E070E080E09FE37C1687
:1032300041F020E030E040E251E40E944D2DCF5FAC
:10324000F6CFA70196010E94E12C2B013C010E94C0
:10325000C62D4B015C014AE00E9430187C01E00E53
:10326000F11ECC23B1F1C501B4010E944B2B9B018F
:10327000AC01C301B2010E94E02C4B015C018EE263
:103280000E94F203E80EF91EC15018F120E030E070
:1032900040E251E4C501B4010E94AC2B2B013C017A
:1032A0000E94C62D4B01B12CA12C4AE0C501B401EE
:1032B0000E943018E80EF91EC501B4010E944B2B84
:1032C0009B01AC01C301B2010E94E02C4B015C01E7
:1032D000DBCFC701CF911F910F91FF90EF90DF904F
:1032E000CF90BF90AF909F908F907F906F905F90A6
:1032F0004F900895CF93DF93D0E0C0E0009719F08E
:103300000E942318EC018DE492E00E9423188C0F98
:103310009D1FDF91CF910895CF92DF92EF92FF92A0
:10332000CF93DF936C01990FEE08FF08F7FE1DC0E5
:103330008DE20E94F203EC0166277727CB016C191E
:103340007D098E099F094AE00E943018C80FD91FD5
:103350008DE492E00E9423188C0F9D1FDF91CF9186
:10336000FF90EF90DF90CF9008954AE0C701B6013B
:103370000E943018EC01ECCF9F92AF92BF92CF9297
:10338000DF92EF92FF920F931F93CF93DF93CDB70E
:10339000DEB7A0970FB6F894DEBF0FBECDBF6C01AD
:1033A0002FEDC20ED11CF601A080F7E0F12CAF1674
:1033B00009F4EEC0B62E8C0141E060E80E94580688
:1033C000F82E41E06FEFC8010E945806F82A40E04D
:1033D00060E0C8010E945806F82A46E06FEFC80175
:1033E0000E945806F82AAE01425E5F4F63E8C801AA
:1033F0000E94450BF82A4E8D446063E8C8010E9484
:103400005806F82A47E06FEFC8010E945806F82ACC
:1034100041E061E8C8010E945806F82A0E948D0028
:10342000F82A41E060E8C8010E945806F82A21E025
:10343000B212C1C0A0FC02C24BE664E9C8010E94FE
:103440005806E82EC8010E940D0C8E29F82AAE01FC
:10345000465E5F4F60E9C8010E94010AF82A8A8D22
:103460009B8DAC8DBD8D992EE89497F897FBEE243B
:10347000E0F844E264E9C8010E945806F82AC8014D
:103480000E940D0CF82AAE01465E5F4F60E9C8014C
:103490000E94010AF82A8A8D9B8D2C8D3D8D3C8BD4
:1034A0002D8B9E8B8F8B45E264E9C8010E945806E4
:1034B000F82AC8010E940D0CF82AAE01465E5F4F43
:1034C00060E9C8010E94010AF82A8C8D9D8D988FB1
:1034D000898F40E061E8C8010E945806F82A46E05A
:1034E0006FEFC8010E945806F82AAE01425E5F4F96
:1034F00063E8C8010E94450BF82A4E8D4B7F63E8B4
:10350000C8010E945806F82A41E06FEFC8010E94E6
:103510005806F82A41E060E0C8010E945806F82ADF
:1035200040E06FEFC8010E945806F82A40E060E8CA
:10353000C8010E945806F82A59F5F1E0BF1699F023
:10354000A1FC23C0F801E052FF4F8F8D808331969C
:1035500088A18083BE016F5F7F4FC8018E519F4F4E
:103560000E94283012C0A0FC10C0F801EE5FFE4F90
:1035700090823196E082DE0154967496035E1E4F6F
:103580008D9181930E171F07D9F7BA28F601B082E3
:103590008F2DA0960FB6F894DEBF0FBECDBFDF9182
:1035A000CF911F910F91FF90EF90DF90CF90BF9040
:1035B000AF909F900895A1FC41C142E064E9C80129
:1035C0000E945806E82EC8010E940D0C8E29F82A88
:1035D000AE01415E5F4F60E9C8010E94450BF82AC9
:1035E0004BE764E9C8010E945806F82AC8010E9406
:1035F0000D0CF82AAE01405E5F4F60E9C8010E94E1
:10360000450BF82A47E764E9C8010E945806F82AE2
:10361000C8010E940D0CF82AAE01465E5F4F60E9BA
:10362000C8010E94010AF82A4A8D5B8D6C8D7D8D40
:10363000DB01CA0129E1B695A795979587952A954B
:10364000D1F78983DB01CA0132E1B695A795979539
:1036500087953A95D1F78F778A83DB01CA01EBE032
:10366000B695A79597958795EA95D1F78F778B8330
:10367000DB01CA01F4E0B695A79597958795FA9571
:10368000D1F78F778C83440F440F440F48774E8FC8
:1036900048E764E9C8010E945806F82AC8010E9458
:1036A0000D0CF82AAE01465E5F4F60E9C8010E942A
:1036B000010AF82A8A8D9B8DAC8DBD8DAC01BD01B0
:1036C0002DE176956795579547952A95D1F72E8DDB
:1036D000240F2D83AC01BD0136E176956795579592
:1036E00047953A95D1F74F774E83AC01BD01EFE096
:1036F0007695679557954795EA95D1F74F774F831C
:10370000292F2F772887AC01BD01769567955795AE
:1037100047954F774987982F9295990F990F9074F5
:103720009E8F49E764E9C8010E945806F82AC8013B
:103730000E940D0CF82AAE01465E5F4F60E9C80199
:103740000E94010AF82A8A8D9B8DAC8DBD8DAC013B
:10375000BD012AE176956795579547952A95D1F74A
:103760002E8D240F2A87AC01BD0133E17695679534
:10377000579547953A95D1F74F774B87AC01BD01E7
:10378000ECE07695679557954795EA95D1F74F7791
:103790004C87AC01BD01F5E0769567955795479547
:1037A000FA95D1F74F774D87982F990F990F9C77FE
:1037B0009E8F4AE764E9C8010E945806F82AC801AA
:1037C0000E940D0CF82AAE01465E5F4F60E9C80109
:1037D0000E94010AF82A8A8D9B8DAC8DBD8DAC01AB
:1037E000BD012EE176956795579547952A95D1F7B6
:1037F0002E8D240F2E87AC01BD0137E1769567959C
:10380000579547953A95D1F74F774F872A2F2F77BE
:10381000288BAC01BD01E9E07695679557954795F2
:10382000EA95D1F74F77498BF2E0B695A795979532
:103830008795FA95D1F78F778A8B1B8AE12C912C8B
:1038400048CE0F931F93CF93DF938C01EB01FC01C4
:10385000808191810097E1F068817981611571051E
:10386000A9F0428153812C813D814217530770F0AA
:103870000E9428308C819D81F801958384831D826C
:103880001C82DF91CF911F910F9108950E94C52E48
:1038900088819981F801918380838A819B819383B8
:1038A00082838C819D8195838483198218821B82F7
:1038B0001A82E5CFCF93DF93EC018881998100973D
:1038C00011F00E94C52E198218821D821C821B8253
:1038D0001A82DF91CF910895FC0180819181009738
:1038E00011F00C94C52E08950F931F93CF93DF937F
:1038F000EC0188819981009759F02A813B81261734
:10390000370730F081E0DF91CF911F910F9108953B
:103910008B016F5F7F4F0E944E2F009759F0998364
:1039200088831B830A832C813D81232B59F7FC015B
:103930001082E8CF80E0E7CFEF92FF920F931F93C2
:10394000CF93DF93EC017B018A01BA010E94741CC2
:1039500081110BC0CE010E945A1CCE01DF91CF9184
:103960001F910F91FF90EF9008951D830C83B70175
:10397000888199810E942830F0CFCF93DF93EC01AA
:10398000FB018617970749F0608171816115710508
:1039900041F0448155810E949C1CCE01DF91CF9162
:1039A00008950E945A1CF9CFFC01118210821382E3
:1039B000128215821482FB0101900020E9F73197F1
:1039C000AF01461B570B0C949C1C85ED8093BC00EB
:1039D0008091140490911504A0911604B0911704DD
:1039E0000796A11DB11D23E0B695A79597958795DC
:1039F0002A95D1F72091BC0024FD03C010925D04EC
:103A0000089540911404509115046091160470912A
:103A10001704452B462B472B69F30097A105B105E9
:103A200041F02AE22A95F1F700C00197A109B109F6
:103A3000E1CF809113040C945C041F920F920FB697
:103A40000F9211242F933F938F939F93AF93BF9324
:103A50008091AD049091AE04A091AF04B091B004F8
:103A60003091A80423E0230F2D3758F50196A11DAE
:103A7000B11D2093A8048093AD049093AE04A0934D
:103A8000AF04B093B0048091A9049091AA04A091CE
:103A9000AB04B091AC040196A11DB11D8093A904A3
:103AA0009093AA04A093AB04B093AC04BF91AF91E0
:103AB0009F918F913F912F910F900FBE0F901F906C
:103AC000189526E8230F0296A11DB11DD2CF1F9293
:103AD0000F920FB60F9211242F933F934F935F9342
:103AE0006F937F938F939F93AF93BF93EF93FF93C6
:103AF000E0910502F09106020995FF91EF91BF91C7
:103B0000AF919F918F917F916F915F914F913F9175
:103B10002F910F900FBE0F901F9018951F920F922C
:103B20000FB60F9211242F933F934F935F936F9390
:103B30007F938F939F93AF93BF93EF93FF93E09106
:103B40000302F09104020995FF91EF91BF91AF91AB
:103B50009F918F917F916F915F914F913F912F91A5
:103B60000F900FBE0F901F9018951F920F920FB6D7
:103B70000F9211242F933F934F935F936F937F93F3
:103B80008F939F93AF93BF93EF93FF9381EB94E059
:103B90000E948303FF91EF91BF91AF919F918F910D
:103BA0007F916F915F914F913F912F910F900FBE39
:103BB0000F901F9018951F920F920FB60F9211241D
:103BC0002F938F939F93EF93FF93E091C104F09114
:103BD000C2048081E091C704F091C80482FD1BC03B
:103BE00090818091CA048F5F8F732091CB048217DC
:103BF00041F0E091CA04F0E0EF54FB4F958F8093C1
:103C0000CA04FF91EF919F918F912F910F900FBE5A
:103C10000F901F9018958081F4CF1F920F920FB6CE
:103C20000F9211242F933F934F935F936F937F9342
:103C30008F939F93AF93BF93EF93FF938091B900BE
:103C4000887F803609F44AC0F0F5883209F4A7C0AD
:103C500018F5803109F49BC0B8F4882309F4F9C041
:103C6000883009F494C0FF91EF91BF91AF919F917B
:103C70008F917F916F915F914F913F912F910F9015
:103C80000FBE0F901F901895883109F488C08032BC
:103C900051F780935C0414C0803409F49DC040F453
:103CA0008033B9F38833F9F680935C0485ECB0C0B7
:103CB000803509F485C0883509F496C0883499F6B2
:103CC0000E94E51CD0CF883909F48CC038F58837BC
:103CD00029F050F4883611F0803729F683E080937C
:103CE0005D0410925B0457C0883809F47BC08039AA
:103CF00019F0803809F0B7CF80915B04803208F06A
:103D000071C0E0915B0481E08E0F80935B04809131
:103D1000BB00F0E0E55CFB4F80833DC0803B39F0A9
:103D2000E0F4803A09F479C0883A09F09CCF84E045
:103D300080935D0410923A0410923904E091850456
:103D4000F091860409958091390481110FC081E0BA
:103D5000809339041092190409C0803C09F4A6CF5D
:103D6000883C09F4A3CF883B09F07DCFE0913A0469
:103D700081E08E0F80933A04F0E0E75EFB4F808194
:103D80008093BB0090913A048091390429C08091BE
:103D900082048093BB0085EC8093BC0064CF90913B
:103DA000810480918004981758F5E091810481E0A6
:103DB0008E0F80938104F0E0E05AFB4F8081E9CFC1
:103DC000E091810481E08E0F809381048091BB009B
:103DD000F0E0E05AFB4F8083909181048091800451
:103DE0009817C8F285E8D8CFE091810481E08E0F62
:103DF000809381048091BB00F0E0E05AFB4F808308
:103E000080915F0481115CCF81E080935E0484EA3D
:103E10008093BC0010925D0426CF85EC8093BC009B
:103E200010925D0480915B04803230F4E0915B0479
:103E3000F0E0E55CFB4F108260915B0470E0E09184
:103E40008304F09184048BE394E0099510925B0461
:103E50000ACF10925C0434CF1F920F920FB60F92CC
:103E600011242F933F938F939F93EF93FF93809110
:103E7000D00387FF1FC010928500109284008091AC
:103E8000D0038F5F8093D0038091D00387FF04C05D
:103E90008091D0038C30ACF08091840090918500AB
:103EA000049680349C4990F1809184009091850023
:103EB00004962EC08091D00387FFE1CF8091D0037C
:103EC000DECF2091840030918500E091D0038E2FC9
:103ED000EE0F990BFC01EE0FFF1FE80FF91FE455E1
:103EE000FC4F81819281820F931F90938900809370
:103EF00088008091D003FF91EF919F918F913F9126
:103F00002F910F900FBE0F901F90189580E49CE9A1
:103F100090938900809388008FEF8093D003EBCF3C
:103F2000EF92FF920F931F93CF93DF9300D000D0B7
:103F300000D0CDB7DEB7E1EBF4E01382128288EE59
:103F400093E0A0E0B0E084839583A683B78321E269
:103F500032E03183208325EC30E03587248724EC60
:103F600030E03787268720EC30E0318B208B21EC46
:103F700030E0338B228B22EC30E0358B248B26EC27
:103F800030E0378B268B118E128E138E148EEEE45A
:103F9000F5E01382128284839583A683B78383E33B
:103FA00092E09183808360E572E0CE0101960E94E9
:103FB000D41C6FE472E081E497E00E94D41C0EE30D
:103FC00017E085E0D8018C9386E011968C931197C9
:103FD00082E012968C93BE016F5F7F4F81E497E081
:103FE0000E94BD1CF8011186128613861486118A60
:103FF000128A138A148A128E118E148E138E168AC8
:10400000158AEE24E394F12CF08EE78ACE01019616
:104010000E946C1C6AE572E0CE0101960E94D41CDD
:104020006FE472E084E297E00E94D41C01E217E0A2
:104030008BE0F80180838AE0818383E08283BE0184
:104040006F5F7F4F84E297E00E94BD1CD8011996F4
:104050001D921D921D921C921C97F801118A128AC2
:10406000138A148A128E118E148E138E168A158A54
:10407000F08EE78ACE0101960E946C1C87EC91E0DD
:10408000EAE5F5E0DF019C011D9221503040E1F7A7
:104090008BE595E09093A3068093A20626960FB633
:1040A000F894DEBF0FBECDBFDF91CF911F910F916E
:1040B000FF90EF900895CF93DF93CDB7DEB7CC5547
:1040C000D1090FB6F894DEBF0FBECDBF789484B58A
:1040D000826084BD84B5816084BD85B5826085BD04
:1040E00085B5816085BD80916E00816080936E0092
:1040F0001092810080918100826080938100809184
:104100008100816080938100809180008160809334
:1041100080008091B10084608093B1008091B000F4
:1041200081608093B00080917A00846080937A00EF
:1041300080917A00826080937A0080917A00816019
:1041400080937A0080917A00806880937A00109240
:10415000C100E091C104F091C20482E08083E0914B
:10416000BD04F091BE041082E091BF04F091C00440
:1041700080E180831092C904E091C504F091C604E7
:1041800086E08083E091C304F091C4048081806163
:104190008083E091C304F091C404808188608083AF
:1041A000E091C304F091C404808180688083E09131
:1041B000C304F091C40480818F7D808385E692E002
:1041C0000E947A198EE397E00E94040881E297E04A
:1041D0000E94040880914007823009F447C183306F
:1041E00009F046C181E06DEA76E00E9436018091D7
:1041F0002307823009F43EC1833009F03DC181E0DC
:104200006FE976E00E94360144E650E060E070E03D
:104210004093F3015093F4016093F5017093F6011C
:104220008AE090E0A0E0B0E08093F7019093F8017D
:10423000A093F901B093FA014093FB015093FC0164
:104240006093FD017093FE018093FF019093000243
:10425000A0930102B093020280EB92E00E947A19CF
:10426000E091A206F091A306EF5BFE4F89E2808306
:10427000E091A206F091A306EE5BFE4F81E0808301
:10428000E091A206F091A306ED5BFE4F80E991E07C
:1042900091838083E091A206F091A306EB5BFE4F31
:1042A0008EE495E09183808310928A0410928904B1
:1042B00010928804109287040E943E0481EC92E0E0
:1042C000909386048093850482EC92E0909384041A
:1042D0008093830421E04EEF69E88BE595E00E942E
:1042E000F40A811106C040E068E88BE595E00E9481
:1042F0005806AE01455C5F4F60EC8BE595E00E948F
:10430000450B10923A0688EE93E0909395068093C1
:10431000940680E991E0909397068093960685E84D
:104320009BE6A1E0B0E08093980690939906A09355
:104330009A06B0939B0684EA90E7A9E0B0E08093E8
:10434000230690932406A0932506B0932606109288
:1043500078051092790510927A0510927B059E01DE
:104360002F5F3F4F1901B9018BE595E00E947B0E4D
:10437000082F81110AC019821A828AE3F101ABE683
:10438000B5E001900D928A95E1F784E690E0909374
:104390007D0680937C0684E893E090937F0680936B
:1043A0007E0684EF91E0909381068093800680E002
:1043B0009AE0909384068093830681E0809393062D
:1043C00041E060E88BE595E00E945806182F41E037
:1043D0006FEF8BE595E00E945806182B102B40E0FC
:1043E00060E08BE595E00E945806182BAE014F5B0C
:1043F0005F4F61E98BE595E00E94450B182B2296F3
:104400008FAD22978093820641E060E08BE595E0D6
:104410000E945806182B40E06FEF8BE595E00E9454
:104420005806182B40E060E88BE595E00E9458069E
:10443000912F982BFAE5CF2EF5E0DF2E10E000E06B
:10444000FF24F39491119FC10330110509F4A5C015
:10445000ACF40130110509F10230110509F49AC0DC
:10446000F0928005F601F6A280E02DC080E0BBCE80
:104470008FEFB9CE80E0C4CE8FEFC2CE04301105ED
:1044800009F48EC020E04FEE0530110549F760E6D3
:104490008BE595E00E94F40A14C04091900550917C
:1044A00091056091920570919305E9E07695679585
:1044B00057954795EA95D1F764E48BE595E00E941E
:1044C0002E06882379F20F5F1F4FFFEFCF1ADF0A06
:1044D000982F0630110509F0B5CF81116EC01092EA
:1044E00082051092830522E04EEF60E68BE595E0B1
:1044F0000E94F40A811161C01092840520E14FEE00
:1045000060E68BE595E00E94F40A811156C0109296
:10451000850580E090E0A2E1B0E080938C05909367
:104520008D05A0938E05B0938F0580918105811133
:104530003AC080E090E4A0E0B0E0809390059093D2
:104540009105A0939205B093930580E090E0A3E2DB
:10455000B0E08093940590939505A0939605B09351
:104560009705109298051092990510929A0510924D
:104570009B058FEF809378064FEF61E08BE595E028
:104580000E94580691E090937A06811116C010920D
:104590005F0613C0F092820565CFF092830562CF6B
:1045A00020E04EEF74CF40E250E064E48BE595E00C
:1045B0000E942E06882309F4BCCF80935A0549E255
:1045C0006AE88091A2069091A3060E945806809303
:1045D0005A050E9460024B015C016AE0C62ED12C94
:1045E000E12CF12C0E946002681979098A099B0963
:1045F000683E734081059105A8F321E0C21AD108F5
:10460000E108F10838EE830E33E0931EA11CB11CC3
:10461000C114D104E104F10429F780915A058111F4
:10462000B4C0E091A206F091A306EF5BFE4F89E2D1
:10463000808362E08BE595E00E94BC19882309F431
:10464000A9C080935A0581110BC080910507813064
:1046500021F480910607813019F08BEF80935A0581
:1046600080915A058111F2C06090A2067090A30655
:1046700029961FAE1EAE299760961FAE60972F96A3
:104680001FAE2F9725961CAE1DAE1EAE1FAE2597F2
:1046900061E0C3010E94BC19F301EE5FFE4F408050
:1046A000A42CB12CD12CC12C3196508051E0551541
:1046B00008F4BDC05512B4C081E2A816B104C1040B
:1046C000D10408F0B4C041E06FEFC3010E94580666
:1046D00081111AC040E06FE4C3010E9458068111A5
:1046E00013C04CE26EE4C3010E94580681110CC055
:1046F00040E06FEFC3010E945806811105C044EBF2
:1047000066EBC3010E94580693012F5E3E4FF901EC
:104710001082319610823196108231961082319635
:10472000108231961082E12CF12C8701552009F47A
:1047300054C1D801C7018C549F4FAF4FBF4F46E0C3
:10474000B695A795979587954A95D1F7880F991FA4
:10475000880F991F835F9D4FFC0180819181A28109
:10476000B381892B8A2B8B2B09F037C1FCE2EF1622
:10477000F1040105110509F430C14FEFE41AF40A00
:104780000F4F1F4FD6CF892F18CF88E792E00E9496
:104790007A19FFCF80913B0681112AC06FE472E045
:1047A00084EE96E00E9428306AE972E084EA96E09E
:1047B0000E94283063ED72E084EC96E00E9428307D
:1047C00044E057E060EC8BE595E00E94450B8111D9
:1047D00038CFA10162EC8BE595E00E94450B91E09A
:1047E00090930507998192959F709093060729CF22
:1047F00010913C066DE376E084EE96E00E9428304E
:10480000112391F2133238F466EA72E0103271F635
:1048100062EB72E0CBCF6EEB72E0173238F6F8CF76
:104820009DE0A916B104C104D10408F44CCFAE0137
:10483000425B5F4FBE016F5B7F4FC3010E94B315A8
:10484000982E992009F4DDC090925A0580915A055E
:1048500081110CC0AE01495B5F4FB1018091A2068E
:104860009091A3060E94B31580935A0580915A0532
:1048700081110FC021E0AE01455C5F4FBE016F5B4F
:104880007F4F8091A2069091A3060E94B71180935A
:104890005A0580915A05811178CFE091A206F091D6
:1048A000A306108AE091A206F091A306FF24F394D8
:1048B000F5A20091A2061091A306F80145A956A9F8
:1048C00067A970AD29E076956795579547952A9524
:1048D000D1F764E4C8010E942E06811102C0F801DC
:1048E000F6A280935A05811150CFE091A206F09173
:1048F000A30681E080A7E091A206F091A306FD96B1
:1049000084ED98E0A0E0B0E080839183A283B3833C
:1049100080915A05811139CF8CEB92E00E947A196F
:1049200081E090E090939F0480939E048BED92E051
:104930000E947A199E01215E3F4F62963FAF2EAFD3
:104940006297812C912C90EFA92E92E4B92E21012F
:1049500081016FE472E0C8010E94D41C0A5F1F4FFE
:1049600062964EAD5FAD62974017510791F781EBAC
:1049700094E00E946303892B09F483C26FE472E020
:10498000CE01895B9F4F0E94D41C0E9415032D9677
:104990000EAD1FAD2D9797FD06C28BAF1CAE0F5FFE
:1049A0001F4FB801CE01895B9F4F0E94741C882362
:1049B00061F329962EAD3FAD29972D968EAD9FAD13
:1049C0002D97BE01655C7F4F820F931F0E94283098
:1049D0002D961FAF0EAF2D97D8CF4101A301495E91
:1049E0005E4F652DC3010E941C09982E811129CFAD
:1049F00081E0F301EC5FFE4F808332974082319675
:104A00005082F301E85CFE4F80818111EDC5329741
:104A1000A080B18030E020E023014BEB441A4EEF40
:104A2000540AC3018F5B9E4F64969FAF8EAF64970D
:104A3000F301ED5DFE4F6796FFAFEEAF6797A30101
:104A40004F5D5E4F69965FAF4EAF69974C976B961F
:104A50009FAF8EAF6B9735966D96FFAFEEAF6D97AC
:104A600003C0FCEF9F2E9601F501E20FF31F0081BA
:104A7000002309F484C09110E7CE69015FEFC51AE5
:104A8000D50AD501AC0DBD1D6C910F3F09F04DC08D
:104A9000690182E0C80ED11CD501AC0DBD1D8C9101
:104AA000613029F198F0623089F16330D1F6690103
:104AB00044E0C40ED11C238190E0982F8827820FF8
:104AC000911D6D96EEADFFAD6D970EC0690194E03E
:104AD000C90ED11C238190E0982F8827820F911D49
:104AE0006996EEADFFAD699791838083BCCF690174
:104AF00044E0C40ED11C238190E0982F8827820FB8
:104B0000911D6796EEADFFAD6797EECF690144E06A
:104B1000C40ED11C238190E0982F8827820F911D0D
:104B20006B96EEADFFAD6B97DFCF053008F099CFF8
:104B30002E5F3F4FD501A20FB31FF101C02ED12C24
:104B4000CF01821993098C159D051CF48D918193D9
:104B5000F7CFC20ED31EF201E080F18010E030E00A
:104B600020E0A1016496EEADFFAD649780810E94C4
:104B7000ED05892B09F477CFECEE9E2E74CF9110C2
:104B800063CE44E06AE0C3010E945806982E81116A
:104B90005BCE20E04FEE64E8C3010E94F40A982E39
:104BA000811152CE84E0F301E253FF4F8083C301B1
:104BB0000E94620B982E811147CE41E06FEFC30136
:104BC0000E945806982EAE01495B5F4F64E8C3010E
:104BD0000E944A0A982A40E06FEFC3010E945806DB
:104BE000982A09F031CEF301E853FF4F29968EAD94
:104BF0009FAD299734E0880F991F3A95E1F7B0E00F
:104C0000A0E080839183A283B383B101C3010E949A
:104C10007B0E982E811118CEAE01415B5F4F69E08B
:104C2000C3010E94450B982E81110ECE60968FAD68
:104C30006097817060968FAF6097F301E25EFE4FE0
:104C400080838AE3F101D301509601900D928A95F9
:104C5000E1F7AE01415B5F4F61E0C3010E94450B8C
:104C6000982E8111F1CD8301035E1E4F60968FADAA
:104C70006097F80180831BAEAE01455C5F4F61E039
:104C8000C3010E94450B982E8BAD9110DDCDF82EFF
:104C9000E894F4F884FF12C04F2D61E0C3010E9434
:104CA0005806982E8111D0CDF801F082F301428987
:104CB000538964897589C3010E943A101BAEAE0105
:104CC000455C5F4F61E0C3010E94450B982E8BADA0
:104CD0009110BACDF82EE894F2F882FF12C04F2D51
:104CE00061E0C3010E945806982E8111ADCDF801F4
:104CF000F082F3014289538964897589C3010E9456
:104D00003A1083E0F301E15EFE4F8083AE01435B26
:104D10005F4F60E0C3010E94EE0B982E811194CD8D
:104D20002E968FAD2E97F301E852FF4F8083AE0190
:104D3000435B5F4F61E0C3010E94EE0B982E81112F
:104D400083CD2E968FAD2E97F301ED52FF4F8083CA
:104D5000AE01455C5F4F63E0C3010E94240E982EB4
:104D6000811172CD8BAD9CADADADBEADF301EC52FA
:104D7000FF4F80839183A283B383AE01455C5F4F75
:104D800064E0C3010E94240E982E81115DCDF301D1
:104D9000E153FF4F8BAD9CADADADBEAD8083918334
:104DA000A283B38351CD2996CEACDFAC2997C11431
:104DB000D10429F076010115110509F0BCC22D9628
:104DC0008EAD9FAD2D97892B09F496C38AEE92E0A4
:104DD0000E9423182D964EAD5FAD2D9729966EAD8E
:104DE0007FAD299781EB94E00E94C5028DE492E0AB
:104DF0000E94231823961FAE1EAE239725961FAE42
:104E00001EAE259727961FAE1EAE2797BE01695B83
:104E10007F4FCE018F5B9F4F0E94BD1C712C612C78
:104E200027968EAD9FAD2797892B81F02396EEAC08
:104E3000FFAC23976AE370E0C7010E94143000972B
:104E400029F08C010E191F0917FFB1C226E0269D1B
:104E5000C001279D900D1124BE016F5B7F4F820D15
:104E6000931D0E94BD1CCE018F5B9F4F0E946C1C46
:104E700041E065964FAF6597CE01895B9F4F0E94D9
:104E80006C1C65965FAD6597552309F44EC08D8106
:104E90009E81892B09F449C06DEF72E089819A8166
:104EA0000E941F30892B09F040C08F8198850097A0
:104EB00009F426C30E94012B8B018D859E85C12C90
:104EC000D12C7601009719F00E94012B6B0182E032
:104ED00090E090939F0480939E04B801012E000CF3
:104EE000880B990B0E944D2BAB01BC018EE397E020
:104EF0000E948502B6010D2C000C880B990B0E94B4
:104F00004D2BAB01BC0181E297E00E94850286E057
:104F100093E00E942318C8010E948C198EE193E04F
:104F20000E942318C6010E948C19CE0149960E9446
:104F30006C1CCE0143960E946C1CCE010D960E9403
:104F40006C1CCE0107960E946C1CC1010E946C1C57
:104F50008FB7F8940091AD041091AE042091AF0486
:104F60003091B0048FBF0093A4041093A504209344
:104F7000A6043093A7048091F3019091F401A091CD
:104F8000F501B091F601C0908B04D0908C04E090B4
:104F90008D04F0908E040C191D092E093F09081785
:104FA00019072A073B0708F48AC04090470750902A
:104FB00048076090490770904A07BC01990F880B19
:104FC000990B0E944D2B6B017C01C301B2010E9421
:104FD0004B2B20E030E040EA51E40E944D2D20E0D0
:104FE00030E64AE657E40E94AC2BA70196010E94E6
:104FF0004D2D60934B0770934C0780934D07909312
:105000004E071092470710924807109249071092D6
:105010004A0760912A0770912B0780912C07909185
:105020002D070E944B2B20E030E040EA51E40E9423
:105030004D2D20E030E64AE657E40E94AC2BA70154
:1050400096010E944D2D60932E0770932F07809339
:1050500030079093310710922A0710922B07109275
:105060002C0710922D0768E077E08091A2069091BE
:10507000A3060E942C1280912007843009F444C2B8
:1050800080911007909111078F3F980709F43CC257
:10509000863991050CF038C281E0809395048091A7
:1050A000A4049091A504A091A604B091A7048093B4
:1050B0008B0490938C04A0938D04B0938E04C090C5
:1050C000A404D090A504E090A604F090A7048091D9
:1050D0008F0490919004A0919104B0919204B70133
:1050E000A601481B590B6A0B7B0B8091F70190912D
:1050F000F801A091F901B091FA01481759076A0720
:105100007B07D0F08EE00E947B0121E0019709F03F
:1051100020E0209394048FE00E947B0121E001971E
:1051200009F020E020939304C0928F04D092900461
:10513000E0929104F09292048091960490919704E9
:10514000A0919804B0919904B701A601481B590B8E
:105150006A0B7B0B8091FB019091FC01A091FD01FA
:10516000B091FE01481759076A077B07D8F0809174
:105170009E0490919F04009709F4C9C18130910564
:1051800009F4DEC18EE397E00E94BB0681E297E05E
:105190000E94BB06C0929604D0929704E0929804B5
:1051A000F092990480919A0490919B04A0919C04A0
:1051B000B0919D04B701A601481B590B6A0B7B0BEC
:1051C0008091FF0190910002A0910102B091020232
:1051D000481759076A077B0780F08EE397E00E9423
:1051E000870781E297E00E948707C0929A04D092D5
:1051F0009B04E0929C04F0929D048091A004909105
:10520000A104A091A204B091A304C81AD90AEA0A81
:10521000FB0A38EEC31633E0D306E104F10408F4C8
:105220007CC087E393E00E947A1982E493E00E94B5
:10523000231880919E0490919F040E948C198EE403
:1052400093E00E94231880915707909158070E947D
:1052500074188FE20E94F2038091590790915A07C7
:105260000E9474188FE20E94F20360914B077091C4
:105270004C0780914D0790914E0742E00E94A21882
:105280008DE492E00E94231880E693E00E942318A8
:1052900080913A0790913B070E9474188FE20E9418
:1052A000F20380913C0790913D070E9474188FE2B1
:1052B0000E94F20360912E0770912F0780913007B2
:1052C0009091310742E00E94A2188DE492E00E9482
:1052D00023188EE00E947B01019709F07FC183E7CC
:1052E00093E00E947A198FE00E947B01019709F0F8
:1052F00078C18EE893E00E947A198091A40490917D
:10530000A504A091A604B091A7048093A004909353
:10531000A104A093A204B093A30480E090E0892BA1
:1053200009F415CB0E946F03882309F410CB0E9467
:1053300000000DCB730137015FEF651A750AF701A5
:105340008081082E000C990B0E943D2B892B91F730
:10535000015011090C0D1D1DF8018081082E000C53
:10536000990B0E943D2B892B31F00E151F0518F06B
:1053700001501109F1CFA8014F5F5F4F4E195F092E
:105380002D965FAF4EAF2D97CE14DF0420F4B701FA
:10539000C6010E940B302996EEADFFAD29972D96E0
:1053A0008EAD9FAD2D97E80FF91F108208CD6FE4E9
:1053B00072E0CE01CB960E94D41C27968EAD9FAD95
:1053C0002797009749F178018017910708F47C012D
:1053D0002396EEADFFAD2397EE0DFF1DD08010821A
:1053E00023966EAD7FAD23976115710509F47AC0E0
:1053F000FB0101900020E9F73197AF01461B570BE5
:10540000CE01CB960E949C1C23968EAD9FAD239718
:10541000E80EF91EF701D082BE01655C7F4FC20124
:105420000E94211CCE01CB960E946C1C0F5F1F4F67
:105430002796EEACFFAC2797E016F10628F09E2DDC
:105440008F2D7801092F182F6FE472E0CE01CB96D3
:105450000E94D41C2796CEACDFAC2797EC14FD0439
:1054600048F50C151D0508F468012396EEADFFAD57
:105470002397EC0DFD1D1081108223966EAD7FAD3C
:1054800023976E0D7F1D6115710589F1FB01019058
:105490000020E9F73197AF01461B570BCE01CB96A1
:1054A0000E949C1C23968EAD9FAD2397C80ED91EDB
:1054B000F6011083BE01655C7F4FCE018F5B9F4F6D
:1054C0000E94211CCE01CB960E946C1CFFEF6F1A2C
:1054D0007F0A26E0420E511C35E06316710409F084
:1054E0009FCCC1CCCE01CB960E945A1C8DCFCE0151
:1054F000CB960E945A1CD6CF65961FAE6597BCCC42
:1055000060E070E0CB01D8CC10929504C8CD109229
:105510004F071092500710925107109252071092A5
:1055200054071092530710923207109233071092CB
:10553000340710923507109237071092360722CEA3
:1055400020919504222349F08EE397E00E944507BD
:1055500081E297E00E94450715CE20919304309197
:10556000940431111BC080924F0790925007A09273
:105570005107B0925207909354078093530721111B
:1055800020C08092320790923307A0923407B092E5
:1055900035079093370780933607F4CD2111D4CF88
:1055A00020E030E040E752E420934F07309350076B
:1055B0004093510750935207909354078093530799
:1055C000E0CF20E030E040E752E420933207309310
:1055D00033074093340750933507DBCF80E893E0DF
:1055E00080CE8CE993E087CE80E0A82E81E0B82EB3
:1055F00011CA84E297E00E946C1C81E497E00C944D
:105600006C1C1F93FC0199278827BC01E894119119
:105610001032E9F3193010F01E30C8F31B3251F08C
:105620001D3249F4689406C00E94282B610F711D39
:10563000811D911D119110531A30B0F33EF49095D5
:105640008095709561957F4F8F4F9F4F1F91089563
:10565000592F482F372F262F660F771F881F991F26
:10566000660F771F881F991F620F731F841F951F76
:10567000660F771F881F991F089591110C94192C9C
:10568000803219F089508550C8F708950E94882B00
:1056900008F481E00895E89409C097FB3EF49095E2
:1056A0008095709561957F4F8F4F9F4F9923A9F0FB
:1056B000F92F96E9BB279395F6958795779567958A
:1056C000B795F111F8CFFAF4BB0F11F460FF1BC0CE
:1056D0006F5F7F4F8F4F9F4F16C0882311F096E961
:1056E00011C0772321F09EE8872F762F05C066230F
:1056F00071F096E8862F70E060E02AF09A95660FC8
:10570000771F881FDAF7880F9695879597F9089580
:10571000990F0008550FAA0BE0E8FEEF16161706C2
:10572000E807F907C0F012161306E407F50798F02A
:10573000621B730B840B950B39F40A2661F0232B43
:10574000242B252B21F408950A2609F4A140A695BF
:105750008FEF811D811D08950E94BF2B0C94332C67
:105760000E94252C38F00E942C2C20F0952311F05B
:105770000C941C2C0C94222C11240C94672C0E9449
:10578000442C70F3959FC1F3950F50E0551F629F15
:10579000F001729FBB27F00DB11D639FAA27F00D8A
:1057A000B11DAA1F649F6627B00DA11D661F829FB1
:1057B0002227B00DA11D621F739FB00DA11D621F96
:1057C000839FA00D611D221F749F3327A00D611DB3
:1057D000231F849F600D211D822F762F6A2F112495
:1057E0009F5750409AF0F1F088234AF0EE0FFF1FC8
:1057F000BB1F661F771F881F91505040A9F79E3F1F
:10580000510580F00C941C2C0C94672C5F3FE4F342
:10581000983ED4F3869577956795B795F795E79574
:105820009F5FC1F7FE2B880F911D9695879597F97D
:10583000089599278827089597F99F6780E870E071
:1058400060E008959FEF80EC089500240A941616F6
:10585000170618060906089500240A94121613065E
:10586000140605060895092E0394000C11F48823EC
:1058700052F0BB0F40F4BF2B11F460FF04C06F5F08
:105880007F4F8F4F9F4F089557FD9058440F551FDE
:1058900059F05F3F71F04795880F97FB991F61F0B2
:1058A0009F3F79F087950895121613061406551F29
:1058B000F2CF4695F1DF08C0161617061806991F95
:1058C000F1CF86957105610508940895E894BB278A
:1058D00066277727CB0197F908950E94D12CA59FC1
:1058E000900DB49F900DA49F800D911D11240895DB
:1058F0002F923F924F925F926F927F928F929F92E0
:10590000AF92BF92CF92DF92EF92FF920F931F93CD
:10591000CF93DF93CDB7DEB7CA1BDB0B0FB6F8947E
:10592000DEBF0FBECDBF09942A88398848885F84BE
:105930006E847D848C849B84AA84B984C884DF802F
:10594000EE80FD800C811B81AA81B981CE0FD11D13
:105950000FB6F894DEBF0FBECDBFED010895A1E2F2
:105960001A2EAA1BBB1BFD010DC0AA1FBB1FEE1FD9
:10597000FF1FA217B307E407F50720F0A21BB30B24
:10598000E40BF50B661F771F881F991F1A9469F7A0
:1059900060957095809590959B01AC01BD01CF01FC
:1059A0000895A29FB001B39FC001A39F700D811DF8
:1059B0001124911DB29F700D811D1124911D089518
:1059C0005058BB27AA270E94F82C0C94332C0E9415
:1059D000252C38F00E942C2C20F039F49F3F19F42C
:1059E00026F40C94222C0EF4E095E7FB0C941C2C6E
:1059F000E92F0E94442C58F3BA17620773078407F3
:105A0000950720F079F4A6F50C94662C0EF4E09539
:105A10000B2EBA2FA02D0B01B90190010C01CA0168
:105A2000A0011124FF27591B99F0593F50F4503E13
:105A300068F11A16F040A22F232F342F4427585F05
:105A4000F3CF469537952795A795F0405395C9F71D
:105A50007EF41F16BA0B620B730B840BBAF09150D5
:105A6000A1F0FF0FBB1F661F771F881FC2F70EC074
:105A7000BA0F621F731F841F48F487957795679547
:105A8000B795F7959E3F08F0B0CF9395880F08F033
:105A90009927EE0F9795879508950E94612D0C9494
:105AA000332C0E942C2C58F00E94252C40F029F415
:105AB0005F3F29F00C941C2C51110C94672C0C9412
:105AC000222C0E94442C68F39923B1F3552391F3BF
:105AD000951B550BBB27AA2762177307840738F05D
