:020000040000FA
:100000000C9421010C941A0A0C94F3090C944901E4
:100010000C9449010C9449010C9449010C94490138
:100020000C9449010C9449010C9449010C94490128
:100030000C9449010C9449010C9449010C94490118
:100040000C94A9090C9449010C94670A0C94410A78
:100050000C9449010C9449010C9449010C944901F8
:100060000C94990A0C9449014E414E494E495459F9
:10007000494E46CDCCCC3D0AD7233C17B7D1387773
:10008000CC2B329595E6241FB14F0A000020410089
:1000900000C84200401C4620BCBE4CCA1B0E5AAED3
:1000A000C59D7400407A10F35A00A0724E180900E2
:1000B00010A5D4E80000E87648170000E40B5402CD
:1000C0000000CA9A3B000000E1F505000080969808
:1000D00000000040420F000000A086010000001058
:1000E0002700000000E8030000000064000000009A
:1000F000000A00000000000100000000002C76D87B
:1001000088DC674F0823DFC1DFAE59E1B1B796E560
:10011000E3E453C63AE651997696E8E6C28426EBC4
:10012000898C9B62ED407C6FFCEFBC9C9F40F2BAD7
:10013000A56FA5F490055A2AF75C936B6CF9676D6F
:10014000C11BFCE0E40D47FEF520E6B500D0ED90C4
:100150002E0300943577050080841E080000204E91
:100160000A000000C80C333333330F986E1283112A
:1001700041EF8D2114893BE65516CFFEE6DB18D101
:10018000844B381BF77C1D901DA4BBE424203284D3
:10019000725E228100C9F124ECA1E53D2741726421
:1001A00075696E6F204F4E4C494E45004172647523
:1001B000696E6F20426F6F74696E672E2E2E00433A
:1001C0006F6D6D616E642072656365697665643A12
:1001D0002000454D455247454E435953544F5050CA
:1001E00045440000000000240027002A0000000011
:1001F00000250028002B0000000000230026002915
:1002000000040404040404040402020202020203BF
:1002100003030303030102040810204080010204C9
:10022000081020010204081020000000080002014C
:100230000000030407000000000000000000B40BF1
:100240005C1411241FBECFEFD8E0DEBFCDBF24E089
:10025000A6EDB1E001C01D92A331B207E1F711E0B4
:10026000A0E0B1E0E6ECF1E402C005900D92A63DFD
:10027000B107D9F711E0C0E2D1E004C02197FE0137
:100280000E940A1CCF31D107C9F70E94B50D0C940A
:10029000D6200C9400008230C8F4E82FF0E0EE0F76
:1002A000FF1FE85EFE4F71836083813041F08091D3
:1002B00069008C7F826080936900E89A089580913C
:1002C0006900837F886080936900E99A089583308C
:1002D00081F028F4813099F08230A9F008958730B8
:1002E000A9F08830C9F08430B1F4809180008F7D0E
:1002F00003C0809180008F7780938000089584B53B
:100300008F7784BD089584B58F7DFBCF8091B00039
:100310008F778093B00008958091B0008F7DF9CFE2
:10032000CF93DF93282F30E0F901E75DFD4F8491F3
:10033000F901EB5EFD4FD491F901EF5FFD4FC491E0
:10034000CC23A1F081110E946701EC2FF0E0EE0FA9
:10035000FF1FE950FE4FA591B491EC91ED2381E090
:1003600090E009F480E0DF91CF91089580E090E083
:10037000FACF1F93CF93DF93282F30E0F901E75D89
:10038000FD4F8491F901EB5EFD4FD491F901EF5FD0
:10039000FD4FC491CC23A9F0162F81110E94670153
:1003A000EC2FF0E0EE0FFF1FE351FE4FA591B4914B
:1003B0008FB7F894EC91111108C0D095DE23DC932F
:1003C0008FBFDF91CF911F910895DE2BF8CFCF9390
:1003D000DF9390E0FC01EB5EFD4F24918F5F9D4F1A
:1003E000FC0184918823C9F090E0880F991FFC01DB
:1003F000ED51FE4FA591B491FC01E351FE4FC59123
:10040000D49161110DC09FB7F8948C9120958223EF
:100410008C938881282328839FBFDF91CF910895F3
:10042000623051F49FB7F8943C91822F80958323DA
:100430008C93E8812E2BEFCF8FB7F894EC912E2B75
:100440002C938FBFEACF1F93CF93DF93182FEB012D
:1004500061E00E94E701209739F460E0812FDF918D
:10046000CF911F910C94B901CF3FD10511F461E0F8
:10047000F5CFE12FF0E0E75DFD4FE491E33031F19E
:1004800040F4E130B1F0E230E1F0C038D1057CF762
:10049000E4CFE73029F1E83059F1E430B1F7809149
:1004A0008000806280938000D0938B00C0938A008C
:1004B00004C084B5806884BDC7BDDF91CF911F9112
:1004C000089584B5806284BDC8BDF7CF8091800057
:1004D000806880938000D0938900C0938800EDCF1E
:1004E0008091B00080688093B000C093B300E5CFE6
:1004F0008091B00080628093B000C093B400DDCFE3
:100500003FB7F8948091C2029091C302A091C402B7
:10051000B091C50226B5A89B05C02F3F19F00196E2
:10052000A11DB11D3FBFBA2FA92F982F8827BC014D
:10053000CD01620F711D811D911D42E0660F771F75
:10054000881F991F4A95D1F708952FB7F8946091A5
:10055000BE027091BF028091C0029091C1022FBF74
:1005600008950895AF92BF92CF92DF92EF92FF92DB
:100570000F931F93CF93DF936C017B018B01040FCB
:10058000151FEB015E01AE18BF08C017D10759F067
:100590006991D601ED91FC910190F081E02DC601A9
:1005A0000995892B79F7C501DF91CF911F910F91A3
:1005B000FF90EF90DF90CF90BF90AF900895FC0137
:1005C000538D448D252F30E0842F90E0821B930BB8
:1005D000541710F0CF96089501970895FC01918D5E
:1005E000828D981761F0A28DAE0FBF2FB11D5D9661
:1005F0008C91928D9F5F9F73928F90E008958FEF03
:100600009FEF0895FC01918D828D981731F0828DB6
:10061000E80FF11D858D90E008958FEF9FEF08950D
:10062000FC01918D228D892F90E0805C9F4F821B71
:1006300091098F739927089586EC92E00E94100328
:1006400021E0892B09F420E0822F089580E090E0DA
:10065000892B29F00E941C0381110C94000008953D
:10066000FC01A48DA80FB92FB11DA35ABF4F2C9127
:10067000848D90E001968F739927848FA689B7891E
:100680002C93A089B1898C91837080648C93938D15
:10069000848D981306C00288F389E02D80818F7DB8
:1006A00080830895EF92FF920F931F93CF93DF9370
:1006B000EC0181E0888F9B8D8C8D98131AC0E8899E
:1006C000F989808185FF15C09FB7F894EE89FF896D
:1006D0006083E889F98980818370806480839FBF0B
:1006E00081E090E0DF91CF911F910F91FF90EF900B
:1006F0000895F62E0B8D10E00F5F1F4F0F7311271B
:10070000E02E8C8D8E110CC00FB607FCFACFE88955
:10071000F989808185FFF5CFCE010E943003F1CFAA
:10072000EB8DEC0FFD2FF11DE35AFF4FF0829FB7C9
:10073000F8940B8FEA89FB8980818062CFCF0F9379
:100740001F93CF93DF938C01D0E0C0E0F801EC0F52
:10075000FD1F6491662341F086EC92E00E945203F3
:10076000892B11F02196F2CFCE01DF91CF911F910D
:100770000F910895CF93DF93EC01888D8823B9F012
:10078000AA89BB89E889F9898C9185FD03C080819C
:1007900086FD0DC00FB607FCF7CF8C9185FFF2CF19
:1007A000808185FFEDCFCE010E943003E9CFDF913C
:1007B000CF9108952091FD01260F3327331F213259
:1007C0003105ECF420912102FC0190E080E024301E
:1007D00069F082E00895A091FD012191AC0143529E
:1007E0005E4FA40FB52FB11D2C930196861798F379
:1007F0008091FD01680F6093FD0180E0089581E024
:10080000089508958FEF9FEF08958FEF9FEF08955C
:100810008091D60190E09195819591090895CF93AB
:10082000DF93CB01EA01642F0E94DA03CE01DF914E
:10083000CF910895CF93DF931F92CDB7DEB7698331
:1008400061E0CE0101960E94DA0381E090E00F9012
:10085000DF91CF91089590E080E008954F925F92EC
:100860006F927F928F929F92AF92BF92CF92DF92C0
:10087000EF92FF920F931F93CF93DF9300D000D09E
:1008800000D0CDB7DEB74115510561057105C9F03E
:10089000FC0125A5211115C06A017B019E838D8372
:1008A000478C50A061A072A020E030E0A901C301F4
:1008B000B2010E94491981111BC0ED81FE8112A66F
:1008C00011A626960FB6F894DEBF0FBECDBFDF91FE
:1008D000CF911F910F91FF90EF90DF90CF90BF903D
:1008E000AF909F908F907F906F905F904F90089502
:1008F000C701B6010E944E192FE632E143E85AE3E0
:100900000E94AF194B015C01ED81FE81C388D48840
:10091000E588F688A7019601C301B2010E94F01A8A
:100920002B013C010D811E810E5B1F4FF8012081C0
:100930003181428153810E94F01AED81FE8126A906
:1009400037A940AD51AD0E94AF1969837A838B837B
:100950009C83ED81FE81E65BFF4F60817181828126
:1009600093819B01AC010E94F11A9B01AC01C7016C
:10097000B6010E94F01AED81FE81E25BFF4F2081FB
:100980003181428153810E94F11AED81FE8122ADB5
:1009900033AD44AD55AD50580E94AF19A501940137
:1009A0000E945D1B6B017C0120E030E040E450ECD4
:1009B0000E94491987FD93C020E030E040E450E4F4
:1009C000C701B6010E94051C18160CF48FC0ED81FA
:1009D000FE81FE962081318142815381C301B201A3
:1009E0000E94AF19A50194010E94AF194B015C014F
:1009F00020E030E040E252EC0E94491987FD7CC0C3
:100A000020E030E040E252E4C501B4010E94051C40
:100A100018160CF478C029813A814B815C81C5019C
:100A2000B4010E94F11AA70196010E94F11A4B012C
:100A30005C0120E030E040E752EC0E94491987FD5C
:100A400069C020E030E040E752E4C501B4010E94F3
:100A5000051C18160CF465C0ED80FE80F6E4EF0E60
:100A6000F11CF7012081318142815381C501B4011C
:100A70000E94F11A4B015C0120E030E0A9010E94C4
:100A8000491987FD55C020E030E04FE753E4C50128
:100A9000B4010E94051C18160CF44EC0F7018082A8
:100AA0009182A282B382C501B4010E94CF1BED8165
:100AB000FE8172A761A76F3F710519F014F06FEF07
:100AC00070E077FF02C070E060E0ED81FE8172A708
:100AD00061A7F8014082518262827382F2CEC12CFA
:100AE000D12C60E4E62E60ECF62E71CFC12CD12C17
:100AF00050E4E52EFE2C6BCF812C912C40E2A42EED
:100B000042ECB42E88CF812C912C30E2A32E32E41B
:100B1000B32E81CF812C912C20E7A22E22ECB22E75
:100B20009BCF812C912C90E7A92E92E4B92E94CFE3
:100B3000812C912C5401B2CF812C912C8FE7A82EBF
:100B400083E4B82EABCF0F931F93CF93DF938C0129
:100B5000EB01FC0180811C161D0694F070E060E042
:100B6000209771F00E942302662777276C1B7D0B6C
:100B7000F8018181DF91CF911F910F910C94230295
:100B80000E94230270E060E0F3CFCF92DF92EF92F9
:100B9000FF920F931F93CF93DF93EC018DA58823D2
:100BA000C1F10E94A5020AA91BA92CA93DA9601B9D
:100BB000710B820B930B6639710581059105B8F4B1
:100BC00088EC90E098A78FA38BA19CA128EC289F8C
:100BD000B001299F700D1124CE01DF91CF911F919B
:100BE0000F91FF90EF90DF90CF900C94A3051DA67E
:100BF00088E790E098A78FA39AA789A780E090E064
:100C0000A0EFB2E4FE01EA5BFF4F80839183A283F1
:100C1000B3830BA11CA1CDA0DEA0EFA0F8A40C15FE
:100C20001D0559F589A59AA58E199F09181619064B
:100C30009CF48031910514F08FE090E08E0D9F1DA3
:100C400098A78FA38FA198A5089FB001099F700D49
:100C5000189F700D1124C0CF0097A1F3853B2FEF93
:100C6000920744F0919581959109E81AF90AF8A63E
:100C7000EFA2E8CF8BE490E0F8CF20E030E040EA4C
:100C800050E46B897C898D899E890E94491987FF70
:100C90000CC08AE0E816F1045CF40E9DB0010F9DD3
:100CA000700D1E9D700D112497CF1E141F045CF44F
:100CB000C7012CE4E216F10414F08BE490E0E81A8A
:100CC000F90AF8A6EFA28FA198A597FF02C018A66F
:100CD0001FA28FA198A5C89EB001C99E700DD89E75
:100CE000700D112479CFCF92DF92EF92FF92CF93C4
:100CF000DF93EC016A017B0120E030E0A9016F8DF8
:100D000078A189A19AA10E944919811109C020E006
:100D100030E0A901C701B6010E94051C181674F144
:100D200020E030E0A901C701B6010E94051C181699
:100D30003CF4CF8ED8A2E9A2FAA281E090E013C0E1
:100D400020E030E0A901C701B6010E94491987FFE0
:100D50000DC0F7FAF094F7F8F094CF8ED8A2E9A27C
:100D6000FAA28FEF9FEF9CA38BA32CC01F8E18A21B
:100D700019A21AA21CA21BA21DA624C0CF8ED8A203
:100D8000E9A2FAA281E090E09CA38BA38BA5882323
:100D9000C9F081E08DA70E94A5026AAB7BAB8CAB4A
:100DA0009DAB1BA61CA6FE01EA5BFF4F10821182C1
:100DB000128213821AA619A6CE5BDF4F18821982FF
:100DC0001A821B82DF91CF91FF90EF90DF90CF903E
:100DD0000895CF93DF93EC0140E050E0BA010E9408
:100DE000730670E060E0CE010E94A30518A61FA262
:100DF000FE01EA5BFF4F10821182128213821AA653
:100E000019A6CE5BDF4F188219821A821B82DF91EE
:100E1000CF910895CF92DF92EF92FF920F931F939D
:100E2000CF93DF93EC01F8946B857C858D859E854F
:100E30000F81188529853A8578946115710581059A
:100E4000910511F10115110521053105E9F0CF8456
:100E5000D888E988FA880C151D052E053F05A1F0F4
:100E60000F87188B298B3A8B613422E472072FE0AD
:100E70008207910508F45DC080E090E0A0E8BFEB38
:100E80008B8F9C8FAD8FBE8FDE01A65BBF4F4D91C8
:100E90005D916D917C911397FE01E25BFF4F408362
:100EA0005183628373834B895C896D897E894D93FD
:100EB0005D936D937C931397F894CF80D884E984E5
:100EC000FA84789420E030E0A9016B8D7C8D8D8DC3
:100ED0009E8D0E94491987FF41C08F89988DA98DE9
:100EE000BA8D8B8B9C8BAD8BBE8B8DA5811118C061
:100EF00020E030E040E85FE36B897C898D899E8942
:100F00000E94491918160CF44CC08CA5811137C0E9
:100F100081E08CA70E94A5026EA77FA788AB99AB42
:100F2000DF91CF911F910F91FF90EF90DF90CF90C5
:100F300008950E944E1920E030E040EA51E40E94FA
:100F4000AF199B01AC0160EC71EE84E69CE40E9459
:100F50005D1B6B8F7C8F8D8F9E8F96CF0E94800242
:100F60006C197D098E099F09613472448F40910587
:100F700008F0B3CF8B8D9C8DAD8DBE8DB2CF0E940E
:100F8000A5020EA51FA528A939A9601B710B820B0C
:100F9000930B683C71058105910510F281E08BA7E8
:100FA000BFCF1CA61BA6BCCFCF92DF92EF92FF92C1
:100FB0000F931F93CF93DF93EC010E9480020F8168
:100FC000188529853A85012B022B032BB1F00F815F
:100FD000188529853A856B017C01C01AD10AE20A7D
:100FE000F30A97018601003147E214072105310514
:100FF00098F00B871C872D873E876F8378878987BA
:101000009A878B819C81AD81BE810196A11DB11D06
:101010008B839C83AD83BE83DF91CF911F910F9112
:10102000FF90EF90DF90CF9008958BEB93E00C94BE
:10103000D40789E693E00C94D407CF93DF93EC01B7
:1010400061E088810E94E70161E089810E94E701F7
:1010500062E08A81DF91CF910C94E701FC0101905D
:101060000020E9F73197AF01481B590BBC0186EC12
:1010700092E00C94B2028F929F92AF92BF92CF9265
:10108000DF92EF92FF920F931F93CF93DF93CDB731
:10109000DEB7A1970FB6F894DEBF0FBECDBF6C01CF
:1010A000990FEE08FF08F7FE47C06DE286EC92E06C
:1010B0000E9452038C0122273327A9012C193D09D4
:1010C0004E095F0919A2CE0181967C019AE0892E12
:1010D000912CA12CB12CCA01B901A50194010E9447
:1010E0007D1A605DF70162937F012115310541058D
:1010F000510589F790E080E0309719F0CF010E9408
:101100002E08080F191F84E391E00E942E08800F1B
:10111000911FA1960FB6F894DEBF0FBECDBFDF9131
:10112000CF911F910F91FF90EF90DF90CF90BF90E4
:10113000AF909F908F900895A701960119A28E01FC
:101140000F5D1F4F8AE0C82ED12CE12CF12CCA0173
:10115000B901A70196010E947D1A605DF8016293B2
:101160008F01211531054105510589F7309729F087
:10117000CF010E942E088C01C6CF10E000E0C3CF43
:10118000CF93DF930E949F03EC0184E391E00E94E0
:101190002E088C0F9D1FDF91CF910895CF93DF9381
:1011A000EC018091630390916403009759F02091C2
:1011B0006503309166032C173D0720F081E0DF9135
:1011C000CF910895BE016F5F7F4F0E94351D00973C
:1011D00089F09093640380936303D0936603C09374
:1011E00065032091670330916803232B39F7FC01D5
:1011F0001082E4CF80E0E3CF0F931F93CF93DF9370
:101200008C01EC0109900020E9F72197C81BD90B4C
:10121000CE010E94CE0820916303309164038111B6
:1012200017C02115310519F0C9010E94AC1C10929C
:101230006403109263031092680310926703109284
:10124000660310926503DF91CF911F910F9108956E
:10125000D0936803C0936703B801C901DF91CF91B0
:101260001F910F910C94211E1F93CF93DF9385ED57
:101270008093BC008091D9019091DA01A091DB01AB
:10128000B091DC010796A11DB11D23E0B695A7958D
:10129000979587952A95D1F72091BC0024FD03C02E
:1012A0001092210252C04091D9015091DA0160910F
:1012B000DB017091DC01452B462B472B69F300972E
:1012C000A105B10541F02AE22A95F1F700C0019786
:1012D000A109B109E1CF8091D801C1E0C093D70144
:1012E000882399F1D091B8001091BA008091BC0088
:1012F0008A7B8093BC0060E082E10E94B90160E0DB
:1013000083E10E94B90110922102C093230210923E
:10131000220261E082E10E94B90161E083E10E9462
:10132000B9018091B9008E7F8093B9008091B90096
:101330008D7F8093B90088E48093B80085E4809322
:10134000BC001093BA00D093B800DF91CF911F91E9
:1013500008951F920F920FB60F9211242F933F936F
:101360008F939F93AF93BF938091BE029091BF02E2
:10137000A091C002B091C1023091BD0223E0230FC1
:101380002D3758F50196A11DB11D2093BD02809304
:10139000BE029093BF02A093C002B093C10280919D
:1013A000C2029091C302A091C402B091C5020196FD
:1013B000A11DB11D8093C2029093C302A093C402E9
:1013C000B093C502BF91AF919F918F913F912F91A3
:1013D0000F900FBE0F901F90189526E8230F0296CE
:1013E000A11DB11DD2CF1F920F920FB60F921124E3
:1013F0002F933F934F935F936F937F938F939F931D
:10140000AF93BF93EF93FF93E0911A01F0911B010B
:101410000995FF91EF91BF91AF919F918F917F912E
:101420006F915F914F913F912F910F900FBE0F9051
:101430001F9018951F920F920FB60F9211242F93A1
:101440003F934F935F936F937F938F939F93AF934C
:10145000BF93EF93FF93E0911801F0911901099563
:10146000FF91EF91BF91AF919F918F917F916F917C
:101470005F914F913F912F910F900FBE0F901F9052
:1014800018951F920F920FB60F9211242F933F932E
:101490004F935F936F937F938F939F93AF93BF937C
:1014A000EF93FF9386EC92E00E943003FF91EF915F
:1014B000BF91AF919F918F917F916F915F914F916C
:1014C0003F912F910F900FBE0F901F9018951F9274
:1014D0000F920FB60F9211242F938F939F93EF9338
:1014E000FF93E091D602F091D7028081E091DC0277
:1014F000F091DD0282FD1BC090818091DF028F5F41
:101500008F732091E002821741F0E091DF02F0E05A
:10151000EA53FD4F958F8093DF02FF91EF919F91EA
:101520008F912F910F900FBE0F901F901895808173
:10153000F4CF1F920F920FB60F9211242F933F9367
:101540004F935F936F937F938F939F93AF93BF93CB
:10155000EF93FF938091B900887F803609F44AC0E9
:10156000F0F5883209F4A5C018F5803109F499C066
:10157000B8F4882309F4F5C0883009F492C0FF91CB
:10158000EF91BF91AF919F918F917F916F915F91FB
:101590004F913F912F910F900FBE0F901F90189574
:1015A000883109F486C0803251F78093200214C03C
:1015B000803409F49BC040F48033B9F38833F9F6E2
:1015C0008093200285ECAEC0803509F483C0883555
:1015D00009F494C0883499F60E943409D0CF883930
:1015E00009F48AC038F5883729F050F4883611F0AC
:1015F000803729F683E08093210210921F0255C0A4
:10160000883809F479C0803919F0803809F0B7CFEB
:1016100080911F02803208F06FC0E0911F0281E0CC
:101620008E0F80931F028091BB00F0E0E150FE4FCF
:1016300080833BC0803B39F0D0F4803A09F477C016
:10164000883A09F09CCF84E0809321021092FE0139
:101650001092FD01F0E0E0E009958091FD0181111B
:101660000FC081E08093FD011092DD0109C0803C34
:1016700009F4A8CF883C09F4A5CF883B09F07FCFB7
:10168000E091FE0181E08E0F8093FE01F0E0E352D5
:10169000FE4F80818093BB009091FE018091FD01FF
:1016A00029C0809146028093BB0085EC8093BC00EA
:1016B00066CF9091450280914402981758F5E091C9
:1016C000450281E08E0F80934502F0E0EC5DFD4F16
:1016D0008081E9CFE091450281E08E0F8093450241
:1016E0008091BB00F0E0EC5DFD4F8083909145025E
:1016F000809144029817C8F285E8D8CFE09145025E
:1017000081E08E0F809345028091BB00F0E0EC5D9C
:10171000FD4F80838091230281115ECF81E0809311
:10172000220284EA8093BC001092210228CF85EC2B
:101730008093BC001092210280911F02803230F40D
:10174000E0911F02F0E0E150FE4F108260911F0215
:1017500070E08FEF91E0F0E0E0E0099510921F0259
:101760000ECF1092200238CF4F925F926F927F92ED
:101770008F929F92AF92BF92CF92DF92EF92FF92A1
:101780001092C9021092C80288EE93E0A0E0B0E087
:101790008093CA029093CB02A093CC02B093CD0267
:1017A00086E291E09093C7028093C60285EC90E0B8
:1017B0009093D3028093D20284EC90E09093D50270
:1017C0008093D40280EC90E09093D7028093D6026D
:1017D00081EC90E09093D9028093D80282EC90E063
:1017E0009093DB028093DA0286EC90E09093DD0226
:1017F0008093DC021092DF021092E0021092E1026C
:101800001092E2028DEC482E8CEC582E8CE0682E63
:101810008FE3782E4092F1035092F2036092F3032B
:101820007092F4039DEC892E9CEC992EA92C9DE3DB
:10183000B92E8092F5039092F603A092F703B0922E
:10184000F803C12CD12C20E4E22EFE2CC092F90327
:10185000D092FA03E092FB03F092FC0386E08093BF
:10186000BB0385E08093BC0382E08093BD031092AC
:10187000BE031092BF031092C0031092C1031092D6
:10188000DA031092DB031092DC031092DD03109256
:10189000CE031092CF031092D0031092D103109276
:1018A000D2031092D3031092D4031092D50340E0D8
:1018B00050E060E87FEB4093D6035093D7036093EA
:1018C000D8037093D9031092E3031092E2031092AD
:1018D000E5031092E4031092DF031092DE0321E08F
:1018E00030E03093E1032093E0031092050410925E
:1018F0000604109207041092080410920904109232
:101900000A0410920B0410920C041092FD03109222
:10191000FE031092FF031092000410920104109233
:10192000020410920304109204041092C203109255
:10193000C3031092C4031092C5031092C603109201
:10194000C7031092C8031092C9031092CA031092E1
:10195000CB031092CC031092CD0381E08093E60379
:101960001092E7031092E8031092E9031092EA0341
:101970001092EB031092EC031092ED031092EE0321
:101980001092EF031092F00340929F035092A00335
:101990006092A1037092A2038092A3039092A40389
:1019A000A092A503B092A603C092A703D092A80369
:1019B000E092A903F092AA039AE0909369039BE056
:1019C00090936A0393E090936B0310926C031092D0
:1019D0006D0310926E0310926F03109288031092A1
:1019E000890310928A0310928B0310927C03109249
:1019F0007D0310927E0310927F0310928003109259
:101A000081031092820310928303409384035093C6
:101A1000850360938603709387031092910310925D
:101A20009003109293031092920310928D031092E0
:101A30008C0330938F0320938E031092B303109284
:101A4000B4031092B5031092B6031092B70310922C
:101A5000B8031092B9031092BA031092AB0310921C
:101A6000AC031092AD031092AE031092AF0310922C
:101A7000B0031092B1031092B2031092700310924F
:101A800071031092720310927303109274031092F8
:101A900075031092760310927703109278031092D8
:101AA000790310927A0310927B038093940310922F
:101AB0009503109296031092970310929803109238
:101AC000990310929A0310929B0310929C03109218
:101AD0009D0310929E031092640310926303109270
:101AE000660310926503109268031092670390E0FA
:101AF00080E00E94CE08209163033091640381113D
:101B00001FC02115310519F0C9010E94AC1C1092AB
:101B1000640310926303109268031092670310929B
:101B2000660310926503FF90EF90DF90CF90BF9017
:101B3000AF909F908F907F906F905F904F9008959F
:101B4000109268031092670366E371E0C901FF9089
:101B5000EF90DF90CF90BF90AF909F908F907F904D
:101B60006F905F904F900C94211ECF93DF93CDB771
:101B7000DEB7C654D1090FB6F894DEBF0FBECDBF95
:101B8000789484B5826084BD84B5816084BD85B558
:101B9000826085BD85B5816085BD80916E00816064
:101BA00080936E001092810080918100826080930A
:101BB000810080918100816080938100809180000C
:101BC0008160809380008091B10084608093B10037
:101BD0008091B00081608093B00080917A00846031
:101BE00080937A0080917A00826080937A0080915D
:101BF0007A00816080937A0080917A008068809377
:101C00007A001092C100E091D602F091D70282E0F2
:101C10008083E091D202F091D3021082E091D4024D
:101C2000F091D50280E180831092DE02E091DA0229
:101C3000F091DB0286E08083E091D802F091D90236
:101C4000808180618083E091D802F091D902808107
:101C500088608083E091D802F091D9028081806809
:101C60008083E091D802F091D90280818F7D8083BA
:101C70008CEA91E00E94C0088BEB93E00E941D0863
:101C800089E693E00E941D088091BD03823009F42B
:101C9000C8C0833009F0C7C081E065E178E00E94E8
:101CA0004B0180916B03823009F4BFC0833009F08F
:101CB000BEC081E069E178E00E944B0184E690E0DB
:101CC000A0E0B0E08093000190930101A093020195
:101CD000B093030185E090E0A0E0B0E080930401C0
:101CE00090930501A0930601B093070184E190E071
:101CF000A0E0B0E08093080190930901A0930A014D
:101D0000B0930B018AE090E0A0E0B0E080930C017A
:101D100090930D01A0930E01B0930F0188EE93E014
:101D2000A0E0B0E08093120190931301A0931401FE
:101D3000B093150161E08DE00E94E70160E08CE066
:101D40000E94E70160E08DE00E94B9010E948002DC
:101D50006093B7027093B8028093B9029093BA026D
:101D600060E087E00E94E70160E084E00E94E70114
:101D700060E088E00E94E70181E090E090939D029E
:101D800080939C028DE991E00E94C0088E010F5F54
:101D90001F4F18019E01255F3F4F23963FAF2EAF87
:101DA0002397AE01465C5F4F25965FAF4EAF2597F8
:101DB000CE01C39627969FAF8EAF279740ED442E56
:101DC00047E0542E612C712C8AE0F10111928A9522
:101DD000E9F786EC92E00E9410031816190674F5D4
:101DE00086EC92E00E94EE02182FF1E0F0938D0253
:101DF0000E94A5026093890270938A0280938B02ED
:101E000090938C02112329F3E0918802EF3388F438
:101E100081E08E0F80938802F0E0E85BFD4F108335
:101E2000D8CF80E03ACF8FEF38CF80E043CF8FEF2D
:101E300041CFEE24E394E0924702CBCF80918D0214
:101E4000882331F10E94A5020091890210918A0233
:101E500020918B0230918C02601B710B820B930BD3
:101E60000091CA021091CB022091CC023091CD0298
:101E7000601771078207930758F010928D028091C6
:101E80004702882309F460C2109288021092470228
:101E90000E94A5026093AB027093AC028093AD02E6
:101EA0009093AE0200918E0210918F0220919002C9
:101EB000309191024B015C01801A910AA20AB30A87
:101EC0008091000190910101A0910201B091030164
:101ED00088169906AA06BB0608F492C081149104DC
:101EE000A104B104A1F1F8946091BE037091BF0305
:101EF0008091C0039091C1031092BE031092BF0362
:101F00001092C0031092C10378940E944E1920E0F1
:101F100030E040EA51E40E945D1B20E030E64AE6F2
:101F200057E40E94AF196B017C01C501B4010E9406
:101F30004E199B01AC01C701B6010E945D1B609365
:101F4000D2037093D3038093D4039093D5038090EE
:101F5000AB029090AC02A090AD02B090AE02809126
:101F60008E0290918F02A0919002B0919102881AF6
:101F7000990AAA0ABB0AA1F1F89460916C037091C6
:101F80006D0380916E0390916F0310926C03109219
:101F90006D0310926E0310926F0378940E944E1995
:101FA00020E030E040EA51E40E945D1B20E030E692
:101FB0004AE657E40E94AF196B017C01C501B401E8
:101FC0000E944E199B01AC01C701B6010E945D1B26
:101FD00060938003709381038093820390938303C3
:101FE0008091AB029091AC02A091AD02B091AE0293
:101FF00080938E0290938F02A0939002B0939102EF
:102000008090AB029090AC02A090AD02B090AE0276
:102010008091960290919702A0919802B0919902B6
:10202000B501A401481B590B6A0B7B0B809104017D
:1020300090910501A0910601B09107014817590739
:102040006A077B0708F452C08091BB02882399F08D
:1020500080911601909117019093110180931001C6
:102060001092BB0297FD07C021E0883791050CF064
:1020700020E020939B0287E00E9490018C0188E081
:102080000E94900141E050E00130110511F050E054
:1020900040E0440F551F440F551F21E030E00197E9
:1020A00011F030E020E0220F331F142F122B84E0B8
:1020B0000E94900121E0019709F020E0822F812BFE
:1020C0009091A6028913BEC281FD08C080919A0238
:1020D000833009F483C2843009F49AC28092960254
:1020E00090929702A0929802B092990280919E02DB
:1020F00090919F02A091A002B091A102750164018C
:10210000C81AD90AEA0AFB0A8091080190910901CC
:10211000A0910A01B0910B01C816D906EA06FB0688
:1021200030F180919C0290919D02009709F4B6C213
:10213000019709F4C6C28BEB93E00E940A0789E677
:1021400093E00E940A07B701A6018BEB93E00E947F
:102150002E04B701A60189E693E00E942E04809226
:102160009E0290929F02A092A002B092A102809142
:10217000A2029091A302A091A402B091A502B50180
:10218000A401481B590B6A0B7B0B80910C019091A9
:102190000D01A0910E01B0910F01481759076A0770
:1021A0007B0780F08BEB93E00E94C50589E693E006
:1021B0000E94C5058092A2029092A302A092A4025E
:1021C000B092A5028091A7029091A802A091A902C5
:1021D000B091AA02881A990AAA0ABB0A8091120130
:1021E00090911301A0911401B091150188169906E0
:1021F000AA06BB0608F48DC020E030E0A90160917A
:10220000DA037091DB038091DC039091DD030E947F
:102210004919FF24F394811110C020E030E0A90196
:10222000609188037091890380918A0390918B0358
:102230000E944919811101C0F12C6091CE03709167
:10224000CF038091D0039091D1038E01065C1F4F84
:1022500022E041E00E94651460917C0370917D034F
:1022600080917E0390917F030750110922E041E0A5
:102270000E9465142091A602822F27964FAD2797C2
:102280004F9326965FAD26975F932596EFAD2597E2
:10229000EF932496FFAD2497FF9321701F922F9305
:1022A00081FB992790F91F929F9382FB882780F9E1
:1022B0001F928F93809111018F93809110018F93C2
:1022C0001F92FF9283EB91E09F938F931F9282E383
:1022D0008F933F922F920E94281EC1010E942E08C8
:1022E00084E391E00E942E088091AB029091AC02B1
:1022F000A091AD02B091AE028093A7029093A80284
:10230000A093A902B093AA020FB6F894DEBF0FBE45
:10231000CDBF0E9480024B015C018091BC028130E4
:1023200009F46CC208F428C2823009F498C280E033
:1023300090E0892B09F448CD0E941C03882309F4FE
:1023400043CD0E94000040CD0091880210E0F801CA
:10235000E85BFD4F108238E4E32E32E0F32EF70104
:1023600081915F01882331F090E00E949E15892BB6
:1023700009F0AAC0085B1D4FE016F10648F4F80109
:1023800082915F0190E00E949E15892B09F09EC00A
:10239000F8011082F8E4EF16F2E0FF0651F0A80110
:1023A0004E195F094F5F5F4FB70188E492E00E94CA
:1023B000FB1D1092880280914802882309F468CDA1
:1023C0008FEB91E00E949F0388E492E00E942E0828
:1023D00084E391E00E942E08810188E492E0F801F4
:1023E000819391938F016AE370E00E940D1E009724
:1023F00051F0FC011192CF012396EEACFFAC239774
:10240000E016F10661F7E980FA806CEC71E0C70133
:102410000E94181E8C01892B09F45AC062E771E0F2
:10242000C7010E94181E892B09F0A1C08B819C81D5
:10243000812C912C5401009721F00E949A154B0198
:102440005C018D819E81C12CD12C7601009721F0F9
:102450000E949A156B017C018F819885009709F481
:1024600082C00E949A158092F1039092F203A0928A
:10247000F303B092F403C092F903D092FA03E0920E
:10248000FB03F092FC036093F5037093F6038093D3
:10249000F7039093F80380929F039092A003A09279
:1024A000A103B092A203C092A703D092A803E09226
:1024B000A903F092AA036093A3037093A4038093EB
:1024C000A5039093A603E4CC750149CF850154CFB1
:1024D0008B819C81F12CE12C009739F04AE050E08F
:1024E00070E060E00E9483147B018D819E810097E3
:1024F00039F04AE050E070E060E00E9483148B0104
:1025000022E030E030939D0220939C02B7010F2C13
:10251000000C880B990B0E945019AB01BC018BEB8E
:1025200093E00E947306B801012E000C880B990BF2
:102530000E945019AB01BC0189E693E00E9473062A
:1025400087E391E00E942E08C7010E943B088FE4B8
:1025500091E00E942E08C8010E943B0888E691E0A5
:102560000E94FC0895CC60E070E0CB017CCF69E76D
:1025700071E0C7010E94181E892BA9F44FEF5FEF8D
:1025800050939D0240939C028BEB93E00E94E906DE
:1025900089E693E00E94E90682ED91E00E94C0087E
:1025A00087E891E0DDCF68E971E0C7010E94181E5D
:1025B000892B39F481E090E090939D0280939C02F6
:1025C00067CC62E871E0C7010E94181E892B09F0F0
:1025D0005FCC10929D0210929C025ACC8091920284
:1025E00090919302A0919402B0919502850174019B
:1025F000E81AF90A0A0B1B0BD801C701883592406B
:10260000A105B10508F46ACD11E010939A0266CDD8
:102610008091920290919302A0919402B0919502C0
:10262000A5019401281B390B4A0B5B0BDA01C90188
:1026300088359240A105B10508F450CD82E0809321
:102640009A024CCD90919A02923061F038F499231D
:1026500071F09130F1F08093A60240CD9330C9F033
:102660009430C9F782FD05C081FD15C0F4CF82FF0B
:1026700002C093E003C080FFEECF94E090939A02F3
:102680008092920290929302A0929402B09295024C
:10269000E2CF81FFF0CF10929A02DDCF40E050E010
:1026A000BA018BEB93E00E94730640E050E0BA0160
:1026B00089E693E00E94730682E891E00E94FC089C
:1026C0003ACD82EA91E00E94FC0880919B02882327
:1026D00059F08BEB93E00E94E90689E693E00E94B3
:1026E000E9068AEA91E0EACF80919A02823079F194
:1026F00080F48823F9F040E050E0BA018130F1F035
:102700008BEB93E00E94E90689E693E00E94E906DC
:1027100012CD833061F1843099F740E050E060EFF2
:1027200072E48BEB93E00E94730640E050E060E2BD
:1027300071E418C040E050E060EF72E48BEB93E08E
:102740000E94730640E050E060EF72E40BC040E08E
:1027500050E060EF72E48BEB93E00E94730640E080
:1027600050E0BA0189E693E00E947306E4CC40E0B1
:1027700050E060E271E4E2CF8091BB028111D7CDDD
:102780008091B7029091B802A091B902B091BA02BB
:10279000881A990AAA0ABB0A10E681161AEE91064F
:1027A000A104B10408F4C3CD60E08DE00E94B9013A
:1027B00083E090E00197F1F761E08DE00E94B901BC
:1027C00083E290E00197F1F760E08DE00E94B901AB
:1027D0000E9480026093B7027093B8028093B9029E
:1027E0009093BA026093B3027093B4028093B502DF
:1027F0009093B60221E02093BC0299CD8CE00E9418
:102800009001019761F48092AF029092B002A09281
:10281000B102B092B20282E08093BC0288CD809176
:10282000B3029091B402A091B502B091B602881A99
:10283000990AAA0ABB0A38EA831631E69306A1046C
:10284000B10408F474CD4FEF5FEF5093170140933C
:10285000160151E05093BB021092BC0268CD8CE08F
:102860000E9490014091AF025091B0026091B1027C
:102870007091B20285017401E41AF50A060B170B78
:10288000A8019701892B89F4A7E5B1E00E949F1A5E
:10289000A30192010E947D1A309317012093160123
:1028A000FF24F394F092BB02D7CF283A314641057A
:1028B000510508F43CCDC7CF809163039091640328
:1028C000009711F00C94AC1C0895EF920F931F9396
:1028D000CF93DF93E80134E047FD34E1042E000C90
:1028E000550B57FF03C0519541955109E32E022F17
:1028F000242FAE010E94A715CE01DF91CF911F9129
:102900000F91EF900895B0E0A0E0E9E8F4E10C94B5
:10291000AB1A5C016B017A016115710519F0FB01BD
:1029200091838083E114F10451F0C70102978397EA
:1029300030F040E030E020E090E072C05E01E50160
:102940002196F5011081812F90E00E949E15892B20
:10295000A9F71D3201F52196F501118101E0E1147D
:10296000F10409F4DAC0F0E1EF16F10409F082C0D5
:10297000103359F488818F7D883509F076C019812C
:1029800022960260F0E1EF2EF12C812C912CA12CEB
:1029900088E0B82E8CC01B3221F4E5012296F501A7
:1029A000118100E0DCCFEAE0EE16F10409F4BBC0CF
:1029B000F0E1EF16F10409F06DC0E7CF78E0E72E03
:1029C000F12C812C912CA12C60E1B62E70C03FE936
:1029D000310F3A3128F439EA332E80C021E09AC011
:1029E000302F3170C114D10431F0222309F1219725
:1029F000F601D183C08327FF21C060E070E080E052
:102A000090E8311104C06FEF7FEF8FEF9FE722E274
:102A100030E030930E0420930D04462F372F282FDB
:102A2000642F732F822FCDB7DEB7E1E10C94C71A64
:102A300001FF04C02297F601D183C083332341F004
:102A400090958095709561957F4F8F4F9F4FE5CF03
:102A500097FFE3CF82E290E090930E0480930D0401
:102A60006FEF7FEF8FEF9FE7D8CF10E3E114F10412
:102A700009F4A4CF28E0E216F10409F4A2CF0CF087
:102A800092CF812C912CA12CE0E4BE2E82E0E8169E
:102A9000F10469F060E070E080E090E897010F2CAD
:102AA000000C440B550B0E947D1A49015A0120E08D
:102AB00060E070E0CB0127010F2C000C660877085E
:102AC000FE0150ED352E310E39E0331540F43FEB69
:102AD000310F3A3108F07BCF49EC342E310E3E14E1
:102AE0001F040CF07DCF27FD15C086169706A8069B
:102AF000B90678F0A30192010E946D1A630D711D51
:102B0000811D911D61307105810520E8920708F44F
:102B100065CF2FEF21961081D3CF103309F42ACF40
:102B20002AE0E22EF12C9CEC892E982CA82C9CE01B
:102B3000B92EBDCF662777270C94061791110C94F8
:102B40002E19803219F089508550C8F70895A9E0F0
:102B5000B0E0EDEAF5E10C94B01A6A01F22EB02E65
:102B6000102FFBE3AF2EA01608F41BE31F5F012F0D
:102B700027E0AE014F5F5F4F0E945618BC0189816C
:102B8000982F9970913009F43FC09BE2E1FC04C09A
:102B90009E2D9170E0FC3AC05E2D5071E82FE870D8
:102BA00083FF46C084E0911101C083E0EF2DE81B54
:102BB0008F1508F0E0E0D6018E2F20E2552351F169
:102BC000992329F0D6019C93C60101966C019601C8
:102BD0002D5F3F4FE2FE24C08EE4D6018C9391E43A
:102BE00011969C93119712968C93D9018E2F90E297
:102BF00081111BC0E20FF32FF11D10828EEF9FEFAA
:102C00002996ECE00C94CC1A9DE2C6CF90E2C4CF9A
:102C10002D9381508111FCCFCE0ED11CE0E0D0CF9E
:102C20008EE6D6018C9391E6DBCF9D938150E0CF69
:102C3000482F447082FF3DC084E0911101C083E0C1
:102C40008F1510F4EF2DE81BD6018E2F20E25523AF
:102C500009F1992329F0D6019C93C60101966C01D4
:102C600096012D5F3F4FE2FE1BC089E4D6018C9395
:102C70008EE411968C93119786E412968C93D90169
:102C80008E2F90E2882309F4B5CF9D938150FACF1F
:102C90002D9381508111FCCFCE0ED11CE0E0D9CF15
:102CA00089E6D6018C938EE611968C93119786E671
:102CB000E4CF9B0177FF02C030E020E0A1E0B0E06C
:102CC000911102C0B0E0A0E0F9013196AE0FBF1F34
:102CD0008B2C912CBB2009F461C05401EFEFAE1A8C
:102CE000BE0AAA0DBB1DFA161B0619F014F04F2DD3
:102CF0004A1B511188C0E3FC59C07601A42FB0E2F1
:102D0000A1114FC0C40ED11C992309F45BC040E04F
:102D1000D6011196F60190836D01552309F448C040
:102D2000012F060F9A81582F507184FF03C09133F1
:102D300009F4015010160CF047C0093008F008E003
:102D4000EEE2FE2E5B01A01AB108850191948194F8
:102D500091082F3F320729F4D601FC92F6013196F3
:102D60006F016217730794F1021713077CF5DB01FB
:102D7000A21BB30BAA24A394B12CAC0EBD1EAA0DAA
:102D8000BB1D11968C9121503109D6011196281541
:102D90003905F4F0F60180836D01DBCFB12CA12C55
:102DA000A0CFF701B1937F01A150AACF9111B0CF6D
:102DB000D601942F50E302C05D9391509111FCCF46
:102DC000C40ED11C40E0ACCF01E0BACF80E3DBCF32
:102DD0006217730731F4963388F4953311F4552351
:102DE00069F0F6018083FD01842F90E2811108C013
:102DF000A40FB11D1C9290E080E002CF81E3F1CFDF
:102E000091938150F3CF911183CF8ACFB0E0A0E0AE
:102E1000ECE0F7E10C94B01A5C017B0161157105DF
:102E200019F0DB018D939C9385010F5F1F4FF50116
:102E3000D0818D2F90E00E949E156C01892BB9F5F1
:102E4000DD32B9F50F5F1F4FD5011196DC91C1E05E
:102E50005801F1E0AF1AB10843E050E060E770E0DC
:102E6000C5010E943119892B69F5680182E0C80EFD
:102E7000D11C45E050E06BE670E0C6010E943119BC
:102E8000892B21F4680197E0C90ED11CE114F104EB
:102E900019F0D701CD92DC9260E070E080E89FEFFE
:102EA000C111FFC060E070E080E89FE7FAC0580100
:102EB000BBCFDB3229F485010E5F1F4FF501D181B5
:102EC000C0E0C6CF43E050E068E670E0C5010E9474
:102ED0003119892BE9F0F80110E000E020E030E042
:102EE000A9015F01B0ED8B2E8D0E89E08815C8F128
:102EF0009C2E689491F88C2F8870C2FF16C08111A7
:102F000002C00F5F1F4F3196D501DC91C92DE9CF6B
:102F1000E114F10429F00E5F1F4FF70111830083C4
:102F200060E070E080EC9FE7BCC0882311F00150A6
:102F30001109A5E0B0E00E949F1A9B01AC01220F8D
:102F4000331F441F551F280D311D411D511D2839A8
:102F500099E93907490799E15907A8F2C6609C2EFB
:102F6000D2CFAEEF8A1206C0C3FD3CC09C2E68943F
:102F700093F8C9CFDF7DD534A9F580818D3239F43E
:102F8000C061DF011296818162E070E006C0DF015E
:102F90008B32C1F3119661E070E080535D01A61A97
:102FA000B70A8A30F8F4E0E8CE16ECE0DE065CF40E
:102FB000B601660F771F660F771FC60ED71ECC0CA3
:102FC000DD1CC80ED11C5D01FFEFAF1ABF0A8C914A
:102FD00080538A30A8F1C4FF03C0D194C194D108B2
:102FE0000C0D1D1DC1FF09C0E114F10431F081E099
:102FF000A81AB108D701AD92BC92CA01B9010E94CA
:103000004E19C370C33009F490584B015C0120E0A5
:1030100030E0A9010E944919882309F440C0CFE992
:10302000D0E017FF05C0119501951109C7E8D0E060
:103030006E01B8E1CB1AD10880E2E82EF12C0FC066
:10304000D501B1CFFE0125913591459154910E19CD
:103050001F09C501B4010E94AF194B015C01D501E4
:10306000C4010E151F0574F72497F594E794CC1648
:10307000DD06A9F78A2F880F8B2F881F8F3F49F015
:1030800020E030E0A901C501B4010E944919811175
:1030900006C082E290E090930E0480930D04C50177
:1030A000B401CDB7DEB7ECE00C94CC1A283008F0B0
:1030B00027E03327DA01990F311D87FD91600096D3
:1030C0006105710539F432602E5F3D9330E32A9536
:1030D000E1F708959F3F30F080387105610509F0F0
:1030E0003C5F3C5F3D93913008F08068911DDF9319
:1030F000CF931F930F93FF92EF92192F987F96957E
:10310000E92F96959695E90FFF27E350FF4F9927F2
:103110003327EE24FF24A701E701059008940794C4
:1031200028F4360FE71EF81E491F511D660F771F42
:10313000881F991F0694A1F70590079428F4E70EBD
:10314000F81E491F561FC11D770F881F991F661F44
:103150000694A1F70590079428F4F80E491F561F0E
:10316000C71FD11D880F991F661F771F0694A1F7EF
:103170000590079420F4490F561FC71FD81F990FB9
:10318000661F771F881F0694A9F784911095177002
:1031900041F0D695C79557954795F794E7941A95BA
:1031A000C1F7E3EAF0E068941590159135916591C7
:1031B000959105907FE27395E118F10A430B560B48
:1031C000C90BD009C0F7E10CF11E431F561FC91FE0
:1031D000D01D7EF4703311F48A95E6CFE894015047
:1031E00030F0080F0AF40027021708F4202F239567
:1031F000022F7A3328F079E37D932A95E9F710C0FE
:103200007D932A9589F60694979567953795179536
:103210001794E118F10A430B560BC90BD00998F02B
:1032200023957E9173957A3308F070E37C93201395
:10323000B8F77E9170617D9330F0839571E37D9353
:1032400070E32A95E1F71124EF90FF900F911F9101
:10325000CF91DF91992787FD909508959927882729
:103260000895FB01DC014150504088F08D9181347C
:103270001CF08B350CF4805E659161341CF06B356D
:103280000CF4605E861B611171F3990B0895881B25
:10329000FCCF0E948B1908F481E00895E89409C0DE
:1032A00097FB3EF490958095709561957F4F8F4F79
:1032B0009F4F9923A9F0F92F96E9BB279395F6958F
:1032C000879577956795B795F111F8CFFAF4BB0F0D
:1032D00011F460FF1BC06F5F7F4F8F4F9F4F16C071
:1032E000882311F096E911C0772321F09EE8872FFB
:1032F000762F05C0662371F096E8862F70E060E0B7
:103300002AF09A95660F771F881FDAF7880F96952F
:10331000879597F90895990F0008550FAA0BE0E8D3
:10332000FEEF16161706E807F907C0F01216130687
:10333000E407F50798F0621B730B840B950B39F4C7
:103340000A2661F0232B242B252B21F408950A262D
:1033500009F4A140A6958FEF811D811D08950E945B
:10336000C2190C94331A0E94251A38F00E942C1AA4
:1033700020F0952311F00C941C1A0C94221A11249D
:103380000C94671A0E94441A70F3959FC1F3950F2D
:1033900050E0551F629FF001729FBB27F00DB11DD9
:1033A000639FAA27F00DB11DAA1F649F6627B00D69
:1033B000A11D661F829F2227B00DA11D621F739F52
:1033C000B00DA11D621F839FA00D611D221F749F60
:1033D0003327A00D611D231F849F600D211D822FA7
:1033E000762F6A2F11249F5750409AF0F1F08823CE
:1033F0004AF0EE0FFF1FBB1F661F771F881F9150FB
:103400005040A9F79E3F510580F00C941C1A0C9473
:10341000671A5F3FE4F3983ED4F3869577956795F6
:10342000B795F795E7959F5FC1F7FE2B880F911D24
:103430009695879597F9089597F99F6780E870E0CA
:1034400060E008959FEF80EC089500240A9416161A
:10345000170618060906089500240A941216130682
:10346000140605060895092E0394000C11F4882310
:1034700052F0BB0F40F4BF2B11F460FF04C06F5F2C
:103480007F4F8F4F9F4F089557FD9058440F551F02
:1034900059F05F3F71F04795880F97FB991F61F0D6
:1034A0009F3F79F087950895121613061406551F4D
:1034B000F2CF4695F1DF08C0161617061806991FB9
:1034C000F1CF86957105610508940895E894BB27AE
:1034D00066277727CB0197F90895DB018F939F9398
:1034E0000E949F1ABF91AF91A29F800D911DA39F33
:1034F000900DB29F900D11240895A1E21A2EAA1BDF
:10350000BB1BFD010DC0AA1FBB1FEE1FFF1FA21793
:10351000B307E407F50720F0A21BB30BE40BF50B90
:10352000661F771F881F991F1A9469F76095709519
:10353000809590959B01AC01BD01CF0108950E943B
:10354000E11AA59F900DB49F900DA49F800D911D31
:10355000112408952F923F924F925F926F927F9223
:103560008F929F92AF92BF92CF92DF92EF92FF9293
:103570000F931F93CF93DF93CDB7DEB7CA1BDB0B3F
:103580000FB6F894DEBF0FBECDBF09942A883988E4
:1035900048885F846E847D848C849B84AA84B984EB
:1035A000C884DF80EE80FD800C811B81AA81B981F7
:1035B000CE0FD11D0FB6F894DEBF0FBECDBFED010B
:1035C0000895A29FB001B39FC001A39F700D811DFC
:1035D0001124911DB29F700D811D1124911D08951C
:1035E0005058BB27AA270E94081B0C94331A0E942C
:1035F000251A38F00E942C1A20F039F49F3F19F454
:1036000026F40C94221A0EF4E095E7FB0C941C1A95
:10361000E92F0E94441A58F3BA1762077307840708
:10362000950720F079F4A6F50C94661A0EF4E0954F
:103630000B2EBA2FA02D0B01B90190010C01CA016C
:10364000A0011124FF27591B99F0593F50F4503E17
:1036500068F11A16F040A22F232F342F4427585F09
:10366000F3CF469537952795A795F0405395C9F721
:103670007EF41F16BA0B620B730B840BBAF09150D9
:10368000A1F0FF0FBB1F661F771F881FC2F70EC078
:10369000BA0F621F731F841F48F48795779567954B
:1036A000B795F7959E3F08F0B0CF9395880F08F037
:1036B0009927EE0F9795879508950E94711B0C949A
:1036C000331A0E942C1A58F00E94251A40F029F44F
:1036D0005F3F29F00C941C1A51110C94671A0C943A
:1036E000221A0E94441A68F39923B1F3552391F3E7
:1036F000951B550BBB27AA2762177307840738F061
:103700009F5F5F4F220F331F441FAA1FA9F335D0BD
:103710000E2E3AF0E0E832D091505040E695001C71
:10372000CAF72BD0FE2F29D0660F771F881FBB1F2B
:10373000261737074807AB07B0E809F0BB0B802D09
:10374000BF01FF2793585F4F3AF09E3F510578F035
:103750000C941C1A0C94671A5F3FE4F3983ED4F360
:10376000869577956795B795F7959F5FC9F7880F09
:10377000911D9695879597F90895E1E0660F771F5B
:10378000881FBB1F621773078407BA0720F0621BEC
:10379000730B840BBA0BEE1F88F7E09508950E9417
:1037A000D61B6894B1110C94671A08950E944C1AA4
:1037B00088F09F5798F0B92F9927B751B0F0E1F0F2
:1037C000660F771F881F991F1AF0BA95C9F714C0A2
:1037D000B13091F00E94661AB1E008950C94661A17
:1037E000672F782F8827B85F39F0B93FCCF38695DB
:1037F00077956795B395D9F73EF490958095709538
:1038000061957F4F8F4F9F4F08950E948B1908F449
:103810008FEF0895EE0FFF1F0590F491E02D0994AE
:103820000F931F93CF93DF938230910510F482E0C2
:1038300090E0E0911104F091120430E020E0B0E05B
:10384000A0E0309799F42115310509F44AC0281BEE
:10385000390B24303105D8F58A819B8161157105BA
:1038600089F1FB0193838283FE0111C04081518164
:103870000281138148175907E0F04817590799F456
:10388000109761F012960C93129713961C93329630
:10389000CF01DF91CF911F910F91089500931104F3
:1038A00010931204F4CF2115310551F0421753073C
:1038B00038F0A901DB019A01BD01DF01F801C1CF98
:1038C000EF01F9CF9093120480931104CDCFFE0144
:1038D000E20FF31F8193919322503109398328839A
:1038E000D7CF20910F0430911004232B41F4209165
:1038F0001E0130911F013093100420930F0420917A
:103900001C0130911D012115310541F42DB73EB741
:103910004091200150912101241B350BE0910F04AF
:10392000F0911004E217F307A0F42E1B3F0B2817A9
:10393000390778F0AC014E5F5F4F2417350748F028
:103940004E0F5F1F5093100440930F048193919387
:103950009FCFF0E0E0E09CCFCF93DF930097E9F0BA
:10396000FC01329713821282A0911104B0911204CB
:10397000ED0130E020E01097A1F420813181820F29
:10398000931F20910F04309110042817390709F074
:1039900061C0F0931004E0930F04DF91CF9108957C
:1039A000EA01CE17DF07E8F54A815B819E014115E8
:1039B0005105B1F7E901FB83EA8349915991C40F9D
:1039C000D51FEC17FD0761F4808191810296840F69
:1039D000951FE90199838883828193819B838A83E0
:1039E000F0E0E0E012968D919C9113970097B9F565
:1039F0002D913C911197CD010296820F931F20913A
:103A00000F04309110042817390739F6309751F513
:103A10001092120410921104B0931004A0930F049A
:103A2000BCCFD383C28340815181840F951FC817B7
:103A3000D90761F44E5F5F4F88819981480F591F04
:103A4000518340838A819B81938382832115310531
:103A500009F0B0CFF0931204E09311049ECFFD0162
:103A6000DC01C0CF13821282D7CFB0E0A0E0EBE33D
:103A7000FDE10C94AC1A8C01009751F4CB010E942B
:103A8000101C8C01C801CDB7DEB7E0E10C94C81A58
:103A9000FC01E60FF71F9C0122503109E217F307E2
:103AA00008F49DC0D901CD91DC911197C617D707B5
:103AB00098F0C530D10530F3CE01049786179707EB
:103AC00008F3C61BD70B2297C193D1936D937C93B8
:103AD000CF010E94AC1CD6CF5B01AC1ABD0A4C01D1
:103AE0008C0E9D1EA0911104B0911204512C412CFA
:103AF000F12CE12C109731F580910F049091100476
:103B00008815990509F05CC04616570608F058C09C
:103B100080911C0190911D01009741F48DB79EB7D3
:103B20004091200150912101841B950BE817F90762
:103B300008F055C0F0931004E0930F04F90171836D
:103B40006083A0CF8D919C91119712966C901297E3
:103B500013967C901397A815B90559F56C0142E0AE
:103B6000C40ED11CCA14DB0420F1AC014A195B0954
:103B7000DA011296159780F0628273825183408336
:103B8000D9016D937C93E114F10471F0D701139680
:103B9000FC93EE93129776CF22968C0F9D1FF9011E
:103BA00091838083F301EFCFF0931204E09311042B
:103BB00069CF4816590608F42C017D01D3019ACF2C
:103BC000CB010E94101C7C01009749F0AE01B801A6
:103BD0000E94F21DC8010E94AC1C870153CF10E067
:103BE00000E050CFFB01DC0102C001900D9241507A
:103BF0005040D8F708956817790768F4FB01DC0195
:103C0000E40FF51FA40FB51F02C002900E924150A1
:103C10005040D8F708950C94F21DFC01819186174D
:103C200021F08823D9F7992708953197CF01089576
:103C3000FB01DC018D91019080190110D9F3990BE2
:103C40000895FB01DC0101900D920020E1F7089539
:103C5000AEE0B0E0EEE2FEE10C94B81A0D891E89E8
:103C60008F89988D26E02C831A83098397FF02C0E1
:103C700080E090E801979E838D83AE01455E5F4FA3
:103C8000698D7A8DCE0101960E94581E4D815E810C
:103C900057FD0AC02F813885421753070CF49A014B
:103CA000020F131FF80110822E96E4E00C94D41A30
:103CB000ABE0B0E0EEE5FEE10C94AA1A7C013B011A
:103CC0008A01FC0117821682838181FFC8C1CE015F
:103CD00001965C01F7019381F30193FD859193FFB8
:103CE00081913F01882309F453C1853239F493FD52
:103CF000859193FF81913F01853229F4B70190E0CE
:103D00000E944820E7CF912C212C312CFFE1F315A4
:103D100038F08B3211F190F4803209F1833229F1BD
:103D200037FC3CC020ED280F2A3050F536FE20C06D
:103D30008AE0989E200D1124922E06C08D3291F0BB
:103D4000803371F7689430F8F30193FD859193FF08
:103D500081913F018111DACF21C0689431F86894D4
:103D600032F8F2CF689433F8EFCF689434F8ECCFA0
:103D7000EAE02E9E200D1124222E689435F8E4CF1F
:103D80008E3229F436FC04C1689436F8DDCF8C36C7
:103D900019F4689437F8D8CF8836B1F2982F9F7D00
:103DA00095549330E0F08336A1F18337C1F1833528
:103DB00009F063C02801F2E04F0E511CF801C080E9
:103DC000D180692D70E036FC02C06FEF7FEFC60135
:103DD0000E9432204C01689437F882010AC00C5FBF
:103DE0001F4FFFE3F98388248394912C6501E894A5
:103DF00037F833FE2DC0522C8114910471F55520F3
:103E000009F468CFB70180E290E00E9448205A94FC
:103E1000F6CFF801808189830E5F1F4FE4CF280120
:103E2000F2E04F0E511CF801C080D180692D70E086
:103E300036FC02C06FEF7FEFC6010E943D204C01AF
:103E40008201D5CFB70180E290E00E9448202A94F9
:103E50002814190409F0B0F7CECFF60137FC85918C
:103E600037FE81916F01B70190E00E944820511008
:103E70005A94F1E08F1A9108BFCF843619F0893631
:103E800009F077C0F80137FE6BC0608171818281D3
:103E900093810C5F1F4FF32DFF763F2E97FF09C0D4
:103EA00090958095709561957F4F8F4F9F4F689447
:103EB00037F82AE030E0A5010E947820C82ECA1801
:103EC0008C2C432C36FE0CC0E89440F8C91440F406
:103ED00034FE05C032FC03C0F32DFE7E4F2E892C2C
:103EE00044FE95C0FE01EC0DF11D8081803309F088
:103EF00087C0242D297E422E842D8870582E43FCA5
:103F000095C040FE8FC09C2C821418F42C0C922C6F
:103F1000981844FE91C0B70180E390E00E944820C9
:103F200042FE09C088E790E041FE02C088E590E0CB
:103F3000B7010E944820C91408F48AC0CA94D12C41
:103F40009FEFC91AD90ACA0CDB1CF60182916F01D6
:103F5000B70190E00E944820AC14BD04B1F74FCFE8
:103F600060817181072E000C880B990B0E5F1F4F2B
:103F700092CFD32CE894D4F82AE030E0853739F199
:103F8000232D297FD22E8F3601F148F48835A9F0F0
:103F9000F701868197812B96E2E10C94C61A80374F
:103FA00049F08837A9F7D4FE02C06894D2F820E11E
:103FB00030E00DC06894D4F8F6CF34FE03C0822FF1
:103FC0008660D82E20E132E002C028E030E0F8011F
:103FD000D7FE0FC060817181828193810C5F1F4F7A
:103FE000A5010E947820C82ECA183D2CE89437F805
:103FF00067CF6081718190E080E00E5F1F4FF0CF4E
:1040000042FC02C0839478CF8394839475CF842D2F
:10401000867809F471CFF6CFB70180E290E00E9474
:10402000482083948214C0F3512C73CF522C58181B
:10403000821408F46ECFF8CF842D867809F47BCFF4
:104040008BE241FE80E247FC8DE2B70190E071CF48
:10405000B70180E390E00E9448209A946CCF8FEFE4
:104060009FEF99CFFC010590615070400110D8F787
:10407000809590958E0F9F1F0895FC0161507040B0
:1040800001900110D8F7809590958E0F9F1F08958D
:104090000F931F93CF93DF93182F092FEB018B8181
:1040A00081FD09C01FEF0FEF812F902FDF91CF917E
:1040B0001F910F91089582FF14C02E813F818C8142
:1040C0009D81281739073CF4E881F981CF010196D9
:1040D0009983888310838E819F8101969F838E832D
:1040E000E3CFE885F985812F0995892BA1F3DACFF4
:1040F000FA01AA27283051F1203181F1E8946F9319
:104100006E7F6E5F7F4F8F4F9F4FAF4FB1E03ED0BE
:10411000B4E03CD0670F781F891F9A1FA11D680F5C
:10412000791F8A1F911DA11D6A0F711D811D911D8F
:10413000A11D20D009F468943F912AE0269F112404
:104140003019305D3193DEF6CF010895462F477068
:10415000405D4193B3E00FD0C9F7F6CF462F4F70C3
:10416000405D4A3318F0495D31FD4052419302D021
:10417000A9F7EACFB4E0A6959795879577956795C7
:10418000BA95C9F700976105710508959B01AC01C7
:104190000A2E06945795479537952795BA95C9F7EE
:1041A000620F731F841F951FA01D089511E0C0E2C8
:1041B000D1E004C0FE010E940A1C2196C132D10741
:1041C000C9F7F894FFCFE8030000E8030000E80314
:1041D0000000E8030000FFFFE8030000FFFFB1025A
:1041E000B102000013048000000000005203B2027C
:1041F000DF02BA031003EE0202030D0A006C6566CB
:104200007420776865656C2052504D20736574206A
:10421000746F3A2000726967687420776865656C0E
:104220002052504D2073657420746F3A2000464F21
:104230005243454452554E0053455450494400455D
:104240004D455247454E435953544F5000454D45F7
:104250005247454E435953544F50504544004C49E2
:104260004E4554524143450054524143494E470044
:104270004F42535441434C45004147562C25732C23
:1042800025642C25642C25642C25642C25732C2571
:0C42900073005345545350454544000052
:107E0000112484B714BE81FFF0D085E080938100F7
:107E100082E08093C00088E18093C10086E0809377
:107E2000C20080E18093C4008EE0C9D0259A86E02C
:107E300020E33CEF91E0309385002093840096BBD3
:107E4000B09BFECF1D9AA8958150A9F7CC24DD24C4
:107E500088248394B5E0AB2EA1E19A2EF3E0BF2EE7
:107E6000A2D0813461F49FD0082FAFD0023811F036
:107E7000013811F484E001C083E08DD089C08234E0
:107E800011F484E103C0853419F485E0A6D080C0E4
:107E9000853579F488D0E82EFF2485D0082F10E0AE
:107EA000102F00270E291F29000F111F8ED06801E7
:107EB0006FC0863521F484E090D080E0DECF843638
:107EC00009F040C070D06FD0082F6DD080E0C81688
:107ED00080E7D80618F4F601B7BEE895C0E0D1E017
:107EE00062D089930C17E1F7F0E0CF16F0E7DF06D8
:107EF00018F0F601B7BEE89568D007B600FCFDCFD4
:107F0000A601A0E0B1E02C9130E011968C91119780
:107F100090E0982F8827822B932B1296FA010C0160
:107F200087BEE89511244E5F5F4FF1E0A038BF0790
:107F300051F7F601A7BEE89507B600FCFDCF97BE46
:107F4000E89526C08437B1F42ED02DD0F82E2BD052
:107F50003CD0F601EF2C8F010F5F1F4F84911BD097
:107F6000EA94F801C1F70894C11CD11CFA94CF0C13
:107F7000D11C0EC0853739F428D08EE10CD085E9AC
:107F80000AD08FE07ACF813511F488E018D01DD067
:107F900080E101D065CF982F8091C00085FFFCCF94
:107FA0009093C60008958091C00087FFFCCF809118
:107FB000C00084FD01C0A8958091C6000895E0E648
:107FC000F0E098E1908380830895EDDF803219F02E
:107FD00088E0F5DFFFCF84E1DECF1F93182FE3DFCA
:107FE0001150E9F7F2DF1F91089580E0E8DFEE27F6
:047FF000FF270994CA
:027FFE00040479
:00000001FF
