:020000040000FA
:100000000C9446050C94FC160C94D5160C946E05B5
:100010000C946E050C946E050C946E050C946E0594
:100020000C946E050C946E050C946E050C949A1845
:100030000C946E050C946E050C946E050C946E0574
:100040000C948B160C946E050C9449170C94231782
:100050000C946E050C946E050C946E050C946E0554
:100060000C947B170C946E05000103070F1F3F7F54
:100070000080C0E0F0F8FCFE00000000003E5B4F96
:100080005B3E3E6B4F6B3E1C3E7C3E1C183C7E3CF8
:10009000181C577D571C1C5E7F5E1C00183C180006
:1000A000FFE7C3E7FF0018241800FFE7DBE7FF3096
:1000B000483A060E2629792926407F050507407F04
:1000C00005253F5A3CE73C5A7F3E1C1C08081C1C77
:1000D0003E7F14227F22145F5F005F5F06097F016D
:1000E0007F006689956A606060606094A2FFA29458
:1000F00008047E040810207E201008082A1C080826
:100100001C2A08081E101010100C1E0C1E0C303873
:100110003E3830060E3E0E06000000000000005F74
:1001200000000007000700147F147F14242A7F2A90
:100130001223130864623649562050000807030052
:10014000001C2241000041221C002A1C7F1C2A089E
:10015000083E080800807030000808080808000001
:1001600060600020100804023E5149453E00427F75
:10017000400072494949462141494D331814127FC4
:100180001027454545393C4A494931412111090764
:100190003649494936464949291E000014000000E5
:1001A00040340000000814224114141414140041B7
:1001B00022140802015909063E415D594E7C121174
:1001C000127C7F494949363E414141227F414141AC
:1001D0003E7F494949417F090909013E4141517327
:1001E0007F0808087F00417F41002040413F017F98
:1001F000081422417F404040407F021C027F7F0460
:1002000008107F3E4141413E7F090909063E4151A8
:10021000215E7F09192946264949493203017F0198
:10022000033F4040403F1F2040201F3F4038403F99
:10023000631408146303047804036159494D4300AF
:100240007F4141410204081020004141417F0402E6
:10025000010204404040404000030708002054547D
:1002600078407F284444383844444428384444285B
:100270007F385454541800087E090218A4A49C78AE
:100280007F0804047800447D40002040403D007F0A
:100290001028440000417F40007C047804787C08EA
:1002A0000404783844444438FC18242418182424BE
:1002B00018FC7C08040408485454542404043F44A3
:1002C000243C4040207C1C2040201C3C4030403CD2
:1002D00044281028444C9090907C4464544C440032
:1002E0000836410000007700000041360800020196
:1002F0000204023C2623263C1EA1A161123A404082
:10030000207A3854545559215555794122545478FE
:1003100042215554784020545579400C1E52721297
:100320003955555559395454545939555454580020
:1003300000457C410002457D420001457C407D1224
:1003400011127DF0282528F07C5455450020545486
:100350007C547C0A097F4932494949323A44444431
:100360003A324A4848303A4141217A3A424020786C
:10037000009DA0A07D3D4242423D3D4040403D3C6D
:1003800024FF2424487E4943662B2FFC2F2BFF0992
:1003900029F620C0887E0903205454794100004486
:1003A0007D413048484A32384040227A007A0A0A71
:1003B000727D0D19317D2629292F282629292926E4
:1003C00030484D4020380808080808080808382F29
:1003D00010C8ACBA2F102834FA00007B00000814B3
:1003E0002A142222142A14085500550055AA55AA89
:1003F00055AAFF55FF55FF000000FF00101010FF29
:1004000000141414FF001010FF00FF1010F010F083
:10041000141414FC001414F700FF0000FF00FF1474
:1004200014F404FC141417101F10101F101F1414C0
:10043000141F00101010F0000000001F101010100A
:100440001F10101010F010000000FF1010101010FE
:1004500010101010FF10000000FF140000FF00FF3C
:1004600000001F10170000FC04F4141417101714D8
:1004700014F404F40000FF00F714141414141414FA
:10048000F700F7141414171410101F101F1414146D
:10049000F4141010F010F000001F101F0000001FD7
:1004A00014000000FC140000F010F01010FF10FF0A
:1004B000141414FF141010101F00000000F010FF9F
:1004C000FFFFFFFFF0F0F0F0F0FFFFFF0000000083
:1004D00000FFFF0F0F0F0F0F3844443844FC4A4A07
:1004E0004A347E02020606027E027E0263554941BC
:1004F000633844443C04407E201E2006027E0202F3
:1005000099A5E7A5991C2A492A1C4C7201724C3006
:100510004A4D4D303048784830BC625A463D3E49DD
:100520004949007E0101017E2A2A2A2A2A44445F81
:10053000444440514A444040444A51400000FF0175
:1005400003E080FF000008086B6B08361236243683
:10055000060F090F060000181800000010100030E8
:1005600040FF0101001F01011E00191D1712003C70
:100570003C3C3C00000000002200FF21DB40A4A620
:100580002EAF2000A1C8D300408DAED580A80000BA
:10059000600000000000000000000000000000E01B
:1005A0000000000000000000000000000001E0006A
:1005B00000000000000000000000000001F000004A
:1005C000000000000000000000000003F000000038
:1005D0000000000000000000000007F00000000024
:1005E00000000000000000000007F800000000000C
:1005F00000000000000000000FF800000003C00031
:100600007E000001E0007F0FF800000003C000FE44
:10061000000001E000FFEFF800000003C000FE0052
:100620000001E000FFFFF800000003C000F0000040
:10063000000F007FFE7FC0000003C000F00000003C
:100640000F003FFE7FF83FF1FBCFFCFEF3BC3DEF18
:10065000E01FFE7FFF7FFBFFDFFEFEFFBC3DEFE004
:100660001FC6FFFF7FFBFFDFFEFEFFBC3DEFE00F7D
:10067000E3C7FE787BC3DE1EF0FFBC3DEF0007FF43
:1006800087FC787BC3DE1EF0F83C3DEF0001FFFFE6
:10069000F0007BC3C01EF0F03C3DEF0001F37FE0B3
:1006A0003FFBC3CFFEF0F03C3DEF0003E33F807F14
:1006B000FBC3DFFEF0F03C3DEF0007E73C00787B3A
:1006C000C3DE1EF0F03C3DEF0007FFBE00787BC3A9
:1006D000DE1EF0F03C3DEF0007FFFE00787BC3DE3E
:1006E0001EF0F03C3DEF000FFFFE007FFBFFDFFE42
:1006F000F0F03FFDEFE00FFFFF007FFBFFDFFEF0BC
:10070000F03FFDEFE00FF9FF003E79F9CF9EF0F0EA
:100710001F3DE7E01FF1FF000000000000000000A7
:100720000000001F80FF007FFFFFFFFFFFFFFFFFB4
:10073000FFE01C007F007FFFFFFFFEB46D888D1877
:10074000E000001F007FFFFFFFFE95AD7DB577E065
:1007500000000F007FFFFFFFFEA5AD9D8D19E0009B
:100760000006007FFFFFFFFEB5ADEDB57EE00000A7
:100770000000000180000000000000000000038075
:1007800000000000000000000007C00000000000A2
:100790000000000007C00000000000000000000F83
:1007A000C00000000000000000001FE0000000008A
:1007B00000000000001FE00000000000000000003A
:1007C0003FE00000000000000000003FF0000000DB
:1007D0000000000000007FF0000000000000001F8B
:1007E000F87FF0000000000000003FFE7FF00000F6
:1007F00000000000003FFF7FF0000000000000004C
:100800001FFFFBE0000000000000000FFFF9FFC029
:100810000000000000000FFFF9FFF80000000000DA
:100820000007FFF1FFFF00000000000003FC73FF62
:10083000FF80000000000001FE3FFFFF800000007D
:10084000000000FF1E0FFF000000000000007FFE00
:100850001FFC000000000000003FFFFFF800000048
:10086000000000000FDFFFE0000000000000001F9C
:1008700019FFC0000000000000003F3CFF00000026
:1008800000000000007E7CF8000000000000000076
:100890007FFE7C0000000000000000FFFFFC000065
:1008A000000000000000FFFFFE000000000000004C
:1008B00000FFFFFE0000000000000001FFEFFE004F
:1008C00000000000000001FFCFFE0000000000005B
:1008D0000003FF07FE0000000000000003FC07FE0D
:1008E0000000000000000003F003FE000000000014
:1008F0000000018000FE0000000000000000000079
:100900007E000000000000000000003E000000002B
:100910000000000000000C00000000000007800044
:10092000FC000003C0000000078001FC000003C0C1
:10093000000000078001FC000003C00000000780E9
:1009400001E00000001E000000078001E000000040
:100950001E007FE3F79FF9FDE7787BDFC0FFF7FF1D
:10096000BFFDFDFF787BDFC0FFF7FFBFFDFDFF7818
:100970007BDFC0F0F787BC3DE1FF787BDE00F0F75E
:1009800087BC3DE1F0787BDE0000F787803DE1E049
:10099000787BDE007FF7879FFDE1E0787BDE00FF5C
:1009A000F787BFFDE1E0787BDE00F0F787BC3DE133
:1009B000E0787BDE00F0F787BC3DE1E0787BDE008D
:1009C000F0F787BC3DE1E0787BDE00FFF7FFBFFD7D
:1009D000E1E07FFBDFC0FFF7FFBFFDE1E07FFBDF72
:1009E000C07CF3F39F3DE1E03E7BCFC00000000000
:1009F00000000000000000FFFFFFFFFFFFFFFFFF00
:100A0000FFC0FFFFFFFFFD68DB111A31C0FFFFFFD2
:100A1000FFFD2B5AFB6AEFC0FFFFFFFFFD4B5B3B67
:100A20001A33C0FFFFFFFFFD6B5BDB6AFDC00000F8
:100A30000000240027002A000000000025002800F4
:100A40002B000000000023002600290004040404F9
:100A50000404040402020202020203030303030368
:100A60000102040810204080010204081020010245
:100A70000408102000000008000201000003040721
:100A80000000000000000000FE18882211241FBE94
:100A9000CFEFD8E0DEBFCDBF12E0A0E0B1E0E8EDDF
:100AA000FEE402C005900D92A631B107D9F724E00B
:100AB000A6E1B2E001C01D92A833B207E1F715E04C
:100AC000C5E4D5E004C02197FE010E944725C43447
:100AD000D107C9F70E94EF190C945F270C9400000E
:100AE00008958230C8F4E82FF0E0EE0FFF1FE45FB6
:100AF000FE4F71836083813041F0809169008C7F6B
:100B0000826080936900E89A089580916900837FEC
:100B1000886080936900E99A0895833081F028F411
:100B2000813099F08230A9F008958730A9F088309B
:100B3000C9F08430B1F4809180008F7D03C0809132
:100B400080008F7780938000089584B58F7784BD6F
:100B5000089584B58F7DFBCF8091B0008F7780930F
:100B6000B00008958091B0008F7DF9CFCF93DF93CF
:100B7000282F30E0F901EC58F54F8491F901E05A43
:100B8000F54FD491F901E45BF54FC491CC23A1F06A
:100B900081110E948D05EC2FF0E0EE0FFF1FEE5B40
:100BA000F54FA591B491EC91ED2381E090E009F42B
:100BB00080E0DF91CF91089580E090E0FACF1F931D
:100BC000CF93DF93282F30E0F901EC58F54F849153
:100BD000F901E05AF54FD491F901E45BF54FC49166
:100BE000CC23A9F0162F81110E948D05EC2FF0E087
:100BF000EE0FFF1FE85CF54FA591B4918FB7F89405
:100C0000EC91111108C0D095DE23DC938FBFDF91EA
:100C1000CF911F910895DE2BF8CFCF93DF9390E013
:100C2000FC01E05AF54F2491845B954FFC018491BF
:100C30008823D1F090E0880F991FFC01E25DF54F09
:100C4000A591B491FC01E85CF54FC591D491623057
:100C500071F49FB7F8943C91822F809583238C93F5
:100C6000E8812E2B28839FBFDF91CF9108958FB706
:100C7000F894EC912E2B2C938FBFF6CF1F93CF932C
:100C8000DF93182FEB0161E00E940D06209739F4E5
:100C900060E0812FDF91CF911F910C94DF05CF3F52
:100CA000D10511F461E0F5CFE12FF0E0EC58F54FFC
:100CB000E491E33031F140F4E130B1F0E230E1F0C1
:100CC000C038D1057CF7E4CFE73029F1E83059F19D
:100CD000E430B1F780918000806280938000D093EF
:100CE0008B00C0938A0004C084B5806884BDC7BDF2
:100CF000DF91CF911F91089584B5806284BDC8BDF6
:100D0000F7CF80918000806880938000D093890025
:100D1000C0938800EDCF8091B00080688093B000D0
:100D2000C093B300E5CF8091B00080628093B000A3
:100D3000C093B400DDCF3FB7F89480910903909140
:100D40000A03A0910B03B0910C0326B5A89B05C024
:100D50002F3F19F00196A11DB11D3FBFBA2FA92F3A
:100D6000982F8827BC01CD01620F711D811D911D37
:100D700042E0660F771F881F991F4A95D1F70895A3
:100D80008F929F92AF92BF92CF92DF92EF92FF929B
:100D90004B015C010E949B066B017C010E949B063B
:100DA0006C197D098E099F09683E73408105910584
:100DB000A8F321E0821A9108A108B10888EEC80EB4
:100DC00083E0D81EE11CF11C81149104A104B1043C
:100DD00029F7FF90EF90DF90CF90BF90AF909F905A
:100DE0008F9008952FB7F8946091050370910603D2
:100DF00080910703909108032FBF089508950895E7
:100E000008950895AF92BF92CF92DF92EF92FF9232
:100E10000F931F93CF93DF936C017B018B01040F22
:100E2000151FEB015E01AE18BF08C017D10759F0BE
:100E30006991D601ED91FC910190F081E02DC60100
:100E40000995892B79F7C501DF91CF911F910F91FA
:100E5000FF90EF90DF90CF90BF90AF900895FC018E
:100E6000538D448D252F30E0842F90E0821B930B0F
:100E7000541710F0CF96089501970895FC01918DB5
:100E8000828D981761F0A28DAE0FBF2FB11D5D96B8
:100E90008C91928D9F5F9F73928F90E008958FEF5A
:100EA0009FEF08950F931F930E94F206609319031A
:100EB00070931A0380931B0390931C0381E193E0CA
:100EC0000E943E0797FF1DC00E94F2060091190381
:100ED00010911A0320911B0330911C03601B710BAE
:100EE000820B930B009115031091160320911703A9
:100EF000309118036017710782079307F8F28FEF9C
:100F00009FEF1F910F910895FC01918D828D98178D
:100F100031F0828DE80FF11D858D90E008958FEFFF
:100F20009FEF0895FC01918D228D892F90E0805CC8
:100F30009F4F821B91098F739927089581E193E058
:100F40000E94920721E0892B09F420E0822F089566
:100F500080E090E0892B29F00E949E0781110C947B
:100F600000000895FC01A48DA80FB92FB11DA35A4C
:100F7000BF4F2C91848D90E001968F739927848FB9
:100F8000A689B7892C93A089B1898C9183708064DC
:100F90008C93938D848D981306C00288F389E02D7D
:100FA00080818F7D80830895EF92FF920F931F932E
:100FB000CF93DF93EC0181E0888F9B8D8C8D98130C
:100FC0001AC0E889F989808185FF15C09FB7F89418
:100FD000EE89FF896083E889F98980818370806464
:100FE00080839FBF81E090E0DF91CF911F910F91AF
:100FF000FF90EF900895F62E0B8D10E00F5F1F4FBE
:101000000F731127E02E8C8D8E110CC00FB607FCCC
:10101000FACFE889F989808185FFF5CFCE010E945A
:10102000B207F1CFEB8DEC0FFD2FF11DE35AFF4F0F
:10103000F0829FB7F8940B8FEA89FB8980818062E8
:10104000CFCFCF93DF93EC01888D8823B9F0AA89A5
:10105000BB89E889F9898C9185FD03C0808186FD73
:101060000DC00FB607FCF7CF8C9185FFF2CF8081C2
:1010700085FFEDCFCE010E94B207E9CFDF91CF917E
:1010800008952091A102260F3327331F2132310505
:10109000ECF42091C502FC0190E080E0243069F07E
:1010A00082E00895A091A1022191AC014F575D4FBC
:1010B000A40FB52FB11D2C930196861798F380913C
:1010C000A102680F6093A10280E0089581E0089575
:1010D0001092C50281E08093C7021092C60261E0BF
:1010E00082E10E94DF0561E083E10E94DF05E9EB18
:1010F000F0E080818E7F808380818D7F808388E493
:101100008093B80085E48093BC000895CF93DF936B
:1011100091E0909380028823B9F0C091B800D091FB
:10112000BA008091BC008A7B8093BC0060E082E1C1
:101130000E94DF0560E083E10E94DF050E946808ED
:10114000D093BA00C093B800DF91CF910895E09199
:10115000F1028091F002E81730F4F0E0E55AFD4F1B
:10116000808190E008958FEF9FEF08959091F102B4
:101170008091F0022FEF3FEF981748F4E92FF0E04D
:10118000E55AFD4F208130E09F5F9093F102C90145
:1011900008958091F0029091F102891B990B0895B6
:1011A000CF92DF92EF92FF920F931F93CF93DF9333
:1011B0007C01CB018A0120911003222389F0EB01ED
:1011C0006B01C40ED51ECC15DD0569F06991D70100
:1011D000ED91FC910190F081E02DC7010995F3CFCD
:1011E000642F0E944108C801DF91CF911F910F9198
:1011F000FF90EF90DF90CF900895CF93DF931F92F1
:10120000CDB7DEB76983209110032223F9F0209136
:101210000D03203258F021E030E0FC0133832283BB
:1012200090E080E00F90DF91CF91089580910E03C0
:10123000E82FF0E0E55CFD4F998190838F5F80930C
:101240000E0380930D0381E090E0ECCF61E0CE01CE
:1012500001960E944108F7CFCF92DF92EF92FF9262
:101260000F931F93CF93DF93D0910D0381E0D13281
:1012700008F09CC0C0910F030E949B066B017C018B
:101280008091C50281116CC082E08093C50281E02B
:101290008093C7028FEF8093C4021092E902D0932B
:1012A000E802ABE3B2E0E8ECF2E080E0D8138DC0F6
:1012B0001092EA028091EA02CC0FC82BC093EA0296
:1012C0008091C602813009F084C01092C6020E944B
:1012D0009B066B017C018091EA028093BB008091A8
:1012E0007C0290917D02A0917E02B0917F02892BB9
:1012F0008A2B8B2BA1F00E949B0600917C021091FF
:101300007D0220917E0230917F026C197D098E0949
:101310009F09061717072807390708F442C080916C
:10132000BC0083FDD8CF85EC8093BC000E949B0657
:101330006B017C018091C502823009F44CC0809120
:10134000C4028F3F09F469C08091C402803209F45D
:1013500066C08091C402803309F463C084E026C073
:1013600080917C0290917D02A0917E02B0917F02DB
:10137000892B8A2B8B2B09F483CF0E949B0600912B
:101380007C0210917D0220917E0230917F026C19C7
:101390007D098E099F09061717072807390708F0E6
:1013A0006FCF80917B020E94860885E010920E0329
:1013B00010920D0310921003DF91CF911F910F91A6
:1013C000FF90EF90DF90CF9008959D9191938F5F64
:1013D0006DCF85EEA9CF80917C0290917D02A09186
:1013E0007E02B0917F02892B8A2B8B2B09F4A2CF2E
:1013F0000E949B0600917C0210917D0220917E024A
:1014000030917F026C197D098E099F090617170715
:101410002807390708F08ECFC4CF80E0C7CF82E01D
:10142000C5CF83E0C3CF0895FC016370668B8481D0
:10143000958126813781613039F0633029F09187B9
:101440008087338722870895318720879387828713
:1014500008952F923F924F925F926F927F928F9258
:101460009F92AF92BF92CF92DF92EF92FF920F9333
:101470001F93CF93DF93CDB7DEB76A970FB6F8947B
:10148000DEBF0FBECDBF9A8F898F7A8369834A01F1
:10149000D22E18870F833701BC2CDC0159962D9171
:1014A0003C915A972115310509F015C118968D9177
:1014B0009C911997681779070CF0D7C11A968D91EE
:1014C0009C91481759070CF0D0C14C2C512CB6E018
:1014D000CB9E600D711D11247C876B871616170635
:1014E0000CF0C3C1EA2DF0E0FA87E98793E0EE0F34
:1014F000FF1F9A95E1F7F88BEF87CF01840F951FB7
:10150000181619060CF0B1C1A98DBA8D58968C9198
:10151000811104C0BFEABD1508F4D394A98DBA8D1A
:10152000ED91FC9111970284F385E02DCD01099591
:10153000B5E0DB9EC0011124E981FA81FC83EB83D5
:10154000312C212C9C0128583F4F388F2F8B4A2D4E
:1015500050E05E8B4D8BEF89F88DE20DF31D4491C9
:101560009E828D82D12CC12C69817A81620D731D7E
:101570007A8B698B842F90E09C8B8B8BE98DFA8D15
:10158000A081B18140FF82C0F1E0BF126FC0AF12F5
:101590006DC01C96ED91FC912F813885A4014C0DF6
:1015A0005D1D69897A89898D9A8D0995EB89FC89F8
:1015B000F595E7954E2F5FEFC51AD50A6D817E81AF
:1015C0008D899E89680F791F7E836D8398E0C91687
:1015D000D10481F6AFEF2A1A3A0AEB81FC81E40DBF
:1015E000F51DFC83EB83F5E02F16310409F0B3CF32
:1015F0002F81388526153705B9F0A98DBA8DED9163
:10160000FC91B1E0BB1257C0AB1255C069817A8121
:101610006B5F7F4F0088F189E02D830128E030E087
:10162000A401898D9A8D0995A98DBA8DED91FC91B2
:1016300011970688F789E02DCD016A960FB6F894C8
:10164000DEBF0FBECDBFDF91CF911F910F91FF90F5
:10165000EF90DF90CF90BF90AF909F908F907F9052
:101660006F905F904F903F902F9009941E96ED9150
:10167000FC91EF80F88409851A8592014D815E8185
:101680006B817C81898D9A8D099590CF2F813885CA
:101690002615370509F48ACF31E0B31207C0A3122B
:1016A00005C01C96ED91FC91930178CF1E96ED91AB
:1016B000FC917301E0CF6B857C8564197509068404
:1016C000F785E02D73010F8518899201A401898D9A
:1016D0009A8D0995A9CFF901349694913297459145
:1016E0005491D91AB7E0DB9E400D511D1124F90128
:1016F000259134913C8B2B8BFA0125903490FA0183
:101700003296749031963491398B3296649031963A
:10171000449041E04C1518F04A1508F07FC0662D42
:10172000062C000C770B7C836B83842D042C000C1F
:10173000990B9E838D83A98DBA8DED91FC911197A4
:101740000284F385E02DCD010995512CD12CC12CBB
:10175000EA2DF0E0FA87E9872B2D30E03C872B87D4
:10176000A401440D511D47FC5A95588F4F8B698138
:101770007A81660D711D67FC7A957E876D87798900
:10178000C71608F051CF2C2D30E04D815E81420FFD
:10179000531FA985BA854A9FC0014B9F900D5A9F40
:1017A000900D1124FC01E80DF91DF88BEF87852DB4
:1017B000612C4F89588D420F531F5E8B4D8B6714E0
:1017C00008F050C044244394480E877041F4C1018E
:1017D0000196EB89FC89E20DF31DD4901C01D7FE24
:1017E00019C0A98DBA8DED91FC91662D70E0B1E024
:1017F000BB1219C0AB1217C02D853E85620F731F37
:101800000484F585E02D2F8138854D895E89898D89
:101810009A8D0995DD0C6394842DD1CF1E821D8293
:101820001C821B8288CF4B815C81640F751FAB8546
:10183000BC856A9FC0016B9F900D7A9F900D11240B
:1018400069817A81680F791F0684F785E02DEF8022
:10185000F88409851A859D014F855889898D9A8D4F
:101860000995D8CF570CC3948ACF6A960FB6F894CF
:10187000DEBF0FBECDBFDF91CF911F910F91FF90C3
:10188000EF90DF90CF90BF90AF909F908F907F9020
:101890006F905F904F903F902F9008958F929F92FE
:1018A000AF92CF92EF92FF920F931F93CF93DF935C
:1018B000EC01262F898D9A8D009709F051C06A306E
:1018C000D1F41D861C868D8948E0849F90011124E7
:1018D0008E859F85820F931F9F878E8781E090E082
:1018E000DF91CF911F910F91FF90EF90CF90AF902C
:1018F0009F908F9008956D3089F3CC88AD888F8943
:101900008823C1F08C859D8536E0C39E800D911D96
:101910001124488559854817590764F44E855F8519
:101920001D861C8638E0A39EC0011124840F951FDC
:101930009F878E87EA88FB88088919894E855F858D
:101940006C857D85CE010E94290A2C898C859D8518
:1019500046E0249F800D911D11249D878C87BECF6A
:101960006A3069F41D861C86FC013896E4912D8945
:101970008E859F85E29F800D911D1124ADCF6D3026
:1019800009F4ACCFFC0134963491631708F4A6CF68
:101990003296E491E61708F4A1CFFC0132968590C7
:1019A0009490462F431B342F47E0349F800C911CAA
:1019B0001124F401329634913196E4913323A9F144
:1019C000EE2399F1CC88F4013596E491AD884F89E6
:1019D000442301F10E2E000CFF0BE30FF11DCE9EF0
:1019E000A001CF9E500D11246C857D85460F571F99
:1019F00068857985641775076CF44E855F851D864B
:101A00001C86FC013896E491AE9E400D511D1124B8
:101A10005F874E87EA88FB88088919894E855F852C
:101A20006C857D85CE010E94290AF4013496E491EB
:101A30002C898C859D85E29F800D911D11248DCF71
:101A40006F927F928F929F92AF92BF92CF92DF92CE
:101A5000EF92FF920F931F93CF93DF93EC016B01F3
:101A60005A0139014801E881F9810284F385E02DAA
:101A70000995E881F9810288F389E02D87019301B6
:101A8000A501B601CE010995A501480D591D41508A
:101A90005109E881F9810288F389E02D9301B601AB
:101AA000CE010995E881F9810088F189E02D940142
:101AB000A501B601CE010995C60CD71CB60161502F
:101AC0007109E881F9810088F189E02D9401A5016F
:101AD000CE010995E881F9810688F789E02DCE01CC
:101AE000DF91CF911F910F91FF90EF90DF90CF90FA
:101AF000BF90AF909F908F907F906F9009946F925E
:101B00007F928F929F92AF92BF92CF92DF92EF928D
:101B1000FF920F931F93CF93DF935C01EB016A0158
:101B2000490138018701DC01ED91FC9162177307CF
:101B300019F5641675062CF0962D872D3A01C92EDD
:101B4000D82E9601261937092F5F3F4F048CF58D4B
:101B5000E02DA301BE01C5010995DF91CF911F9131
:101B60000F91FF90EF90DF90CF90BF90AF909F903C
:101B70008F907F906F9008954615570591F4261722
:101B8000370724F0892D4B01C22FD82F9E01281929
:101B900039092F5F3F4F068CF78DE02DA601B40168
:101BA000DACF0284F385E02D0995D501ED91FC9102
:101BB0000488F589E02D83019401A601BE01C501C9
:101BC0000995D501ED91FC910688F789E02DC501B5
:101BD000DF91CF911F910F91FF90EF90DF90CF9009
:101BE000BF90AF909F908F907F906F900994EF92ED
:101BF000FF920F931F93DC011A960D911C911B9776
:101C000018962D913C911997ED91FC9100A0F1A1AE
:101C1000E02D7B0150E040E070E060E009951F910D
:101C20000F91FF90EF9008954F925F926F927F9285
:101C30008F929F92AF92BF92CF92DF92EF92FF92DC
:101C40000F931F93CF93DF936C012B015A0139013E
:101C50004801DC01ED91FC910284F385E02D0995AA
:101C6000E201640C751CD601ED91FC91C615D705F7
:101C70005CF40088F189E02D87019401A501BE0183
:101C8000C60109952196EFCF0688F789E02DC60198
:101C9000DF91CF911F910F91FF90EF90DF90CF9048
:101CA000BF90AF909F908F907F906F905F904F907C
:101CB00009948F929F92AF92BF92CF92DF92EF9250
:101CC000FF920F931F93CF93DF93EC015B014A01C7
:101CD0006901E881F9810284F385E02D0995950178
:101CE0002C0D3D1D21503109E881F9810488F589C9
:101CF000E02D78018401A401B501CE010995E881A8
:101D0000F9810688F789E02DCE01DF91CF911F91EF
:101D10000F91FF90EF90DF90CF90BF90AF909F908A
:101D20008F9009948F929F92AF92BF92CF92DF9241
:101D3000EF92FF920F931F93CF93DF93EC015B0120
:101D40004A0169017801E881F9810284F385E02D77
:101D50000995C80CD91C860101501109E881F98147
:101D60000488F589E02D9501A401B501CE010995FE
:101D7000E881F9810688F789E02DCE01DF91CF91C6
:101D80001F910F91FF90EF90DF90CF90BF90AF9099
:101D90009F908F900994EF92FF920F931F93DC0115
:101DA000ED91FC9100A0F1A1E02D09951F910F91FB
:101DB000FF90EF9008950F931F93DC01ED91FC913C
:101DC000068CF78DE02D09951F910F9108950F93C3
:101DD0001F93DC01ED91FC91048CF58DE02D0995AC
:101DE0001F910F910895DC01ED91FC910084F18524
:101DF000E02D09943F924F925F926F927F928F9263
:101E00009F92AF92BF92CF92DF92EF92FF920F9389
:101E10001F93CF93DF935C017B014A016901390174
:101E200087E0680E711C93E0759467949A95E1F7CA
:101E30002B01400E511E10E000E0312CD0E0C0E03C
:101E4000CE0187709927330C892B59F4FE0183E06A
:101E5000F595E7958A95E1F7E00FF11FE80DF91D7B
:101E6000349037FE0AC021E030E0A701B5016C0FC5
:101E70007D1F8AEB93E00E94F30E2196CC16DD06BF
:101E8000F9F68FEFE81AF80A060D171DE414F504A9
:101E9000A9F6DF91CF911F910F91FF90EF90DF9006
:101EA000CF90BF90AF909F908F907F906F905F90FA
:101EB0004F903F9008952F923F924F925F926F9272
:101EC0007F928F929F92AF92BF92CF92DF92EF92CA
:101ED000FF920F931F93CF93DF9300D000D000D0D9
:101EE000CDB7DEB73C016A013E832D83FC82EB82D5
:101EF0005801A41AB50AB7FE03C0B194A194B10861
:101F00008D809E80861A970A97FE03C091948194D3
:101F100091088A149B045CF0902F812F0D811E8103
:101F20009D838E839C2D8D2D6B01692F782F0C1531
:101F30001D055CF09D818E817E836D83692F782FD6
:101F4000902F812F8601C92ED82E1601201A310A12
:101F50002B012D813E81421A530A57FE03C0519432
:101F600041945108710137FE03C03FEFE31AF30AB1
:101F7000F594E7948D819E81861797075CF5A1E023
:101F8000B0E0BA83A983C016D1064CF1D301ED911C
:101F9000FC910484F585E02D2B813C81A8016D81A5
:101FA0007E818A149B041CF04D815E81B801C301BF
:101FB0000995E418F508F7FE0AC02D813E81898154
:101FC0009A81280F391F3E832D83E20CF31C0F5F8B
:101FD0001F4FD9CF2FEF3FEF3A832983D4CF2696D7
:101FE0000FB6F894DEBF0FBECDBFDF91CF911F912A
:101FF0000F91FF90EF90DF90CF90BF90AF909F90A8
:102000008F907F906F905F904F903F902F900895AA
:10201000EF92FF920F931F93CF93DF93EC01EC802D
:10202000FD806E157F050CF070C057FF04C0240FB3
:10203000351F50E040E08E819F81FA01E20FF31FCF
:102040008E179F071CF49C01241B350B12161306D8
:102050000CF05BC0922F842F8695869586958E9D79
:10206000D0018F9DB00D11246A0F7B1FAF8DB8A1D9
:10207000A60FB71F477049F188E0841B482F682FCF
:1020800070E0FB01E059FF4FE491281708F063C0AE
:10209000621B71092FEF30E002C0359527956A95D4
:1020A000E2F7E2230130110539F0B0F102301105F9
:1020B00061F58C91E82702C08C91E82BEC93941782
:1020C00020F12C813D81A20FB31FE92FE41BE830E2
:1020D00078F00230110521F58E2F9C9190959C93FC
:1020E0002C813D81A20FB31F88508830B0F7E77074
:1020F000EE2359F0F0E0E859FF4FE491013011056B
:10210000F9F010F10230110519F1DF91CF911F9113
:102110000F91FF90EF900895E0958C91E823CECF3A
:1021200081E00115110509F480E081959E2F8C93C3
:102130002C813D81A20FB31F98509830C0F7D7CFA4
:102140008C91E82BEC93E1CFE0958C91E823FACFCA
:102150008C91E827F7CF0130110509F4ADCFE0F2FB
:102160000230110509F4A5CFAE0DBF1DAECF0F9300
:102170001F93CF93DF9377FF04C0260F371F70E0C4
:1021800060E0DC011496CD91DC91FB01E20FF31FBE
:10219000CE17DF071CF49E01261B370B1216130601
:1021A0004CF5FA0157FD3796A3E0F595E795AA950A
:1021B000E1F7EC9FD001ED9FB00DFC9FB00D112415
:1021C0006A0F7B1FDC015F96ED91FC91E60FF71F14
:1021D0004770552781E090E001C0880F4A95EAF7E3
:1021E000482F0130110559F0A8F02E0F3F1F023083
:1021F0001105E1F0DF91CF911F910F9108952E0FFE
:102200003F1FE217F307B1F38191DF011197842B90
:102210008C93F7CF80952E0F3F1FE217F30751F3F2
:102220009191DF01119798239C93F7CFE217F30761
:1022300009F38191DF01119784278C93F7CF0F93D6
:102240001F93FA01DC0156964C9156974230E9F003
:102250004330A1F1413061F514964D915C91DA0162
:10226000AE1BBF0BFD01E21BF30B77FD0BC0DC01C6
:1022700016964D915C916417750724F4AB01BF016C
:102280000E94B7101F910F91089514964D915C9183
:10229000DA01A61BB70BBD0161507109DC0116966E
:1022A0004D915C91DA01AE1BBF0BFD01E21BF30BFC
:1022B00077FDE8CFAF010E940810E4CF16964D914C
:1022C0005C91DA01A61BB70BBD0161507109CDCF3E
:1022D0000F931F93FA01DC0156964C9156974230AA
:1022E000A9F0433091F1413019F514964D915C916C
:1022F000DA01AE1BBF0BFD013197F7FD04C0AB0146
:10230000BF010E9408101F910F91089514964D91DE
:102310005C91DA01A61BB70BBD01DC0116964D914D
:102320005C91DA01AE1BBF0BFD013197621B730B91
:10233000F7FDE9CFDC0116964D915C91E417F507A6
:1023400014F7AF010E94B710DECF16964D915C9145
:10235000DA01A61BB70BBD01621B730BCECFFC01CC
:1023600077FD64C080859185681779070CF05EC0A1
:1023700057FD5CC082859385481759070CF056C0FD
:1023800086898230B1F0833029F1813041F4848133
:102390009581841B950BAB01BC0161507109213003
:1023A000310509F108F443C02230310509F463C056
:1023B000089584819581DC01A61BB70BBD01615096
:1023C000710986819781DC01A41BB50BAD014150D9
:1023D0005109E5CF86819781861B970BBA01AC0125
:1023E00041505109DCCFCA0157FD0796A3E09595EE
:1023F0008795AA95E1F7A481B5818A9F90018B9F6B
:10240000300D9A9F300D1124620F731F078CF0A1BD
:10241000E02DE60FF71F4770552721E030E001C09F
:10242000220F4A95EAF78081822B80830895CA01A2
:1024300057FD079633E0959587953A95E1F7A48186
:10244000B5818A9F90018B9F300D9A9F300D11248A
:10245000620F731F078CF0A1E02DE60FF71F477086
:10246000552781E090E001C0880F4A95EAF78095F2
:1024700090818923DACFCA0157FD079623E095950D
:1024800087952A95E1F7A481B5818A9F90018B9F5A
:10249000300D9A9F300D1124620F731F078CF0A12D
:1024A000E02DE60FF71F4770552721E030E001C00F
:1024B000220F4A95EAF780818227B7CF08958EBD13
:1024C00000000DB407FEFDCF8EB50895EF92FF9288
:1024D0000F931F93CF93DF937C01C62F8091D70377
:1024E0009091D803009709F459C02091DB0331E0A3
:1024F0003093100320930F0310920E0310920D03DC
:10250000DC01ED91FC910190F081E02D60E00995F6
:102510008701EE24E394F12CD1E0C1508091D703E0
:102520009091D803CF3F91F1B0E2EB16F104D8F0CF
:102530000E942C098091D7039091D8032091DB034E
:10254000D093100320930F0310920E0310920D03EB
:10255000DC01ED91FC910190F081E02D60E00995A6
:10256000EE24E394F12C8091D7039091D803F801E5
:102570006491DC01ED91FC910190F081E02D0995D1
:10258000BFEFEB1AFB0A0F5F1F4FC7CFDF91CF9151
:102590001F910F91FF90EF900C942C09E091E703AD
:1025A000F091E80390818091ED03809589238083E9
:1025B0008701C15008F438C0F80184912091D503F7
:1025C0003091D603232B29F00E945F120F5F1F4F1B
:1025D000F0CF28E030E040E8E091E303F091E4033D
:1025E0009091EB03582F5423D9F05081952B908371
:1025F000E091E503F091E60390815091EC03952B77
:102600009083E091E503F091E60350819091EC0313
:10261000909595239083469521503109E9F6D6CFC0
:10262000508190959523E3CFDF91CF911F910F912A
:10263000FF90EF9008951F93CF93DF93EC018D8D62
:102640009E8D009721F1162F29A131E030931003C0
:1026500020930F0310920E0310920D03DC01ED91F5
:10266000FC910190F081E02D60E009958D8D9E8DAB
:10267000DC01ED91FC910190F081E02D612F099535
:102680008D8D9E8DDF91CF911F910C942C09ADA55E
:10269000BEA59C918BA9809589238C938B8D9C8D55
:1026A000892B31F0862FDF91CF911F910C945F120F
:1026B00028E030E080E8A9A5BAA599A9462F4823CB
:1026C000C1F04C91942B9C93ABA5BCA59C914AA9BD
:1026D000942B9C93ABA5BCA54C919AA9909594235F
:1026E0009C9386952150310931F7DF91CF911F914D
:1026F00008954C9190959423E6CF8CBD9DBD08958F
:102700001F93CF93DF93EC01162F8D8D9E8D892B18
:10271000B1F12DA93EA94FA958AD60E074E284EF54
:1027200090E00E94412420513109410951095695F8
:102730004795379527952093B80066EA111167EA07
:10274000CE010E941B138D8D9E8D892B41F129ADE9
:102750003AAD4BAD5CAD60E074E284EF90E00E9476
:102760004124205131094109510956954795379522
:1027700027952093B800DF91CF911F9108958B8DFD
:102780009C8D892B21F08EAD9FAD0E947D13EFA50E
:10279000F8A990818CA9809589238083CECFEFA55D
:1027A000F8A980819CA9892B8083E5CFEAEFF3E02B
:1027B00081859285A385B4850196A11DB11D818770
:1027C0009287A387B4870895E7E1F4E08185928535
:1027D000A385B4850196A11DB11D81879287A3872A
:1027E000B4870895CF92DF92EF92FF920F931F93D9
:1027F000CF93DF93EC012D853E854F8558896989FC
:102800007A898B899C890E9463246B017C010B8DE2
:102810001C8D20E030E0A9010E9442251816ECF43E
:102820000F5F1F4F1C8F0B8F8B8D9C8D8F3F9105E2
:1028300029F024F08FEF90E09C8F8B8F8B8D9C8DF7
:1028400097FF02C01C8E1B8EDF91CF911F910F91BD
:10285000FF90EF90DF90CF90089520E030E0A90145
:10286000C701B6010E94E32287FFDECF01501109A4
:10287000D9CFCF93DF93EC0170E060E088810E94B4
:102880003E0670E060E08981DF91CF910C943E06B6
:102890000F931F93CF93DF938C01EB01FC01808199
:1028A0001C161D0694F070E060E0209771F00E9405
:1028B0003E06662777276C1B7D0BF8018181DF912F
:1028C000CF911F910F910C943E060E943E0670E03E
:1028D00060E0F3CFCF92DF92EF92FF920F931F93BE
:1028E000CF93DF93FC01C588D688E788F08CC18D33
:1028F000D28DCE14DF0409F5838D948DC817D907C6
:10290000BCF42196D28FC18F818D928DC89EB0016B
:10291000C99E700DD89E700D1124CF01DF91CF910B
:102920001F910F91FF90EF90DF90CF900C9448147F
:102930008C179D074CF72197E5CF8C0120E030E004
:1029400040EA50E465857685878590890E94E32278
:1029500087FF0CC0CA30D1054CF4CC9EB001CD9E8F
:10296000700DDC9E700D1124C801D8CFCB30D1057D
:10297000ACF02A97F801D28FC18F818D928D97FF8D
:1029800002C0128E118EF801818D928DE89EB001E9
:10299000E99E700DF89E700D1124E6CF2197EACFC5
:1029A000CF93DF93EC0161E088810E940D0661E026
:1029B00089810E940D0662E08A81DF91CF910C949B
:1029C0000D0690E080E008952091C0033091C1038E
:1029D000C901079697FD079623E0959587952A9557
:1029E000E1F72091BE033091BF03829FA001839F36
:1029F000500D929F500D112470E060E08091D9033A
:102A00009091DA030C943D27FB0101900020E9F737
:102A10003197AF01461B570BDC01ED91FC91028011
:102A2000F381E02D09948F929F92AF92BF920F9302
:102A30001F93CF93DF93CDB7DEB7A1970FB6F8946E
:102A4000DEBF0FBECDBF19A2423008F44AE08E01AE
:102A50000F5D1F4F842E912CB12CA12CA501940148
:102A60000E944124E62FB901CA01EA3004F5E05D75
:102A7000D801EE938D01232B242B252B79F790E0A1
:102A800080E0109729F0BD0181E193E00E940415D8
:102A9000A1960FB6F894DEBF0FBECDBFDF91CF91E8
:102AA0001F910F91BF90AF909F908F900895E95C18
:102AB000DFCFCF92DF92EF92FF92CF93DF936B0144
:102AC0007C016DE281E193E00E94D407EC0166276E
:102AD0007727CB016C197D098E099F094AE00E9476
:102AE00013158C0F9D1FDF91CF91FF90EF90DF901A
:102AF000CF900895CF93DF93BC0181E193E00E94D2
:102B00000415EC0166E671E081E193E00E94041592
:102B10008C0F9D1FDF91CF9108950E942F270F9357
:102B20001F93CF93DF938C01EB01FC018081918196
:102B30000097E1F06881798161157105A9F0428102
:102B400053812C813D814217530770F00E94582712
:102B50008C819D81F801958384831D821C82DF9185
:102B6000CF911F910F9108950E94E9258881998145
:102B7000F801918380838A819B81938382838C81F6
:102B80009D8195838483198218821B821A82E5CFE6
:102B9000CF93DF93EC0188819981009711F00E9417
:102BA000E925198218821D821C821B821A82DF91FC
:102BB000CF910895FC0180819181009711F00C94D0
:102BC000E92508950F931F93CF93DF93EC0188813C
:102BD0009981009759F02A813B812617370730F0F9
:102BE00081E0DF91CF911F910F9108958B016F5F6D
:102BF0007F4F0E947226009759F0998388831B8328
:102C00000A832C813D81232B59F7FC011082E8CFE8
:102C100080E0E7CFEF92FF920F931F93CF93DF9364
:102C2000EC017B018A01BA010E94E21581110BC0FF
:102C3000CE010E94C815CE01DF91CF911F910F9157
:102C4000FF90EF9008951D830C83B70188819981CF
:102C50000E945827F0CFCF93DF93EC01FB0186173A
:102C6000970749F0608171816115710541F04481D8
:102C700055810E940A16CE01DF91CF9108950E94DE
:102C8000C815F9CFFC0111821082138212821582BD
:102C90001482FB0101900020E9F73197AF01461B38
:102CA000570B0C940A1685ED8093BC0080917C0232
:102CB00090917D02A0917E02B0917F020796A11DA6
:102CC000B11D23E0B695A795979587952A95D1F7DD
:102CD0002091BC0024FD03C01092C50208954091CC
:102CE0007C0250917D0260917E0270917F02452BA3
:102CF000462B472B69F30097A105B10541F02AE265
:102D00002A95F1F700C00197A109B109E1CF80919F
:102D10007B020C9486081F920F920FB60F9211241B
:102D20002F933F938F939F93AF93BF93809105030E
:102D300090910603A0910703B0910803309104031A
:102D400023E0230F2D3758F50196A11DB11D2093C7
:102D500004038093050390930603A0930703B093A5
:102D600008038091090390910A03A0910B03B0918D
:102D70000C030196A11DB11D8093090390930A03D2
:102D8000A0930B03B0930C03BF91AF919F918F91D0
:102D90003F912F910F900FBE0F901F90189526E82E
:102DA000230F0296A11DB11DD2CF1F920F920FB615
:102DB0000F9211242F933F934F935F936F937F93C1
:102DC0008F939F93AF93BF93EF93FF93E0910E0187
:102DD000F0910F010995FF91EF91BF91AF919F91F4
:102DE0008F917F916F915F914F913F912F910F90B4
:102DF0000FBE0F901F9018951F920F920FB60F9253
:102E000011242F933F934F935F936F937F938F93EF
:102E10009F93AF93BF93EF93FF93E0910C01F091D9
:102E20000D010995FF91EF91BF91AF919F918F9106
:102E30007F916F915F914F913F912F910F900FBEB6
:102E40000F901F9018951F920F920FB60F9211249A
:102E50002F933F934F935F936F937F938F939F93A2
:102E6000AF93BF93EF93FF9381E193E00E94B2078A
:102E7000FF91EF91BF91AF919F918F917F916F9152
:102E80005F914F913F912F910F900FBE0F901F9028
:102E900018951F920F920FB60F9211242F938F93B4
:102EA0009F93EF93FF93E0912103F09122038081A0
:102EB000E0912703F091280382FD1BC0908180914F
:102EC0002A038F5F8F7320912B03821741F0E091CB
:102ED0002A03F0E0EF5EFC4F958F80932A03FF9169
:102EE000EF919F918F912F910F900FBE0F901F9098
:102EF00018958081F4CF1F920F920FB60F92112474
:102F00002F933F934F935F936F937F938F939F93F1
:102F1000AF93BF93EF93FF938091B900887F803682
:102F200009F44AC0F0F5883209F4A7C018F58031D9
:102F300009F49BC0B8F4882309F4F9C0883009F477
:102F400094C0FF91EF91BF91AF919F918F917F912D
:102F50006F915F914F913F912F910F900FBE0F9006
:102F60001F901895883109F488C0803251F78093FA
:102F7000C40214C0803409F49DC040F48033B9F316
:102F80008833F9F68093C40285ECB0C0803509F42B
:102F900085C0883509F496C0883499F60E94531686
:102FA000D0CF883909F48CC038F5883729F050F42F
:102FB000883611F0803729F683E08093C50210929D
:102FC000C30257C0883809F47BC0803919F08038B3
:102FD00009F0B7CF8091C302803208F071C0E09150
:102FE000C30281E08E0F8093C3028091BB00F0E0AA
:102FF000ED55FD4F80833DC0803B39F0E0F4803AD1
:1030000009F479C0883A09F09CCF84E08093C50226
:103010001092A2021092A102E091EE02F091EF0252
:1030200009958091A10281110FC081E08093A102D6
:103030001092810209C0803C09F4A6CF883C09F4B3
:10304000A3CF883B09F07DCFE091A20281E08E0FF3
:103050008093A202F0E0EF57FD4F80818093BB0088
:103060009091A2028091A10229C08091EA028093EE
:10307000BB0085EC8093BC0064CF9091E902809105
:10308000E802981758F5E091E90281E08E0F8093ED
:10309000E902F0E0E853FD4F8081E9CFE091E902D9
:1030A00081E08E0F8093E9028091BB00F0E0E8534D
:1030B000FD4F80839091E9028091E8029817C8F251
:1030C00085E8D8CFE091E90281E08E0F8093E90294
:1030D0008091BB00F0E0E853FD4F80838091C702F0
:1030E00081115CCF81E08093C60284EA8093BC00AA
:1030F0001092C50226CF85EC8093BC001092C502C9
:103100008091C302803230F4E091C302F0E0ED55CB
:10311000FD4F10826091C30270E0E091EC02F091EB
:10312000ED0283EA92E009951092C3020ACF109251
:10313000C40234CF1F920F920FB60F9211242F9317
:103140003F938F939F93EF93FF9380913A0287FF72
:103150001FC0109285001092840080913A028F5F08
:1031600080933A0280913A0287FF04C080913A022C
:103170008C30ACF08091840090918500049680346E
:103180009C4990F1809184009091850004962EC016
:1031900080913A0287FFE1CF80913A02DECF209101
:1031A000840030918500E0913A028E2FEE0F990B4A
:1031B000FC01EE0FFF1FE80FF91FEA5EFD4F818152
:1031C0009281820F931F9093890080938800809151
:1031D0003A02FF91EF919F918F913F912F910F9024
:1031E0000FBE0F901F90189580E49CE99093890082
:1031F000809388008FEF80933A02EBCFCF92DF92DB
:10320000EF92FF920F931F93CF93DF9300D000D0E4
:1032100000D0CDB7DEB7E1E1F3E01382128288EE91
:1032200093E0A0E0B0E084839583A683B7832AE18E
:1032300031E03183208325EC30E03587248724EC8E
:1032400030E03787268720EC30E0318B208B21EC73
:1032500030E0338B228B22EC30E0358B248B26EC54
:1032600030E0378B268B118E128E138E148E2EEA41
:10327000E22E23E0F22EF7011382128284839583DB
:10328000A683B7838CE291E09183808369E671E045
:10329000CE0101960E94421668E671E08AE194E050
:1032A0000E94421607E114E085E0F801808386E081
:1032B000818382E08283BE016F5F7F4F8AE194E069
:1032C0000E942B16F8011186128613861486118A25
:1032D000128A138A148A128E118E148E138E168AF5
:1032E000158ACC24C394D12CD08EC78ACE010196E6
:1032F0000E94DA1563E771E0CE0101960E94421642
:1033000068E671E08DEF93E00E9442160AEF13E049
:103310008AE0F80180838BE0818383E08283BE01B1
:103320006F5F7F4F8DEF93E00E942B16F80111869F
:10333000128613861486118A128A138A148A128EB0
:10334000118E148E138E168A158AD08EC78ACE01DE
:1033500001960E94DA15EAEBF3E01382128220E86C
:1033600030E03583248380E290E097838683318741
:10337000208793878287168A158614861786168675
:1033800081E0858B848B2FEF3FEF338B228B318B4A
:10339000208B878B108E128E118E148E138EF68ECC
:1033A000E58E10A2178E8FEF84A385A386A387A333
:1033B00080A780E586AF17AE8EE391E0918380838E
:1033C00026960FB6F894DEBF0FBECDBFDF91CF912A
:1033D0001F910F91FF90EF90DF90CF900895CF93C2
:1033E000DF93CDB7DEB7E1970FB6F894DEBF0FBE1F
:1033F000CDBF789484B5826084BD84B5816084BD7E
:1034000085B5826085BD85B5816085BD80916E0082
:10341000816080936E0010928100809181008260B3
:1034200080938100809181008160809381008091F0
:1034300080008160809380008091B10084608093DF
:10344000B1008091B00081608093B00080917A00DB
:10345000846080937A0080917A00826080937A0001
:1034600080917A00816080937A0080917A008068F0
:1034700080937A001092C100E0912103F091220321
:1034800082E08083E0911D03F0911E031082E091A1
:103490001F03F091200380E1808310922903E091C3
:1034A0002503F091260386E08083E0912303F091C9
:1034B0002403808180618083E0912303F0912403C1
:1034C000808188608083E0912303F09124038081D0
:1034D00080688083E0912303F091240380818F7DB5
:1034E000808387E194E00E94D0148AEF93E00E94E9
:1034F000D01480911904823009F461C0833009F03E
:1035000060C081E064EE73E10E9471058091FC036C
:10351000823009F458C0833009F057C081E066ED6D
:1035200073E10E94710584E690E0A0E0B0E0809332
:10353000000190930101A0930201B09303018093D5
:10354000040190930501A0930601B09307018AE05E
:1035500090E0A0E0B0E08093080190930901A0936F
:103560000A01B0930B018091D9039091DA03892B62
:1035700071F52091C0033091C103C901079697FDF1
:103580000796B3E095958795BA95E1F72091BE032C
:103590003091BF03AC01429FC001439F900D529FE9
:1035A000900D11240E944D259093DA038093D90346
:1035B000892B69F48EE791E00E947A15FFCF80E0B5
:1035C000A1CF8FEF9FCF80E0AACF8FEFA8CF0E942F
:1035D000E4142091C0033091C1038091BE03909107
:1035E000BF03B901213231050CF4DEC16054710909
:1035F00077FF02C06F5F7F4F759567958255910980
:1036000097FD019600E410E022E530E04EE657E039
:10361000959587950E94FA0E82E08093DC03809155
:10362000D7039091D803892B09F4D1C18CE38093FF
:10363000DB031092F1021092F00210920E0310922E
:103640000D030E9468088EEF96E09093EF0280933E
:10365000EE028FEF96E09093ED028093EC02809162
:10366000E20387FD1EC061E00E940D0661E08091CB
:10367000E2030E94DF0561E070E080E090E00E94DC
:10368000C00660E08091E2030E94DF056AE070E01E
:1036900080E090E00E94C00661E08091E2030E9419
:1036A000DF058091D7039091D803892B09F44EC28E
:1036B0002091EF033091F0034091F1035091F20318
:1036C00060E074E284EF90E00E94412420513109CF
:1036D0004109510956954795379527952093B8008C
:1036E00064E08AE895E00E9466126091C003615030
:1036F0008AEB93E00E941B1364E086E895E00E9449
:1037000066128091DC0360E1813009F064E18AEBAC
:1037100093E00E941B1364E082E895E00E94661229
:103720008FE88093F7038091BE039091BF038038A8
:10373000910509F022C28091C0039091C1038034A9
:10374000910509F02AC28091DC03813009F038C26A
:103750008FE98093F70312E16AED8AEB93E00E9410
:103760001B13612F8AEB93E00E941B1361E88AEB25
:1037700093E00E941B136091F7038AEB93E00E9491
:103780001B1369ED8AEB93E00E941B138091DC030D
:1037900062E2813009F061EF8AEB93E00E941B1333
:1037A00066E08CE795E00E9466128091D7039091C5
:1037B000D803892B09F406C22091F3033091F40356
:1037C0004091F5035091F60360E074E284EF90E0DD
:1037D0000E944124205131094109510956954795CC
:1037E000379527952093B80060ED77E080E090E072
:1037F0000E94C00681E08093CE038093CF0381E0D6
:1038000090E09093CD038093CC039093CB0380936F
:10381000CA0369E971E0CE0101960E9442160E9436
:10382000E4141092C7031092C60385E090E09093D1
:10383000C9038093C8034D815E8169817A818AEBD7
:1038400093E00E94020766E671E08AEB93E00E9433
:1038500004158091D7039091D803892B09F4BCC13A
:103860002091EF033091F0034091F1035091F20366
:1038700060E074E284EF90E00E944124205131091D
:103880004109510956954795379527952093B800DA
:1038900064E088E795E00E9466128091BE039091F3
:1038A000BF038034910509F0AEC160E28AEB93E07A
:1038B0000E941B136091BE03615E8AEB93E00E943D
:1038C0001B132091C0033091C103C901079697FDD6
:1038D000079623E0959587952A95E1F72091BE03F9
:1038E0003091BF03829F7001839FF00C929FF00C78
:1038F00011240091D9031091DA038091D70390919C
:10390000D803E00EF11E009709F4F5C12091DB0306
:1039100031E03093100320930F0310920E031092A6
:103920000D03DC01ED91FC910190F081E02D60E44C
:103930000995680101E010E0BB24B3948091D7039E
:103940009091D803EC14FD0409F466C1003211050E
:10395000D0F00E942C098091D7039091D803209138
:10396000DB03B092100320930F0310920E0310920A
:103970000D03DC01ED91FC910190F081E02D60E4FC
:10398000099501E010E08091D7039091D803F601EA
:1039900061916F01DC01ED91FC910190F081E02DCE
:1039A00009950F5F1F4FCACF6052710977FF02C0A0
:1039B0006F5F7F4F759567958357910997FD0196C6
:1039C00000E210E023E730E04EE855E021CE61E070
:1039D0008091E0030E940D0661E08091E1030E9466
:1039E0000D068091E003082E000C990BFC01E45BAE
:1039F000F54FE491F0E0EE0FFF1FE85CF54F2591E5
:103A000034913093E8032093E703FC01E05AF54F2B
:103A1000E491E093ED038091E103082E000C990BF3
:103A2000FC01E45BF54FE491F0E0EE0FFF1FE85C72
:103A3000F54FA591B491B093EA03A093E903FC017B
:103A4000E05AF54FE491E093EE038C91E82BEC9370
:103A50008091D5039091D603892B09F434C01FB708
:103A6000F8948091EB02811127C0E6E5FAE0849199
:103A7000EAE6FAE09491E82FF0E0EE0FFF1FE25D36
:103A8000F54FA591B491EC91E92321F461E08AE02E
:103A90000E94DF0561E08AE00E940D068CB580611E
:103AA0008CBD8CB580648CBD61E08DE00E940D06FC
:103AB00061E08BE00E940D068091EB028F5F8093A6
:103AC000EB021FBFCCCD61E08091DE030E940D06AA
:103AD00061E08091DF030E940D068091DE03082ED5
:103AE000000C990BFC01E45BF54FE491F0E0EE0F64
:103AF000FF1FE85CF54F259134913093E403209348
:103B0000E303FC01E05AF54FE491E093EB0380916D
:103B1000DF03082E000C990BFC01E45BF54FE491E8
:103B2000F0E0EE0FFF1FE85CF54FA591B491B09364
:103B3000E603A093E503FC01E05AF54FE491E0931E
:103B4000EC038C91E095E823EC9389CD8091D5032B
:103B50009091D603892B31F08091F8039091F9036D
:103B60000E947D13E091E903F091EA039081809136
:103B7000EE03809589238083B3CD8036910589F447
:103B80008091C0039091C103409739F48091DC0388
:103B9000813029F480E18093F70312E0DDCD8FEAD4
:103BA000FACF80349105C9F78091C0039091C10389
:103BB000809799F78091DC03813011F480E1C9CDC1
:103BC0008FECC7CDE091E903F091EA0380819091F9
:103BD000EE03892B808308CE8091D5039091D60384
:103BE000892B31F08091F8039091F9030E947D13A5
:103BF000E091E903F091EA0390818091EE038095D2
:103C00008923808345CE60E08AEB93E00E941B13FA
:103C10006091BE03615051CE0E942C098091D70360
:103C20009091D803892B09F4AEC02091F303309111
:103C3000F4034091F5035091F60360E074E284EFE1
:103C400090E00E94412420513109410951095695C3
:103C50004795379527952093B800CE0101960E948D
:103C6000DA151092030310920203109228041092A6
:103C7000290410922A0410922B0410922D04109201
:103C80002C0410920B0410920C0410920D0410924C
:103C90000E041092100410920F048EE00E94B605DC
:103CA0008C0184E00E94B6050130110509F475C04D
:103CB00040E050E060E772E4409328045093290408
:103CC00060932A0470932B048130910509F4C5C0D8
:103CD00081E090E090932D0480932C0440930B049A
:103CE00050930C0460930D0470930E049093100491
:103CF00080930F0475C0E091E703F091E8038081A1
:103D00009091ED03892B80830E151F0509F486CF52
:103D10006801BFEFCB1ADB0AF80180812091D5033F
:103D20003091D603232B21F00E945F128601ECCF45
:103D300028E030E040E8E091E303F091E403909163
:103D4000EB03582F5423D9F05081952B9083E091A9
:103D5000E503F091E60390815091EC03952B90835D
:103D6000E091E503F091E60350819091EC0390958A
:103D700095239083469521503109E9F6D7CF50819C
:103D800090959523E3CFE091E903F091EA038081D8
:103D90009091EE03892B808360CF019709F466C070
:103DA00080E090E0A0EFB1E4809328049093290490
:103DB000A0932A04B0932B0410932D0400932C0499
:103DC00080E090E0A0E7B2E480930B0490930C04B1
:103DD000A0930D04B0930E041093100400930F04ED
:103DE0003E01FFE16F0E711C9E012F5F3F4F690185
:103DF000890168E671E0C8010E9442160A5F1F4F00
:103E000060167106B1F781E193E00E949207892B59
:103E100009F494C068E671E0CE018B960E944216C8
:103E20000E9452070FA518A997FD29C08F8F18A2CD
:103E30000F5F1F4FB801CE018B960E94E2158823B9
:103E400079F32BA53CA58FA598A9B301820F931FE9
:103E50000E94582718AB0FA7E3CF90932D048093AF
:103E60002C0440E050E060EF71E438CF87E194E04B
:103E70000E9439148AEF93E00E943914B1CFABA4A9
:103E8000BCA4A114B10429F075010115110509F0B4
:103E900018C28FA598A9892B09F4CFC26EEA71E0E8
:103EA00081E193E00E9404154FA558A96BA57CA55C
:103EB00081E193E00E94020766E671E081E193E010
:103EC0000E9404151EA21DA218A61FA21AA619A6BA
:103ED000BE01655D7F4FCE0185960E942B16912C09
:103EE000812C89A59AA5892B71F0EDA0FEA06AE32B
:103EF00070E0C7010E944427009729F08C010E1939
:103F00001F0917FF14C226E0289DC001299D900DAE
:103F10001124BE016B5D7F4F21E030E02C0F3D1F6F
:103F2000820F931F0E942B16CE0185960E94DA15F0
:103F300041E049ABCE018B960E94DA1559A9552371
:103F400009F488C08D819E81892B09F483C061ECBE
:103F500071E089819A810E944F27892B09F07AC0EC
:103F60008F819885009709F46AC20E949E224B01B6
:103F70008D859E85009709F466C20E949E226B0182
:103F800082E090E09093030380930203092C000CDD
:103F9000AA08BB08C501B4010E94EA221B012C013A
:103FA00020E030E0A9010E94422518160CF04FC213
:103FB000209228043092290440922A0450922B0423
:103FC000A1E0B0E0B0932D04A0932C040D2C000CC4
:103FD000EE08FF08C701B6010E94EA221B012C016E
:103FE00020E030E0A9010E94422518160CF058C2CA
:103FF00020920B0430920C0440920D0450920E0457
:1040000021E030E03093100420930F046AEC71E05B
:1040100081E193E00E940415B7FE6BC2C501B401B3
:104020000E94591566E671E081E193E00E94041553
:1040300062EE71E081E193E00E940415F7FE5FC239
:10404000C701B6010E94591566E671E081E193E06F
:104050000E940415CE0149960E94DA15CE014396BE
:104060000E94DA15CE010D960E94DA15CE01079650
:104070000E94DA15CE0101960E94DA150E94F2061E
:104080008090000190900101A0900201B090030186
:104090000091F2021091F3022091F4023091F502A6
:1040A000AB01BC01401B510B620B730B481559054A
:1040B0006A057B0508F468C0C0902004D0902104F4
:1040C000E0902204F0902304B401990C880B990B22
:1040D0000E94EA224B015C01C701B6010E94E8225E
:1040E00020E030E040EA51E40E94D02420E030E6B5
:1040F0004AE657E40E944923A50194010E94D02476
:1041000060932404709325048093260490932704DD
:104110001092200410922104109222041092230481
:104120006091030470910404809105049091060449
:104130000E94E82220E030E040EA51E40E94D024CE
:1041400020E030E64AE657E40E944923A5019401A5
:104150000E94D0246093070470930804809309049C
:1041600090930A0410920304109204041092050420
:10417000109206040E94F2066093F2027093F3021A
:104180008093F4029093F5020E94F2060091F602E9
:104190001091F7022091F8023091F902601B710B27
:1041A000820B930B009104011091050120910601EF
:1041B00030910701601771078207930790F087E13C
:1041C00094E00E94F2138AEF93E00E94F2130E949F
:1041D000F2066093F6027093F7028093F8029093D0
:1041E000F9020E94F2060091FA021091FB0220915E
:1041F000FC023091FD02601B710B820B930B00914E
:1042000008011091090120910A0130910B016017FA
:1042100071078207930790F087E194E00E946A1487
:104220008AEF93E00E946A140E94F2066093FA02F9
:104230007093FB028093FC029093FD020E94F206B1
:104240000091FE021091FF022091000330910103C2
:10425000601B710B820B930B683E734081059105C7
:10426000A0F08EE00E94B605019709F04EC18BEFD9
:1042700091E00E947A150E94F2066093FE0270930C
:10428000FF0280930003909301038FEF9FEF9093C1
:1042900003038093020387E194E00E9439148AEFBC
:1042A00093E00E943914A0E0B0E0AB2B09F49CCD60
:1042B0000E949E07882309F497CD0E94000094CDA8
:1042C000740147013FEF831A930AD7018C91082E9E
:1042D000000C990B0E94DA22892B91F701501109E9
:1042E0000A0D1B1DF8018081082E000C990B0E94FD
:1042F000DA22892B31F00E151F0518F00150110933
:10430000F1CF0F5F1F4FA8014E195F0958AB4FA7A0
:10431000AE14BF0420F4B701C5010E943427EBA5F9
:10432000FCA58FA598A9E80FF91F1082B2CD68E609
:1043300071E0C3010E94421689A59AA5009711F168
:1043400078018017910708F47C01EDA1FEA1EE0D24
:10435000FF1DB08010826DA17EA16115710509F469
:1043600064C0FB0101900020E9F73197AF01461BC3
:10437000570BC3010E940A168DA19EA1E80EF91EDB
:10438000D701BC92B301C6010E948F15C3010E94E0
:10439000DA150F5F1F4FA9A4BAA4A016B10628F022
:1043A0009A2D8B2D5801092F182F68E671E0C30153
:1043B0000E944216E9A4FAA4AE14BF0410F50E152B
:1043C0001F0508F47801EDA1FEA1EE0DFF1D10817F
:1043D00010826DA17EA16A0D7B1D6115710549F1E9
:1043E000FB0101900020E9F73197AF01461B570B05
:1043F000C3010E940A168DA19EA1E80EF91EF701C5
:104400001083B301CE0185960E948F15C3010E94CF
:10441000DA15FFEF8F1A9F0A26E0C20ED11C35E095
:104420008316910409F05DCD7FCDC3010E94C815AC
:10443000A3CFC3010E94C815DECF19AA7BCD60E0CF
:1044400070E0CB0194CD60E070E0CB0198CD20E02E
:1044500030E0A901C201B1010E94E32287FF13C02D
:1044600057FA509457F85094209228043092290417
:1044700040922A0450922B04EFEFFFEFF0932D04AB
:10448000E0932C04A3CD10922804109229041092DA
:104490002A0410922B0410922D0410922C0496CD15
:1044A00020E030E0A901C201B1010E94E32287FFB0
:1044B00013C057FA509457F8509420920B0430923E
:1044C0000C0440920D0450920E044FEF5FEF509396
:1044D000100440930F049ACD10920B0410920C0418
:1044E00010920D0410920E041092100410920F04FA
:1044F0008DCD4AE0C501B4010E94131593CD4AE069
:10450000C701B6010E9413159FCD88E092E0B1CE9D
:104510008EE391E09093BB038093BA038091D9031B
:104520009091DA03009711F00E94E9258DEF93E056
:104530000E94DA158AE194E00C94DA151F93FC01CD
:1045400099278827BC01E89411911032E9F31930BA
:1045500010F01E30C8F31B3251F01D3249F468943C
:1045600006C00E94C522610F711D811D911D119110
:1045700010531A30B0F33EF4909580957095619584
:104580007F4F8F4F9F4F1F910895592F482F372FDF
:10459000262F660F771F881F991F660F771F881FAA
:1045A000991F620F731F841F951F660F771F881F47
:1045B000991F089591110C94B623803219F08950F7
:1045C0008550C8F708950E94252308F481E00895D6
:1045D000E89409C097FB3EF490958095709561959D
:1045E0007F4F8F4F9F4F9923A9F0F92F96E9BB2753
:1045F0009395F695879577956795B795F111F8CFCF
:10460000FAF4BB0F11F460FF1BC06F5F7F4F8F4F39
:104610009F4F16C0882311F096E911C0772321F02F
:104620009EE8872F762F05C0662371F096E8862FC7
:1046300070E060E02AF09A95660F771F881FDAF71E
:10464000880F9695879597F90895990F0008550F4B
:10465000AA0BE0E8FEEF16161706E807F907C0F008
:1046600012161306E407F50798F0621B730B840B10
:10467000950B39F40A2661F0232B242B252B21F4EA
:1046800008950A2609F4A140A6958FEF811D811D8A
:1046900008950E945C230C94D0230E94C22338F01A
:1046A0000E94C92320F0952311F00C94B9230C9497
:1046B000BF2311240C9404240E94E12370F3959FDE
:1046C000C1F3950F50E0551F629FF001729FBB2709
:1046D000F00DB11D639FAA27F00DB11DAA1F649FA5
:1046E0006627B00DA11D661F829F2227B00DA11D58
:1046F000621F739FB00DA11D621F839FA00D611DDE
:10470000221F749F3327A00D611D231F849F600DFE
:10471000211D822F762F6A2F11249F5750409AF027
:10472000F1F088234AF0EE0FFF1FBB1F661F771FB3
:10473000881F91505040A9F79E3F510580F00C947E
:10474000B9230C9404245F3FE4F3983ED4F3869598
:1047500077956795B795F795E7959F5FC1F7FE2B1E
:10476000880F911D9695879597F908959927882721
:10477000089597F99F6780E870E060E008959FEFE3
:1047800080EC089500240A941616170618060906E8
:10479000089500240A9412161306140605060895B7
:1047A000092E0394000C11F4882352F0BB0F40F43F
:1047B000BF2B11F460FF04C06F5F7F4F8F4F9F4F7F
:1047C000089557FD9058440F551F59F05F3F71F001
:1047D0004795880F97FB991F61F09F3F79F0879568
:1047E0000895121613061406551FF2CF4695F1DFF1
:1047F00008C0161617061806991FF1CF8695710581
:10480000610508940895E894BB2766277727CB01B4
:1048100097F908952F923F924F925F926F927F92F5
:104820008F929F92AF92BF92CF92DF92EF92FF92C0
:104830000F931F93CF93DF93CDB7DEB7CA1BDB0B6C
:104840000FB6F894DEBF0FBECDBF09942A88398811
:1048500048885F846E847D848C849B84AA84B98418
:10486000C884DF80EE80FD800C811B81AA81B98124
:10487000CE0FD11D0FB6F894DEBF0FBECDBFED0138
:104880000895A1E21A2EAA1BBB1BFD010DC0AA1F91
:10489000BB1FEE1FFF1FA217B307E407F50720F0A9
:1048A000A21BB30BE40BF50B661F771F881F991F24
:1048B0001A9469F760957095809590959B01AC016D
:1048C000BD01CF0108955058BB27AA270E947B2421
:1048D0000C94D0230E94C22338F00E94C92320F0F8
:1048E00039F49F3F19F426F40C94BF230EF4E0959D
:1048F000E7FB0C94B923E92F0E94E12358F3BA1780
:10490000620773078407950720F079F4A6F50C94E5
:1049100003240EF4E0950B2EBA2FA02D0B01B90144
:1049200090010C01CA01A0011124FF27591B99F025
:10493000593F50F4503E68F11A16F040A22F232F31
:10494000342F4427585FF3CF469537952795A79581
:10495000F0405395C9F77EF41F16BA0B620B730B28
:10496000840BBAF09150A1F0FF0FBB1F661F771F99
:10497000881FC2F70EC0BA0F621F731F841F48F44E
:10498000879577956795B795F7959E3F08F0B0CFD7
:104990009395880F08F09927EE0F979587950895BE
:1049A0000E94E4240C94D0230E94C92358F00E9452
:1049B000C22340F029F45F3F29F00C94B923511130
:1049C0000C9404240C94BF230E94E12368F39923E0
:1049D000B1F3552391F3951B550BBB27AA276217FB
:1049E0007307840738F09F5F5F4F220F331F441F08
:1049F000AA1FA9F335D00E2E3AF0E0E832D091503C
:104A00005040E695001CCAF72BD0FE2F29D0660F28
:104A1000771F881FBB1F261737074807AB07B0E86B
:104A200009F0BB0B802DBF01FF2793585F4F3AF071
:104A30009E3F510578F00C94B9230C9404245F3FF9
:104A4000E4F3983ED4F3869577956795B795F795F7
:104A50009F5FC9F7880F911D9695879597F90895DF
:104A6000E1E0660F771F881FBB1F6217730784077B
:104A7000BA0720F0621B730B840BBA0BEE1F88F78A
:104A8000E09508950E94252308F48FEF0895EE0F16
:104A9000FF1F0590F491E02D09940F931F93CF937E
:104AA000DF938230910510F482E090E0E0913604CB
:104AB000F091370430E020E0B0E0A0E0309799F4C6
:104AC0002115310509F44AC0281B390B2430310562
:104AD000D8F58A819B816115710589F1FB0193836A
:104AE0008283FE0111C040815181028113814817E8
:104AF0005907E0F04817590799F4109761F012969A
:104B00000C93129713961C933296CF01DF91CF919D
:104B10001F910F9108950093360410933704F4CF3A
:104B20002115310551F04217530738F0A901DB0177
:104B30009A01BD01DF01F801C1CFEF01F9CF9093D8
:104B4000370480933604CDCFFE01E20FF31F81932B
:104B500091932250310939832883D7CF209134048F
:104B600030913504232B41F420911201309113012F
:104B700030933504209334042091100130911101B9
:104B80002115310541F42DB73EB7409114015091E4
:104B90001501241B350BE0913404F0913504E21724
:104BA000F307A0F42E1B3F0B2817390778F0AC0150
:104BB0004E5F5F4F2417350748F04E0F5F1F50932D
:104BC000350440933404819391939FCFF0E0E0E06B
:104BD0009CCFCF93DF930097E9F0FC0132971382CB
:104BE0001282A0913604B0913704ED0130E020E04C
:104BF0001097A1F420813181820F931F20913404FA
:104C0000309135042817390709F061C0F093350455
:104C1000E0933404DF91CF910895EA01CE17DF07C6
:104C2000E8F54A815B819E0141155105B1F7E90123
:104C3000FB83EA8349915991C40FD51FEC17FD07F7
:104C400061F4808191810296840F951FE901998317
:104C50008883828193819B838A83F0E0E0E01296CF
:104C60008D919C9113970097B9F52D913C911197D7
:104C7000CD010296820F931F2091340430913504A8
:104C80002817390739F6309751F5109237041092EA
:104C90003604B0933504A0933404BCCFD383C283CD
:104CA00040815181840F951FC817D90761F44E5F69
:104CB0005F4F88819981480F591F518340838A81B2
:104CC0009B81938382832115310509F0B0CFF09346
:104CD0003704E09336049ECFFD01DC01C0CF138280
:104CE0001282D7CFB0E0A0E0E8E7F6E20C940C2403
:104CF0008C01009751F4CB010E944D258C01C80115
:104D0000CDB7DEB7E0E10C942824FC01E60FF71FD5
:104D10009C0122503109E217F30708F49DC0D90124
:104D2000CD91DC911197C617D70798F0C530D10502
:104D300030F3CE0104978617970708F3C61BD70BED
:104D40002297C193D1936D937C93CF010E94E92563
:104D5000D6CF5B01AC1ABD0A4C018C0E9D1EA091F2
:104D60003604B0913704512C412CF12CE12C1097D2
:104D700031F580913404909135048815990509F036
:104D80005CC04616570608F058C0809110019091FB
:104D90001101009741F48DB79EB7409114015091D5
:104DA0001501841B950BE817F90708F055C0F0931F
:104DB0003504E0933404F90171836083A0CF8D91B1
:104DC0009C91119712966C90129713967C90139762
:104DD000A815B90559F56C0142E0C40ED11CCA14DE
:104DE000DB0420F1AC014A195B09DA011296159730
:104DF00080F06282738251834083D9016D937C93EA
:104E0000E114F10471F0D7011396FC93EE9312971D
:104E100076CF22968C0F9D1FF90191838083F30139
:104E2000EFCFF0933704E093360469CF4816590664
:104E300008F42C017D01D3019ACFCB010E944D25AE
:104E40007C01009749F0AE01B8010E943427C801E7
:104E50000E94E925870153CF10E000E050CF81E0A8
:104E600090E0F8940C945F27FB01DC0102C00190F4
:104E70000D9241505040D8F70895DC0101C06D9368
:104E800041505040E0F70895FC018191861721F0D0
:104E90008823D9F7992708953197CF010895FB0109
:104EA000DC018D91019080190110D9F3990B0895BF
:104EB000FB01DC0101900D920020E1F7089515E05F
:104EC000C5E4D5E004C0FE010E9447252196C63402
:104ED000D107C9F7F894FFCFE8030000E80300000A
:104EE000E80300000107010700003804800000000B
:104EF0000000D40702072F07210892073E07840706
:104F000000000000FD08D008E1147005C908B608CB
:104F1000A708000000004E0C0207E1140007AF11C3
:104F20007005F30ECB0EE70EDB0E5B0F7005140A57
:104F300080131F116811140EF70D7F0D200D0D0A3F
:104F4000004C656674576865656C005269676874E3
:104F5000576865656C004F4C454420696E697469FB
:104F6000616C697A6174696F6E206661696C6564F1
:104F700000446973706C617920696E697469616C51
:104F8000697A65642E00436F6D6D616E6420726591
:104F90006365697665643A2000534554535045452E
:104FA00044006C65667420776865656C2052504DCE
:104FB0002073657420746F3A2000726967687420EA
:104FC000776865656C2052504D2073657420746F4E
:104FD0003A20006C656674206F6E2D6C696E6500FA
:0E4FE0006C656674206F66662D6C696E6500E8
:107E0000112484B714BE81FFF0D085E080938100F7
:107E100082E08093C00088E18093C10086E0809377
:107E2000C20080E18093C4008EE0C9D0259A86E02C
:107E300020E33CEF91E0309385002093840096BBD3
:107E4000B09BFECF1D9AA8958150A9F7CC24DD24C4
:107E500088248394B5E0AB2EA1E19A2EF3E0BF2EE7
:107E6000A2D0813461F49FD0082FAFD0023811F036
:107E7000013811F484E001C083E08DD089C08234E0
:107E800011F484E103C0853419F485E0A6D080C0E4
:107E9000853579F488D0E82EFF2485D0082F10E0AE
:107EA000102F00270E291F29000F111F8ED06801E7
:107EB0006FC0863521F484E090D080E0DECF843638
:107EC00009F040C070D06FD0082F6DD080E0C81688
:107ED00080E7D80618F4F601B7BEE895C0E0D1E017
:107EE00062D089930C17E1F7F0E0CF16F0E7DF06D8
:107EF00018F0F601B7BEE89568D007B600FCFDCFD4
:107F0000A601A0E0B1E02C9130E011968C91119780
:107F100090E0982F8827822B932B1296FA010C0160
:107F200087BEE89511244E5F5F4FF1E0A038BF0790
:107F300051F7F601A7BEE89507B600FCFDCF97BE46
:107F4000E89526C08437B1F42ED02DD0F82E2BD052
:107F50003CD0F601EF2C8F010F5F1F4F84911BD097
:107F6000EA94F801C1F70894C11CD11CFA94CF0C13
:107F7000D11C0EC0853739F428D08EE10CD085E9AC
:107F80000AD08FE07ACF813511F488E018D01DD067
:107F900080E101D065CF982F8091C00085FFFCCF94
:107FA0009093C60008958091C00087FFFCCF809118
:107FB000C00084FD01C0A8958091C6000895E0E648
:107FC000F0E098E1908380830895EDDF803219F02E
:107FD00088E0F5DFFFCF84E1DECF1F93182FE3DFCA
:107FE0001150E9F7F2DF1F91089580E0E8DFEE27F6
:047FF000FF270994CA
:027FFE00040479
:00000001FF
