:020000040000FA
:100000000C9406010C9428200C9401200C942E01D1
:100010000C942E010C942E010C942E010C942E01A4
:100020000C942E010C942E010C942E010C942E0194
:100030000C942E010C942E010C942E010C942E0184
:100040000C94B71F0C942E010C9475200C944F2027
:100050000C942E010C942E010C942E010C942E0164
:100060000C94A7200C942E014E414E494E495459F0
:10007000494E46CDCCCC3D0AD7233C17B7D1387773
:10008000CC2B329595E6241FB14F0A000020410089
:1000900000C84200401C4620BCBE4CCA1B0E5AAED3
:1000A000C59D744F62737461636C652073656E7374
:1000B0006F722072616E67696E67206661696C6538
:1000C00064004F62737461636C652073656E736F57
:1000D0007220696E697469616C697A65206661690C
:1000E0006C65640041726475696E6F204F4E4C49B7
:1000F0004E450041726475696E6F20426F6F74697E
:100100006E672E2E2E00436F6D6D616E64207265DA
:100110006365697665643A20006E6F0079657300E7
:100120004F62737461636C653F2000202D200020B6
:100130002D20006F6E2D6C696E653F3A2000202FD8
:10014000206375725F52504D2000202F2074677419
:100150005F647574792000526967687420776865F8
:10016000656C20647574793A2000202F20637572C5
:100170005F52504D2000202F207467745F647574A7
:100180007920004C65667420776865656C3A206359
:1001900075725F64757479200044726976656D6F5D
:1001A00064653A20003D3D3D3D3D3D3D3D3D3D00CA
:1001B00000000000240027002A00000000002500A5
:1001C00028002B0000000000230026002900040462
:1001D00004040404040402020202020203030303EF
:1001E00003030102040810204080010204081020CB
:1001F00001020408102000000008000201000003B2
:1002000004070000000000000000C62111241FBEEA
:10021000CFEFD8E0DEBFCDBF26E0ACECB2E001C04E
:100220001D92AD3EB207E1F712E0A0E0B1E0ECECC8
:10023000F7E602C005900D92AC3CB107D9F711E08A
:10024000C6E0D1E004C02197FE010E94A833C5306A
:10025000D107C9F70E94E4220C94E4330C94000007
:10026000CF93DF9300D000D0CDB7DEB719821A82CA
:100270001B821C8289819A81AB81BC818A3F910556
:10028000A105B10568F4000089819A81AB81BC8128
:100290000196A11DB11D89839A83AB83BC83EACFEC
:1002A00080E00F900F900F900F90DF91CF91089505
:1002B0004F925F926F927F928F929F92AF92BF9276
:1002C000CF92DF92EF92FF920F931F93CF93F9019A
:1002D0000FEF1FEF980100831183228333834A01BC
:1002E0005B01B3E0B694A79497948794BA95D1F73D
:1002F0006A017B0127E0C222DD24EE24FF24950160
:100300008401C0E0063011052105310508F041C027
:10031000C1113FC0DC01A00FB11F6C91412C512CC9
:10032000320180169106A206B30649F470E00C2C47
:1003300002C0759567950A94E2F726013701462FAA
:1003400050E060FF17C0B901A801A3E0440F551F9A
:10035000661F771FAA95D1F7440E551E661E771E9D
:100360004082518262827382C1E00F5F1F4F2F4F24
:100370003F4FC8CFBA01759567954FEF441A540A9D
:10038000640A740A48E04416510461047104B9F621
:10039000ECCFCF911F910F91FF90EF90DF90CF9016
:1003A000BF90AF909F908F907F906F905F904F9095
:1003B00008958230C8F4E82FF0E0EE0FFF1FED5FE4
:1003C000FD4F71836083813041F0809169008C7FA3
:1003D000826080936900E89A089580916900837F24
:1003E000886080936900E99A0895833081F028F449
:1003F000813099F08230A9F008958730A9F08830D3
:10040000C9F08430B1F4809180008F7D03C0809169
:1004100080008F7780938000089584B58F7784BDA6
:10042000089584B58F7DFBCF8091B0008F77809346
:10043000B00008958091B0008F7DF9CFCF93DF9306
:10044000282F30E0F901EA50FE4F8491F901EE5176
:10045000FE4FD491F901E253FE4FC491CC23A1F099
:1004600081110E94F501EC2FF0E0EE0FFF1FEC531D
:10047000FE4FA591B491EC91ED2381E090E009F459
:1004800080E0DF91CF91089580E090E0FACF1F9354
:10049000CF93DF93282F30E0F901EA50FE4F84918B
:1004A000F901EE51FE4FD491F901E253FE4FC49190
:1004B000CC23A9F0162F81110E94F501EC2FF0E05A
:1004C000EE0FFF1FE654FE4FA591B4918FB7F8943D
:1004D000EC91111108C0D095DE23DC938FBFDF9122
:1004E000CF911F910895DE2BF8CFCF93DF9390E04B
:1004F000FC01EE51FE4F249182539E4FFC018491EA
:100500008823D1F090E0880F991FFC01E055FE4F41
:10051000A591B491FC01E654FE4FC591D49162308F
:1005200071F49FB7F8943C91822F809583238C932C
:10053000E8812E2B28839FBFDF91CF9108958FB73D
:10054000F894EC912E2B2C938FBFF6CF1F93CF9363
:10055000DF93182FEB0161E00E947502209739F4B8
:1005600060E0812FDF91CF911F910C944702CF3F24
:10057000D10511F461E0F5CFE12FF0E0EA50FE4F34
:10058000E491E33031F140F4E130B1F0E230E1F0F8
:10059000C038D1057CF7E4CFE73029F1E83059F1D4
:1005A000E430B1F780918000806280938000D09326
:1005B0008B00C0938A0004C084B5806884BDC7BD29
:1005C000DF91CF911F91089584B5806284BDC8BD2D
:1005D000F7CF80918000806880938000D09389005D
:1005E000C0938800EDCF8091B00080688093B00008
:1005F000C093B300E5CF8091B00080628093B000DB
:10060000C093B400DDCF3FB7F8948091020490917D
:100610000304A0910404B091050426B5A89B05C06D
:100620002F3F19F00196A11DB11D3FBFBA2FA92F71
:10063000982F8827BC01CD01620F711D811D911D6E
:1006400042E0660F771F881F991F4A95D1F70895DA
:10065000089508950895AF92BF92CF92DF92EF92DE
:10066000FF920F931F93CF93DF936C017B018B015C
:10067000040F151FEB015E01AE18BF08C017D107AC
:1006800059F06991D601ED91FC910190F081E02D36
:10069000C6010995892B79F7C501DF91CF911F918B
:1006A0000F91FF90EF90DF90CF90BF90AF900895A3
:1006B000FC01538D448D252F30E0842F90E0821B68
:1006C000930B541710F0CF96089501970895FC01ED
:1006D000918D828D981761F0A28DAE0FBF2FB11D45
:1006E0005D968C91928D9F5F9F73928F90E008959D
:1006F0008FEF9FEF0895FC01918D828D981731F057
:10070000828DE80FF11D858D90E008958FEF9FEFAA
:100710000895FC01918D228D892F90E0805C9F4F80
:10072000821B91098F739927089586E094E00E94B7
:10073000890321E0892B09F420E0822F089580E0CD
:1007400090E0892B29F00E94950381110C94000000
:100750000895FC01A48DA80FB92FB11DA35ABF4F56
:100760002C91848D90E001968F739927848FA689B0
:10077000B7892C93A089B1898C91837080648C9304
:10078000938D848D981306C00288F389E02D8081B3
:100790008F7D80830895EF92FF920F931F93CF93E5
:1007A000DF93EC0181E0888F9B8D8C8D98131AC0AC
:1007B000E889F989808185FF15C09FB7F894EE8993
:1007C000FF896083E889F9898081837080648083F0
:1007D0009FBF81E090E0DF91CF911F910F91FF903B
:1007E000EF900895F62E0B8D10E00F5F1F4F0F73E3
:1007F0001127E02E8C8D8E110CC00FB607FCFACF9E
:10080000E889F989808185FFF5CFCE010E94A9038F
:10081000F1CFEB8DEC0FFD2FF11DE35AFF4FF0826E
:100820009FB7F8940B8FEA89FB8980818062CFCFD4
:100830000F931F93CF93DF938C01D0E0C0E0F801BA
:10084000EC0FFD1F6491662341F086E094E00E9466
:10085000CB03892B11F02196F2CFCE01DF91CF91FE
:100860001F910F910895682F86E094E00C94CB03BC
:10087000CF93DF93EC01888D8823B9F0AA89BB89D7
:10088000E889F9898C9185FD03C0808186FD0DC0C2
:100890000FB607FCF7CF8C9185FFF2CF808185FFE3
:1008A000EDCFCE010E94A903E9CFDF91CF9108954A
:1008B00020913403260F3327331F21323105ECF406
:1008C00020915803FC0190E080E0243069F082E040
:1008D0000895A09134032191AC014C5E5C4FA40FAC
:1008E000B52FB11D2C930196861798F38091340390
:1008F000680F6093340380E0089581E008951092BA
:10090000580381E080935A031092590361E082E119
:100910000E94470261E083E10E944702E9EBF0E0B8
:1009200080818E7F808380818D7F808388E4809327
:10093000B80085E48093BC000895CF93DF9391E0E5
:10094000909313038823B9F0C091B800D091BA00F6
:100950008091BC008A7B8093BC0060E082E10E94B1
:10096000470260E083E10E9447020E947F04D09327
:10097000BA00C093B800DF91CF9108950895E09137
:10098000850380918403E81730F4F0E0E251FD4FD5
:10099000808190E008958FEF9FEF089590918503F7
:1009A000809184032FEF3FEF981748F4E92FF0E090
:1009B000E251FD4F208130E09F5F90938503C90194
:1009C00008958091840390918503891B990B089564
:1009D000CF92DF92EF92FF920F931F93CF93DF930B
:1009E0007C01CB018A012091ED02222389F0EB01E9
:1009F0006B01C40ED51ECC15DD0569F06991D701D8
:100A0000ED91FC910190F081E02DC7010995F3CFA4
:100A1000642F0E945804C801DF91CF911F910F915C
:100A2000FF90EF90DF90CF900895CF93DF931F92C8
:100A3000CDB7DEB769832091ED022223F9F0209132
:100A40008203203258F021E030E0FC01338322831E
:100A500090E080E00F90DF91CF9108958091830323
:100A6000E82FF0E0E353FD4F998190838F5F8093EF
:100A700083038093820381E090E0ECCF61E0CE01BC
:100A800001960E945804F7CFCF92DF92EF92FF9227
:100A90000F931F93CF93DF93D091820381E0D132E4
:100AA00008F09CC0C091CC020E9403036B017C0142
:100AB0008091580381116CC082E08093580381E0DB
:100AC00080935A038FEF8093570310927C03D09347
:100AD0007B03ADECB2E0EBE5F3E080E0D8138DC032
:100AE00010927D0380917D03CC0FC82BC0937D03B2
:100AF00080915903813009F084C0109259030E94FB
:100B000003036B017C0180917D038093BB00809186
:100B10000F0390911003A0911103B0911203892B40
:100B20008A2B8B2BA1F00E94030300910F031091DD
:100B3000100320911103309112036C197D098E0965
:100B40009F09061717072807390708F442C0809144
:100B5000BC0083FDD8CF85EC8093BC000E940303CA
:100B60006B017C0180915803823009F44CC0809164
:100B700057038F3F09F469C080915703803209F40D
:100B800066C080915703803309F463C084E026C0B7
:100B900080910F0390911003A0911103B091120363
:100BA000892B8A2B8B2B09F483CF0E94030300919E
:100BB0000F031091100320911103309112036C194F
:100BC0007D098E099F09061717072807390708F0BE
:100BD0006FCF80910E030E949D0485E010928303E5
:100BE000109282031092ED02DF91CF911F910F912D
:100BF000FF90EF90DF90CF9008959D9191938F5F3C
:100C00006DCF85EEA9CF80910F0390911003A09135
:100C10001103B0911203892B8A2B8B2B09F4A2CFDD
:100C20000E94030300910F03109110032091110300
:100C3000309112036C197D098E099F090617170759
:100C40002807390708F08ECFC4CF80E0C7CF82E0F5
:100C5000C5CF83E0C3CF90E080E008958F929F924C
:100C6000AF92BF92CF92DF92EF92FF920F931F93BA
:100C7000CF93DF936A014801E70191E09093ED0281
:100C80008093CC021092830310928203E881F98151
:100C90000190F081E02DC70109958C0C9D1CC814B2
:100CA000D90459F0E881F9810190F081E02DD60155
:100CB0006D916D01CE010995F2CFCE010E944405E0
:100CC00090E080E0DF91CF911F910F91FF90EF9026
:100CD000DF90CF90BF90AF909F908F900895EF924C
:100CE000FF920F931F93CF93DF9300D0CDB7DEB762
:100CF000FC01EF5BFE4F70813496E080F1804A8307
:100D0000598302E010E020E030E0AE014F5F5F4F1A
:100D1000872F0E942E06892B51F08CEE0F900F909A
:100D2000DF91CF911F910F91FF90EF90089580E098
:100D3000F5CFEF92FF920F931F93CF93DF931F9204
:100D4000CDB7DEB7FC01EF5BFE4F70813496E080DB
:100D5000F180498301E010E020E030E0AE014F5F18
:100D60005F4F872F0E942E06892B49F08CEE0F9043
:100D7000DF91CF911F910F91FF90EF90089580E048
:100D8000F6CF3F924F925F926F927F928F929F9297
:100D9000AF92BF92CF92DF92EF92FF920F931F9389
:100DA000CF93DF93CDB7DEB72C970FB6F894DEBFA5
:100DB0000FBECDBF4B0130E020E0312CAE014F5FC4
:100DC0005F4F3A01FC01EB5BFE4FFE83ED83AC010C
:100DD0004F5B5E4F58874F83B297FA87E98740523F
:100DE00051095C874B872C015BED451A5EEF550A74
:100DF0005C01E8EDAE1AEEEFBE0AF401E20FF31F5C
:100E00000081002309F47CC031107AC069014FEFE2
:100E1000C41AD40AD401AC0DBD1D6C910F3F09F06A
:100E200047C0690152E0C50ED11CD401AC0DBD1DF7
:100E30008C916130C1F040F0623011F1633061F1AA
:100E4000ECEF3E2E9601D9CF690194E0C90ED11C7A
:100E5000238190E0982F8827820F911DEB85FC85D8
:100E600091838083EFCF690144E0C40ED11C2381BC
:100E700090E0982F8827820F911DE985FA85F0CFA1
:100E8000690144E0C40ED11C238190E0982F88278B
:100E9000820F911DF201E4CF690144E0C40ED11C20
:100EA000238190E0982F8827820F911DF501D8CFDC
:100EB000053030F62E5F3F4FD401A20FB31FF30170
:100EC000C02ED12CCF01861997098C159D051CF4D5
:100ED0008D918193F7CFC20ED31EED81FE81E0800C
:100EE000F18010E030E020E0A301EF81F8858081FF
:100EF0000E942E06892B09F4A5CF7CEE372EA2CFB7
:100F0000832D2C960FB6F894DEBF0FBECDBFDF91B8
:100F1000CF911F910F91FF90EF90DF90CF90BF90F6
:100F2000AF909F908F907F906F905F904F903F9089
:100F30000895EF92FF920F931F93AB01FC01EB5BBF
:100F4000FE4FE080F1808F5B9E4F06E010E020E0D6
:100F500030E060EBFC0180810E942E06892B31F08D
:100F60008CEE1F910F91FF90EF90089580E0F9CFE4
:100F70004F925F926F927F928F929F92AF92BF92A9
:100F8000CF92DF92EF92FF92CF93DF9300D000D009
:100F900000D0CDB7DEB74115510561057105B1F03F
:100FA0006A017B019E838D83FC01478C50A061A068
:100FB00072A020E030E0A901C301B2010E94CE304E
:100FC000811119C0ED81FE8112A611A626960FB6D9
:100FD000F894DEBF0FBECDBFDF91CF91FF90EF90B1
:100FE000DF90CF90BF90AF909F908F907F906F9049
:100FF0005F904F900895C701B6010E94D3302FE64D
:1010000032E143E85AE30E9434314B015C01ED8147
:10101000FE81C388D488E588F688A7019601C301BC
:10102000B2010E9475322B013C01ED81FE8127A99E
:1010300030AD41AD52AD0E947532ED81FE8123A5E8
:1010400034A545A556A50E94343169837A838B83E4
:101050009C83ED81FE81FF96608171818281938105
:101060009B01AC010E9476329B01AC01C701B60125
:101070000E947532ED81FE81ED5BFF4F2081318151
:10108000428153810E947632ED81FE8127A530A9ED
:1010900041A952A950580E943431A50194010E94DF
:1010A000E2326B017C0120E030E040E450EC0E9431
:1010B000CE3087FD8EC020E030E040E450E4C70130
:1010C000B6010E948A3318160CF48AC0ED81FE81A5
:1010D00023A934A945A956A9C301B2010E943431FC
:1010E000A50194010E9434314B015C0120E030E005
:1010F00040EA51EC0E94CE3087FD78C020E030E01D
:1011000040EA51E4C501B4010E948A3318160CF478
:1011100074C029813A814B815C81C501B4010E9470
:101120007632A70196010E9476326B017C0120E0A5
:1011300030E040E252EC0E94CE3087FD65C020E0F6
:1011400030E040E252E4C701B6010E948A3318162B
:101150000CF461C0ED81FE8123AD34AD45AD56ADDB
:10116000C701B6010E9476326B017C0120E030E0BD
:10117000A9010E94CE3087FD55C020E030E04FE746
:1011800053E4C701B6010E948A3318160CF44EC00E
:10119000ED81FE81C3AED4AEE5AEF6AEC701B601B9
:1011A0000E945433ED81FE8172A761A76F3F7105E4
:1011B00019F014F06FEF70E077FF02C070E060E0AC
:1011C000ED81FE8172A761A747AA50AE61AE72AEF3
:1011D000FDCEC12CD12C60E4E62E60ECF62E76CF4D
:1011E000C12CD12C50E4E52EFE2C70CF812C912CFB
:1011F00040EAA42E41ECB42E8CCF812C912C30EA05
:10120000A32E31E4B32E85CFC12CD12C20E2E22EC7
:1012100022ECF22E9FCFC12CD12C90E2E92E92E449
:10122000F92E98CFC12CD12C7601B2CFC12CD12C64
:101230008FE7E82E83E4F82EABCF0F931F93CF9365
:10124000DF938C01EB01FC0180811C161D0694F0DC
:1012500070E060E0209771F00E94A6026627772771
:101260006C1B7D0BF8018181DF91CF911F910F9154
:101270000C94A6020E94A60270E060E0F3CFCF9229
:10128000DF92EF92FF920F931F93CF93DF93FC01B6
:10129000C3A1D4A1C5A0D6A007A110A5CC15DD057A
:1012A000B1F521A532A5201B310B12161306ECF463
:1012B0002B30310514F02AE030E0200F311F30A729
:1012C00027A387A190A5C89FB001C99F700DD89F83
:1012D000700D1124CF01DF91CF911F910F91FF90DD
:1012E000EF90DF90CF900C941D092115310549F343
:1012F000263F8FEF380744F0319521953109021BC5
:10130000130B10A707A3DDCF2AE030E0F8CF7C0154
:1013100020E030E040EA50E4638974898589968949
:101320000E94CE3087FF0CC00A3011054CF4C09FDC
:10133000B001C19F700DD09F700D1124C701CBCF9C
:101340000B301105B4F00A501109F70110A707A3DB
:1013500087A190A597FF02C010A617A2F70187A149
:1013600090A5C89EB001C99E700DD89E700D112425
:10137000E5CF01501109E9CFCF93DF93EC011F8E28
:1013800018A219A21AA21CA21BA270E060E00E947F
:101390001D0918A61FA21BAE1CAE1DAE1EAE1AA6BE
:1013A00019A61FAA18AE19AE1AAEDF91CF910895F3
:1013B000CF92DF92EF92FF920F931F93CF93DF9321
:1013C000EC01F8946B857C858D859E850F81188551
:1013D00029853A857894611571058105910511F18A
:1013E0000115110521053105E9F0CF84D888E98878
:1013F000FA880C151D052E053F05A1F00F87188BE7
:10140000298B3A8B613422E472072FE08207910521
:1014100008F441C080E090E0A0E8BFEB8B8F9C8F88
:10142000AD8FBE8FDE01DF964D915D916D917C9108
:101430001397FE01ED5BFF4F4083518362837383FB
:101440004B895C896D897E894D935D936D937C9307
:101450001397F894CF80D884E984FA84789420E0B4
:1014600030E0A9016B8D7C8D8D8D9E8D0E94CE30DC
:1014700087FF26C08F89988DA98DBA8D8B8B9C8B09
:10148000AD8BBE8BDF91CF911F910F91FF90EF90AD
:10149000DF90CF9008950E94D33020E030E040EA02
:1014A00051E40E9434319B01AC0160EC71EE84E6A2
:1014B0009CE40E94E2326B8F7C8F8D8F9E8FB2CF27
:1014C0000E9403036C197D098E099F0961347244DF
:1014D0008F40910578F68B8D9C8DAD8DBE8DCECFD6
:1014E0008F929F92AF92BF92CF92DF92EF92FF9234
:1014F000CF93DF93411551056105710559F16A01DB
:101500007B01EC01F8946B817C818D819E811B8233
:101510001C821D821E8278940E94D33020E030E02D
:1015200040EA51E40E94E23220E030E64AE657E425
:101530000E9434314B015C01C701B6010E94D330D7
:101540009B01AC01C501B4010E94E2326F8B788F20
:10155000898F9A8FDF91CF91FF90EF90DF90CF909E
:10156000BF90AF909F908F900895CF92DF92EF92AF
:10157000FF920F931F93CF93DF93EC010E9403031D
:101580000F81188529853A85012B022B032BB1F099
:101590000F81188529853A856B017C01C01AD10A13
:1015A000E20AF30A97018601003147E21407210598
:1015B000310598F00B871C872D873E876F837887CE
:1015C00089879A878B819C81AD81BE810196A11DFF
:1015D000B11D8B839C83AD83BE83DF91CF911F911F
:1015E0000F91FF90EF90DF90CF90089584EA96E0FE
:1015F0000C94B50A8DE596E00C94B50ACF93DF9371
:10160000EC0161E088810E94750261E089810E949D
:10161000750262E08A81DF91CF910C947502FC0122
:1016200001900020E9F73197AF01481B590BBC012D
:1016300086E094E00C942B03CF93DF930E94180470
:10164000EC018BE392E00E940F0B8C0F9D1FDF914A
:10165000CF9108958F929F92AF92BF920F931F9355
:10166000CF93DF93CDB7DEB7A1970FB6F894DEBF67
:101670000FBECDBF19A2423008F44AE08E010F5DC3
:101680001F4F842E912CB12CA12CA50194010E94F6
:101690000232E62FB901CA01EA30F4F4E05DD80164
:1016A000EE938D01232B242B252B79F790E080E0FE
:1016B000109719F0CD010E940F0BA1960FB6F89468
:1016C000DEBF0FBECDBFDF91CF911F910F91BF90B5
:1016D000AF909F908F900895E95CE1CFCF92DF9219
:1016E000EF92FF92CF93DF936C01990FEE08FF0802
:1016F000F7FE1DC08DE20E943304EC0166277727B8
:10170000CB016C197D098E099F094AE00E942A0BC2
:10171000C80FD91F8BE392E00E940F0B8C0F9D1F07
:10172000DF91CF91FF90EF90DF90CF9008954AE046
:10173000C701B6010E942A0BEC01ECCFCF92DF92D9
:10174000EF92FF92CF93DF936C01990FEE08FF08A1
:10175000F7FE17C08DE20E943304EC01662777275D
:10176000CB016C197D098E099F094AE00E942A0B62
:101770008C0F9D1FDF91CF91FF90EF90DF90CF9066
:1017800008954AE0C701B601DF91CF91FF90EF9035
:10179000DF90CF900C942A0B4F925F926F927F92C2
:1017A0008F929F92AF92BF92CF92DF92EF92FF9271
:1017B0000F931F93CF936B017C01742EAC019B019F
:1017C0000E948F33882399F08EE392E0CF911F918E
:1017D0000F91FF90EF90DF90CF90BF90AF909F90D0
:1017E0008F907F906F905F904F900C940F0B4601FD
:1017F0005701E894B7F82FEF3FEF4FE75FE7C501D8
:10180000B4010E948F3381110DC02FEF3FEF4FE7DE
:101810005FE7C501B4010E94CE3018161CF482E4C3
:1018200092E0D4CF2FEF3FEF4FE75FE4C701B6015F
:101830000E948A3318161CF486E492E0C7CF2FEF7B
:101840003FEF4FE75FECC701B6010E94CE3087FD46
:10185000F3CF20E030E0A901C701B6010E94CE30ED
:1018600010E000E087FF08C08DE20E9433048C0185
:10187000F7FAF094F7F8F094C0E060E070E080E0F0
:101880009FE37C1641F020E030E040E251E40E940A
:10189000E232CF5FF6CFA70196010E9476322B018C
:1018A0003C010E945B334B015C014AE00E942A0B21
:1018B0007C01E00EF11ECC23B1F1C501B4010E9400
:1018C000D3309B01AC01C301B2010E9475324B01C0
:1018D0005C018EE20E943304E80EF91EC15018F13B
:1018E00020E030E040E251E4C501B4010E9434310F
:1018F0002B013C010E945B334B01B12CA12C4AE02F
:10190000C501B4010E942A0BE80EF91EC501B401FD
:101910000E94D3309B01AC01C301B2010E94753219
:101920004B015C01DBCFC701CF911F910F91FF905D
:10193000EF90DF90CF90BF90AF909F908F907F906F
:101940006F905F904F9008954F925F926F927F9249
:101950008F929F92AF92BF92CF92DF92EF92FF92BF
:101960000F931F93CF93DF93D82F6A01480181E033
:101970008093ED02D093CC021092830310928203E5
:10198000D701ED91FC910190F081E02DC7010995FF
:10199000C7010E9444050E9403032B013C01809172
:1019A0005803811166C0C82D81E08093580380934D
:1019B0005A039FEF9093570310927C03980D9093D6
:1019C0007B0380937D0380917D03DD0FD82BD09323
:1019D0007D0380915903813009F086C0109259032C
:1019E0000E9403032B013C0180917D038093BB0087
:1019F00080910F0390911003A0911103B0911203F5
:101A0000892B8A2B8B2BA1F00E94030300910F03DB
:101A1000109110032091110330911203641975097C
:101A200086099709061717072807390708F442C0DF
:101A30008091BC0083FDD8CF85EC8093BC000E94D0
:101A400003032B013C0180915803813009F44EC0FF
:101A500080917C038C1710F4C0917C03EBE5F3E0DC
:101A6000AEEEB2E080E08C1751F191919D938F5FC3
:101A7000FACF80910F0390911003A0911103B091C0
:101A80001203892B8A2B8B2B09F489CF0E94030325
:101A900000910F0310911003209111033091120354
:101AA0006419750986099709061717072807390762
:101AB00008F075CF80910E030E949D04C0E0109243
:101AC0008503C09384038C0C9D1CC814D90481F138
:101AD000D701ED91FC910284F385E02DC7010995B2
:101AE000F60181936F01F1CF85EEA7CF80910F03AF
:101AF00090911003A0911103B0911203892B8A2BAE
:101B00008B2B09F4A0CF0E94030300910F031091C7
:101B1000100320911103309112036419750986098D
:101B20009709061717072807390708F08CCFC2CF87
:101B300090E080E0DF91CF911F910F91FF90EF90A7
:101B4000DF90CF90BF90AF909F908F907F906F90DD
:101B50005F904F9008952F923F924F925F926F92B5
:101B60007F928F929F92AF92BF92CF92DF92EF922D
:101B7000FF920F931F93CF93DF93CDB7DEB72F97CD
:101B80000FB6F894DEBF0FBECDBF9C878B876D87E5
:101B90005F874E873901170128012F8238864986D1
:101BA0005A8610E000E0EE24E394F12C0A151B05A0
:101BB00009F461C09E01295F3F4FB201A1018E85EA
:101BC0009F850E9458014F81588569857A854F3FCE
:101BD0002FEF52076207720709F49CC0DB01CA01AC
:101BE0008C549F4FAF4FBF4FE6E0B695A7959795A2
:101BF0008795EA95D1F7880F991F880F991F895FFC
:101C00009D4F21E0FC0180819181A281B381892BCC
:101C10008A2B8B2B09F420E0FD85F2137BC01A017F
:101C20002B0133E056944794379427943A95D1F793
:101C3000DB01CA0187709927AA27BB2726E0221655
:101C400031044104510468F4F301E20DF31D9701DE
:101C500002C0220F331F8A95E2F7C9019081892BB8
:101C600080831A012B013FEF231A330A430A530AD8
:101C70000F5F1F4F9BCFB12CF40120823182428233
:101C80005382B1102DC0B3018B859C850E949907AA
:101C9000B82E811125C0EB85FC85EB5BFE4FE08003
:101CA000F180EB85FC85EF5BFE4F06E010E020E065
:101CB00030E0AE014F5F5F4F60EB80810E94A40C6B
:101CC000892B11F09CEEB92EF301DE011196C301B0
:101CD000069631912D91321320C0E817F907C9F704
:101CE0008B2D2F960FB6F894DEBF0FBECDBFDF91C0
:101CF000CF911F910F91FF90EF90DF90CF90BF9009
:101D0000AF909F908F907F906F905F904F903F909B
:101D10002F9008952EECB22EAFCF8EECB82EE0CFE0
:101D2000CF92DF92EF92FF920F931F93CF93DF93A7
:101D300000D000D0CDB7DEB76A01FC01EB5BFE4FEF
:101D4000E080F1808F5B9E4F04E010E020E030E007
:101D5000AE014F5F5F4FFC0180810E94A40C49815E
:101D60005A8154274527542770E060E0762F652F6D
:101D7000542F44272B81422B762F652F542F442735
:101D80002C81422BF6014083518362837383892B1C
:101D900071F480E00F900F900F900F90DF91CF9132
:101DA0001F910F91FF90EF90DF90CF9008958CEEF0
:101DB000F1CFCF92DF92EF92FF920F931F93CF93C9
:101DC000DF9300D0CDB7DEB76A01FC01EB5BFE4FBD
:101DD000E080F1808F5B9E4F02E010E020E030E079
:101DE000AE014F5F5F4FFC0180810E94A40C2981EE
:101DF0003A81322723273227F60131832083892B2A
:101E000061F480E00F900F90DF91CF911F910F91BF
:101E1000FF90EF90DF90CF9008958CEEF3CF0F936B
:101E20001F93CF93DF9300D0CDB7DEB7FC01E25311
:101E3000FF4F208121502330B8F48C01AE014F5F59
:101E40005F4F6EE00E94D90E811107C0AE014F5F57
:101E50005F4F6CE0C8010E94D90E0F900F90DF9188
:101E6000CF911F910F91089580E0F7CFEF92FF92ED
:101E70000F931F93CF93DF9300D0CDB7DEB78C01C4
:101E80007A016330710509F449C090F4613071053D
:101E900009F162307105E1F1F80181A992A9A3A9C4
:101EA000B4A9F70180839183A283B38380E049C002
:101EB0006630710588F7AE014F5F5F4F64E60E94A0
:101EC000D90E81113EC0298180E0922F990FB0E098
:101ED000A0E0E7CFAE014F5F5F4F64E40E94D90EF0
:101EE00081112FC0998120E0392F330FA90170E0B3
:101EF00060E0232BD1F0F701408351836283738329
:101F0000F80145AB56AB67AB70AF91E096A319C033
:101F1000FC0181AD92ADA3ADB4ADC3CFFC01FD9684
:101F200080819181A281B381BCCFF80145A956A9D6
:101F300067A970ADF7014083518362837383F80111
:101F400016A20F900F90DF91CF911F910F91FF90EC
:101F5000EF9008952F923F924F925F926F927F92EF
:101F60008F929F92AF92BF92CF92DF92EF92FF92A9
:101F70000F931F93CF93DF93CDB7DEB7EC970FB6D8
:101F8000F894DEBF0FBECDBF6C015B01FC01EB5BC3
:101F9000FE4FE080F18034970CE010E020E030E06C
:101FA000AE01465E5F4F64E180810E94A40C892BE4
:101FB00009F06FC2D50156961C925697F501108212
:101FC0001182128213822CA130E0322F22276DA1C0
:101FD000260F311D14961D921D921D921C9217976B
:101FE000E9A1F0E0FE2FEE27FF0F2F01712C612CED
:101FF0001C964D925D926D927C921F978BA190E002
:10200000982F8827990FAC0170E060E050964D93AF
:102010005D936D937C9353970C8D10E0102F0027E8
:102020008D8D7801E80EF11CFCAEEBAE5596FC925E
:10203000EE9254979A8CD601A75CBE4F4D915C915D
:1020400011975B978C90483E03E05007E1F1249F85
:10205000C001259F900D349F900D11248C509E4FF0
:1020600068EE73E00E9494339B01D6015D96ED907B
:10207000FD900D911C9190975A964C91442319F123
:102080006BAD7CAD6E9DA0016F9D500D7E9D500D82
:102090001124452F5527E417F50741F420EE3AE8BF
:1020A000882009F407C128EB32E210C0DF010E944A
:1020B000663283017F01E41AF50A01091109A801BA
:1020C00097010E940232882009F4F4C0C901969554
:1020D000879596958795D50119969C938E93189719
:1020E0002295220F220F207C57962C931FA61EA606
:1020F000892D90E07C0173E0F594E7947A95E1F7FF
:10210000FAAEE9AE09AD0F70902E09F4D8C089ADD2
:102110008D7011E018AB853029F084EF800F84308A
:1021200008F018AA41E06FEFC6010E9499068111DC
:1021300007C0AE01425D5F4F66EBC6010E94D90E3B
:102140009EA520E0392F330F790110E000E0E9AAC5
:10215000FAAA0BAB1CAB811105C040E06FEFC601C2
:102160000E949906F601EE5CFE4FE9A8FAA80BA9B9
:102170001CA9E082F1820283138381117FC1D60101
:1021800095968C909597882009F4A5C0F501E48474
:10219000F584068517855A968C9120E030E0A901D8
:1021A000882399F0A489B589F601258D368D478D50
:1021B00050A10E9424329B01AC0120583F4F4F4F49
:1021C0005F4F232F342F452F55272E0D3F1D401FC6
:1021D000511FA8EEB3E00E94243270588F4F9F4FDA
:1021E000BC0188279927F601E65DFE4F672B682B17
:1021F000692B09F067C08EEA97E8AFE8B2E0808308
:102200009183A283B3831EEAE12E17E8F12E0FE833
:1022100012E0EDAAFEAA0FAB18AFD5011B961C92D7
:102220001E921A97AE01465D5F4F70E060E0C601F6
:102230000E94360F4AA55BA56CA57DA541155105E9
:102240006105710559F0FF24F3940DA91EA92FA96A
:1022500038AD401751076207730708F0F12C212CA5
:10226000312C81110FC1D60197963C903320A9F1F2
:10227000AE014A5D5F4F62E070E0C6010E94360F1A
:102280004EA15FA168A579A54115510561057105AC
:1022900059F0EE24E39409A91AA92BA93CA94017E7
:1022A00051076207730708F0E12C8823B9F0212C4D
:1022B00090E046C0F50131872087178A17CF01E0EB
:1022C00008AB30CF10821182128213821DAA1EAA7F
:1022D0001FAA18AEA2CFF12CC6CFE12CD60198963A
:1022E0002C90222009F4AAC00BAD1CAD01151105DC
:1022F00009F4A0C0962D852D742D6627980150E015
:1023000040E00E94023229013A01AE014F5F5F4F67
:1023100063E070E0C6010E94360F49815A816B81EB
:102320007C81411551056105710531F091E044163C
:1023300055066606770608F090E0882309F47FC00A
:10234000D5011B961C921E921A9780E0811002C044
:10235000FF24F394F60136A1F3A6F4E09F1609F4E6
:10236000B2C021E0311120E0D6019C962C933110AF
:1023700002C0EE24E394F601E5A6211001C091E02D
:10238000D6019E969C93F501808FFAE4CF0ED11C66
:1023900099E1F601DE01119601900D929A95E1F70F
:1023A000F501A085B18597890285138544845584FC
:1023B0006684778440895189628973892489358943
:1023C00084809580A680B7808D829E82AF82B886F9
:1023D000BA87A9871C870B874D865E866F86788AA9
:1023E000498B5A8B6B8B7C8B3E8B2D8B988F898F77
:1023F00089E1FE013196D60101900D928A95E1F7AF
:1024000080E0EC960FB6F894DEBF0FBECDBFDF9133
:10241000CF911F910F91FF90EF90DF90CF90BF90E1
:10242000AF909F908F907F906F905F904F903F9074
:102430002F900895412C512C320167CF90E018A9BC
:102440008FEF113009F482CF890D8330F0F026E050
:10245000921609F139E09316F1F089AD8D7088304C
:10246000B1F041E0E41699F054E0951621F1913075
:10247000E9F0F416E9F09F2DEF2C62CF212C312CDE
:10248000812CF12C90E0E12C5BCF85E05FCF83E0E5
:102490005DCF8CEEB6CF84E081105CCFD6019696EE
:1024A0003C91969721E09B962C935BCF82E0F4CFF2
:1024B000E92E81E0F1CF82E081104CCF81E0F6017E
:1024C00083A7E12C82E021E04FCF8F929F92AF92C1
:1024D000BF92CF92DF92EF92FF920F931F93CF9311
:1024E000DF9300D0CDB7DEB7962ED42E822EFC011E
:1024F000EF5BFE4FC0805C012BEBA21A2EEFB20AFD
:10250000F501E080F18001E010E020E030E0AE0174
:102510004E5F5F4F8C2D0E94A40C892BA9F42A8159
:102520002D2128292A83F501E080F180298301E00B
:1025300010E020E030E0AE014F5F5F4F692D8C2D41
:102540000E942E06892B81F08CEE0F900F90DF9168
:10255000CF911F910F91FF90EF90DF90CF90BF90A0
:10256000AF909F908F90089580E0EFCFEF92FF9211
:102570000F931F93FC01EB5BFE4FE080F1808F5BBC
:102580009E4F01E010E020E030E0FC0180810E94DD
:10259000A40C892B31F08CEE1F910F91FF90EF90DE
:1025A000089580E0F9CF9F92AF92BF92CF92DF92D1
:1025B000EF92FF920F931F93CF93DF931F92CDB7AC
:1025C000DEB77C015B016A01922E198241E06FEF58
:1025D0000E949906182F40E060E0C7010E9499060A
:1025E000182B40E06FEFC7010E949906182B992025
:1025F00031F0A5016BECC7010E94B612182B002325
:1026000041F0AE014F5F5F4F6EEEC7010E94B61200
:10261000182B41E06FEFC7010E949906182B41E08B
:1026200060E0C7010E949906182B40E06FEFC701D8
:102630000E94990699819F7EF6019083812B0F90CD
:10264000DF91CF911F910F91FF90EF90DF90CF908E
:10265000BF90AF909F900895EF92FF920F931F93BA
:10266000CF93DF931F92CDB7DEB77C0100E041E04E
:102670006BE0C7010E949906182F40E06BE0C7018C
:102680000E949906182BAE014F5F5F4F63E1C701AF
:102690000E94B612812B0F5F9981977061F0033011
:1026A00061F0882321F30F90DF91CF911F910F915B
:1026B000FF90EF9008950330B1F784EFF4CF0F93BC
:1026C0001F93CF93DF931F92CDB7DEB78A01AE0180
:1026D0004F5F5F4F613081F060E50E94B61281115B
:1026E00005C099819F5F990FF80190830F90DF914A
:1026F000CF911F910F91089560E7EFCFCF92DF92B6
:10270000EF92FF921F93CF93DF931F92CDB7DEB767
:102710007C0140E063E80E949906182F811117C0E0
:10272000D12CC12CAE014F5F5F4F63E8C7010E94FF
:10273000B612182F898181110AC0111108C08FEFBC
:10274000C81AD80A88ECC816D10461F719EF41E01D
:1027500063E8C7010E949906812B0F90DF91CF910A
:102760001F91FF90EF90DF90CF9008950F931F93EC
:10277000CF93DF931F92CDB7DEB78B01FC01E253FD
:10278000FF4F2081AE014F5F5F4F2430A1F463E122
:102790000E94B6129981292F2770987109F08AEF4B
:1027A000243089F491E0F80190830F90DF91CF916C
:1027B0001F910F91089564E10E94B6128111F5CF27
:1027C000998190FDEFCFF8011082EFCFEF92FF9249
:1027D0000F931F93CF93DF931F92CDB7DEB77C018A
:1027E000198210E000E0BE016F5F7F4FC7010E94B9
:1027F000B61381110CC09981913049F00F5F1F4FC2
:10280000083C110519F00E943001EDCF89EF0F90BF
:10281000DF91CF911F910F91FF90EF900895CF938B
:10282000DF93EC01462F416060E00E949906811120
:1028300011C0CE010E94E61381110CC0CE010E948E
:102840002C13811107C040E060E0CE01DF91CF91F1
:102850000C949906DF91CF910895CF92DF92EF9279
:10286000FF920F931F93CF93DF931F92CDB7DEB7E5
:102870008C01FC01F08841E060E80E94990641E08B
:102880006FEFC8010E94990640E060E0C8010E9415
:102890009906F801E95DFE4F408161E9C8010E9497
:1028A000990641E060E0C8010E94990640E06FEFA0
:1028B000C8010E94990640E060E8C8010E9499069C
:1028C000F1E0FF16F1F1FF1630F093E0F91609F48C
:1028D0004AC088EF0CC041E060E0C8010E94990640
:1028E00091E09983C12CD12C7601882389F00F9037
:1028F000DF91CF911F910F91FF90EF90DF90CF90DC
:102900000895AE014F5F5F4F60E0C8010E94B612AC
:10291000EFEFCE1ADE0AEE0AFE0A998190FF0AC096
:10292000811108C0F8ECCF16D104E104F10449F795
:1029300089EFDDCF98ECC916D104E104F104B9F6B2
:10294000F7CF811103C0C8010E940F0F42E060E081
:10295000C8010E9499068111CACFF801E15EFE4FBD
:1029600094E09083C4CF811103C0C8010E940F0F6F
:1029700044E0EDCFAF92BF92DF92EF92FF920F93C0
:102980001F93CF93DF93CDB7DEB769970FB6F89457
:10299000DEBF0FBECDBF8C015B017C0183EEE81A68
:1029A0008EEFF80AF701D08040EC61E0C8010E9488
:1029B000990681113CC0F801108AC8010E942D14AB
:1029C000811135C0C8010E94E613811130C083E037
:1029D000F801E15EFE4F8083BE016F5F7F4FC8014B
:1029E0000E94AA0F811123C0C8010E942C138111DB
:1029F0001EC041E06FEFC8010E949906811117C007
:102A0000A50166EBC8010E94D90E811110C040E0FB
:102A10006FEFC8010E949906811109C04D2D61E038
:102A2000C8010E949906811102C0F701D0826996FF
:102A30000FB6F894DEBF0FBECDBFDF91CF911F91CF
:102A40000F91FF90EF90DF90BF90AF9008950F939C
:102A50001F93CF93DF931F92CDB7DEB78B011982FF
:102A6000AE014F5F5F4F61E00E94B612811116C048
:102A7000998194FB332730F9F801308393FB332796
:102A800030F9328392FB332730F9318396FB2227CA
:102A900020F92383991F9927991F94830F90DF9121
:102AA000CF911F910F9108952F923F924F925F9275
:102AB0006F927F928F929F92AF92BF92CF92DF924E
:102AC000EF92FF921F93CF93DF93CDB7DEB72B9793
:102AD0000FB6F894DEBF0FBECDBF6C011A011B8686
:102AE0001F821E82623009F06EC0AE01465F5F4FEA
:102AF00060E00E945F13182F811108C0AE01455F8E
:102B00005F4F66E4C6010E94B612182FAA85B0E096
:102B100020E03FE24AE350E00E9424322B013C01D6
:102B200024EF420E21E0521E611C711CCB84D12C7B
:102B3000F12CE12C8FEFC81AD80AE80AF80A98EEAF
:102B4000892E93E0992EA12CB12CC301B201A501CD
:102B500094010E940232CA01B901A70196010E94A4
:102B6000F2316B017C01C301B20120ED37E040E09E
:102B700050E00E940232C701B601620F731F841F2A
:102B8000951FA50194010E940232F1012083318337
:102B900042835383812F2B960FB6F894DEBF0FBE6E
:102BA000CDBFDF91CF911F91FF90EF90DF90CF903D
:102BB000BF90AF909F908F907F906F905F904F905D
:102BC0003F902F900895633009F043C0AE01465FF7
:102BD0005F4F60E00E945F13182F20E030E0A901F2
:102BE0008111D3CFAE01465F5F4F60E0C6010E9406
:102BF0005F13182F811108C0AE014A5F5F4F61E576
:102C0000C6010E94D90E182FEE81FF81AA85B0E07F
:102C100020E03FE24AE350E00E9424322B013C01D5
:102C200024EF420E21E0521E611C711C6F01DD2455
:102C3000F12CE12C04C0CC0CDD1CEE1CFF1CFA9521
:102C4000D2F78FEFC81AD80AE80AF80AEE24FF2450
:102C500076CFBE016F5F7F4F0E9427158C8188233E
:102C600051F1AE01465F5F4F60E0C6010E945F1305
:102C7000182FF12CE12C81111BC0AE014A5F5F4F70
:102C800061E5C6010E94D90E182F2E813F81C9012E
:102C90009927B0E0A0E004C0880F991FAA1FBB1FAE
:102CA0003A95D2F70196A11DB11D7C01112329F09F
:102CB000D12CC12C25C0F12CE12CAE01465F5F4F19
:102CC00061E0C6010E945F13182F8111F1CFAE01A0
:102CD000485F5F4F61E7C6010E94D90E182F288513
:102CE0003985C9019927B0E0A0E004C0880F991F79
:102CF000AA1FBB1F3A95D2F70196A11DB11D6C0109
:102D0000AA85B0E020E03FE24AE350E00E9424328E
:102D10002B013C01E4EF4E0EE1E05E1E611C711CD4
:102D200088EE882E83E0982EA12CB12CC301B2012D
:102D3000A50194010E940232D601AE19BF090E947A
:102D400024320FCF4F925F926F927F92BF92CF92B9
:102D5000DF92EF92FF920F931F93CF93DF9300D0F8
:102D600000D0CDB7DEB78A01AE014F5F5F4F0E9442
:102D70005415B82E81112AC069817A818B819C817A
:102D800028EE422E23E0522E612C712CA3019201D9
:102D90000E94023269017A019B01AC01AFEFBFEFE3
:102DA0000E9424326C507E4F8F4F9F4FA30192019F
:102DB0000E9402327601DD24CC24C20ED31EE41E12
:102DC000F51EF801C082D182E282F3828B2D0F9032
:102DD0000F900F900F90DF91CF911F910F91FF9067
:102DE000EF90DF90CF90BF907F906F905F904F906B
:102DF00008955F926F927F928F929F92AF92BF924F
:102E0000CF92DF92EF92FF920F931F93CF93DF93B6
:102E1000CDB7DEB761970FB6F894DEBF0FBECDBF5A
:102E20007C018B01FC018089FB018083AE014A5F3C
:102E30005F4F68EFC7010E94D90E582E81113AC129
:102E4000AE014F5F5F4F64E0C7010E94900E582EA5
:102E5000811130C12E813F812115310569F050E08B
:102E600040E069817A818B819C810E940232F80165
:102E70002683378340875187F80186819781A08513
:102E8000B185F701868B978BA08FB18FF8011286E1
:102E9000AE014F5F5F4F60E2C7010E94D90E582E0E
:102EA000811108C189819A81009709F01AC1F7013F
:102EB000858D968DA78DB0A1F80185879687A78708
:102EC000B08BF701128EAE014F5F5F4F68E2C70112
:102ED0000E94D90E582E8111EDC089819A819F7070
:102EE0008115F8E09F0708F090514AEF489F900144
:102EF000499F300D1124C901330FAA0BBB0BF801F8
:102F0000818B928BA38BB48B5801F1E2AF0EB11C75
:102F1000470125E2820E911C380185E1680E711C83
:102F2000D12CC12CA501B601C7010E94360F582E25
:102F30008111C0C0F40181914F01F30181933F01E0
:102F4000FFEFCF1ADF0A24E0A20EB11C86E0C816FC
:102F5000D10441F7AE014F5F5F4F61E0C7010E94AE
:102F6000B612582E8111A6C08981F701E35EFE4F8B
:102F7000808387FFCAC081E0F80181AFF80181AD8D
:102F8000F701E75BFF4F808380ED97E0A0E0B0E0C2
:102F90008A879B87AC87BD871E821F821886198609
:102FA00086E39BE0A0E0B0E0F80182839383A483F2
:102FB000B583BE016F5F7F4FC7010E942715582E52
:102FC000811178C08981811107C08A81811104C073
:102FD0008B81882309F43EC0AE01465F5F4F62E0FB
:102FE000C7010E9454158111C1C089818823A9F0AD
:102FF0008A859B85AC85BD85825B9D4FAF4FBF4F5A
:10300000F8014281538164817581840F951FA61F49
:10301000B71F82839383A483B5838B81882309F4AC
:1030200077C08A859B85AC85BD858E549D4FAF4FFB
:10303000BF4F880F991FAA1FBB1FF8014281538100
:1030400064817581840F951FA61FB71F82839383A8
:10305000A483B5838C81811168C08D81882301F19F
:10306000AE01425F5F4F64E0C7010E9454158E8439
:103070009F84A888B988F6E28F0EF2E09F1EA11CFB
:10308000B11CF8014281538164817581480D591D3D
:103090006A1D7B1D4283538364837583811166C0DF
:1030A000F80182819381A481B581F701828B938B92
:1030B000A48BB58B852D61960FB6F894DEBF0FBE3D
:1030C000CDBFDF91CF911F910F91FF90EF90DF90D7
:1030D000CF90BF90AF909F908F907F906F905F90B8
:1030E000089533E0880F991F3A95E1F7B0E0A0E02A
:1030F000F80185879687A787B08BF701858F968F14
:10310000A78FB0A381E0828FDECEF80111AE36CF5B
:103110008A81882309F49ECF8A859B85AC85BD85ED
:103120008C569D4FAF4FBF4F88CFAE014A5F5F4F68
:1031300063E0C7010E9454158E809F80A884B984E3
:10314000F4E98F0EF2E09F1EA11CB11CF801428130
:10315000538164817581480D591D6A1D7B1D428311
:10316000538364837583882309F477CF582EA2CFC5
:103170002F923F924F925F926F927F928F929F9287
:10318000AF92BF92CF92DF92EF92FF920F931F9375
:10319000CF93DF93CDB7DEB769970FB6F894DEBF54
:1031A0000FBECDBF00ED17E020E030E00B871C879D
:1031B0002D873E871F86188A198A1A8A40322EE484
:1031C000520761057105E0F45CEFB52E8B2D699611
:1031D0000FB6F894DEBF0FBECDBFDF91CF911F9128
:1031E0000F91FF90EF90DF90CF90BF90AF909F90A6
:1031F0008F907F906F905F904F903F902F900895A9
:103200004E8B5F8B688F798F8C01BE016A5F7F4F19
:103210000E942715B82E8111D9CFCE88DF88E88C7F
:10322000F98C88EEC81A88E0D80AE108F1088E8186
:10323000811106C08F81811103C088858823C1F167
:10324000AE01455F5F4F62E0C8010E9454158111D5
:103250000AC18E81882391F08B859C85AD85BE85C2
:10326000825B9D4FAF4FBF4F8C159D05AE05BF05CF
:1032700008F0AACFC81AD90AEA0AFB0A8885882367
:1032800009F471C08B859C85AD85BE858E549D4F9C
:10329000AF4FBF4F880F991FAA1FBB1F8C159D05ED
:1032A000AE05BF0508F090CFC81AD90AEA0AFB0A92
:1032B00089858823D9F0AE01415F5F4F63E0C80183
:1032C0000E9454154F85588969897A894C565D4FFB
:1032D0006F4F7F4F4C155D056E057F0508F074CF6D
:1032E0008111C1C0C41AD50AE60AF70A8A85882363
:1032F00009F46CCFBE016F5F7F4FC8010E94271594
:103300008C818823E9F1AE014B5E5F4F60E0C8011C
:103310000E945F13B82E81111CC0AE014D5E5F4F3D
:1033200061E5C8010E94D90EB82E8B899C891C01C9
:103330003324512C412C04C0220C331C441C551C3A
:103340009A95D2F79FEF291A390A490A590ABB20E0
:10335000C9F08E899F89A88DB98DF801828B938BD6
:10336000A48BB58B33CF8F81882309F4A1CF8B85B4
:103370009C85AD85BE858C569D4FAF4FBF4F8ECF80
:10338000312C212CAE014B5E5F4F61E0C8010E94E1
:103390005F13B82E8111DDCFA6E2CA1AA2E0DA0AC5
:1033A000E108F108AD89B0E020E03FE24AE350E0F7
:1033B0000E9424324B015C01B4EF8B0EB1E09B1EE6
:1033C000A11CB11CA8EEB3E0A70196010E94243213
:1033D0002B013C01C501B40120ED37E040E050E095
:1033E0000E940232420E531E641E751EC501B401B6
:1033F00028EE33E040E050E00E940232C301B20107
:103400000E940232220E331E21143104E1F04101E8
:10341000B12CA12CE1E08E1A9108A108B10890E02E
:1034200080E0B501A4014427452B462B472B31F002
:10343000B694A794979487940196F3CF982F8827F2
:103440001C01280C391CA10161E7C8010E946F060C
:10345000B82E81117ECFF801E153FF4FC082D18297
:10346000E282F38276CFB82EB1CE7F928F929F9276
:10347000AF92BF92CF92DF92EF92FF920F931F9382
:10348000CF93DF931F92CDB7DEB77C015B016A015A
:10349000722E4C0183EE881A8EEF980AF401108187
:1034A000198241E061E0C7010E94990681114AC07A
:1034B00060E4C7010E940F14811144C0F1E07F1243
:1034C0001AC000E021E0AE014F5F5F4FB501C701B8
:1034D0000E94D312882389F00F90DF91CF911F9122
:1034E0000F91FF90EF90DF90CF90BF90AF909F90A3
:1034F0008F907F900895F501108242E061E0C7014E
:103500000E949906811124C060E0C7010E940F1437
:1035100081111EC0F1E07F1218C001E020E0A60179
:10352000BE016F5F7F4FC7010E94D3128111D4CFBC
:10353000412F61E0C7010E9499068111CDCFF401AE
:103540001083CACFF5011082C7CFF6011082F0CFE9
:10355000F601F9CF2F923F924F925F926F927F9236
:103560008F929F92AF92BF92CF92DF92EF92FF9293
:103570000F931F93CF93DF93CDB7DEB7AC970FB602
:10358000F894DEBF0FBECDBF1C017FA36EA359A769
:1035900048A71F82188619861A861B861C861D86D8
:1035A0001E86198A1A8AFC01E85DFE4F208131814E
:1035B000398F288FAC014F5E5E4F5B8F4A8FDA01E7
:1035C0001C922C01BEEE4B1ABEEF5B0AF201108278
:1035D0003C01FDEE6F1AFEEF7F0AD3011C92FC0145
:1035E000EC5EFE4F1082319610823196108241E0DF
:1035F0006FEF0E9499068B8B81111DC140E06FE433
:10360000C1010E9499068B8B811115C14CE26EE4B9
:10361000C1010E9499068B8B81110DC140E06FEFB3
:10362000C1010E9499068B8B811105C144EB66EBA9
:10363000C1010E9499068B8B8111FDC040E060E8BA
:10364000C1010E9499068B8B8111F5C020E0AE016B
:103650004E5E5F4FBE016F5E7F4FC1010E94351A03
:103660008B8B8111E8C01F82188619861A86F1019A
:10367000E95EFE4FFD8FEC8F9E01295F3F4F4901B0
:10368000A3E0AA2EB12CC12CD12CE12CF12C870166
:103690002A8D3B8DAF0160E0C1010E94AB0D8B8B89
:1036A0008111C9C04F81588569857A854C8B5D8BA6
:1036B0006E8B7F8BBE01615F7F4FC1010E94BA1488
:1036C0008B8B8111B8C08F859889688D798D68172B
:1036D000790708F0D3C0AA8DBB8D1C92F20110822D
:1036E000D3011C923296108231961082319610824C
:1036F0008C899D89AE89BF898C549F4FAF4FBF4F36
:10370000E6E0B695A79597958795EA95D1F7880F46
:10371000991F880F991F895F9D4FFC0180819181BE
:10372000A281B381892B8A2B8B2B91F42C893D8923
:103730004E895F892C3231054105510548F42F5FD0
:103740003F4F4F4F5F4F2C8B3D8B4E8B5F8BD0CFBE
:10375000AE01495F5F4F4A0173E0A72EB12CC12C27
:10376000D12CEC88FD880E891F892A8D3B8D4C8DCC
:103770005D8D61E0C1010E94AB0D811159C16F8166
:10378000788589859A856C8B7D8B8E8B9F8BBE010E
:10379000615F7F4FC1010E94BA14811149C18F85B9
:1037A0009889A88DB98D11E063E0462E512C612CCB
:1037B000712CA817B90720F010E0412C512C3201D0
:1037C000C12CD12C7601C39460C0D501C4010196EF
:1037D000A11DB11D8C8B9D8BAE8BBF8B86E0EAA5A6
:1037E000FBA5ACA5B02F01900D928A95E1F74E8C08
:1037F0005F8C68A079A04AA35BA36CA37DA36FC074
:103800004E8C5F8C68A079A0AEA1BFA14D925D9255
:103810006D927C921397E8A5F9A51083F101EC5FF6
:10382000FE4F81E0808332978C918083A8A5B9A553
:103830008C91319680838B89AC960FB6F894DEBF5D
:103840000FBECDBFDF91CF911F910F91FF90EF90F1
:10385000DF90CF90BF90AF909F908F907F906F90B0
:103860005F904F903F902F900895BEECBB8BE3CFBD
:10387000EEECEB8BE0CFFEECFB8BDDCF10E0412CD0
:10388000512C3201C12CD12C76018F859889288D3D
:10389000398D8217930708F0B7CF46E0EA8DFB8D8C
:1038A0009E012F5F3F4FD90101900D924A95E1F79C
:1038B000E88DF98D8E1B9F0BAC0170E060E04AA390
:1038C0005BA36CA37DA353E0452E512C612C712C7E
:1038D000B1016F5E7E4F7BA76AA72CA7032F9E01C5
:1038E000255F3F4F4C895D896E897F898C8D9D8DC9
:1038F0000E9458018B849C84AD84BE847FEF871620
:103900009706A706B70609F4B0CFD301C201019606
:10391000A11DB11D8E8F9F8FA8A3B9A3D501C4018E
:103920008C549F4FAF4FBF4F36E0B695A7959795F4
:1039300087953A95D1F7880F991F880F991F895F4E
:103940009D4F11E0FC0180819181A281B381892B7F
:103950008A2B8B2B09F410E0812F90E0B0E0A0E0DF
:103960008C159D05AE05BF0509F082CFD501C401B8
:1039700023E0B695A795979587952A95D1F7B50138
:10398000A401477055276627772786309105A10542
:10399000B10508F070CFEA8DFB8DE80FF91F21E02B
:1039A00030E001C0220F4A95EAF78081822B8083A4
:1039B0006A8D7B8DC1010E949907811139C0BE01BA
:1039C000615F7F4FC1010E94BA14811131C08F85A0
:1039D0009889288D398DAC01421B530B82179307B0
:1039E00011F450E040E070E060E0A88DB98DA817B8
:1039F000B90708F0EACE8AA19BA1ACA1BDA18417AA
:103A00009507A607B70708F0FBCEBE016F5F7F4F93
:103A1000C1010E94990796E0FE013196D101AF5E87
:103A2000BE4F01900D929A95E1F7882309F4ECCEF0
:103A30008B8B01CF9F92AF92BF92CF92DF92EF928A
:103A4000FF920F931F93CF93DF93CDB7DEB7A0976D
:103A50000FB6F894DEBF0FBECDBF6C012FEDC20EC6
:103A6000D11CF601A080F7E0F12CAF1609F4EEC0EE
:103A7000B62E8C0141E060E80E949906F82E41E0E4
:103A80006FEFC8010E949906F82A40E060E0C80183
:103A90000E949906F82A46E06FEFC8010E94990635
:103AA000F82AAE01425E5F4F63E8C8010E94B61279
:103AB000F82A4E8D446063E8C8010E949906F82AEE
:103AC00047E06FEFC8010E949906F82A41E061E8DB
:103AD000C8010E949906F82A0E943001F82A41E0A4
:103AE00060E8C8010E949906F82A21E0B212C1C01C
:103AF000A0FC02C24BE664E9C8010E949906E82EC8
:103B0000C8010E947E138E29F82AAE01465E5F4FDF
:103B100060E9C8010E94900EF82A8A8D9B8DAC8DB9
:103B2000BD8D992EE89497F897FBEE24E0F844E2D7
:103B300064E9C8010E949906F82AC8010E947E1310
:103B4000F82AAE01465E5F4F60E9C8010E94900E00
:103B5000F82A8A8D9B8D2C8D3D8D3C8B2D8B9E8BD9
:103B60008F8B45E264E9C8010E949906F82AC801D2
:103B70000E947E13F82AAE01465E5F4F60E9C801DD
:103B80000E94900EF82A8C8D9D8D988F898F40E031
:103B900061E8C8010E949906F82A46E06FEFC80163
:103BA0000E949906F82AAE01425E5F4F63E8C801A1
:103BB0000E94B612F82A4E8D4B7F63E8C8010E941E
:103BC0009906F82A41E06FEFC8010E949906F82A89
:103BD00041E060E0C8010E949906F82A40E06FEFDA
:103BE000C8010E949906F82A40E060E8C8010E94D6
:103BF0009906F82A59F5F1E0BF1699F0A1FC23C007
:103C0000F801E052FF4F8F8D8083319688A1808329
:103C1000BE016F5F7F4FC8018E519F4F0E94D4330A
:103C200012C0A0FC10C0F801EE5FFE4F90823196EA
:103C3000E082DE0154967496035E1E4F8D9181934F
:103C40000E171F07D9F7BA28F601B0828F2DA0965C
:103C50000FB6F894DEBF0FBECDBFDF91CF911F919D
:103C60000F91FF90EF90DF90CF90BF90AF909F901B
:103C70000895A1FC41C142E064E9C8010E9499068F
:103C8000E82EC8010E947E138E29F82AAE01415EFB
:103C90005F4F60E9C8010E94B612F82A4BE764E959
:103CA000C8010E949906F82AC8010E947E13F82ACA
:103CB000AE01405E5F4F60E9C8010E94B612F82A6B
:103CC00047E764E9C8010E949906F82AC8010E94E2
:103CD0007E13F82AAE01465E5F4F60E9C8010E947C
:103CE000900EF82A4A8D5B8D6C8D7D8DDB01CA01AB
:103CF00029E1B695A795979587952A95D1F7898358
:103D0000DB01CA0132E1B695A795979587953A955B
:103D1000D1F78F778A83DB01CA01EBE0B695A795CF
:103D200097958795EA95D1F78F778B83DB01CA0149
:103D3000F4E0B695A79597958795FA95D1F78F7783
:103D40008C83440F440F440F48774E8F48E764E953
:103D5000C8010E949906F82AC8010E947E13F82A19
:103D6000AE01465E5F4F60E9C8010E94900EF82ADE
:103D70008A8D9B8DAC8DBD8DAC01BD012DE17695FD
:103D80006795579547952A95D1F72E8D240F2D834A
:103D9000AC01BD0136E176956795579547953A9503
:103DA000D1F74F774E83AC01BD01EFE07695679573
:103DB00057954795EA95D1F74F774F83292F2F775E
:103DC0002887AC01BD0176956795579547954F7744
:103DD0004987982F9295990F990F90749E8F49E774
:103DE00064E9C8010E949906F82AC8010E947E135E
:103DF000F82AAE01465E5F4F60E9C8010E94900E4E
:103E0000F82A8A8D9B8DAC8DBD8DAC01BD012AE158
:103E100076956795579547952A95D1F72E8D240F5E
:103E20002A87AC01BD0133E1769567955795479593
:103E30003A95D1F74F774B87AC01BD01ECE0769511
:103E4000679557954795EA95D1F74F774C87AC0121
:103E5000BD01F5E07695679557954795FA95D1F7A9
:103E60004F774D87982F990F990F9C779E8F4AE730
:103E700064E9C8010E949906F82AC8010E947E13CD
:103E8000F82AAE01465E5F4F60E9C8010E94900EBD
:103E9000F82A8A8D9B8DAC8DBD8DAC01BD012EE1C4
:103EA00076956795579547952A95D1F72E8D240FCE
:103EB0002E87AC01BD0137E17695679557954795FB
:103EC0003A95D1F74F774F872A2F2F77288BAC0160
:103ED000BD01E9E07695679557954795EA95D1F745
:103EE0004F77498BF2E0B695A79597958795FA9508
:103EF000D1F78F778A8B1B8AE12C912C48CE85EDE8
:103F00008093BC0080910F0390911003A091110346
:103F1000B09112030796A11DB11D23E0B695A79598
:103F2000979587952A95D1F72091BC0024FD03C071
:103F300010925803089540910F035091100360911F
:103F4000110370911203452B462B472B69F3009701
:103F5000A105B10541F02AE22A95F1F700C00197C9
:103F6000A109B109E1CF80910E030C949D041F9229
:103F70000F920FB60F9211242F933F938F939F931D
:103F8000AF93BF938091FE039091FF03A091000433
:103F9000B09101043091FD0323E0230F2D3758F534
:103FA0000196A11DB11D2093FD038093FE03909304
:103FB000FF03A0930004B093010480910204909148
:103FC0000304A0910404B09105040196A11DB11D44
:103FD0008093020490930304A0930404B093050417
:103FE000BF91AF919F918F913F912F910F900FBEF5
:103FF0000F901F90189526E8230F0296A11DB11D62
:10400000D2CF1F920F920FB60F9211242F933F938E
:104010004F935F936F937F938F939F93AF93BF93D0
:10402000EF93FF93E0910502F09106020995FF914D
:10403000EF91BF91AF919F918F917F916F915F9120
:104040004F913F912F910F900FBE0F901F90189599
:104050001F920F920FB60F9211242F933F934F93FD
:104060005F936F937F938F939F93AF93BF93EF93E0
:10407000FF93E0910302F09104020995FF91EF9103
:10408000BF91AF919F918F917F916F915F914F9170
:104090003F912F910F900FBE0F901F9018951F9278
:1040A0000F920FB60F9211242F933F934F935F936C
:1040B0006F937F938F939F93AF93BF93EF93FF93F0
:1040C00086E094E00E94A903FF91EF91BF91AF9128
:1040D0009F918F917F916F915F914F913F912F9120
:1040E0000F900FBE0F901F9018951F920F920FB652
:1040F0000F9211242F938F939F93EF93FF93E0914F
:104100001604F09117048081E0911C04F0911D04C5
:1041100082FD1BC0908180911F048F5F8F7320915F
:104120002004821741F0E0911F04F0E0EA5FFB4FAA
:10413000958F80931F04FF91EF919F918F912F9105
:104140000F900FBE0F901F9018958081F4CF1F9293
:104150000F920FB60F9211242F933F934F935F93BB
:104160006F937F938F939F93AF93BF93EF93FF933F
:104170008091B900887F803609F44AC0F0F5883212
:1041800009F4A7C018F5803109F49BC0B8F488235E
:1041900009F4F9C0883009F494C0FF91EF91BF9100
:1041A000AF919F918F917F916F915F914F913F91CF
:1041B0002F910F900FBE0F901F901895883109F422
:1041C00088C0803251F78093570314C0803409F4BB
:1041D0009DC040F48033B9F38833F9F680935703D8
:1041E00085ECB0C0803509F485C0883509F496C0E7
:1041F000883499F60E947F1FD0CF883909F48CC08B
:1042000038F5883729F050F4883611F0803729F6D0
:1042100083E0809358031092560357C0883809F4FE
:104220007BC0803919F0803809F0B7CF80915603F0
:10423000803208F071C0E091560381E08E0F8093C8
:1042400056038091BB00F0E0EA5CFC4F80833DC0E8
:10425000803B39F0E0F4803A09F479C0883A09F0FB
:104260009CCF84E08093580310923503109234035E
:10427000E0918003F09181030995809134038111CD
:104280000FC081E0809334031092140309C0803C76
:1042900009F4A6CF883C09F4A3CF883B09F07DCF71
:1042A000E091350381E08E0F80933503F0E0EC5E02
:1042B000FC4F80818093BB00909135038091340343
:1042C00029C080917D038093BB0085EC8093BC0066
:1042D00064CF90917C0380917B03981758F5E0910F
:1042E0007C0381E08E0F80937C03F0E0E55AFC4F65
:1042F0008081E9CFE0917C0381E08E0F80937C0385
:104300008091BB00F0E0E55AFC4F808390917C03E4
:1043100080917B039817C8F285E8D8CFE0917C03A1
:1043200081E08E0F80937C038091BB00F0E0E55A22
:10433000FC4F808380915A0381115CCF81E0809390
:10434000590384EA8093BC001092580326CF85EC71
:104350008093BC001092580380915603803230F451
:10436000E0915603F0E0EA5CFC4F10826091560346
:1043700070E0E0917E03F0917F0386E393E009957E
:10438000109256030ACF1092570334CF8F929F9208
:10439000AF92BF92CF92DF92EF92FF920F931F9353
:1043A000E6E0F4E01382128288EE93E0A0E0B0E051
:1043B00084839583A683B7832BE132E03183208306
:1043C00025EC30E03587248724EC30E037872687DA
:1043D00020EC30E0318B208B21EC30E0338B228BD2
:1043E00022EC30E0358B248B26EC30E0378B268BAB
:1043F000118E128E138E148EE3EAF4E01382128271
:1044000084839583A683B7838DE292E09183808332
:10441000E4EAF6E08DEC882E8CEC982E8CE0A82E49
:104420008FE3B82E83A694A6A5A6B6A69DECC92EAA
:104430009CECD92EED2C9DE3F92EC7A6D0AAE1AABB
:10444000F2AA03E313E323EB3EE303AB14AB25AB88
:1044500036AB85E0808386E0818382E082831382AD
:10446000148215821682178E10A211A212A2138A2C
:10447000148A158A168A178A108E118E128E40E0C1
:1044800050E060E87FEB438F548F658F768F10A6E6
:1044900017A212A611A614A213A281E090E096A37F
:1044A00085A31092E3061092E4061092E50610929E
:1044B000E6061092E7061092E8061092E9061092BE
:1044C000EA0617AA10AE11AE12AE13AE14AE15AEB8
:1044D00016AE1782108611861286138614861586EC
:1044E00016861786108A118A128AEDE5F6E083A6F1
:1044F00094A6A5A6B6A6C7A6D0AAE1AAF2AA03AB1F
:1045000014AB25AB36AB2BE020832AE0218323E0DC
:1045100022831382148215821682178E10A211A292
:1045200012A2138A148A158A168A178A108E118E7F
:10453000128E438F548F658F768F10A617A212A606
:1045400011A614A213A296A385A310929C06109202
:104550009D0610929E0610929F061092A006109241
:10456000A1061092A2061092A30617AA10AE11AED1
:1045700012AE13AE14AE15AE16AE178210861186AB
:10458000128613861486158616861786108A118A57
:10459000128A8EEA91E0EFEAF4E0DF019C011D92BD
:1045A00021503040E1F780EB94E09093F805809340
:1045B000F7051F910F91FF90EF90DF90CF90BF9084
:1045C000AF909F908F900895CF93DF93CDB7DEB7D4
:1045D000C954D1090FB6F894DEBF0FBECDBF789491
:1045E00084B5826084BD84B5816084BD85B58260F8
:1045F00085BD85B5816085BD80916E0081608093A9
:104600006E00109281008091810082608093810011
:104610008091810081608093810080918000816021
:10462000809380008091B10084608093B10080917C
:10463000B00081608093B00080917A0084608093A4
:104640007A0080917A00826080937A0080917A006B
:10465000816080937A0080917A00806880937A00EC
:104660001092C100E0911604F091170482E080835B
:10467000E0911204F09113041082E0911404F0917F
:10468000150480E1808310921E04E0911A04F091D9
:104690001B0486E08083E0911804F0911904808166
:1046A00080618083E0911804F09119048081886012
:1046B0008083E0911804F0911904808180688083E0
:1046C000E0911804F091190480818F7D808383EF3D
:1046D00090E00E941C0B84EA96E00E94FE0A8DE5A1
:1046E00096E00E94FE0A8091A606823009F447C136
:1046F000833009F046C181E066EF7AE00E94D9017B
:1047000080915F06823009F43EC1833009F03DC1DB
:1047100081E06AEF7AE00E94D90184E690E0A0E0AF
:10472000B0E08093F3019093F401A093F501B0936E
:10473000F60185E090E0A0E0B0E08093F70190936F
:10474000F801A093F901B093FA0184E190E0A0E0B0
:10475000B0E08093FB019093FC01A093FD01B09326
:10476000FE018AE090E0A0E0B0E08093FF0190932A
:104770000002A0930102B0930202E091F705F091CC
:10478000F805EF5BFE4F89E28083E091F705F09139
:10479000F805EE5BFE4F81E08083E091F705F09134
:1047A000F805ED5BFE4F80E991E091838083E09115
:1047B000F705F091F805EB5BFE4F83EA94E09183F7
:1047C00080831092850310928403109283031092C9
:1047D00082030E947F0488E293E090938103809398
:1047E000800389E293E090937F0380937E0321E02E
:1047F0004EEF69E880EB94E00E946512811106C0DB
:1048000040E068E880EB94E00E949906AE01455CC8
:104810005F4F60EC80EB94E00E94B61210928F051F
:1048200088EE93E09093EA058093E90580E991E0B2
:104830009093EC058093EB0585E89BE6A1E0B0E062
:104840008093ED059093EE05A093EF05B093F005EE
:1048500084EA90E7A9E0B0E0809378059093790529
:10486000A0937A05B0937B051092CD041092CE04EC
:104870001092CF041092D0049E012F5F3F4F190178
:10488000B90180EB94E00E94F916082F81110AC04B
:1048900019821A828AE3F101A0ECB4E001900D9232
:1048A0008A95E1F784E690E09093D2058093D10554
:1048B00084E893E09093D4058093D30584EF91E04E
:1048C0009093D6058093D50580E09AE09093D90522
:1048D0008093D80581E08093E80541E060E880EBB3
:1048E00094E00E949906182F41E06FEF80EB94E06E
:1048F0000E949906182B102B40E060E080EB94E0BA
:104900000E949906182BAE01415C5F4F61E980EB74
:1049100094E00E94B612182B8FAD8093D70541E02A
:1049200060E080EB94E00E949906182B40E06FEF66
:1049300080EB94E00E949906182B40E060E880EB41
:1049400094E00E949906912F982B10E000E0FF243C
:10495000F39491119EC10330110509F4A4C0BCF475
:104960000130110519F10230110509F499C0F092D6
:10497000D504F801E155FB4FF6A280E02DC080E0A0
:10498000BBCE8FEFB9CE80E0C4CE8FEFC2CE043065
:10499000110509F48BC020E04FEE0530110539F701
:1049A00060E680EB94E00E94651214C04091E5043B
:1049B0005091E6046091E7047091E804E9E076958F
:1049C000679557954795EA95D1F764E480EB94E0B5
:1049D0000E946F06882369F20F5F1F4F982F0630E1
:1049E000110509F0B6CF81116EC01092D704109254
:1049F000D80422E04EEF60E680EB94E00E9465125E
:104A0000811161C01092D90420E14FEE60E680EB85
:104A100094E00E946512811156C01092DA0480E081
:104A200090E0A2E1B0E08093E1049093E204A093CF
:104A3000E304B093E4048091D60481113AC080E08D
:104A400090E4A0E0B0E08093E5049093E604A093A6
:104A5000E704B093E80480E090E0A3E2B0E0809344
:104A6000E9049093EA04A093EB04B093EC04109251
:104A7000ED041092EE041092EF041092F0048FEF08
:104A80008093CD054FEF61E080EB94E00E949906A2
:104A900091E09093CF05811116C01092B40513C018
:104AA000F092D70466CFF092D80463CF20E04EEFA7
:104AB00077CF40E250E064E480EB94E00E946F0620
:104AC000882309F4BCCF8093AF0449E26AE880915F
:104AD000F7059091F8050E9499068093AF040E9413
:104AE00003034B015C017AE0C72ED12CE12CF12CA1
:104AF0000E940303681979098A099B09683E73407B
:104B000081059105A8F331E0C31AD108E108F10845
:104B100048EE840E43E0941EA11CB11CC114D104C4
:104B2000E104F10429F78091AF048111B4C0E09150
:104B3000F705F091F805EF5BFE4F89E2808362E0B4
:104B400080EB94E00E941A1D882309F4A9C0809389
:104B5000AF0481110BC080915A06813021F48091FD
:104B60005B06813019F08BEF8093AF048091AF0426
:104B70008111F1C06090F7057090F80525961FAE81
:104B80001EAE259728961FAE289727961FAE27970B
:104B900023961CAE1DAE1EAE1FAE239761E0C3016F
:104BA0000E941A1DF301EE5FFE4F4080A42CB12C31
:104BB000D12CC12C3196508081E0851508F4BDC000
:104BC0005812B4C091E2A916B104C104D10408F08E
:104BD000B4C041E06FEFC3010E94990681111AC071
:104BE00040E06FE4C3010E949906811113C04CE2BA
:104BF0006EE4C3010E94990681110CC040E06FEF82
:104C0000C3010E949906811105C044EB66EBC30104
:104C10000E94990693012F5E3E4FF9011082319652
:104C20001082319610823196108231961082319620
:104C30001082E12CF12C8701552009F413C1D80111
:104C4000C7018C549F4FAF4FBF4F56E0B695A79505
:104C5000979587955A95D1F7880F991F880F991FB7
:104C6000895F9D4FFC0180819181A281B381892B55
:104C70008A2B8B2B09F0F6C0FCE2EF16F10401053C
:104C8000110509F4EFC04FEFE41AF40A0F4F1F4F5C
:104C9000D6CF892F18CF82EC90E00E941C0BFFCF5B
:104CA0008091900581112AC06DE372E089E396E05E
:104CB0000E94D4336AE472E089EF95E00E94D43315
:104CC00063E872E089E196E00E94D43349E556E05A
:104CD00060EC80EB94E00E94B612811138CFA10104
:104CE00062EC80EB94E00E94B61291E090935A0639
:104CF000998192959F7090935B0629CF10919105B1
:104D000062E975E089E396E00E94D433112391F2C1
:104D1000133238F466E572E0103271F662E672E042
:104D2000CBCF6EE672E0173238F6F8CFADE0AA16B8
:104D3000B104C104D10408F44CCFAE014A5B5F4F0B
:104D4000BE01615C7F4FC3010E94AA1A882309F447
:104D50009CC08093AF048091AF0481110CC0AE0160
:104D60004D5B5F4FB1018091F7059091F8050E946E
:104D7000AA1A8093AF048091AF0481110FC021E083
:104D8000AE01455C5F4FBE01615C7F4F8091F705CE
:104D90009091F8050E94351A8093AF048091AF047A
:104DA000811179CFE091F705F091F805108AE09133
:104DB000F705F091F805FF24F394F5A20091F705AB
:104DC0001091F805F80145A956A967A970AD39E019
:104DD00076956795579547953A95D1F764E4C8015C
:104DE0000E946F06811103C0D8019696FC928093B1
:104DF000AF04811150CFE091F705F091F80581E003
:104E000080A7E091F705F091F805FD9684ED98E014
:104E1000A0E0B0E080839183A283B3838091AF044C
:104E2000811139CFE091F705F091F80583E0808B8F
:104E3000C090F705D090F805AE01455C5F4F68EF74
:104E4000C6010E94D90E882309F437C18093AF04AC
:104E50008091AF04882309F466C183EA90E00E9440
:104E60001C0BFFCF4101A301495E5E4F652DC301BD
:104E70000E94AB0D81116ACF81E0F301EC5FFE4F20
:104E800080833297408231965082F301E85CFE4F76
:104E9000808160E071E0811103C03297608171818F
:104EA000C3010E94C106811154CF44E06AE0C301EE
:104EB0000E94990681114DCF20E04FEE64E8C301B6
:104EC0000E946512811145CF84E0F301E253FF4F48
:104ED0008083C3010E942C1381113BCF41E06FEF0F
:104EE000C3010E949906182FAE014D5B5F4F64E825
:104EF000C3010E94D90E182B40E06FEFC3010E943E
:104F00009906812B09F025CFF301E853FF4F259631
:104F10008EAD9FAD259744E0880F991F4A95E1F724
:104F2000B0E0A0E080839183A283B383B101C30189
:104F30000E94F91681110DCFAE01495B5F4F69E008
:104F4000C3010E94B612811104CF28968FAD289715
:104F5000817028968FAF2897F301E25EFE4F808321
:104F60008AE3F101D301509601900D928A95E1F701
:104F7000AE01495B5F4F61E0C3010E94B61281112F
:104F8000E8CE8301035E1E4F28968FAD2897D80187
:104F90008C931BAEAE01455C5F4F61E0C3010E9484
:104FA000B6129BAD8111D5CEF92EE894F4F894FF9A
:104FB00013C04F2D61E0C3010E9499068111C9CE33
:104FC000F801F082D30152964D915D916D917C91E3
:104FD0005597C3010E94B8181BAEAE01455C5F4FE8
:104FE00061E0C3010E94B6129BAD8111B2CEF92ED1
:104FF000E894F2F892FF13C04F2D61E0C3010E94C4
:1050000099068111A6CEF801F082D30152964D91F6
:105010005D916D917C915597C3010E94B81883E012
:10502000F301E15EFE4F8083AE014B5B5F4F60E0BA
:10503000C3010E945F1381118CCE26968FAD2697F7
:10504000F301E852FF4F8083AE014B5B5F4F61E09D
:10505000C3010E945F1381117CCE26968FAD2697E7
:10506000F301ED52FF4F8083AE01455C5F4F63E07B
:10507000C3010E94A21681116CCE8BAD9CADADAD6B
:10508000BEADF301EC52FF4F80839183A283B383C3
:10509000AE01455C5F4F64E0C3010E94A21681111E
:1050A00058CEF301E153FF4F4BAD5CAD6DAD7EAD1E
:1050B00040835183628373834CCE2BAD3CAD64E659
:1050C00070E080E02115310521F0A4E6B0E00E94F7
:1050D0006632F601EF5BFE4F90813496E080F180FE
:1050E0006C837B838A83198204E010E020E030E047
:1050F000A10164E0892F0E942E06892B11F08CEE0D
:10510000A5CE84E690E0A0E0B0E0F601868B978B18
:10511000A08FB18F1092AF048091F7059091F805A0
:105120000E942D1493CE81E090E09093F40380933D
:10513000F30384EE90E00E941C0B9E01255F3F4F1D
:105140002A963FAF2EAF2A97412C512C24EB622E8A
:1051500022E4722E01E010E0D101EAE01D92EA950E
:10516000E9F786E094E00E948903181619066CF5A9
:1051700086E094E00E946703F1E0F093CC039FB7D0
:10518000F8944091FE035091FF03609100047091E8
:1051900001049FBF4093C8035093C9036093CA039F
:1051A0007093CB038823E9F2E091C703EF3348F40F
:1051B00091E09E0F9093C703F0E0E957FC4F808386
:1051C000D0CF21E020938603CCCF8091CC038823DD
:1051D00079F12FB7F8948091FE039091FF03A0918D
:1051E0000004B09101042FBF4091C8035091C9033E
:1051F0006091CA037091CB03841B950BA60BB70B70
:1052000040910A0450910B0460910C0470910D04BC
:1052100084179507A607B70758F01092CC03809122
:105220008603882309F46CC21092C7031092860388
:105230008FB7F894C090FE03D090FF03E090000475
:10524000F09001048FBFC092F903D092FA03E0926C
:10525000FB03F092FC038091CF039091D003A091C7
:10526000D103B091D203C81AD90AEA0AFB0A809185
:10527000F3019091F401A091F501B091F601C816E7
:10528000D906EA06FB0608F45FC0B701A60184EA66
:1052900096E00E94700AB701A6018DE596E00E9493
:1052A000700A1982B1018091F7059091F8050E946A
:1052B000B6138093AF04811103C089818130A1F5B9
:1052C000B1018091F7059091F8050E94AA0F809393
:1052D000AF04998D90935C06811108C08091F70509
:1052E0009091F8050E942C138093AF048091AF0435
:1052F00081118BC380915C06843009F486C3898553
:105300009A858F3F980709F480C39093CE038093CA
:10531000CD038091CD039091CE038639910508F09D
:105320007BC3F1E0F093EF038091F9039091FA03CE
:10533000A091FB03B091FC038093CF039093D00323
:10534000A093D103B093D2038090F9039090FA0315
:10535000A090FB03B090FC038091D7039091D803F9
:10536000A091D903B091DA03B501A401481B590BF0
:105370006A0B7B0B8091F7019091F801A091F901E4
:10538000B091FA01481759076A077B0708F482C0F1
:105390008EE00E941E027C0181E021E0E216F10411
:1053A00009F080E08093F2038FE00E941E026C01FE
:1053B00081E031E0C316D10409F080E08093F0036E
:1053C00080E10E941E0221E08130910509F020E079
:1053D0002093F10341E0E416F10439F051E0C516E1
:1053E000D10419F0019709F01FC38092DD03909258
:1053F000DE03A092DF03B092E00381E0E816F1043F
:1054000009F00DC3CA94CD2809F40EC3CC24CA9464
:10541000DC2CD092DC03C092DB038091E5039091F9
:10542000E603C816D90661F0D092E603C092E50300
:105430008092E1039092E203A092E303B092E4032E
:10544000EA94EF2809F410C38091F00381110CC392
:105450008091F103882309F407C38091D3039091CD
:10546000D403A091D503B091D6030097A105B1054F
:1054700009F0E7C28092D3039092D403A092D5039F
:10548000B092D6038092D7039092D803A092D9030A
:10549000B092DA03C090F903D090FA03E090FB03D6
:1054A000F090FC038091E7039091E803A091E90359
:1054B000B091EA0346015701881A990AAA0ABB0A61
:1054C0008091FB019091FC01A091FD01B091FE0142
:1054D00088169906AA06BB0630F18091F3039091D5
:1054E000F403009709F4C9C2019709F4DFC284EA02
:1054F00096E00E94D8098DE596E00E94D809B50192
:10550000A40184EA96E00E94B807B501A4018DE5E4
:1055100096E00E94B807C092E703D092E803E092B9
:10552000E903F092EA038091EB039091EC03A091E0
:10553000ED03B091EE03B701A601481B590B6A0BAE
:105540007B0B8091FF0190910002A0910102B0912C
:105550000202481759076A077B0780F084EA96E041
:105560000E943F098DE596E00E943F09C092EB033F
:10557000D092EC03E092ED03F092EE038091F503FC
:105580009091F603A091F703B091F803C81AD90AD5
:10559000EA0AFB0A48EEC41643E0D406E104F1042B
:1055A00008F4A1C085EA91E00E941C0B89E991E012
:1055B0000E9418048091F3039091F4030E946E0BF3
:1055C00083E891E00E9418048091CB069091CC066C
:1055D0000E949E0B86E791E00E9418048091CD0600
:1055E0009091CE060E949E0B8AE691E00E941804DC
:1055F0006091B7067091B8068091B9069091BA068D
:1056000042E00E94CC0B8BE392E00E940F0B87E5F7
:1056100091E00E94180480918406909185060E9472
:105620009E0B8AE491E00E94180480918606909176
:1056300087060E949E0B8EE391E00E941804609101
:10564000700670917106809172069091730642E027
:105650000E94CC0B8BE392E00E940F0B83E391E05E
:105660000E9418048091F203882309F4FFC28FE49A
:105670000E9433048FE291E00E9418048091F103AC
:10568000882309F4F5C28FE40E9433048BE291E091
:105690000E9418048091F003882309F4EBC28FE480
:1056A0000E9433048BE392E00E940F0B80E291E0B2
:1056B0000E9418048091EF03882309F4DDC28CE175
:1056C00091E00E941C0B8091F9039091FA03A09144
:1056D000FB03B091FC038093F5039093F603A09332
:1056E000F703B093F80380E090E0892B09F434CD00
:1056F0000E949503882309F42DCD0E9400002ACD35
:10570000E090C703F12CF701E957FC4F108297E8AE
:10571000C92E93E0D92ED6018D915D01882331F0F9
:1057200090E00E945A2F892B09F0AFC0F701E9578A
:10573000FC4F7F01CE14DF0448F4D7018E915D0148
:1057400090E00E945A2F892B09F0A1C0F701108226
:10575000F7E8CF16F3E0DF0651F0A7014C195D0919
:105760004F5F5F4FB60187E893E00E94AE3310921F
:10577000C70380918703882309F45ACD86E091E01E
:105780000E94180487E893E00E940F0B8BE392E0DD
:105790000E940F0B9E012F5F3F4F790187E893E036
:1057A000D7018D939D937D016AE370E00E94C03321
:1057B000009751F0FC011192CF012A962EAD3FAD1A
:1057C0002A972E153F0561F7C980DA8063EC72E0F5
:1057D000C6010E94CB337C01892B09F45AC06CEBC3
:1057E00072E0C6010E94CB33892B09F021CD8B8159
:1057F0009C81C12CD12C7601009721F00E94562F5C
:105800006B017C018D819E81812C912C540100972C
:1058100021F00E94562F4B015C018F8198850097E3
:1058200009F4EFC00E94562FC092CF06D092D00646
:10583000E092D106F092D2068092D7069092D806D6
:10584000A092D906B092DA066093D3067093D4067C
:105850008093D5069093D606C0928806D09289068A
:10586000E0928A06F0928B068092900690929106C2
:10587000A0929206B092930660938C0670938D0668
:1058800080938E0690938F06D3CC650144CF75012B
:1058900051CF8B819C81D12CC12C009739F04AE0EB
:1058A00050E070E060E00E943F2E6B018D819E8190
:1058B000009739F04AE050E070E060E00E943F2E2F
:1058C0007B0142E050E05093F4034093F303B601B0
:1058D0000D2C000C880B990B0E94D5304B015C01FC
:1058E00020E030E0A9010E948A331816C4F58092A6
:1058F000C3069092C406A092C506B092C606109345
:10590000C8060093C706B7010F2C000C880B990B33
:105910000E94D5304B015C0120E030E0A9010E94DB
:105920008A3318160CF044C080927C0690927D0653
:10593000A0927E06B0927F061093810600938006A7
:105940008BE892E00E940F0BC6010E946E0B83EA67
:1059500092E00E940F0BC7010E946E0B69CC20E001
:1059600030E0A901C501B4010E94CE3087FF13C009
:10597000B7FAB094B7F8B0948092C3069092C40678
:10598000A092C506B092C6068FEF9FEF9093C8060F
:105990008093C706B8CF1092C3061092C406109227
:1059A000C5061092C6061092C8061092C706ABCF65
:1059B00020E030E0A901C501B4010E94CE3087FF8C
:1059C00013C0B7FAB094B7F8B09480927C06909266
:1059D0007D06A0927E06B0927F06AFEFBFEFB09338
:1059E0008106A0938006ACCF10927C0610927D06B3
:1059F00010927E0610927F06109281061092800609
:105A00009FCF60E070E0CB010FCFEFEFFFEFF0939F
:105A1000CE03E093CD037DCC1092EF0385CCA1E0C3
:105A2000CA16D10409F4F5CC1092E6031092E503EE
:105A30001092E1031092E2031092E3031092E40348
:105A4000FFCCA5019401281B390B4A0B5B0BDA0133
:105A5000C901843F9140A105B10508F413CD10920E
:105A6000DC031092DB030ECD1092D3031092D4030B
:105A70001092D5031092D60305CD1092C306109252
:105A8000C4061092C5061092C6061092C80610925F
:105A9000C70610927C0610927D0610927E06109228
:105AA0007F06109281061092800621CD8091EF032F
:105AB000882349F084EA96E00E94BC098DE596E0CF
:105AC0000E94BC0914CD2091E5033091E603232BFD
:105AD000A9F08091E1039091E203A091E303B091DA
