:100000000C942D010C94BA0A0C94930A0C9455018B
:100010000C9455010C9455010C9455010C94550108
:100020000C9455010C9455010C9455010C945501F8
:100030000C9455010C9455010C9455010C945501E8
:100040000C94490A0C9455010C94070B0C94E10A8A
:100050000C9455010C9455010C9455010C945501C8
:100060000C94390B0C9455014E414E494E4954594C
:10007000494E46CDCCCC3D0AD7233C17B7D1387773
:10008000CC2B329595E6241FB14F0A000020410089
:1000900000C84200401C4620BCBE4CCA1B0E5AAED3
:1000A000C59D7441726475696E6F204F4E4C494E08
:1000B000450041726475696E6F20426F6F74696E9E
:1000C000672E2E2E00436F6D6D616E642072656326
:1000D00065697665643A200049524348414E474578
:1000E000443A0043616E27742066696E6420746828
:1000F0006520706F6C696379005475726E696E6704
:1001000020726967687420736F66746C7900547527
:10011000726E696E67206C65667420736F66746CAE
:1001200079005475726E696E672072696768740031
:100130005475726E696E67206C65667400476F69EE
:100140006E672073747261696768740043757272B8
:10015000656E7420747261636520706F6C69637979
:100160003A20006E6F00796573004F6273746163AB
:100170006C653F2000202D2000202D20006F6E2D6B
:100180006C696E653F3A2000202F206375725F52C4
:10019000504D2000202F207467745F64757479209F
:1001A00000526967687420776865656C3A206375EA
:1001B000725F647574792000202F206375725F521E
:1001C000504D2000202F207467745F64757479206F
:1001D000004C65667420776865656C3A20637572BB
:1001E0005F64757479200044726976656D6F64652B
:1001F0003A20003D3D3D3D3D3D3D3D3D3D00000043
:100200000000240027002A0000000000250028002C
:100210002B00000000002300260029000404040431
:1002200004040404020202020202030303030303A0
:10023000010204081020408001020408102001027D
:100240000408102000000008000201000003040759
:100250000000000000000000540C11241FBECFEF6E
:10026000D8E0DEBFCDBF23E0AAE7B1E001C01D9218
:10027000AD3AB207E1F711E0A0E0B1E0E4E4F3E366
:1002800002C005900D92AA37B107D9F711E0CDE26F
:10029000D1E004C02197FE010E946B19CC32D10736
:1002A000C9F70E948A0D0C94A0190C9400008230AA
:1002B000C8F4E82FF0E0EE0FFF1FEC5EFE4F7183F5
:1002C0006083813041F0809169008C7F82608093EF
:1002D0006900E89A089580916900837F886080931F
:1002E0006900E99A0895833081F028F4813099F00B
:1002F0008230A9F008958730A9F08830C9F08430A1
:10030000B1F4809180008F7D03C0809180008F7751
:1003100080938000089584B58F7784BD089584B557
:100320008F7DFBCF8091B0008F778093B0000895D0
:100330008091B0008F7DF9CFCF93DF93282F30E0ED
:10034000F901EC5BFD4F8491F901E05DFD4FD49123
:10035000F901E45EFD4FC491CC23A1F081110E940C
:100360007301EC2FF0E0EE0FFF1FEE5EFD4FA59145
:10037000B491EC91ED2381E090E009F480E0DF910D
:10038000CF91089580E090E0FACF1F93CF93DF9351
:10039000282F30E0F901EC5BFD4F8491F901E05D1D
:1003A000FD4FD491F901E45EFD4FC491CC23A9F037
:1003B000162F81110E947301EC2FF0E0EE0FFF1F4A
:1003C000E85FFD4FA591B4918FB7F894EC911111AE
:1003D00008C0D095DE23DC938FBFDF91CF911F91B2
:1003E0000895DE2BF8CFCF93DF9390E0FC01E05D22
:1003F000FD4F2491845E9D4FFC0184918823C9F0B8
:1004000090E0880F991FFC01E250FE4FA591B49136
:10041000FC01E85FFD4FC591D49161110DC09FB7FC
:10042000F8948C91209582238C93888128232883AB
:100430009FBFDF91CF910895623051F49FB7F89438
:100440003C91822F809583238C93E8812E2BEFCFD4
:100450008FB7F894EC912E2B2C938FBFEACF1F937C
:10046000CF93DF93182FEB0161E00E94F3012097F7
:1004700039F460E0812FDF91CF911F910C94C50179
:10048000CF3FD10511F461E0F5CFE12FF0E0EC5B57
:10049000FD4FE491E33031F140F4E130B1F0E2306E
:1004A000E1F0C038D1057CF7E4CFE73029F1E8303E
:1004B00059F1E430B1F78091800080628093800030
:1004C000D0938B00C0938A0004C084B5806884BD3B
:1004D000C7BDDF91CF911F91089584B5806284BD1F
:1004E000C8BDF7CF80918000806880938000D09352
:1004F0008900C0938800EDCF8091B0008068809320
:10050000B000C093B300E5CF8091B00080628093CB
:10051000B000C093B400DDCF3FB7F894809166027D
:1005200090916702A0916802B091690226B5A89BDC
:1005300005C02F3F19F00196A11DB11D3FBFBA2F75
:10054000A92F982F8827BC01CD01620F711D811D35
:10055000911D42E0660F771F881F991F4A95D1F7BA
:1005600008952FB7F89460916202709163028091B0
:100570006402909165022FBF08950895AF92BF92D3
:10058000CF92DF92EF92FF920F931F93CF93DF935F
:100590006C017B018B01040F151FEB015E01AE188E
:1005A000BF08C017D10759F06991D601ED91FC91B0
:1005B0000190F081E02DC6010995892B79F7C501DD
:1005C000DF91CF911F910F91FF90EF90DF90CF902F
:1005D000BF90AF900895FC01538D448D252F30E0DE
:1005E000842F90E0821B930B541710F0CF96089540
:1005F00001970895FC01918D828D981761F0A28D6D
:10060000AE0FBF2FB11D5D968C91928D9F5F9F7332
:10061000928F90E008958FEF9FEF0895FC01918DE8
:10062000828D981731F0828DE80FF11D858D90E055
:1006300008958FEF9FEF0895FC01918D228D892FF2
:1006400090E0805C9F4F821B91098F7399270895DA
:100650008AE692E00E941C0321E0892B09F420E045
:10066000822F089580E090E0892B29F00E942803D2
:1006700081110C9400000895FC01A48DA80FB92FDE
:10068000B11DA35ABF4F2C91848D90E001968F73BA
:100690009927848FA689B7892C93A089B1898C91D9
:1006A000837080648C93938D848D981306C0028828
:1006B000F389E02D80818F7D80830895EF92FF92F2
:1006C0000F931F93CF93DF93EC0181E0888F9B8D75
:1006D0008C8D98131AC0E889F989808185FF15C02F
:1006E0009FB7F894EE89FF896083E889F989808152
:1006F0008370806480839FBF81E090E0DF91CF9121
:100700001F910F91FF90EF900895F62E0B8D10E042
:100710000F5F1F4F0F731127E02E8C8D8E110CC0B1
:100720000FB607FCFACFE889F989808185FFF5CFFC
:10073000CE010E943C03F1CFEB8DEC0FFD2FF11D9C
:10074000E35AFF4FF0829FB7F8940B8FEA89FB8939
:1007500080818062CFCF0F931F93CF93DF938C0163
:10076000D0E0C0E0F801EC0FFD1F6491662341F07A
:100770008AE692E00E945E03892B11F02196F2CF67
:10078000CE01DF91CF911F910F910895682F8AE6D6
:1007900092E00C945E03CF93DF93EC01888D882365
:1007A000B9F0AA89BB89E889F9898C9185FD03C0D4
:1007B000808186FD0DC00FB607FCF7CF8C9185FFB9
:1007C000F2CF808185FFEDCFCE010E943C03E9CFBF
:1007D000DF91CF9108952091A101260F3327331F78
:1007E00021323105ECF42091C501FC0190E080E05C
:1007F000243069F082E00895A091A1012191AC011B
:100800004F575E4FA40FB52FB11D2C93019686173D
:1008100098F38091A101680F6093A10180E0089591
:1008200081E0089508958FEF9FEF08958FEF9FEF78
:10083000089580917A0190E09195819591090895AC
:10084000CF93DF93CB01EA01642F0E94EB03CE012B
:10085000DF91CF910895CF93DF931F92CDB7DEB78D
:10086000698361E0CE0101960E94EB0381E090E094
:100870000F90DF91CF91089590E080E008954F921E
:100880005F926F927F928F929F92AF92BF92CF9220
:10089000DF92EF92FF920F931F93CF93DF9300D0DD
:1008A00000D000D0CDB7DEB7411551056105710507
:1008B000C9F0FC0125A5211115C06A017B019E83A9
:1008C0008D83478C50A061A072A020E030E0A90188
:1008D000C301B2010E94A51681111BC0ED81FE81EA
:1008E00012A611A626960FB6F894DEBF0FBECDBF96
:1008F000DF91CF911F910F91FF90EF90DF90CF90FC
:10090000BF90AF909F908F907F906F905F904F902F
:100910000895C701B6010E94AA162FE632E143E806
:100920005AE30E940B174B015C01ED81FE81C388E5
:10093000D488E588F688A7019601C301B2010E9418
:100940004C182B013C010D811E810E5B1F4FF801DD
:1009500020813181428153810E944C18ED81FE81BA
:1009600026A937A940AD51AD0E940B1769837A8340
:100970008B839C83ED81FE81E65BFF4F60817181FB
:10098000828193819B01AC010E944D189B01AC01B7
:10099000C701B6010E944C18ED81FE81E25BFF4F5A
:1009A00020813181428153810E944D18ED81FE8169
:1009B00022AD33AD44AD55AD50580E940B17A50183
:1009C00094010E94B9186B017C0120E030E040E402
:1009D00050EC0E94A51687FD93C020E030E040E473
:1009E00050E4C701B6010E94611918160CF48FC0BB
:1009F000ED81FE81FE962081318142815381C301C8
:100A0000B2010E940B17A50194010E940B174B0124
:100A10005C0120E030E040E252EC0E94A51687FD28
:100A20007CC020E030E040E252E4C501B4010E9405
:100A3000611918160CF478C029813A814B815C81C8
:100A4000C501B4010E944D18A70196010E944D18DE
:100A50004B015C0120E030E048EC52EC0E94A5160E
:100A600087FD69C020E030E048EC52E4C501B401E4
:100A70000E94611918160CF465C0ED80FE80F6E442
:100A8000EF0EF11CF7012081318142815381C501B4
:100A9000B4010E944D184B015C0120E030E0A90137
:100AA0000E94A51687FD55C020E030E04FE753E4D3
:100AB000C501B4010E94611918160CF44EC0F7016B
:100AC00080829182A282B382C501B4010E942B1957
:100AD000ED81FE8172A761A76F3F710519F014F0D7
:100AE0006FEF70E077FF02C070E060E0ED81FE81A3
:100AF00072A761A7F8014082518262827382F2CEAE
:100B0000C12CD12C60E4E62E60ECF62E71CFC12C06
:100B1000D12C50E4E52EFE2C6BCF812C912C40E2A1
:100B2000A42E42ECB42E88CF812C912C30E2A32E3F
:100B300032E4B32E81CF812C912C28ECA22E22EC12
:100B4000B22E9BCF812C912C98ECA92E92E4B92E39
:100B500094CF812C912C5401B2CF812C912C8FE712
:100B6000A82E83E4B82EABCF0F931F93CF93DF93C0
:100B70008C01EB01FC0180811C161D0694F070E0D5
:100B800060E0209771F00E942F02662777276C1B88
:100B90007D0BF8018181DF91CF911F910F910C9412
:100BA0002F020E942F0270E060E0F3CFCF92DF921D
:100BB000EF92FF920F931F93CF93DF93EC018DA5DC
:100BC0008823C1F10E94B1020AA91BA92CA93DA941
:100BD000601B710B820B930B6639710581059105C2
:100BE000B8F488EC90E098A78FA38BA19CA128EC87
:100BF000289FB001299F700D1124CE01DF91CF9164
:100C00001F910F91FF90EF90DF90CF900C94B4055F
:100C10001DA688E790E098A78FA39AA789A780E0F0
:100C200090E0A0EFB2E4FE01EA5BFF4F8083918386
:100C3000A283B3830BA11CA1CDA0DEA0EFA0F8A4DA
:100C40000C151D0559F589A59AA58E199F09181629
:100C500019069CF48031910514F08FE090E08E0D20
:100C60009F1D98A78FA38FA198A5089FB001099FEA
:100C7000700D189F700D1124C0CF0097A1F3853B14
:100C80002FEF920744F0919581959109E81AF90A9E
:100C9000F8A6EFA2E8CF8BE490E0F8CF20E030E0B8
:100CA00040EA50E46B897C898D899E890E94A51653
:100CB00087FF0CC08AE0E816F1045CF40E9DB001D9
:100CC0000F9D700D1E9D700D112497CF1E141F04D3
:100CD0005CF4C7012CE4E216F10414F08BE490E01C
:100CE000E81AF90AF8A6EFA28FA198A597FF02C00B
:100CF00018A61FA28FA198A5C89EB001C99E700D0D
:100D0000D89E700D112479CFCF92DF92EF92FF928F
:100D1000CF93DF93EC016A017B0120E030E0A90171
:100D20006F8D78A189A19AA10E94A516811109C091
:100D300020E030E0A901C701B6010E946119181630
:100D400074F120E030E0A901C701B6010E946119E9
:100D500018163CF4CF8ED8A2E9A2FAA281E090E066
:100D600013C020E030E0A901C701B6010E94A5161A
:100D700087FF0DC0F7FAF094F7F8F094CF8ED8A261
:100D8000E9A2FAA28FEF9FEF9CA38BA32CC01F8E2A
:100D900018A219A21AA21CA21BA21DA624C0CF8EA3
:100DA000D8A2E9A2FAA281E090E09CA38BA38BA534
:100DB0008823C9F081E08DA70E94B1026AAB7BABAA
:100DC0008CAB9DAB1BA61CA6FE01EA5BFF4F1082FD
:100DD0001182128213821AA619A6CE5BDF4F1882E7
:100DE00019821A821B82DF91CF91FF90EF90DF90E2
:100DF000CF900895CF93DF93EC0140E050E0BA012B
:100E00000E94840670E060E0CE010E94B40518A63E
:100E10001FA2FE01EA5BFF4F108211821282138231
:100E20001AA619A6CE5BDF4F188219821A821B827E
:100E3000DF91CF910895CF92DF92EF92FF920F93BF
:100E40001F93CF93DF93EC01F8946B857C858D85A0
:100E50009E850F81188529853A85789461157105DD
:100E60008105910511F10115110521053105E9F003
:100E7000CF84D888E988FA880C151D052E053F0512
:100E8000A1F00F87188B298B3A8B613422E472070B
:100E90002FE08207910508F45DC080E090E0A0E8B3
:100EA000BFEB8B8F9C8FAD8FBE8FDE01A65BBF4FDC
:100EB0004D915D916D917C911397FE01E25BFF4F27
:100EC00040835183628373834B895C896D897E89FA
:100ED0004D935D936D937C931397F894CF80D88452
:100EE000E984FA84789420E030E0A9016B8D7C8D50
:100EF0008D8D9E8D0E94A51687FF41C08F89988D8C
:100F0000A98DBA8D8B8B9C8BAD8BBE8B8DA58111E2
:100F100018C020E030E040E85FE36B897C898D8970
:100F20009E890E94A51618160CF44CC08CA5811140
:100F300037C081E08CA70E94B1026EA77FA788AB63
:100F400099ABDF91CF911F910F91FF90EF90DF90C0
:100F5000CF9008950E94AA1620E030E040EA51E4C4
:100F60000E940B179B01AC0160EC71EE84E69CE4DF
:100F70000E94B9186B8F7C8F8D8F9E8F96CF0E94A9
:100F80008C026C197D098E099F09613472448F406F
:100F9000910508F0B3CF8B8D9C8DAD8DBE8DB2CFFA
:100FA0000E94B1020EA51FA528A939A9601B710BCB
:100FB000820B930B683C71058105910510F281E06D
:100FC0008BA7BFCF1CA61BA6BCCFCF92DF92EF9200
:100FD000FF920F931F93CF93DF93EC010E948C023B
:100FE0000F81188529853A85012B022B032BB1F03F
:100FF0000F81188529853A856B017C01C01AD10AB9
:10100000E20AF30A97018601003147E2140721053D
:10101000310598F00B871C872D873E876F83788773
:1010200089879A878B819C81AD81BE810196A11DA4
:10103000B11D8B839C83AD83BE83DF91CF911F91C4
:101040000F91FF90EF90DF90CF90089589E593E0A6
:101050000C94E50787E093E00C94E507CF93DF93CA
:10106000EC0161E088810E94F30161E089810E94C6
:10107000F30162E08A81DF91CF910C94F301FC01CE
:1010800001900020E9F73197AF01481B590BBC01D3
:101090008AE692E00C94BE028F929F92AF92BF922A
:1010A0000F931F93CF93DF93CDB7DEB7A1970FB602
:1010B000F894DEBF0FBECDBF19A2423008F44AE05B
:1010C0008E010F5D1F4F842E912CB12CA12CA501F8
:1010D00094010E94D917E62FB901CA01EA30F4F44D
:1010E000E05DD801EE938D01232B242B252B79F77E
:1010F00090E080E0109719F0CD010E943F08A19682
:101100000FB6F894DEBF0FBECDBFDF91CF911F9118
:101110000F91BF90AF909F908F900895E95CE1CFC1
:10112000CF93DF930E94AB03EC018AE291E00E942F
:101130003F088C0F9D1FDF91CF910895CF92DF92D2
:10114000EF92FF92CF93DF936C01990FEE08FF08A7
:10115000F7FE1DC08DE20E94C603EC0166277727CB
:10116000CB016C197D098E099F094AE00E944C0849
:10117000C80FD91F8AE291E00E943F088C0F9D1F83
:10118000DF91CF91FF90EF90DF90CF9008954AE0EC
:10119000C701B6010E944C08EC01ECCFCF92DF9260
:1011A000EF92FF92CF93DF936C01990FEE08FF0847
:1011B000F7FE17C08DE20E94C603EC016627772771
:1011C000CB016C197D098E099F094AE00E944C08E9
:1011D0008C0F9D1FDF91CF91FF90EF90DF90CF900C
:1011E00008954AE0C701B601DF91CF91FF90EF90DB
:1011F000DF90CF900C944C084F925F926F927F9249
:101200008F929F92AF92BF92CF92DF92EF92FF9216
:101210000F931F93CF936B017C01742EAC019B0144
:101220000E946619882399F08DE291E0CF911F9179
:101230000F91FF90EF90DF90CF90BF90AF909F9075
:101240008F907F906F905F904F900C943F08460175
:101250005701E894B7F82FEF3FEF4FE75FE7C5017D
:10126000B4010E94661981110DC02FEF3FEF4FE7C7
:101270005FE7C501B4010E94A51618161CF481E3AE
:1012800091E0D4CF2FEF3FEF4FE75FE4C701B60106
:101290000E94611918161CF485E391E0C7CF2FEF67
:1012A0003FEF4FE75FECC701B6010E94A51687FD2F
:1012B000F3CF20E030E0A901C701B6010E94A516D6
:1012C00010E000E087FF08C08DE20E94C6038C0199
:1012D000F7FAF094F7F8F094C0E060E070E080E096
:1012E0009FE37C1641F020E030E040E251E40E94B0
:1012F000B918CF5FF6CFA70196010E944D182B01B8
:101300003C010E9432194B015C014AE00E944C08EA
:101310007C01E00EF11ECC23B1F1C501B4010E94A5
:10132000AA169B01AC01C301B2010E944C184B01EB
:101330005C018EE20E94C603E80EF91EC15018F14E
:1013400020E030E040E251E4C501B4010E940B17F7
:101350002B013C010E9432194B01B12CA12C4AE017
:10136000C501B4010E944C08E80EF91EC501B40184
:101370000E94AA169B01AC01C301B2010E944C1845
:101380004B015C01DBCFC701CF911F910F91FF9003
:10139000EF90DF90CF90BF90AF909F908F907F9015
:1013A0006F905F904F9008951F93CF93DF9385EDDB
:1013B0008093BC0080917D0190917E01A0917F017E
:1013C000B09180010796A11DB11D23E0B695A795A8
:1013D000979587952A95D1F72091BC0024FD03C0ED
:1013E0001092C50152C040917D0150917E016091E3
:1013F0007F0170918001452B462B472B69F30097A5
:10140000A105B10541F02AE22A95F1F700C0019744
:10141000A109B109E1CF80917C01C1E0C0937B01BA
:10142000882399F1D091B8001091BA008091BC0046
:101430008A7B8093BC0060E082E10E94C50160E08D
:1014400083E10E94C5011092C501C093C7011092AB
:10145000C60161E082E10E94C50161E083E10E9472
:10146000C5018091B9008E7F8093B9008091B90049
:101470008D7F8093B90088E48093B80085E48093E1
:10148000BC001093BA00D093B800DF91CF911F91A8
:1014900008951F920F920FB60F9211242F933F932E
:1014A0008F939F93AF93BF93809162029091630259
:1014B000A0916402B09165023091610223E0230F94
:1014C0002D3758F50196A11DB11D2093610280931F
:1014D000620290936302A0936402B09365028091CC
:1014E000660290916702A0916802B091690201962C
:1014F000A11DB11D8093660290936702A0936802BC
:10150000B0936902BF91AF919F918F913F912F91BD
:101510000F900FBE0F901F90189526E8230F02968C
:10152000A11DB11DD2CF1F920F920FB60F921124A1
:101530002F933F934F935F936F937F938F939F93DB
:10154000AF93BF93EF93FF93E0911601F0911701D2
:101550000995FF91EF91BF91AF919F918F917F91ED
:101560006F915F914F913F912F910F900FBE0F9010
:101570001F9018951F920F920FB60F9211242F9360
:101580003F934F935F936F937F938F939F93AF930B
:10159000BF93EF93FF93E0911401F091150109952A
:1015A000FF91EF91BF91AF919F918F917F916F913B
:1015B0005F914F913F912F910F900FBE0F901F9011
:1015C00018951F920F920FB60F9211242F933F93ED
:1015D0004F935F936F937F938F939F93AF93BF933B
:1015E000EF93FF938AE692E00E943C03FF91EF9114
:1015F000BF91AF919F918F917F916F915F914F912B
:101600003F912F910F900FBE0F901F9018951F9232
:101610000F920FB60F9211242F938F939F93EF93F6
:10162000FF93E0917A02F0917B028081E091800249
:10163000F091810282FD1BC09081809183028F5FB7
:101640008F7320918402821741F0E0918302F0E0D1
:10165000E659FD4F958F80938302FF91EF919F9103
:101660008F912F910F900FBE0F901F901895808132
:10167000F4CF1F920F920FB60F9211242F933F9326
:101680004F935F936F937F938F939F93AF93BF938A
:10169000EF93FF938091B900887F803609F44AC0A8
:1016A000F0F5883209F4A5C018F5803109F499C025
:1016B000B8F4882309F4F5C0883009F492C0FF918A
:1016C000EF91BF91AF919F918F917F916F915F91BA
:1016D0004F913F912F910F900FBE0F901F90189533
:1016E000883109F486C0803251F78093C40114C058
:1016F000803409F49BC040F48033B9F38833F9F6A1
:101700008093C40185ECAEC0803509F483C0883570
:1017100009F494C0883499F60E94D409D0CF88394E
:1017200009F48AC038F5883729F050F4883611F06A
:10173000803729F683E08093C5011092C30155C01C
:10174000883809F479C0803919F0803809F0B7CFAA
:101750008091C301803208F06FC0E091C30181E045
:101760008E0F8093C3018091BB00F0E0ED55FE4FDA
:1017700080833BC0803B39F0D0F4803A09F477C0D5
:10178000883A09F09CCF84E08093C5011092A201B1
:101790001092A101F0E0E0E009958091A101811192
:1017A0000FC081E08093A1011092810109C0803CAB
:1017B00009F4A8CF883C09F4A5CF883B09F07FCF76
:1017C000E091A20181E08E0F8093A201F0E0EF573B
:1017D000FE4F80818093BB009091A2018091A10176
:1017E00029C08091EA018093BB0085EC8093BC0006
:1017F00066CF9091E9018091E801981758F5E09142
:10180000E90181E08E0F8093E901F0E0E853FE4F9B
:101810008081E9CFE091E90181E08E0F8093E901B9
:101820008091BB00F0E0E853FE4F80839091E90186
:101830008091E8019817C8F285E8D8CFE091E901D6
:1018400081E08E0F8093E9018091BB00F0E0E853C6
:10185000FE4F80838091C70181115ECF81E080932C
:10186000C60184EA8093BC001092C50128CF85ECA4
:101870008093BC001092C5018091C301803230F486
:10188000E091C301F0E0ED55FE4F10826091C3017D
:1018900070E083EA91E0F0E0E0E009951092C30186
:1018A0000ECF1092C40138CF4F925F926F927F9209
:1018B0008F929F92AF92BF92CF92DF92EF92FF9260
:1018C000EAE6F2E01382128288EE93E0A0E0B0E054
:1018D00084839583A683B7838CE191E09183808391
:1018E00085EC90E09587848784EC90E097878687E5
:1018F00080EC90E0918B808B81EC90E0938B828BDD
:1019000082EC90E0958B848B86EC90E0978B868BB5
:10191000118E128E138E148EE9E5F3E08DEC482EB5
:101920008CEC582E8CE0682E8FE3782E46AA57AAAE
:1019300060AE71AE9DEC892E9CEC992EA92C9DE396
:10194000B92E82AE93AEA4AEB5AEC12CD12C20E49C
:10195000E22EFE2CC0929703D0929803E092990356
:10196000F0929A0386E0808385E0818382E082831F
:101970001382148215821682178E10A211A212A24F
:10198000138A148A158A168A178A108E118E128E5F
:1019900040E050E060E87FEB438F548F658F768F97
:1019A00010A617A212A611A614A213A221E030E0DD
:1019B00036A325A31092A3031092A4031092A503AB
:1019C0001092A6031092A7031092A8031092A903E5
:1019D0001092AA0310929B0310929C0310929D03F5
:1019E00010929E0310929F031092A0031092A103E5
:1019F0001092A2031782108611861286138614860F
:101A0000158616861786108A118A128A81E083A7A6
:101A100014A615A616A617A610AA11AA12AA13AAEA
:101A200014AA15AAE7E0F3E046AA57AA60AE71AE81
:101A300082AE93AEA4AEB5AEC0924503D09246033B
:101A4000E0924703F09248039AE090839BE09183F1
:101A500093E092831382148215821682178E10A24D
:101A600011A212A2138A148A158A168A178A108E56
:101A7000118E128E438F548F658F768F10A617A20A
:101A800012A611A614A213A236A325A310925103E5
:101A90001092520310925303109254031092550364
:101AA0001092560310925703109258031092490354
:101AB00010924A0310924B0310924C0310924D0364
:101AC00010924E0310924F0310925003178210860B
:101AD0001186128613861486158616861786108A36
:101AE000118A128A83A714A615A616A617A610AAED
:101AF00011AA12AA13AA14AA15AAFF90EF90DF90B8
:101B0000CF90BF90AF909F908F907F906F905F909D
:101B10004F900895CF93DF93CDB7DEB72C970FB6D4
:101B2000F894DEBF0FBECDBF789484B5826084BDCB
:101B300084B5816084BD85B5826085BD85B58160D1
:101B400085BD80916E00816080936E00109281004F
:101B5000809181008260809381008091810081600A
:101B600080938100809180008160809380008091CB
:101B7000B10084608093B1008091B0008160809357
:101B8000B00080917A00846080937A0080917A001E
:101B9000826080937A0080917A00816080937A00DD
:101BA00080917A00806880937A001092C100E09161
:101BB0007A02F0917B0282E08083E0917602F091DC
:101BC00077021082E0917802F091790280E18083BF
:101BD00010928202E0917E02F0917F0286E0808383
:101BE000E0917C02F0917D02808180618083E091B0
:101BF0007C02F0917D02808188608083E0917C028C
:101C0000F0917D02808180688083E0917C02F09178
:101C10007D0280818F7D808382EB90E00E9490081E
:101C200089E593E00E942E0887E093E00E942E0849
:101C300080915B03823009F4ACC0833009F0ABC003
:101C400081E066E278E00E945701809109038230CA
:101C500009F4A3C0833009F0A2C081E06AE278E011
:101C60000E94570184E690E0A0E0B0E0809300017C
:101C700090930101A0930201B093030185E090E0ED
:101C8000A0E0B0E08093060190930701A0930801C3
:101C9000B093090184E190E0A0E0B0E080930A01F4
:101CA00090930B01A0930C01B0930D018AE090E09A
:101CB000A0E0B0E080930E0190930F01A09310017B
:101CC000B093110161E08DE00E94F30160E08CE0CF
:101CD0000E94F30160E08DE00E94C5010E948C0229
:101CE00060935B0270935C0280935D0290935E024E
:101CF00060E087E00E94F30160E084E00E94F3016D
:101D000060E088E00E94F30181E090E090934A0255
:101D10008093490283EA90E00E9490088E010F5F51
:101D20001F4F1801065F1F4F1C870B8740ED442E85
:101D300047E0542E612C712C8AE0F10111928A95B2
:101D4000E9F78AE692E00E941C031816190674F55A
:101D50008AE692E00E94FA02182FF1E0F093310235
:101D60000E94B10260932D0270932E0280932F0285
:101D700090933002112329F3E0912C02EF3388F481
:101D800081E08E0F80932C02F0E0E451FE4F10832F
:101D9000D8CF80E056CF8FEF54CF80E05FCF8FEF6A
:101DA0005DCFEE24E394E092EB01CBCF8091310242
:101DB000882331F10E94B10200912D0210912E0270
:101DC00020912F0230913002601B710B820B930B1C
:101DD00000916E0210916F02209170023091710299
:101DE000601771078207930758F0109231028091B3
:101DF000EB01882309F45FC210922C021092EB01D0
:101E00000E94B10260934F0270935002809351027E
:101E100090935202009132021091330220913402C9
:101E2000309135024B015C01801A910AA20AB30A73
:101E30008091000190910101A0910201B0910301F4
:101E400088169906AA06BB0608F492C0811491046C
:101E5000A104B104A1F1F89460915C0370915D0359
:101E600080915E0390915F0310925C0310925D037A
:101E700010925E0310925F0378940E94AA1620E0ED
:101E800030E040EA51E40E94B91820E030E64AE62A
:101E900057E40E940B176B017C01C501B4010E943D
:101EA000AA169B01AC01C701B6010E94B918609344
:101EB0007003709371038093720390937303809007
:101EC0004F0290905002A0905102B0905202809127
:101ED000320290913302A0913402B0913502881AF7
:101EE000990AAA0ABB0AA1F1F89460910A037091B9
:101EF0000B0380910C0390910D0310920A03109232
:101F00000B0310920C0310920D0378940E94AA16F2
:101F100020E030E040EA51E40E94B91820E030E6C9
:101F20004AE657E40E940B176B017C01C501B4011E
:101F30000E94AA169B01AC01C701B6010E94B91804
:101F400060931E0370931F038093200390932103DB
:101F500080914F0290915002A0915102B091520293
:101F60008093320290933302A0933402B0933502EF
:101F700080904F0290905002A0905102B090520277
:101F800080913A0290913B02A0913C02B0913D02B7
:101F9000B501A401481B590B6A0B7B0B809106010C
:101FA00090910701A0910801B091090148175907C4
:101FB0006A077B0708F459C080915F02882399F073
:101FC0008091120190911301909305018093040177
:101FD00010925F0297FD07C021E0883791050CF051
:101FE00020E02093470287E00E949C018C0188E05A
:101FF0000E949C0141E050E00130110511F050E0D9
:1020000040E0440F551F440F551F21E030E0019779
:1020100011F030E020E0220F331F142F122B84E048
:102020000E949C0121E0019709F020E0122B009111
:10203000480210137BC211FD08C080914602833014
:1020400009F446C2843009F45BC280914F0290913A
:102050005002A0915102B091520280933A029093A3
:102060003B02A0933C02B0933D0280904F029090BF
:102070005002A0905102B090520280913E02909185
:102080003F02A0914002B091410275016401C81A5B
:10209000D90AEA0AFB0A80910A0190910B01A091EA
:1020A0000C01B0910D01C816D906EA06FB0630F105
:1020B0008091490290914A02009709F484C20197E5
:1020C00009F490C289E593E00E941B0787E093E042
:1020D0000E941B07B701A60189E593E00E943F0417
:1020E000B701A60187E093E00E943F0480923E0280
:1020F00090923F02A0924002B0924102809142022F
:1021000090914302A0914402B0914502B501A4010F
:10211000481B590B6A0B7B0B80910E0190910F01AC
:10212000A0911001B0911101481759076A077B0768
:1021300080F089E593E00E94D60587E093E00E9455
:10214000D6058092420290924302A0924402B0923D
:10215000450280914B0290914C02A0914D02B091AA
:102160004E02881A990AAA0ABB0AE8EE8E16E3E024
:102170009E06A104B10408F496C283EF91E00E9488
:10218000900887EE91E00E94AB0380914902909104
:102190004A020E949E0881ED91E00E94AB0380916B
:1021A0008003909181030E94CE0884EC91E00E940C
:1021B000AB0380918203909183030E94CE0888EB49
:1021C00091E00E94AB0360916C0370916D0380916C
:1021D0006E0390916F0342E00E94FC088AE291E056
:1021E0000E943F0881EA91E00E94AB0380912E0398
:1021F00090912F030E94CE0884E991E00E94AB03E6
:1022000080913003909131030E94CE0888E891E0DC
:102210000E94AB0360911A0370911B0380911C0311
:1022200090911D0342E00E94FC088AE291E00E9426
:102230003F088DE791E00E94AB03109148028FE4C4
:1022400012FF88E50E94C60389E791E00E94AB0374
:102250008FE411FF88E50E94C60385E791E00E94A4
:10226000AB038FE410FF88E50E94C6038AE291E089
:102270000E943F088AE691E00E94AB0380914702EA
:10228000882309F4F1C186E691E00E9490088CE46D
:1022900091E00E94AB0380914602823009F420C293
:1022A00008F0E5C1882309F4EAC1813009F415C2B8
:1022B00083EE90E0E6C100912C0210E0F801E451B9
:1022C000FE4F10823CEEE32E31E0F32EF7018191B8
:1022D0005F01882331F090E00E943115892B09F0CD
:1022E000A8C004511E4FE016F10648F4F80182918F
:1022F0005F0190E00E943115892B09F09CC0F80124
:102300001082FCEEEF16F1E0FF0651F0A8014E1925
:102310005F094F5F5F4FB7018CEE91E00E9471192A
:1023200010922C028091EC01882309F469CD85EC90
:1023300090E00E94AB038CEE91E00E943F088AE29D
:1023400091E00E943F0881018CEE91E0F8018193B9
:1023500091938F016AE370E00E948319009741F026
:10236000FC011192CF01EB84FC84E016F10671F7B9
:10237000E980FA8061E771E0C7010E948E198C0143
:10238000892B09F45AC06AE671E0C7010E948E19D0
:10239000892B09F035CD8B819C81812C912C5401A6
:1023A000009721F00E942D154B015C018D819E81CB
:1023B000C12CD12C7601009721F00E942D156B01C4
:1023C0007C018F819885009709F47EC00E942D15AD
:1023D00080928F0390929003A0929103B092920307
:1023E000C0929703D0929803E0929903F0929A03D7
:1023F0006093930370939403809395039093960353
:1024000080923D0390923E03A0923F03B09240031E
:10241000C0924503D0924603E0924703F0924803EE
:10242000609341037093420380934303909344036A
:10243000E7CC75014BCF850156CF8B819C81F12C68
:10244000E12C009739F04AE050E070E060E00E9433
:1024500016147B018D819E81009739F04AE050E08F
:1024600070E060E00E9416148B0122E030E03093AF
:102470004A0220934902B7010F2C000C880B990BDC
:102480000E94AC16AB01BC0189E593E00E94840672
:10249000B801012E000C880B990B0E94AC16AB0101
:1024A000BC0187E093E00E94840689E391E00E94EA
:1024B0003F08C7010E949E0881E591E00E943F0805
:1024C000C8010E949E089CCC60E070E0CB0180CFE8
:1024D0008091360290913702A0913802B091390272
:1024E000881A990AAA0ABB0A81E038E5831632E005
:1024F0009306A104B10408F4A8CD80934602A5CDAB
:102500008091360290913702A0913802B091390241
:10251000881A990AAA0ABB0A98E5891692E09906D0
:10252000A104B10408F491CD82E0E7CF88ED90E0FA
:102530000E94AB03602F70E090E080E04AE00E94D0
:102540004C088AE30E94C603612F70E090E080E0AF
:102550004AE00E944C088AE291E00E943F08809184
:10256000460240914F025091500260915102709189
:102570005202823061F038F4882371F08130F1F03A
:102580001093480262CD8330C9F08430C9F712FD40
:1025900005C011FD15C0F4CF12FF02C083E003C0D7
:1025A00010FFEECF84E080934602409336025093B2
:1025B00037026093380270933902E2CF11FFF0CFF7
:1025C00010924602DDCF40E050E0BA0189E593E089
:1025D0000E94840640E050E0BA0187E093E00E9448
:1025E000840670CD80914702882349F089E593E005
:1025F0000E94FA0687E093E00E94FA0663CD80917C
:102600004602823039F180F48823F9F040E050E04E
:10261000BA01813059F789E593E00E94840640E0D1
:1026200050E064E373E4D9CF8330C9F08430F1F62D
:1026300040E050E064E373E489E593E00E9484069F
:1026400040E050E060E271E4C8CF40E050E064E375
:1026500073E4E1CF40E050E064E373E4B7CF40E0DF
:1026600050E060E271E4D7CF83E691E00ECE833094
:10267000D1F1843009F01CCE89EF90E002C08DE3E7
:1026800091E00E94900880914F0290915002A09199
:102690005102B091520280934B0290934C02A0934E
:1026A0004D02B0934E020E948C024B015C0180915E
:1026B0006002813009F45CC0C8F0823009F489C03E
:1026C00080E090E0892B09F437CB0E94280388230F
:1026D00009F432CB0E9400002FCB80E391E0D1CFF0
:1026E00082E291E0CECF8EE091E0CBCF80915F028D
:1026F0008111E6CF80915B0290915C02A0915D0216
:10270000B0915E02881A990AAA0ABB0AF0E68F16EF
:10271000FAEE9F06A104B10498F260E08DE00E94F9
:10272000C50183E090E00197F1F761E08DE00E9440
:10273000C50183E290E00197F1F760E08DE00E942F
:10274000C5010E948C0260935B0270935C028093CF
:102750005D0290935E0260935702709358028093DB
:10276000590290935A02EE24E394E0926002A8CFBB
:102770008CE00E949C01019761F480925302909238
:102780005402A0925502B092560282E080936002F9
:1027900097CF8091570290915802A0915902B09121
:1027A0005A02881A990AAA0ABB0A08EA801601E6A0
:1027B0009006A104B10408F483CF2FEF3FEF3093CC
:1027C00013012093120131E030935F0210926002F6
:1027D00077CF8CE00E949C014091530250915402AB
:1027E000609155027091560285017401E41AF50A50
:1027F000060B170BA8019701892B89F4A7E5B1E017
:102800000E94FB17A30192010E94D9173093130174
:1028100020931201FF24F394F0925F02D7CF283A5D
:1028200031464105510508F44BCFC7CFB0E0A0E0D9
:10283000ECE1F4E10C9407185C016B017A0161157D
:10284000710519F0FB0191838083E114F10451F0CB
:10285000C7010297839730F040E030E020E090E03D
:1028600072C05E01E5012196F5011081812F90E093
:102870000E943115892BA9F71D3201F52196F5012A
:10288000118101E0E114F10409F4DAC0F0E1EF167E
:10289000F10409F082C0103359F488818F7D8835A6
:1028A00009F076C0198122960260F0E1EF2EF12C3A
:1028B000812C912CA12C88E0B82E8CC01B3221F4E5
:1028C000E5012296F501118100E0DCCFEAE0EE1689
:1028D000F10409F4BBC0F0E1EF16F10409F06DC09A
:1028E000E7CF78E0E72EF12C812C912CA12C60E130
:1028F000B62E70C03FE9310F3A3128F439EA332E51
:1029000080C021E09AC0302F3170C114D10431F061
:10291000222309F12197F601D183C08327FF21C02B
:1029200060E070E080E090E8311104C06FEF7FEF6D
:102930008FEF9FE722E230E03093AC032093AB03AC
:10294000462F372F282F642F732F822FCDB7DEB756
:10295000E1E10C94231801FF04C02297F601D18312
:10296000C083332341F090958095709561957F4F9A
:102970008F4F9F4FE5CF97FFE3CF82E290E0909398
:10298000AC038093AB036FEF7FEF8FEF9FE7D8CF60
:1029900010E3E114F10409F4A4CF28E0E216F104F5
:1029A00009F4A2CF0CF092CF812C912CA12CE0E461
:1029B000BE2E82E0E816F10469F060E070E080E08D
:1029C00090E897010F2C000C440B550B0E94D9176F
:1029D00049015A0120E060E070E0CB0127010F2C93
:1029E000000C66087708FE0150ED352E310E39E0F7
:1029F000331540F43FEB310F3A3108F07BCF49EC0F
:102A0000342E310E3E141F040CF07DCF27FD15C06F
:102A100086169706A806B90678F0A30192010E94CF
:102A2000C917630D711D811D911D613071058105EF
:102A300020E8920708F465CF2FEF21961081D3CFBD
:102A4000103309F42ACF2AE0E22EF12C9CEC892ED7
:102A5000982CA82C9CE0B92EBDCF662777270C9424
:102A60003A1591110C948A16803219F089508550CC
:102A7000C8F70895B0E0A0E0E0E4F5E10C940C188C
:102A80005C017B016115710519F0DB018D939C934D
:102A900085010F5F1F4FF501D0818D2F90E00E94BF
:102AA00031156C01892BB9F5DD32B9F50F5F1F4F78
:102AB000D5011196DC91C1E05801F1E0AF1AB108DF
:102AC00043E050E060E770E0C5010E948D16892B5D
:102AD00069F5680182E0C80ED11C45E050E06BE664
:102AE00070E0C6010E948D16892B21F4680197E0E1
:102AF000C90ED11CE114F10419F0D701CD92DC927A
:102B000060E070E080E89FEFC111FFC060E070E01E
:102B100080E89FE7FAC05801BBCFDB3229F485017A
:102B20000E5F1F4FF501D181C0E0C6CF43E050E0FA
:102B300068E670E0C5010E948D16892BE9F0F80166
:102B400010E000E020E030E0A9015F01B0ED8B2E45
:102B50008D0E89E08815C8F19C2E689491F88C2F11
:102B60008870C2FF16C0811102C00F5F1F4F3196DF
:102B7000D501DC91C92DE9CFE114F10429F00E5FF4
:102B80001F4FF7011183008360E070E080EC9FE746
:102B9000BCC0882311F001501109A5E0B0E00E94EB
:102BA000FB179B01AC01220F331F441F551F280D3B
:102BB000311D411D511D283999E93907490799E10E
:102BC0005907A8F2C6609C2ED2CFAEEF8A1206C07B
:102BD000C3FD3CC09C2E689493F8C9CFDF7DD534EB
:102BE000A9F580818D3239F4C061DF0112968181AF
:102BF00062E070E006C0DF018B32C1F3119661E044
:102C000070E080535D01A61AB70A8A30F8F4E0E854
:102C1000CE16ECE0DE065CF4B601660F771F660F99
:102C2000771FC60ED71ECC0CDD1CC80ED11C5D0153
:102C3000FFEFAF1ABF0A8C9180538A30A8F1C4FF0E
:102C400003C0D194C194D1080C0D1D1DC1FF09C052
:102C5000E114F10431F081E0A81AB108D701AD9276
:102C6000BC92CA01B9010E94AA16C370C33009F40C
:102C700090584B015C0120E030E0A9010E94A516AC
:102C8000882309F440C0CFE9D0E017FF05C01195B3
:102C900001951109C7E8D0E06E01B8E1CB1AD1085F
:102CA00080E2E82EF12C0FC0D501B1CFFE012591B5
:102CB0003591459154910E191F09C501B4010E9427
:102CC0000B174B015C01D501C4010E151F0574F7EC
:102CD0002497F594E794CC16DD06A9F78A2F880F80
:102CE0008B2F881F8F3F49F020E030E0A901C501FC
:102CF000B4010E94A516811106C082E290E0909373
:102D0000AC038093AB03C501B401CDB7DEB7ECE0F3
:102D10000C942818992788270895FB01DC0141505D
:102D2000504088F08D9181341CF08B350CF4805E1E
:102D3000659161341CF06B350CF4605E861B61118B
:102D400071F3990B0895881BFCCF0E94E71608F4D5
:102D500081E00895E89409C097FB3EF49095809532
:102D6000709561957F4F8F4F9F4F9923A9F0F92F51
:102D700096E9BB279395F695879577956795B795CF
:102D8000F111F8CFFAF4BB0F11F460FF1BC06F5FB5
:102D90007F4F8F4F9F4F16C0882311F096E911C0C7
:102DA000772321F09EE8872F762F05C0662371F0E8
:102DB00096E8862F70E060E02AF09A95660F771FFC
:102DC000881FDAF7880F9695879597F90895990FD8
:102DD0000008550FAA0BE0E8FEEF16161706E807E5
:102DE000F907C0F012161306E407F50798F0621B06
:102DF000730B840B950B39F40A2661F0232B242BDB
:102E0000252B21F408950A2609F4A140A6958FEFF9
:102E1000811D811D08950E941E170C948F170E941A
:102E2000811738F00E94881720F0952311F00C9438
:102E300078170C947E1711240C94C3170E94A017C6
:102E400070F3959FC1F3950F50E0551F629FF001FD
:102E5000729FBB27F00DB11D639FAA27F00DB11D16
:102E6000AA1F649F6627B00DA11D661F829F22279F
:102E7000B00DA11D621F739FB00DA11D621F839F26
:102E8000A00D611D221F749F3327A00D611D231FFC
:102E9000849F600D211D822F762F6A2F11249F574A
:102EA00050409AF0F1F088234AF0EE0FFF1FBB1F4D
:102EB000661F771F881F91505040A9F79E3F51050C
:102EC00080F00C9478170C94C3175F3FE4F3983E9E
:102ED000D4F3869577956795B795F795E7959F5FB6
:102EE000C1F7FE2B880F911D9695879597F9089548
:102EF00097F99F6780E870E060E008959FEF80ECAD
:102F0000089500240A94161617061806090608954F
:102F100000240A9412161306140605060895092EB5
:102F20000394000C11F4882352F0BB0F40F4BF2B24
:102F300011F460FF04C06F5F7F4F8F4F9F4F089564
:102F400057FD9058440F551F59F05F3F71F047955A
:102F5000880F97FB991F61F09F3F79F0879508953F
:102F6000121613061406551FF2CF4695F1DF08C05E
:102F7000161617061806991FF1CF8695710561057B
:102F800008940895E894BB2766277727CB0197F923
:102F90000895DB018F939F930E94FB17BF91AF9120
:102FA000A29F800D911DA39F900DB29F900D1124A3
:102FB0000895A1E21A2EAA1BBB1BFD010DC0AA1F7A
:102FC000BB1FEE1FFF1FA217B307E407F50720F092
:102FD000A21BB30BE40BF50B661F771F881F991F0D
:102FE0001A9469F760957095809590959B01AC0156
:102FF000BD01CF0108950E943D18A59F900DB49F7B
:10300000900DA49F800D911D112408952F923F9241
:103010004F925F926F927F928F929F92AF92BF92E8
:10302000CF92DF92EF92FF920F931F93CF93DF9394
:10303000CDB7DEB7CA1BDB0B0FB6F894DEBF0FBEF1
:10304000CDBF09942A88398848885F846E847D843E
:103050008C849B84AA84B984C884DF80EE80FD8040
:103060000C811B81AA81B981CE0FD11D0FB6F894B6
:10307000DEBF0FBECDBFED010895A29FB001B39F8B
:10308000C001A39F700D811D1124911DB29F700D71
:10309000811D1124911D08955058BB27AA270E9415
:1030A00064180C948F170E94811738F00E948817BB
:1030B00020F039F49F3F19F426F40C947E170EF497
:1030C000E095E7FB0C947817E92F0E94A01758F3BE
:1030D000BA17620773078407950720F079F4A6F5FD
:1030E0000C94C2170EF4E0950B2EBA2FA02D0B01F5
:1030F000B90190010C01CA01A0011124FF27591B3D
:1031000099F0593F50F4503E68F11A16F040A22F42
:10311000232F342F4427585FF3CF469537952795B3
:10312000A795F0405395C9F77EF41F16BA0B620BB2
:10313000730B840BBAF09150A1F0FF0FBB1F661FF9
:10314000771F881FC2F70EC0BA0F621F731F841F3C
:1031500048F4879577956795B795F7959E3F08F062
:10316000B0CF9395880F08F09927EE0F9795879524
:1031700008950E94CD180C948F170E94881758F05C
:103180000E94811740F029F45F3F29F00C947817D2
:1031900051110C94C3170C947E170E94A01768F36A
:1031A0009923B1F3552391F3951B550BBB27AA2700
:1031B00062177307840738F09F5F5F4F220F331F3A
:1031C000441FAA1FA9F335D00E2E3AF0E0E832D002
:1031D00091505040E695001CCAF72BD0FE2F29D005
:1031E000660F771F881FBB1F261737074807AB07D7
:1031F000B0E809F0BB0B802DBF01FF2793585F4F4C
:103200003AF09E3F510578F00C9478170C94C31750
:103210005F3FE4F3983ED4F3869577956795B7952D
:10322000F7959F5FC9F7880F911D9695879597F938
:103230000895E1E0660F771F881FBB1F62177307B1
:103240008407BA0720F0621B730B840BBA0BEE1FC6
:1032500088F7E09508950E9432196894B1110C9492
:10326000C31708950E94A81788F09F5798F0B92FA8
:103270009927B751B0F0E1F0660F771F881F991FAB
:103280001AF0BA95C9F714C0B13091F00E94C21774
:10329000B1E008950C94C217672F782F8827B85F84
:1032A00039F0B93FCCF3869577956795B395D9F703
:1032B0003EF490958095709561957F4F8F4F9F4F0D
:1032C00008950E94E71608F48FEF08950E94E7160C
:1032D000880B990B0895EE0FFF1F0590F491E02DD8
:1032E00009946817790768F4FB01DC01E40FF51F06
:1032F000A40FB51F02C002900E9241505040D8F763
:1033000008950C949719FC018191861721F0882368
:10331000D9F7992708953197CF010895FB01DC0172
:103320008D91019080190110D9F3990B0895FB013B
:10333000DC0102C001900D9241505040D8F7089531
:04334000F894FFCF2F
:10334400E8030000FFFFE8030000E8030000E803CF
:103354000000FFFFBD02BD02000000005E03BE02CC
:10336400EB02CB031C03FA020E030D0A006E616E1E
:1033740000696E66006F7666006C65667420776817
:1033840065656C2052504D2073657420746F3A202B
:1033940000726967687420776865656C2052504DC7
:1033A4002073657420746F3A200053455450494487
:0A33B40000534554535045454400B2
:00000001FF
